{
	"058TestMultiCall.sol": {
		"TestMultiCall": {
			"abi": [
				{
					"inputs": [],
					"name": "func1",
					"outputs": [
						{
							"internalType": "uint256",
							"name": "",
							"type": "uint256"
						},
						{
							"internalType": "uint256",
							"name": "",
							"type": "uint256"
						}
					],
					"stateMutability": "view",
					"type": "function"
				},
				{
					"inputs": [],
					"name": "func2",
					"outputs": [
						{
							"internalType": "uint256",
							"name": "",
							"type": "uint256"
						},
						{
							"internalType": "uint256",
							"name": "",
							"type": "uint256"
						}
					],
					"stateMutability": "view",
					"type": "function"
				},
				{
					"inputs": [],
					"name": "getData1",
					"outputs": [
						{
							"internalType": "bytes",
							"name": "",
							"type": "bytes"
						}
					],
					"stateMutability": "pure",
					"type": "function"
				},
				{
					"inputs": [],
					"name": "getData2",
					"outputs": [
						{
							"internalType": "bytes",
							"name": "",
							"type": "bytes"
						}
					],
					"stateMutability": "pure",
					"type": "function"
				}
			],
			"devdoc": {
				"kind": "dev",
				"methods": {},
				"version": 1
			},
			"evm": {
				"assembly": "    /* \"058TestMultiCall.sol\":57:546  contract TestMultiCall{... */\n  mstore(0x40, 0x80)\n  callvalue\n  dup1\n  iszero\n  tag_1\n  jumpi\n  0x00\n  dup1\n  revert\ntag_1:\n  pop\n  dataSize(sub_0)\n  dup1\n  dataOffset(sub_0)\n  0x00\n  codecopy\n  0x00\n  return\nstop\n\nsub_0: assembly {\n        /* \"058TestMultiCall.sol\":57:546  contract TestMultiCall{... */\n      mstore(0x40, 0x80)\n      callvalue\n      dup1\n      iszero\n      tag_1\n      jumpi\n      0x00\n      dup1\n      revert\n    tag_1:\n      pop\n      jumpi(tag_2, lt(calldatasize, 0x04))\n      shr(0xe0, calldataload(0x00))\n      dup1\n      0x74135154\n      eq\n      tag_3\n      jumpi\n      dup1\n      0x9944cc71\n      eq\n      tag_4\n      jumpi\n      dup1\n      0xa898fd70\n      eq\n      tag_5\n      jumpi\n      dup1\n      0xb1ade4db\n      eq\n      tag_6\n      jumpi\n    tag_2:\n      0x00\n      dup1\n      revert\n        /* \"058TestMultiCall.sol\":86:179  function func1() external  view returns (uint,uint){... */\n    tag_3:\n      tag_7\n      tag_8\n      jump\t// in\n    tag_7:\n      mload(0x40)\n      tag_9\n      swap3\n      swap2\n      swap1\n      tag_10\n      jump\t// in\n    tag_9:\n      mload(0x40)\n      dup1\n      swap2\n      sub\n      swap1\n      return\n        /* \"058TestMultiCall.sol\":285:410  function getData1() external  pure  returns (bytes memory){... */\n    tag_4:\n      tag_11\n      tag_12\n      jump\t// in\n    tag_11:\n      mload(0x40)\n      tag_13\n      swap2\n      swap1\n      tag_14\n      jump\t// in\n    tag_13:\n      mload(0x40)\n      dup1\n      swap2\n      sub\n      swap1\n      return\n        /* \"058TestMultiCall.sol\":416:541  function getData2() external  pure  returns (bytes memory){... */\n    tag_5:\n      tag_15\n      tag_16\n      jump\t// in\n    tag_15:\n      mload(0x40)\n      tag_17\n      swap2\n      swap1\n      tag_14\n      jump\t// in\n    tag_17:\n      mload(0x40)\n      dup1\n      swap2\n      sub\n      swap1\n      return\n        /* \"058TestMultiCall.sol\":185:278  function func2() external  view returns (uint,uint){... */\n    tag_6:\n      tag_18\n      tag_19\n      jump\t// in\n    tag_18:\n      mload(0x40)\n      tag_20\n      swap3\n      swap2\n      swap1\n      tag_10\n      jump\t// in\n    tag_20:\n      mload(0x40)\n      dup1\n      swap2\n      sub\n      swap1\n      return\n        /* \"058TestMultiCall.sol\":86:179  function func1() external  view returns (uint,uint){... */\n    tag_8:\n        /* \"058TestMultiCall.sol\":127:131  uint */\n      0x00\n        /* \"058TestMultiCall.sol\":132:136  uint */\n      dup1\n        /* \"058TestMultiCall.sol\":154:155  1 */\n      0x01\n        /* \"058TestMultiCall.sol\":156:171  block.timestamp */\n      timestamp\n        /* \"058TestMultiCall.sol\":147:172  return(1,block.timestamp) */\n      swap2\n      pop\n      swap2\n      pop\n        /* \"058TestMultiCall.sol\":86:179  function func1() external  view returns (uint,uint){... */\n      swap1\n      swap2\n      jump\t// out\n        /* \"058TestMultiCall.sol\":285:410  function getData1() external  pure  returns (bytes memory){... */\n    tag_12:\n        /* \"058TestMultiCall.sol\":330:342  bytes memory */\n      0x60\n        /* \"058TestMultiCall.sol\":383:402  this.func1.selector */\n      shl(0xe0, 0x74135154)\n        /* \"058TestMultiCall.sol\":360:403  abi.encodeWithSelector(this.func1.selector) */\n      add(0x24, mload(0x40))\n      mload(0x40)\n      0x20\n      dup2\n      dup4\n      sub\n      sub\n      dup2\n      mstore\n      swap1\n      0x40\n      mstore\n      swap1\n      not(0xffffffffffffffffffffffffffffffffffffffffffffffffffffffff)\n      and\n      0x20\n      dup3\n      add\n      dup1\n      mload\n      0xffffffffffffffffffffffffffffffffffffffffffffffffffffffff\n      dup4\n      dup2\n      dup4\n      and\n      or\n      dup4\n      mstore\n      pop\n      pop\n      pop\n      pop\n        /* \"058TestMultiCall.sol\":353:403  return abi.encodeWithSelector(this.func1.selector) */\n      swap1\n      pop\n        /* \"058TestMultiCall.sol\":285:410  function getData1() external  pure  returns (bytes memory){... */\n      swap1\n      jump\t// out\n        /* \"058TestMultiCall.sol\":416:541  function getData2() external  pure  returns (bytes memory){... */\n    tag_16:\n        /* \"058TestMultiCall.sol\":461:473  bytes memory */\n      0x60\n        /* \"058TestMultiCall.sol\":514:533  this.func2.selector */\n      shl(0xe0, 0xb1ade4db)\n        /* \"058TestMultiCall.sol\":491:534  abi.encodeWithSelector(this.func2.selector) */\n      add(0x24, mload(0x40))\n      mload(0x40)\n      0x20\n      dup2\n      dup4\n      sub\n      sub\n      dup2\n      mstore\n      swap1\n      0x40\n      mstore\n      swap1\n      not(0xffffffffffffffffffffffffffffffffffffffffffffffffffffffff)\n      and\n      0x20\n      dup3\n      add\n      dup1\n      mload\n      0xffffffffffffffffffffffffffffffffffffffffffffffffffffffff\n      dup4\n      dup2\n      dup4\n      and\n      or\n      dup4\n      mstore\n      pop\n      pop\n      pop\n      pop\n        /* \"058TestMultiCall.sol\":484:534  return abi.encodeWithSelector(this.func2.selector) */\n      swap1\n      pop\n        /* \"058TestMultiCall.sol\":416:541  function getData2() external  pure  returns (bytes memory){... */\n      swap1\n      jump\t// out\n        /* \"058TestMultiCall.sol\":185:278  function func2() external  view returns (uint,uint){... */\n    tag_19:\n        /* \"058TestMultiCall.sol\":226:230  uint */\n      0x00\n        /* \"058TestMultiCall.sol\":231:235  uint */\n      dup1\n        /* \"058TestMultiCall.sol\":253:254  2 */\n      0x02\n        /* \"058TestMultiCall.sol\":255:270  block.timestamp */\n      timestamp\n        /* \"058TestMultiCall.sol\":246:271  return(2,block.timestamp) */\n      swap2\n      pop\n      swap2\n      pop\n        /* \"058TestMultiCall.sol\":185:278  function func2() external  view returns (uint,uint){... */\n      swap1\n      swap2\n      jump\t// out\n        /* \"#utility.yul\":7:84   */\n    tag_25:\n        /* \"#utility.yul\":44:51   */\n      0x00\n        /* \"#utility.yul\":73:78   */\n      dup2\n        /* \"#utility.yul\":62:78   */\n      swap1\n      pop\n        /* \"#utility.yul\":7:84   */\n      swap2\n      swap1\n      pop\n      jump\t// out\n        /* \"#utility.yul\":90:208   */\n    tag_26:\n        /* \"#utility.yul\":177:201   */\n      tag_35\n        /* \"#utility.yul\":195:200   */\n      dup2\n        /* \"#utility.yul\":177:201   */\n      tag_25\n      jump\t// in\n    tag_35:\n        /* \"#utility.yul\":172:175   */\n      dup3\n        /* \"#utility.yul\":165:202   */\n      mstore\n        /* \"#utility.yul\":90:208   */\n      pop\n      pop\n      jump\t// out\n        /* \"#utility.yul\":214:546   */\n    tag_10:\n        /* \"#utility.yul\":335:339   */\n      0x00\n        /* \"#utility.yul\":373:375   */\n      0x40\n        /* \"#utility.yul\":362:371   */\n      dup3\n        /* \"#utility.yul\":358:376   */\n      add\n        /* \"#utility.yul\":350:376   */\n      swap1\n      pop\n        /* \"#utility.yul\":386:457   */\n      tag_37\n        /* \"#utility.yul\":454:455   */\n      0x00\n        /* \"#utility.yul\":443:452   */\n      dup4\n        /* \"#utility.yul\":439:456   */\n      add\n        /* \"#utility.yul\":430:436   */\n      dup6\n        /* \"#utility.yul\":386:457   */\n      tag_26\n      jump\t// in\n    tag_37:\n        /* \"#utility.yul\":467:539   */\n      tag_38\n        /* \"#utility.yul\":535:537   */\n      0x20\n        /* \"#utility.yul\":524:533   */\n      dup4\n        /* \"#utility.yul\":520:538   */\n      add\n        /* \"#utility.yul\":511:517   */\n      dup5\n        /* \"#utility.yul\":467:539   */\n      tag_26\n      jump\t// in\n    tag_38:\n        /* \"#utility.yul\":214:546   */\n      swap4\n      swap3\n      pop\n      pop\n      pop\n      jump\t// out\n        /* \"#utility.yul\":552:650   */\n    tag_27:\n        /* \"#utility.yul\":603:609   */\n      0x00\n        /* \"#utility.yul\":637:642   */\n      dup2\n        /* \"#utility.yul\":631:643   */\n      mload\n        /* \"#utility.yul\":621:643   */\n      swap1\n      pop\n        /* \"#utility.yul\":552:650   */\n      swap2\n      swap1\n      pop\n      jump\t// out\n        /* \"#utility.yul\":656:824   */\n    tag_28:\n        /* \"#utility.yul\":739:750   */\n      0x00\n        /* \"#utility.yul\":773:779   */\n      dup3\n        /* \"#utility.yul\":768:771   */\n      dup3\n        /* \"#utility.yul\":761:780   */\n      mstore\n        /* \"#utility.yul\":813:817   */\n      0x20\n        /* \"#utility.yul\":808:811   */\n      dup3\n        /* \"#utility.yul\":804:818   */\n      add\n        /* \"#utility.yul\":789:818   */\n      swap1\n      pop\n        /* \"#utility.yul\":656:824   */\n      swap3\n      swap2\n      pop\n      pop\n      jump\t// out\n        /* \"#utility.yul\":830:969   */\n    tag_29:\n        /* \"#utility.yul\":919:925   */\n      dup3\n        /* \"#utility.yul\":914:917   */\n      dup2\n        /* \"#utility.yul\":909:912   */\n      dup4\n        /* \"#utility.yul\":903:926   */\n      mcopy\n        /* \"#utility.yul\":960:961   */\n      0x00\n        /* \"#utility.yul\":951:957   */\n      dup4\n        /* \"#utility.yul\":946:949   */\n      dup4\n        /* \"#utility.yul\":942:958   */\n      add\n        /* \"#utility.yul\":935:962   */\n      mstore\n        /* \"#utility.yul\":830:969   */\n      pop\n      pop\n      pop\n      jump\t// out\n        /* \"#utility.yul\":975:1077   */\n    tag_30:\n        /* \"#utility.yul\":1016:1022   */\n      0x00\n        /* \"#utility.yul\":1067:1069   */\n      0x1f\n        /* \"#utility.yul\":1063:1070   */\n      not\n        /* \"#utility.yul\":1058:1060   */\n      0x1f\n        /* \"#utility.yul\":1051:1056   */\n      dup4\n        /* \"#utility.yul\":1047:1061   */\n      add\n        /* \"#utility.yul\":1043:1071   */\n      and\n        /* \"#utility.yul\":1033:1071   */\n      swap1\n      pop\n        /* \"#utility.yul\":975:1077   */\n      swap2\n      swap1\n      pop\n      jump\t// out\n        /* \"#utility.yul\":1083:1456   */\n    tag_31:\n        /* \"#utility.yul\":1169:1172   */\n      0x00\n        /* \"#utility.yul\":1197:1235   */\n      tag_44\n        /* \"#utility.yul\":1229:1234   */\n      dup3\n        /* \"#utility.yul\":1197:1235   */\n      tag_27\n      jump\t// in\n    tag_44:\n        /* \"#utility.yul\":1251:1321   */\n      tag_45\n        /* \"#utility.yul\":1314:1320   */\n      dup2\n        /* \"#utility.yul\":1309:1312   */\n      dup6\n        /* \"#utility.yul\":1251:1321   */\n      tag_28\n      jump\t// in\n    tag_45:\n        /* \"#utility.yul\":1244:1321   */\n      swap4\n      pop\n        /* \"#utility.yul\":1330:1395   */\n      tag_46\n        /* \"#utility.yul\":1388:1394   */\n      dup2\n        /* \"#utility.yul\":1383:1386   */\n      dup6\n        /* \"#utility.yul\":1376:1380   */\n      0x20\n        /* \"#utility.yul\":1369:1374   */\n      dup7\n        /* \"#utility.yul\":1365:1381   */\n      add\n        /* \"#utility.yul\":1330:1395   */\n      tag_29\n      jump\t// in\n    tag_46:\n        /* \"#utility.yul\":1420:1449   */\n      tag_47\n        /* \"#utility.yul\":1442:1448   */\n      dup2\n        /* \"#utility.yul\":1420:1449   */\n      tag_30\n      jump\t// in\n    tag_47:\n        /* \"#utility.yul\":1415:1418   */\n      dup5\n        /* \"#utility.yul\":1411:1450   */\n      add\n        /* \"#utility.yul\":1404:1450   */\n      swap2\n      pop\n        /* \"#utility.yul\":1173:1456   */\n      pop\n        /* \"#utility.yul\":1083:1456   */\n      swap3\n      swap2\n      pop\n      pop\n      jump\t// out\n        /* \"#utility.yul\":1462:1771   */\n    tag_14:\n        /* \"#utility.yul\":1573:1577   */\n      0x00\n        /* \"#utility.yul\":1611:1613   */\n      0x20\n        /* \"#utility.yul\":1600:1609   */\n      dup3\n        /* \"#utility.yul\":1596:1614   */\n      add\n        /* \"#utility.yul\":1588:1614   */\n      swap1\n      pop\n        /* \"#utility.yul\":1660:1669   */\n      dup2\n        /* \"#utility.yul\":1654:1658   */\n      dup2\n        /* \"#utility.yul\":1650:1670   */\n      sub\n        /* \"#utility.yul\":1646:1647   */\n      0x00\n        /* \"#utility.yul\":1635:1644   */\n      dup4\n        /* \"#utility.yul\":1631:1648   */\n      add\n        /* \"#utility.yul\":1624:1671   */\n      mstore\n        /* \"#utility.yul\":1688:1764   */\n      tag_49\n        /* \"#utility.yul\":1759:1763   */\n      dup2\n        /* \"#utility.yul\":1750:1756   */\n      dup5\n        /* \"#utility.yul\":1688:1764   */\n      tag_31\n      jump\t// in\n    tag_49:\n        /* \"#utility.yul\":1680:1764   */\n      swap1\n      pop\n        /* \"#utility.yul\":1462:1771   */\n      swap3\n      swap2\n      pop\n      pop\n      jump\t// out\n\n    auxdata: 0xa264697066735822122030e99664d7a4383fde7b27387577fdcdaa1579b8c25cc138ee000e731cb5359364736f6c634300081a0033\n}\n",
				"bytecode": {
					"linkReferences": {},
					"object": "6080604052348015600e575f80fd5b506102cb8061001c5f395ff3fe608060405234801561000f575f80fd5b506004361061004a575f3560e01c8063741351541461004e5780639944cc711461006d578063a898fd701461008b578063b1ade4db146100a9575b5f80fd5b6100566100c8565b6040516100649291906101de565b60405180910390f35b6100756100d5565b6040516100829190610275565b60405180910390f35b610093610147565b6040516100a09190610275565b60405180910390f35b6100b16101b9565b6040516100bf9291906101de565b60405180910390f35b5f80600142915091509091565b6060637413515460e01b604051602401604051602081830303815290604052907bffffffffffffffffffffffffffffffffffffffffffffffffffffffff19166020820180517bffffffffffffffffffffffffffffffffffffffffffffffffffffffff8381831617835250505050905090565b606063b1ade4db60e01b604051602401604051602081830303815290604052907bffffffffffffffffffffffffffffffffffffffffffffffffffffffff19166020820180517bffffffffffffffffffffffffffffffffffffffffffffffffffffffff8381831617835250505050905090565b5f80600242915091509091565b5f819050919050565b6101d8816101c6565b82525050565b5f6040820190506101f15f8301856101cf565b6101fe60208301846101cf565b9392505050565b5f81519050919050565b5f82825260208201905092915050565b8281835e5f83830152505050565b5f601f19601f8301169050919050565b5f61024782610205565b610251818561020f565b935061026181856020860161021f565b61026a8161022d565b840191505092915050565b5f6020820190508181035f83015261028d818461023d565b90509291505056fea264697066735822122030e99664d7a4383fde7b27387577fdcdaa1579b8c25cc138ee000e731cb5359364736f6c634300081a0033",
					"opcodes": "PUSH1 0x80 PUSH1 0x40 MSTORE CALLVALUE DUP1 ISZERO PUSH1 0xE JUMPI PUSH0 DUP1 REVERT JUMPDEST POP PUSH2 0x2CB DUP1 PUSH2 0x1C PUSH0 CODECOPY PUSH0 RETURN INVALID PUSH1 0x80 PUSH1 0x40 MSTORE CALLVALUE DUP1 ISZERO PUSH2 0xF JUMPI PUSH0 DUP1 REVERT JUMPDEST POP PUSH1 0x4 CALLDATASIZE LT PUSH2 0x4A JUMPI PUSH0 CALLDATALOAD PUSH1 0xE0 SHR DUP1 PUSH4 0x74135154 EQ PUSH2 0x4E JUMPI DUP1 PUSH4 0x9944CC71 EQ PUSH2 0x6D JUMPI DUP1 PUSH4 0xA898FD70 EQ PUSH2 0x8B JUMPI DUP1 PUSH4 0xB1ADE4DB EQ PUSH2 0xA9 JUMPI JUMPDEST PUSH0 DUP1 REVERT JUMPDEST PUSH2 0x56 PUSH2 0xC8 JUMP JUMPDEST PUSH1 0x40 MLOAD PUSH2 0x64 SWAP3 SWAP2 SWAP1 PUSH2 0x1DE JUMP JUMPDEST PUSH1 0x40 MLOAD DUP1 SWAP2 SUB SWAP1 RETURN JUMPDEST PUSH2 0x75 PUSH2 0xD5 JUMP JUMPDEST PUSH1 0x40 MLOAD PUSH2 0x82 SWAP2 SWAP1 PUSH2 0x275 JUMP JUMPDEST PUSH1 0x40 MLOAD DUP1 SWAP2 SUB SWAP1 RETURN JUMPDEST PUSH2 0x93 PUSH2 0x147 JUMP JUMPDEST PUSH1 0x40 MLOAD PUSH2 0xA0 SWAP2 SWAP1 PUSH2 0x275 JUMP JUMPDEST PUSH1 0x40 MLOAD DUP1 SWAP2 SUB SWAP1 RETURN JUMPDEST PUSH2 0xB1 PUSH2 0x1B9 JUMP JUMPDEST PUSH1 0x40 MLOAD PUSH2 0xBF SWAP3 SWAP2 SWAP1 PUSH2 0x1DE JUMP JUMPDEST PUSH1 0x40 MLOAD DUP1 SWAP2 SUB SWAP1 RETURN JUMPDEST PUSH0 DUP1 PUSH1 0x1 TIMESTAMP SWAP2 POP SWAP2 POP SWAP1 SWAP2 JUMP JUMPDEST PUSH1 0x60 PUSH4 0x74135154 PUSH1 0xE0 SHL PUSH1 0x40 MLOAD PUSH1 0x24 ADD PUSH1 0x40 MLOAD PUSH1 0x20 DUP2 DUP4 SUB SUB DUP2 MSTORE SWAP1 PUSH1 0x40 MSTORE SWAP1 PUSH28 0xFFFFFFFFFFFFFFFFFFFFFFFFFFFFFFFFFFFFFFFFFFFFFFFFFFFFFFFF NOT AND PUSH1 0x20 DUP3 ADD DUP1 MLOAD PUSH28 0xFFFFFFFFFFFFFFFFFFFFFFFFFFFFFFFFFFFFFFFFFFFFFFFFFFFFFFFF DUP4 DUP2 DUP4 AND OR DUP4 MSTORE POP POP POP POP SWAP1 POP SWAP1 JUMP JUMPDEST PUSH1 0x60 PUSH4 0xB1ADE4DB PUSH1 0xE0 SHL PUSH1 0x40 MLOAD PUSH1 0x24 ADD PUSH1 0x40 MLOAD PUSH1 0x20 DUP2 DUP4 SUB SUB DUP2 MSTORE SWAP1 PUSH1 0x40 MSTORE SWAP1 PUSH28 0xFFFFFFFFFFFFFFFFFFFFFFFFFFFFFFFFFFFFFFFFFFFFFFFFFFFFFFFF NOT AND PUSH1 0x20 DUP3 ADD DUP1 MLOAD PUSH28 0xFFFFFFFFFFFFFFFFFFFFFFFFFFFFFFFFFFFFFFFFFFFFFFFFFFFFFFFF DUP4 DUP2 DUP4 AND OR DUP4 MSTORE POP POP POP POP SWAP1 POP SWAP1 JUMP JUMPDEST PUSH0 DUP1 PUSH1 0x2 TIMESTAMP SWAP2 POP SWAP2 POP SWAP1 SWAP2 JUMP JUMPDEST PUSH0 DUP2 SWAP1 POP SWAP2 SWAP1 POP JUMP JUMPDEST PUSH2 0x1D8 DUP2 PUSH2 0x1C6 JUMP JUMPDEST DUP3 MSTORE POP POP JUMP JUMPDEST PUSH0 PUSH1 0x40 DUP3 ADD SWAP1 POP PUSH2 0x1F1 PUSH0 DUP4 ADD DUP6 PUSH2 0x1CF JUMP JUMPDEST PUSH2 0x1FE PUSH1 0x20 DUP4 ADD DUP5 PUSH2 0x1CF JUMP JUMPDEST SWAP4 SWAP3 POP POP POP JUMP JUMPDEST PUSH0 DUP2 MLOAD SWAP1 POP SWAP2 SWAP1 POP JUMP JUMPDEST PUSH0 DUP3 DUP3 MSTORE PUSH1 0x20 DUP3 ADD SWAP1 POP SWAP3 SWAP2 POP POP JUMP JUMPDEST DUP3 DUP2 DUP4 MCOPY PUSH0 DUP4 DUP4 ADD MSTORE POP POP POP JUMP JUMPDEST PUSH0 PUSH1 0x1F NOT PUSH1 0x1F DUP4 ADD AND SWAP1 POP SWAP2 SWAP1 POP JUMP JUMPDEST PUSH0 PUSH2 0x247 DUP3 PUSH2 0x205 JUMP JUMPDEST PUSH2 0x251 DUP2 DUP6 PUSH2 0x20F JUMP JUMPDEST SWAP4 POP PUSH2 0x261 DUP2 DUP6 PUSH1 0x20 DUP7 ADD PUSH2 0x21F JUMP JUMPDEST PUSH2 0x26A DUP2 PUSH2 0x22D JUMP JUMPDEST DUP5 ADD SWAP2 POP POP SWAP3 SWAP2 POP POP JUMP JUMPDEST PUSH0 PUSH1 0x20 DUP3 ADD SWAP1 POP DUP2 DUP2 SUB PUSH0 DUP4 ADD MSTORE PUSH2 0x28D DUP2 DUP5 PUSH2 0x23D JUMP JUMPDEST SWAP1 POP SWAP3 SWAP2 POP POP JUMP INVALID LOG2 PUSH5 0x6970667358 0x22 SLT KECCAK256 ADDRESS 0xE9 SWAP7 PUSH5 0xD7A4383FDE PUSH28 0x27387577FDCDAA1579B8C25CC138EE000E731CB5359364736F6C6343 STOP ADDMOD BYTE STOP CALLER "
				},
				"gasEstimates": {
					"creation": {
						"codeDepositCost": "143000",
						"executionCost": "188",
						"totalCost": "143188"
					},
					"external": {
						"func1()": "infinite",
						"func2()": "infinite",
						"getData1()": "infinite",
						"getData2()": "infinite"
					}
				},
				"methodIdentifiers": {
					"func1()": "74135154",
					"func2()": "b1ade4db",
					"getData1()": "9944cc71",
					"getData2()": "a898fd70"
				}
			},
			"storageLayout": {
				"storage": [],
				"types": null
			},
			"userdoc": {
				"kind": "user",
				"methods": {},
				"version": 1
			}
		}
	}
}