{
	"073BuggyProxy.sol": {
		"Proxy": {
			"abi": [
				{
					"inputs": [],
					"stateMutability": "nonpayable",
					"type": "constructor"
				},
				{
					"stateMutability": "payable",
					"type": "fallback"
				},
				{
					"inputs": [],
					"name": "admin",
					"outputs": [
						{
							"internalType": "address",
							"name": "",
							"type": "address"
						}
					],
					"stateMutability": "nonpayable",
					"type": "function"
				},
				{
					"inputs": [
						{
							"internalType": "address",
							"name": "_newAdmin",
							"type": "address"
						}
					],
					"name": "changeAdmin",
					"outputs": [],
					"stateMutability": "nonpayable",
					"type": "function"
				},
				{
					"inputs": [],
					"name": "implementation",
					"outputs": [
						{
							"internalType": "address",
							"name": "",
							"type": "address"
						}
					],
					"stateMutability": "nonpayable",
					"type": "function"
				},
				{
					"inputs": [
						{
							"internalType": "address",
							"name": "_implementation",
							"type": "address"
						}
					],
					"name": "upgradeTo",
					"outputs": [],
					"stateMutability": "nonpayable",
					"type": "function"
				},
				{
					"stateMutability": "payable",
					"type": "receive"
				}
			],
			"devdoc": {
				"kind": "dev",
				"methods": {},
				"version": 1
			},
			"evm": {
				"assembly": "    /* \"073BuggyProxy.sol\":2276:4874  contract Proxy{... */\n  mstore(0x40, 0x80)\n    /* \"073BuggyProxy.sol\":2506:2556  constructor(){... */\n  callvalue\n  dup1\n  iszero\n  tag_1\n  jumpi\n  0x00\n  dup1\n  revert\ntag_1:\n  pop\n    /* \"073BuggyProxy.sol\":2528:2549  _setAdmin(msg.sender) */\n  tag_4\n    /* \"073BuggyProxy.sol\":2538:2548  msg.sender */\n  caller\n    /* \"073BuggyProxy.sol\":2528:2537  _setAdmin */\n  shl(0x20, tag_5)\n    /* \"073BuggyProxy.sol\":2528:2549  _setAdmin(msg.sender) */\n  0x20\n  shr\n  jump\t// in\ntag_4:\n    /* \"073BuggyProxy.sol\":2276:4874  contract Proxy{... */\n  jump(tag_6)\n    /* \"073BuggyProxy.sol\":4249:4374  function _setAdmin(address _address) private ifAdmin{... */\ntag_5:\n    /* \"073BuggyProxy.sol\":2671:2682  _getAdmin() */\n  tag_8\n    /* \"073BuggyProxy.sol\":2671:2680  _getAdmin */\n  shl(0x20, tag_9)\n    /* \"073BuggyProxy.sol\":2671:2682  _getAdmin() */\n  0x20\n  shr\n  jump\t// in\ntag_8:\n    /* \"073BuggyProxy.sol\":2657:2682  msg.sender == _getAdmin() */\n  0xffffffffffffffffffffffffffffffffffffffff\n  and\n    /* \"073BuggyProxy.sol\":2657:2667  msg.sender */\n  caller\n    /* \"073BuggyProxy.sol\":2657:2682  msg.sender == _getAdmin() */\n  0xffffffffffffffffffffffffffffffffffffffff\n  and\n  sub\n    /* \"073BuggyProxy.sol\":2654:2749  if(msg.sender == _getAdmin()){... */\n  tag_10\n  jumpi\n    /* \"073BuggyProxy.sol\":4359:4367  _address */\n  dup1\n    /* \"073BuggyProxy.sol\":4312:4350  StorageSlot.getAddressSlot(admin_slot) */\n  tag_12\n    /* \"073BuggyProxy.sol\":2495:2496  1 */\n  0x01\n    /* \"073BuggyProxy.sol\":2461:2493  keccak256(\"eip1967.proxy.admin\") */\n  0xb53127684a568b3173ae13b9f8a6016e243e63b6e8ee1178d6a717850b5d6104\n    /* \"073BuggyProxy.sol\":2456:2494  uint(keccak256(\"eip1967.proxy.admin\")) */\n  0x00\n  shr\n    /* \"073BuggyProxy.sol\":2456:2496  uint(keccak256(\"eip1967.proxy.admin\"))-1 */\n  tag_13\n  swap2\n  swap1\n  tag_14\n  jump\t// in\ntag_13:\n    /* \"073BuggyProxy.sol\":2448:2497  bytes32(uint(keccak256(\"eip1967.proxy.admin\"))-1) */\n  0x00\n  shl\n    /* \"073BuggyProxy.sol\":4312:4338  StorageSlot.getAddressSlot */\n  shl(0x20, tag_15)\n    /* \"073BuggyProxy.sol\":4312:4350  StorageSlot.getAddressSlot(admin_slot) */\n  0x20\n  shr\n  jump\t// in\ntag_12:\n    /* \"073BuggyProxy.sol\":4312:4356  StorageSlot.getAddressSlot(admin_slot).value */\n  0x00\n  add\n  0x00\n    /* \"073BuggyProxy.sol\":4312:4367  StorageSlot.getAddressSlot(admin_slot).value = _address */\n  0x0100\n  exp\n  dup2\n  sload\n  dup2\n  0xffffffffffffffffffffffffffffffffffffffff\n  mul\n  not\n  and\n  swap1\n  dup4\n  0xffffffffffffffffffffffffffffffffffffffff\n  and\n  mul\n  or\n  swap1\n  sstore\n  pop\n    /* \"073BuggyProxy.sol\":2654:2749  if(msg.sender == _getAdmin()){... */\n  jump(tag_16)\ntag_10:\n    /* \"073BuggyProxy.sol\":2727:2738  _fallback() */\n  tag_17\n    /* \"073BuggyProxy.sol\":2727:2736  _fallback */\n  shl(0x20, tag_18)\n    /* \"073BuggyProxy.sol\":2727:2738  _fallback() */\n  0x20\n  shr\n  jump\t// in\ntag_17:\n    /* \"073BuggyProxy.sol\":2654:2749  if(msg.sender == _getAdmin()){... */\ntag_16:\n    /* \"073BuggyProxy.sol\":4249:4374  function _setAdmin(address _address) private ifAdmin{... */\n  pop\n  jump\t// out\n    /* \"073BuggyProxy.sol\":4124:4243  function _getAdmin() private view returns (address){... */\ntag_9:\n    /* \"073BuggyProxy.sol\":4167:4174  address */\n  0x00\n    /* \"073BuggyProxy.sol\":4192:4230  StorageSlot.getAddressSlot(admin_slot) */\n  tag_20\n    /* \"073BuggyProxy.sol\":2495:2496  1 */\n  0x01\n    /* \"073BuggyProxy.sol\":2461:2493  keccak256(\"eip1967.proxy.admin\") */\n  0xb53127684a568b3173ae13b9f8a6016e243e63b6e8ee1178d6a717850b5d6104\n    /* \"073BuggyProxy.sol\":2456:2494  uint(keccak256(\"eip1967.proxy.admin\")) */\n  0x00\n  shr\n    /* \"073BuggyProxy.sol\":2456:2496  uint(keccak256(\"eip1967.proxy.admin\"))-1 */\n  tag_21\n  swap2\n  swap1\n  tag_14\n  jump\t// in\ntag_21:\n    /* \"073BuggyProxy.sol\":2448:2497  bytes32(uint(keccak256(\"eip1967.proxy.admin\"))-1) */\n  0x00\n  shl\n    /* \"073BuggyProxy.sol\":4192:4218  StorageSlot.getAddressSlot */\n  shl(0x20, tag_15)\n    /* \"073BuggyProxy.sol\":4192:4230  StorageSlot.getAddressSlot(admin_slot) */\n  0x20\n  shr\n  jump\t// in\ntag_20:\n    /* \"073BuggyProxy.sol\":4192:4236  StorageSlot.getAddressSlot(admin_slot).value */\n  0x00\n  add\n  0x00\n  swap1\n  sload\n  swap1\n  0x0100\n  exp\n  swap1\n  div\n  0xffffffffffffffffffffffffffffffffffffffff\n  and\n    /* \"073BuggyProxy.sol\":4185:4236  return StorageSlot.getAddressSlot(admin_slot).value */\n  swap1\n  pop\n    /* \"073BuggyProxy.sol\":4124:4243  function _getAdmin() private view returns (address){... */\n  swap1\n  jump\t// out\n    /* \"073BuggyProxy.sol\":6062:6206  function getAddressSlot(bytes32 slot) internal pure returns(AddressSlot storage r){... */\ntag_15:\n    /* \"073BuggyProxy.sol\":6122:6143  AddressSlot storage r */\n  0x00\n    /* \"073BuggyProxy.sol\":6186:6190  slot */\n  dup2\n    /* \"073BuggyProxy.sol\":6176:6190  r.slot := slot */\n  swap1\n  pop\n    /* \"073BuggyProxy.sol\":6062:6206  function getAddressSlot(bytes32 slot) internal pure returns(AddressSlot storage r){... */\n  swap2\n  swap1\n  pop\n  jump\t// out\n    /* \"073BuggyProxy.sol\":3795:3874  function _fallback() private  {... */\ntag_18:\n    /* \"073BuggyProxy.sol\":3836:3867  _delegate(_getImplementation()) */\n  tag_24\n    /* \"073BuggyProxy.sol\":3846:3866  _getImplementation() */\n  tag_25\n    /* \"073BuggyProxy.sol\":3846:3864  _getImplementation */\n  shl(0x20, tag_26)\n    /* \"073BuggyProxy.sol\":3846:3866  _getImplementation() */\n  0x20\n  shr\n  jump\t// in\ntag_25:\n    /* \"073BuggyProxy.sol\":3836:3845  _delegate */\n  shl(0x20, tag_27)\n    /* \"073BuggyProxy.sol\":3836:3867  _delegate(_getImplementation()) */\n  0x20\n  shr\n  jump\t// in\ntag_24:\n    /* \"073BuggyProxy.sol\":3795:3874  function _fallback() private  {... */\n  jump\t// out\n    /* \"073BuggyProxy.sol\":4380:4517  function _getImplementation() private view returns (address){... */\ntag_26:\n    /* \"073BuggyProxy.sol\":4432:4439  address */\n  0x00\n    /* \"073BuggyProxy.sol\":4457:4504  StorageSlot.getAddressSlot(implementation_slot) */\n  tag_29\n    /* \"073BuggyProxy.sol\":2401:2402  1 */\n  0x01\n    /* \"073BuggyProxy.sol\":2358:2399  keccak256(\"eip1967.proxy.implementation\") */\n  0x360894a13ba1a3210667c828492db98dca3e2076cc3735a920a3ca505d382bbd\n    /* \"073BuggyProxy.sol\":2353:2400  uint(keccak256(\"eip1967.proxy.implementation\")) */\n  0x00\n  shr\n    /* \"073BuggyProxy.sol\":2353:2402  uint(keccak256(\"eip1967.proxy.implementation\"))-1 */\n  tag_30\n  swap2\n  swap1\n  tag_14\n  jump\t// in\ntag_30:\n    /* \"073BuggyProxy.sol\":2345:2403  bytes32(uint(keccak256(\"eip1967.proxy.implementation\"))-1) */\n  0x00\n  shl\n    /* \"073BuggyProxy.sol\":4457:4483  StorageSlot.getAddressSlot */\n  shl(0x20, tag_15)\n    /* \"073BuggyProxy.sol\":4457:4504  StorageSlot.getAddressSlot(implementation_slot) */\n  0x20\n  shr\n  jump\t// in\ntag_29:\n    /* \"073BuggyProxy.sol\":4457:4510  StorageSlot.getAddressSlot(implementation_slot).value */\n  0x00\n  add\n  0x00\n  swap1\n  sload\n  swap1\n  0x0100\n  exp\n  swap1\n  div\n  0xffffffffffffffffffffffffffffffffffffffff\n  and\n    /* \"073BuggyProxy.sol\":4450:4510  return StorageSlot.getAddressSlot(implementation_slot).value */\n  swap1\n  pop\n    /* \"073BuggyProxy.sol\":4380:4517  function _getImplementation() private view returns (address){... */\n  swap1\n  jump\t// out\n    /* \"073BuggyProxy.sol\":2861:3789  function _delegate(address _implementation) private {... */\ntag_27:\n    /* \"073BuggyProxy.sol\":3307:3321  calldatasize() */\n  calldatasize\n    /* \"073BuggyProxy.sol\":3304:3305  0 */\n  0x00\n    /* \"073BuggyProxy.sol\":3301:3302  0 */\n  dup1\n    /* \"073BuggyProxy.sol\":3288:3322  calldatacopy(0, 0, calldatasize()) */\n  calldatacopy\n    /* \"073BuggyProxy.sol\":3470:3471  0 */\n  0x00\n    /* \"073BuggyProxy.sol\":3468:3469  0 */\n  dup1\n    /* \"073BuggyProxy.sol\":3453:3467  calldatasize() */\n  calldatasize\n    /* \"073BuggyProxy.sol\":3450:3451  0 */\n  0x00\n    /* \"073BuggyProxy.sol\":3433:3448  _implementation */\n  dup5\n    /* \"073BuggyProxy.sol\":3426:3431  gas() */\n  gas\n    /* \"073BuggyProxy.sol\":3413:3472  delegatecall(gas(), _implementation, 0, calldatasize(),0,0) */\n  delegatecall\n    /* \"073BuggyProxy.sol\":3540:3556  returndatasize() */\n  returndatasize\n    /* \"073BuggyProxy.sol\":3537:3538  0 */\n  0x00\n    /* \"073BuggyProxy.sol\":3534:3535  0 */\n  dup1\n    /* \"073BuggyProxy.sol\":3519:3557  returndatacopy(0, 0, returndatasize()) */\n  returndatacopy\n    /* \"073BuggyProxy.sol\":3632:3638  result */\n  dup1\n    /* \"073BuggyProxy.sol\":3652:3653  0 */\n  0x00\n    /* \"073BuggyProxy.sol\":3647:3705  case 0 {... */\n  dup2\n  eq\n  tag_33\n  jumpi\n    /* \"073BuggyProxy.sol\":3746:3762  returndatasize() */\n  returndatasize\n    /* \"073BuggyProxy.sol\":3743:3744  0 */\n  0x00\n    /* \"073BuggyProxy.sol\":3736:3763  return(0, returndatasize()) */\n  return\n    /* \"073BuggyProxy.sol\":3647:3705  case 0 {... */\ntag_33:\n    /* \"073BuggyProxy.sol\":3678:3694  returndatasize() */\n  returndatasize\n    /* \"073BuggyProxy.sol\":3675:3676  0 */\n  0x00\n    /* \"073BuggyProxy.sol\":3668:3695  revert(0, returndatasize()) */\n  revert\n    /* \"#utility.yul\":7:84   */\ntag_34:\n    /* \"#utility.yul\":44:51   */\n  0x00\n    /* \"#utility.yul\":73:78   */\n  dup2\n    /* \"#utility.yul\":62:78   */\n  swap1\n  pop\n    /* \"#utility.yul\":7:84   */\n  swap2\n  swap1\n  pop\n  jump\t// out\n    /* \"#utility.yul\":90:270   */\ntag_35:\n    /* \"#utility.yul\":138:215   */\n  0x4e487b7100000000000000000000000000000000000000000000000000000000\n    /* \"#utility.yul\":135:136   */\n  0x00\n    /* \"#utility.yul\":128:216   */\n  mstore\n    /* \"#utility.yul\":235:239   */\n  0x11\n    /* \"#utility.yul\":232:233   */\n  0x04\n    /* \"#utility.yul\":225:240   */\n  mstore\n    /* \"#utility.yul\":259:263   */\n  0x24\n    /* \"#utility.yul\":256:257   */\n  0x00\n    /* \"#utility.yul\":249:264   */\n  revert\n    /* \"#utility.yul\":276:470   */\ntag_14:\n    /* \"#utility.yul\":316:320   */\n  0x00\n    /* \"#utility.yul\":336:356   */\n  tag_40\n    /* \"#utility.yul\":354:355   */\n  dup3\n    /* \"#utility.yul\":336:356   */\n  tag_34\n  jump\t// in\ntag_40:\n    /* \"#utility.yul\":331:356   */\n  swap2\n  pop\n    /* \"#utility.yul\":370:390   */\n  tag_41\n    /* \"#utility.yul\":388:389   */\n  dup4\n    /* \"#utility.yul\":370:390   */\n  tag_34\n  jump\t// in\ntag_41:\n    /* \"#utility.yul\":365:390   */\n  swap3\n  pop\n    /* \"#utility.yul\":414:415   */\n  dup3\n    /* \"#utility.yul\":411:412   */\n  dup3\n    /* \"#utility.yul\":407:416   */\n  sub\n    /* \"#utility.yul\":399:416   */\n  swap1\n  pop\n    /* \"#utility.yul\":438:439   */\n  dup2\n    /* \"#utility.yul\":432:436   */\n  dup2\n    /* \"#utility.yul\":429:440   */\n  gt\n    /* \"#utility.yul\":426:463   */\n  iszero\n  tag_42\n  jumpi\n    /* \"#utility.yul\":443:461   */\n  tag_43\n  tag_35\n  jump\t// in\ntag_43:\n    /* \"#utility.yul\":426:463   */\ntag_42:\n    /* \"#utility.yul\":276:470   */\n  swap3\n  swap2\n  pop\n  pop\n  jump\t// out\n    /* \"073BuggyProxy.sol\":2276:4874  contract Proxy{... */\ntag_6:\n  dataSize(sub_0)\n  dup1\n  dataOffset(sub_0)\n  0x00\n  codecopy\n  0x00\n  return\nstop\n\nsub_0: assembly {\n        /* \"073BuggyProxy.sol\":2276:4874  contract Proxy{... */\n      mstore(0x40, 0x80)\n      jumpi(tag_1, lt(calldatasize, 0x04))\n      shr(0xe0, calldataload(0x00))\n      dup1\n      0x3659cfe6\n      eq\n      tag_3\n      jumpi\n      dup1\n      0x5c60da1b\n      eq\n      tag_4\n      jumpi\n      dup1\n      0x8f283970\n      eq\n      tag_5\n      jumpi\n      dup1\n      0xf851a440\n      eq\n      tag_6\n      jumpi\n      jump(tag_2)\n    tag_1:\n      jumpi(tag_2, calldatasize)\n        /* \"073BuggyProxy.sol\":3917:3928  _fallback() */\n      tag_9\n        /* \"073BuggyProxy.sol\":3917:3926  _fallback */\n      tag_10\n        /* \"073BuggyProxy.sol\":3917:3928  _fallback() */\n      jump\t// in\n    tag_9:\n        /* \"073BuggyProxy.sol\":2276:4874  contract Proxy{... */\n      stop\n    tag_2:\n        /* \"073BuggyProxy.sol\":2602:2613  _fallback() */\n      tag_13\n        /* \"073BuggyProxy.sol\":2602:2611  _fallback */\n      tag_10\n        /* \"073BuggyProxy.sol\":2602:2613  _fallback() */\n      jump\t// in\n    tag_13:\n        /* \"073BuggyProxy.sol\":2276:4874  contract Proxy{... */\n      stop\n        /* \"073BuggyProxy.sol\":3941:4118  function upgradeTo(address _implementation) external ifAdmin {... */\n    tag_3:\n      callvalue\n      dup1\n      iszero\n      tag_14\n      jumpi\n      0x00\n      dup1\n      revert\n    tag_14:\n      pop\n      tag_15\n      0x04\n      dup1\n      calldatasize\n      sub\n      dup2\n      add\n      swap1\n      tag_16\n      swap2\n      swap1\n      tag_17\n      jump\t// in\n    tag_16:\n      tag_18\n      jump\t// in\n    tag_15:\n      stop\n        /* \"073BuggyProxy.sol\":4767:4872  function implementation() external ifAdmin returns (address){... */\n    tag_4:\n      callvalue\n      dup1\n      iszero\n      tag_19\n      jumpi\n      0x00\n      dup1\n      revert\n    tag_19:\n      pop\n      tag_20\n      tag_21\n      jump\t// in\n    tag_20:\n      mload(0x40)\n      tag_22\n      swap2\n      swap1\n      tag_23\n      jump\t// in\n    tag_22:\n      mload(0x40)\n      dup1\n      swap2\n      sub\n      swap1\n      return\n        /* \"073BuggyProxy.sol\":2762:2855  function changeAdmin(address _newAdmin) external ifAdmin{... */\n    tag_5:\n      callvalue\n      dup1\n      iszero\n      tag_24\n      jumpi\n      0x00\n      dup1\n      revert\n    tag_24:\n      pop\n      tag_25\n      0x04\n      dup1\n      calldatasize\n      sub\n      dup2\n      add\n      swap1\n      tag_26\n      swap2\n      swap1\n      tag_17\n      jump\t// in\n    tag_26:\n      tag_27\n      jump\t// in\n    tag_25:\n      stop\n        /* \"073BuggyProxy.sol\":4672:4761  function admin() external  ifAdmin  returns (address){... */\n    tag_6:\n      callvalue\n      dup1\n      iszero\n      tag_28\n      jumpi\n      0x00\n      dup1\n      revert\n    tag_28:\n      pop\n      tag_29\n      tag_30\n      jump\t// in\n    tag_29:\n      mload(0x40)\n      tag_31\n      swap2\n      swap1\n      tag_23\n      jump\t// in\n    tag_31:\n      mload(0x40)\n      dup1\n      swap2\n      sub\n      swap1\n      return\n        /* \"073BuggyProxy.sol\":3795:3874  function _fallback() private  {... */\n    tag_10:\n        /* \"073BuggyProxy.sol\":3836:3867  _delegate(_getImplementation()) */\n      tag_33\n        /* \"073BuggyProxy.sol\":3846:3866  _getImplementation() */\n      tag_34\n        /* \"073BuggyProxy.sol\":3846:3864  _getImplementation */\n      tag_35\n        /* \"073BuggyProxy.sol\":3846:3866  _getImplementation() */\n      jump\t// in\n    tag_34:\n        /* \"073BuggyProxy.sol\":3836:3845  _delegate */\n      tag_36\n        /* \"073BuggyProxy.sol\":3836:3867  _delegate(_getImplementation()) */\n      jump\t// in\n    tag_33:\n        /* \"073BuggyProxy.sol\":3795:3874  function _fallback() private  {... */\n      jump\t// out\n        /* \"073BuggyProxy.sol\":3941:4118  function upgradeTo(address _implementation) external ifAdmin {... */\n    tag_18:\n        /* \"073BuggyProxy.sol\":2671:2682  _getAdmin() */\n      tag_38\n        /* \"073BuggyProxy.sol\":2671:2680  _getAdmin */\n      tag_39\n        /* \"073BuggyProxy.sol\":2671:2682  _getAdmin() */\n      jump\t// in\n    tag_38:\n        /* \"073BuggyProxy.sol\":2657:2682  msg.sender == _getAdmin() */\n      0xffffffffffffffffffffffffffffffffffffffff\n      and\n        /* \"073BuggyProxy.sol\":2657:2667  msg.sender */\n      caller\n        /* \"073BuggyProxy.sol\":2657:2682  msg.sender == _getAdmin() */\n      0xffffffffffffffffffffffffffffffffffffffff\n      and\n      sub\n        /* \"073BuggyProxy.sol\":2654:2749  if(msg.sender == _getAdmin()){... */\n      tag_40\n      jumpi\n        /* \"073BuggyProxy.sol\":4034:4045  _getAdmin() */\n      tag_42\n        /* \"073BuggyProxy.sol\":4034:4043  _getAdmin */\n      tag_39\n        /* \"073BuggyProxy.sol\":4034:4045  _getAdmin() */\n      jump\t// in\n    tag_42:\n        /* \"073BuggyProxy.sol\":4020:4045  msg.sender == _getAdmin() */\n      0xffffffffffffffffffffffffffffffffffffffff\n      and\n        /* \"073BuggyProxy.sol\":4020:4030  msg.sender */\n      caller\n        /* \"073BuggyProxy.sol\":4020:4045  msg.sender == _getAdmin() */\n      0xffffffffffffffffffffffffffffffffffffffff\n      and\n      eq\n        /* \"073BuggyProxy.sol\":4012:4066  require(msg.sender == _getAdmin(),\"not can upgradeTo\") */\n      tag_43\n      jumpi\n      mload(0x40)\n      0x08c379a000000000000000000000000000000000000000000000000000000000\n      dup2\n      mstore\n      0x04\n      add\n      tag_44\n      swap1\n      tag_45\n      jump\t// in\n    tag_44:\n      mload(0x40)\n      dup1\n      swap2\n      sub\n      swap1\n      revert\n    tag_43:\n        /* \"073BuggyProxy.sol\":4076:4111  _setImplementation(_implementation) */\n      tag_46\n        /* \"073BuggyProxy.sol\":4095:4110  _implementation */\n      dup2\n        /* \"073BuggyProxy.sol\":4076:4094  _setImplementation */\n      tag_47\n        /* \"073BuggyProxy.sol\":4076:4111  _setImplementation(_implementation) */\n      jump\t// in\n    tag_46:\n        /* \"073BuggyProxy.sol\":2654:2749  if(msg.sender == _getAdmin()){... */\n      jump(tag_48)\n    tag_40:\n        /* \"073BuggyProxy.sol\":2727:2738  _fallback() */\n      tag_49\n        /* \"073BuggyProxy.sol\":2727:2736  _fallback */\n      tag_10\n        /* \"073BuggyProxy.sol\":2727:2738  _fallback() */\n      jump\t// in\n    tag_49:\n        /* \"073BuggyProxy.sol\":2654:2749  if(msg.sender == _getAdmin()){... */\n    tag_48:\n        /* \"073BuggyProxy.sol\":3941:4118  function upgradeTo(address _implementation) external ifAdmin {... */\n      pop\n      jump\t// out\n        /* \"073BuggyProxy.sol\":4767:4872  function implementation() external ifAdmin returns (address){... */\n    tag_21:\n        /* \"073BuggyProxy.sol\":4819:4826  address */\n      0x00\n        /* \"073BuggyProxy.sol\":2671:2682  _getAdmin() */\n      tag_51\n        /* \"073BuggyProxy.sol\":2671:2680  _getAdmin */\n      tag_39\n        /* \"073BuggyProxy.sol\":2671:2682  _getAdmin() */\n      jump\t// in\n    tag_51:\n        /* \"073BuggyProxy.sol\":2657:2682  msg.sender == _getAdmin() */\n      0xffffffffffffffffffffffffffffffffffffffff\n      and\n        /* \"073BuggyProxy.sol\":2657:2667  msg.sender */\n      caller\n        /* \"073BuggyProxy.sol\":2657:2682  msg.sender == _getAdmin() */\n      0xffffffffffffffffffffffffffffffffffffffff\n      and\n      sub\n        /* \"073BuggyProxy.sol\":2654:2749  if(msg.sender == _getAdmin()){... */\n      tag_52\n      jumpi\n        /* \"073BuggyProxy.sol\":4844:4864  _getImplementation() */\n      tag_54\n        /* \"073BuggyProxy.sol\":4844:4862  _getImplementation */\n      tag_35\n        /* \"073BuggyProxy.sol\":4844:4864  _getImplementation() */\n      jump\t// in\n    tag_54:\n        /* \"073BuggyProxy.sol\":4837:4864  return _getImplementation() */\n      swap1\n      pop\n        /* \"073BuggyProxy.sol\":2654:2749  if(msg.sender == _getAdmin()){... */\n      jump(tag_55)\n    tag_52:\n        /* \"073BuggyProxy.sol\":2727:2738  _fallback() */\n      tag_56\n        /* \"073BuggyProxy.sol\":2727:2736  _fallback */\n      tag_10\n        /* \"073BuggyProxy.sol\":2727:2738  _fallback() */\n      jump\t// in\n    tag_56:\n        /* \"073BuggyProxy.sol\":2654:2749  if(msg.sender == _getAdmin()){... */\n    tag_55:\n        /* \"073BuggyProxy.sol\":4767:4872  function implementation() external ifAdmin returns (address){... */\n      swap1\n      jump\t// out\n        /* \"073BuggyProxy.sol\":2762:2855  function changeAdmin(address _newAdmin) external ifAdmin{... */\n    tag_27:\n        /* \"073BuggyProxy.sol\":2671:2682  _getAdmin() */\n      tag_58\n        /* \"073BuggyProxy.sol\":2671:2680  _getAdmin */\n      tag_39\n        /* \"073BuggyProxy.sol\":2671:2682  _getAdmin() */\n      jump\t// in\n    tag_58:\n        /* \"073BuggyProxy.sol\":2657:2682  msg.sender == _getAdmin() */\n      0xffffffffffffffffffffffffffffffffffffffff\n      and\n        /* \"073BuggyProxy.sol\":2657:2667  msg.sender */\n      caller\n        /* \"073BuggyProxy.sol\":2657:2682  msg.sender == _getAdmin() */\n      0xffffffffffffffffffffffffffffffffffffffff\n      and\n      sub\n        /* \"073BuggyProxy.sol\":2654:2749  if(msg.sender == _getAdmin()){... */\n      tag_59\n      jumpi\n        /* \"073BuggyProxy.sol\":2828:2848  _setAdmin(_newAdmin) */\n      tag_61\n        /* \"073BuggyProxy.sol\":2838:2847  _newAdmin */\n      dup2\n        /* \"073BuggyProxy.sol\":2828:2837  _setAdmin */\n      tag_62\n        /* \"073BuggyProxy.sol\":2828:2848  _setAdmin(_newAdmin) */\n      jump\t// in\n    tag_61:\n        /* \"073BuggyProxy.sol\":2654:2749  if(msg.sender == _getAdmin()){... */\n      jump(tag_63)\n    tag_59:\n        /* \"073BuggyProxy.sol\":2727:2738  _fallback() */\n      tag_64\n        /* \"073BuggyProxy.sol\":2727:2736  _fallback */\n      tag_10\n        /* \"073BuggyProxy.sol\":2727:2738  _fallback() */\n      jump\t// in\n    tag_64:\n        /* \"073BuggyProxy.sol\":2654:2749  if(msg.sender == _getAdmin()){... */\n    tag_63:\n        /* \"073BuggyProxy.sol\":2762:2855  function changeAdmin(address _newAdmin) external ifAdmin{... */\n      pop\n      jump\t// out\n        /* \"073BuggyProxy.sol\":4672:4761  function admin() external  ifAdmin  returns (address){... */\n    tag_30:\n        /* \"073BuggyProxy.sol\":4717:4724  address */\n      0x00\n        /* \"073BuggyProxy.sol\":2671:2682  _getAdmin() */\n      tag_66\n        /* \"073BuggyProxy.sol\":2671:2680  _getAdmin */\n      tag_39\n        /* \"073BuggyProxy.sol\":2671:2682  _getAdmin() */\n      jump\t// in\n    tag_66:\n        /* \"073BuggyProxy.sol\":2657:2682  msg.sender == _getAdmin() */\n      0xffffffffffffffffffffffffffffffffffffffff\n      and\n        /* \"073BuggyProxy.sol\":2657:2667  msg.sender */\n      caller\n        /* \"073BuggyProxy.sol\":2657:2682  msg.sender == _getAdmin() */\n      0xffffffffffffffffffffffffffffffffffffffff\n      and\n      sub\n        /* \"073BuggyProxy.sol\":2654:2749  if(msg.sender == _getAdmin()){... */\n      tag_67\n      jumpi\n        /* \"073BuggyProxy.sol\":4742:4753  _getAdmin() */\n      tag_69\n        /* \"073BuggyProxy.sol\":4742:4751  _getAdmin */\n      tag_39\n        /* \"073BuggyProxy.sol\":4742:4753  _getAdmin() */\n      jump\t// in\n    tag_69:\n        /* \"073BuggyProxy.sol\":4735:4753  return _getAdmin() */\n      swap1\n      pop\n        /* \"073BuggyProxy.sol\":2654:2749  if(msg.sender == _getAdmin()){... */\n      jump(tag_70)\n    tag_67:\n        /* \"073BuggyProxy.sol\":2727:2738  _fallback() */\n      tag_71\n        /* \"073BuggyProxy.sol\":2727:2736  _fallback */\n      tag_10\n        /* \"073BuggyProxy.sol\":2727:2738  _fallback() */\n      jump\t// in\n    tag_71:\n        /* \"073BuggyProxy.sol\":2654:2749  if(msg.sender == _getAdmin()){... */\n    tag_70:\n        /* \"073BuggyProxy.sol\":4672:4761  function admin() external  ifAdmin  returns (address){... */\n      swap1\n      jump\t// out\n        /* \"073BuggyProxy.sol\":4380:4517  function _getImplementation() private view returns (address){... */\n    tag_35:\n        /* \"073BuggyProxy.sol\":4432:4439  address */\n      0x00\n        /* \"073BuggyProxy.sol\":4457:4504  StorageSlot.getAddressSlot(implementation_slot) */\n      tag_73\n        /* \"073BuggyProxy.sol\":2401:2402  1 */\n      0x01\n        /* \"073BuggyProxy.sol\":2358:2399  keccak256(\"eip1967.proxy.implementation\") */\n      0x360894a13ba1a3210667c828492db98dca3e2076cc3735a920a3ca505d382bbd\n        /* \"073BuggyProxy.sol\":2353:2400  uint(keccak256(\"eip1967.proxy.implementation\")) */\n      0x00\n      shr\n        /* \"073BuggyProxy.sol\":2353:2402  uint(keccak256(\"eip1967.proxy.implementation\"))-1 */\n      tag_74\n      swap2\n      swap1\n      tag_75\n      jump\t// in\n    tag_74:\n        /* \"073BuggyProxy.sol\":2345:2403  bytes32(uint(keccak256(\"eip1967.proxy.implementation\"))-1) */\n      0x00\n      shl\n        /* \"073BuggyProxy.sol\":4457:4483  StorageSlot.getAddressSlot */\n      tag_76\n        /* \"073BuggyProxy.sol\":4457:4504  StorageSlot.getAddressSlot(implementation_slot) */\n      jump\t// in\n    tag_73:\n        /* \"073BuggyProxy.sol\":4457:4510  StorageSlot.getAddressSlot(implementation_slot).value */\n      0x00\n      add\n      0x00\n      swap1\n      sload\n      swap1\n      0x0100\n      exp\n      swap1\n      div\n      0xffffffffffffffffffffffffffffffffffffffff\n      and\n        /* \"073BuggyProxy.sol\":4450:4510  return StorageSlot.getAddressSlot(implementation_slot).value */\n      swap1\n      pop\n        /* \"073BuggyProxy.sol\":4380:4517  function _getImplementation() private view returns (address){... */\n      swap1\n      jump\t// out\n        /* \"073BuggyProxy.sol\":2861:3789  function _delegate(address _implementation) private {... */\n    tag_36:\n        /* \"073BuggyProxy.sol\":3307:3321  calldatasize() */\n      calldatasize\n        /* \"073BuggyProxy.sol\":3304:3305  0 */\n      0x00\n        /* \"073BuggyProxy.sol\":3301:3302  0 */\n      dup1\n        /* \"073BuggyProxy.sol\":3288:3322  calldatacopy(0, 0, calldatasize()) */\n      calldatacopy\n        /* \"073BuggyProxy.sol\":3470:3471  0 */\n      0x00\n        /* \"073BuggyProxy.sol\":3468:3469  0 */\n      dup1\n        /* \"073BuggyProxy.sol\":3453:3467  calldatasize() */\n      calldatasize\n        /* \"073BuggyProxy.sol\":3450:3451  0 */\n      0x00\n        /* \"073BuggyProxy.sol\":3433:3448  _implementation */\n      dup5\n        /* \"073BuggyProxy.sol\":3426:3431  gas() */\n      gas\n        /* \"073BuggyProxy.sol\":3413:3472  delegatecall(gas(), _implementation, 0, calldatasize(),0,0) */\n      delegatecall\n        /* \"073BuggyProxy.sol\":3540:3556  returndatasize() */\n      returndatasize\n        /* \"073BuggyProxy.sol\":3537:3538  0 */\n      0x00\n        /* \"073BuggyProxy.sol\":3534:3535  0 */\n      dup1\n        /* \"073BuggyProxy.sol\":3519:3557  returndatacopy(0, 0, returndatasize()) */\n      returndatacopy\n        /* \"073BuggyProxy.sol\":3632:3638  result */\n      dup1\n        /* \"073BuggyProxy.sol\":3652:3653  0 */\n      0x00\n        /* \"073BuggyProxy.sol\":3647:3705  case 0 {... */\n      dup2\n      eq\n      tag_79\n      jumpi\n        /* \"073BuggyProxy.sol\":3746:3762  returndatasize() */\n      returndatasize\n        /* \"073BuggyProxy.sol\":3743:3744  0 */\n      0x00\n        /* \"073BuggyProxy.sol\":3736:3763  return(0, returndatasize()) */\n      return\n        /* \"073BuggyProxy.sol\":3647:3705  case 0 {... */\n    tag_79:\n        /* \"073BuggyProxy.sol\":3678:3694  returndatasize() */\n      returndatasize\n        /* \"073BuggyProxy.sol\":3675:3676  0 */\n      0x00\n        /* \"073BuggyProxy.sol\":3668:3695  revert(0, returndatasize()) */\n      revert\n        /* \"073BuggyProxy.sol\":4124:4243  function _getAdmin() private view returns (address){... */\n    tag_39:\n        /* \"073BuggyProxy.sol\":4167:4174  address */\n      0x00\n        /* \"073BuggyProxy.sol\":4192:4230  StorageSlot.getAddressSlot(admin_slot) */\n      tag_81\n        /* \"073BuggyProxy.sol\":2495:2496  1 */\n      0x01\n        /* \"073BuggyProxy.sol\":2461:2493  keccak256(\"eip1967.proxy.admin\") */\n      0xb53127684a568b3173ae13b9f8a6016e243e63b6e8ee1178d6a717850b5d6104\n        /* \"073BuggyProxy.sol\":2456:2494  uint(keccak256(\"eip1967.proxy.admin\")) */\n      0x00\n      shr\n        /* \"073BuggyProxy.sol\":2456:2496  uint(keccak256(\"eip1967.proxy.admin\"))-1 */\n      tag_82\n      swap2\n      swap1\n      tag_75\n      jump\t// in\n    tag_82:\n        /* \"073BuggyProxy.sol\":2448:2497  bytes32(uint(keccak256(\"eip1967.proxy.admin\"))-1) */\n      0x00\n      shl\n        /* \"073BuggyProxy.sol\":4192:4218  StorageSlot.getAddressSlot */\n      tag_76\n        /* \"073BuggyProxy.sol\":4192:4230  StorageSlot.getAddressSlot(admin_slot) */\n      jump\t// in\n    tag_81:\n        /* \"073BuggyProxy.sol\":4192:4236  StorageSlot.getAddressSlot(admin_slot).value */\n      0x00\n      add\n      0x00\n      swap1\n      sload\n      swap1\n      0x0100\n      exp\n      swap1\n      div\n      0xffffffffffffffffffffffffffffffffffffffff\n      and\n        /* \"073BuggyProxy.sol\":4185:4236  return StorageSlot.getAddressSlot(admin_slot).value */\n      swap1\n      pop\n        /* \"073BuggyProxy.sol\":4124:4243  function _getAdmin() private view returns (address){... */\n      swap1\n      jump\t// out\n        /* \"073BuggyProxy.sol\":4523:4666  function _setImplementation(address _address) private ifAdmin{... */\n    tag_47:\n        /* \"073BuggyProxy.sol\":2671:2682  _getAdmin() */\n      tag_84\n        /* \"073BuggyProxy.sol\":2671:2680  _getAdmin */\n      tag_39\n        /* \"073BuggyProxy.sol\":2671:2682  _getAdmin() */\n      jump\t// in\n    tag_84:\n        /* \"073BuggyProxy.sol\":2657:2682  msg.sender == _getAdmin() */\n      0xffffffffffffffffffffffffffffffffffffffff\n      and\n        /* \"073BuggyProxy.sol\":2657:2667  msg.sender */\n      caller\n        /* \"073BuggyProxy.sol\":2657:2682  msg.sender == _getAdmin() */\n      0xffffffffffffffffffffffffffffffffffffffff\n      and\n      sub\n        /* \"073BuggyProxy.sol\":2654:2749  if(msg.sender == _getAdmin()){... */\n      tag_85\n      jumpi\n        /* \"073BuggyProxy.sol\":4651:4659  _address */\n      dup1\n        /* \"073BuggyProxy.sol\":4595:4642  StorageSlot.getAddressSlot(implementation_slot) */\n      tag_87\n        /* \"073BuggyProxy.sol\":2401:2402  1 */\n      0x01\n        /* \"073BuggyProxy.sol\":2358:2399  keccak256(\"eip1967.proxy.implementation\") */\n      0x360894a13ba1a3210667c828492db98dca3e2076cc3735a920a3ca505d382bbd\n        /* \"073BuggyProxy.sol\":2353:2400  uint(keccak256(\"eip1967.proxy.implementation\")) */\n      0x00\n      shr\n        /* \"073BuggyProxy.sol\":2353:2402  uint(keccak256(\"eip1967.proxy.implementation\"))-1 */\n      tag_88\n      swap2\n      swap1\n      tag_75\n      jump\t// in\n    tag_88:\n        /* \"073BuggyProxy.sol\":2345:2403  bytes32(uint(keccak256(\"eip1967.proxy.implementation\"))-1) */\n      0x00\n      shl\n        /* \"073BuggyProxy.sol\":4595:4621  StorageSlot.getAddressSlot */\n      tag_76\n        /* \"073BuggyProxy.sol\":4595:4642  StorageSlot.getAddressSlot(implementation_slot) */\n      jump\t// in\n    tag_87:\n        /* \"073BuggyProxy.sol\":4595:4648  StorageSlot.getAddressSlot(implementation_slot).value */\n      0x00\n      add\n      0x00\n        /* \"073BuggyProxy.sol\":4595:4659  StorageSlot.getAddressSlot(implementation_slot).value = _address */\n      0x0100\n      exp\n      dup2\n      sload\n      dup2\n      0xffffffffffffffffffffffffffffffffffffffff\n      mul\n      not\n      and\n      swap1\n      dup4\n      0xffffffffffffffffffffffffffffffffffffffff\n      and\n      mul\n      or\n      swap1\n      sstore\n      pop\n        /* \"073BuggyProxy.sol\":2654:2749  if(msg.sender == _getAdmin()){... */\n      jump(tag_89)\n    tag_85:\n        /* \"073BuggyProxy.sol\":2727:2738  _fallback() */\n      tag_90\n        /* \"073BuggyProxy.sol\":2727:2736  _fallback */\n      tag_10\n        /* \"073BuggyProxy.sol\":2727:2738  _fallback() */\n      jump\t// in\n    tag_90:\n        /* \"073BuggyProxy.sol\":2654:2749  if(msg.sender == _getAdmin()){... */\n    tag_89:\n        /* \"073BuggyProxy.sol\":4523:4666  function _setImplementation(address _address) private ifAdmin{... */\n      pop\n      jump\t// out\n        /* \"073BuggyProxy.sol\":4249:4374  function _setAdmin(address _address) private ifAdmin{... */\n    tag_62:\n        /* \"073BuggyProxy.sol\":2671:2682  _getAdmin() */\n      tag_92\n        /* \"073BuggyProxy.sol\":2671:2680  _getAdmin */\n      tag_39\n        /* \"073BuggyProxy.sol\":2671:2682  _getAdmin() */\n      jump\t// in\n    tag_92:\n        /* \"073BuggyProxy.sol\":2657:2682  msg.sender == _getAdmin() */\n      0xffffffffffffffffffffffffffffffffffffffff\n      and\n        /* \"073BuggyProxy.sol\":2657:2667  msg.sender */\n      caller\n        /* \"073BuggyProxy.sol\":2657:2682  msg.sender == _getAdmin() */\n      0xffffffffffffffffffffffffffffffffffffffff\n      and\n      sub\n        /* \"073BuggyProxy.sol\":2654:2749  if(msg.sender == _getAdmin()){... */\n      tag_93\n      jumpi\n        /* \"073BuggyProxy.sol\":4359:4367  _address */\n      dup1\n        /* \"073BuggyProxy.sol\":4312:4350  StorageSlot.getAddressSlot(admin_slot) */\n      tag_95\n        /* \"073BuggyProxy.sol\":2495:2496  1 */\n      0x01\n        /* \"073BuggyProxy.sol\":2461:2493  keccak256(\"eip1967.proxy.admin\") */\n      0xb53127684a568b3173ae13b9f8a6016e243e63b6e8ee1178d6a717850b5d6104\n        /* \"073BuggyProxy.sol\":2456:2494  uint(keccak256(\"eip1967.proxy.admin\")) */\n      0x00\n      shr\n        /* \"073BuggyProxy.sol\":2456:2496  uint(keccak256(\"eip1967.proxy.admin\"))-1 */\n      tag_96\n      swap2\n      swap1\n      tag_75\n      jump\t// in\n    tag_96:\n        /* \"073BuggyProxy.sol\":2448:2497  bytes32(uint(keccak256(\"eip1967.proxy.admin\"))-1) */\n      0x00\n      shl\n        /* \"073BuggyProxy.sol\":4312:4338  StorageSlot.getAddressSlot */\n      tag_76\n        /* \"073BuggyProxy.sol\":4312:4350  StorageSlot.getAddressSlot(admin_slot) */\n      jump\t// in\n    tag_95:\n        /* \"073BuggyProxy.sol\":4312:4356  StorageSlot.getAddressSlot(admin_slot).value */\n      0x00\n      add\n      0x00\n        /* \"073BuggyProxy.sol\":4312:4367  StorageSlot.getAddressSlot(admin_slot).value = _address */\n      0x0100\n      exp\n      dup2\n      sload\n      dup2\n      0xffffffffffffffffffffffffffffffffffffffff\n      mul\n      not\n      and\n      swap1\n      dup4\n      0xffffffffffffffffffffffffffffffffffffffff\n      and\n      mul\n      or\n      swap1\n      sstore\n      pop\n        /* \"073BuggyProxy.sol\":2654:2749  if(msg.sender == _getAdmin()){... */\n      jump(tag_97)\n    tag_93:\n        /* \"073BuggyProxy.sol\":2727:2738  _fallback() */\n      tag_98\n        /* \"073BuggyProxy.sol\":2727:2736  _fallback */\n      tag_10\n        /* \"073BuggyProxy.sol\":2727:2738  _fallback() */\n      jump\t// in\n    tag_98:\n        /* \"073BuggyProxy.sol\":2654:2749  if(msg.sender == _getAdmin()){... */\n    tag_97:\n        /* \"073BuggyProxy.sol\":4249:4374  function _setAdmin(address _address) private ifAdmin{... */\n      pop\n      jump\t// out\n        /* \"073BuggyProxy.sol\":6062:6206  function getAddressSlot(bytes32 slot) internal pure returns(AddressSlot storage r){... */\n    tag_76:\n        /* \"073BuggyProxy.sol\":6122:6143  AddressSlot storage r */\n      0x00\n        /* \"073BuggyProxy.sol\":6186:6190  slot */\n      dup2\n        /* \"073BuggyProxy.sol\":6176:6190  r.slot := slot */\n      swap1\n      pop\n        /* \"073BuggyProxy.sol\":6062:6206  function getAddressSlot(bytes32 slot) internal pure returns(AddressSlot storage r){... */\n      swap2\n      swap1\n      pop\n      jump\t// out\n        /* \"#utility.yul\":88:205   */\n    tag_101:\n        /* \"#utility.yul\":197:198   */\n      0x00\n        /* \"#utility.yul\":194:195   */\n      dup1\n        /* \"#utility.yul\":187:199   */\n      revert\n        /* \"#utility.yul\":334:460   */\n    tag_103:\n        /* \"#utility.yul\":371:378   */\n      0x00\n        /* \"#utility.yul\":411:453   */\n      0xffffffffffffffffffffffffffffffffffffffff\n        /* \"#utility.yul\":404:409   */\n      dup3\n        /* \"#utility.yul\":400:454   */\n      and\n        /* \"#utility.yul\":389:454   */\n      swap1\n      pop\n        /* \"#utility.yul\":334:460   */\n      swap2\n      swap1\n      pop\n      jump\t// out\n        /* \"#utility.yul\":466:562   */\n    tag_104:\n        /* \"#utility.yul\":503:510   */\n      0x00\n        /* \"#utility.yul\":532:556   */\n      tag_119\n        /* \"#utility.yul\":550:555   */\n      dup3\n        /* \"#utility.yul\":532:556   */\n      tag_103\n      jump\t// in\n    tag_119:\n        /* \"#utility.yul\":521:556   */\n      swap1\n      pop\n        /* \"#utility.yul\":466:562   */\n      swap2\n      swap1\n      pop\n      jump\t// out\n        /* \"#utility.yul\":568:690   */\n    tag_105:\n        /* \"#utility.yul\":641:665   */\n      tag_121\n        /* \"#utility.yul\":659:664   */\n      dup2\n        /* \"#utility.yul\":641:665   */\n      tag_104\n      jump\t// in\n    tag_121:\n        /* \"#utility.yul\":634:639   */\n      dup2\n        /* \"#utility.yul\":631:666   */\n      eq\n        /* \"#utility.yul\":621:684   */\n      tag_122\n      jumpi\n        /* \"#utility.yul\":680:681   */\n      0x00\n        /* \"#utility.yul\":677:678   */\n      dup1\n        /* \"#utility.yul\":670:682   */\n      revert\n        /* \"#utility.yul\":621:684   */\n    tag_122:\n        /* \"#utility.yul\":568:690   */\n      pop\n      jump\t// out\n        /* \"#utility.yul\":696:835   */\n    tag_106:\n        /* \"#utility.yul\":742:747   */\n      0x00\n        /* \"#utility.yul\":780:786   */\n      dup2\n        /* \"#utility.yul\":767:787   */\n      calldataload\n        /* \"#utility.yul\":758:787   */\n      swap1\n      pop\n        /* \"#utility.yul\":796:829   */\n      tag_124\n        /* \"#utility.yul\":823:828   */\n      dup2\n        /* \"#utility.yul\":796:829   */\n      tag_105\n      jump\t// in\n    tag_124:\n        /* \"#utility.yul\":696:835   */\n      swap3\n      swap2\n      pop\n      pop\n      jump\t// out\n        /* \"#utility.yul\":841:1170   */\n    tag_17:\n        /* \"#utility.yul\":900:906   */\n      0x00\n        /* \"#utility.yul\":949:951   */\n      0x20\n        /* \"#utility.yul\":937:946   */\n      dup3\n        /* \"#utility.yul\":928:935   */\n      dup5\n        /* \"#utility.yul\":924:947   */\n      sub\n        /* \"#utility.yul\":920:952   */\n      slt\n        /* \"#utility.yul\":917:1036   */\n      iszero\n      tag_126\n      jumpi\n        /* \"#utility.yul\":955:1034   */\n      tag_127\n      tag_101\n      jump\t// in\n    tag_127:\n        /* \"#utility.yul\":917:1036   */\n    tag_126:\n        /* \"#utility.yul\":1075:1076   */\n      0x00\n        /* \"#utility.yul\":1100:1153   */\n      tag_128\n        /* \"#utility.yul\":1145:1152   */\n      dup5\n        /* \"#utility.yul\":1136:1142   */\n      dup3\n        /* \"#utility.yul\":1125:1134   */\n      dup6\n        /* \"#utility.yul\":1121:1143   */\n      add\n        /* \"#utility.yul\":1100:1153   */\n      tag_106\n      jump\t// in\n    tag_128:\n        /* \"#utility.yul\":1090:1153   */\n      swap2\n      pop\n        /* \"#utility.yul\":1046:1163   */\n      pop\n        /* \"#utility.yul\":841:1170   */\n      swap3\n      swap2\n      pop\n      pop\n      jump\t// out\n        /* \"#utility.yul\":1176:1294   */\n    tag_107:\n        /* \"#utility.yul\":1263:1287   */\n      tag_130\n        /* \"#utility.yul\":1281:1286   */\n      dup2\n        /* \"#utility.yul\":1263:1287   */\n      tag_104\n      jump\t// in\n    tag_130:\n        /* \"#utility.yul\":1258:1261   */\n      dup3\n        /* \"#utility.yul\":1251:1288   */\n      mstore\n        /* \"#utility.yul\":1176:1294   */\n      pop\n      pop\n      jump\t// out\n        /* \"#utility.yul\":1300:1522   */\n    tag_23:\n        /* \"#utility.yul\":1393:1397   */\n      0x00\n        /* \"#utility.yul\":1431:1433   */\n      0x20\n        /* \"#utility.yul\":1420:1429   */\n      dup3\n        /* \"#utility.yul\":1416:1434   */\n      add\n        /* \"#utility.yul\":1408:1434   */\n      swap1\n      pop\n        /* \"#utility.yul\":1444:1515   */\n      tag_132\n        /* \"#utility.yul\":1512:1513   */\n      0x00\n        /* \"#utility.yul\":1501:1510   */\n      dup4\n        /* \"#utility.yul\":1497:1514   */\n      add\n        /* \"#utility.yul\":1488:1494   */\n      dup5\n        /* \"#utility.yul\":1444:1515   */\n      tag_107\n      jump\t// in\n    tag_132:\n        /* \"#utility.yul\":1300:1522   */\n      swap3\n      swap2\n      pop\n      pop\n      jump\t// out\n        /* \"#utility.yul\":1528:1697   */\n    tag_108:\n        /* \"#utility.yul\":1612:1623   */\n      0x00\n        /* \"#utility.yul\":1646:1652   */\n      dup3\n        /* \"#utility.yul\":1641:1644   */\n      dup3\n        /* \"#utility.yul\":1634:1653   */\n      mstore\n        /* \"#utility.yul\":1686:1690   */\n      0x20\n        /* \"#utility.yul\":1681:1684   */\n      dup3\n        /* \"#utility.yul\":1677:1691   */\n      add\n        /* \"#utility.yul\":1662:1691   */\n      swap1\n      pop\n        /* \"#utility.yul\":1528:1697   */\n      swap3\n      swap2\n      pop\n      pop\n      jump\t// out\n        /* \"#utility.yul\":1703:1870   */\n    tag_109:\n        /* \"#utility.yul\":1843:1862   */\n      0x6e6f742063616e2075706772616465546f000000000000000000000000000000\n        /* \"#utility.yul\":1839:1840   */\n      0x00\n        /* \"#utility.yul\":1831:1837   */\n      dup3\n        /* \"#utility.yul\":1827:1841   */\n      add\n        /* \"#utility.yul\":1820:1863   */\n      mstore\n        /* \"#utility.yul\":1703:1870   */\n      pop\n      jump\t// out\n        /* \"#utility.yul\":1876:2242   */\n    tag_110:\n        /* \"#utility.yul\":2018:2021   */\n      0x00\n        /* \"#utility.yul\":2039:2106   */\n      tag_136\n        /* \"#utility.yul\":2103:2105   */\n      0x11\n        /* \"#utility.yul\":2098:2101   */\n      dup4\n        /* \"#utility.yul\":2039:2106   */\n      tag_108\n      jump\t// in\n    tag_136:\n        /* \"#utility.yul\":2032:2106   */\n      swap2\n      pop\n        /* \"#utility.yul\":2115:2208   */\n      tag_137\n        /* \"#utility.yul\":2204:2207   */\n      dup3\n        /* \"#utility.yul\":2115:2208   */\n      tag_109\n      jump\t// in\n    tag_137:\n        /* \"#utility.yul\":2233:2235   */\n      0x20\n        /* \"#utility.yul\":2228:2231   */\n      dup3\n        /* \"#utility.yul\":2224:2236   */\n      add\n        /* \"#utility.yul\":2217:2236   */\n      swap1\n      pop\n        /* \"#utility.yul\":1876:2242   */\n      swap2\n      swap1\n      pop\n      jump\t// out\n        /* \"#utility.yul\":2248:2667   */\n    tag_45:\n        /* \"#utility.yul\":2414:2418   */\n      0x00\n        /* \"#utility.yul\":2452:2454   */\n      0x20\n        /* \"#utility.yul\":2441:2450   */\n      dup3\n        /* \"#utility.yul\":2437:2455   */\n      add\n        /* \"#utility.yul\":2429:2455   */\n      swap1\n      pop\n        /* \"#utility.yul\":2501:2510   */\n      dup2\n        /* \"#utility.yul\":2495:2499   */\n      dup2\n        /* \"#utility.yul\":2491:2511   */\n      sub\n        /* \"#utility.yul\":2487:2488   */\n      0x00\n        /* \"#utility.yul\":2476:2485   */\n      dup4\n        /* \"#utility.yul\":2472:2489   */\n      add\n        /* \"#utility.yul\":2465:2512   */\n      mstore\n        /* \"#utility.yul\":2529:2660   */\n      tag_139\n        /* \"#utility.yul\":2655:2659   */\n      dup2\n        /* \"#utility.yul\":2529:2660   */\n      tag_110\n      jump\t// in\n    tag_139:\n        /* \"#utility.yul\":2521:2660   */\n      swap1\n      pop\n        /* \"#utility.yul\":2248:2667   */\n      swap2\n      swap1\n      pop\n      jump\t// out\n        /* \"#utility.yul\":2673:2750   */\n    tag_111:\n        /* \"#utility.yul\":2710:2717   */\n      0x00\n        /* \"#utility.yul\":2739:2744   */\n      dup2\n        /* \"#utility.yul\":2728:2744   */\n      swap1\n      pop\n        /* \"#utility.yul\":2673:2750   */\n      swap2\n      swap1\n      pop\n      jump\t// out\n        /* \"#utility.yul\":2756:2936   */\n    tag_112:\n        /* \"#utility.yul\":2804:2881   */\n      0x4e487b7100000000000000000000000000000000000000000000000000000000\n        /* \"#utility.yul\":2801:2802   */\n      0x00\n        /* \"#utility.yul\":2794:2882   */\n      mstore\n        /* \"#utility.yul\":2901:2905   */\n      0x11\n        /* \"#utility.yul\":2898:2899   */\n      0x04\n        /* \"#utility.yul\":2891:2906   */\n      mstore\n        /* \"#utility.yul\":2925:2929   */\n      0x24\n        /* \"#utility.yul\":2922:2923   */\n      0x00\n        /* \"#utility.yul\":2915:2930   */\n      revert\n        /* \"#utility.yul\":2942:3136   */\n    tag_75:\n        /* \"#utility.yul\":2982:2986   */\n      0x00\n        /* \"#utility.yul\":3002:3022   */\n      tag_143\n        /* \"#utility.yul\":3020:3021   */\n      dup3\n        /* \"#utility.yul\":3002:3022   */\n      tag_111\n      jump\t// in\n    tag_143:\n        /* \"#utility.yul\":2997:3022   */\n      swap2\n      pop\n        /* \"#utility.yul\":3036:3056   */\n      tag_144\n        /* \"#utility.yul\":3054:3055   */\n      dup4\n        /* \"#utility.yul\":3036:3056   */\n      tag_111\n      jump\t// in\n    tag_144:\n        /* \"#utility.yul\":3031:3056   */\n      swap3\n      pop\n        /* \"#utility.yul\":3080:3081   */\n      dup3\n        /* \"#utility.yul\":3077:3078   */\n      dup3\n        /* \"#utility.yul\":3073:3082   */\n      sub\n        /* \"#utility.yul\":3065:3082   */\n      swap1\n      pop\n        /* \"#utility.yul\":3104:3105   */\n      dup2\n        /* \"#utility.yul\":3098:3102   */\n      dup2\n        /* \"#utility.yul\":3095:3106   */\n      gt\n        /* \"#utility.yul\":3092:3129   */\n      iszero\n      tag_145\n      jumpi\n        /* \"#utility.yul\":3109:3127   */\n      tag_146\n      tag_112\n      jump\t// in\n    tag_146:\n        /* \"#utility.yul\":3092:3129   */\n    tag_145:\n        /* \"#utility.yul\":2942:3136   */\n      swap3\n      swap2\n      pop\n      pop\n      jump\t// out\n\n    auxdata: 0xa26469706673582212203a2786e4abd6e723f6577db46ace84b54d9eaa7d15a7b744a05f8ed8e32d9fb164736f6c634300081a0033\n}\n",
				"bytecode": {
					"linkReferences": {},
					"object": "608060405234801561000f575f80fd5b5061001f3361002460201b60201c565b610277565b6100326100fa60201b60201c565b73ffffffffffffffffffffffffffffffffffffffff163373ffffffffffffffffffffffffffffffffffffffff16036100e857806100a460017fb53127684a568b3173ae13b9f8a6016e243e63b6e8ee1178d6a717850b5d61045f1c6100979190610244565b5f1b61016160201b60201c565b5f015f6101000a81548173ffffffffffffffffffffffffffffffffffffffff021916908373ffffffffffffffffffffffffffffffffffffffff1602179055506100f7565b6100f661016a60201b60201c565b5b50565b5f61013a60017fb53127684a568b3173ae13b9f8a6016e243e63b6e8ee1178d6a717850b5d61045f1c61012d9190610244565b5f1b61016160201b60201c565b5f015f9054906101000a900473ffffffffffffffffffffffffffffffffffffffff16905090565b5f819050919050565b61018661017b61018860201b60201c565b6101ef60201b60201c565b565b5f6101c860017f360894a13ba1a3210667c828492db98dca3e2076cc3735a920a3ca505d382bbd5f1c6101bb9190610244565b5f1b61016160201b60201c565b5f015f9054906101000a900473ffffffffffffffffffffffffffffffffffffffff16905090565b365f80375f80365f845af43d5f803e805f811461020a573d5ff35b3d5ffd5b5f819050919050565b7f4e487b71000000000000000000000000000000000000000000000000000000005f52601160045260245ffd5b5f61024e8261020e565b91506102598361020e565b925082820390508181111561027157610270610217565b5b92915050565b610714806102845f395ff3fe608060405260043610610042575f3560e01c80633659cfe61461005b5780635c60da1b146100835780638f283970146100ad578063f851a440146100d557610051565b366100515761004f6100ff565b005b6100596100ff565b005b348015610066575f80fd5b50610081600480360381019061007c91906105aa565b610111565b005b34801561008e575f80fd5b506100976101da565b6040516100a491906105e4565b60405180910390f35b3480156100b8575f80fd5b506100d360048036038101906100ce91906105aa565b610230565b005b3480156100e0575f80fd5b506100e9610284565b6040516100f691906105e4565b60405180910390f35b61010f61010a6102da565b61033b565b565b61011961035a565b73ffffffffffffffffffffffffffffffffffffffff163373ffffffffffffffffffffffffffffffffffffffff16036101ce5761015361035a565b73ffffffffffffffffffffffffffffffffffffffff163373ffffffffffffffffffffffffffffffffffffffff16146101c0576040517f08c379a00000000000000000000000000000000000000000000000000000000081526004016101b790610657565b60405180910390fd5b6101c9816103bb565b6101d7565b6101d66100ff565b5b50565b5f6101e361035a565b73ffffffffffffffffffffffffffffffffffffffff163373ffffffffffffffffffffffffffffffffffffffff16036102245761021d6102da565b905061022d565b61022c6100ff565b5b90565b61023861035a565b73ffffffffffffffffffffffffffffffffffffffff163373ffffffffffffffffffffffffffffffffffffffff1603610278576102738161047f565b610281565b6102806100ff565b5b50565b5f61028d61035a565b73ffffffffffffffffffffffffffffffffffffffff163373ffffffffffffffffffffffffffffffffffffffff16036102ce576102c761035a565b90506102d7565b6102d66100ff565b5b90565b5f61031460017f360894a13ba1a3210667c828492db98dca3e2076cc3735a920a3ca505d382bbd5f1c61030d91906106ab565b5f1b610543565b5f015f9054906101000a900473ffffffffffffffffffffffffffffffffffffffff16905090565b365f80375f80365f845af43d5f803e805f8114610356573d5ff35b3d5ffd5b5f61039460017fb53127684a568b3173ae13b9f8a6016e243e63b6e8ee1178d6a717850b5d61045f1c61038d91906106ab565b5f1b610543565b5f015f9054906101000a900473ffffffffffffffffffffffffffffffffffffffff16905090565b6103c361035a565b73ffffffffffffffffffffffffffffffffffffffff163373ffffffffffffffffffffffffffffffffffffffff1603610473578061042f60017f360894a13ba1a3210667c828492db98dca3e2076cc3735a920a3ca505d382bbd5f1c61042891906106ab565b5f1b610543565b5f015f6101000a81548173ffffffffffffffffffffffffffffffffffffffff021916908373ffffffffffffffffffffffffffffffffffffffff16021790555061047c565b61047b6100ff565b5b50565b61048761035a565b73ffffffffffffffffffffffffffffffffffffffff163373ffffffffffffffffffffffffffffffffffffffff160361053757806104f360017fb53127684a568b3173ae13b9f8a6016e243e63b6e8ee1178d6a717850b5d61045f1c6104ec91906106ab565b5f1b610543565b5f015f6101000a81548173ffffffffffffffffffffffffffffffffffffffff021916908373ffffffffffffffffffffffffffffffffffffffff160217905550610540565b61053f6100ff565b5b50565b5f819050919050565b5f80fd5b5f73ffffffffffffffffffffffffffffffffffffffff82169050919050565b5f61057982610550565b9050919050565b6105898161056f565b8114610593575f80fd5b50565b5f813590506105a481610580565b92915050565b5f602082840312156105bf576105be61054c565b5b5f6105cc84828501610596565b91505092915050565b6105de8161056f565b82525050565b5f6020820190506105f75f8301846105d5565b92915050565b5f82825260208201905092915050565b7f6e6f742063616e2075706772616465546f0000000000000000000000000000005f82015250565b5f6106416011836105fd565b915061064c8261060d565b602082019050919050565b5f6020820190508181035f83015261066e81610635565b9050919050565b5f819050919050565b7f4e487b71000000000000000000000000000000000000000000000000000000005f52601160045260245ffd5b5f6106b582610675565b91506106c083610675565b92508282039050818111156106d8576106d761067e565b5b9291505056fea26469706673582212203a2786e4abd6e723f6577db46ace84b54d9eaa7d15a7b744a05f8ed8e32d9fb164736f6c634300081a0033",
					"opcodes": "PUSH1 0x80 PUSH1 0x40 MSTORE CALLVALUE DUP1 ISZERO PUSH2 0xF JUMPI PUSH0 DUP1 REVERT JUMPDEST POP PUSH2 0x1F CALLER PUSH2 0x24 PUSH1 0x20 SHL PUSH1 0x20 SHR JUMP JUMPDEST PUSH2 0x277 JUMP JUMPDEST PUSH2 0x32 PUSH2 0xFA PUSH1 0x20 SHL PUSH1 0x20 SHR JUMP JUMPDEST PUSH20 0xFFFFFFFFFFFFFFFFFFFFFFFFFFFFFFFFFFFFFFFF AND CALLER PUSH20 0xFFFFFFFFFFFFFFFFFFFFFFFFFFFFFFFFFFFFFFFF AND SUB PUSH2 0xE8 JUMPI DUP1 PUSH2 0xA4 PUSH1 0x1 PUSH32 0xB53127684A568B3173AE13B9F8A6016E243E63B6E8EE1178D6A717850B5D6104 PUSH0 SHR PUSH2 0x97 SWAP2 SWAP1 PUSH2 0x244 JUMP JUMPDEST PUSH0 SHL PUSH2 0x161 PUSH1 0x20 SHL PUSH1 0x20 SHR JUMP JUMPDEST PUSH0 ADD PUSH0 PUSH2 0x100 EXP DUP2 SLOAD DUP2 PUSH20 0xFFFFFFFFFFFFFFFFFFFFFFFFFFFFFFFFFFFFFFFF MUL NOT AND SWAP1 DUP4 PUSH20 0xFFFFFFFFFFFFFFFFFFFFFFFFFFFFFFFFFFFFFFFF AND MUL OR SWAP1 SSTORE POP PUSH2 0xF7 JUMP JUMPDEST PUSH2 0xF6 PUSH2 0x16A PUSH1 0x20 SHL PUSH1 0x20 SHR JUMP JUMPDEST JUMPDEST POP JUMP JUMPDEST PUSH0 PUSH2 0x13A PUSH1 0x1 PUSH32 0xB53127684A568B3173AE13B9F8A6016E243E63B6E8EE1178D6A717850B5D6104 PUSH0 SHR PUSH2 0x12D SWAP2 SWAP1 PUSH2 0x244 JUMP JUMPDEST PUSH0 SHL PUSH2 0x161 PUSH1 0x20 SHL PUSH1 0x20 SHR JUMP JUMPDEST PUSH0 ADD PUSH0 SWAP1 SLOAD SWAP1 PUSH2 0x100 EXP SWAP1 DIV PUSH20 0xFFFFFFFFFFFFFFFFFFFFFFFFFFFFFFFFFFFFFFFF AND SWAP1 POP SWAP1 JUMP JUMPDEST PUSH0 DUP2 SWAP1 POP SWAP2 SWAP1 POP JUMP JUMPDEST PUSH2 0x186 PUSH2 0x17B PUSH2 0x188 PUSH1 0x20 SHL PUSH1 0x20 SHR JUMP JUMPDEST PUSH2 0x1EF PUSH1 0x20 SHL PUSH1 0x20 SHR JUMP JUMPDEST JUMP JUMPDEST PUSH0 PUSH2 0x1C8 PUSH1 0x1 PUSH32 0x360894A13BA1A3210667C828492DB98DCA3E2076CC3735A920A3CA505D382BBD PUSH0 SHR PUSH2 0x1BB SWAP2 SWAP1 PUSH2 0x244 JUMP JUMPDEST PUSH0 SHL PUSH2 0x161 PUSH1 0x20 SHL PUSH1 0x20 SHR JUMP JUMPDEST PUSH0 ADD PUSH0 SWAP1 SLOAD SWAP1 PUSH2 0x100 EXP SWAP1 DIV PUSH20 0xFFFFFFFFFFFFFFFFFFFFFFFFFFFFFFFFFFFFFFFF AND SWAP1 POP SWAP1 JUMP JUMPDEST CALLDATASIZE PUSH0 DUP1 CALLDATACOPY PUSH0 DUP1 CALLDATASIZE PUSH0 DUP5 GAS DELEGATECALL RETURNDATASIZE PUSH0 DUP1 RETURNDATACOPY DUP1 PUSH0 DUP2 EQ PUSH2 0x20A JUMPI RETURNDATASIZE PUSH0 RETURN JUMPDEST RETURNDATASIZE PUSH0 REVERT JUMPDEST PUSH0 DUP2 SWAP1 POP SWAP2 SWAP1 POP JUMP JUMPDEST PUSH32 0x4E487B7100000000000000000000000000000000000000000000000000000000 PUSH0 MSTORE PUSH1 0x11 PUSH1 0x4 MSTORE PUSH1 0x24 PUSH0 REVERT JUMPDEST PUSH0 PUSH2 0x24E DUP3 PUSH2 0x20E JUMP JUMPDEST SWAP2 POP PUSH2 0x259 DUP4 PUSH2 0x20E JUMP JUMPDEST SWAP3 POP DUP3 DUP3 SUB SWAP1 POP DUP2 DUP2 GT ISZERO PUSH2 0x271 JUMPI PUSH2 0x270 PUSH2 0x217 JUMP JUMPDEST JUMPDEST SWAP3 SWAP2 POP POP JUMP JUMPDEST PUSH2 0x714 DUP1 PUSH2 0x284 PUSH0 CODECOPY PUSH0 RETURN INVALID PUSH1 0x80 PUSH1 0x40 MSTORE PUSH1 0x4 CALLDATASIZE LT PUSH2 0x42 JUMPI PUSH0 CALLDATALOAD PUSH1 0xE0 SHR DUP1 PUSH4 0x3659CFE6 EQ PUSH2 0x5B JUMPI DUP1 PUSH4 0x5C60DA1B EQ PUSH2 0x83 JUMPI DUP1 PUSH4 0x8F283970 EQ PUSH2 0xAD JUMPI DUP1 PUSH4 0xF851A440 EQ PUSH2 0xD5 JUMPI PUSH2 0x51 JUMP JUMPDEST CALLDATASIZE PUSH2 0x51 JUMPI PUSH2 0x4F PUSH2 0xFF JUMP JUMPDEST STOP JUMPDEST PUSH2 0x59 PUSH2 0xFF JUMP JUMPDEST STOP JUMPDEST CALLVALUE DUP1 ISZERO PUSH2 0x66 JUMPI PUSH0 DUP1 REVERT JUMPDEST POP PUSH2 0x81 PUSH1 0x4 DUP1 CALLDATASIZE SUB DUP2 ADD SWAP1 PUSH2 0x7C SWAP2 SWAP1 PUSH2 0x5AA JUMP JUMPDEST PUSH2 0x111 JUMP JUMPDEST STOP JUMPDEST CALLVALUE DUP1 ISZERO PUSH2 0x8E JUMPI PUSH0 DUP1 REVERT JUMPDEST POP PUSH2 0x97 PUSH2 0x1DA JUMP JUMPDEST PUSH1 0x40 MLOAD PUSH2 0xA4 SWAP2 SWAP1 PUSH2 0x5E4 JUMP JUMPDEST PUSH1 0x40 MLOAD DUP1 SWAP2 SUB SWAP1 RETURN JUMPDEST CALLVALUE DUP1 ISZERO PUSH2 0xB8 JUMPI PUSH0 DUP1 REVERT JUMPDEST POP PUSH2 0xD3 PUSH1 0x4 DUP1 CALLDATASIZE SUB DUP2 ADD SWAP1 PUSH2 0xCE SWAP2 SWAP1 PUSH2 0x5AA JUMP JUMPDEST PUSH2 0x230 JUMP JUMPDEST STOP JUMPDEST CALLVALUE DUP1 ISZERO PUSH2 0xE0 JUMPI PUSH0 DUP1 REVERT JUMPDEST POP PUSH2 0xE9 PUSH2 0x284 JUMP JUMPDEST PUSH1 0x40 MLOAD PUSH2 0xF6 SWAP2 SWAP1 PUSH2 0x5E4 JUMP JUMPDEST PUSH1 0x40 MLOAD DUP1 SWAP2 SUB SWAP1 RETURN JUMPDEST PUSH2 0x10F PUSH2 0x10A PUSH2 0x2DA JUMP JUMPDEST PUSH2 0x33B JUMP JUMPDEST JUMP JUMPDEST PUSH2 0x119 PUSH2 0x35A JUMP JUMPDEST PUSH20 0xFFFFFFFFFFFFFFFFFFFFFFFFFFFFFFFFFFFFFFFF AND CALLER PUSH20 0xFFFFFFFFFFFFFFFFFFFFFFFFFFFFFFFFFFFFFFFF AND SUB PUSH2 0x1CE JUMPI PUSH2 0x153 PUSH2 0x35A JUMP JUMPDEST PUSH20 0xFFFFFFFFFFFFFFFFFFFFFFFFFFFFFFFFFFFFFFFF AND CALLER PUSH20 0xFFFFFFFFFFFFFFFFFFFFFFFFFFFFFFFFFFFFFFFF AND EQ PUSH2 0x1C0 JUMPI PUSH1 0x40 MLOAD PUSH32 0x8C379A000000000000000000000000000000000000000000000000000000000 DUP2 MSTORE PUSH1 0x4 ADD PUSH2 0x1B7 SWAP1 PUSH2 0x657 JUMP JUMPDEST PUSH1 0x40 MLOAD DUP1 SWAP2 SUB SWAP1 REVERT JUMPDEST PUSH2 0x1C9 DUP2 PUSH2 0x3BB JUMP JUMPDEST PUSH2 0x1D7 JUMP JUMPDEST PUSH2 0x1D6 PUSH2 0xFF JUMP JUMPDEST JUMPDEST POP JUMP JUMPDEST PUSH0 PUSH2 0x1E3 PUSH2 0x35A JUMP JUMPDEST PUSH20 0xFFFFFFFFFFFFFFFFFFFFFFFFFFFFFFFFFFFFFFFF AND CALLER PUSH20 0xFFFFFFFFFFFFFFFFFFFFFFFFFFFFFFFFFFFFFFFF AND SUB PUSH2 0x224 JUMPI PUSH2 0x21D PUSH2 0x2DA JUMP JUMPDEST SWAP1 POP PUSH2 0x22D JUMP JUMPDEST PUSH2 0x22C PUSH2 0xFF JUMP JUMPDEST JUMPDEST SWAP1 JUMP JUMPDEST PUSH2 0x238 PUSH2 0x35A JUMP JUMPDEST PUSH20 0xFFFFFFFFFFFFFFFFFFFFFFFFFFFFFFFFFFFFFFFF AND CALLER PUSH20 0xFFFFFFFFFFFFFFFFFFFFFFFFFFFFFFFFFFFFFFFF AND SUB PUSH2 0x278 JUMPI PUSH2 0x273 DUP2 PUSH2 0x47F JUMP JUMPDEST PUSH2 0x281 JUMP JUMPDEST PUSH2 0x280 PUSH2 0xFF JUMP JUMPDEST JUMPDEST POP JUMP JUMPDEST PUSH0 PUSH2 0x28D PUSH2 0x35A JUMP JUMPDEST PUSH20 0xFFFFFFFFFFFFFFFFFFFFFFFFFFFFFFFFFFFFFFFF AND CALLER PUSH20 0xFFFFFFFFFFFFFFFFFFFFFFFFFFFFFFFFFFFFFFFF AND SUB PUSH2 0x2CE JUMPI PUSH2 0x2C7 PUSH2 0x35A JUMP JUMPDEST SWAP1 POP PUSH2 0x2D7 JUMP JUMPDEST PUSH2 0x2D6 PUSH2 0xFF JUMP JUMPDEST JUMPDEST SWAP1 JUMP JUMPDEST PUSH0 PUSH2 0x314 PUSH1 0x1 PUSH32 0x360894A13BA1A3210667C828492DB98DCA3E2076CC3735A920A3CA505D382BBD PUSH0 SHR PUSH2 0x30D SWAP2 SWAP1 PUSH2 0x6AB JUMP JUMPDEST PUSH0 SHL PUSH2 0x543 JUMP JUMPDEST PUSH0 ADD PUSH0 SWAP1 SLOAD SWAP1 PUSH2 0x100 EXP SWAP1 DIV PUSH20 0xFFFFFFFFFFFFFFFFFFFFFFFFFFFFFFFFFFFFFFFF AND SWAP1 POP SWAP1 JUMP JUMPDEST CALLDATASIZE PUSH0 DUP1 CALLDATACOPY PUSH0 DUP1 CALLDATASIZE PUSH0 DUP5 GAS DELEGATECALL RETURNDATASIZE PUSH0 DUP1 RETURNDATACOPY DUP1 PUSH0 DUP2 EQ PUSH2 0x356 JUMPI RETURNDATASIZE PUSH0 RETURN JUMPDEST RETURNDATASIZE PUSH0 REVERT JUMPDEST PUSH0 PUSH2 0x394 PUSH1 0x1 PUSH32 0xB53127684A568B3173AE13B9F8A6016E243E63B6E8EE1178D6A717850B5D6104 PUSH0 SHR PUSH2 0x38D SWAP2 SWAP1 PUSH2 0x6AB JUMP JUMPDEST PUSH0 SHL PUSH2 0x543 JUMP JUMPDEST PUSH0 ADD PUSH0 SWAP1 SLOAD SWAP1 PUSH2 0x100 EXP SWAP1 DIV PUSH20 0xFFFFFFFFFFFFFFFFFFFFFFFFFFFFFFFFFFFFFFFF AND SWAP1 POP SWAP1 JUMP JUMPDEST PUSH2 0x3C3 PUSH2 0x35A JUMP JUMPDEST PUSH20 0xFFFFFFFFFFFFFFFFFFFFFFFFFFFFFFFFFFFFFFFF AND CALLER PUSH20 0xFFFFFFFFFFFFFFFFFFFFFFFFFFFFFFFFFFFFFFFF AND SUB PUSH2 0x473 JUMPI DUP1 PUSH2 0x42F PUSH1 0x1 PUSH32 0x360894A13BA1A3210667C828492DB98DCA3E2076CC3735A920A3CA505D382BBD PUSH0 SHR PUSH2 0x428 SWAP2 SWAP1 PUSH2 0x6AB JUMP JUMPDEST PUSH0 SHL PUSH2 0x543 JUMP JUMPDEST PUSH0 ADD PUSH0 PUSH2 0x100 EXP DUP2 SLOAD DUP2 PUSH20 0xFFFFFFFFFFFFFFFFFFFFFFFFFFFFFFFFFFFFFFFF MUL NOT AND SWAP1 DUP4 PUSH20 0xFFFFFFFFFFFFFFFFFFFFFFFFFFFFFFFFFFFFFFFF AND MUL OR SWAP1 SSTORE POP PUSH2 0x47C JUMP JUMPDEST PUSH2 0x47B PUSH2 0xFF JUMP JUMPDEST JUMPDEST POP JUMP JUMPDEST PUSH2 0x487 PUSH2 0x35A JUMP JUMPDEST PUSH20 0xFFFFFFFFFFFFFFFFFFFFFFFFFFFFFFFFFFFFFFFF AND CALLER PUSH20 0xFFFFFFFFFFFFFFFFFFFFFFFFFFFFFFFFFFFFFFFF AND SUB PUSH2 0x537 JUMPI DUP1 PUSH2 0x4F3 PUSH1 0x1 PUSH32 0xB53127684A568B3173AE13B9F8A6016E243E63B6E8EE1178D6A717850B5D6104 PUSH0 SHR PUSH2 0x4EC SWAP2 SWAP1 PUSH2 0x6AB JUMP JUMPDEST PUSH0 SHL PUSH2 0x543 JUMP JUMPDEST PUSH0 ADD PUSH0 PUSH2 0x100 EXP DUP2 SLOAD DUP2 PUSH20 0xFFFFFFFFFFFFFFFFFFFFFFFFFFFFFFFFFFFFFFFF MUL NOT AND SWAP1 DUP4 PUSH20 0xFFFFFFFFFFFFFFFFFFFFFFFFFFFFFFFFFFFFFFFF AND MUL OR SWAP1 SSTORE POP PUSH2 0x540 JUMP JUMPDEST PUSH2 0x53F PUSH2 0xFF JUMP JUMPDEST JUMPDEST POP JUMP JUMPDEST PUSH0 DUP2 SWAP1 POP SWAP2 SWAP1 POP JUMP JUMPDEST PUSH0 DUP1 REVERT JUMPDEST PUSH0 PUSH20 0xFFFFFFFFFFFFFFFFFFFFFFFFFFFFFFFFFFFFFFFF DUP3 AND SWAP1 POP SWAP2 SWAP1 POP JUMP JUMPDEST PUSH0 PUSH2 0x579 DUP3 PUSH2 0x550 JUMP JUMPDEST SWAP1 POP SWAP2 SWAP1 POP JUMP JUMPDEST PUSH2 0x589 DUP2 PUSH2 0x56F JUMP JUMPDEST DUP2 EQ PUSH2 0x593 JUMPI PUSH0 DUP1 REVERT JUMPDEST POP JUMP JUMPDEST PUSH0 DUP2 CALLDATALOAD SWAP1 POP PUSH2 0x5A4 DUP2 PUSH2 0x580 JUMP JUMPDEST SWAP3 SWAP2 POP POP JUMP JUMPDEST PUSH0 PUSH1 0x20 DUP3 DUP5 SUB SLT ISZERO PUSH2 0x5BF JUMPI PUSH2 0x5BE PUSH2 0x54C JUMP JUMPDEST JUMPDEST PUSH0 PUSH2 0x5CC DUP5 DUP3 DUP6 ADD PUSH2 0x596 JUMP JUMPDEST SWAP2 POP POP SWAP3 SWAP2 POP POP JUMP JUMPDEST PUSH2 0x5DE DUP2 PUSH2 0x56F JUMP JUMPDEST DUP3 MSTORE POP POP JUMP JUMPDEST PUSH0 PUSH1 0x20 DUP3 ADD SWAP1 POP PUSH2 0x5F7 PUSH0 DUP4 ADD DUP5 PUSH2 0x5D5 JUMP JUMPDEST SWAP3 SWAP2 POP POP JUMP JUMPDEST PUSH0 DUP3 DUP3 MSTORE PUSH1 0x20 DUP3 ADD SWAP1 POP SWAP3 SWAP2 POP POP JUMP JUMPDEST PUSH32 0x6E6F742063616E2075706772616465546F000000000000000000000000000000 PUSH0 DUP3 ADD MSTORE POP JUMP JUMPDEST PUSH0 PUSH2 0x641 PUSH1 0x11 DUP4 PUSH2 0x5FD JUMP JUMPDEST SWAP2 POP PUSH2 0x64C DUP3 PUSH2 0x60D JUMP JUMPDEST PUSH1 0x20 DUP3 ADD SWAP1 POP SWAP2 SWAP1 POP JUMP JUMPDEST PUSH0 PUSH1 0x20 DUP3 ADD SWAP1 POP DUP2 DUP2 SUB PUSH0 DUP4 ADD MSTORE PUSH2 0x66E DUP2 PUSH2 0x635 JUMP JUMPDEST SWAP1 POP SWAP2 SWAP1 POP JUMP JUMPDEST PUSH0 DUP2 SWAP1 POP SWAP2 SWAP1 POP JUMP JUMPDEST PUSH32 0x4E487B7100000000000000000000000000000000000000000000000000000000 PUSH0 MSTORE PUSH1 0x11 PUSH1 0x4 MSTORE PUSH1 0x24 PUSH0 REVERT JUMPDEST PUSH0 PUSH2 0x6B5 DUP3 PUSH2 0x675 JUMP JUMPDEST SWAP2 POP PUSH2 0x6C0 DUP4 PUSH2 0x675 JUMP JUMPDEST SWAP3 POP DUP3 DUP3 SUB SWAP1 POP DUP2 DUP2 GT ISZERO PUSH2 0x6D8 JUMPI PUSH2 0x6D7 PUSH2 0x67E JUMP JUMPDEST JUMPDEST SWAP3 SWAP2 POP POP JUMP INVALID LOG2 PUSH5 0x6970667358 0x22 SLT KECCAK256 GASPRICE 0x27 DUP7 0xE4 0xAB 0xD6 0xE7 0x23 0xF6 JUMPI PUSH30 0xB46ACE84B54D9EAA7D15A7B744A05F8ED8E32D9FB164736F6C634300081A STOP CALLER "
				},
				"gasEstimates": {
					"creation": {
						"codeDepositCost": "362400",
						"executionCost": "infinite",
						"totalCost": "infinite"
					},
					"external": {
						"": "infinite",
						"admin()": "infinite",
						"changeAdmin(address)": "infinite",
						"implementation()": "infinite",
						"upgradeTo(address)": "infinite"
					},
					"internal": {
						"_delegate(address)": "infinite",
						"_fallback()": "infinite",
						"_getAdmin()": "infinite",
						"_getImplementation()": "infinite",
						"_setAdmin(address)": "infinite",
						"_setImplementation(address)": "infinite"
					}
				},
				"methodIdentifiers": {
					"admin()": "f851a440",
					"changeAdmin(address)": "8f283970",
					"implementation()": "5c60da1b",
					"upgradeTo(address)": "3659cfe6"
				}
			},
			"storageLayout": {
				"storage": [],
				"types": null
			},
			"userdoc": {
				"kind": "user",
				"methods": {},
				"version": 1
			}
		}
	}
}