{
	"073BuggyProxy.sol": {
		"ProxyAdmin": {
			"abi": [
				{
					"inputs": [],
					"stateMutability": "nonpayable",
					"type": "constructor"
				},
				{
					"inputs": [
						{
							"internalType": "address payable",
							"name": "proxy",
							"type": "address"
						},
						{
							"internalType": "address",
							"name": "_admin",
							"type": "address"
						}
					],
					"name": "changeProxyAdmin",
					"outputs": [],
					"stateMutability": "nonpayable",
					"type": "function"
				},
				{
					"inputs": [
						{
							"internalType": "address",
							"name": "proxy",
							"type": "address"
						}
					],
					"name": "getProxyAdmin",
					"outputs": [
						{
							"internalType": "address",
							"name": "",
							"type": "address"
						}
					],
					"stateMutability": "view",
					"type": "function"
				},
				{
					"inputs": [
						{
							"internalType": "address",
							"name": "proxy",
							"type": "address"
						}
					],
					"name": "getProxyImplentmetation",
					"outputs": [
						{
							"internalType": "address",
							"name": "",
							"type": "address"
						}
					],
					"stateMutability": "view",
					"type": "function"
				},
				{
					"inputs": [],
					"name": "owner",
					"outputs": [
						{
							"internalType": "address",
							"name": "",
							"type": "address"
						}
					],
					"stateMutability": "view",
					"type": "function"
				},
				{
					"inputs": [
						{
							"internalType": "address payable",
							"name": "proxy",
							"type": "address"
						},
						{
							"internalType": "address",
							"name": "_implentmetation",
							"type": "address"
						}
					],
					"name": "upgrade",
					"outputs": [],
					"stateMutability": "nonpayable",
					"type": "function"
				}
			],
			"devdoc": {
				"kind": "dev",
				"methods": {},
				"version": 1
			},
			"evm": {
				"assembly": "    /* \"073BuggyProxy.sol\":4876:5949  contract ProxyAdmin{... */\n  mstore(0x40, 0x80)\n    /* \"073BuggyProxy.sol\":4929:4977  constructor(){... */\n  callvalue\n  dup1\n  iszero\n  tag_1\n  jumpi\n  0x00\n  dup1\n  revert\ntag_1:\n  pop\n    /* \"073BuggyProxy.sol\":4960:4970  msg.sender */\n  caller\n    /* \"073BuggyProxy.sol\":4952:4957  owner */\n  0x00\n  dup1\n    /* \"073BuggyProxy.sol\":4952:4970  owner = msg.sender */\n  0x0100\n  exp\n  dup2\n  sload\n  dup2\n  0xffffffffffffffffffffffffffffffffffffffff\n  mul\n  not\n  and\n  swap1\n  dup4\n  0xffffffffffffffffffffffffffffffffffffffff\n  and\n  mul\n  or\n  swap1\n  sstore\n  pop\n    /* \"073BuggyProxy.sol\":4876:5949  contract ProxyAdmin{... */\n  dataSize(sub_0)\n  dup1\n  dataOffset(sub_0)\n  0x00\n  codecopy\n  0x00\n  return\nstop\n\nsub_0: assembly {\n        /* \"073BuggyProxy.sol\":4876:5949  contract ProxyAdmin{... */\n      mstore(0x40, 0x80)\n      callvalue\n      dup1\n      iszero\n      tag_1\n      jumpi\n      0x00\n      dup1\n      revert\n    tag_1:\n      pop\n      jumpi(tag_2, lt(calldatasize, 0x04))\n      shr(0xe0, calldataload(0x00))\n      dup1\n      0x7eff275e\n      eq\n      tag_3\n      jumpi\n      dup1\n      0x8da5cb5b\n      eq\n      tag_4\n      jumpi\n      dup1\n      0x99a88ec4\n      eq\n      tag_5\n      jumpi\n      dup1\n      0xe51cf692\n      eq\n      tag_6\n      jumpi\n      dup1\n      0xf3b7dead\n      eq\n      tag_7\n      jumpi\n    tag_2:\n      0x00\n      dup1\n      revert\n        /* \"073BuggyProxy.sol\":5083:5214  function changeProxyAdmin(address payable proxy,address _admin) external onlyOwner{... */\n    tag_3:\n      tag_8\n      0x04\n      dup1\n      calldatasize\n      sub\n      dup2\n      add\n      swap1\n      tag_9\n      swap2\n      swap1\n      tag_10\n      jump\t// in\n    tag_9:\n      tag_11\n      jump\t// in\n    tag_8:\n      stop\n        /* \"073BuggyProxy.sol\":4901:4922  address public  owner */\n    tag_4:\n      tag_12\n      tag_13\n      jump\t// in\n    tag_12:\n      mload(0x40)\n      tag_14\n      swap2\n      swap1\n      tag_15\n      jump\t// in\n    tag_14:\n      mload(0x40)\n      dup1\n      swap2\n      sub\n      swap1\n      return\n        /* \"073BuggyProxy.sol\":5220:5368  function upgrade(address payable proxy,address _implentmetation) external onlyOwner{... */\n    tag_5:\n      tag_16\n      0x04\n      dup1\n      calldatasize\n      sub\n      dup2\n      add\n      swap1\n      tag_17\n      swap2\n      swap1\n      tag_10\n      jump\t// in\n    tag_17:\n      tag_18\n      jump\t// in\n    tag_16:\n      stop\n        /* \"073BuggyProxy.sol\":5655:5946  function getProxyImplentmetation(address proxy) external view returns (address){... */\n    tag_6:\n      tag_19\n      0x04\n      dup1\n      calldatasize\n      sub\n      dup2\n      add\n      swap1\n      tag_20\n      swap2\n      swap1\n      tag_21\n      jump\t// in\n    tag_20:\n      tag_22\n      jump\t// in\n    tag_19:\n      mload(0x40)\n      tag_23\n      swap2\n      swap1\n      tag_15\n      jump\t// in\n    tag_23:\n      mload(0x40)\n      dup1\n      swap2\n      sub\n      swap1\n      return\n        /* \"073BuggyProxy.sol\":5374:5645  function getProxyAdmin(address proxy) external view returns (address){... */\n    tag_7:\n      tag_24\n      0x04\n      dup1\n      calldatasize\n      sub\n      dup2\n      add\n      swap1\n      tag_25\n      swap2\n      swap1\n      tag_21\n      jump\t// in\n    tag_25:\n      tag_26\n      jump\t// in\n    tag_24:\n      mload(0x40)\n      tag_27\n      swap2\n      swap1\n      tag_15\n      jump\t// in\n    tag_27:\n      mload(0x40)\n      dup1\n      swap2\n      sub\n      swap1\n      return\n        /* \"073BuggyProxy.sol\":5083:5214  function changeProxyAdmin(address payable proxy,address _admin) external onlyOwner{... */\n    tag_11:\n        /* \"073BuggyProxy.sol\":5035:5040  owner */\n      0x00\n      dup1\n      sload\n      swap1\n      0x0100\n      exp\n      swap1\n      div\n      0xffffffffffffffffffffffffffffffffffffffff\n      and\n        /* \"073BuggyProxy.sol\":5021:5040  msg.sender == owner */\n      0xffffffffffffffffffffffffffffffffffffffff\n      and\n        /* \"073BuggyProxy.sol\":5021:5031  msg.sender */\n      caller\n        /* \"073BuggyProxy.sol\":5021:5040  msg.sender == owner */\n      0xffffffffffffffffffffffffffffffffffffffff\n      and\n      eq\n        /* \"073BuggyProxy.sol\":5013:5059  require(msg.sender == owner, \"not authorized\") */\n      tag_29\n      jumpi\n      mload(0x40)\n      0x08c379a000000000000000000000000000000000000000000000000000000000\n      dup2\n      mstore\n      0x04\n      add\n      tag_30\n      swap1\n      tag_31\n      jump\t// in\n    tag_30:\n      mload(0x40)\n      dup1\n      swap2\n      sub\n      swap1\n      revert\n    tag_29:\n        /* \"073BuggyProxy.sol\":5181:5186  proxy */\n      dup2\n        /* \"073BuggyProxy.sol\":5175:5199  Proxy(proxy).changeAdmin */\n      0xffffffffffffffffffffffffffffffffffffffff\n      and\n      0x8f283970\n        /* \"073BuggyProxy.sol\":5200:5206  _admin */\n      dup3\n        /* \"073BuggyProxy.sol\":5175:5207  Proxy(proxy).changeAdmin(_admin) */\n      mload(0x40)\n      dup3\n      0xffffffff\n      and\n      0xe0\n      shl\n      dup2\n      mstore\n      0x04\n      add\n      tag_33\n      swap2\n      swap1\n      tag_15\n      jump\t// in\n    tag_33:\n      0x00\n      mload(0x40)\n      dup1\n      dup4\n      sub\n      dup2\n      0x00\n      dup8\n      dup1\n      extcodesize\n      iszero\n      dup1\n      iszero\n      tag_34\n      jumpi\n      0x00\n      dup1\n      revert\n    tag_34:\n      pop\n      gas\n      call\n      iszero\n      dup1\n      iszero\n      tag_36\n      jumpi\n      returndatasize\n      0x00\n      dup1\n      returndatacopy\n      revert(0x00, returndatasize)\n    tag_36:\n      pop\n      pop\n      pop\n      pop\n        /* \"073BuggyProxy.sol\":5083:5214  function changeProxyAdmin(address payable proxy,address _admin) external onlyOwner{... */\n      pop\n      pop\n      jump\t// out\n        /* \"073BuggyProxy.sol\":4901:4922  address public  owner */\n    tag_13:\n      0x00\n      dup1\n      sload\n      swap1\n      0x0100\n      exp\n      swap1\n      div\n      0xffffffffffffffffffffffffffffffffffffffff\n      and\n      dup2\n      jump\t// out\n        /* \"073BuggyProxy.sol\":5220:5368  function upgrade(address payable proxy,address _implentmetation) external onlyOwner{... */\n    tag_18:\n        /* \"073BuggyProxy.sol\":5035:5040  owner */\n      0x00\n      dup1\n      sload\n      swap1\n      0x0100\n      exp\n      swap1\n      div\n      0xffffffffffffffffffffffffffffffffffffffff\n      and\n        /* \"073BuggyProxy.sol\":5021:5040  msg.sender == owner */\n      0xffffffffffffffffffffffffffffffffffffffff\n      and\n        /* \"073BuggyProxy.sol\":5021:5031  msg.sender */\n      caller\n        /* \"073BuggyProxy.sol\":5021:5040  msg.sender == owner */\n      0xffffffffffffffffffffffffffffffffffffffff\n      and\n      eq\n        /* \"073BuggyProxy.sol\":5013:5059  require(msg.sender == owner, \"not authorized\") */\n      tag_38\n      jumpi\n      mload(0x40)\n      0x08c379a000000000000000000000000000000000000000000000000000000000\n      dup2\n      mstore\n      0x04\n      add\n      tag_39\n      swap1\n      tag_31\n      jump\t// in\n    tag_39:\n      mload(0x40)\n      dup1\n      swap2\n      sub\n      swap1\n      revert\n    tag_38:\n        /* \"073BuggyProxy.sol\":5327:5332  proxy */\n      dup2\n        /* \"073BuggyProxy.sol\":5321:5343  Proxy(proxy).upgradeTo */\n      0xffffffffffffffffffffffffffffffffffffffff\n      and\n      0x3659cfe6\n        /* \"073BuggyProxy.sol\":5344:5360  _implentmetation */\n      dup3\n        /* \"073BuggyProxy.sol\":5321:5361  Proxy(proxy).upgradeTo(_implentmetation) */\n      mload(0x40)\n      dup3\n      0xffffffff\n      and\n      0xe0\n      shl\n      dup2\n      mstore\n      0x04\n      add\n      tag_41\n      swap2\n      swap1\n      tag_15\n      jump\t// in\n    tag_41:\n      0x00\n      mload(0x40)\n      dup1\n      dup4\n      sub\n      dup2\n      0x00\n      dup8\n      dup1\n      extcodesize\n      iszero\n      dup1\n      iszero\n      tag_42\n      jumpi\n      0x00\n      dup1\n      revert\n    tag_42:\n      pop\n      gas\n      call\n      iszero\n      dup1\n      iszero\n      tag_44\n      jumpi\n      returndatasize\n      0x00\n      dup1\n      returndatacopy\n      revert(0x00, returndatasize)\n    tag_44:\n      pop\n      pop\n      pop\n      pop\n        /* \"073BuggyProxy.sol\":5220:5368  function upgrade(address payable proxy,address _implentmetation) external onlyOwner{... */\n      pop\n      pop\n      jump\t// out\n        /* \"073BuggyProxy.sol\":5655:5946  function getProxyImplentmetation(address proxy) external view returns (address){... */\n    tag_22:\n        /* \"073BuggyProxy.sol\":5726:5733  address */\n      0x00\n        /* \"073BuggyProxy.sol\":5746:5753  bool ok */\n      dup1\n        /* \"073BuggyProxy.sol\":5754:5770  bytes memory res */\n      0x00\n        /* \"073BuggyProxy.sol\":5776:5781  proxy */\n      dup4\n        /* \"073BuggyProxy.sol\":5776:5792  proxy.staticcall */\n      0xffffffffffffffffffffffffffffffffffffffff\n      and\n        /* \"073BuggyProxy.sol\":5806:5846  abi.encodeCall(Proxy.implementation ,()) */\n      add(0x24, mload(0x40))\n      mload(0x40)\n      0x20\n      dup2\n      dup4\n      sub\n      sub\n      dup2\n      mstore\n      swap1\n      0x40\n      mstore\n      shl(0xe0, 0x5c60da1b)\n      0x20\n      dup3\n      add\n      dup1\n      mload\n      0xffffffffffffffffffffffffffffffffffffffffffffffffffffffff\n      dup4\n      dup2\n      dup4\n      and\n      or\n      dup4\n      mstore\n      pop\n      pop\n      pop\n      pop\n        /* \"073BuggyProxy.sol\":5776:5856  proxy.staticcall(... */\n      mload(0x40)\n      tag_46\n      swap2\n      swap1\n      tag_47\n      jump\t// in\n    tag_46:\n      0x00\n      mload(0x40)\n      dup1\n      dup4\n      sub\n      dup2\n      dup6\n      gas\n      staticcall\n      swap2\n      pop\n      pop\n      returndatasize\n      dup1\n      0x00\n      dup2\n      eq\n      tag_50\n      jumpi\n      mload(0x40)\n      swap2\n      pop\n      and(add(returndatasize, 0x3f), not(0x1f))\n      dup3\n      add\n      0x40\n      mstore\n      returndatasize\n      dup3\n      mstore\n      returndatasize\n      0x00\n      0x20\n      dup5\n      add\n      returndatacopy\n      jump(tag_49)\n    tag_50:\n      0x60\n      swap2\n      pop\n    tag_49:\n      pop\n        /* \"073BuggyProxy.sol\":5745:5856  (bool ok,bytes memory res) =   proxy.staticcall(... */\n      swap2\n      pop\n      swap2\n      pop\n        /* \"073BuggyProxy.sol\":5874:5876  ok */\n      dup2\n        /* \"073BuggyProxy.sol\":5866:5896  require(ok,\"staticcall error\") */\n      tag_51\n      jumpi\n      mload(0x40)\n      0x08c379a000000000000000000000000000000000000000000000000000000000\n      dup2\n      mstore\n      0x04\n      add\n      tag_52\n      swap1\n      tag_53\n      jump\t// in\n    tag_52:\n      mload(0x40)\n      dup1\n      swap2\n      sub\n      swap1\n      revert\n    tag_51:\n        /* \"073BuggyProxy.sol\":5924:5927  res */\n      dup1\n        /* \"073BuggyProxy.sol\":5913:5939  abi.decode(res,(address) ) */\n      dup1\n      0x20\n      add\n      swap1\n      mload\n      dup2\n      add\n      swap1\n      tag_54\n      swap2\n      swap1\n      tag_55\n      jump\t// in\n    tag_54:\n        /* \"073BuggyProxy.sol\":5906:5939  return abi.decode(res,(address) ) */\n      swap3\n      pop\n      pop\n      pop\n        /* \"073BuggyProxy.sol\":5655:5946  function getProxyImplentmetation(address proxy) external view returns (address){... */\n      swap2\n      swap1\n      pop\n      jump\t// out\n        /* \"073BuggyProxy.sol\":5374:5645  function getProxyAdmin(address proxy) external view returns (address){... */\n    tag_26:\n        /* \"073BuggyProxy.sol\":5435:5442  address */\n      0x00\n        /* \"073BuggyProxy.sol\":5455:5462  bool ok */\n      dup1\n        /* \"073BuggyProxy.sol\":5463:5479  bytes memory res */\n      0x00\n        /* \"073BuggyProxy.sol\":5485:5490  proxy */\n      dup4\n        /* \"073BuggyProxy.sol\":5485:5501  proxy.staticcall */\n      0xffffffffffffffffffffffffffffffffffffffff\n      and\n        /* \"073BuggyProxy.sol\":5515:5545  abi.encodeCall(Proxy.admin,()) */\n      add(0x24, mload(0x40))\n      mload(0x40)\n      0x20\n      dup2\n      dup4\n      sub\n      sub\n      dup2\n      mstore\n      swap1\n      0x40\n      mstore\n      shl(0xe0, 0xf851a440)\n      0x20\n      dup3\n      add\n      dup1\n      mload\n      0xffffffffffffffffffffffffffffffffffffffffffffffffffffffff\n      dup4\n      dup2\n      dup4\n      and\n      or\n      dup4\n      mstore\n      pop\n      pop\n      pop\n      pop\n        /* \"073BuggyProxy.sol\":5485:5555  proxy.staticcall(... */\n      mload(0x40)\n      tag_57\n      swap2\n      swap1\n      tag_47\n      jump\t// in\n    tag_57:\n      0x00\n      mload(0x40)\n      dup1\n      dup4\n      sub\n      dup2\n      dup6\n      gas\n      staticcall\n      swap2\n      pop\n      pop\n      returndatasize\n      dup1\n      0x00\n      dup2\n      eq\n      tag_60\n      jumpi\n      mload(0x40)\n      swap2\n      pop\n      and(add(returndatasize, 0x3f), not(0x1f))\n      dup3\n      add\n      0x40\n      mstore\n      returndatasize\n      dup3\n      mstore\n      returndatasize\n      0x00\n      0x20\n      dup5\n      add\n      returndatacopy\n      jump(tag_59)\n    tag_60:\n      0x60\n      swap2\n      pop\n    tag_59:\n      pop\n        /* \"073BuggyProxy.sol\":5454:5555  (bool ok,bytes memory res) =   proxy.staticcall(... */\n      swap2\n      pop\n      swap2\n      pop\n        /* \"073BuggyProxy.sol\":5573:5575  ok */\n      dup2\n        /* \"073BuggyProxy.sol\":5565:5595  require(ok,\"staticcall error\") */\n      tag_61\n      jumpi\n      mload(0x40)\n      0x08c379a000000000000000000000000000000000000000000000000000000000\n      dup2\n      mstore\n      0x04\n      add\n      tag_62\n      swap1\n      tag_53\n      jump\t// in\n    tag_62:\n      mload(0x40)\n      dup1\n      swap2\n      sub\n      swap1\n      revert\n    tag_61:\n        /* \"073BuggyProxy.sol\":5623:5626  res */\n      dup1\n        /* \"073BuggyProxy.sol\":5612:5638  abi.decode(res,(address) ) */\n      dup1\n      0x20\n      add\n      swap1\n      mload\n      dup2\n      add\n      swap1\n      tag_63\n      swap2\n      swap1\n      tag_55\n      jump\t// in\n    tag_63:\n        /* \"073BuggyProxy.sol\":5605:5638  return abi.decode(res,(address) ) */\n      swap3\n      pop\n      pop\n      pop\n        /* \"073BuggyProxy.sol\":5374:5645  function getProxyAdmin(address proxy) external view returns (address){... */\n      swap2\n      swap1\n      pop\n      jump\t// out\n        /* \"#utility.yul\":88:205   */\n    tag_65:\n        /* \"#utility.yul\":197:198   */\n      0x00\n        /* \"#utility.yul\":194:195   */\n      dup1\n        /* \"#utility.yul\":187:199   */\n      revert\n        /* \"#utility.yul\":334:460   */\n    tag_67:\n        /* \"#utility.yul\":371:378   */\n      0x00\n        /* \"#utility.yul\":411:453   */\n      0xffffffffffffffffffffffffffffffffffffffff\n        /* \"#utility.yul\":404:409   */\n      dup3\n        /* \"#utility.yul\":400:454   */\n      and\n        /* \"#utility.yul\":389:454   */\n      swap1\n      pop\n        /* \"#utility.yul\":334:460   */\n      swap2\n      swap1\n      pop\n      jump\t// out\n        /* \"#utility.yul\":466:570   */\n    tag_68:\n        /* \"#utility.yul\":511:518   */\n      0x00\n        /* \"#utility.yul\":540:564   */\n      tag_91\n        /* \"#utility.yul\":558:563   */\n      dup3\n        /* \"#utility.yul\":540:564   */\n      tag_67\n      jump\t// in\n    tag_91:\n        /* \"#utility.yul\":529:564   */\n      swap1\n      pop\n        /* \"#utility.yul\":466:570   */\n      swap2\n      swap1\n      pop\n      jump\t// out\n        /* \"#utility.yul\":576:714   */\n    tag_69:\n        /* \"#utility.yul\":657:689   */\n      tag_93\n        /* \"#utility.yul\":683:688   */\n      dup2\n        /* \"#utility.yul\":657:689   */\n      tag_68\n      jump\t// in\n    tag_93:\n        /* \"#utility.yul\":650:655   */\n      dup2\n        /* \"#utility.yul\":647:690   */\n      eq\n        /* \"#utility.yul\":637:708   */\n      tag_94\n      jumpi\n        /* \"#utility.yul\":704:705   */\n      0x00\n        /* \"#utility.yul\":701:702   */\n      dup1\n        /* \"#utility.yul\":694:706   */\n      revert\n        /* \"#utility.yul\":637:708   */\n    tag_94:\n        /* \"#utility.yul\":576:714   */\n      pop\n      jump\t// out\n        /* \"#utility.yul\":720:875   */\n    tag_70:\n        /* \"#utility.yul\":774:779   */\n      0x00\n        /* \"#utility.yul\":812:818   */\n      dup2\n        /* \"#utility.yul\":799:819   */\n      calldataload\n        /* \"#utility.yul\":790:819   */\n      swap1\n      pop\n        /* \"#utility.yul\":828:869   */\n      tag_96\n        /* \"#utility.yul\":863:868   */\n      dup2\n        /* \"#utility.yul\":828:869   */\n      tag_69\n      jump\t// in\n    tag_96:\n        /* \"#utility.yul\":720:875   */\n      swap3\n      swap2\n      pop\n      pop\n      jump\t// out\n        /* \"#utility.yul\":881:977   */\n    tag_71:\n        /* \"#utility.yul\":918:925   */\n      0x00\n        /* \"#utility.yul\":947:971   */\n      tag_98\n        /* \"#utility.yul\":965:970   */\n      dup3\n        /* \"#utility.yul\":947:971   */\n      tag_67\n      jump\t// in\n    tag_98:\n        /* \"#utility.yul\":936:971   */\n      swap1\n      pop\n        /* \"#utility.yul\":881:977   */\n      swap2\n      swap1\n      pop\n      jump\t// out\n        /* \"#utility.yul\":983:1105   */\n    tag_72:\n        /* \"#utility.yul\":1056:1080   */\n      tag_100\n        /* \"#utility.yul\":1074:1079   */\n      dup2\n        /* \"#utility.yul\":1056:1080   */\n      tag_71\n      jump\t// in\n    tag_100:\n        /* \"#utility.yul\":1049:1054   */\n      dup2\n        /* \"#utility.yul\":1046:1081   */\n      eq\n        /* \"#utility.yul\":1036:1099   */\n      tag_101\n      jumpi\n        /* \"#utility.yul\":1095:1096   */\n      0x00\n        /* \"#utility.yul\":1092:1093   */\n      dup1\n        /* \"#utility.yul\":1085:1097   */\n      revert\n        /* \"#utility.yul\":1036:1099   */\n    tag_101:\n        /* \"#utility.yul\":983:1105   */\n      pop\n      jump\t// out\n        /* \"#utility.yul\":1111:1250   */\n    tag_73:\n        /* \"#utility.yul\":1157:1162   */\n      0x00\n        /* \"#utility.yul\":1195:1201   */\n      dup2\n        /* \"#utility.yul\":1182:1202   */\n      calldataload\n        /* \"#utility.yul\":1173:1202   */\n      swap1\n      pop\n        /* \"#utility.yul\":1211:1244   */\n      tag_103\n        /* \"#utility.yul\":1238:1243   */\n      dup2\n        /* \"#utility.yul\":1211:1244   */\n      tag_72\n      jump\t// in\n    tag_103:\n        /* \"#utility.yul\":1111:1250   */\n      swap3\n      swap2\n      pop\n      pop\n      jump\t// out\n        /* \"#utility.yul\":1256:1746   */\n    tag_10:\n        /* \"#utility.yul\":1332:1338   */\n      0x00\n        /* \"#utility.yul\":1340:1346   */\n      dup1\n        /* \"#utility.yul\":1389:1391   */\n      0x40\n        /* \"#utility.yul\":1377:1386   */\n      dup4\n        /* \"#utility.yul\":1368:1375   */\n      dup6\n        /* \"#utility.yul\":1364:1387   */\n      sub\n        /* \"#utility.yul\":1360:1392   */\n      slt\n        /* \"#utility.yul\":1357:1476   */\n      iszero\n      tag_105\n      jumpi\n        /* \"#utility.yul\":1395:1474   */\n      tag_106\n      tag_65\n      jump\t// in\n    tag_106:\n        /* \"#utility.yul\":1357:1476   */\n    tag_105:\n        /* \"#utility.yul\":1515:1516   */\n      0x00\n        /* \"#utility.yul\":1540:1601   */\n      tag_107\n        /* \"#utility.yul\":1593:1600   */\n      dup6\n        /* \"#utility.yul\":1584:1590   */\n      dup3\n        /* \"#utility.yul\":1573:1582   */\n      dup7\n        /* \"#utility.yul\":1569:1591   */\n      add\n        /* \"#utility.yul\":1540:1601   */\n      tag_70\n      jump\t// in\n    tag_107:\n        /* \"#utility.yul\":1530:1601   */\n      swap3\n      pop\n        /* \"#utility.yul\":1486:1611   */\n      pop\n        /* \"#utility.yul\":1650:1652   */\n      0x20\n        /* \"#utility.yul\":1676:1729   */\n      tag_108\n        /* \"#utility.yul\":1721:1728   */\n      dup6\n        /* \"#utility.yul\":1712:1718   */\n      dup3\n        /* \"#utility.yul\":1701:1710   */\n      dup7\n        /* \"#utility.yul\":1697:1719   */\n      add\n        /* \"#utility.yul\":1676:1729   */\n      tag_73\n      jump\t// in\n    tag_108:\n        /* \"#utility.yul\":1666:1729   */\n      swap2\n      pop\n        /* \"#utility.yul\":1621:1739   */\n      pop\n        /* \"#utility.yul\":1256:1746   */\n      swap3\n      pop\n      swap3\n      swap1\n      pop\n      jump\t// out\n        /* \"#utility.yul\":1752:1870   */\n    tag_74:\n        /* \"#utility.yul\":1839:1863   */\n      tag_110\n        /* \"#utility.yul\":1857:1862   */\n      dup2\n        /* \"#utility.yul\":1839:1863   */\n      tag_71\n      jump\t// in\n    tag_110:\n        /* \"#utility.yul\":1834:1837   */\n      dup3\n        /* \"#utility.yul\":1827:1864   */\n      mstore\n        /* \"#utility.yul\":1752:1870   */\n      pop\n      pop\n      jump\t// out\n        /* \"#utility.yul\":1876:2098   */\n    tag_15:\n        /* \"#utility.yul\":1969:1973   */\n      0x00\n        /* \"#utility.yul\":2007:2009   */\n      0x20\n        /* \"#utility.yul\":1996:2005   */\n      dup3\n        /* \"#utility.yul\":1992:2010   */\n      add\n        /* \"#utility.yul\":1984:2010   */\n      swap1\n      pop\n        /* \"#utility.yul\":2020:2091   */\n      tag_112\n        /* \"#utility.yul\":2088:2089   */\n      0x00\n        /* \"#utility.yul\":2077:2086   */\n      dup4\n        /* \"#utility.yul\":2073:2090   */\n      add\n        /* \"#utility.yul\":2064:2070   */\n      dup5\n        /* \"#utility.yul\":2020:2091   */\n      tag_74\n      jump\t// in\n    tag_112:\n        /* \"#utility.yul\":1876:2098   */\n      swap3\n      swap2\n      pop\n      pop\n      jump\t// out\n        /* \"#utility.yul\":2104:2433   */\n    tag_21:\n        /* \"#utility.yul\":2163:2169   */\n      0x00\n        /* \"#utility.yul\":2212:2214   */\n      0x20\n        /* \"#utility.yul\":2200:2209   */\n      dup3\n        /* \"#utility.yul\":2191:2198   */\n      dup5\n        /* \"#utility.yul\":2187:2210   */\n      sub\n        /* \"#utility.yul\":2183:2215   */\n      slt\n        /* \"#utility.yul\":2180:2299   */\n      iszero\n      tag_114\n      jumpi\n        /* \"#utility.yul\":2218:2297   */\n      tag_115\n      tag_65\n      jump\t// in\n    tag_115:\n        /* \"#utility.yul\":2180:2299   */\n    tag_114:\n        /* \"#utility.yul\":2338:2339   */\n      0x00\n        /* \"#utility.yul\":2363:2416   */\n      tag_116\n        /* \"#utility.yul\":2408:2415   */\n      dup5\n        /* \"#utility.yul\":2399:2405   */\n      dup3\n        /* \"#utility.yul\":2388:2397   */\n      dup6\n        /* \"#utility.yul\":2384:2406   */\n      add\n        /* \"#utility.yul\":2363:2416   */\n      tag_73\n      jump\t// in\n    tag_116:\n        /* \"#utility.yul\":2353:2416   */\n      swap2\n      pop\n        /* \"#utility.yul\":2309:2426   */\n      pop\n        /* \"#utility.yul\":2104:2433   */\n      swap3\n      swap2\n      pop\n      pop\n      jump\t// out\n        /* \"#utility.yul\":2439:2608   */\n    tag_75:\n        /* \"#utility.yul\":2523:2534   */\n      0x00\n        /* \"#utility.yul\":2557:2563   */\n      dup3\n        /* \"#utility.yul\":2552:2555   */\n      dup3\n        /* \"#utility.yul\":2545:2564   */\n      mstore\n        /* \"#utility.yul\":2597:2601   */\n      0x20\n        /* \"#utility.yul\":2592:2595   */\n      dup3\n        /* \"#utility.yul\":2588:2602   */\n      add\n        /* \"#utility.yul\":2573:2602   */\n      swap1\n      pop\n        /* \"#utility.yul\":2439:2608   */\n      swap3\n      swap2\n      pop\n      pop\n      jump\t// out\n        /* \"#utility.yul\":2614:2778   */\n    tag_76:\n        /* \"#utility.yul\":2754:2770   */\n      0x6e6f7420617574686f72697a6564000000000000000000000000000000000000\n        /* \"#utility.yul\":2750:2751   */\n      0x00\n        /* \"#utility.yul\":2742:2748   */\n      dup3\n        /* \"#utility.yul\":2738:2752   */\n      add\n        /* \"#utility.yul\":2731:2771   */\n      mstore\n        /* \"#utility.yul\":2614:2778   */\n      pop\n      jump\t// out\n        /* \"#utility.yul\":2784:3150   */\n    tag_77:\n        /* \"#utility.yul\":2926:2929   */\n      0x00\n        /* \"#utility.yul\":2947:3014   */\n      tag_120\n        /* \"#utility.yul\":3011:3013   */\n      0x0e\n        /* \"#utility.yul\":3006:3009   */\n      dup4\n        /* \"#utility.yul\":2947:3014   */\n      tag_75\n      jump\t// in\n    tag_120:\n        /* \"#utility.yul\":2940:3014   */\n      swap2\n      pop\n        /* \"#utility.yul\":3023:3116   */\n      tag_121\n        /* \"#utility.yul\":3112:3115   */\n      dup3\n        /* \"#utility.yul\":3023:3116   */\n      tag_76\n      jump\t// in\n    tag_121:\n        /* \"#utility.yul\":3141:3143   */\n      0x20\n        /* \"#utility.yul\":3136:3139   */\n      dup3\n        /* \"#utility.yul\":3132:3144   */\n      add\n        /* \"#utility.yul\":3125:3144   */\n      swap1\n      pop\n        /* \"#utility.yul\":2784:3150   */\n      swap2\n      swap1\n      pop\n      jump\t// out\n        /* \"#utility.yul\":3156:3575   */\n    tag_31:\n        /* \"#utility.yul\":3322:3326   */\n      0x00\n        /* \"#utility.yul\":3360:3362   */\n      0x20\n        /* \"#utility.yul\":3349:3358   */\n      dup3\n        /* \"#utility.yul\":3345:3363   */\n      add\n        /* \"#utility.yul\":3337:3363   */\n      swap1\n      pop\n        /* \"#utility.yul\":3409:3418   */\n      dup2\n        /* \"#utility.yul\":3403:3407   */\n      dup2\n        /* \"#utility.yul\":3399:3419   */\n      sub\n        /* \"#utility.yul\":3395:3396   */\n      0x00\n        /* \"#utility.yul\":3384:3393   */\n      dup4\n        /* \"#utility.yul\":3380:3397   */\n      add\n        /* \"#utility.yul\":3373:3420   */\n      mstore\n        /* \"#utility.yul\":3437:3568   */\n      tag_123\n        /* \"#utility.yul\":3563:3567   */\n      dup2\n        /* \"#utility.yul\":3437:3568   */\n      tag_77\n      jump\t// in\n    tag_123:\n        /* \"#utility.yul\":3429:3568   */\n      swap1\n      pop\n        /* \"#utility.yul\":3156:3575   */\n      swap2\n      swap1\n      pop\n      jump\t// out\n        /* \"#utility.yul\":3581:3679   */\n    tag_78:\n        /* \"#utility.yul\":3632:3638   */\n      0x00\n        /* \"#utility.yul\":3666:3671   */\n      dup2\n        /* \"#utility.yul\":3660:3672   */\n      mload\n        /* \"#utility.yul\":3650:3672   */\n      swap1\n      pop\n        /* \"#utility.yul\":3581:3679   */\n      swap2\n      swap1\n      pop\n      jump\t// out\n        /* \"#utility.yul\":3685:3832   */\n    tag_79:\n        /* \"#utility.yul\":3786:3797   */\n      0x00\n        /* \"#utility.yul\":3823:3826   */\n      dup2\n        /* \"#utility.yul\":3808:3826   */\n      swap1\n      pop\n        /* \"#utility.yul\":3685:3832   */\n      swap3\n      swap2\n      pop\n      pop\n      jump\t// out\n        /* \"#utility.yul\":3838:3977   */\n    tag_80:\n        /* \"#utility.yul\":3927:3933   */\n      dup3\n        /* \"#utility.yul\":3922:3925   */\n      dup2\n        /* \"#utility.yul\":3917:3920   */\n      dup4\n        /* \"#utility.yul\":3911:3934   */\n      mcopy\n        /* \"#utility.yul\":3968:3969   */\n      0x00\n        /* \"#utility.yul\":3959:3965   */\n      dup4\n        /* \"#utility.yul\":3954:3957   */\n      dup4\n        /* \"#utility.yul\":3950:3966   */\n      add\n        /* \"#utility.yul\":3943:3970   */\n      mstore\n        /* \"#utility.yul\":3838:3977   */\n      pop\n      pop\n      pop\n      jump\t// out\n        /* \"#utility.yul\":3983:4369   */\n    tag_81:\n        /* \"#utility.yul\":4087:4090   */\n      0x00\n        /* \"#utility.yul\":4115:4153   */\n      tag_128\n        /* \"#utility.yul\":4147:4152   */\n      dup3\n        /* \"#utility.yul\":4115:4153   */\n      tag_78\n      jump\t// in\n    tag_128:\n        /* \"#utility.yul\":4169:4257   */\n      tag_129\n        /* \"#utility.yul\":4250:4256   */\n      dup2\n        /* \"#utility.yul\":4245:4248   */\n      dup6\n        /* \"#utility.yul\":4169:4257   */\n      tag_79\n      jump\t// in\n    tag_129:\n        /* \"#utility.yul\":4162:4257   */\n      swap4\n      pop\n        /* \"#utility.yul\":4266:4331   */\n      tag_130\n        /* \"#utility.yul\":4324:4330   */\n      dup2\n        /* \"#utility.yul\":4319:4322   */\n      dup6\n        /* \"#utility.yul\":4312:4316   */\n      0x20\n        /* \"#utility.yul\":4305:4310   */\n      dup7\n        /* \"#utility.yul\":4301:4317   */\n      add\n        /* \"#utility.yul\":4266:4331   */\n      tag_80\n      jump\t// in\n    tag_130:\n        /* \"#utility.yul\":4356:4362   */\n      dup1\n        /* \"#utility.yul\":4351:4354   */\n      dup5\n        /* \"#utility.yul\":4347:4363   */\n      add\n        /* \"#utility.yul\":4340:4363   */\n      swap2\n      pop\n        /* \"#utility.yul\":4091:4369   */\n      pop\n        /* \"#utility.yul\":3983:4369   */\n      swap3\n      swap2\n      pop\n      pop\n      jump\t// out\n        /* \"#utility.yul\":4375:4646   */\n    tag_47:\n        /* \"#utility.yul\":4505:4508   */\n      0x00\n        /* \"#utility.yul\":4527:4620   */\n      tag_132\n        /* \"#utility.yul\":4616:4619   */\n      dup3\n        /* \"#utility.yul\":4607:4613   */\n      dup5\n        /* \"#utility.yul\":4527:4620   */\n      tag_81\n      jump\t// in\n    tag_132:\n        /* \"#utility.yul\":4520:4620   */\n      swap2\n      pop\n        /* \"#utility.yul\":4637:4640   */\n      dup2\n        /* \"#utility.yul\":4630:4640   */\n      swap1\n      pop\n        /* \"#utility.yul\":4375:4646   */\n      swap3\n      swap2\n      pop\n      pop\n      jump\t// out\n        /* \"#utility.yul\":4652:4818   */\n    tag_82:\n        /* \"#utility.yul\":4792:4810   */\n      0x73746174696363616c6c206572726f7200000000000000000000000000000000\n        /* \"#utility.yul\":4788:4789   */\n      0x00\n        /* \"#utility.yul\":4780:4786   */\n      dup3\n        /* \"#utility.yul\":4776:4790   */\n      add\n        /* \"#utility.yul\":4769:4811   */\n      mstore\n        /* \"#utility.yul\":4652:4818   */\n      pop\n      jump\t// out\n        /* \"#utility.yul\":4824:5190   */\n    tag_83:\n        /* \"#utility.yul\":4966:4969   */\n      0x00\n        /* \"#utility.yul\":4987:5054   */\n      tag_135\n        /* \"#utility.yul\":5051:5053   */\n      0x10\n        /* \"#utility.yul\":5046:5049   */\n      dup4\n        /* \"#utility.yul\":4987:5054   */\n      tag_75\n      jump\t// in\n    tag_135:\n        /* \"#utility.yul\":4980:5054   */\n      swap2\n      pop\n        /* \"#utility.yul\":5063:5156   */\n      tag_136\n        /* \"#utility.yul\":5152:5155   */\n      dup3\n        /* \"#utility.yul\":5063:5156   */\n      tag_82\n      jump\t// in\n    tag_136:\n        /* \"#utility.yul\":5181:5183   */\n      0x20\n        /* \"#utility.yul\":5176:5179   */\n      dup3\n        /* \"#utility.yul\":5172:5184   */\n      add\n        /* \"#utility.yul\":5165:5184   */\n      swap1\n      pop\n        /* \"#utility.yul\":4824:5190   */\n      swap2\n      swap1\n      pop\n      jump\t// out\n        /* \"#utility.yul\":5196:5615   */\n    tag_53:\n        /* \"#utility.yul\":5362:5366   */\n      0x00\n        /* \"#utility.yul\":5400:5402   */\n      0x20\n        /* \"#utility.yul\":5389:5398   */\n      dup3\n        /* \"#utility.yul\":5385:5403   */\n      add\n        /* \"#utility.yul\":5377:5403   */\n      swap1\n      pop\n        /* \"#utility.yul\":5449:5458   */\n      dup2\n        /* \"#utility.yul\":5443:5447   */\n      dup2\n        /* \"#utility.yul\":5439:5459   */\n      sub\n        /* \"#utility.yul\":5435:5436   */\n      0x00\n        /* \"#utility.yul\":5424:5433   */\n      dup4\n        /* \"#utility.yul\":5420:5437   */\n      add\n        /* \"#utility.yul\":5413:5460   */\n      mstore\n        /* \"#utility.yul\":5477:5608   */\n      tag_138\n        /* \"#utility.yul\":5603:5607   */\n      dup2\n        /* \"#utility.yul\":5477:5608   */\n      tag_83\n      jump\t// in\n    tag_138:\n        /* \"#utility.yul\":5469:5608   */\n      swap1\n      pop\n        /* \"#utility.yul\":5196:5615   */\n      swap2\n      swap1\n      pop\n      jump\t// out\n        /* \"#utility.yul\":5621:5780   */\n    tag_84:\n        /* \"#utility.yul\":5686:5691   */\n      0x00\n        /* \"#utility.yul\":5717:5723   */\n      dup2\n        /* \"#utility.yul\":5711:5724   */\n      mload\n        /* \"#utility.yul\":5702:5724   */\n      swap1\n      pop\n        /* \"#utility.yul\":5733:5774   */\n      tag_140\n        /* \"#utility.yul\":5768:5773   */\n      dup2\n        /* \"#utility.yul\":5733:5774   */\n      tag_69\n      jump\t// in\n    tag_140:\n        /* \"#utility.yul\":5621:5780   */\n      swap3\n      swap2\n      pop\n      pop\n      jump\t// out\n        /* \"#utility.yul\":5786:6153   */\n    tag_55:\n        /* \"#utility.yul\":5864:5870   */\n      0x00\n        /* \"#utility.yul\":5913:5915   */\n      0x20\n        /* \"#utility.yul\":5901:5910   */\n      dup3\n        /* \"#utility.yul\":5892:5899   */\n      dup5\n        /* \"#utility.yul\":5888:5911   */\n      sub\n        /* \"#utility.yul\":5884:5916   */\n      slt\n        /* \"#utility.yul\":5881:6000   */\n      iszero\n      tag_142\n      jumpi\n        /* \"#utility.yul\":5919:5998   */\n      tag_143\n      tag_65\n      jump\t// in\n    tag_143:\n        /* \"#utility.yul\":5881:6000   */\n    tag_142:\n        /* \"#utility.yul\":6039:6040   */\n      0x00\n        /* \"#utility.yul\":6064:6136   */\n      tag_144\n        /* \"#utility.yul\":6128:6135   */\n      dup5\n        /* \"#utility.yul\":6119:6125   */\n      dup3\n        /* \"#utility.yul\":6108:6117   */\n      dup6\n        /* \"#utility.yul\":6104:6126   */\n      add\n        /* \"#utility.yul\":6064:6136   */\n      tag_84\n      jump\t// in\n    tag_144:\n        /* \"#utility.yul\":6054:6136   */\n      swap2\n      pop\n        /* \"#utility.yul\":6010:6146   */\n      pop\n        /* \"#utility.yul\":5786:6153   */\n      swap3\n      swap2\n      pop\n      pop\n      jump\t// out\n\n    auxdata: 0xa2646970667358221220b2c9cd6024b7c8a915ac94074cbbefbad13efe0b46bbd60fcf9be7d27033edd864736f6c634300081a0033\n}\n",
				"bytecode": {
					"linkReferences": {},
					"object": "6080604052348015600e575f80fd5b50335f806101000a81548173ffffffffffffffffffffffffffffffffffffffff021916908373ffffffffffffffffffffffffffffffffffffffff1602179055506108298061005b5f395ff3fe608060405234801561000f575f80fd5b5060043610610055575f3560e01c80637eff275e146100595780638da5cb5b1461007557806399a88ec414610093578063e51cf692146100af578063f3b7dead146100df575b5f80fd5b610073600480360381019061006e91906105db565b61010f565b005b61007d610206565b60405161008a9190610628565b60405180910390f35b6100ad60048036038101906100a891906105db565b610229565b005b6100c960048036038101906100c49190610641565b610320565b6040516100d69190610628565b60405180910390f35b6100f960048036038101906100f49190610641565b610431565b6040516101069190610628565b60405180910390f35b5f8054906101000a900473ffffffffffffffffffffffffffffffffffffffff1673ffffffffffffffffffffffffffffffffffffffff163373ffffffffffffffffffffffffffffffffffffffff161461019c576040517f08c379a0000000000000000000000000000000000000000000000000000000008152600401610193906106c6565b60405180910390fd5b8173ffffffffffffffffffffffffffffffffffffffff16638f283970826040518263ffffffff1660e01b81526004016101d59190610628565b5f604051808303815f87803b1580156101ec575f80fd5b505af11580156101fe573d5f803e3d5ffd5b505050505050565b5f8054906101000a900473ffffffffffffffffffffffffffffffffffffffff1681565b5f8054906101000a900473ffffffffffffffffffffffffffffffffffffffff1673ffffffffffffffffffffffffffffffffffffffff163373ffffffffffffffffffffffffffffffffffffffff16146102b6576040517f08c379a00000000000000000000000000000000000000000000000000000000081526004016102ad906106c6565b60405180910390fd5b8173ffffffffffffffffffffffffffffffffffffffff16633659cfe6826040518263ffffffff1660e01b81526004016102ef9190610628565b5f604051808303815f87803b158015610306575f80fd5b505af1158015610318573d5f803e3d5ffd5b505050505050565b5f805f8373ffffffffffffffffffffffffffffffffffffffff16604051602401604051602081830303815290604052635c60da1b60e01b6020820180517bffffffffffffffffffffffffffffffffffffffffffffffffffffffff83818316178352505050506040516103929190610736565b5f60405180830381855afa9150503d805f81146103ca576040519150601f19603f3d011682016040523d82523d5f602084013e6103cf565b606091505b509150915081610414576040517f08c379a000000000000000000000000000000000000000000000000000000000815260040161040b90610796565b60405180910390fd5b8080602001905181019061042891906107c8565b92505050919050565b5f805f8373ffffffffffffffffffffffffffffffffffffffff1660405160240160405160208183030381529060405263f851a44060e01b6020820180517bffffffffffffffffffffffffffffffffffffffffffffffffffffffff83818316178352505050506040516104a39190610736565b5f60405180830381855afa9150503d805f81146104db576040519150601f19603f3d011682016040523d82523d5f602084013e6104e0565b606091505b509150915081610525576040517f08c379a000000000000000000000000000000000000000000000000000000000815260040161051c90610796565b60405180910390fd5b8080602001905181019061053991906107c8565b92505050919050565b5f80fd5b5f73ffffffffffffffffffffffffffffffffffffffff82169050919050565b5f61056f82610546565b9050919050565b61057f81610565565b8114610589575f80fd5b50565b5f8135905061059a81610576565b92915050565b5f6105aa82610546565b9050919050565b6105ba816105a0565b81146105c4575f80fd5b50565b5f813590506105d5816105b1565b92915050565b5f80604083850312156105f1576105f0610542565b5b5f6105fe8582860161058c565b925050602061060f858286016105c7565b9150509250929050565b610622816105a0565b82525050565b5f60208201905061063b5f830184610619565b92915050565b5f6020828403121561065657610655610542565b5b5f610663848285016105c7565b91505092915050565b5f82825260208201905092915050565b7f6e6f7420617574686f72697a65640000000000000000000000000000000000005f82015250565b5f6106b0600e8361066c565b91506106bb8261067c565b602082019050919050565b5f6020820190508181035f8301526106dd816106a4565b9050919050565b5f81519050919050565b5f81905092915050565b8281835e5f83830152505050565b5f610710826106e4565b61071a81856106ee565b935061072a8185602086016106f8565b80840191505092915050565b5f6107418284610706565b915081905092915050565b7f73746174696363616c6c206572726f72000000000000000000000000000000005f82015250565b5f61078060108361066c565b915061078b8261074c565b602082019050919050565b5f6020820190508181035f8301526107ad81610774565b9050919050565b5f815190506107c281610576565b92915050565b5f602082840312156107dd576107dc610542565b5b5f6107ea848285016107b4565b9150509291505056fea2646970667358221220b2c9cd6024b7c8a915ac94074cbbefbad13efe0b46bbd60fcf9be7d27033edd864736f6c634300081a0033",
					"opcodes": "PUSH1 0x80 PUSH1 0x40 MSTORE CALLVALUE DUP1 ISZERO PUSH1 0xE JUMPI PUSH0 DUP1 REVERT JUMPDEST POP CALLER PUSH0 DUP1 PUSH2 0x100 EXP DUP2 SLOAD DUP2 PUSH20 0xFFFFFFFFFFFFFFFFFFFFFFFFFFFFFFFFFFFFFFFF MUL NOT AND SWAP1 DUP4 PUSH20 0xFFFFFFFFFFFFFFFFFFFFFFFFFFFFFFFFFFFFFFFF AND MUL OR SWAP1 SSTORE POP PUSH2 0x829 DUP1 PUSH2 0x5B PUSH0 CODECOPY PUSH0 RETURN INVALID PUSH1 0x80 PUSH1 0x40 MSTORE CALLVALUE DUP1 ISZERO PUSH2 0xF JUMPI PUSH0 DUP1 REVERT JUMPDEST POP PUSH1 0x4 CALLDATASIZE LT PUSH2 0x55 JUMPI PUSH0 CALLDATALOAD PUSH1 0xE0 SHR DUP1 PUSH4 0x7EFF275E EQ PUSH2 0x59 JUMPI DUP1 PUSH4 0x8DA5CB5B EQ PUSH2 0x75 JUMPI DUP1 PUSH4 0x99A88EC4 EQ PUSH2 0x93 JUMPI DUP1 PUSH4 0xE51CF692 EQ PUSH2 0xAF JUMPI DUP1 PUSH4 0xF3B7DEAD EQ PUSH2 0xDF JUMPI JUMPDEST PUSH0 DUP1 REVERT JUMPDEST PUSH2 0x73 PUSH1 0x4 DUP1 CALLDATASIZE SUB DUP2 ADD SWAP1 PUSH2 0x6E SWAP2 SWAP1 PUSH2 0x5DB JUMP JUMPDEST PUSH2 0x10F JUMP JUMPDEST STOP JUMPDEST PUSH2 0x7D PUSH2 0x206 JUMP JUMPDEST PUSH1 0x40 MLOAD PUSH2 0x8A SWAP2 SWAP1 PUSH2 0x628 JUMP JUMPDEST PUSH1 0x40 MLOAD DUP1 SWAP2 SUB SWAP1 RETURN JUMPDEST PUSH2 0xAD PUSH1 0x4 DUP1 CALLDATASIZE SUB DUP2 ADD SWAP1 PUSH2 0xA8 SWAP2 SWAP1 PUSH2 0x5DB JUMP JUMPDEST PUSH2 0x229 JUMP JUMPDEST STOP JUMPDEST PUSH2 0xC9 PUSH1 0x4 DUP1 CALLDATASIZE SUB DUP2 ADD SWAP1 PUSH2 0xC4 SWAP2 SWAP1 PUSH2 0x641 JUMP JUMPDEST PUSH2 0x320 JUMP JUMPDEST PUSH1 0x40 MLOAD PUSH2 0xD6 SWAP2 SWAP1 PUSH2 0x628 JUMP JUMPDEST PUSH1 0x40 MLOAD DUP1 SWAP2 SUB SWAP1 RETURN JUMPDEST PUSH2 0xF9 PUSH1 0x4 DUP1 CALLDATASIZE SUB DUP2 ADD SWAP1 PUSH2 0xF4 SWAP2 SWAP1 PUSH2 0x641 JUMP JUMPDEST PUSH2 0x431 JUMP JUMPDEST PUSH1 0x40 MLOAD PUSH2 0x106 SWAP2 SWAP1 PUSH2 0x628 JUMP JUMPDEST PUSH1 0x40 MLOAD DUP1 SWAP2 SUB SWAP1 RETURN JUMPDEST PUSH0 DUP1 SLOAD SWAP1 PUSH2 0x100 EXP SWAP1 DIV PUSH20 0xFFFFFFFFFFFFFFFFFFFFFFFFFFFFFFFFFFFFFFFF AND PUSH20 0xFFFFFFFFFFFFFFFFFFFFFFFFFFFFFFFFFFFFFFFF AND CALLER PUSH20 0xFFFFFFFFFFFFFFFFFFFFFFFFFFFFFFFFFFFFFFFF AND EQ PUSH2 0x19C JUMPI PUSH1 0x40 MLOAD PUSH32 0x8C379A000000000000000000000000000000000000000000000000000000000 DUP2 MSTORE PUSH1 0x4 ADD PUSH2 0x193 SWAP1 PUSH2 0x6C6 JUMP JUMPDEST PUSH1 0x40 MLOAD DUP1 SWAP2 SUB SWAP1 REVERT JUMPDEST DUP2 PUSH20 0xFFFFFFFFFFFFFFFFFFFFFFFFFFFFFFFFFFFFFFFF AND PUSH4 0x8F283970 DUP3 PUSH1 0x40 MLOAD DUP3 PUSH4 0xFFFFFFFF AND PUSH1 0xE0 SHL DUP2 MSTORE PUSH1 0x4 ADD PUSH2 0x1D5 SWAP2 SWAP1 PUSH2 0x628 JUMP JUMPDEST PUSH0 PUSH1 0x40 MLOAD DUP1 DUP4 SUB DUP2 PUSH0 DUP8 DUP1 EXTCODESIZE ISZERO DUP1 ISZERO PUSH2 0x1EC JUMPI PUSH0 DUP1 REVERT JUMPDEST POP GAS CALL ISZERO DUP1 ISZERO PUSH2 0x1FE JUMPI RETURNDATASIZE PUSH0 DUP1 RETURNDATACOPY RETURNDATASIZE PUSH0 REVERT JUMPDEST POP POP POP POP POP POP JUMP JUMPDEST PUSH0 DUP1 SLOAD SWAP1 PUSH2 0x100 EXP SWAP1 DIV PUSH20 0xFFFFFFFFFFFFFFFFFFFFFFFFFFFFFFFFFFFFFFFF AND DUP2 JUMP JUMPDEST PUSH0 DUP1 SLOAD SWAP1 PUSH2 0x100 EXP SWAP1 DIV PUSH20 0xFFFFFFFFFFFFFFFFFFFFFFFFFFFFFFFFFFFFFFFF AND PUSH20 0xFFFFFFFFFFFFFFFFFFFFFFFFFFFFFFFFFFFFFFFF AND CALLER PUSH20 0xFFFFFFFFFFFFFFFFFFFFFFFFFFFFFFFFFFFFFFFF AND EQ PUSH2 0x2B6 JUMPI PUSH1 0x40 MLOAD PUSH32 0x8C379A000000000000000000000000000000000000000000000000000000000 DUP2 MSTORE PUSH1 0x4 ADD PUSH2 0x2AD SWAP1 PUSH2 0x6C6 JUMP JUMPDEST PUSH1 0x40 MLOAD DUP1 SWAP2 SUB SWAP1 REVERT JUMPDEST DUP2 PUSH20 0xFFFFFFFFFFFFFFFFFFFFFFFFFFFFFFFFFFFFFFFF AND PUSH4 0x3659CFE6 DUP3 PUSH1 0x40 MLOAD DUP3 PUSH4 0xFFFFFFFF AND PUSH1 0xE0 SHL DUP2 MSTORE PUSH1 0x4 ADD PUSH2 0x2EF SWAP2 SWAP1 PUSH2 0x628 JUMP JUMPDEST PUSH0 PUSH1 0x40 MLOAD DUP1 DUP4 SUB DUP2 PUSH0 DUP8 DUP1 EXTCODESIZE ISZERO DUP1 ISZERO PUSH2 0x306 JUMPI PUSH0 DUP1 REVERT JUMPDEST POP GAS CALL ISZERO DUP1 ISZERO PUSH2 0x318 JUMPI RETURNDATASIZE PUSH0 DUP1 RETURNDATACOPY RETURNDATASIZE PUSH0 REVERT JUMPDEST POP POP POP POP POP POP JUMP JUMPDEST PUSH0 DUP1 PUSH0 DUP4 PUSH20 0xFFFFFFFFFFFFFFFFFFFFFFFFFFFFFFFFFFFFFFFF AND PUSH1 0x40 MLOAD PUSH1 0x24 ADD PUSH1 0x40 MLOAD PUSH1 0x20 DUP2 DUP4 SUB SUB DUP2 MSTORE SWAP1 PUSH1 0x40 MSTORE PUSH4 0x5C60DA1B PUSH1 0xE0 SHL PUSH1 0x20 DUP3 ADD DUP1 MLOAD PUSH28 0xFFFFFFFFFFFFFFFFFFFFFFFFFFFFFFFFFFFFFFFFFFFFFFFFFFFFFFFF DUP4 DUP2 DUP4 AND OR DUP4 MSTORE POP POP POP POP PUSH1 0x40 MLOAD PUSH2 0x392 SWAP2 SWAP1 PUSH2 0x736 JUMP JUMPDEST PUSH0 PUSH1 0x40 MLOAD DUP1 DUP4 SUB DUP2 DUP6 GAS STATICCALL SWAP2 POP POP RETURNDATASIZE DUP1 PUSH0 DUP2 EQ PUSH2 0x3CA JUMPI PUSH1 0x40 MLOAD SWAP2 POP PUSH1 0x1F NOT PUSH1 0x3F RETURNDATASIZE ADD AND DUP3 ADD PUSH1 0x40 MSTORE RETURNDATASIZE DUP3 MSTORE RETURNDATASIZE PUSH0 PUSH1 0x20 DUP5 ADD RETURNDATACOPY PUSH2 0x3CF JUMP JUMPDEST PUSH1 0x60 SWAP2 POP JUMPDEST POP SWAP2 POP SWAP2 POP DUP2 PUSH2 0x414 JUMPI PUSH1 0x40 MLOAD PUSH32 0x8C379A000000000000000000000000000000000000000000000000000000000 DUP2 MSTORE PUSH1 0x4 ADD PUSH2 0x40B SWAP1 PUSH2 0x796 JUMP JUMPDEST PUSH1 0x40 MLOAD DUP1 SWAP2 SUB SWAP1 REVERT JUMPDEST DUP1 DUP1 PUSH1 0x20 ADD SWAP1 MLOAD DUP2 ADD SWAP1 PUSH2 0x428 SWAP2 SWAP1 PUSH2 0x7C8 JUMP JUMPDEST SWAP3 POP POP POP SWAP2 SWAP1 POP JUMP JUMPDEST PUSH0 DUP1 PUSH0 DUP4 PUSH20 0xFFFFFFFFFFFFFFFFFFFFFFFFFFFFFFFFFFFFFFFF AND PUSH1 0x40 MLOAD PUSH1 0x24 ADD PUSH1 0x40 MLOAD PUSH1 0x20 DUP2 DUP4 SUB SUB DUP2 MSTORE SWAP1 PUSH1 0x40 MSTORE PUSH4 0xF851A440 PUSH1 0xE0 SHL PUSH1 0x20 DUP3 ADD DUP1 MLOAD PUSH28 0xFFFFFFFFFFFFFFFFFFFFFFFFFFFFFFFFFFFFFFFFFFFFFFFFFFFFFFFF DUP4 DUP2 DUP4 AND OR DUP4 MSTORE POP POP POP POP PUSH1 0x40 MLOAD PUSH2 0x4A3 SWAP2 SWAP1 PUSH2 0x736 JUMP JUMPDEST PUSH0 PUSH1 0x40 MLOAD DUP1 DUP4 SUB DUP2 DUP6 GAS STATICCALL SWAP2 POP POP RETURNDATASIZE DUP1 PUSH0 DUP2 EQ PUSH2 0x4DB JUMPI PUSH1 0x40 MLOAD SWAP2 POP PUSH1 0x1F NOT PUSH1 0x3F RETURNDATASIZE ADD AND DUP3 ADD PUSH1 0x40 MSTORE RETURNDATASIZE DUP3 MSTORE RETURNDATASIZE PUSH0 PUSH1 0x20 DUP5 ADD RETURNDATACOPY PUSH2 0x4E0 JUMP JUMPDEST PUSH1 0x60 SWAP2 POP JUMPDEST POP SWAP2 POP SWAP2 POP DUP2 PUSH2 0x525 JUMPI PUSH1 0x40 MLOAD PUSH32 0x8C379A000000000000000000000000000000000000000000000000000000000 DUP2 MSTORE PUSH1 0x4 ADD PUSH2 0x51C SWAP1 PUSH2 0x796 JUMP JUMPDEST PUSH1 0x40 MLOAD DUP1 SWAP2 SUB SWAP1 REVERT JUMPDEST DUP1 DUP1 PUSH1 0x20 ADD SWAP1 MLOAD DUP2 ADD SWAP1 PUSH2 0x539 SWAP2 SWAP1 PUSH2 0x7C8 JUMP JUMPDEST SWAP3 POP POP POP SWAP2 SWAP1 POP JUMP JUMPDEST PUSH0 DUP1 REVERT JUMPDEST PUSH0 PUSH20 0xFFFFFFFFFFFFFFFFFFFFFFFFFFFFFFFFFFFFFFFF DUP3 AND SWAP1 POP SWAP2 SWAP1 POP JUMP JUMPDEST PUSH0 PUSH2 0x56F DUP3 PUSH2 0x546 JUMP JUMPDEST SWAP1 POP SWAP2 SWAP1 POP JUMP JUMPDEST PUSH2 0x57F DUP2 PUSH2 0x565 JUMP JUMPDEST DUP2 EQ PUSH2 0x589 JUMPI PUSH0 DUP1 REVERT JUMPDEST POP JUMP JUMPDEST PUSH0 DUP2 CALLDATALOAD SWAP1 POP PUSH2 0x59A DUP2 PUSH2 0x576 JUMP JUMPDEST SWAP3 SWAP2 POP POP JUMP JUMPDEST PUSH0 PUSH2 0x5AA DUP3 PUSH2 0x546 JUMP JUMPDEST SWAP1 POP SWAP2 SWAP1 POP JUMP JUMPDEST PUSH2 0x5BA DUP2 PUSH2 0x5A0 JUMP JUMPDEST DUP2 EQ PUSH2 0x5C4 JUMPI PUSH0 DUP1 REVERT JUMPDEST POP JUMP JUMPDEST PUSH0 DUP2 CALLDATALOAD SWAP1 POP PUSH2 0x5D5 DUP2 PUSH2 0x5B1 JUMP JUMPDEST SWAP3 SWAP2 POP POP JUMP JUMPDEST PUSH0 DUP1 PUSH1 0x40 DUP4 DUP6 SUB SLT ISZERO PUSH2 0x5F1 JUMPI PUSH2 0x5F0 PUSH2 0x542 JUMP JUMPDEST JUMPDEST PUSH0 PUSH2 0x5FE DUP6 DUP3 DUP7 ADD PUSH2 0x58C JUMP JUMPDEST SWAP3 POP POP PUSH1 0x20 PUSH2 0x60F DUP6 DUP3 DUP7 ADD PUSH2 0x5C7 JUMP JUMPDEST SWAP2 POP POP SWAP3 POP SWAP3 SWAP1 POP JUMP JUMPDEST PUSH2 0x622 DUP2 PUSH2 0x5A0 JUMP JUMPDEST DUP3 MSTORE POP POP JUMP JUMPDEST PUSH0 PUSH1 0x20 DUP3 ADD SWAP1 POP PUSH2 0x63B PUSH0 DUP4 ADD DUP5 PUSH2 0x619 JUMP JUMPDEST SWAP3 SWAP2 POP POP JUMP JUMPDEST PUSH0 PUSH1 0x20 DUP3 DUP5 SUB SLT ISZERO PUSH2 0x656 JUMPI PUSH2 0x655 PUSH2 0x542 JUMP JUMPDEST JUMPDEST PUSH0 PUSH2 0x663 DUP5 DUP3 DUP6 ADD PUSH2 0x5C7 JUMP JUMPDEST SWAP2 POP POP SWAP3 SWAP2 POP POP JUMP JUMPDEST PUSH0 DUP3 DUP3 MSTORE PUSH1 0x20 DUP3 ADD SWAP1 POP SWAP3 SWAP2 POP POP JUMP JUMPDEST PUSH32 0x6E6F7420617574686F72697A6564000000000000000000000000000000000000 PUSH0 DUP3 ADD MSTORE POP JUMP JUMPDEST PUSH0 PUSH2 0x6B0 PUSH1 0xE DUP4 PUSH2 0x66C JUMP JUMPDEST SWAP2 POP PUSH2 0x6BB DUP3 PUSH2 0x67C JUMP JUMPDEST PUSH1 0x20 DUP3 ADD SWAP1 POP SWAP2 SWAP1 POP JUMP JUMPDEST PUSH0 PUSH1 0x20 DUP3 ADD SWAP1 POP DUP2 DUP2 SUB PUSH0 DUP4 ADD MSTORE PUSH2 0x6DD DUP2 PUSH2 0x6A4 JUMP JUMPDEST SWAP1 POP SWAP2 SWAP1 POP JUMP JUMPDEST PUSH0 DUP2 MLOAD SWAP1 POP SWAP2 SWAP1 POP JUMP JUMPDEST PUSH0 DUP2 SWAP1 POP SWAP3 SWAP2 POP POP JUMP JUMPDEST DUP3 DUP2 DUP4 MCOPY PUSH0 DUP4 DUP4 ADD MSTORE POP POP POP JUMP JUMPDEST PUSH0 PUSH2 0x710 DUP3 PUSH2 0x6E4 JUMP JUMPDEST PUSH2 0x71A DUP2 DUP6 PUSH2 0x6EE JUMP JUMPDEST SWAP4 POP PUSH2 0x72A DUP2 DUP6 PUSH1 0x20 DUP7 ADD PUSH2 0x6F8 JUMP JUMPDEST DUP1 DUP5 ADD SWAP2 POP POP SWAP3 SWAP2 POP POP JUMP JUMPDEST PUSH0 PUSH2 0x741 DUP3 DUP5 PUSH2 0x706 JUMP JUMPDEST SWAP2 POP DUP2 SWAP1 POP SWAP3 SWAP2 POP POP JUMP JUMPDEST PUSH32 0x73746174696363616C6C206572726F7200000000000000000000000000000000 PUSH0 DUP3 ADD MSTORE POP JUMP JUMPDEST PUSH0 PUSH2 0x780 PUSH1 0x10 DUP4 PUSH2 0x66C JUMP JUMPDEST SWAP2 POP PUSH2 0x78B DUP3 PUSH2 0x74C JUMP JUMPDEST PUSH1 0x20 DUP3 ADD SWAP1 POP SWAP2 SWAP1 POP JUMP JUMPDEST PUSH0 PUSH1 0x20 DUP3 ADD SWAP1 POP DUP2 DUP2 SUB PUSH0 DUP4 ADD MSTORE PUSH2 0x7AD DUP2 PUSH2 0x774 JUMP JUMPDEST SWAP1 POP SWAP2 SWAP1 POP JUMP JUMPDEST PUSH0 DUP2 MLOAD SWAP1 POP PUSH2 0x7C2 DUP2 PUSH2 0x576 JUMP JUMPDEST SWAP3 SWAP2 POP POP JUMP JUMPDEST PUSH0 PUSH1 0x20 DUP3 DUP5 SUB SLT ISZERO PUSH2 0x7DD JUMPI PUSH2 0x7DC PUSH2 0x542 JUMP JUMPDEST JUMPDEST PUSH0 PUSH2 0x7EA DUP5 DUP3 DUP6 ADD PUSH2 0x7B4 JUMP JUMPDEST SWAP2 POP POP SWAP3 SWAP2 POP POP JUMP INVALID LOG2 PUSH5 0x6970667358 0x22 SLT KECCAK256 0xB2 0xC9 0xCD PUSH1 0x24 0xB7 0xC8 0xA9 ISZERO 0xAC SWAP5 SMOD 0x4C 0xBB 0xEF 0xBA 0xD1 RETURNDATACOPY INVALID SIGNEXTEND CHAINID 0xBB 0xD6 0xF 0xCF SWAP12 0xE7 0xD2 PUSH17 0x33EDD864736F6C634300081A0033000000 "
				},
				"gasEstimates": {
					"creation": {
						"codeDepositCost": "417800",
						"executionCost": "24718",
						"totalCost": "442518"
					},
					"external": {
						"changeProxyAdmin(address,address)": "infinite",
						"getProxyAdmin(address)": "infinite",
						"getProxyImplentmetation(address)": "infinite",
						"owner()": "2505",
						"upgrade(address,address)": "infinite"
					}
				},
				"methodIdentifiers": {
					"changeProxyAdmin(address,address)": "7eff275e",
					"getProxyAdmin(address)": "f3b7dead",
					"getProxyImplentmetation(address)": "e51cf692",
					"owner()": "8da5cb5b",
					"upgrade(address,address)": "99a88ec4"
				}
			},
			"storageLayout": {
				"storage": [
					{
						"astId": 301,
						"contract": "073BuggyProxy.sol:ProxyAdmin",
						"label": "owner",
						"offset": 0,
						"slot": "0",
						"type": "t_address"
					}
				],
				"types": {
					"t_address": {
						"encoding": "inplace",
						"label": "address",
						"numberOfBytes": "20"
					}
				}
			},
			"userdoc": {
				"kind": "user",
				"methods": {},
				"version": 1
			}
		}
	}
}