{
	"073BuggyProxy.sol": {
		"TestSlot": {
			"abi": [
				{
					"inputs": [],
					"name": "SLOT",
					"outputs": [
						{
							"internalType": "bytes32",
							"name": "",
							"type": "bytes32"
						}
					],
					"stateMutability": "view",
					"type": "function"
				},
				{
					"inputs": [],
					"name": "getSlot",
					"outputs": [
						{
							"internalType": "address",
							"name": "",
							"type": "address"
						}
					],
					"stateMutability": "view",
					"type": "function"
				},
				{
					"inputs": [
						{
							"internalType": "address",
							"name": "_slot",
							"type": "address"
						}
					],
					"name": "writeSlot",
					"outputs": [],
					"stateMutability": "nonpayable",
					"type": "function"
				}
			],
			"devdoc": {
				"kind": "dev",
				"methods": {},
				"version": 1
			},
			"evm": {
				"assembly": "    /* \"073BuggyProxy.sol\":6210:6520  contract TestSlot{... */\n  mstore(0x40, 0x80)\n  callvalue\n  dup1\n  iszero\n  tag_1\n  jumpi\n  0x00\n  dup1\n  revert\ntag_1:\n  pop\n  dataSize(sub_0)\n  dup1\n  dataOffset(sub_0)\n  0x00\n  codecopy\n  0x00\n  return\nstop\n\nsub_0: assembly {\n        /* \"073BuggyProxy.sol\":6210:6520  contract TestSlot{... */\n      mstore(0x40, 0x80)\n      callvalue\n      dup1\n      iszero\n      tag_1\n      jumpi\n      0x00\n      dup1\n      revert\n    tag_1:\n      pop\n      jumpi(tag_2, lt(calldatasize, 0x04))\n      shr(0xe0, calldataload(0x00))\n      dup1\n      0x6c877c84\n      eq\n      tag_3\n      jumpi\n      dup1\n      0x736e43cc\n      eq\n      tag_4\n      jumpi\n      dup1\n      0x80dee782\n      eq\n      tag_5\n      jumpi\n    tag_2:\n      0x00\n      dup1\n      revert\n        /* \"073BuggyProxy.sol\":6294:6406  function getSlot() external view returns (address){... */\n    tag_3:\n      tag_6\n      tag_7\n      jump\t// in\n    tag_6:\n      mload(0x40)\n      tag_8\n      swap2\n      swap1\n      tag_9\n      jump\t// in\n    tag_8:\n      mload(0x40)\n      dup1\n      swap2\n      sub\n      swap1\n      return\n        /* \"073BuggyProxy.sol\":6234:6287  bytes32 public constant SLOT = keccak256(\"TEST_SLOT\") */\n    tag_4:\n      tag_10\n      tag_11\n      jump\t// in\n    tag_10:\n      mload(0x40)\n      tag_12\n      swap2\n      swap1\n      tag_13\n      jump\t// in\n    tag_12:\n      mload(0x40)\n      dup1\n      swap2\n      sub\n      swap1\n      return\n        /* \"073BuggyProxy.sol\":6412:6518  function writeSlot(address _slot) external {... */\n    tag_5:\n      tag_14\n      0x04\n      dup1\n      calldatasize\n      sub\n      dup2\n      add\n      swap1\n      tag_15\n      swap2\n      swap1\n      tag_16\n      jump\t// in\n    tag_15:\n      tag_17\n      jump\t// in\n    tag_14:\n      stop\n        /* \"073BuggyProxy.sol\":6294:6406  function getSlot() external view returns (address){... */\n    tag_7:\n        /* \"073BuggyProxy.sol\":6336:6343  address */\n      0x00\n        /* \"073BuggyProxy.sol\":6361:6393  StorageSlot.getAddressSlot(SLOT) */\n      tag_19\n        /* \"073BuggyProxy.sol\":6265:6287  keccak256(\"TEST_SLOT\") */\n      0xa7cb26ea17989bb9c5eb391c94c40892dcdc94bb4c381353450910ba80883e1c\n        /* \"073BuggyProxy.sol\":6361:6387  StorageSlot.getAddressSlot */\n      tag_20\n        /* \"073BuggyProxy.sol\":6361:6393  StorageSlot.getAddressSlot(SLOT) */\n      jump\t// in\n    tag_19:\n        /* \"073BuggyProxy.sol\":6361:6399  StorageSlot.getAddressSlot(SLOT).value */\n      0x00\n      add\n      0x00\n      swap1\n      sload\n      swap1\n      0x0100\n      exp\n      swap1\n      div\n      0xffffffffffffffffffffffffffffffffffffffff\n      and\n        /* \"073BuggyProxy.sol\":6354:6399  return StorageSlot.getAddressSlot(SLOT).value */\n      swap1\n      pop\n        /* \"073BuggyProxy.sol\":6294:6406  function getSlot() external view returns (address){... */\n      swap1\n      jump\t// out\n        /* \"073BuggyProxy.sol\":6234:6287  bytes32 public constant SLOT = keccak256(\"TEST_SLOT\") */\n    tag_11:\n        /* \"073BuggyProxy.sol\":6265:6287  keccak256(\"TEST_SLOT\") */\n      0xa7cb26ea17989bb9c5eb391c94c40892dcdc94bb4c381353450910ba80883e1c\n        /* \"073BuggyProxy.sol\":6234:6287  bytes32 public constant SLOT = keccak256(\"TEST_SLOT\") */\n      dup2\n      jump\t// out\n        /* \"073BuggyProxy.sol\":6412:6518  function writeSlot(address _slot) external {... */\n    tag_17:\n        /* \"073BuggyProxy.sol\":6506:6511  _slot */\n      dup1\n        /* \"073BuggyProxy.sol\":6465:6497  StorageSlot.getAddressSlot(SLOT) */\n      tag_22\n        /* \"073BuggyProxy.sol\":6265:6287  keccak256(\"TEST_SLOT\") */\n      0xa7cb26ea17989bb9c5eb391c94c40892dcdc94bb4c381353450910ba80883e1c\n        /* \"073BuggyProxy.sol\":6465:6491  StorageSlot.getAddressSlot */\n      tag_20\n        /* \"073BuggyProxy.sol\":6465:6497  StorageSlot.getAddressSlot(SLOT) */\n      jump\t// in\n    tag_22:\n        /* \"073BuggyProxy.sol\":6465:6503  StorageSlot.getAddressSlot(SLOT).value */\n      0x00\n      add\n      0x00\n        /* \"073BuggyProxy.sol\":6465:6511  StorageSlot.getAddressSlot(SLOT).value = _slot */\n      0x0100\n      exp\n      dup2\n      sload\n      dup2\n      0xffffffffffffffffffffffffffffffffffffffff\n      mul\n      not\n      and\n      swap1\n      dup4\n      0xffffffffffffffffffffffffffffffffffffffff\n      and\n      mul\n      or\n      swap1\n      sstore\n      pop\n        /* \"073BuggyProxy.sol\":6412:6518  function writeSlot(address _slot) external {... */\n      pop\n      jump\t// out\n        /* \"073BuggyProxy.sol\":6062:6206  function getAddressSlot(bytes32 slot) internal pure returns(AddressSlot storage r){... */\n    tag_20:\n        /* \"073BuggyProxy.sol\":6122:6143  AddressSlot storage r */\n      0x00\n        /* \"073BuggyProxy.sol\":6186:6190  slot */\n      dup2\n        /* \"073BuggyProxy.sol\":6176:6190  r.slot := slot */\n      swap1\n      pop\n        /* \"073BuggyProxy.sol\":6062:6206  function getAddressSlot(bytes32 slot) internal pure returns(AddressSlot storage r){... */\n      swap2\n      swap1\n      pop\n      jump\t// out\n        /* \"#utility.yul\":7:133   */\n    tag_24:\n        /* \"#utility.yul\":44:51   */\n      0x00\n        /* \"#utility.yul\":84:126   */\n      0xffffffffffffffffffffffffffffffffffffffff\n        /* \"#utility.yul\":77:82   */\n      dup3\n        /* \"#utility.yul\":73:127   */\n      and\n        /* \"#utility.yul\":62:127   */\n      swap1\n      pop\n        /* \"#utility.yul\":7:133   */\n      swap2\n      swap1\n      pop\n      jump\t// out\n        /* \"#utility.yul\":139:235   */\n    tag_25:\n        /* \"#utility.yul\":176:183   */\n      0x00\n        /* \"#utility.yul\":205:229   */\n      tag_37\n        /* \"#utility.yul\":223:228   */\n      dup3\n        /* \"#utility.yul\":205:229   */\n      tag_24\n      jump\t// in\n    tag_37:\n        /* \"#utility.yul\":194:229   */\n      swap1\n      pop\n        /* \"#utility.yul\":139:235   */\n      swap2\n      swap1\n      pop\n      jump\t// out\n        /* \"#utility.yul\":241:359   */\n    tag_26:\n        /* \"#utility.yul\":328:352   */\n      tag_39\n        /* \"#utility.yul\":346:351   */\n      dup2\n        /* \"#utility.yul\":328:352   */\n      tag_25\n      jump\t// in\n    tag_39:\n        /* \"#utility.yul\":323:326   */\n      dup3\n        /* \"#utility.yul\":316:353   */\n      mstore\n        /* \"#utility.yul\":241:359   */\n      pop\n      pop\n      jump\t// out\n        /* \"#utility.yul\":365:587   */\n    tag_9:\n        /* \"#utility.yul\":458:462   */\n      0x00\n        /* \"#utility.yul\":496:498   */\n      0x20\n        /* \"#utility.yul\":485:494   */\n      dup3\n        /* \"#utility.yul\":481:499   */\n      add\n        /* \"#utility.yul\":473:499   */\n      swap1\n      pop\n        /* \"#utility.yul\":509:580   */\n      tag_41\n        /* \"#utility.yul\":577:578   */\n      0x00\n        /* \"#utility.yul\":566:575   */\n      dup4\n        /* \"#utility.yul\":562:579   */\n      add\n        /* \"#utility.yul\":553:559   */\n      dup5\n        /* \"#utility.yul\":509:580   */\n      tag_26\n      jump\t// in\n    tag_41:\n        /* \"#utility.yul\":365:587   */\n      swap3\n      swap2\n      pop\n      pop\n      jump\t// out\n        /* \"#utility.yul\":593:670   */\n    tag_27:\n        /* \"#utility.yul\":630:637   */\n      0x00\n        /* \"#utility.yul\":659:664   */\n      dup2\n        /* \"#utility.yul\":648:664   */\n      swap1\n      pop\n        /* \"#utility.yul\":593:670   */\n      swap2\n      swap1\n      pop\n      jump\t// out\n        /* \"#utility.yul\":676:794   */\n    tag_28:\n        /* \"#utility.yul\":763:787   */\n      tag_44\n        /* \"#utility.yul\":781:786   */\n      dup2\n        /* \"#utility.yul\":763:787   */\n      tag_27\n      jump\t// in\n    tag_44:\n        /* \"#utility.yul\":758:761   */\n      dup3\n        /* \"#utility.yul\":751:788   */\n      mstore\n        /* \"#utility.yul\":676:794   */\n      pop\n      pop\n      jump\t// out\n        /* \"#utility.yul\":800:1022   */\n    tag_13:\n        /* \"#utility.yul\":893:897   */\n      0x00\n        /* \"#utility.yul\":931:933   */\n      0x20\n        /* \"#utility.yul\":920:929   */\n      dup3\n        /* \"#utility.yul\":916:934   */\n      add\n        /* \"#utility.yul\":908:934   */\n      swap1\n      pop\n        /* \"#utility.yul\":944:1015   */\n      tag_46\n        /* \"#utility.yul\":1012:1013   */\n      0x00\n        /* \"#utility.yul\":1001:1010   */\n      dup4\n        /* \"#utility.yul\":997:1014   */\n      add\n        /* \"#utility.yul\":988:994   */\n      dup5\n        /* \"#utility.yul\":944:1015   */\n      tag_28\n      jump\t// in\n    tag_46:\n        /* \"#utility.yul\":800:1022   */\n      swap3\n      swap2\n      pop\n      pop\n      jump\t// out\n        /* \"#utility.yul\":1109:1226   */\n    tag_30:\n        /* \"#utility.yul\":1218:1219   */\n      0x00\n        /* \"#utility.yul\":1215:1216   */\n      dup1\n        /* \"#utility.yul\":1208:1220   */\n      revert\n        /* \"#utility.yul\":1355:1477   */\n    tag_32:\n        /* \"#utility.yul\":1428:1452   */\n      tag_51\n        /* \"#utility.yul\":1446:1451   */\n      dup2\n        /* \"#utility.yul\":1428:1452   */\n      tag_25\n      jump\t// in\n    tag_51:\n        /* \"#utility.yul\":1421:1426   */\n      dup2\n        /* \"#utility.yul\":1418:1453   */\n      eq\n        /* \"#utility.yul\":1408:1471   */\n      tag_52\n      jumpi\n        /* \"#utility.yul\":1467:1468   */\n      0x00\n        /* \"#utility.yul\":1464:1465   */\n      dup1\n        /* \"#utility.yul\":1457:1469   */\n      revert\n        /* \"#utility.yul\":1408:1471   */\n    tag_52:\n        /* \"#utility.yul\":1355:1477   */\n      pop\n      jump\t// out\n        /* \"#utility.yul\":1483:1622   */\n    tag_33:\n        /* \"#utility.yul\":1529:1534   */\n      0x00\n        /* \"#utility.yul\":1567:1573   */\n      dup2\n        /* \"#utility.yul\":1554:1574   */\n      calldataload\n        /* \"#utility.yul\":1545:1574   */\n      swap1\n      pop\n        /* \"#utility.yul\":1583:1616   */\n      tag_54\n        /* \"#utility.yul\":1610:1615   */\n      dup2\n        /* \"#utility.yul\":1583:1616   */\n      tag_32\n      jump\t// in\n    tag_54:\n        /* \"#utility.yul\":1483:1622   */\n      swap3\n      swap2\n      pop\n      pop\n      jump\t// out\n        /* \"#utility.yul\":1628:1957   */\n    tag_16:\n        /* \"#utility.yul\":1687:1693   */\n      0x00\n        /* \"#utility.yul\":1736:1738   */\n      0x20\n        /* \"#utility.yul\":1724:1733   */\n      dup3\n        /* \"#utility.yul\":1715:1722   */\n      dup5\n        /* \"#utility.yul\":1711:1734   */\n      sub\n        /* \"#utility.yul\":1707:1739   */\n      slt\n        /* \"#utility.yul\":1704:1823   */\n      iszero\n      tag_56\n      jumpi\n        /* \"#utility.yul\":1742:1821   */\n      tag_57\n      tag_30\n      jump\t// in\n    tag_57:\n        /* \"#utility.yul\":1704:1823   */\n    tag_56:\n        /* \"#utility.yul\":1862:1863   */\n      0x00\n        /* \"#utility.yul\":1887:1940   */\n      tag_58\n        /* \"#utility.yul\":1932:1939   */\n      dup5\n        /* \"#utility.yul\":1923:1929   */\n      dup3\n        /* \"#utility.yul\":1912:1921   */\n      dup6\n        /* \"#utility.yul\":1908:1930   */\n      add\n        /* \"#utility.yul\":1887:1940   */\n      tag_33\n      jump\t// in\n    tag_58:\n        /* \"#utility.yul\":1877:1940   */\n      swap2\n      pop\n        /* \"#utility.yul\":1833:1950   */\n      pop\n        /* \"#utility.yul\":1628:1957   */\n      swap3\n      swap2\n      pop\n      pop\n      jump\t// out\n\n    auxdata: 0xa264697066735822122079d50fc88fe0e7afb6dc96252c7035797bf8a8196e00ece751a08dc7bd12628964736f6c634300081a0033\n}\n",
				"bytecode": {
					"linkReferences": {},
					"object": "6080604052348015600e575f80fd5b5061029d8061001c5f395ff3fe608060405234801561000f575f80fd5b506004361061003f575f3560e01c80636c877c8414610043578063736e43cc1461006157806380dee7821461007f575b5f80fd5b61004b61009b565b60405161005891906101c4565b60405180910390f35b6100696100ec565b60405161007691906101f5565b60405180910390f35b6100996004803603810190610094919061023c565b610110565b005b5f6100c57fa7cb26ea17989bb9c5eb391c94c40892dcdc94bb4c381353450910ba80883e1c61017c565b5f015f9054906101000a900473ffffffffffffffffffffffffffffffffffffffff16905090565b7fa7cb26ea17989bb9c5eb391c94c40892dcdc94bb4c381353450910ba80883e1c81565b8061013a7fa7cb26ea17989bb9c5eb391c94c40892dcdc94bb4c381353450910ba80883e1c61017c565b5f015f6101000a81548173ffffffffffffffffffffffffffffffffffffffff021916908373ffffffffffffffffffffffffffffffffffffffff16021790555050565b5f819050919050565b5f73ffffffffffffffffffffffffffffffffffffffff82169050919050565b5f6101ae82610185565b9050919050565b6101be816101a4565b82525050565b5f6020820190506101d75f8301846101b5565b92915050565b5f819050919050565b6101ef816101dd565b82525050565b5f6020820190506102085f8301846101e6565b92915050565b5f80fd5b61021b816101a4565b8114610225575f80fd5b50565b5f8135905061023681610212565b92915050565b5f602082840312156102515761025061020e565b5b5f61025e84828501610228565b9150509291505056fea264697066735822122079d50fc88fe0e7afb6dc96252c7035797bf8a8196e00ece751a08dc7bd12628964736f6c634300081a0033",
					"opcodes": "PUSH1 0x80 PUSH1 0x40 MSTORE CALLVALUE DUP1 ISZERO PUSH1 0xE JUMPI PUSH0 DUP1 REVERT JUMPDEST POP PUSH2 0x29D DUP1 PUSH2 0x1C PUSH0 CODECOPY PUSH0 RETURN INVALID PUSH1 0x80 PUSH1 0x40 MSTORE CALLVALUE DUP1 ISZERO PUSH2 0xF JUMPI PUSH0 DUP1 REVERT JUMPDEST POP PUSH1 0x4 CALLDATASIZE LT PUSH2 0x3F JUMPI PUSH0 CALLDATALOAD PUSH1 0xE0 SHR DUP1 PUSH4 0x6C877C84 EQ PUSH2 0x43 JUMPI DUP1 PUSH4 0x736E43CC EQ PUSH2 0x61 JUMPI DUP1 PUSH4 0x80DEE782 EQ PUSH2 0x7F JUMPI JUMPDEST PUSH0 DUP1 REVERT JUMPDEST PUSH2 0x4B PUSH2 0x9B JUMP JUMPDEST PUSH1 0x40 MLOAD PUSH2 0x58 SWAP2 SWAP1 PUSH2 0x1C4 JUMP JUMPDEST PUSH1 0x40 MLOAD DUP1 SWAP2 SUB SWAP1 RETURN JUMPDEST PUSH2 0x69 PUSH2 0xEC JUMP JUMPDEST PUSH1 0x40 MLOAD PUSH2 0x76 SWAP2 SWAP1 PUSH2 0x1F5 JUMP JUMPDEST PUSH1 0x40 MLOAD DUP1 SWAP2 SUB SWAP1 RETURN JUMPDEST PUSH2 0x99 PUSH1 0x4 DUP1 CALLDATASIZE SUB DUP2 ADD SWAP1 PUSH2 0x94 SWAP2 SWAP1 PUSH2 0x23C JUMP JUMPDEST PUSH2 0x110 JUMP JUMPDEST STOP JUMPDEST PUSH0 PUSH2 0xC5 PUSH32 0xA7CB26EA17989BB9C5EB391C94C40892DCDC94BB4C381353450910BA80883E1C PUSH2 0x17C JUMP JUMPDEST PUSH0 ADD PUSH0 SWAP1 SLOAD SWAP1 PUSH2 0x100 EXP SWAP1 DIV PUSH20 0xFFFFFFFFFFFFFFFFFFFFFFFFFFFFFFFFFFFFFFFF AND SWAP1 POP SWAP1 JUMP JUMPDEST PUSH32 0xA7CB26EA17989BB9C5EB391C94C40892DCDC94BB4C381353450910BA80883E1C DUP2 JUMP JUMPDEST DUP1 PUSH2 0x13A PUSH32 0xA7CB26EA17989BB9C5EB391C94C40892DCDC94BB4C381353450910BA80883E1C PUSH2 0x17C JUMP JUMPDEST PUSH0 ADD PUSH0 PUSH2 0x100 EXP DUP2 SLOAD DUP2 PUSH20 0xFFFFFFFFFFFFFFFFFFFFFFFFFFFFFFFFFFFFFFFF MUL NOT AND SWAP1 DUP4 PUSH20 0xFFFFFFFFFFFFFFFFFFFFFFFFFFFFFFFFFFFFFFFF AND MUL OR SWAP1 SSTORE POP POP JUMP JUMPDEST PUSH0 DUP2 SWAP1 POP SWAP2 SWAP1 POP JUMP JUMPDEST PUSH0 PUSH20 0xFFFFFFFFFFFFFFFFFFFFFFFFFFFFFFFFFFFFFFFF DUP3 AND SWAP1 POP SWAP2 SWAP1 POP JUMP JUMPDEST PUSH0 PUSH2 0x1AE DUP3 PUSH2 0x185 JUMP JUMPDEST SWAP1 POP SWAP2 SWAP1 POP JUMP JUMPDEST PUSH2 0x1BE DUP2 PUSH2 0x1A4 JUMP JUMPDEST DUP3 MSTORE POP POP JUMP JUMPDEST PUSH0 PUSH1 0x20 DUP3 ADD SWAP1 POP PUSH2 0x1D7 PUSH0 DUP4 ADD DUP5 PUSH2 0x1B5 JUMP JUMPDEST SWAP3 SWAP2 POP POP JUMP JUMPDEST PUSH0 DUP2 SWAP1 POP SWAP2 SWAP1 POP JUMP JUMPDEST PUSH2 0x1EF DUP2 PUSH2 0x1DD JUMP JUMPDEST DUP3 MSTORE POP POP JUMP JUMPDEST PUSH0 PUSH1 0x20 DUP3 ADD SWAP1 POP PUSH2 0x208 PUSH0 DUP4 ADD DUP5 PUSH2 0x1E6 JUMP JUMPDEST SWAP3 SWAP2 POP POP JUMP JUMPDEST PUSH0 DUP1 REVERT JUMPDEST PUSH2 0x21B DUP2 PUSH2 0x1A4 JUMP JUMPDEST DUP2 EQ PUSH2 0x225 JUMPI PUSH0 DUP1 REVERT JUMPDEST POP JUMP JUMPDEST PUSH0 DUP2 CALLDATALOAD SWAP1 POP PUSH2 0x236 DUP2 PUSH2 0x212 JUMP JUMPDEST SWAP3 SWAP2 POP POP JUMP JUMPDEST PUSH0 PUSH1 0x20 DUP3 DUP5 SUB SLT ISZERO PUSH2 0x251 JUMPI PUSH2 0x250 PUSH2 0x20E JUMP JUMPDEST JUMPDEST PUSH0 PUSH2 0x25E DUP5 DUP3 DUP6 ADD PUSH2 0x228 JUMP JUMPDEST SWAP2 POP POP SWAP3 SWAP2 POP POP JUMP INVALID LOG2 PUSH5 0x6970667358 0x22 SLT KECCAK256 PUSH26 0xD50FC88FE0E7AFB6DC96252C7035797BF8A8196E00ECE751A08D 0xC7 0xBD SLT PUSH3 0x896473 PUSH16 0x6C634300081A00330000000000000000 "
				},
				"gasEstimates": {
					"creation": {
						"codeDepositCost": "133800",
						"executionCost": "175",
						"totalCost": "133975"
					},
					"external": {
						"SLOT()": "325",
						"getSlot()": "2540",
						"writeSlot(address)": "24784"
					}
				},
				"methodIdentifiers": {
					"SLOT()": "736e43cc",
					"getSlot()": "6c877c84",
					"writeSlot(address)": "80dee782"
				}
			},
			"storageLayout": {
				"storage": [],
				"types": null
			},
			"userdoc": {
				"kind": "user",
				"methods": {},
				"version": 1
			}
		}
	}
}