{
	"052MultiSignWallet.sol": {
		"MultiSignWallet": {
			"abi": [
				{
					"inputs": [
						{
							"internalType": "address[]",
							"name": "_owners",
							"type": "address[]"
						},
						{
							"internalType": "uint256",
							"name": "_needOwnerNum",
							"type": "uint256"
						}
					],
					"stateMutability": "nonpayable",
					"type": "constructor"
				},
				{
					"anonymous": false,
					"inputs": [
						{
							"indexed": true,
							"internalType": "address",
							"name": "owner",
							"type": "address"
						},
						{
							"indexed": true,
							"internalType": "uint256",
							"name": "txId",
							"type": "uint256"
						}
					],
					"name": "Approve",
					"type": "event"
				},
				{
					"anonymous": false,
					"inputs": [
						{
							"indexed": true,
							"internalType": "address",
							"name": "from",
							"type": "address"
						},
						{
							"indexed": false,
							"internalType": "uint256",
							"name": "value",
							"type": "uint256"
						}
					],
					"name": "Deposit",
					"type": "event"
				},
				{
					"anonymous": false,
					"inputs": [
						{
							"indexed": true,
							"internalType": "address",
							"name": "owner",
							"type": "address"
						},
						{
							"indexed": true,
							"internalType": "uint256",
							"name": "txId",
							"type": "uint256"
						}
					],
					"name": "Execute",
					"type": "event"
				},
				{
					"anonymous": false,
					"inputs": [
						{
							"indexed": true,
							"internalType": "address",
							"name": "owner",
							"type": "address"
						},
						{
							"indexed": true,
							"internalType": "uint256",
							"name": "txId",
							"type": "uint256"
						}
					],
					"name": "Revoke",
					"type": "event"
				},
				{
					"anonymous": false,
					"inputs": [
						{
							"indexed": true,
							"internalType": "uint256",
							"name": "txId",
							"type": "uint256"
						}
					],
					"name": "Submit",
					"type": "event"
				},
				{
					"inputs": [
						{
							"internalType": "uint256",
							"name": "_txId",
							"type": "uint256"
						}
					],
					"name": "approve",
					"outputs": [],
					"stateMutability": "nonpayable",
					"type": "function"
				},
				{
					"inputs": [
						{
							"internalType": "uint256",
							"name": "",
							"type": "uint256"
						},
						{
							"internalType": "address",
							"name": "",
							"type": "address"
						}
					],
					"name": "approvedMapping",
					"outputs": [
						{
							"internalType": "bool",
							"name": "",
							"type": "bool"
						}
					],
					"stateMutability": "view",
					"type": "function"
				},
				{
					"inputs": [
						{
							"internalType": "uint256",
							"name": "_txId",
							"type": "uint256"
						}
					],
					"name": "execute",
					"outputs": [],
					"stateMutability": "nonpayable",
					"type": "function"
				},
				{
					"inputs": [
						{
							"internalType": "address",
							"name": "",
							"type": "address"
						}
					],
					"name": "isOwnerMapping",
					"outputs": [
						{
							"internalType": "bool",
							"name": "",
							"type": "bool"
						}
					],
					"stateMutability": "view",
					"type": "function"
				},
				{
					"inputs": [],
					"name": "needOwnerNum",
					"outputs": [
						{
							"internalType": "uint256",
							"name": "",
							"type": "uint256"
						}
					],
					"stateMutability": "view",
					"type": "function"
				},
				{
					"inputs": [
						{
							"internalType": "uint256",
							"name": "",
							"type": "uint256"
						}
					],
					"name": "owners",
					"outputs": [
						{
							"internalType": "address",
							"name": "",
							"type": "address"
						}
					],
					"stateMutability": "view",
					"type": "function"
				},
				{
					"inputs": [
						{
							"internalType": "uint256",
							"name": "_txId",
							"type": "uint256"
						}
					],
					"name": "revoke",
					"outputs": [],
					"stateMutability": "nonpayable",
					"type": "function"
				},
				{
					"inputs": [
						{
							"internalType": "address",
							"name": "_to",
							"type": "address"
						},
						{
							"internalType": "uint256",
							"name": "_value",
							"type": "uint256"
						},
						{
							"internalType": "bytes",
							"name": "_data",
							"type": "bytes"
						}
					],
					"name": "submit",
					"outputs": [],
					"stateMutability": "payable",
					"type": "function"
				},
				{
					"inputs": [
						{
							"internalType": "uint256",
							"name": "",
							"type": "uint256"
						}
					],
					"name": "transactions",
					"outputs": [
						{
							"internalType": "address",
							"name": "to",
							"type": "address"
						},
						{
							"internalType": "bytes",
							"name": "data",
							"type": "bytes"
						},
						{
							"internalType": "bool",
							"name": "executed",
							"type": "bool"
						},
						{
							"internalType": "uint256",
							"name": "amount",
							"type": "uint256"
						}
					],
					"stateMutability": "view",
					"type": "function"
				},
				{
					"stateMutability": "payable",
					"type": "receive"
				}
			],
			"devdoc": {
				"kind": "dev",
				"methods": {},
				"version": 1
			},
			"evm": {
				"assembly": "    /* \"052MultiSignWallet.sol\":57:3589  contract MultiSignWallet{... */\n  mstore(0x40, 0x80)\n    /* \"052MultiSignWallet.sol\":839:1266  constructor(address[] memory _owners,uint _needOwnerNum){... */\n  callvalue\n  dup1\n  iszero\n  tag_1\n  jumpi\n  0x00\n  dup1\n  revert\ntag_1:\n  pop\n  mload(0x40)\n  sub(codesize, bytecodeSize)\n  dup1\n  bytecodeSize\n  dup4\n  codecopy\n  dup2\n  dup2\n  add\n  0x40\n  mstore\n  dup2\n  add\n  swap1\n  tag_2\n  swap2\n  swap1\n  tag_3\n  jump\t// in\ntag_2:\n    /* \"052MultiSignWallet.sol\":1000:1006  uint i */\n  0x00\n    /* \"052MultiSignWallet.sol\":996:1219  for(uint i=0;i< _owners.length;i++){... */\ntag_6:\n    /* \"052MultiSignWallet.sol\":1012:1019  _owners */\n  dup3\n    /* \"052MultiSignWallet.sol\":1012:1026  _owners.length */\n  mload\n    /* \"052MultiSignWallet.sol\":1009:1010  i */\n  dup2\n    /* \"052MultiSignWallet.sol\":1009:1026  i< _owners.length */\n  lt\n    /* \"052MultiSignWallet.sol\":996:1219  for(uint i=0;i< _owners.length;i++){... */\n  iszero\n  tag_7\n  jumpi\n    /* \"052MultiSignWallet.sol\":1045:1058  address owner */\n  0x00\n    /* \"052MultiSignWallet.sol\":1061:1068  _owners */\n  dup4\n    /* \"052MultiSignWallet.sol\":1069:1070  i */\n  dup3\n    /* \"052MultiSignWallet.sol\":1061:1071  _owners[i] */\n  dup2\n  mload\n  dup2\n  lt\n  tag_9\n  jumpi\n  tag_10\n  tag_11\n  jump\t// in\ntag_10:\ntag_9:\n  0x20\n  mul\n  0x20\n  add\n  add\n  mload\n    /* \"052MultiSignWallet.sol\":1045:1071  address owner = _owners[i] */\n  swap1\n  pop\n    /* \"052MultiSignWallet.sol\":1169:1173  true */\n  0x01\n    /* \"052MultiSignWallet.sol\":1145:1159  isOwnerMapping */\n  dup1\n    /* \"052MultiSignWallet.sol\":1145:1166  isOwnerMapping[owner] */\n  0x00\n    /* \"052MultiSignWallet.sol\":1160:1165  owner */\n  dup4\n    /* \"052MultiSignWallet.sol\":1145:1166  isOwnerMapping[owner] */\n  0xffffffffffffffffffffffffffffffffffffffff\n  and\n  0xffffffffffffffffffffffffffffffffffffffff\n  and\n  dup2\n  mstore\n  0x20\n  add\n  swap1\n  dup2\n  mstore\n  0x20\n  add\n  0x00\n  keccak256\n  0x00\n    /* \"052MultiSignWallet.sol\":1145:1173  isOwnerMapping[owner] = true */\n  0x0100\n  exp\n  dup2\n  sload\n  dup2\n  0xff\n  mul\n  not\n  and\n  swap1\n  dup4\n  iszero\n  iszero\n  mul\n  or\n  swap1\n  sstore\n  pop\n    /* \"052MultiSignWallet.sol\":1187:1193  owners */\n  0x00\n    /* \"052MultiSignWallet.sol\":1199:1204  owner */\n  dup2\n    /* \"052MultiSignWallet.sol\":1187:1205  owners.push(owner) */\n  swap1\n  dup1\n  0x01\n  dup2\n  sload\n  add\n  dup1\n  dup3\n  sstore\n  dup1\n  swap2\n  pop\n  pop\n  0x01\n  swap1\n  sub\n  swap1\n  0x00\n  mstore\n  keccak256(0x00, 0x20)\n  add\n  0x00\n  swap1\n  swap2\n  swap1\n  swap2\n  swap1\n  swap2\n  0x0100\n  exp\n  dup2\n  sload\n  dup2\n  0xffffffffffffffffffffffffffffffffffffffff\n  mul\n  not\n  and\n  swap1\n  dup4\n  0xffffffffffffffffffffffffffffffffffffffff\n  and\n  mul\n  or\n  swap1\n  sstore\n  pop\n    /* \"052MultiSignWallet.sol\":1031:1219  {... */\n  pop\n    /* \"052MultiSignWallet.sol\":1027:1030  i++ */\n  dup1\n  dup1\n  0x01\n  add\n  swap2\n  pop\n  pop\n    /* \"052MultiSignWallet.sol\":996:1219  for(uint i=0;i< _owners.length;i++){... */\n  jump(tag_6)\ntag_7:\n  pop\n    /* \"052MultiSignWallet.sol\":1245:1258  _needOwnerNum */\n  dup1\n    /* \"052MultiSignWallet.sol\":1229:1241  needOwnerNum */\n  0x02\n    /* \"052MultiSignWallet.sol\":1229:1258  needOwnerNum  = _needOwnerNum */\n  dup2\n  swap1\n  sstore\n  pop\n    /* \"052MultiSignWallet.sol\":839:1266  constructor(address[] memory _owners,uint _needOwnerNum){... */\n  pop\n  pop\n    /* \"052MultiSignWallet.sol\":57:3589  contract MultiSignWallet{... */\n  jump(tag_13)\n    /* \"#utility.yul\":7:82   */\ntag_14:\n    /* \"#utility.yul\":40:46   */\n  0x00\n    /* \"#utility.yul\":73:75   */\n  0x40\n    /* \"#utility.yul\":67:76   */\n  mload\n    /* \"#utility.yul\":57:76   */\n  swap1\n  pop\n    /* \"#utility.yul\":7:82   */\n  swap1\n  jump\t// out\n    /* \"#utility.yul\":88:205   */\ntag_15:\n    /* \"#utility.yul\":197:198   */\n  0x00\n    /* \"#utility.yul\":194:195   */\n  dup1\n    /* \"#utility.yul\":187:199   */\n  revert\n    /* \"#utility.yul\":211:328   */\ntag_16:\n    /* \"#utility.yul\":320:321   */\n  0x00\n    /* \"#utility.yul\":317:318   */\n  dup1\n    /* \"#utility.yul\":310:322   */\n  revert\n    /* \"#utility.yul\":334:451   */\ntag_17:\n    /* \"#utility.yul\":443:444   */\n  0x00\n    /* \"#utility.yul\":440:441   */\n  dup1\n    /* \"#utility.yul\":433:445   */\n  revert\n    /* \"#utility.yul\":457:559   */\ntag_18:\n    /* \"#utility.yul\":498:504   */\n  0x00\n    /* \"#utility.yul\":549:551   */\n  0x1f\n    /* \"#utility.yul\":545:552   */\n  not\n    /* \"#utility.yul\":540:542   */\n  0x1f\n    /* \"#utility.yul\":533:538   */\n  dup4\n    /* \"#utility.yul\":529:543   */\n  add\n    /* \"#utility.yul\":525:553   */\n  and\n    /* \"#utility.yul\":515:553   */\n  swap1\n  pop\n    /* \"#utility.yul\":457:559   */\n  swap2\n  swap1\n  pop\n  jump\t// out\n    /* \"#utility.yul\":565:745   */\ntag_19:\n    /* \"#utility.yul\":613:690   */\n  0x4e487b7100000000000000000000000000000000000000000000000000000000\n    /* \"#utility.yul\":610:611   */\n  0x00\n    /* \"#utility.yul\":603:691   */\n  mstore\n    /* \"#utility.yul\":710:714   */\n  0x41\n    /* \"#utility.yul\":707:708   */\n  0x04\n    /* \"#utility.yul\":700:715   */\n  mstore\n    /* \"#utility.yul\":734:738   */\n  0x24\n    /* \"#utility.yul\":731:732   */\n  0x00\n    /* \"#utility.yul\":724:739   */\n  revert\n    /* \"#utility.yul\":751:1032   */\ntag_20:\n    /* \"#utility.yul\":834:861   */\n  tag_41\n    /* \"#utility.yul\":856:860   */\n  dup3\n    /* \"#utility.yul\":834:861   */\n  tag_18\n  jump\t// in\ntag_41:\n    /* \"#utility.yul\":826:832   */\n  dup2\n    /* \"#utility.yul\":822:862   */\n  add\n    /* \"#utility.yul\":964:970   */\n  dup2\n    /* \"#utility.yul\":952:962   */\n  dup2\n    /* \"#utility.yul\":949:971   */\n  lt\n    /* \"#utility.yul\":928:946   */\n  0xffffffffffffffff\n    /* \"#utility.yul\":916:926   */\n  dup3\n    /* \"#utility.yul\":913:947   */\n  gt\n    /* \"#utility.yul\":910:972   */\n  or\n    /* \"#utility.yul\":907:995   */\n  iszero\n  tag_42\n  jumpi\n    /* \"#utility.yul\":975:993   */\n  tag_43\n  tag_19\n  jump\t// in\ntag_43:\n    /* \"#utility.yul\":907:995   */\ntag_42:\n    /* \"#utility.yul\":1015:1025   */\n  dup1\n    /* \"#utility.yul\":1011:1013   */\n  0x40\n    /* \"#utility.yul\":1004:1026   */\n  mstore\n    /* \"#utility.yul\":794:1032   */\n  pop\n    /* \"#utility.yul\":751:1032   */\n  pop\n  pop\n  jump\t// out\n    /* \"#utility.yul\":1038:1167   */\ntag_21:\n    /* \"#utility.yul\":1072:1078   */\n  0x00\n    /* \"#utility.yul\":1099:1119   */\n  tag_45\n  tag_14\n  jump\t// in\ntag_45:\n    /* \"#utility.yul\":1089:1119   */\n  swap1\n  pop\n    /* \"#utility.yul\":1128:1161   */\n  tag_46\n    /* \"#utility.yul\":1156:1160   */\n  dup3\n    /* \"#utility.yul\":1148:1154   */\n  dup3\n    /* \"#utility.yul\":1128:1161   */\n  tag_20\n  jump\t// in\ntag_46:\n    /* \"#utility.yul\":1038:1167   */\n  swap2\n  swap1\n  pop\n  jump\t// out\n    /* \"#utility.yul\":1173:1484   */\ntag_22:\n    /* \"#utility.yul\":1250:1254   */\n  0x00\n    /* \"#utility.yul\":1340:1358   */\n  0xffffffffffffffff\n    /* \"#utility.yul\":1332:1338   */\n  dup3\n    /* \"#utility.yul\":1329:1359   */\n  gt\n    /* \"#utility.yul\":1326:1382   */\n  iszero\n  tag_48\n  jumpi\n    /* \"#utility.yul\":1362:1380   */\n  tag_49\n  tag_19\n  jump\t// in\ntag_49:\n    /* \"#utility.yul\":1326:1382   */\ntag_48:\n    /* \"#utility.yul\":1412:1416   */\n  0x20\n    /* \"#utility.yul\":1404:1410   */\n  dup3\n    /* \"#utility.yul\":1400:1417   */\n  mul\n    /* \"#utility.yul\":1392:1417   */\n  swap1\n  pop\n    /* \"#utility.yul\":1472:1476   */\n  0x20\n    /* \"#utility.yul\":1466:1470   */\n  dup2\n    /* \"#utility.yul\":1462:1477   */\n  add\n    /* \"#utility.yul\":1454:1477   */\n  swap1\n  pop\n    /* \"#utility.yul\":1173:1484   */\n  swap2\n  swap1\n  pop\n  jump\t// out\n    /* \"#utility.yul\":1490:1607   */\ntag_23:\n    /* \"#utility.yul\":1599:1600   */\n  0x00\n    /* \"#utility.yul\":1596:1597   */\n  dup1\n    /* \"#utility.yul\":1589:1601   */\n  revert\n    /* \"#utility.yul\":1613:1739   */\ntag_24:\n    /* \"#utility.yul\":1650:1657   */\n  0x00\n    /* \"#utility.yul\":1690:1732   */\n  0xffffffffffffffffffffffffffffffffffffffff\n    /* \"#utility.yul\":1683:1688   */\n  dup3\n    /* \"#utility.yul\":1679:1733   */\n  and\n    /* \"#utility.yul\":1668:1733   */\n  swap1\n  pop\n    /* \"#utility.yul\":1613:1739   */\n  swap2\n  swap1\n  pop\n  jump\t// out\n    /* \"#utility.yul\":1745:1841   */\ntag_25:\n    /* \"#utility.yul\":1782:1789   */\n  0x00\n    /* \"#utility.yul\":1811:1835   */\n  tag_53\n    /* \"#utility.yul\":1829:1834   */\n  dup3\n    /* \"#utility.yul\":1811:1835   */\n  tag_24\n  jump\t// in\ntag_53:\n    /* \"#utility.yul\":1800:1835   */\n  swap1\n  pop\n    /* \"#utility.yul\":1745:1841   */\n  swap2\n  swap1\n  pop\n  jump\t// out\n    /* \"#utility.yul\":1847:1969   */\ntag_26:\n    /* \"#utility.yul\":1920:1944   */\n  tag_55\n    /* \"#utility.yul\":1938:1943   */\n  dup2\n    /* \"#utility.yul\":1920:1944   */\n  tag_25\n  jump\t// in\ntag_55:\n    /* \"#utility.yul\":1913:1918   */\n  dup2\n    /* \"#utility.yul\":1910:1945   */\n  eq\n    /* \"#utility.yul\":1900:1963   */\n  tag_56\n  jumpi\n    /* \"#utility.yul\":1959:1960   */\n  0x00\n    /* \"#utility.yul\":1956:1957   */\n  dup1\n    /* \"#utility.yul\":1949:1961   */\n  revert\n    /* \"#utility.yul\":1900:1963   */\ntag_56:\n    /* \"#utility.yul\":1847:1969   */\n  pop\n  jump\t// out\n    /* \"#utility.yul\":1975:2118   */\ntag_27:\n    /* \"#utility.yul\":2032:2037   */\n  0x00\n    /* \"#utility.yul\":2063:2069   */\n  dup2\n    /* \"#utility.yul\":2057:2070   */\n  mload\n    /* \"#utility.yul\":2048:2070   */\n  swap1\n  pop\n    /* \"#utility.yul\":2079:2112   */\n  tag_58\n    /* \"#utility.yul\":2106:2111   */\n  dup2\n    /* \"#utility.yul\":2079:2112   */\n  tag_26\n  jump\t// in\ntag_58:\n    /* \"#utility.yul\":1975:2118   */\n  swap3\n  swap2\n  pop\n  pop\n  jump\t// out\n    /* \"#utility.yul\":2141:2873   */\ntag_28:\n    /* \"#utility.yul\":2248:2253   */\n  0x00\n    /* \"#utility.yul\":2273:2354   */\n  tag_60\n    /* \"#utility.yul\":2289:2353   */\n  tag_61\n    /* \"#utility.yul\":2346:2352   */\n  dup5\n    /* \"#utility.yul\":2289:2353   */\n  tag_22\n  jump\t// in\ntag_61:\n    /* \"#utility.yul\":2273:2354   */\n  tag_21\n  jump\t// in\ntag_60:\n    /* \"#utility.yul\":2264:2354   */\n  swap1\n  pop\n    /* \"#utility.yul\":2374:2379   */\n  dup1\n    /* \"#utility.yul\":2403:2409   */\n  dup4\n    /* \"#utility.yul\":2396:2401   */\n  dup3\n    /* \"#utility.yul\":2389:2410   */\n  mstore\n    /* \"#utility.yul\":2437:2441   */\n  0x20\n    /* \"#utility.yul\":2430:2435   */\n  dup3\n    /* \"#utility.yul\":2426:2442   */\n  add\n    /* \"#utility.yul\":2419:2442   */\n  swap1\n  pop\n    /* \"#utility.yul\":2490:2494   */\n  0x20\n    /* \"#utility.yul\":2482:2488   */\n  dup5\n    /* \"#utility.yul\":2478:2495   */\n  mul\n    /* \"#utility.yul\":2470:2476   */\n  dup4\n    /* \"#utility.yul\":2466:2496   */\n  add\n    /* \"#utility.yul\":2519:2522   */\n  dup6\n    /* \"#utility.yul\":2511:2517   */\n  dup2\n    /* \"#utility.yul\":2508:2523   */\n  gt\n    /* \"#utility.yul\":2505:2627   */\n  iszero\n  tag_62\n  jumpi\n    /* \"#utility.yul\":2538:2617   */\n  tag_63\n  tag_23\n  jump\t// in\ntag_63:\n    /* \"#utility.yul\":2505:2627   */\ntag_62:\n    /* \"#utility.yul\":2653:2659   */\n  dup4\n    /* \"#utility.yul\":2636:2867   */\ntag_64:\n    /* \"#utility.yul\":2670:2676   */\n  dup2\n    /* \"#utility.yul\":2665:2668   */\n  dup2\n    /* \"#utility.yul\":2662:2677   */\n  lt\n    /* \"#utility.yul\":2636:2867   */\n  iszero\n  tag_66\n  jumpi\n    /* \"#utility.yul\":2745:2748   */\n  dup1\n    /* \"#utility.yul\":2774:2822   */\n  tag_67\n    /* \"#utility.yul\":2818:2821   */\n  dup9\n    /* \"#utility.yul\":2806:2816   */\n  dup3\n    /* \"#utility.yul\":2774:2822   */\n  tag_27\n  jump\t// in\ntag_67:\n    /* \"#utility.yul\":2769:2772   */\n  dup5\n    /* \"#utility.yul\":2762:2823   */\n  mstore\n    /* \"#utility.yul\":2852:2856   */\n  0x20\n    /* \"#utility.yul\":2847:2850   */\n  dup5\n    /* \"#utility.yul\":2843:2857   */\n  add\n    /* \"#utility.yul\":2836:2857   */\n  swap4\n  pop\n    /* \"#utility.yul\":2712:2867   */\n  pop\n    /* \"#utility.yul\":2696:2700   */\n  0x20\n    /* \"#utility.yul\":2691:2694   */\n  dup2\n    /* \"#utility.yul\":2687:2701   */\n  add\n    /* \"#utility.yul\":2680:2701   */\n  swap1\n  pop\n    /* \"#utility.yul\":2636:2867   */\n  jump(tag_64)\ntag_66:\n    /* \"#utility.yul\":2640:2661   */\n  pop\n    /* \"#utility.yul\":2254:2873   */\n  pop\n  pop\n    /* \"#utility.yul\":2141:2873   */\n  swap4\n  swap3\n  pop\n  pop\n  pop\n  jump\t// out\n    /* \"#utility.yul\":2896:3281   */\ntag_29:\n    /* \"#utility.yul\":2978:2983   */\n  0x00\n    /* \"#utility.yul\":3027:3030   */\n  dup3\n    /* \"#utility.yul\":3020:3024   */\n  0x1f\n    /* \"#utility.yul\":3012:3018   */\n  dup4\n    /* \"#utility.yul\":3008:3025   */\n  add\n    /* \"#utility.yul\":3004:3031   */\n  slt\n    /* \"#utility.yul\":2994:3116   */\n  tag_69\n  jumpi\n    /* \"#utility.yul\":3035:3114   */\n  tag_70\n  tag_17\n  jump\t// in\ntag_70:\n    /* \"#utility.yul\":2994:3116   */\ntag_69:\n    /* \"#utility.yul\":3145:3151   */\n  dup2\n    /* \"#utility.yul\":3139:3152   */\n  mload\n    /* \"#utility.yul\":3170:3275   */\n  tag_71\n    /* \"#utility.yul\":3271:3274   */\n  dup5\n    /* \"#utility.yul\":3263:3269   */\n  dup3\n    /* \"#utility.yul\":3256:3260   */\n  0x20\n    /* \"#utility.yul\":3248:3254   */\n  dup7\n    /* \"#utility.yul\":3244:3261   */\n  add\n    /* \"#utility.yul\":3170:3275   */\n  tag_28\n  jump\t// in\ntag_71:\n    /* \"#utility.yul\":3161:3275   */\n  swap2\n  pop\n    /* \"#utility.yul\":2984:3281   */\n  pop\n    /* \"#utility.yul\":2896:3281   */\n  swap3\n  swap2\n  pop\n  pop\n  jump\t// out\n    /* \"#utility.yul\":3287:3364   */\ntag_30:\n    /* \"#utility.yul\":3324:3331   */\n  0x00\n    /* \"#utility.yul\":3353:3358   */\n  dup2\n    /* \"#utility.yul\":3342:3358   */\n  swap1\n  pop\n    /* \"#utility.yul\":3287:3364   */\n  swap2\n  swap1\n  pop\n  jump\t// out\n    /* \"#utility.yul\":3370:3492   */\ntag_31:\n    /* \"#utility.yul\":3443:3467   */\n  tag_74\n    /* \"#utility.yul\":3461:3466   */\n  dup2\n    /* \"#utility.yul\":3443:3467   */\n  tag_30\n  jump\t// in\ntag_74:\n    /* \"#utility.yul\":3436:3441   */\n  dup2\n    /* \"#utility.yul\":3433:3468   */\n  eq\n    /* \"#utility.yul\":3423:3486   */\n  tag_75\n  jumpi\n    /* \"#utility.yul\":3482:3483   */\n  0x00\n    /* \"#utility.yul\":3479:3480   */\n  dup1\n    /* \"#utility.yul\":3472:3484   */\n  revert\n    /* \"#utility.yul\":3423:3486   */\ntag_75:\n    /* \"#utility.yul\":3370:3492   */\n  pop\n  jump\t// out\n    /* \"#utility.yul\":3498:3641   */\ntag_32:\n    /* \"#utility.yul\":3555:3560   */\n  0x00\n    /* \"#utility.yul\":3586:3592   */\n  dup2\n    /* \"#utility.yul\":3580:3593   */\n  mload\n    /* \"#utility.yul\":3571:3593   */\n  swap1\n  pop\n    /* \"#utility.yul\":3602:3635   */\n  tag_77\n    /* \"#utility.yul\":3629:3634   */\n  dup2\n    /* \"#utility.yul\":3602:3635   */\n  tag_31\n  jump\t// in\ntag_77:\n    /* \"#utility.yul\":3498:3641   */\n  swap3\n  swap2\n  pop\n  pop\n  jump\t// out\n    /* \"#utility.yul\":3647:4357   */\ntag_3:\n    /* \"#utility.yul\":3751:3757   */\n  0x00\n    /* \"#utility.yul\":3759:3765   */\n  dup1\n    /* \"#utility.yul\":3808:3810   */\n  0x40\n    /* \"#utility.yul\":3796:3805   */\n  dup4\n    /* \"#utility.yul\":3787:3794   */\n  dup6\n    /* \"#utility.yul\":3783:3806   */\n  sub\n    /* \"#utility.yul\":3779:3811   */\n  slt\n    /* \"#utility.yul\":3776:3895   */\n  iszero\n  tag_79\n  jumpi\n    /* \"#utility.yul\":3814:3893   */\n  tag_80\n  tag_15\n  jump\t// in\ntag_80:\n    /* \"#utility.yul\":3776:3895   */\ntag_79:\n    /* \"#utility.yul\":3955:3956   */\n  0x00\n    /* \"#utility.yul\":3944:3953   */\n  dup4\n    /* \"#utility.yul\":3940:3957   */\n  add\n    /* \"#utility.yul\":3934:3958   */\n  mload\n    /* \"#utility.yul\":3985:4003   */\n  0xffffffffffffffff\n    /* \"#utility.yul\":3977:3983   */\n  dup2\n    /* \"#utility.yul\":3974:4004   */\n  gt\n    /* \"#utility.yul\":3971:4088   */\n  iszero\n  tag_81\n  jumpi\n    /* \"#utility.yul\":4007:4086   */\n  tag_82\n  tag_16\n  jump\t// in\ntag_82:\n    /* \"#utility.yul\":3971:4088   */\ntag_81:\n    /* \"#utility.yul\":4112:4201   */\n  tag_83\n    /* \"#utility.yul\":4193:4200   */\n  dup6\n    /* \"#utility.yul\":4184:4190   */\n  dup3\n    /* \"#utility.yul\":4173:4182   */\n  dup7\n    /* \"#utility.yul\":4169:4191   */\n  add\n    /* \"#utility.yul\":4112:4201   */\n  tag_29\n  jump\t// in\ntag_83:\n    /* \"#utility.yul\":4102:4201   */\n  swap3\n  pop\n    /* \"#utility.yul\":3905:4211   */\n  pop\n    /* \"#utility.yul\":4250:4252   */\n  0x20\n    /* \"#utility.yul\":4276:4340   */\n  tag_84\n    /* \"#utility.yul\":4332:4339   */\n  dup6\n    /* \"#utility.yul\":4323:4329   */\n  dup3\n    /* \"#utility.yul\":4312:4321   */\n  dup7\n    /* \"#utility.yul\":4308:4330   */\n  add\n    /* \"#utility.yul\":4276:4340   */\n  tag_32\n  jump\t// in\ntag_84:\n    /* \"#utility.yul\":4266:4340   */\n  swap2\n  pop\n    /* \"#utility.yul\":4221:4350   */\n  pop\n    /* \"#utility.yul\":3647:4357   */\n  swap3\n  pop\n  swap3\n  swap1\n  pop\n  jump\t// out\n    /* \"#utility.yul\":4363:4543   */\ntag_11:\n    /* \"#utility.yul\":4411:4488   */\n  0x4e487b7100000000000000000000000000000000000000000000000000000000\n    /* \"#utility.yul\":4408:4409   */\n  0x00\n    /* \"#utility.yul\":4401:4489   */\n  mstore\n    /* \"#utility.yul\":4508:4512   */\n  0x32\n    /* \"#utility.yul\":4505:4506   */\n  0x04\n    /* \"#utility.yul\":4498:4513   */\n  mstore\n    /* \"#utility.yul\":4532:4536   */\n  0x24\n    /* \"#utility.yul\":4529:4530   */\n  0x00\n    /* \"#utility.yul\":4522:4537   */\n  revert\n    /* \"052MultiSignWallet.sol\":57:3589  contract MultiSignWallet{... */\ntag_13:\n  dataSize(sub_0)\n  dup1\n  dataOffset(sub_0)\n  0x00\n  codecopy\n  0x00\n  return\nstop\n\nsub_0: assembly {\n        /* \"052MultiSignWallet.sol\":57:3589  contract MultiSignWallet{... */\n      mstore(0x40, 0x80)\n      jumpi(tag_1, lt(calldatasize, 0x04))\n      shr(0xe0, calldataload(0x00))\n      dup1\n      0x62e2c270\n      gt\n      tag_12\n      jumpi\n      dup1\n      0x62e2c270\n      eq\n      tag_7\n      jumpi\n      dup1\n      0x9ace38c2\n      eq\n      tag_8\n      jumpi\n      dup1\n      0xb759f954\n      eq\n      tag_9\n      jumpi\n      dup1\n      0xf5b39ff1\n      eq\n      tag_10\n      jumpi\n      dup1\n      0xfe0d94c1\n      eq\n      tag_11\n      jumpi\n      jump(tag_2)\n    tag_12:\n      dup1\n      0x025e7c27\n      eq\n      tag_3\n      jumpi\n      dup1\n      0x086bb259\n      eq\n      tag_4\n      jumpi\n      dup1\n      0x14de327f\n      eq\n      tag_5\n      jumpi\n      dup1\n      0x20c5429b\n      eq\n      tag_6\n      jumpi\n      jump(tag_2)\n    tag_1:\n      jumpi(tag_2, calldatasize)\n        /* \"052MultiSignWallet.sol\":1451:1461  msg.sender */\n      caller\n        /* \"052MultiSignWallet.sol\":1443:1473  Deposit(msg.sender, msg.value) */\n      0xffffffffffffffffffffffffffffffffffffffff\n      and\n      0xe1fffcc4923d04b559f4d29a8bfc6cda04eb5b0d3c460751c2402c5c5cc9109c\n        /* \"052MultiSignWallet.sol\":1463:1472  msg.value */\n      callvalue\n        /* \"052MultiSignWallet.sol\":1443:1473  Deposit(msg.sender, msg.value) */\n      mload(0x40)\n      tag_15\n      swap2\n      swap1\n      tag_16\n      jump\t// in\n    tag_15:\n      mload(0x40)\n      dup1\n      swap2\n      sub\n      swap1\n      log2\n        /* \"052MultiSignWallet.sol\":57:3589  contract MultiSignWallet{... */\n      stop\n    tag_2:\n      0x00\n      dup1\n      revert\n        /* \"052MultiSignWallet.sol\":360:383  address[] public owners */\n    tag_3:\n      callvalue\n      dup1\n      iszero\n      tag_17\n      jumpi\n      0x00\n      dup1\n      revert\n    tag_17:\n      pop\n      tag_18\n      0x04\n      dup1\n      calldatasize\n      sub\n      dup2\n      add\n      swap1\n      tag_19\n      swap2\n      swap1\n      tag_20\n      jump\t// in\n    tag_19:\n      tag_21\n      jump\t// in\n    tag_18:\n      mload(0x40)\n      tag_22\n      swap2\n      swap1\n      tag_23\n      jump\t// in\n    tag_22:\n      mload(0x40)\n      dup1\n      swap2\n      sub\n      swap1\n      return\n        /* \"052MultiSignWallet.sol\":424:470  mapping (address =>bool) public isOwnerMapping */\n    tag_4:\n      callvalue\n      dup1\n      iszero\n      tag_24\n      jumpi\n      0x00\n      dup1\n      revert\n    tag_24:\n      pop\n      tag_25\n      0x04\n      dup1\n      calldatasize\n      sub\n      dup2\n      add\n      swap1\n      tag_26\n      swap2\n      swap1\n      tag_27\n      jump\t// in\n    tag_26:\n      tag_28\n      jump\t// in\n    tag_25:\n      mload(0x40)\n      tag_29\n      swap2\n      swap1\n      tag_30\n      jump\t// in\n    tag_29:\n      mload(0x40)\n      dup1\n      swap2\n      sub\n      swap1\n      return\n        /* \"052MultiSignWallet.sol\":1506:1839  function submit(address _to,uint _value,bytes calldata _data ) external payable onlyOwner{... */\n    tag_5:\n      tag_31\n      0x04\n      dup1\n      calldatasize\n      sub\n      dup2\n      add\n      swap1\n      tag_32\n      swap2\n      swap1\n      tag_33\n      jump\t// in\n    tag_32:\n      tag_34\n      jump\t// in\n    tag_31:\n      stop\n        /* \"052MultiSignWallet.sol\":3128:3504  function revoke(uint _txId) ... */\n    tag_6:\n      callvalue\n      dup1\n      iszero\n      tag_35\n      jumpi\n      0x00\n      dup1\n      revert\n    tag_35:\n      pop\n      tag_36\n      0x04\n      dup1\n      calldatasize\n      sub\n      dup2\n      add\n      swap1\n      tag_37\n      swap2\n      swap1\n      tag_20\n      jump\t// in\n    tag_37:\n      tag_38\n      jump\t// in\n    tag_36:\n      stop\n        /* \"052MultiSignWallet.sol\":506:530  uint public needOwnerNum */\n    tag_7:\n      callvalue\n      dup1\n      iszero\n      tag_39\n      jumpi\n      0x00\n      dup1\n      revert\n    tag_39:\n      pop\n      tag_40\n      tag_41\n      jump\t// in\n    tag_40:\n      mload(0x40)\n      tag_42\n      swap2\n      swap1\n      tag_16\n      jump\t// in\n    tag_42:\n      mload(0x40)\n      dup1\n      swap2\n      sub\n      swap1\n      return\n        /* \"052MultiSignWallet.sol\":696:729  Transaction[] public transactions */\n    tag_8:\n      callvalue\n      dup1\n      iszero\n      tag_43\n      jumpi\n      0x00\n      dup1\n      revert\n    tag_43:\n      pop\n      tag_44\n      0x04\n      dup1\n      calldatasize\n      sub\n      dup2\n      add\n      swap1\n      tag_45\n      swap2\n      swap1\n      tag_20\n      jump\t// in\n    tag_45:\n      tag_46\n      jump\t// in\n    tag_44:\n      mload(0x40)\n      tag_47\n      swap5\n      swap4\n      swap3\n      swap2\n      swap1\n      tag_48\n      jump\t// in\n    tag_47:\n      mload(0x40)\n      dup1\n      swap2\n      sub\n      swap1\n      return\n        /* \"052MultiSignWallet.sol\":1872:2120  function approve(uint _txId) external ... */\n    tag_9:\n      callvalue\n      dup1\n      iszero\n      tag_49\n      jumpi\n      0x00\n      dup1\n      revert\n    tag_49:\n      pop\n      tag_50\n      0x04\n      dup1\n      calldatasize\n      sub\n      dup2\n      add\n      swap1\n      tag_51\n      swap2\n      swap1\n      tag_20\n      jump\t// in\n    tag_51:\n      tag_52\n      jump\t// in\n    tag_50:\n      stop\n        /* \"052MultiSignWallet.sol\":765:831  mapping (uint => mapping (address => bool)) public approvedMapping */\n    tag_10:\n      callvalue\n      dup1\n      iszero\n      tag_53\n      jumpi\n      0x00\n      dup1\n      revert\n    tag_53:\n      pop\n      tag_54\n      0x04\n      dup1\n      calldatasize\n      sub\n      dup2\n      add\n      swap1\n      tag_55\n      swap2\n      swap1\n      tag_56\n      jump\t// in\n    tag_55:\n      tag_57\n      jump\t// in\n    tag_54:\n      mload(0x40)\n      tag_58\n      swap2\n      swap1\n      tag_30\n      jump\t// in\n    tag_58:\n      mload(0x40)\n      dup1\n      swap2\n      sub\n      swap1\n      return\n        /* \"052MultiSignWallet.sol\":2731:3108  function execute(uint _txId) ... */\n    tag_11:\n      callvalue\n      dup1\n      iszero\n      tag_59\n      jumpi\n      0x00\n      dup1\n      revert\n    tag_59:\n      pop\n      tag_60\n      0x04\n      dup1\n      calldatasize\n      sub\n      dup2\n      add\n      swap1\n      tag_61\n      swap2\n      swap1\n      tag_20\n      jump\t// in\n    tag_61:\n      tag_62\n      jump\t// in\n    tag_60:\n      stop\n        /* \"052MultiSignWallet.sol\":360:383  address[] public owners */\n    tag_21:\n      0x00\n      dup2\n      dup2\n      sload\n      dup2\n      lt\n      tag_63\n      jumpi\n      0x00\n      dup1\n      revert\n    tag_63:\n      swap1\n      0x00\n      mstore\n      keccak256(0x00, 0x20)\n      add\n      0x00\n      swap2\n      pop\n      sload\n      swap1\n      0x0100\n      exp\n      swap1\n      div\n      0xffffffffffffffffffffffffffffffffffffffff\n      and\n      dup2\n      jump\t// out\n        /* \"052MultiSignWallet.sol\":424:470  mapping (address =>bool) public isOwnerMapping */\n    tag_28:\n      mstore(0x20, 0x01)\n      dup1\n      0x00\n      mstore\n      keccak256(0x00, 0x40)\n      0x00\n      swap2\n      pop\n      sload\n      swap1\n      0x0100\n      exp\n      swap1\n      div\n      0xff\n      and\n      dup2\n      jump\t// out\n        /* \"052MultiSignWallet.sol\":1506:1839  function submit(address _to,uint _value,bytes calldata _data ) external payable onlyOwner{... */\n    tag_34:\n        /* \"052MultiSignWallet.sol\":1339:1343  true */\n      0x01\n        /* \"052MultiSignWallet.sol\":1311:1343  isOwnerMapping[msg.sender]==true */\n      iszero\n      iszero\n        /* \"052MultiSignWallet.sol\":1311:1325  isOwnerMapping */\n      0x01\n        /* \"052MultiSignWallet.sol\":1311:1337  isOwnerMapping[msg.sender] */\n      0x00\n        /* \"052MultiSignWallet.sol\":1326:1336  msg.sender */\n      caller\n        /* \"052MultiSignWallet.sol\":1311:1337  isOwnerMapping[msg.sender] */\n      0xffffffffffffffffffffffffffffffffffffffff\n      and\n      0xffffffffffffffffffffffffffffffffffffffff\n      and\n      dup2\n      mstore\n      0x20\n      add\n      swap1\n      dup2\n      mstore\n      0x20\n      add\n      0x00\n      keccak256\n      0x00\n      swap1\n      sload\n      swap1\n      0x0100\n      exp\n      swap1\n      div\n      0xff\n      and\n        /* \"052MultiSignWallet.sol\":1311:1343  isOwnerMapping[msg.sender]==true */\n      iszero\n      iszero\n      eq\n        /* \"052MultiSignWallet.sol\":1302:1356  require (isOwnerMapping[msg.sender]==true,\"not owner\") */\n      tag_66\n      jumpi\n      mload(0x40)\n      0x08c379a000000000000000000000000000000000000000000000000000000000\n      dup2\n      mstore\n      0x04\n      add\n      tag_67\n      swap1\n      tag_68\n      jump\t// in\n    tag_67:\n      mload(0x40)\n      dup1\n      swap2\n      sub\n      swap1\n      revert\n    tag_66:\n        /* \"052MultiSignWallet.sol\":1605:1626  Transaction memory t1 */\n      0x00\n        /* \"052MultiSignWallet.sol\":1630:1755  Transaction({... */\n      mload(0x40)\n      dup1\n      0x80\n      add\n      0x40\n      mstore\n      dup1\n        /* \"052MultiSignWallet.sol\":1659:1662  _to */\n      dup7\n        /* \"052MultiSignWallet.sol\":1630:1755  Transaction({... */\n      0xffffffffffffffffffffffffffffffffffffffff\n      and\n      dup2\n      mstore\n      0x20\n      add\n        /* \"052MultiSignWallet.sol\":1682:1687  _data */\n      dup5\n      dup5\n        /* \"052MultiSignWallet.sol\":1630:1755  Transaction({... */\n      dup1\n      dup1\n      0x1f\n      add\n      0x20\n      dup1\n      swap2\n      div\n      mul\n      0x20\n      add\n      mload(0x40)\n      swap1\n      dup2\n      add\n      0x40\n      mstore\n      dup1\n      swap4\n      swap3\n      swap2\n      swap1\n      dup2\n      dup2\n      mstore\n      0x20\n      add\n      dup4\n      dup4\n      dup1\n      dup3\n      dup5\n      calldatacopy\n      0x00\n      dup2\n      dup5\n      add\n      mstore\n      not(0x1f)\n      0x1f\n      dup3\n      add\n      and\n      swap1\n      pop\n      dup1\n      dup4\n      add\n      swap3\n      pop\n      pop\n      pop\n      pop\n      pop\n      pop\n      pop\n      dup2\n      mstore\n      0x20\n      add\n        /* \"052MultiSignWallet.sol\":1712:1717  false */\n      0x00\n        /* \"052MultiSignWallet.sol\":1630:1755  Transaction({... */\n      iszero\n      iszero\n      dup2\n      mstore\n      0x20\n      add\n        /* \"052MultiSignWallet.sol\":1738:1744  _value */\n      dup6\n        /* \"052MultiSignWallet.sol\":1630:1755  Transaction({... */\n      dup2\n      mstore\n      pop\n        /* \"052MultiSignWallet.sol\":1605:1755  Transaction memory t1 =  Transaction({... */\n      swap1\n      pop\n        /* \"052MultiSignWallet.sol\":1765:1777  transactions */\n      0x03\n        /* \"052MultiSignWallet.sol\":1783:1785  t1 */\n      dup2\n        /* \"052MultiSignWallet.sol\":1765:1786  transactions.push(t1) */\n      swap1\n      dup1\n      0x01\n      dup2\n      sload\n      add\n      dup1\n      dup3\n      sstore\n      dup1\n      swap2\n      pop\n      pop\n      0x01\n      swap1\n      sub\n      swap1\n      0x00\n      mstore\n      keccak256(0x00, 0x20)\n      swap1\n      0x04\n      mul\n      add\n      0x00\n      swap1\n      swap2\n      swap1\n      swap2\n      swap1\n      swap2\n      pop\n      0x00\n      dup3\n      add\n      mload\n      dup2\n      0x00\n      add\n      exp(0x0100, 0x00)\n      dup2\n      sload\n      dup2\n      0xffffffffffffffffffffffffffffffffffffffff\n      mul\n      not\n      and\n      swap1\n      dup4\n      0xffffffffffffffffffffffffffffffffffffffff\n      and\n      mul\n      or\n      swap1\n      sstore\n      pop\n      0x20\n      dup3\n      add\n      mload\n      dup2\n      0x01\n      add\n      swap1\n      dup2\n      tag_71\n      swap2\n      swap1\n      tag_72\n      jump\t// in\n    tag_71:\n      pop\n      0x40\n      dup3\n      add\n      mload\n      dup2\n      0x02\n      add\n      exp(0x0100, 0x00)\n      dup2\n      sload\n      dup2\n      0xff\n      mul\n      not\n      and\n      swap1\n      dup4\n      iszero\n      iszero\n      mul\n      or\n      swap1\n      sstore\n      pop\n      0x60\n      dup3\n      add\n      mload\n      dup2\n      0x03\n      add\n      sstore\n      pop\n      pop\n        /* \"052MultiSignWallet.sol\":1829:1830  1 */\n      0x01\n        /* \"052MultiSignWallet.sol\":1809:1821  transactions */\n      0x03\n        /* \"052MultiSignWallet.sol\":1809:1828  transactions.length */\n      dup1\n      sload\n      swap1\n      pop\n        /* \"052MultiSignWallet.sol\":1809:1830  transactions.length-1 */\n      tag_73\n      swap2\n      swap1\n      tag_74\n      jump\t// in\n    tag_73:\n        /* \"052MultiSignWallet.sol\":1802:1831  Submit(transactions.length-1) */\n      0x08324b3d745b914e3abd4ffbfead91e3b78391a98c173202129215ab933adfbe\n      mload(0x40)\n      mload(0x40)\n      dup1\n      swap2\n      sub\n      swap1\n      log2\n        /* \"052MultiSignWallet.sol\":1595:1839  {... */\n      pop\n        /* \"052MultiSignWallet.sol\":1506:1839  function submit(address _to,uint _value,bytes calldata _data ) external payable onlyOwner{... */\n      pop\n      pop\n      pop\n      pop\n      jump\t// out\n        /* \"052MultiSignWallet.sol\":3128:3504  function revoke(uint _txId) ... */\n    tag_38:\n        /* \"052MultiSignWallet.sol\":1339:1343  true */\n      0x01\n        /* \"052MultiSignWallet.sol\":1311:1343  isOwnerMapping[msg.sender]==true */\n      iszero\n      iszero\n        /* \"052MultiSignWallet.sol\":1311:1325  isOwnerMapping */\n      0x01\n        /* \"052MultiSignWallet.sol\":1311:1337  isOwnerMapping[msg.sender] */\n      0x00\n        /* \"052MultiSignWallet.sol\":1326:1336  msg.sender */\n      caller\n        /* \"052MultiSignWallet.sol\":1311:1337  isOwnerMapping[msg.sender] */\n      0xffffffffffffffffffffffffffffffffffffffff\n      and\n      0xffffffffffffffffffffffffffffffffffffffff\n      and\n      dup2\n      mstore\n      0x20\n      add\n      swap1\n      dup2\n      mstore\n      0x20\n      add\n      0x00\n      keccak256\n      0x00\n      swap1\n      sload\n      swap1\n      0x0100\n      exp\n      swap1\n      div\n      0xff\n      and\n        /* \"052MultiSignWallet.sol\":1311:1343  isOwnerMapping[msg.sender]==true */\n      iszero\n      iszero\n      eq\n        /* \"052MultiSignWallet.sol\":1302:1356  require (isOwnerMapping[msg.sender]==true,\"not owner\") */\n      tag_76\n      jumpi\n      mload(0x40)\n      0x08c379a000000000000000000000000000000000000000000000000000000000\n      dup2\n      mstore\n      0x04\n      add\n      tag_77\n      swap1\n      tag_68\n      jump\t// in\n    tag_77:\n      mload(0x40)\n      dup1\n      swap2\n      sub\n      swap1\n      revert\n    tag_76:\n        /* \"052MultiSignWallet.sol\":3201:3206  _txId */\n      dup1\n        /* \"052MultiSignWallet.sol\":3245:3250  _txId */\n      dup2\n        /* \"052MultiSignWallet.sol\":3295:3300  _txId */\n      dup3\n        /* \"052MultiSignWallet.sol\":3346:3361  approvedMapping */\n      0x04\n        /* \"052MultiSignWallet.sol\":3346:3368  approvedMapping[_txId] */\n      0x00\n        /* \"052MultiSignWallet.sol\":3362:3367  _txId */\n      dup6\n        /* \"052MultiSignWallet.sol\":3346:3368  approvedMapping[_txId] */\n      dup2\n      mstore\n      0x20\n      add\n      swap1\n      dup2\n      mstore\n      0x20\n      add\n      0x00\n      keccak256\n        /* \"052MultiSignWallet.sol\":3346:3380  approvedMapping[_txId][msg.sender] */\n      0x00\n        /* \"052MultiSignWallet.sol\":3369:3379  msg.sender */\n      caller\n        /* \"052MultiSignWallet.sol\":3346:3380  approvedMapping[_txId][msg.sender] */\n      0xffffffffffffffffffffffffffffffffffffffff\n      and\n      0xffffffffffffffffffffffffffffffffffffffff\n      and\n      dup2\n      mstore\n      0x20\n      add\n      swap1\n      dup2\n      mstore\n      0x20\n      add\n      0x00\n      keccak256\n      0x00\n      swap1\n      sload\n      swap1\n      0x0100\n      exp\n      swap1\n      div\n      0xff\n      and\n        /* \"052MultiSignWallet.sol\":3338:3396  require(approvedMapping[_txId][msg.sender],\"not approved\") */\n      tag_82\n      jumpi\n      mload(0x40)\n      0x08c379a000000000000000000000000000000000000000000000000000000000\n      dup2\n      mstore\n      0x04\n      add\n      tag_83\n      swap1\n      tag_84\n      jump\t// in\n    tag_83:\n      mload(0x40)\n      dup1\n      swap2\n      sub\n      swap1\n      revert\n    tag_82:\n        /* \"052MultiSignWallet.sol\":3443:3448  false */\n      0x00\n        /* \"052MultiSignWallet.sol\":3406:3421  approvedMapping */\n      0x04\n        /* \"052MultiSignWallet.sol\":3406:3428  approvedMapping[_txId] */\n      0x00\n        /* \"052MultiSignWallet.sol\":3422:3427  _txId */\n      dup7\n        /* \"052MultiSignWallet.sol\":3406:3428  approvedMapping[_txId] */\n      dup2\n      mstore\n      0x20\n      add\n      swap1\n      dup2\n      mstore\n      0x20\n      add\n      0x00\n      keccak256\n        /* \"052MultiSignWallet.sol\":3406:3440  approvedMapping[_txId][msg.sender] */\n      0x00\n        /* \"052MultiSignWallet.sol\":3429:3439  msg.sender */\n      caller\n        /* \"052MultiSignWallet.sol\":3406:3440  approvedMapping[_txId][msg.sender] */\n      0xffffffffffffffffffffffffffffffffffffffff\n      and\n      0xffffffffffffffffffffffffffffffffffffffff\n      and\n      dup2\n      mstore\n      0x20\n      add\n      swap1\n      dup2\n      mstore\n      0x20\n      add\n      0x00\n      keccak256\n      0x00\n        /* \"052MultiSignWallet.sol\":3406:3448  approvedMapping[_txId][msg.sender] = false */\n      0x0100\n      exp\n      dup2\n      sload\n      dup2\n      0xff\n      mul\n      not\n      and\n      swap1\n      dup4\n      iszero\n      iszero\n      mul\n      or\n      swap1\n      sstore\n      pop\n        /* \"052MultiSignWallet.sol\":3481:3486  _txId */\n      dup4\n        /* \"052MultiSignWallet.sol\":3469:3479  msg.sender */\n      caller\n        /* \"052MultiSignWallet.sol\":3462:3487  Revoke(msg.sender, _txId) */\n      0xffffffffffffffffffffffffffffffffffffffff\n      and\n      0xec9ab91322523c899ede7830ec9bfc992b5981cdcc27b91162fb23de5791117b\n      mload(0x40)\n      mload(0x40)\n      dup1\n      swap2\n      sub\n      swap1\n      log3\n        /* \"052MultiSignWallet.sol\":3579:3580  _ */\n      pop\n        /* \"052MultiSignWallet.sol\":2177:2178  _ */\n      pop\n        /* \"052MultiSignWallet.sol\":1366:1367  _ */\n      pop\n        /* \"052MultiSignWallet.sol\":3128:3504  function revoke(uint _txId) ... */\n      pop\n      jump\t// out\n        /* \"052MultiSignWallet.sol\":506:530  uint public needOwnerNum */\n    tag_41:\n      sload(0x02)\n      dup2\n      jump\t// out\n        /* \"052MultiSignWallet.sol\":696:729  Transaction[] public transactions */\n    tag_46:\n      0x03\n      dup2\n      dup2\n      sload\n      dup2\n      lt\n      tag_85\n      jumpi\n      0x00\n      dup1\n      revert\n    tag_85:\n      swap1\n      0x00\n      mstore\n      keccak256(0x00, 0x20)\n      swap1\n      0x04\n      mul\n      add\n      0x00\n      swap2\n      pop\n      swap1\n      pop\n      dup1\n      0x00\n      add\n      0x00\n      swap1\n      sload\n      swap1\n      0x0100\n      exp\n      swap1\n      div\n      0xffffffffffffffffffffffffffffffffffffffff\n      and\n      swap1\n      dup1\n      0x01\n      add\n      dup1\n      sload\n      tag_87\n      swap1\n      tag_88\n      jump\t// in\n    tag_87:\n      dup1\n      0x1f\n      add\n      0x20\n      dup1\n      swap2\n      div\n      mul\n      0x20\n      add\n      mload(0x40)\n      swap1\n      dup2\n      add\n      0x40\n      mstore\n      dup1\n      swap3\n      swap2\n      swap1\n      dup2\n      dup2\n      mstore\n      0x20\n      add\n      dup3\n      dup1\n      sload\n      tag_89\n      swap1\n      tag_88\n      jump\t// in\n    tag_89:\n      dup1\n      iszero\n      tag_90\n      jumpi\n      dup1\n      0x1f\n      lt\n      tag_91\n      jumpi\n      0x0100\n      dup1\n      dup4\n      sload\n      div\n      mul\n      dup4\n      mstore\n      swap2\n      0x20\n      add\n      swap2\n      jump(tag_90)\n    tag_91:\n      dup3\n      add\n      swap2\n      swap1\n      0x00\n      mstore\n      keccak256(0x00, 0x20)\n      swap1\n    tag_92:\n      dup2\n      sload\n      dup2\n      mstore\n      swap1\n      0x01\n      add\n      swap1\n      0x20\n      add\n      dup1\n      dup4\n      gt\n      tag_92\n      jumpi\n      dup3\n      swap1\n      sub\n      0x1f\n      and\n      dup3\n      add\n      swap2\n    tag_90:\n      pop\n      pop\n      pop\n      pop\n      pop\n      swap1\n      dup1\n      0x02\n      add\n      0x00\n      swap1\n      sload\n      swap1\n      0x0100\n      exp\n      swap1\n      div\n      0xff\n      and\n      swap1\n      dup1\n      0x03\n      add\n      sload\n      swap1\n      pop\n      dup5\n      jump\t// out\n        /* \"052MultiSignWallet.sol\":1872:2120  function approve(uint _txId) external ... */\n    tag_52:\n        /* \"052MultiSignWallet.sol\":1339:1343  true */\n      0x01\n        /* \"052MultiSignWallet.sol\":1311:1343  isOwnerMapping[msg.sender]==true */\n      iszero\n      iszero\n        /* \"052MultiSignWallet.sol\":1311:1325  isOwnerMapping */\n      0x01\n        /* \"052MultiSignWallet.sol\":1311:1337  isOwnerMapping[msg.sender] */\n      0x00\n        /* \"052MultiSignWallet.sol\":1326:1336  msg.sender */\n      caller\n        /* \"052MultiSignWallet.sol\":1311:1337  isOwnerMapping[msg.sender] */\n      0xffffffffffffffffffffffffffffffffffffffff\n      and\n      0xffffffffffffffffffffffffffffffffffffffff\n      and\n      dup2\n      mstore\n      0x20\n      add\n      swap1\n      dup2\n      mstore\n      0x20\n      add\n      0x00\n      keccak256\n      0x00\n      swap1\n      sload\n      swap1\n      0x0100\n      exp\n      swap1\n      div\n      0xff\n      and\n        /* \"052MultiSignWallet.sol\":1311:1343  isOwnerMapping[msg.sender]==true */\n      iszero\n      iszero\n      eq\n        /* \"052MultiSignWallet.sol\":1302:1356  require (isOwnerMapping[msg.sender]==true,\"not owner\") */\n      tag_94\n      jumpi\n      mload(0x40)\n      0x08c379a000000000000000000000000000000000000000000000000000000000\n      dup2\n      mstore\n      0x04\n      add\n      tag_95\n      swap1\n      tag_68\n      jump\t// in\n    tag_95:\n      mload(0x40)\n      dup1\n      swap2\n      sub\n      swap1\n      revert\n    tag_94:\n        /* \"052MultiSignWallet.sol\":1939:1944  _txId */\n      dup1\n        /* \"052MultiSignWallet.sol\":1964:1969  _txId */\n      dup2\n        /* \"052MultiSignWallet.sol\":1988:1993  _txId */\n      dup3\n        /* \"052MultiSignWallet.sol\":2067:2071  true */\n      0x01\n        /* \"052MultiSignWallet.sol\":2030:2045  approvedMapping */\n      0x04\n        /* \"052MultiSignWallet.sol\":2030:2052  approvedMapping[_txId] */\n      0x00\n        /* \"052MultiSignWallet.sol\":2046:2051  _txId */\n      dup7\n        /* \"052MultiSignWallet.sol\":2030:2052  approvedMapping[_txId] */\n      dup2\n      mstore\n      0x20\n      add\n      swap1\n      dup2\n      mstore\n      0x20\n      add\n      0x00\n      keccak256\n        /* \"052MultiSignWallet.sol\":2030:2064  approvedMapping[_txId][msg.sender] */\n      0x00\n        /* \"052MultiSignWallet.sol\":2053:2063  msg.sender */\n      caller\n        /* \"052MultiSignWallet.sol\":2030:2064  approvedMapping[_txId][msg.sender] */\n      0xffffffffffffffffffffffffffffffffffffffff\n      and\n      0xffffffffffffffffffffffffffffffffffffffff\n      and\n      dup2\n      mstore\n      0x20\n      add\n      swap1\n      dup2\n      mstore\n      0x20\n      add\n      0x00\n      keccak256\n      0x00\n        /* \"052MultiSignWallet.sol\":2030:2071  approvedMapping[_txId][msg.sender] = true */\n      0x0100\n      exp\n      dup2\n      sload\n      dup2\n      0xff\n      mul\n      not\n      and\n      swap1\n      dup4\n      iszero\n      iszero\n      mul\n      or\n      swap1\n      sstore\n      pop\n        /* \"052MultiSignWallet.sol\":2105:2110  _txId */\n      dup4\n        /* \"052MultiSignWallet.sol\":2094:2104  msg.sender */\n      caller\n        /* \"052MultiSignWallet.sol\":2086:2111  Approve(msg.sender,_txId) */\n      0xffffffffffffffffffffffffffffffffffffffff\n      and\n      0x90ec57f18fa7b15c6b8d5e4d1deb90796c74b2ff23d4d0cecad0cb42a96b3128\n      mload(0x40)\n      mload(0x40)\n      dup1\n      swap2\n      sub\n      swap1\n      log3\n        /* \"052MultiSignWallet.sol\":2247:2248  _ */\n      pop\n        /* \"052MultiSignWallet.sol\":2177:2178  _ */\n      pop\n        /* \"052MultiSignWallet.sol\":1366:1367  _ */\n      pop\n        /* \"052MultiSignWallet.sol\":1872:2120  function approve(uint _txId) external ... */\n      pop\n      jump\t// out\n        /* \"052MultiSignWallet.sol\":765:831  mapping (uint => mapping (address => bool)) public approvedMapping */\n    tag_57:\n      mstore(0x20, 0x04)\n      dup2\n      0x00\n      mstore\n      mstore(0x20, keccak256(0x00, 0x40))\n      dup1\n      0x00\n      mstore\n      keccak256(0x00, 0x40)\n      0x00\n      swap2\n      pop\n      swap2\n      pop\n      swap1\n      sload\n      swap1\n      0x0100\n      exp\n      swap1\n      div\n      0xff\n      and\n      dup2\n      jump\t// out\n        /* \"052MultiSignWallet.sol\":2731:3108  function execute(uint _txId) ... */\n    tag_62:\n        /* \"052MultiSignWallet.sol\":1339:1343  true */\n      0x01\n        /* \"052MultiSignWallet.sol\":1311:1343  isOwnerMapping[msg.sender]==true */\n      iszero\n      iszero\n        /* \"052MultiSignWallet.sol\":1311:1325  isOwnerMapping */\n      0x01\n        /* \"052MultiSignWallet.sol\":1311:1337  isOwnerMapping[msg.sender] */\n      0x00\n        /* \"052MultiSignWallet.sol\":1326:1336  msg.sender */\n      caller\n        /* \"052MultiSignWallet.sol\":1311:1337  isOwnerMapping[msg.sender] */\n      0xffffffffffffffffffffffffffffffffffffffff\n      and\n      0xffffffffffffffffffffffffffffffffffffffff\n      and\n      dup2\n      mstore\n      0x20\n      add\n      swap1\n      dup2\n      mstore\n      0x20\n      add\n      0x00\n      keccak256\n      0x00\n      swap1\n      sload\n      swap1\n      0x0100\n      exp\n      swap1\n      div\n      0xff\n      and\n        /* \"052MultiSignWallet.sol\":1311:1343  isOwnerMapping[msg.sender]==true */\n      iszero\n      iszero\n      eq\n        /* \"052MultiSignWallet.sol\":1302:1356  require (isOwnerMapping[msg.sender]==true,\"not owner\") */\n      tag_101\n      jumpi\n      mload(0x40)\n      0x08c379a000000000000000000000000000000000000000000000000000000000\n      dup2\n      mstore\n      0x04\n      add\n      tag_102\n      swap1\n      tag_68\n      jump\t// in\n    tag_102:\n      mload(0x40)\n      dup1\n      swap2\n      sub\n      swap1\n      revert\n    tag_101:\n        /* \"052MultiSignWallet.sol\":2798:2803  _txId */\n      dup1\n        /* \"052MultiSignWallet.sol\":2824:2829  _txId */\n      dup2\n        /* \"052MultiSignWallet.sol\":2845:2867  Transaction storage t1 */\n      0x00\n        /* \"052MultiSignWallet.sol\":2870:2882  transactions */\n      0x03\n        /* \"052MultiSignWallet.sol\":2883:2888  _txId */\n      dup5\n        /* \"052MultiSignWallet.sol\":2870:2889  transactions[_txId] */\n      dup2\n      sload\n      dup2\n      lt\n      tag_106\n      jumpi\n      tag_107\n      tag_108\n      jump\t// in\n    tag_107:\n    tag_106:\n      swap1\n      0x00\n      mstore\n      keccak256(0x00, 0x20)\n      swap1\n      0x04\n      mul\n      add\n        /* \"052MultiSignWallet.sol\":2845:2889  Transaction storage t1 = transactions[_txId] */\n      swap1\n      pop\n        /* \"052MultiSignWallet.sol\":2900:2909  bool sent */\n      0x00\n        /* \"052MultiSignWallet.sol\":2927:2929  t1 */\n      dup2\n        /* \"052MultiSignWallet.sol\":2927:2932  t1.to */\n      0x00\n      add\n      0x00\n      swap1\n      sload\n      swap1\n      0x0100\n      exp\n      swap1\n      div\n      0xffffffffffffffffffffffffffffffffffffffff\n      and\n        /* \"052MultiSignWallet.sol\":2927:2937  t1.to.call */\n      0xffffffffffffffffffffffffffffffffffffffff\n      and\n        /* \"052MultiSignWallet.sol\":2944:2946  t1 */\n      dup3\n        /* \"052MultiSignWallet.sol\":2944:2953  t1.amount */\n      0x03\n      add\n      sload\n        /* \"052MultiSignWallet.sol\":2955:2957  t1 */\n      dup4\n        /* \"052MultiSignWallet.sol\":2955:2962  t1.data */\n      0x01\n      add\n        /* \"052MultiSignWallet.sol\":2927:2963  t1.to.call{value:t1.amount}(t1.data) */\n      mload(0x40)\n      tag_110\n      swap2\n      swap1\n      tag_111\n      jump\t// in\n    tag_110:\n      0x00\n      mload(0x40)\n      dup1\n      dup4\n      sub\n      dup2\n      dup6\n      dup8\n      gas\n      call\n      swap3\n      pop\n      pop\n      pop\n      returndatasize\n      dup1\n      0x00\n      dup2\n      eq\n      tag_114\n      jumpi\n      mload(0x40)\n      swap2\n      pop\n      and(add(returndatasize, 0x3f), not(0x1f))\n      dup3\n      add\n      0x40\n      mstore\n      returndatasize\n      dup3\n      mstore\n      returndatasize\n      0x00\n      0x20\n      dup5\n      add\n      returndatacopy\n      jump(tag_113)\n    tag_114:\n      0x60\n      swap2\n      pop\n    tag_113:\n      pop\n        /* \"052MultiSignWallet.sol\":2899:2963  (bool sent,) = ... */\n      pop\n      swap1\n      pop\n        /* \"052MultiSignWallet.sol\":2981:2985  sent */\n      dup1\n        /* \"052MultiSignWallet.sol\":2973:2998  require(sent,\"fail call\") */\n      tag_115\n      jumpi\n      mload(0x40)\n      0x08c379a000000000000000000000000000000000000000000000000000000000\n      dup2\n      mstore\n      0x04\n      add\n      tag_116\n      swap1\n      tag_117\n      jump\t// in\n    tag_116:\n      mload(0x40)\n      dup1\n      swap2\n      sub\n      swap1\n      revert\n    tag_115:\n        /* \"052MultiSignWallet.sol\":3047:3051  true */\n      0x01\n        /* \"052MultiSignWallet.sol\":3033:3035  t1 */\n      dup3\n        /* \"052MultiSignWallet.sol\":3033:3044  t1.executed */\n      0x02\n      add\n      0x00\n        /* \"052MultiSignWallet.sol\":3033:3051  t1.executed  =true */\n      0x0100\n      exp\n      dup2\n      sload\n      dup2\n      0xff\n      mul\n      not\n      and\n      swap1\n      dup4\n      iszero\n      iszero\n      mul\n      or\n      swap1\n      sstore\n      pop\n        /* \"052MultiSignWallet.sol\":3086:3091  _txId */\n      dup5\n        /* \"052MultiSignWallet.sol\":3074:3084  msg.sender */\n      caller\n        /* \"052MultiSignWallet.sol\":3066:3092  Execute(msg.sender, _txId) */\n      0xffffffffffffffffffffffffffffffffffffffff\n      and\n      0x892cd8f5b436bd5fb7dac1f11aafb73345d892ba3e9fe09cd94d95ba84928e73\n      mload(0x40)\n      mload(0x40)\n      dup1\n      swap2\n      sub\n      swap1\n      log3\n        /* \"052MultiSignWallet.sol\":2835:3108  {... */\n      pop\n      pop\n        /* \"052MultiSignWallet.sol\":2177:2178  _ */\n      pop\n        /* \"052MultiSignWallet.sol\":1366:1367  _ */\n      pop\n        /* \"052MultiSignWallet.sol\":2731:3108  function execute(uint _txId) ... */\n      pop\n      jump\t// out\n        /* \"#utility.yul\":7:84   */\n    tag_118:\n        /* \"#utility.yul\":44:51   */\n      0x00\n        /* \"#utility.yul\":73:78   */\n      dup2\n        /* \"#utility.yul\":62:78   */\n      swap1\n      pop\n        /* \"#utility.yul\":7:84   */\n      swap2\n      swap1\n      pop\n      jump\t// out\n        /* \"#utility.yul\":90:208   */\n    tag_119:\n        /* \"#utility.yul\":177:201   */\n      tag_171\n        /* \"#utility.yul\":195:200   */\n      dup2\n        /* \"#utility.yul\":177:201   */\n      tag_118\n      jump\t// in\n    tag_171:\n        /* \"#utility.yul\":172:175   */\n      dup3\n        /* \"#utility.yul\":165:202   */\n      mstore\n        /* \"#utility.yul\":90:208   */\n      pop\n      pop\n      jump\t// out\n        /* \"#utility.yul\":214:436   */\n    tag_16:\n        /* \"#utility.yul\":307:311   */\n      0x00\n        /* \"#utility.yul\":345:347   */\n      0x20\n        /* \"#utility.yul\":334:343   */\n      dup3\n        /* \"#utility.yul\":330:348   */\n      add\n        /* \"#utility.yul\":322:348   */\n      swap1\n      pop\n        /* \"#utility.yul\":358:429   */\n      tag_173\n        /* \"#utility.yul\":426:427   */\n      0x00\n        /* \"#utility.yul\":415:424   */\n      dup4\n        /* \"#utility.yul\":411:428   */\n      add\n        /* \"#utility.yul\":402:408   */\n      dup5\n        /* \"#utility.yul\":358:429   */\n      tag_119\n      jump\t// in\n    tag_173:\n        /* \"#utility.yul\":214:436   */\n      swap3\n      swap2\n      pop\n      pop\n      jump\t// out\n        /* \"#utility.yul\":523:640   */\n    tag_121:\n        /* \"#utility.yul\":632:633   */\n      0x00\n        /* \"#utility.yul\":629:630   */\n      dup1\n        /* \"#utility.yul\":622:634   */\n      revert\n        /* \"#utility.yul\":646:763   */\n    tag_122:\n        /* \"#utility.yul\":755:756   */\n      0x00\n        /* \"#utility.yul\":752:753   */\n      dup1\n        /* \"#utility.yul\":745:757   */\n      revert\n        /* \"#utility.yul\":769:891   */\n    tag_123:\n        /* \"#utility.yul\":842:866   */\n      tag_178\n        /* \"#utility.yul\":860:865   */\n      dup2\n        /* \"#utility.yul\":842:866   */\n      tag_118\n      jump\t// in\n    tag_178:\n        /* \"#utility.yul\":835:840   */\n      dup2\n        /* \"#utility.yul\":832:867   */\n      eq\n        /* \"#utility.yul\":822:885   */\n      tag_179\n      jumpi\n        /* \"#utility.yul\":881:882   */\n      0x00\n        /* \"#utility.yul\":878:879   */\n      dup1\n        /* \"#utility.yul\":871:883   */\n      revert\n        /* \"#utility.yul\":822:885   */\n    tag_179:\n        /* \"#utility.yul\":769:891   */\n      pop\n      jump\t// out\n        /* \"#utility.yul\":897:1036   */\n    tag_124:\n        /* \"#utility.yul\":943:948   */\n      0x00\n        /* \"#utility.yul\":981:987   */\n      dup2\n        /* \"#utility.yul\":968:988   */\n      calldataload\n        /* \"#utility.yul\":959:988   */\n      swap1\n      pop\n        /* \"#utility.yul\":997:1030   */\n      tag_181\n        /* \"#utility.yul\":1024:1029   */\n      dup2\n        /* \"#utility.yul\":997:1030   */\n      tag_123\n      jump\t// in\n    tag_181:\n        /* \"#utility.yul\":897:1036   */\n      swap3\n      swap2\n      pop\n      pop\n      jump\t// out\n        /* \"#utility.yul\":1042:1371   */\n    tag_20:\n        /* \"#utility.yul\":1101:1107   */\n      0x00\n        /* \"#utility.yul\":1150:1152   */\n      0x20\n        /* \"#utility.yul\":1138:1147   */\n      dup3\n        /* \"#utility.yul\":1129:1136   */\n      dup5\n        /* \"#utility.yul\":1125:1148   */\n      sub\n        /* \"#utility.yul\":1121:1153   */\n      slt\n        /* \"#utility.yul\":1118:1237   */\n      iszero\n      tag_183\n      jumpi\n        /* \"#utility.yul\":1156:1235   */\n      tag_184\n      tag_121\n      jump\t// in\n    tag_184:\n        /* \"#utility.yul\":1118:1237   */\n    tag_183:\n        /* \"#utility.yul\":1276:1277   */\n      0x00\n        /* \"#utility.yul\":1301:1354   */\n      tag_185\n        /* \"#utility.yul\":1346:1353   */\n      dup5\n        /* \"#utility.yul\":1337:1343   */\n      dup3\n        /* \"#utility.yul\":1326:1335   */\n      dup6\n        /* \"#utility.yul\":1322:1344   */\n      add\n        /* \"#utility.yul\":1301:1354   */\n      tag_124\n      jump\t// in\n    tag_185:\n        /* \"#utility.yul\":1291:1354   */\n      swap2\n      pop\n        /* \"#utility.yul\":1247:1364   */\n      pop\n        /* \"#utility.yul\":1042:1371   */\n      swap3\n      swap2\n      pop\n      pop\n      jump\t// out\n        /* \"#utility.yul\":1377:1503   */\n    tag_125:\n        /* \"#utility.yul\":1414:1421   */\n      0x00\n        /* \"#utility.yul\":1454:1496   */\n      0xffffffffffffffffffffffffffffffffffffffff\n        /* \"#utility.yul\":1447:1452   */\n      dup3\n        /* \"#utility.yul\":1443:1497   */\n      and\n        /* \"#utility.yul\":1432:1497   */\n      swap1\n      pop\n        /* \"#utility.yul\":1377:1503   */\n      swap2\n      swap1\n      pop\n      jump\t// out\n        /* \"#utility.yul\":1509:1605   */\n    tag_126:\n        /* \"#utility.yul\":1546:1553   */\n      0x00\n        /* \"#utility.yul\":1575:1599   */\n      tag_188\n        /* \"#utility.yul\":1593:1598   */\n      dup3\n        /* \"#utility.yul\":1575:1599   */\n      tag_125\n      jump\t// in\n    tag_188:\n        /* \"#utility.yul\":1564:1599   */\n      swap1\n      pop\n        /* \"#utility.yul\":1509:1605   */\n      swap2\n      swap1\n      pop\n      jump\t// out\n        /* \"#utility.yul\":1611:1729   */\n    tag_127:\n        /* \"#utility.yul\":1698:1722   */\n      tag_190\n        /* \"#utility.yul\":1716:1721   */\n      dup2\n        /* \"#utility.yul\":1698:1722   */\n      tag_126\n      jump\t// in\n    tag_190:\n        /* \"#utility.yul\":1693:1696   */\n      dup3\n        /* \"#utility.yul\":1686:1723   */\n      mstore\n        /* \"#utility.yul\":1611:1729   */\n      pop\n      pop\n      jump\t// out\n        /* \"#utility.yul\":1735:1957   */\n    tag_23:\n        /* \"#utility.yul\":1828:1832   */\n      0x00\n        /* \"#utility.yul\":1866:1868   */\n      0x20\n        /* \"#utility.yul\":1855:1864   */\n      dup3\n        /* \"#utility.yul\":1851:1869   */\n      add\n        /* \"#utility.yul\":1843:1869   */\n      swap1\n      pop\n        /* \"#utility.yul\":1879:1950   */\n      tag_192\n        /* \"#utility.yul\":1947:1948   */\n      0x00\n        /* \"#utility.yul\":1936:1945   */\n      dup4\n        /* \"#utility.yul\":1932:1949   */\n      add\n        /* \"#utility.yul\":1923:1929   */\n      dup5\n        /* \"#utility.yul\":1879:1950   */\n      tag_127\n      jump\t// in\n    tag_192:\n        /* \"#utility.yul\":1735:1957   */\n      swap3\n      swap2\n      pop\n      pop\n      jump\t// out\n        /* \"#utility.yul\":1963:2085   */\n    tag_128:\n        /* \"#utility.yul\":2036:2060   */\n      tag_194\n        /* \"#utility.yul\":2054:2059   */\n      dup2\n        /* \"#utility.yul\":2036:2060   */\n      tag_126\n      jump\t// in\n    tag_194:\n        /* \"#utility.yul\":2029:2034   */\n      dup2\n        /* \"#utility.yul\":2026:2061   */\n      eq\n        /* \"#utility.yul\":2016:2079   */\n      tag_195\n      jumpi\n        /* \"#utility.yul\":2075:2076   */\n      0x00\n        /* \"#utility.yul\":2072:2073   */\n      dup1\n        /* \"#utility.yul\":2065:2077   */\n      revert\n        /* \"#utility.yul\":2016:2079   */\n    tag_195:\n        /* \"#utility.yul\":1963:2085   */\n      pop\n      jump\t// out\n        /* \"#utility.yul\":2091:2230   */\n    tag_129:\n        /* \"#utility.yul\":2137:2142   */\n      0x00\n        /* \"#utility.yul\":2175:2181   */\n      dup2\n        /* \"#utility.yul\":2162:2182   */\n      calldataload\n        /* \"#utility.yul\":2153:2182   */\n      swap1\n      pop\n        /* \"#utility.yul\":2191:2224   */\n      tag_197\n        /* \"#utility.yul\":2218:2223   */\n      dup2\n        /* \"#utility.yul\":2191:2224   */\n      tag_128\n      jump\t// in\n    tag_197:\n        /* \"#utility.yul\":2091:2230   */\n      swap3\n      swap2\n      pop\n      pop\n      jump\t// out\n        /* \"#utility.yul\":2236:2565   */\n    tag_27:\n        /* \"#utility.yul\":2295:2301   */\n      0x00\n        /* \"#utility.yul\":2344:2346   */\n      0x20\n        /* \"#utility.yul\":2332:2341   */\n      dup3\n        /* \"#utility.yul\":2323:2330   */\n      dup5\n        /* \"#utility.yul\":2319:2342   */\n      sub\n        /* \"#utility.yul\":2315:2347   */\n      slt\n        /* \"#utility.yul\":2312:2431   */\n      iszero\n      tag_199\n      jumpi\n        /* \"#utility.yul\":2350:2429   */\n      tag_200\n      tag_121\n      jump\t// in\n    tag_200:\n        /* \"#utility.yul\":2312:2431   */\n    tag_199:\n        /* \"#utility.yul\":2470:2471   */\n      0x00\n        /* \"#utility.yul\":2495:2548   */\n      tag_201\n        /* \"#utility.yul\":2540:2547   */\n      dup5\n        /* \"#utility.yul\":2531:2537   */\n      dup3\n        /* \"#utility.yul\":2520:2529   */\n      dup6\n        /* \"#utility.yul\":2516:2538   */\n      add\n        /* \"#utility.yul\":2495:2548   */\n      tag_129\n      jump\t// in\n    tag_201:\n        /* \"#utility.yul\":2485:2548   */\n      swap2\n      pop\n        /* \"#utility.yul\":2441:2558   */\n      pop\n        /* \"#utility.yul\":2236:2565   */\n      swap3\n      swap2\n      pop\n      pop\n      jump\t// out\n        /* \"#utility.yul\":2571:2661   */\n    tag_130:\n        /* \"#utility.yul\":2605:2612   */\n      0x00\n        /* \"#utility.yul\":2648:2653   */\n      dup2\n        /* \"#utility.yul\":2641:2654   */\n      iszero\n        /* \"#utility.yul\":2634:2655   */\n      iszero\n        /* \"#utility.yul\":2623:2655   */\n      swap1\n      pop\n        /* \"#utility.yul\":2571:2661   */\n      swap2\n      swap1\n      pop\n      jump\t// out\n        /* \"#utility.yul\":2667:2776   */\n    tag_131:\n        /* \"#utility.yul\":2748:2769   */\n      tag_204\n        /* \"#utility.yul\":2763:2768   */\n      dup2\n        /* \"#utility.yul\":2748:2769   */\n      tag_130\n      jump\t// in\n    tag_204:\n        /* \"#utility.yul\":2743:2746   */\n      dup3\n        /* \"#utility.yul\":2736:2770   */\n      mstore\n        /* \"#utility.yul\":2667:2776   */\n      pop\n      pop\n      jump\t// out\n        /* \"#utility.yul\":2782:2992   */\n    tag_30:\n        /* \"#utility.yul\":2869:2873   */\n      0x00\n        /* \"#utility.yul\":2907:2909   */\n      0x20\n        /* \"#utility.yul\":2896:2905   */\n      dup3\n        /* \"#utility.yul\":2892:2910   */\n      add\n        /* \"#utility.yul\":2884:2910   */\n      swap1\n      pop\n        /* \"#utility.yul\":2920:2985   */\n      tag_206\n        /* \"#utility.yul\":2982:2983   */\n      0x00\n        /* \"#utility.yul\":2971:2980   */\n      dup4\n        /* \"#utility.yul\":2967:2984   */\n      add\n        /* \"#utility.yul\":2958:2964   */\n      dup5\n        /* \"#utility.yul\":2920:2985   */\n      tag_131\n      jump\t// in\n    tag_206:\n        /* \"#utility.yul\":2782:2992   */\n      swap3\n      swap2\n      pop\n      pop\n      jump\t// out\n        /* \"#utility.yul\":2998:3115   */\n    tag_132:\n        /* \"#utility.yul\":3107:3108   */\n      0x00\n        /* \"#utility.yul\":3104:3105   */\n      dup1\n        /* \"#utility.yul\":3097:3109   */\n      revert\n        /* \"#utility.yul\":3121:3238   */\n    tag_133:\n        /* \"#utility.yul\":3230:3231   */\n      0x00\n        /* \"#utility.yul\":3227:3228   */\n      dup1\n        /* \"#utility.yul\":3220:3232   */\n      revert\n        /* \"#utility.yul\":3244:3361   */\n    tag_134:\n        /* \"#utility.yul\":3353:3354   */\n      0x00\n        /* \"#utility.yul\":3350:3351   */\n      dup1\n        /* \"#utility.yul\":3343:3355   */\n      revert\n        /* \"#utility.yul\":3380:3932   */\n    tag_135:\n        /* \"#utility.yul\":3437:3445   */\n      0x00\n        /* \"#utility.yul\":3447:3453   */\n      dup1\n        /* \"#utility.yul\":3497:3500   */\n      dup4\n        /* \"#utility.yul\":3490:3494   */\n      0x1f\n        /* \"#utility.yul\":3482:3488   */\n      dup5\n        /* \"#utility.yul\":3478:3495   */\n      add\n        /* \"#utility.yul\":3474:3501   */\n      slt\n        /* \"#utility.yul\":3464:3586   */\n      tag_211\n      jumpi\n        /* \"#utility.yul\":3505:3584   */\n      tag_212\n      tag_132\n      jump\t// in\n    tag_212:\n        /* \"#utility.yul\":3464:3586   */\n    tag_211:\n        /* \"#utility.yul\":3618:3624   */\n      dup3\n        /* \"#utility.yul\":3605:3625   */\n      calldataload\n        /* \"#utility.yul\":3595:3625   */\n      swap1\n      pop\n        /* \"#utility.yul\":3648:3666   */\n      0xffffffffffffffff\n        /* \"#utility.yul\":3640:3646   */\n      dup2\n        /* \"#utility.yul\":3637:3667   */\n      gt\n        /* \"#utility.yul\":3634:3751   */\n      iszero\n      tag_213\n      jumpi\n        /* \"#utility.yul\":3670:3749   */\n      tag_214\n      tag_133\n      jump\t// in\n    tag_214:\n        /* \"#utility.yul\":3634:3751   */\n    tag_213:\n        /* \"#utility.yul\":3784:3788   */\n      0x20\n        /* \"#utility.yul\":3776:3782   */\n      dup4\n        /* \"#utility.yul\":3772:3789   */\n      add\n        /* \"#utility.yul\":3760:3789   */\n      swap2\n      pop\n        /* \"#utility.yul\":3838:3841   */\n      dup4\n        /* \"#utility.yul\":3830:3834   */\n      0x01\n        /* \"#utility.yul\":3822:3828   */\n      dup3\n        /* \"#utility.yul\":3818:3835   */\n      mul\n        /* \"#utility.yul\":3808:3816   */\n      dup4\n        /* \"#utility.yul\":3804:3836   */\n      add\n        /* \"#utility.yul\":3801:3842   */\n      gt\n        /* \"#utility.yul\":3798:3926   */\n      iszero\n      tag_215\n      jumpi\n        /* \"#utility.yul\":3845:3924   */\n      tag_216\n      tag_134\n      jump\t// in\n    tag_216:\n        /* \"#utility.yul\":3798:3926   */\n    tag_215:\n        /* \"#utility.yul\":3380:3932   */\n      swap3\n      pop\n      swap3\n      swap1\n      pop\n      jump\t// out\n        /* \"#utility.yul\":3938:4755   */\n    tag_33:\n        /* \"#utility.yul\":4026:4032   */\n      0x00\n        /* \"#utility.yul\":4034:4040   */\n      dup1\n        /* \"#utility.yul\":4042:4048   */\n      0x00\n        /* \"#utility.yul\":4050:4056   */\n      dup1\n        /* \"#utility.yul\":4099:4101   */\n      0x60\n        /* \"#utility.yul\":4087:4096   */\n      dup6\n        /* \"#utility.yul\":4078:4085   */\n      dup8\n        /* \"#utility.yul\":4074:4097   */\n      sub\n        /* \"#utility.yul\":4070:4102   */\n      slt\n        /* \"#utility.yul\":4067:4186   */\n      iszero\n      tag_218\n      jumpi\n        /* \"#utility.yul\":4105:4184   */\n      tag_219\n      tag_121\n      jump\t// in\n    tag_219:\n        /* \"#utility.yul\":4067:4186   */\n    tag_218:\n        /* \"#utility.yul\":4225:4226   */\n      0x00\n        /* \"#utility.yul\":4250:4303   */\n      tag_220\n        /* \"#utility.yul\":4295:4302   */\n      dup8\n        /* \"#utility.yul\":4286:4292   */\n      dup3\n        /* \"#utility.yul\":4275:4284   */\n      dup9\n        /* \"#utility.yul\":4271:4293   */\n      add\n        /* \"#utility.yul\":4250:4303   */\n      tag_129\n      jump\t// in\n    tag_220:\n        /* \"#utility.yul\":4240:4303   */\n      swap5\n      pop\n        /* \"#utility.yul\":4196:4313   */\n      pop\n        /* \"#utility.yul\":4352:4354   */\n      0x20\n        /* \"#utility.yul\":4378:4431   */\n      tag_221\n        /* \"#utility.yul\":4423:4430   */\n      dup8\n        /* \"#utility.yul\":4414:4420   */\n      dup3\n        /* \"#utility.yul\":4403:4412   */\n      dup9\n        /* \"#utility.yul\":4399:4421   */\n      add\n        /* \"#utility.yul\":4378:4431   */\n      tag_124\n      jump\t// in\n    tag_221:\n        /* \"#utility.yul\":4368:4431   */\n      swap4\n      pop\n        /* \"#utility.yul\":4323:4441   */\n      pop\n        /* \"#utility.yul\":4508:4510   */\n      0x40\n        /* \"#utility.yul\":4497:4506   */\n      dup6\n        /* \"#utility.yul\":4493:4511   */\n      add\n        /* \"#utility.yul\":4480:4512   */\n      calldataload\n        /* \"#utility.yul\":4539:4557   */\n      0xffffffffffffffff\n        /* \"#utility.yul\":4531:4537   */\n      dup2\n        /* \"#utility.yul\":4528:4558   */\n      gt\n        /* \"#utility.yul\":4525:4642   */\n      iszero\n      tag_222\n      jumpi\n        /* \"#utility.yul\":4561:4640   */\n      tag_223\n      tag_122\n      jump\t// in\n    tag_223:\n        /* \"#utility.yul\":4525:4642   */\n    tag_222:\n        /* \"#utility.yul\":4674:4738   */\n      tag_224\n        /* \"#utility.yul\":4730:4737   */\n      dup8\n        /* \"#utility.yul\":4721:4727   */\n      dup3\n        /* \"#utility.yul\":4710:4719   */\n      dup9\n        /* \"#utility.yul\":4706:4728   */\n      add\n        /* \"#utility.yul\":4674:4738   */\n      tag_135\n      jump\t// in\n    tag_224:\n        /* \"#utility.yul\":4656:4738   */\n      swap3\n      pop\n      swap3\n      pop\n        /* \"#utility.yul\":4451:4748   */\n      pop\n        /* \"#utility.yul\":3938:4755   */\n      swap3\n      swap6\n      swap2\n      swap5\n      pop\n      swap3\n      pop\n      jump\t// out\n        /* \"#utility.yul\":4761:4859   */\n    tag_136:\n        /* \"#utility.yul\":4812:4818   */\n      0x00\n        /* \"#utility.yul\":4846:4851   */\n      dup2\n        /* \"#utility.yul\":4840:4852   */\n      mload\n        /* \"#utility.yul\":4830:4852   */\n      swap1\n      pop\n        /* \"#utility.yul\":4761:4859   */\n      swap2\n      swap1\n      pop\n      jump\t// out\n        /* \"#utility.yul\":4865:5033   */\n    tag_137:\n        /* \"#utility.yul\":4948:4959   */\n      0x00\n        /* \"#utility.yul\":4982:4988   */\n      dup3\n        /* \"#utility.yul\":4977:4980   */\n      dup3\n        /* \"#utility.yul\":4970:4989   */\n      mstore\n        /* \"#utility.yul\":5022:5026   */\n      0x20\n        /* \"#utility.yul\":5017:5020   */\n      dup3\n        /* \"#utility.yul\":5013:5027   */\n      add\n        /* \"#utility.yul\":4998:5027   */\n      swap1\n      pop\n        /* \"#utility.yul\":4865:5033   */\n      swap3\n      swap2\n      pop\n      pop\n      jump\t// out\n        /* \"#utility.yul\":5039:5178   */\n    tag_138:\n        /* \"#utility.yul\":5128:5134   */\n      dup3\n        /* \"#utility.yul\":5123:5126   */\n      dup2\n        /* \"#utility.yul\":5118:5121   */\n      dup4\n        /* \"#utility.yul\":5112:5135   */\n      mcopy\n        /* \"#utility.yul\":5169:5170   */\n      0x00\n        /* \"#utility.yul\":5160:5166   */\n      dup4\n        /* \"#utility.yul\":5155:5158   */\n      dup4\n        /* \"#utility.yul\":5151:5167   */\n      add\n        /* \"#utility.yul\":5144:5171   */\n      mstore\n        /* \"#utility.yul\":5039:5178   */\n      pop\n      pop\n      pop\n      jump\t// out\n        /* \"#utility.yul\":5184:5286   */\n    tag_139:\n        /* \"#utility.yul\":5225:5231   */\n      0x00\n        /* \"#utility.yul\":5276:5278   */\n      0x1f\n        /* \"#utility.yul\":5272:5279   */\n      not\n        /* \"#utility.yul\":5267:5269   */\n      0x1f\n        /* \"#utility.yul\":5260:5265   */\n      dup4\n        /* \"#utility.yul\":5256:5270   */\n      add\n        /* \"#utility.yul\":5252:5280   */\n      and\n        /* \"#utility.yul\":5242:5280   */\n      swap1\n      pop\n        /* \"#utility.yul\":5184:5286   */\n      swap2\n      swap1\n      pop\n      jump\t// out\n        /* \"#utility.yul\":5292:5665   */\n    tag_140:\n        /* \"#utility.yul\":5378:5381   */\n      0x00\n        /* \"#utility.yul\":5406:5444   */\n      tag_230\n        /* \"#utility.yul\":5438:5443   */\n      dup3\n        /* \"#utility.yul\":5406:5444   */\n      tag_136\n      jump\t// in\n    tag_230:\n        /* \"#utility.yul\":5460:5530   */\n      tag_231\n        /* \"#utility.yul\":5523:5529   */\n      dup2\n        /* \"#utility.yul\":5518:5521   */\n      dup6\n        /* \"#utility.yul\":5460:5530   */\n      tag_137\n      jump\t// in\n    tag_231:\n        /* \"#utility.yul\":5453:5530   */\n      swap4\n      pop\n        /* \"#utility.yul\":5539:5604   */\n      tag_232\n        /* \"#utility.yul\":5597:5603   */\n      dup2\n        /* \"#utility.yul\":5592:5595   */\n      dup6\n        /* \"#utility.yul\":5585:5589   */\n      0x20\n        /* \"#utility.yul\":5578:5583   */\n      dup7\n        /* \"#utility.yul\":5574:5590   */\n      add\n        /* \"#utility.yul\":5539:5604   */\n      tag_138\n      jump\t// in\n    tag_232:\n        /* \"#utility.yul\":5629:5658   */\n      tag_233\n        /* \"#utility.yul\":5651:5657   */\n      dup2\n        /* \"#utility.yul\":5629:5658   */\n      tag_139\n      jump\t// in\n    tag_233:\n        /* \"#utility.yul\":5624:5627   */\n      dup5\n        /* \"#utility.yul\":5620:5659   */\n      add\n        /* \"#utility.yul\":5613:5659   */\n      swap2\n      pop\n        /* \"#utility.yul\":5382:5665   */\n      pop\n        /* \"#utility.yul\":5292:5665   */\n      swap3\n      swap2\n      pop\n      pop\n      jump\t// out\n        /* \"#utility.yul\":5671:6299   */\n    tag_48:\n        /* \"#utility.yul\":5860:5864   */\n      0x00\n        /* \"#utility.yul\":5898:5901   */\n      0x80\n        /* \"#utility.yul\":5887:5896   */\n      dup3\n        /* \"#utility.yul\":5883:5902   */\n      add\n        /* \"#utility.yul\":5875:5902   */\n      swap1\n      pop\n        /* \"#utility.yul\":5912:5983   */\n      tag_235\n        /* \"#utility.yul\":5980:5981   */\n      0x00\n        /* \"#utility.yul\":5969:5978   */\n      dup4\n        /* \"#utility.yul\":5965:5982   */\n      add\n        /* \"#utility.yul\":5956:5962   */\n      dup8\n        /* \"#utility.yul\":5912:5983   */\n      tag_127\n      jump\t// in\n    tag_235:\n        /* \"#utility.yul\":6030:6039   */\n      dup2\n        /* \"#utility.yul\":6024:6028   */\n      dup2\n        /* \"#utility.yul\":6020:6040   */\n      sub\n        /* \"#utility.yul\":6015:6017   */\n      0x20\n        /* \"#utility.yul\":6004:6013   */\n      dup4\n        /* \"#utility.yul\":6000:6018   */\n      add\n        /* \"#utility.yul\":5993:6041   */\n      mstore\n        /* \"#utility.yul\":6058:6134   */\n      tag_236\n        /* \"#utility.yul\":6129:6133   */\n      dup2\n        /* \"#utility.yul\":6120:6126   */\n      dup7\n        /* \"#utility.yul\":6058:6134   */\n      tag_140\n      jump\t// in\n    tag_236:\n        /* \"#utility.yul\":6050:6134   */\n      swap1\n      pop\n        /* \"#utility.yul\":6144:6210   */\n      tag_237\n        /* \"#utility.yul\":6206:6208   */\n      0x40\n        /* \"#utility.yul\":6195:6204   */\n      dup4\n        /* \"#utility.yul\":6191:6209   */\n      add\n        /* \"#utility.yul\":6182:6188   */\n      dup6\n        /* \"#utility.yul\":6144:6210   */\n      tag_131\n      jump\t// in\n    tag_237:\n        /* \"#utility.yul\":6220:6292   */\n      tag_238\n        /* \"#utility.yul\":6288:6290   */\n      0x60\n        /* \"#utility.yul\":6277:6286   */\n      dup4\n        /* \"#utility.yul\":6273:6291   */\n      add\n        /* \"#utility.yul\":6264:6270   */\n      dup5\n        /* \"#utility.yul\":6220:6292   */\n      tag_119\n      jump\t// in\n    tag_238:\n        /* \"#utility.yul\":5671:6299   */\n      swap6\n      swap5\n      pop\n      pop\n      pop\n      pop\n      pop\n      jump\t// out\n        /* \"#utility.yul\":6305:6779   */\n    tag_56:\n        /* \"#utility.yul\":6373:6379   */\n      0x00\n        /* \"#utility.yul\":6381:6387   */\n      dup1\n        /* \"#utility.yul\":6430:6432   */\n      0x40\n        /* \"#utility.yul\":6418:6427   */\n      dup4\n        /* \"#utility.yul\":6409:6416   */\n      dup6\n        /* \"#utility.yul\":6405:6428   */\n      sub\n        /* \"#utility.yul\":6401:6433   */\n      slt\n        /* \"#utility.yul\":6398:6517   */\n      iszero\n      tag_240\n      jumpi\n        /* \"#utility.yul\":6436:6515   */\n      tag_241\n      tag_121\n      jump\t// in\n    tag_241:\n        /* \"#utility.yul\":6398:6517   */\n    tag_240:\n        /* \"#utility.yul\":6556:6557   */\n      0x00\n        /* \"#utility.yul\":6581:6634   */\n      tag_242\n        /* \"#utility.yul\":6626:6633   */\n      dup6\n        /* \"#utility.yul\":6617:6623   */\n      dup3\n        /* \"#utility.yul\":6606:6615   */\n      dup7\n        /* \"#utility.yul\":6602:6624   */\n      add\n        /* \"#utility.yul\":6581:6634   */\n      tag_124\n      jump\t// in\n    tag_242:\n        /* \"#utility.yul\":6571:6634   */\n      swap3\n      pop\n        /* \"#utility.yul\":6527:6644   */\n      pop\n        /* \"#utility.yul\":6683:6685   */\n      0x20\n        /* \"#utility.yul\":6709:6762   */\n      tag_243\n        /* \"#utility.yul\":6754:6761   */\n      dup6\n        /* \"#utility.yul\":6745:6751   */\n      dup3\n        /* \"#utility.yul\":6734:6743   */\n      dup7\n        /* \"#utility.yul\":6730:6752   */\n      add\n        /* \"#utility.yul\":6709:6762   */\n      tag_129\n      jump\t// in\n    tag_243:\n        /* \"#utility.yul\":6699:6762   */\n      swap2\n      pop\n        /* \"#utility.yul\":6654:6772   */\n      pop\n        /* \"#utility.yul\":6305:6779   */\n      swap3\n      pop\n      swap3\n      swap1\n      pop\n      jump\t// out\n        /* \"#utility.yul\":6785:6954   */\n    tag_141:\n        /* \"#utility.yul\":6869:6880   */\n      0x00\n        /* \"#utility.yul\":6903:6909   */\n      dup3\n        /* \"#utility.yul\":6898:6901   */\n      dup3\n        /* \"#utility.yul\":6891:6910   */\n      mstore\n        /* \"#utility.yul\":6943:6947   */\n      0x20\n        /* \"#utility.yul\":6938:6941   */\n      dup3\n        /* \"#utility.yul\":6934:6948   */\n      add\n        /* \"#utility.yul\":6919:6948   */\n      swap1\n      pop\n        /* \"#utility.yul\":6785:6954   */\n      swap3\n      swap2\n      pop\n      pop\n      jump\t// out\n        /* \"#utility.yul\":6960:7119   */\n    tag_142:\n        /* \"#utility.yul\":7100:7111   */\n      0x6e6f74206f776e65720000000000000000000000000000000000000000000000\n        /* \"#utility.yul\":7096:7097   */\n      0x00\n        /* \"#utility.yul\":7088:7094   */\n      dup3\n        /* \"#utility.yul\":7084:7098   */\n      add\n        /* \"#utility.yul\":7077:7112   */\n      mstore\n        /* \"#utility.yul\":6960:7119   */\n      pop\n      jump\t// out\n        /* \"#utility.yul\":7125:7490   */\n    tag_143:\n        /* \"#utility.yul\":7267:7270   */\n      0x00\n        /* \"#utility.yul\":7288:7354   */\n      tag_247\n        /* \"#utility.yul\":7352:7353   */\n      0x09\n        /* \"#utility.yul\":7347:7350   */\n      dup4\n        /* \"#utility.yul\":7288:7354   */\n      tag_141\n      jump\t// in\n    tag_247:\n        /* \"#utility.yul\":7281:7354   */\n      swap2\n      pop\n        /* \"#utility.yul\":7363:7456   */\n      tag_248\n        /* \"#utility.yul\":7452:7455   */\n      dup3\n        /* \"#utility.yul\":7363:7456   */\n      tag_142\n      jump\t// in\n    tag_248:\n        /* \"#utility.yul\":7481:7483   */\n      0x20\n        /* \"#utility.yul\":7476:7479   */\n      dup3\n        /* \"#utility.yul\":7472:7484   */\n      add\n        /* \"#utility.yul\":7465:7484   */\n      swap1\n      pop\n        /* \"#utility.yul\":7125:7490   */\n      swap2\n      swap1\n      pop\n      jump\t// out\n        /* \"#utility.yul\":7496:7915   */\n    tag_68:\n        /* \"#utility.yul\":7662:7666   */\n      0x00\n        /* \"#utility.yul\":7700:7702   */\n      0x20\n        /* \"#utility.yul\":7689:7698   */\n      dup3\n        /* \"#utility.yul\":7685:7703   */\n      add\n        /* \"#utility.yul\":7677:7703   */\n      swap1\n      pop\n        /* \"#utility.yul\":7749:7758   */\n      dup2\n        /* \"#utility.yul\":7743:7747   */\n      dup2\n        /* \"#utility.yul\":7739:7759   */\n      sub\n        /* \"#utility.yul\":7735:7736   */\n      0x00\n        /* \"#utility.yul\":7724:7733   */\n      dup4\n        /* \"#utility.yul\":7720:7737   */\n      add\n        /* \"#utility.yul\":7713:7760   */\n      mstore\n        /* \"#utility.yul\":7777:7908   */\n      tag_250\n        /* \"#utility.yul\":7903:7907   */\n      dup2\n        /* \"#utility.yul\":7777:7908   */\n      tag_143\n      jump\t// in\n    tag_250:\n        /* \"#utility.yul\":7769:7908   */\n      swap1\n      pop\n        /* \"#utility.yul\":7496:7915   */\n      swap2\n      swap1\n      pop\n      jump\t// out\n        /* \"#utility.yul\":7921:8101   */\n    tag_144:\n        /* \"#utility.yul\":7969:8046   */\n      0x4e487b7100000000000000000000000000000000000000000000000000000000\n        /* \"#utility.yul\":7966:7967   */\n      0x00\n        /* \"#utility.yul\":7959:8047   */\n      mstore\n        /* \"#utility.yul\":8066:8070   */\n      0x41\n        /* \"#utility.yul\":8063:8064   */\n      0x04\n        /* \"#utility.yul\":8056:8071   */\n      mstore\n        /* \"#utility.yul\":8090:8094   */\n      0x24\n        /* \"#utility.yul\":8087:8088   */\n      0x00\n        /* \"#utility.yul\":8080:8095   */\n      revert\n        /* \"#utility.yul\":8107:8287   */\n    tag_145:\n        /* \"#utility.yul\":8155:8232   */\n      0x4e487b7100000000000000000000000000000000000000000000000000000000\n        /* \"#utility.yul\":8152:8153   */\n      0x00\n        /* \"#utility.yul\":8145:8233   */\n      mstore\n        /* \"#utility.yul\":8252:8256   */\n      0x22\n        /* \"#utility.yul\":8249:8250   */\n      0x04\n        /* \"#utility.yul\":8242:8257   */\n      mstore\n        /* \"#utility.yul\":8276:8280   */\n      0x24\n        /* \"#utility.yul\":8273:8274   */\n      0x00\n        /* \"#utility.yul\":8266:8281   */\n      revert\n        /* \"#utility.yul\":8293:8613   */\n    tag_88:\n        /* \"#utility.yul\":8337:8343   */\n      0x00\n        /* \"#utility.yul\":8374:8375   */\n      0x02\n        /* \"#utility.yul\":8368:8372   */\n      dup3\n        /* \"#utility.yul\":8364:8376   */\n      div\n        /* \"#utility.yul\":8354:8376   */\n      swap1\n      pop\n        /* \"#utility.yul\":8421:8422   */\n      0x01\n        /* \"#utility.yul\":8415:8419   */\n      dup3\n        /* \"#utility.yul\":8411:8423   */\n      and\n        /* \"#utility.yul\":8442:8460   */\n      dup1\n        /* \"#utility.yul\":8432:8513   */\n      tag_254\n      jumpi\n        /* \"#utility.yul\":8498:8502   */\n      0x7f\n        /* \"#utility.yul\":8490:8496   */\n      dup3\n        /* \"#utility.yul\":8486:8503   */\n      and\n        /* \"#utility.yul\":8476:8503   */\n      swap2\n      pop\n        /* \"#utility.yul\":8432:8513   */\n    tag_254:\n        /* \"#utility.yul\":8560:8562   */\n      0x20\n        /* \"#utility.yul\":8552:8558   */\n      dup3\n        /* \"#utility.yul\":8549:8563   */\n      lt\n        /* \"#utility.yul\":8529:8547   */\n      dup2\n        /* \"#utility.yul\":8526:8564   */\n      sub\n        /* \"#utility.yul\":8523:8607   */\n      tag_255\n      jumpi\n        /* \"#utility.yul\":8579:8597   */\n      tag_256\n      tag_145\n      jump\t// in\n    tag_256:\n        /* \"#utility.yul\":8523:8607   */\n    tag_255:\n        /* \"#utility.yul\":8344:8613   */\n      pop\n        /* \"#utility.yul\":8293:8613   */\n      swap2\n      swap1\n      pop\n      jump\t// out\n        /* \"#utility.yul\":8619:8759   */\n    tag_146:\n        /* \"#utility.yul\":8667:8671   */\n      0x00\n        /* \"#utility.yul\":8690:8693   */\n      dup2\n        /* \"#utility.yul\":8682:8693   */\n      swap1\n      pop\n        /* \"#utility.yul\":8713:8716   */\n      dup2\n        /* \"#utility.yul\":8710:8711   */\n      0x00\n        /* \"#utility.yul\":8703:8717   */\n      mstore\n        /* \"#utility.yul\":8747:8751   */\n      0x20\n        /* \"#utility.yul\":8744:8745   */\n      0x00\n        /* \"#utility.yul\":8734:8752   */\n      keccak256\n        /* \"#utility.yul\":8726:8752   */\n      swap1\n      pop\n        /* \"#utility.yul\":8619:8759   */\n      swap2\n      swap1\n      pop\n      jump\t// out\n        /* \"#utility.yul\":8765:8858   */\n    tag_147:\n        /* \"#utility.yul\":8802:8808   */\n      0x00\n        /* \"#utility.yul\":8849:8851   */\n      0x20\n        /* \"#utility.yul\":8844:8846   */\n      0x1f\n        /* \"#utility.yul\":8837:8842   */\n      dup4\n        /* \"#utility.yul\":8833:8847   */\n      add\n        /* \"#utility.yul\":8829:8852   */\n      div\n        /* \"#utility.yul\":8819:8852   */\n      swap1\n      pop\n        /* \"#utility.yul\":8765:8858   */\n      swap2\n      swap1\n      pop\n      jump\t// out\n        /* \"#utility.yul\":8864:8971   */\n    tag_148:\n        /* \"#utility.yul\":8908:8916   */\n      0x00\n        /* \"#utility.yul\":8958:8963   */\n      dup3\n        /* \"#utility.yul\":8952:8956   */\n      dup3\n        /* \"#utility.yul\":8948:8964   */\n      shl\n        /* \"#utility.yul\":8927:8964   */\n      swap1\n      pop\n        /* \"#utility.yul\":8864:8971   */\n      swap3\n      swap2\n      pop\n      pop\n      jump\t// out\n        /* \"#utility.yul\":8977:9370   */\n    tag_149:\n        /* \"#utility.yul\":9046:9052   */\n      0x00\n        /* \"#utility.yul\":9096:9097   */\n      0x08\n        /* \"#utility.yul\":9084:9094   */\n      dup4\n        /* \"#utility.yul\":9080:9098   */\n      mul\n        /* \"#utility.yul\":9119:9216   */\n      tag_261\n        /* \"#utility.yul\":9149:9215   */\n      0xffffffffffffffffffffffffffffffffffffffffffffffffffffffffffffffff\n        /* \"#utility.yul\":9138:9147   */\n      dup3\n        /* \"#utility.yul\":9119:9216   */\n      tag_148\n      jump\t// in\n    tag_261:\n        /* \"#utility.yul\":9237:9276   */\n      tag_262\n        /* \"#utility.yul\":9267:9275   */\n      dup7\n        /* \"#utility.yul\":9256:9265   */\n      dup4\n        /* \"#utility.yul\":9237:9276   */\n      tag_148\n      jump\t// in\n    tag_262:\n        /* \"#utility.yul\":9225:9276   */\n      swap6\n      pop\n        /* \"#utility.yul\":9309:9313   */\n      dup1\n        /* \"#utility.yul\":9305:9314   */\n      not\n        /* \"#utility.yul\":9298:9303   */\n      dup5\n        /* \"#utility.yul\":9294:9315   */\n      and\n        /* \"#utility.yul\":9285:9315   */\n      swap4\n      pop\n        /* \"#utility.yul\":9358:9362   */\n      dup1\n        /* \"#utility.yul\":9348:9356   */\n      dup7\n        /* \"#utility.yul\":9344:9363   */\n      and\n        /* \"#utility.yul\":9337:9342   */\n      dup5\n        /* \"#utility.yul\":9334:9364   */\n      or\n        /* \"#utility.yul\":9324:9364   */\n      swap3\n      pop\n        /* \"#utility.yul\":9053:9370   */\n      pop\n      pop\n        /* \"#utility.yul\":8977:9370   */\n      swap4\n      swap3\n      pop\n      pop\n      pop\n      jump\t// out\n        /* \"#utility.yul\":9376:9436   */\n    tag_150:\n        /* \"#utility.yul\":9404:9407   */\n      0x00\n        /* \"#utility.yul\":9425:9430   */\n      dup2\n        /* \"#utility.yul\":9418:9430   */\n      swap1\n      pop\n        /* \"#utility.yul\":9376:9436   */\n      swap2\n      swap1\n      pop\n      jump\t// out\n        /* \"#utility.yul\":9442:9584   */\n    tag_151:\n        /* \"#utility.yul\":9492:9501   */\n      0x00\n        /* \"#utility.yul\":9525:9578   */\n      tag_265\n        /* \"#utility.yul\":9543:9577   */\n      tag_266\n        /* \"#utility.yul\":9552:9576   */\n      tag_267\n        /* \"#utility.yul\":9570:9575   */\n      dup5\n        /* \"#utility.yul\":9552:9576   */\n      tag_118\n      jump\t// in\n    tag_267:\n        /* \"#utility.yul\":9543:9577   */\n      tag_150\n      jump\t// in\n    tag_266:\n        /* \"#utility.yul\":9525:9578   */\n      tag_118\n      jump\t// in\n    tag_265:\n        /* \"#utility.yul\":9512:9578   */\n      swap1\n      pop\n        /* \"#utility.yul\":9442:9584   */\n      swap2\n      swap1\n      pop\n      jump\t// out\n        /* \"#utility.yul\":9590:9665   */\n    tag_152:\n        /* \"#utility.yul\":9633:9636   */\n      0x00\n        /* \"#utility.yul\":9654:9659   */\n      dup2\n        /* \"#utility.yul\":9647:9659   */\n      swap1\n      pop\n        /* \"#utility.yul\":9590:9665   */\n      swap2\n      swap1\n      pop\n      jump\t// out\n        /* \"#utility.yul\":9671:9940   */\n    tag_153:\n        /* \"#utility.yul\":9781:9820   */\n      tag_270\n        /* \"#utility.yul\":9812:9819   */\n      dup4\n        /* \"#utility.yul\":9781:9820   */\n      tag_151\n      jump\t// in\n    tag_270:\n        /* \"#utility.yul\":9842:9933   */\n      tag_271\n        /* \"#utility.yul\":9891:9932   */\n      tag_272\n        /* \"#utility.yul\":9915:9931   */\n      dup3\n        /* \"#utility.yul\":9891:9932   */\n      tag_152\n      jump\t// in\n    tag_272:\n        /* \"#utility.yul\":9883:9889   */\n      dup5\n        /* \"#utility.yul\":9876:9880   */\n      dup5\n        /* \"#utility.yul\":9870:9881   */\n      sload\n        /* \"#utility.yul\":9842:9933   */\n      tag_149\n      jump\t// in\n    tag_271:\n        /* \"#utility.yul\":9836:9840   */\n      dup3\n        /* \"#utility.yul\":9829:9934   */\n      sstore\n        /* \"#utility.yul\":9747:9940   */\n      pop\n        /* \"#utility.yul\":9671:9940   */\n      pop\n      pop\n      pop\n      jump\t// out\n        /* \"#utility.yul\":9946:10019   */\n    tag_154:\n        /* \"#utility.yul\":9991:9994   */\n      0x00\n        /* \"#utility.yul\":9946:10019   */\n      swap1\n      jump\t// out\n        /* \"#utility.yul\":10025:10214   */\n    tag_155:\n        /* \"#utility.yul\":10102:10134   */\n      tag_275\n      tag_154\n      jump\t// in\n    tag_275:\n        /* \"#utility.yul\":10143:10208   */\n      tag_276\n        /* \"#utility.yul\":10201:10207   */\n      dup2\n        /* \"#utility.yul\":10193:10199   */\n      dup5\n        /* \"#utility.yul\":10187:10191   */\n      dup5\n        /* \"#utility.yul\":10143:10208   */\n      tag_153\n      jump\t// in\n    tag_276:\n        /* \"#utility.yul\":10078:10214   */\n      pop\n        /* \"#utility.yul\":10025:10214   */\n      pop\n      pop\n      jump\t// out\n        /* \"#utility.yul\":10220:10406   */\n    tag_156:\n        /* \"#utility.yul\":10280:10400   */\n    tag_278:\n        /* \"#utility.yul\":10297:10300   */\n      dup2\n        /* \"#utility.yul\":10290:10295   */\n      dup2\n        /* \"#utility.yul\":10287:10301   */\n      lt\n        /* \"#utility.yul\":10280:10400   */\n      iszero\n      tag_280\n      jumpi\n        /* \"#utility.yul\":10351:10390   */\n      tag_281\n        /* \"#utility.yul\":10388:10389   */\n      0x00\n        /* \"#utility.yul\":10381:10386   */\n      dup3\n        /* \"#utility.yul\":10351:10390   */\n      tag_155\n      jump\t// in\n    tag_281:\n        /* \"#utility.yul\":10324:10325   */\n      0x01\n        /* \"#utility.yul\":10317:10322   */\n      dup2\n        /* \"#utility.yul\":10313:10326   */\n      add\n        /* \"#utility.yul\":10304:10326   */\n      swap1\n      pop\n        /* \"#utility.yul\":10280:10400   */\n      jump(tag_278)\n    tag_280:\n        /* \"#utility.yul\":10220:10406   */\n      pop\n      pop\n      jump\t// out\n        /* \"#utility.yul\":10412:10953   */\n    tag_157:\n        /* \"#utility.yul\":10512:10514   */\n      0x1f\n        /* \"#utility.yul\":10507:10510   */\n      dup3\n        /* \"#utility.yul\":10504:10515   */\n      gt\n        /* \"#utility.yul\":10501:10946   */\n      iszero\n      tag_283\n      jumpi\n        /* \"#utility.yul\":10546:10583   */\n      tag_284\n        /* \"#utility.yul\":10577:10582   */\n      dup2\n        /* \"#utility.yul\":10546:10583   */\n      tag_146\n      jump\t// in\n    tag_284:\n        /* \"#utility.yul\":10629:10658   */\n      tag_285\n        /* \"#utility.yul\":10647:10657   */\n      dup5\n        /* \"#utility.yul\":10629:10658   */\n      tag_147\n      jump\t// in\n    tag_285:\n        /* \"#utility.yul\":10619:10627   */\n      dup2\n        /* \"#utility.yul\":10615:10659   */\n      add\n        /* \"#utility.yul\":10812:10814   */\n      0x20\n        /* \"#utility.yul\":10800:10810   */\n      dup6\n        /* \"#utility.yul\":10797:10815   */\n      lt\n        /* \"#utility.yul\":10794:10843   */\n      iszero\n      tag_286\n      jumpi\n        /* \"#utility.yul\":10833:10841   */\n      dup2\n        /* \"#utility.yul\":10818:10841   */\n      swap1\n      pop\n        /* \"#utility.yul\":10794:10843   */\n    tag_286:\n        /* \"#utility.yul\":10856:10936   */\n      tag_287\n        /* \"#utility.yul\":10912:10934   */\n      tag_288\n        /* \"#utility.yul\":10930:10933   */\n      dup6\n        /* \"#utility.yul\":10912:10934   */\n      tag_147\n      jump\t// in\n    tag_288:\n        /* \"#utility.yul\":10902:10910   */\n      dup4\n        /* \"#utility.yul\":10898:10935   */\n      add\n        /* \"#utility.yul\":10885:10896   */\n      dup3\n        /* \"#utility.yul\":10856:10936   */\n      tag_156\n      jump\t// in\n    tag_287:\n        /* \"#utility.yul\":10516:10946   */\n      pop\n      pop\n        /* \"#utility.yul\":10501:10946   */\n    tag_283:\n        /* \"#utility.yul\":10412:10953   */\n      pop\n      pop\n      pop\n      jump\t// out\n        /* \"#utility.yul\":10959:11076   */\n    tag_158:\n        /* \"#utility.yul\":11013:11021   */\n      0x00\n        /* \"#utility.yul\":11063:11068   */\n      dup3\n        /* \"#utility.yul\":11057:11061   */\n      dup3\n        /* \"#utility.yul\":11053:11069   */\n      shr\n        /* \"#utility.yul\":11032:11069   */\n      swap1\n      pop\n        /* \"#utility.yul\":10959:11076   */\n      swap3\n      swap2\n      pop\n      pop\n      jump\t// out\n        /* \"#utility.yul\":11082:11251   */\n    tag_159:\n        /* \"#utility.yul\":11126:11132   */\n      0x00\n        /* \"#utility.yul\":11159:11210   */\n      tag_291\n        /* \"#utility.yul\":11207:11208   */\n      0x00\n        /* \"#utility.yul\":11203:11209   */\n      not\n        /* \"#utility.yul\":11195:11200   */\n      dup5\n        /* \"#utility.yul\":11192:11193   */\n      0x08\n        /* \"#utility.yul\":11188:11201   */\n      mul\n        /* \"#utility.yul\":11159:11210   */\n      tag_158\n      jump\t// in\n    tag_291:\n        /* \"#utility.yul\":11155:11211   */\n      not\n        /* \"#utility.yul\":11240:11244   */\n      dup1\n        /* \"#utility.yul\":11234:11238   */\n      dup4\n        /* \"#utility.yul\":11230:11245   */\n      and\n        /* \"#utility.yul\":11220:11245   */\n      swap2\n      pop\n        /* \"#utility.yul\":11133:11251   */\n      pop\n        /* \"#utility.yul\":11082:11251   */\n      swap3\n      swap2\n      pop\n      pop\n      jump\t// out\n        /* \"#utility.yul\":11256:11551   */\n    tag_160:\n        /* \"#utility.yul\":11332:11336   */\n      0x00\n        /* \"#utility.yul\":11478:11507   */\n      tag_293\n        /* \"#utility.yul\":11503:11506   */\n      dup4\n        /* \"#utility.yul\":11497:11501   */\n      dup4\n        /* \"#utility.yul\":11478:11507   */\n      tag_159\n      jump\t// in\n    tag_293:\n        /* \"#utility.yul\":11470:11507   */\n      swap2\n      pop\n        /* \"#utility.yul\":11540:11543   */\n      dup3\n        /* \"#utility.yul\":11537:11538   */\n      0x02\n        /* \"#utility.yul\":11533:11544   */\n      mul\n        /* \"#utility.yul\":11527:11531   */\n      dup3\n        /* \"#utility.yul\":11524:11545   */\n      or\n        /* \"#utility.yul\":11516:11545   */\n      swap1\n      pop\n        /* \"#utility.yul\":11256:11551   */\n      swap3\n      swap2\n      pop\n      pop\n      jump\t// out\n        /* \"#utility.yul\":11556:12946   */\n    tag_72:\n        /* \"#utility.yul\":11671:11707   */\n      tag_295\n        /* \"#utility.yul\":11703:11706   */\n      dup3\n        /* \"#utility.yul\":11671:11707   */\n      tag_136\n      jump\t// in\n    tag_295:\n        /* \"#utility.yul\":11772:11790   */\n      0xffffffffffffffff\n        /* \"#utility.yul\":11764:11770   */\n      dup2\n        /* \"#utility.yul\":11761:11791   */\n      gt\n        /* \"#utility.yul\":11758:11814   */\n      iszero\n      tag_296\n      jumpi\n        /* \"#utility.yul\":11794:11812   */\n      tag_297\n      tag_144\n      jump\t// in\n    tag_297:\n        /* \"#utility.yul\":11758:11814   */\n    tag_296:\n        /* \"#utility.yul\":11838:11876   */\n      tag_298\n        /* \"#utility.yul\":11870:11874   */\n      dup3\n        /* \"#utility.yul\":11864:11875   */\n      sload\n        /* \"#utility.yul\":11838:11876   */\n      tag_88\n      jump\t// in\n    tag_298:\n        /* \"#utility.yul\":11923:11989   */\n      tag_299\n        /* \"#utility.yul\":11982:11988   */\n      dup3\n        /* \"#utility.yul\":11974:11980   */\n      dup3\n        /* \"#utility.yul\":11968:11972   */\n      dup6\n        /* \"#utility.yul\":11923:11989   */\n      tag_157\n      jump\t// in\n    tag_299:\n        /* \"#utility.yul\":12016:12017   */\n      0x00\n        /* \"#utility.yul\":12040:12044   */\n      0x20\n        /* \"#utility.yul\":12027:12044   */\n      swap1\n      pop\n        /* \"#utility.yul\":12072:12074   */\n      0x1f\n        /* \"#utility.yul\":12064:12070   */\n      dup4\n        /* \"#utility.yul\":12061:12075   */\n      gt\n        /* \"#utility.yul\":12089:12090   */\n      0x01\n        /* \"#utility.yul\":12084:12701   */\n      dup2\n      eq\n      tag_301\n      jumpi\n        /* \"#utility.yul\":12745:12746   */\n      0x00\n        /* \"#utility.yul\":12762:12768   */\n      dup5\n        /* \"#utility.yul\":12759:12836   */\n      iszero\n      tag_302\n      jumpi\n        /* \"#utility.yul\":12811:12820   */\n      dup3\n        /* \"#utility.yul\":12806:12809   */\n      dup8\n        /* \"#utility.yul\":12802:12821   */\n      add\n        /* \"#utility.yul\":12796:12822   */\n      mload\n        /* \"#utility.yul\":12787:12822   */\n      swap1\n      pop\n        /* \"#utility.yul\":12759:12836   */\n    tag_302:\n        /* \"#utility.yul\":12862:12929   */\n      tag_303\n        /* \"#utility.yul\":12922:12928   */\n      dup6\n        /* \"#utility.yul\":12915:12920   */\n      dup3\n        /* \"#utility.yul\":12862:12929   */\n      tag_160\n      jump\t// in\n    tag_303:\n        /* \"#utility.yul\":12856:12860   */\n      dup7\n        /* \"#utility.yul\":12849:12930   */\n      sstore\n        /* \"#utility.yul\":12718:12940   */\n      pop\n        /* \"#utility.yul\":12054:12940   */\n      jump(tag_300)\n        /* \"#utility.yul\":12084:12701   */\n    tag_301:\n        /* \"#utility.yul\":12136:12140   */\n      0x1f\n        /* \"#utility.yul\":12132:12141   */\n      not\n        /* \"#utility.yul\":12124:12130   */\n      dup5\n        /* \"#utility.yul\":12120:12142   */\n      and\n        /* \"#utility.yul\":12170:12206   */\n      tag_304\n        /* \"#utility.yul\":12201:12205   */\n      dup7\n        /* \"#utility.yul\":12170:12206   */\n      tag_146\n      jump\t// in\n    tag_304:\n        /* \"#utility.yul\":12228:12229   */\n      0x00\n        /* \"#utility.yul\":12242:12450   */\n    tag_305:\n        /* \"#utility.yul\":12256:12263   */\n      dup3\n        /* \"#utility.yul\":12253:12254   */\n      dup2\n        /* \"#utility.yul\":12250:12264   */\n      lt\n        /* \"#utility.yul\":12242:12450   */\n      iszero\n      tag_307\n      jumpi\n        /* \"#utility.yul\":12335:12344   */\n      dup5\n        /* \"#utility.yul\":12330:12333   */\n      dup10\n        /* \"#utility.yul\":12326:12345   */\n      add\n        /* \"#utility.yul\":12320:12346   */\n      mload\n        /* \"#utility.yul\":12312:12318   */\n      dup3\n        /* \"#utility.yul\":12305:12347   */\n      sstore\n        /* \"#utility.yul\":12386:12387   */\n      0x01\n        /* \"#utility.yul\":12378:12384   */\n      dup3\n        /* \"#utility.yul\":12374:12388   */\n      add\n        /* \"#utility.yul\":12364:12388   */\n      swap2\n      pop\n        /* \"#utility.yul\":12433:12435   */\n      0x20\n        /* \"#utility.yul\":12422:12431   */\n      dup6\n        /* \"#utility.yul\":12418:12436   */\n      add\n        /* \"#utility.yul\":12405:12436   */\n      swap5\n      pop\n        /* \"#utility.yul\":12279:12283   */\n      0x20\n        /* \"#utility.yul\":12276:12277   */\n      dup2\n        /* \"#utility.yul\":12272:12284   */\n      add\n        /* \"#utility.yul\":12267:12284   */\n      swap1\n      pop\n        /* \"#utility.yul\":12242:12450   */\n      jump(tag_305)\n    tag_307:\n        /* \"#utility.yul\":12478:12484   */\n      dup7\n        /* \"#utility.yul\":12469:12476   */\n      dup4\n        /* \"#utility.yul\":12466:12485   */\n      lt\n        /* \"#utility.yul\":12463:12642   */\n      iszero\n      tag_308\n      jumpi\n        /* \"#utility.yul\":12536:12545   */\n      dup5\n        /* \"#utility.yul\":12531:12534   */\n      dup10\n        /* \"#utility.yul\":12527:12546   */\n      add\n        /* \"#utility.yul\":12521:12547   */\n      mload\n        /* \"#utility.yul\":12579:12627   */\n      tag_309\n        /* \"#utility.yul\":12621:12625   */\n      0x1f\n        /* \"#utility.yul\":12613:12619   */\n      dup10\n        /* \"#utility.yul\":12609:12626   */\n      and\n        /* \"#utility.yul\":12598:12607   */\n      dup3\n        /* \"#utility.yul\":12579:12627   */\n      tag_159\n      jump\t// in\n    tag_309:\n        /* \"#utility.yul\":12571:12577   */\n      dup4\n        /* \"#utility.yul\":12564:12628   */\n      sstore\n        /* \"#utility.yul\":12486:12642   */\n      pop\n        /* \"#utility.yul\":12463:12642   */\n    tag_308:\n        /* \"#utility.yul\":12688:12689   */\n      0x01\n        /* \"#utility.yul\":12684:12685   */\n      0x02\n        /* \"#utility.yul\":12676:12682   */\n      dup9\n        /* \"#utility.yul\":12672:12686   */\n      mul\n        /* \"#utility.yul\":12668:12690   */\n      add\n        /* \"#utility.yul\":12662:12666   */\n      dup9\n        /* \"#utility.yul\":12655:12691   */\n      sstore\n        /* \"#utility.yul\":12091:12701   */\n      pop\n      pop\n      pop\n        /* \"#utility.yul\":12054:12940   */\n    tag_300:\n      pop\n        /* \"#utility.yul\":11646:12946   */\n      pop\n      pop\n      pop\n        /* \"#utility.yul\":11556:12946   */\n      pop\n      pop\n      jump\t// out\n        /* \"#utility.yul\":12952:13132   */\n    tag_161:\n        /* \"#utility.yul\":13000:13077   */\n      0x4e487b7100000000000000000000000000000000000000000000000000000000\n        /* \"#utility.yul\":12997:12998   */\n      0x00\n        /* \"#utility.yul\":12990:13078   */\n      mstore\n        /* \"#utility.yul\":13097:13101   */\n      0x11\n        /* \"#utility.yul\":13094:13095   */\n      0x04\n        /* \"#utility.yul\":13087:13102   */\n      mstore\n        /* \"#utility.yul\":13121:13125   */\n      0x24\n        /* \"#utility.yul\":13118:13119   */\n      0x00\n        /* \"#utility.yul\":13111:13126   */\n      revert\n        /* \"#utility.yul\":13138:13332   */\n    tag_74:\n        /* \"#utility.yul\":13178:13182   */\n      0x00\n        /* \"#utility.yul\":13198:13218   */\n      tag_312\n        /* \"#utility.yul\":13216:13217   */\n      dup3\n        /* \"#utility.yul\":13198:13218   */\n      tag_118\n      jump\t// in\n    tag_312:\n        /* \"#utility.yul\":13193:13218   */\n      swap2\n      pop\n        /* \"#utility.yul\":13232:13252   */\n      tag_313\n        /* \"#utility.yul\":13250:13251   */\n      dup4\n        /* \"#utility.yul\":13232:13252   */\n      tag_118\n      jump\t// in\n    tag_313:\n        /* \"#utility.yul\":13227:13252   */\n      swap3\n      pop\n        /* \"#utility.yul\":13276:13277   */\n      dup3\n        /* \"#utility.yul\":13273:13274   */\n      dup3\n        /* \"#utility.yul\":13269:13278   */\n      sub\n        /* \"#utility.yul\":13261:13278   */\n      swap1\n      pop\n        /* \"#utility.yul\":13300:13301   */\n      dup2\n        /* \"#utility.yul\":13294:13298   */\n      dup2\n        /* \"#utility.yul\":13291:13302   */\n      gt\n        /* \"#utility.yul\":13288:13325   */\n      iszero\n      tag_314\n      jumpi\n        /* \"#utility.yul\":13305:13323   */\n      tag_315\n      tag_161\n      jump\t// in\n    tag_315:\n        /* \"#utility.yul\":13288:13325   */\n    tag_314:\n        /* \"#utility.yul\":13138:13332   */\n      swap3\n      swap2\n      pop\n      pop\n      jump\t// out\n        /* \"#utility.yul\":13338:13500   */\n    tag_162:\n        /* \"#utility.yul\":13478:13492   */\n      0x6e6f7420617070726f7665640000000000000000000000000000000000000000\n        /* \"#utility.yul\":13474:13475   */\n      0x00\n        /* \"#utility.yul\":13466:13472   */\n      dup3\n        /* \"#utility.yul\":13462:13476   */\n      add\n        /* \"#utility.yul\":13455:13493   */\n      mstore\n        /* \"#utility.yul\":13338:13500   */\n      pop\n      jump\t// out\n        /* \"#utility.yul\":13506:13872   */\n    tag_163:\n        /* \"#utility.yul\":13648:13651   */\n      0x00\n        /* \"#utility.yul\":13669:13736   */\n      tag_318\n        /* \"#utility.yul\":13733:13735   */\n      0x0c\n        /* \"#utility.yul\":13728:13731   */\n      dup4\n        /* \"#utility.yul\":13669:13736   */\n      tag_141\n      jump\t// in\n    tag_318:\n        /* \"#utility.yul\":13662:13736   */\n      swap2\n      pop\n        /* \"#utility.yul\":13745:13838   */\n      tag_319\n        /* \"#utility.yul\":13834:13837   */\n      dup3\n        /* \"#utility.yul\":13745:13838   */\n      tag_162\n      jump\t// in\n    tag_319:\n        /* \"#utility.yul\":13863:13865   */\n      0x20\n        /* \"#utility.yul\":13858:13861   */\n      dup3\n        /* \"#utility.yul\":13854:13866   */\n      add\n        /* \"#utility.yul\":13847:13866   */\n      swap1\n      pop\n        /* \"#utility.yul\":13506:13872   */\n      swap2\n      swap1\n      pop\n      jump\t// out\n        /* \"#utility.yul\":13878:14297   */\n    tag_84:\n        /* \"#utility.yul\":14044:14048   */\n      0x00\n        /* \"#utility.yul\":14082:14084   */\n      0x20\n        /* \"#utility.yul\":14071:14080   */\n      dup3\n        /* \"#utility.yul\":14067:14085   */\n      add\n        /* \"#utility.yul\":14059:14085   */\n      swap1\n      pop\n        /* \"#utility.yul\":14131:14140   */\n      dup2\n        /* \"#utility.yul\":14125:14129   */\n      dup2\n        /* \"#utility.yul\":14121:14141   */\n      sub\n        /* \"#utility.yul\":14117:14118   */\n      0x00\n        /* \"#utility.yul\":14106:14115   */\n      dup4\n        /* \"#utility.yul\":14102:14119   */\n      add\n        /* \"#utility.yul\":14095:14142   */\n      mstore\n        /* \"#utility.yul\":14159:14290   */\n      tag_321\n        /* \"#utility.yul\":14285:14289   */\n      dup2\n        /* \"#utility.yul\":14159:14290   */\n      tag_163\n      jump\t// in\n    tag_321:\n        /* \"#utility.yul\":14151:14290   */\n      swap1\n      pop\n        /* \"#utility.yul\":13878:14297   */\n      swap2\n      swap1\n      pop\n      jump\t// out\n        /* \"#utility.yul\":14303:14483   */\n    tag_108:\n        /* \"#utility.yul\":14351:14428   */\n      0x4e487b7100000000000000000000000000000000000000000000000000000000\n        /* \"#utility.yul\":14348:14349   */\n      0x00\n        /* \"#utility.yul\":14341:14429   */\n      mstore\n        /* \"#utility.yul\":14448:14452   */\n      0x32\n        /* \"#utility.yul\":14445:14446   */\n      0x04\n        /* \"#utility.yul\":14438:14453   */\n      mstore\n        /* \"#utility.yul\":14472:14476   */\n      0x24\n        /* \"#utility.yul\":14469:14470   */\n      0x00\n        /* \"#utility.yul\":14462:14477   */\n      revert\n        /* \"#utility.yul\":14489:14636   */\n    tag_164:\n        /* \"#utility.yul\":14590:14601   */\n      0x00\n        /* \"#utility.yul\":14627:14630   */\n      dup2\n        /* \"#utility.yul\":14612:14630   */\n      swap1\n      pop\n        /* \"#utility.yul\":14489:14636   */\n      swap3\n      swap2\n      pop\n      pop\n      jump\t// out\n        /* \"#utility.yul\":14664:15534   */\n    tag_165:\n        /* \"#utility.yul\":14765:14768   */\n      0x00\n        /* \"#utility.yul\":14802:14807   */\n      dup2\n        /* \"#utility.yul\":14796:14808   */\n      sload\n        /* \"#utility.yul\":14831:14867   */\n      tag_325\n        /* \"#utility.yul\":14857:14866   */\n      dup2\n        /* \"#utility.yul\":14831:14867   */\n      tag_88\n      jump\t// in\n    tag_325:\n        /* \"#utility.yul\":14883:14971   */\n      tag_326\n        /* \"#utility.yul\":14964:14970   */\n      dup2\n        /* \"#utility.yul\":14959:14962   */\n      dup7\n        /* \"#utility.yul\":14883:14971   */\n      tag_164\n      jump\t// in\n    tag_326:\n        /* \"#utility.yul\":14876:14971   */\n      swap5\n      pop\n        /* \"#utility.yul\":15002:15003   */\n      0x01\n        /* \"#utility.yul\":14991:15000   */\n      dup3\n        /* \"#utility.yul\":14987:15004   */\n      and\n        /* \"#utility.yul\":15018:15019   */\n      0x00\n        /* \"#utility.yul\":15013:15179   */\n      dup2\n      eq\n      tag_328\n      jumpi\n        /* \"#utility.yul\":15193:15194   */\n      0x01\n        /* \"#utility.yul\":15188:15528   */\n      dup2\n      eq\n      tag_329\n      jumpi\n        /* \"#utility.yul\":14980:15528   */\n      jump(tag_327)\n        /* \"#utility.yul\":15013:15179   */\n    tag_328:\n        /* \"#utility.yul\":15097:15101   */\n      0xff\n        /* \"#utility.yul\":15093:15102   */\n      not\n        /* \"#utility.yul\":15082:15091   */\n      dup4\n        /* \"#utility.yul\":15078:15103   */\n      and\n        /* \"#utility.yul\":15073:15076   */\n      dup7\n        /* \"#utility.yul\":15066:15104   */\n      mstore\n        /* \"#utility.yul\":15159:15165   */\n      dup2\n        /* \"#utility.yul\":15152:15166   */\n      iszero\n        /* \"#utility.yul\":15145:15167   */\n      iszero\n        /* \"#utility.yul\":15137:15143   */\n      dup3\n        /* \"#utility.yul\":15133:15168   */\n      mul\n        /* \"#utility.yul\":15128:15131   */\n      dup7\n        /* \"#utility.yul\":15124:15169   */\n      add\n        /* \"#utility.yul\":15117:15169   */\n      swap4\n      pop\n        /* \"#utility.yul\":15013:15179   */\n      jump(tag_327)\n        /* \"#utility.yul\":15188:15528   */\n    tag_329:\n        /* \"#utility.yul\":15255:15292   */\n      tag_330\n        /* \"#utility.yul\":15286:15291   */\n      dup6\n        /* \"#utility.yul\":15255:15292   */\n      tag_146\n      jump\t// in\n    tag_330:\n        /* \"#utility.yul\":15314:15315   */\n      0x00\n        /* \"#utility.yul\":15328:15482   */\n    tag_331:\n        /* \"#utility.yul\":15342:15348   */\n      dup4\n        /* \"#utility.yul\":15339:15340   */\n      dup2\n        /* \"#utility.yul\":15336:15349   */\n      lt\n        /* \"#utility.yul\":15328:15482   */\n      iszero\n      tag_333\n      jumpi\n        /* \"#utility.yul\":15416:15423   */\n      dup2\n        /* \"#utility.yul\":15410:15424   */\n      sload\n        /* \"#utility.yul\":15406:15407   */\n      dup2\n        /* \"#utility.yul\":15401:15404   */\n      dup10\n        /* \"#utility.yul\":15397:15408   */\n      add\n        /* \"#utility.yul\":15390:15425   */\n      mstore\n        /* \"#utility.yul\":15466:15467   */\n      0x01\n        /* \"#utility.yul\":15457:15464   */\n      dup3\n        /* \"#utility.yul\":15453:15468   */\n      add\n        /* \"#utility.yul\":15442:15468   */\n      swap2\n      pop\n        /* \"#utility.yul\":15364:15368   */\n      0x20\n        /* \"#utility.yul\":15361:15362   */\n      dup2\n        /* \"#utility.yul\":15357:15369   */\n      add\n        /* \"#utility.yul\":15352:15369   */\n      swap1\n      pop\n        /* \"#utility.yul\":15328:15482   */\n      jump(tag_331)\n    tag_333:\n        /* \"#utility.yul\":15511:15517   */\n      dup4\n        /* \"#utility.yul\":15506:15509   */\n      dup9\n        /* \"#utility.yul\":15502:15518   */\n      add\n        /* \"#utility.yul\":15495:15518   */\n      swap6\n      pop\n        /* \"#utility.yul\":15195:15528   */\n      pop\n      pop\n        /* \"#utility.yul\":14980:15528   */\n    tag_327:\n      pop\n        /* \"#utility.yul\":14769:15534   */\n      pop\n      pop\n        /* \"#utility.yul\":14664:15534   */\n      swap3\n      swap2\n      pop\n      pop\n      jump\t// out\n        /* \"#utility.yul\":15540:15805   */\n    tag_111:\n        /* \"#utility.yul\":15667:15670   */\n      0x00\n        /* \"#utility.yul\":15689:15779   */\n      tag_335\n        /* \"#utility.yul\":15775:15778   */\n      dup3\n        /* \"#utility.yul\":15766:15772   */\n      dup5\n        /* \"#utility.yul\":15689:15779   */\n      tag_165\n      jump\t// in\n    tag_335:\n        /* \"#utility.yul\":15682:15779   */\n      swap2\n      pop\n        /* \"#utility.yul\":15796:15799   */\n      dup2\n        /* \"#utility.yul\":15789:15799   */\n      swap1\n      pop\n        /* \"#utility.yul\":15540:15805   */\n      swap3\n      swap2\n      pop\n      pop\n      jump\t// out\n        /* \"#utility.yul\":15811:15970   */\n    tag_166:\n        /* \"#utility.yul\":15951:15962   */\n      0x6661696c2063616c6c0000000000000000000000000000000000000000000000\n        /* \"#utility.yul\":15947:15948   */\n      0x00\n        /* \"#utility.yul\":15939:15945   */\n      dup3\n        /* \"#utility.yul\":15935:15949   */\n      add\n        /* \"#utility.yul\":15928:15963   */\n      mstore\n        /* \"#utility.yul\":15811:15970   */\n      pop\n      jump\t// out\n        /* \"#utility.yul\":15976:16341   */\n    tag_167:\n        /* \"#utility.yul\":16118:16121   */\n      0x00\n        /* \"#utility.yul\":16139:16205   */\n      tag_338\n        /* \"#utility.yul\":16203:16204   */\n      0x09\n        /* \"#utility.yul\":16198:16201   */\n      dup4\n        /* \"#utility.yul\":16139:16205   */\n      tag_141\n      jump\t// in\n    tag_338:\n        /* \"#utility.yul\":16132:16205   */\n      swap2\n      pop\n        /* \"#utility.yul\":16214:16307   */\n      tag_339\n        /* \"#utility.yul\":16303:16306   */\n      dup3\n        /* \"#utility.yul\":16214:16307   */\n      tag_166\n      jump\t// in\n    tag_339:\n        /* \"#utility.yul\":16332:16334   */\n      0x20\n        /* \"#utility.yul\":16327:16330   */\n      dup3\n        /* \"#utility.yul\":16323:16335   */\n      add\n        /* \"#utility.yul\":16316:16335   */\n      swap1\n      pop\n        /* \"#utility.yul\":15976:16341   */\n      swap2\n      swap1\n      pop\n      jump\t// out\n        /* \"#utility.yul\":16347:16766   */\n    tag_117:\n        /* \"#utility.yul\":16513:16517   */\n      0x00\n        /* \"#utility.yul\":16551:16553   */\n      0x20\n        /* \"#utility.yul\":16540:16549   */\n      dup3\n        /* \"#utility.yul\":16536:16554   */\n      add\n        /* \"#utility.yul\":16528:16554   */\n      swap1\n      pop\n        /* \"#utility.yul\":16600:16609   */\n      dup2\n        /* \"#utility.yul\":16594:16598   */\n      dup2\n        /* \"#utility.yul\":16590:16610   */\n      sub\n        /* \"#utility.yul\":16586:16587   */\n      0x00\n        /* \"#utility.yul\":16575:16584   */\n      dup4\n        /* \"#utility.yul\":16571:16588   */\n      add\n        /* \"#utility.yul\":16564:16611   */\n      mstore\n        /* \"#utility.yul\":16628:16759   */\n      tag_341\n        /* \"#utility.yul\":16754:16758   */\n      dup2\n        /* \"#utility.yul\":16628:16759   */\n      tag_167\n      jump\t// in\n    tag_341:\n        /* \"#utility.yul\":16620:16759   */\n      swap1\n      pop\n        /* \"#utility.yul\":16347:16766   */\n      swap2\n      swap1\n      pop\n      jump\t// out\n\n    auxdata: 0xa26469706673582212203d97272c2238c679eef5501db574ba7178c2c998ce4170ff8836cac908fcca3a64736f6c634300081a0033\n}\n",
				"bytecode": {
					"linkReferences": {},
					"object": "608060405234801561000f575f80fd5b5060405161179538038061179583398181016040528101906100319190610318565b5f5b825181101561011b575f8382815181106100505761004f610372565b5b602002602001015190506001805f8373ffffffffffffffffffffffffffffffffffffffff1673ffffffffffffffffffffffffffffffffffffffff1681526020019081526020015f205f6101000a81548160ff0219169083151502179055505f81908060018154018082558091505060019003905f5260205f20015f9091909190916101000a81548173ffffffffffffffffffffffffffffffffffffffff021916908373ffffffffffffffffffffffffffffffffffffffff160217905550508080600101915050610033565b5080600281905550505061039f565b5f604051905090565b5f80fd5b5f80fd5b5f80fd5b5f601f19601f8301169050919050565b7f4e487b71000000000000000000000000000000000000000000000000000000005f52604160045260245ffd5b6101858261013f565b810181811067ffffffffffffffff821117156101a4576101a361014f565b5b80604052505050565b5f6101b661012a565b90506101c2828261017c565b919050565b5f67ffffffffffffffff8211156101e1576101e061014f565b5b602082029050602081019050919050565b5f80fd5b5f73ffffffffffffffffffffffffffffffffffffffff82169050919050565b5f61021f826101f6565b9050919050565b61022f81610215565b8114610239575f80fd5b50565b5f8151905061024a81610226565b92915050565b5f61026261025d846101c7565b6101ad565b90508083825260208201905060208402830185811115610285576102846101f2565b5b835b818110156102ae578061029a888261023c565b845260208401935050602081019050610287565b5050509392505050565b5f82601f8301126102cc576102cb61013b565b5b81516102dc848260208601610250565b91505092915050565b5f819050919050565b6102f7816102e5565b8114610301575f80fd5b50565b5f81519050610312816102ee565b92915050565b5f806040838503121561032e5761032d610133565b5b5f83015167ffffffffffffffff81111561034b5761034a610137565b5b610357858286016102b8565b925050602061036885828601610304565b9150509250929050565b7f4e487b71000000000000000000000000000000000000000000000000000000005f52603260045260245ffd5b6113e9806103ac5f395ff3fe608060405260043610610089575f3560e01c806362e2c2701161005857806362e2c2701461019e5780639ace38c2146101c8578063b759f95414610207578063f5b39ff11461022f578063fe0d94c11461026b576100de565b8063025e7c27146100e2578063086bb2591461011e57806314de327f1461015a57806320c5429b14610176576100de565b366100de573373ffffffffffffffffffffffffffffffffffffffff167fe1fffcc4923d04b559f4d29a8bfc6cda04eb5b0d3c460751c2402c5c5cc9109c346040516100d49190610b28565b60405180910390a2005b5f80fd5b3480156100ed575f80fd5b5061010860048036038101906101039190610b73565b610293565b6040516101159190610bdd565b60405180910390f35b348015610129575f80fd5b50610144600480360381019061013f9190610c20565b6102cd565b6040516101519190610c65565b60405180910390f35b610174600480360381019061016f9190610cdf565b6102ea565b005b348015610181575f80fd5b5061019c60048036038101906101979190610b73565b6104ec565b005b3480156101a9575f80fd5b506101b26106c4565b6040516101bf9190610b28565b60405180910390f35b3480156101d3575f80fd5b506101ee60048036038101906101e99190610b73565b6106ca565b6040516101fe9493929190610dc0565b60405180910390f35b348015610212575f80fd5b5061022d60048036038101906102289190610b73565b6107b6565b005b34801561023a575f80fd5b5061025560048036038101906102509190610e0a565b6108f7565b6040516102629190610c65565b60405180910390f35b348015610276575f80fd5b50610291600480360381019061028c9190610b73565b610921565b005b5f81815481106102a1575f80fd5b905f5260205f20015f915054906101000a900473ffffffffffffffffffffffffffffffffffffffff1681565b6001602052805f5260405f205f915054906101000a900460ff1681565b6001151560015f3373ffffffffffffffffffffffffffffffffffffffff1673ffffffffffffffffffffffffffffffffffffffff1681526020019081526020015f205f9054906101000a900460ff1615151461037a576040517f08c379a000000000000000000000000000000000000000000000000000000000815260040161037190610ea2565b60405180910390fd5b5f60405180608001604052808673ffffffffffffffffffffffffffffffffffffffff16815260200184848080601f0160208091040260200160405190810160405280939291908181526020018383808284375f81840152601f19601f8201169050808301925050505050505081526020015f15158152602001858152509050600381908060018154018082558091505060019003905f5260205f2090600402015f909190919091505f820151815f015f6101000a81548173ffffffffffffffffffffffffffffffffffffffff021916908373ffffffffffffffffffffffffffffffffffffffff160217905550602082015181600101908161047b91906110e7565b506040820151816002015f6101000a81548160ff02191690831515021790555060608201518160030155505060016003805490506104b991906111e3565b7f08324b3d745b914e3abd4ffbfead91e3b78391a98c173202129215ab933adfbe60405160405180910390a25050505050565b6001151560015f3373ffffffffffffffffffffffffffffffffffffffff1673ffffffffffffffffffffffffffffffffffffffff1681526020019081526020015f205f9054906101000a900460ff1615151461057c576040517f08c379a000000000000000000000000000000000000000000000000000000000815260040161057390610ea2565b60405180910390fd5b80818260045f8581526020019081526020015f205f3373ffffffffffffffffffffffffffffffffffffffff1673ffffffffffffffffffffffffffffffffffffffff1681526020019081526020015f205f9054906101000a900460ff16610617576040517f08c379a000000000000000000000000000000000000000000000000000000000815260040161060e90611260565b60405180910390fd5b5f60045f8681526020019081526020015f205f3373ffffffffffffffffffffffffffffffffffffffff1673ffffffffffffffffffffffffffffffffffffffff1681526020019081526020015f205f6101000a81548160ff021916908315150217905550833373ffffffffffffffffffffffffffffffffffffffff167fec9ab91322523c899ede7830ec9bfc992b5981cdcc27b91162fb23de5791117b60405160405180910390a350505050565b60025481565b600381815481106106d9575f80fd5b905f5260205f2090600402015f91509050805f015f9054906101000a900473ffffffffffffffffffffffffffffffffffffffff169080600101805461071d90610f1a565b80601f016020809104026020016040519081016040528092919081815260200182805461074990610f1a565b80156107945780601f1061076b57610100808354040283529160200191610794565b820191905f5260205f20905b81548152906001019060200180831161077757829003601f168201915b505050505090806002015f9054906101000a900460ff16908060030154905084565b6001151560015f3373ffffffffffffffffffffffffffffffffffffffff1673ffffffffffffffffffffffffffffffffffffffff1681526020019081526020015f205f9054906101000a900460ff16151514610846576040517f08c379a000000000000000000000000000000000000000000000000000000000815260040161083d90610ea2565b60405180910390fd5b808182600160045f8681526020019081526020015f205f3373ffffffffffffffffffffffffffffffffffffffff1673ffffffffffffffffffffffffffffffffffffffff1681526020019081526020015f205f6101000a81548160ff021916908315150217905550833373ffffffffffffffffffffffffffffffffffffffff167f90ec57f18fa7b15c6b8d5e4d1deb90796c74b2ff23d4d0cecad0cb42a96b312860405160405180910390a350505050565b6004602052815f5260405f20602052805f5260405f205f915091509054906101000a900460ff1681565b6001151560015f3373ffffffffffffffffffffffffffffffffffffffff1673ffffffffffffffffffffffffffffffffffffffff1681526020019081526020015f205f9054906101000a900460ff161515146109b1576040517f08c379a00000000000000000000000000000000000000000000000000000000081526004016109a890610ea2565b60405180910390fd5b80815f600384815481106109c8576109c761127e565b5b905f5260205f20906004020190505f815f015f9054906101000a900473ffffffffffffffffffffffffffffffffffffffff1673ffffffffffffffffffffffffffffffffffffffff16826003015483600101604051610a269190611335565b5f6040518083038185875af1925050503d805f8114610a60576040519150601f19603f3d011682016040523d82523d5f602084013e610a65565b606091505b5050905080610aa9576040517f08c379a0000000000000000000000000000000000000000000000000000000008152600401610aa090611395565b60405180910390fd5b6001826002015f6101000a81548160ff021916908315150217905550843373ffffffffffffffffffffffffffffffffffffffff167f892cd8f5b436bd5fb7dac1f11aafb73345d892ba3e9fe09cd94d95ba84928e7360405160405180910390a35050505050565b5f819050919050565b610b2281610b10565b82525050565b5f602082019050610b3b5f830184610b19565b92915050565b5f80fd5b5f80fd5b610b5281610b10565b8114610b5c575f80fd5b50565b5f81359050610b6d81610b49565b92915050565b5f60208284031215610b8857610b87610b41565b5b5f610b9584828501610b5f565b91505092915050565b5f73ffffffffffffffffffffffffffffffffffffffff82169050919050565b5f610bc782610b9e565b9050919050565b610bd781610bbd565b82525050565b5f602082019050610bf05f830184610bce565b92915050565b610bff81610bbd565b8114610c09575f80fd5b50565b5f81359050610c1a81610bf6565b92915050565b5f60208284031215610c3557610c34610b41565b5b5f610c4284828501610c0c565b91505092915050565b5f8115159050919050565b610c5f81610c4b565b82525050565b5f602082019050610c785f830184610c56565b92915050565b5f80fd5b5f80fd5b5f80fd5b5f8083601f840112610c9f57610c9e610c7e565b5b8235905067ffffffffffffffff811115610cbc57610cbb610c82565b5b602083019150836001820283011115610cd857610cd7610c86565b5b9250929050565b5f805f8060608587031215610cf757610cf6610b41565b5b5f610d0487828801610c0c565b9450506020610d1587828801610b5f565b935050604085013567ffffffffffffffff811115610d3657610d35610b45565b5b610d4287828801610c8a565b925092505092959194509250565b5f81519050919050565b5f82825260208201905092915050565b8281835e5f83830152505050565b5f601f19601f8301169050919050565b5f610d9282610d50565b610d9c8185610d5a565b9350610dac818560208601610d6a565b610db581610d78565b840191505092915050565b5f608082019050610dd35f830187610bce565b8181036020830152610de58186610d88565b9050610df46040830185610c56565b610e016060830184610b19565b95945050505050565b5f8060408385031215610e2057610e1f610b41565b5b5f610e2d85828601610b5f565b9250506020610e3e85828601610c0c565b9150509250929050565b5f82825260208201905092915050565b7f6e6f74206f776e657200000000000000000000000000000000000000000000005f82015250565b5f610e8c600983610e48565b9150610e9782610e58565b602082019050919050565b5f6020820190508181035f830152610eb981610e80565b9050919050565b7f4e487b71000000000000000000000000000000000000000000000000000000005f52604160045260245ffd5b7f4e487b71000000000000000000000000000000000000000000000000000000005f52602260045260245ffd5b5f6002820490506001821680610f3157607f821691505b602082108103610f4457610f43610eed565b5b50919050565b5f819050815f5260205f209050919050565b5f6020601f8301049050919050565b5f82821b905092915050565b5f60088302610fa67fffffffffffffffffffffffffffffffffffffffffffffffffffffffffffffffff82610f6b565b610fb08683610f6b565b95508019841693508086168417925050509392505050565b5f819050919050565b5f610feb610fe6610fe184610b10565b610fc8565b610b10565b9050919050565b5f819050919050565b61100483610fd1565b61101861101082610ff2565b848454610f77565b825550505050565b5f90565b61102c611020565b611037818484610ffb565b505050565b5b8181101561105a5761104f5f82611024565b60018101905061103d565b5050565b601f82111561109f5761107081610f4a565b61107984610f5c565b81016020851015611088578190505b61109c61109485610f5c565b83018261103c565b50505b505050565b5f82821c905092915050565b5f6110bf5f19846008026110a4565b1980831691505092915050565b5f6110d783836110b0565b9150826002028217905092915050565b6110f082610d50565b67ffffffffffffffff81111561110957611108610ec0565b5b6111138254610f1a565b61111e82828561105e565b5f60209050601f83116001811461114f575f841561113d578287015190505b61114785826110cc565b8655506111ae565b601f19841661115d86610f4a565b5f5b828110156111845784890151825560018201915060208501945060208101905061115f565b868310156111a1578489015161119d601f8916826110b0565b8355505b6001600288020188555050505b505050505050565b7f4e487b71000000000000000000000000000000000000000000000000000000005f52601160045260245ffd5b5f6111ed82610b10565b91506111f883610b10565b92508282039050818111156112105761120f6111b6565b5b92915050565b7f6e6f7420617070726f76656400000000000000000000000000000000000000005f82015250565b5f61124a600c83610e48565b915061125582611216565b602082019050919050565b5f6020820190508181035f8301526112778161123e565b9050919050565b7f4e487b71000000000000000000000000000000000000000000000000000000005f52603260045260245ffd5b5f81905092915050565b5f81546112c181610f1a565b6112cb81866112ab565b9450600182165f81146112e557600181146112fa5761132c565b60ff198316865281151582028601935061132c565b61130385610f4a565b5f5b8381101561132457815481890152600182019150602081019050611305565b838801955050505b50505092915050565b5f61134082846112b5565b915081905092915050565b7f6661696c2063616c6c00000000000000000000000000000000000000000000005f82015250565b5f61137f600983610e48565b915061138a8261134b565b602082019050919050565b5f6020820190508181035f8301526113ac81611373565b905091905056fea26469706673582212203d97272c2238c679eef5501db574ba7178c2c998ce4170ff8836cac908fcca3a64736f6c634300081a0033",
					"opcodes": "PUSH1 0x80 PUSH1 0x40 MSTORE CALLVALUE DUP1 ISZERO PUSH2 0xF JUMPI PUSH0 DUP1 REVERT JUMPDEST POP PUSH1 0x40 MLOAD PUSH2 0x1795 CODESIZE SUB DUP1 PUSH2 0x1795 DUP4 CODECOPY DUP2 DUP2 ADD PUSH1 0x40 MSTORE DUP2 ADD SWAP1 PUSH2 0x31 SWAP2 SWAP1 PUSH2 0x318 JUMP JUMPDEST PUSH0 JUMPDEST DUP3 MLOAD DUP2 LT ISZERO PUSH2 0x11B JUMPI PUSH0 DUP4 DUP3 DUP2 MLOAD DUP2 LT PUSH2 0x50 JUMPI PUSH2 0x4F PUSH2 0x372 JUMP JUMPDEST JUMPDEST PUSH1 0x20 MUL PUSH1 0x20 ADD ADD MLOAD SWAP1 POP PUSH1 0x1 DUP1 PUSH0 DUP4 PUSH20 0xFFFFFFFFFFFFFFFFFFFFFFFFFFFFFFFFFFFFFFFF AND PUSH20 0xFFFFFFFFFFFFFFFFFFFFFFFFFFFFFFFFFFFFFFFF AND DUP2 MSTORE PUSH1 0x20 ADD SWAP1 DUP2 MSTORE PUSH1 0x20 ADD PUSH0 KECCAK256 PUSH0 PUSH2 0x100 EXP DUP2 SLOAD DUP2 PUSH1 0xFF MUL NOT AND SWAP1 DUP4 ISZERO ISZERO MUL OR SWAP1 SSTORE POP PUSH0 DUP2 SWAP1 DUP1 PUSH1 0x1 DUP2 SLOAD ADD DUP1 DUP3 SSTORE DUP1 SWAP2 POP POP PUSH1 0x1 SWAP1 SUB SWAP1 PUSH0 MSTORE PUSH1 0x20 PUSH0 KECCAK256 ADD PUSH0 SWAP1 SWAP2 SWAP1 SWAP2 SWAP1 SWAP2 PUSH2 0x100 EXP DUP2 SLOAD DUP2 PUSH20 0xFFFFFFFFFFFFFFFFFFFFFFFFFFFFFFFFFFFFFFFF MUL NOT AND SWAP1 DUP4 PUSH20 0xFFFFFFFFFFFFFFFFFFFFFFFFFFFFFFFFFFFFFFFF AND MUL OR SWAP1 SSTORE POP POP DUP1 DUP1 PUSH1 0x1 ADD SWAP2 POP POP PUSH2 0x33 JUMP JUMPDEST POP DUP1 PUSH1 0x2 DUP2 SWAP1 SSTORE POP POP POP PUSH2 0x39F JUMP JUMPDEST PUSH0 PUSH1 0x40 MLOAD SWAP1 POP SWAP1 JUMP JUMPDEST PUSH0 DUP1 REVERT JUMPDEST PUSH0 DUP1 REVERT JUMPDEST PUSH0 DUP1 REVERT JUMPDEST PUSH0 PUSH1 0x1F NOT PUSH1 0x1F DUP4 ADD AND SWAP1 POP SWAP2 SWAP1 POP JUMP JUMPDEST PUSH32 0x4E487B7100000000000000000000000000000000000000000000000000000000 PUSH0 MSTORE PUSH1 0x41 PUSH1 0x4 MSTORE PUSH1 0x24 PUSH0 REVERT JUMPDEST PUSH2 0x185 DUP3 PUSH2 0x13F JUMP JUMPDEST DUP2 ADD DUP2 DUP2 LT PUSH8 0xFFFFFFFFFFFFFFFF DUP3 GT OR ISZERO PUSH2 0x1A4 JUMPI PUSH2 0x1A3 PUSH2 0x14F JUMP JUMPDEST JUMPDEST DUP1 PUSH1 0x40 MSTORE POP POP POP JUMP JUMPDEST PUSH0 PUSH2 0x1B6 PUSH2 0x12A JUMP JUMPDEST SWAP1 POP PUSH2 0x1C2 DUP3 DUP3 PUSH2 0x17C JUMP JUMPDEST SWAP2 SWAP1 POP JUMP JUMPDEST PUSH0 PUSH8 0xFFFFFFFFFFFFFFFF DUP3 GT ISZERO PUSH2 0x1E1 JUMPI PUSH2 0x1E0 PUSH2 0x14F JUMP JUMPDEST JUMPDEST PUSH1 0x20 DUP3 MUL SWAP1 POP PUSH1 0x20 DUP2 ADD SWAP1 POP SWAP2 SWAP1 POP JUMP JUMPDEST PUSH0 DUP1 REVERT JUMPDEST PUSH0 PUSH20 0xFFFFFFFFFFFFFFFFFFFFFFFFFFFFFFFFFFFFFFFF DUP3 AND SWAP1 POP SWAP2 SWAP1 POP JUMP JUMPDEST PUSH0 PUSH2 0x21F DUP3 PUSH2 0x1F6 JUMP JUMPDEST SWAP1 POP SWAP2 SWAP1 POP JUMP JUMPDEST PUSH2 0x22F DUP2 PUSH2 0x215 JUMP JUMPDEST DUP2 EQ PUSH2 0x239 JUMPI PUSH0 DUP1 REVERT JUMPDEST POP JUMP JUMPDEST PUSH0 DUP2 MLOAD SWAP1 POP PUSH2 0x24A DUP2 PUSH2 0x226 JUMP JUMPDEST SWAP3 SWAP2 POP POP JUMP JUMPDEST PUSH0 PUSH2 0x262 PUSH2 0x25D DUP5 PUSH2 0x1C7 JUMP JUMPDEST PUSH2 0x1AD JUMP JUMPDEST SWAP1 POP DUP1 DUP4 DUP3 MSTORE PUSH1 0x20 DUP3 ADD SWAP1 POP PUSH1 0x20 DUP5 MUL DUP4 ADD DUP6 DUP2 GT ISZERO PUSH2 0x285 JUMPI PUSH2 0x284 PUSH2 0x1F2 JUMP JUMPDEST JUMPDEST DUP4 JUMPDEST DUP2 DUP2 LT ISZERO PUSH2 0x2AE JUMPI DUP1 PUSH2 0x29A DUP9 DUP3 PUSH2 0x23C JUMP JUMPDEST DUP5 MSTORE PUSH1 0x20 DUP5 ADD SWAP4 POP POP PUSH1 0x20 DUP2 ADD SWAP1 POP PUSH2 0x287 JUMP JUMPDEST POP POP POP SWAP4 SWAP3 POP POP POP JUMP JUMPDEST PUSH0 DUP3 PUSH1 0x1F DUP4 ADD SLT PUSH2 0x2CC JUMPI PUSH2 0x2CB PUSH2 0x13B JUMP JUMPDEST JUMPDEST DUP2 MLOAD PUSH2 0x2DC DUP5 DUP3 PUSH1 0x20 DUP7 ADD PUSH2 0x250 JUMP JUMPDEST SWAP2 POP POP SWAP3 SWAP2 POP POP JUMP JUMPDEST PUSH0 DUP2 SWAP1 POP SWAP2 SWAP1 POP JUMP JUMPDEST PUSH2 0x2F7 DUP2 PUSH2 0x2E5 JUMP JUMPDEST DUP2 EQ PUSH2 0x301 JUMPI PUSH0 DUP1 REVERT JUMPDEST POP JUMP JUMPDEST PUSH0 DUP2 MLOAD SWAP1 POP PUSH2 0x312 DUP2 PUSH2 0x2EE JUMP JUMPDEST SWAP3 SWAP2 POP POP JUMP JUMPDEST PUSH0 DUP1 PUSH1 0x40 DUP4 DUP6 SUB SLT ISZERO PUSH2 0x32E JUMPI PUSH2 0x32D PUSH2 0x133 JUMP JUMPDEST JUMPDEST PUSH0 DUP4 ADD MLOAD PUSH8 0xFFFFFFFFFFFFFFFF DUP2 GT ISZERO PUSH2 0x34B JUMPI PUSH2 0x34A PUSH2 0x137 JUMP JUMPDEST JUMPDEST PUSH2 0x357 DUP6 DUP3 DUP7 ADD PUSH2 0x2B8 JUMP JUMPDEST SWAP3 POP POP PUSH1 0x20 PUSH2 0x368 DUP6 DUP3 DUP7 ADD PUSH2 0x304 JUMP JUMPDEST SWAP2 POP POP SWAP3 POP SWAP3 SWAP1 POP JUMP JUMPDEST PUSH32 0x4E487B7100000000000000000000000000000000000000000000000000000000 PUSH0 MSTORE PUSH1 0x32 PUSH1 0x4 MSTORE PUSH1 0x24 PUSH0 REVERT JUMPDEST PUSH2 0x13E9 DUP1 PUSH2 0x3AC PUSH0 CODECOPY PUSH0 RETURN INVALID PUSH1 0x80 PUSH1 0x40 MSTORE PUSH1 0x4 CALLDATASIZE LT PUSH2 0x89 JUMPI PUSH0 CALLDATALOAD PUSH1 0xE0 SHR DUP1 PUSH4 0x62E2C270 GT PUSH2 0x58 JUMPI DUP1 PUSH4 0x62E2C270 EQ PUSH2 0x19E JUMPI DUP1 PUSH4 0x9ACE38C2 EQ PUSH2 0x1C8 JUMPI DUP1 PUSH4 0xB759F954 EQ PUSH2 0x207 JUMPI DUP1 PUSH4 0xF5B39FF1 EQ PUSH2 0x22F JUMPI DUP1 PUSH4 0xFE0D94C1 EQ PUSH2 0x26B JUMPI PUSH2 0xDE JUMP JUMPDEST DUP1 PUSH4 0x25E7C27 EQ PUSH2 0xE2 JUMPI DUP1 PUSH4 0x86BB259 EQ PUSH2 0x11E JUMPI DUP1 PUSH4 0x14DE327F EQ PUSH2 0x15A JUMPI DUP1 PUSH4 0x20C5429B EQ PUSH2 0x176 JUMPI PUSH2 0xDE JUMP JUMPDEST CALLDATASIZE PUSH2 0xDE JUMPI CALLER PUSH20 0xFFFFFFFFFFFFFFFFFFFFFFFFFFFFFFFFFFFFFFFF AND PUSH32 0xE1FFFCC4923D04B559F4D29A8BFC6CDA04EB5B0D3C460751C2402C5C5CC9109C CALLVALUE PUSH1 0x40 MLOAD PUSH2 0xD4 SWAP2 SWAP1 PUSH2 0xB28 JUMP JUMPDEST PUSH1 0x40 MLOAD DUP1 SWAP2 SUB SWAP1 LOG2 STOP JUMPDEST PUSH0 DUP1 REVERT JUMPDEST CALLVALUE DUP1 ISZERO PUSH2 0xED JUMPI PUSH0 DUP1 REVERT JUMPDEST POP PUSH2 0x108 PUSH1 0x4 DUP1 CALLDATASIZE SUB DUP2 ADD SWAP1 PUSH2 0x103 SWAP2 SWAP1 PUSH2 0xB73 JUMP JUMPDEST PUSH2 0x293 JUMP JUMPDEST PUSH1 0x40 MLOAD PUSH2 0x115 SWAP2 SWAP1 PUSH2 0xBDD JUMP JUMPDEST PUSH1 0x40 MLOAD DUP1 SWAP2 SUB SWAP1 RETURN JUMPDEST CALLVALUE DUP1 ISZERO PUSH2 0x129 JUMPI PUSH0 DUP1 REVERT JUMPDEST POP PUSH2 0x144 PUSH1 0x4 DUP1 CALLDATASIZE SUB DUP2 ADD SWAP1 PUSH2 0x13F SWAP2 SWAP1 PUSH2 0xC20 JUMP JUMPDEST PUSH2 0x2CD JUMP JUMPDEST PUSH1 0x40 MLOAD PUSH2 0x151 SWAP2 SWAP1 PUSH2 0xC65 JUMP JUMPDEST PUSH1 0x40 MLOAD DUP1 SWAP2 SUB SWAP1 RETURN JUMPDEST PUSH2 0x174 PUSH1 0x4 DUP1 CALLDATASIZE SUB DUP2 ADD SWAP1 PUSH2 0x16F SWAP2 SWAP1 PUSH2 0xCDF JUMP JUMPDEST PUSH2 0x2EA JUMP JUMPDEST STOP JUMPDEST CALLVALUE DUP1 ISZERO PUSH2 0x181 JUMPI PUSH0 DUP1 REVERT JUMPDEST POP PUSH2 0x19C PUSH1 0x4 DUP1 CALLDATASIZE SUB DUP2 ADD SWAP1 PUSH2 0x197 SWAP2 SWAP1 PUSH2 0xB73 JUMP JUMPDEST PUSH2 0x4EC JUMP JUMPDEST STOP JUMPDEST CALLVALUE DUP1 ISZERO PUSH2 0x1A9 JUMPI PUSH0 DUP1 REVERT JUMPDEST POP PUSH2 0x1B2 PUSH2 0x6C4 JUMP JUMPDEST PUSH1 0x40 MLOAD PUSH2 0x1BF SWAP2 SWAP1 PUSH2 0xB28 JUMP JUMPDEST PUSH1 0x40 MLOAD DUP1 SWAP2 SUB SWAP1 RETURN JUMPDEST CALLVALUE DUP1 ISZERO PUSH2 0x1D3 JUMPI PUSH0 DUP1 REVERT JUMPDEST POP PUSH2 0x1EE PUSH1 0x4 DUP1 CALLDATASIZE SUB DUP2 ADD SWAP1 PUSH2 0x1E9 SWAP2 SWAP1 PUSH2 0xB73 JUMP JUMPDEST PUSH2 0x6CA JUMP JUMPDEST PUSH1 0x40 MLOAD PUSH2 0x1FE SWAP5 SWAP4 SWAP3 SWAP2 SWAP1 PUSH2 0xDC0 JUMP JUMPDEST PUSH1 0x40 MLOAD DUP1 SWAP2 SUB SWAP1 RETURN JUMPDEST CALLVALUE DUP1 ISZERO PUSH2 0x212 JUMPI PUSH0 DUP1 REVERT JUMPDEST POP PUSH2 0x22D PUSH1 0x4 DUP1 CALLDATASIZE SUB DUP2 ADD SWAP1 PUSH2 0x228 SWAP2 SWAP1 PUSH2 0xB73 JUMP JUMPDEST PUSH2 0x7B6 JUMP JUMPDEST STOP JUMPDEST CALLVALUE DUP1 ISZERO PUSH2 0x23A JUMPI PUSH0 DUP1 REVERT JUMPDEST POP PUSH2 0x255 PUSH1 0x4 DUP1 CALLDATASIZE SUB DUP2 ADD SWAP1 PUSH2 0x250 SWAP2 SWAP1 PUSH2 0xE0A JUMP JUMPDEST PUSH2 0x8F7 JUMP JUMPDEST PUSH1 0x40 MLOAD PUSH2 0x262 SWAP2 SWAP1 PUSH2 0xC65 JUMP JUMPDEST PUSH1 0x40 MLOAD DUP1 SWAP2 SUB SWAP1 RETURN JUMPDEST CALLVALUE DUP1 ISZERO PUSH2 0x276 JUMPI PUSH0 DUP1 REVERT JUMPDEST POP PUSH2 0x291 PUSH1 0x4 DUP1 CALLDATASIZE SUB DUP2 ADD SWAP1 PUSH2 0x28C SWAP2 SWAP1 PUSH2 0xB73 JUMP JUMPDEST PUSH2 0x921 JUMP JUMPDEST STOP JUMPDEST PUSH0 DUP2 DUP2 SLOAD DUP2 LT PUSH2 0x2A1 JUMPI PUSH0 DUP1 REVERT JUMPDEST SWAP1 PUSH0 MSTORE PUSH1 0x20 PUSH0 KECCAK256 ADD PUSH0 SWAP2 POP SLOAD SWAP1 PUSH2 0x100 EXP SWAP1 DIV PUSH20 0xFFFFFFFFFFFFFFFFFFFFFFFFFFFFFFFFFFFFFFFF AND DUP2 JUMP JUMPDEST PUSH1 0x1 PUSH1 0x20 MSTORE DUP1 PUSH0 MSTORE PUSH1 0x40 PUSH0 KECCAK256 PUSH0 SWAP2 POP SLOAD SWAP1 PUSH2 0x100 EXP SWAP1 DIV PUSH1 0xFF AND DUP2 JUMP JUMPDEST PUSH1 0x1 ISZERO ISZERO PUSH1 0x1 PUSH0 CALLER PUSH20 0xFFFFFFFFFFFFFFFFFFFFFFFFFFFFFFFFFFFFFFFF AND PUSH20 0xFFFFFFFFFFFFFFFFFFFFFFFFFFFFFFFFFFFFFFFF AND DUP2 MSTORE PUSH1 0x20 ADD SWAP1 DUP2 MSTORE PUSH1 0x20 ADD PUSH0 KECCAK256 PUSH0 SWAP1 SLOAD SWAP1 PUSH2 0x100 EXP SWAP1 DIV PUSH1 0xFF AND ISZERO ISZERO EQ PUSH2 0x37A JUMPI PUSH1 0x40 MLOAD PUSH32 0x8C379A000000000000000000000000000000000000000000000000000000000 DUP2 MSTORE PUSH1 0x4 ADD PUSH2 0x371 SWAP1 PUSH2 0xEA2 JUMP JUMPDEST PUSH1 0x40 MLOAD DUP1 SWAP2 SUB SWAP1 REVERT JUMPDEST PUSH0 PUSH1 0x40 MLOAD DUP1 PUSH1 0x80 ADD PUSH1 0x40 MSTORE DUP1 DUP7 PUSH20 0xFFFFFFFFFFFFFFFFFFFFFFFFFFFFFFFFFFFFFFFF AND DUP2 MSTORE PUSH1 0x20 ADD DUP5 DUP5 DUP1 DUP1 PUSH1 0x1F ADD PUSH1 0x20 DUP1 SWAP2 DIV MUL PUSH1 0x20 ADD PUSH1 0x40 MLOAD SWAP1 DUP2 ADD PUSH1 0x40 MSTORE DUP1 SWAP4 SWAP3 SWAP2 SWAP1 DUP2 DUP2 MSTORE PUSH1 0x20 ADD DUP4 DUP4 DUP1 DUP3 DUP5 CALLDATACOPY PUSH0 DUP2 DUP5 ADD MSTORE PUSH1 0x1F NOT PUSH1 0x1F DUP3 ADD AND SWAP1 POP DUP1 DUP4 ADD SWAP3 POP POP POP POP POP POP POP DUP2 MSTORE PUSH1 0x20 ADD PUSH0 ISZERO ISZERO DUP2 MSTORE PUSH1 0x20 ADD DUP6 DUP2 MSTORE POP SWAP1 POP PUSH1 0x3 DUP2 SWAP1 DUP1 PUSH1 0x1 DUP2 SLOAD ADD DUP1 DUP3 SSTORE DUP1 SWAP2 POP POP PUSH1 0x1 SWAP1 SUB SWAP1 PUSH0 MSTORE PUSH1 0x20 PUSH0 KECCAK256 SWAP1 PUSH1 0x4 MUL ADD PUSH0 SWAP1 SWAP2 SWAP1 SWAP2 SWAP1 SWAP2 POP PUSH0 DUP3 ADD MLOAD DUP2 PUSH0 ADD PUSH0 PUSH2 0x100 EXP DUP2 SLOAD DUP2 PUSH20 0xFFFFFFFFFFFFFFFFFFFFFFFFFFFFFFFFFFFFFFFF MUL NOT AND SWAP1 DUP4 PUSH20 0xFFFFFFFFFFFFFFFFFFFFFFFFFFFFFFFFFFFFFFFF AND MUL OR SWAP1 SSTORE POP PUSH1 0x20 DUP3 ADD MLOAD DUP2 PUSH1 0x1 ADD SWAP1 DUP2 PUSH2 0x47B SWAP2 SWAP1 PUSH2 0x10E7 JUMP JUMPDEST POP PUSH1 0x40 DUP3 ADD MLOAD DUP2 PUSH1 0x2 ADD PUSH0 PUSH2 0x100 EXP DUP2 SLOAD DUP2 PUSH1 0xFF MUL NOT AND SWAP1 DUP4 ISZERO ISZERO MUL OR SWAP1 SSTORE POP PUSH1 0x60 DUP3 ADD MLOAD DUP2 PUSH1 0x3 ADD SSTORE POP POP PUSH1 0x1 PUSH1 0x3 DUP1 SLOAD SWAP1 POP PUSH2 0x4B9 SWAP2 SWAP1 PUSH2 0x11E3 JUMP JUMPDEST PUSH32 0x8324B3D745B914E3ABD4FFBFEAD91E3B78391A98C173202129215AB933ADFBE PUSH1 0x40 MLOAD PUSH1 0x40 MLOAD DUP1 SWAP2 SUB SWAP1 LOG2 POP POP POP POP POP JUMP JUMPDEST PUSH1 0x1 ISZERO ISZERO PUSH1 0x1 PUSH0 CALLER PUSH20 0xFFFFFFFFFFFFFFFFFFFFFFFFFFFFFFFFFFFFFFFF AND PUSH20 0xFFFFFFFFFFFFFFFFFFFFFFFFFFFFFFFFFFFFFFFF AND DUP2 MSTORE PUSH1 0x20 ADD SWAP1 DUP2 MSTORE PUSH1 0x20 ADD PUSH0 KECCAK256 PUSH0 SWAP1 SLOAD SWAP1 PUSH2 0x100 EXP SWAP1 DIV PUSH1 0xFF AND ISZERO ISZERO EQ PUSH2 0x57C JUMPI PUSH1 0x40 MLOAD PUSH32 0x8C379A000000000000000000000000000000000000000000000000000000000 DUP2 MSTORE PUSH1 0x4 ADD PUSH2 0x573 SWAP1 PUSH2 0xEA2 JUMP JUMPDEST PUSH1 0x40 MLOAD DUP1 SWAP2 SUB SWAP1 REVERT JUMPDEST DUP1 DUP2 DUP3 PUSH1 0x4 PUSH0 DUP6 DUP2 MSTORE PUSH1 0x20 ADD SWAP1 DUP2 MSTORE PUSH1 0x20 ADD PUSH0 KECCAK256 PUSH0 CALLER PUSH20 0xFFFFFFFFFFFFFFFFFFFFFFFFFFFFFFFFFFFFFFFF AND PUSH20 0xFFFFFFFFFFFFFFFFFFFFFFFFFFFFFFFFFFFFFFFF AND DUP2 MSTORE PUSH1 0x20 ADD SWAP1 DUP2 MSTORE PUSH1 0x20 ADD PUSH0 KECCAK256 PUSH0 SWAP1 SLOAD SWAP1 PUSH2 0x100 EXP SWAP1 DIV PUSH1 0xFF AND PUSH2 0x617 JUMPI PUSH1 0x40 MLOAD PUSH32 0x8C379A000000000000000000000000000000000000000000000000000000000 DUP2 MSTORE PUSH1 0x4 ADD PUSH2 0x60E SWAP1 PUSH2 0x1260 JUMP JUMPDEST PUSH1 0x40 MLOAD DUP1 SWAP2 SUB SWAP1 REVERT JUMPDEST PUSH0 PUSH1 0x4 PUSH0 DUP7 DUP2 MSTORE PUSH1 0x20 ADD SWAP1 DUP2 MSTORE PUSH1 0x20 ADD PUSH0 KECCAK256 PUSH0 CALLER PUSH20 0xFFFFFFFFFFFFFFFFFFFFFFFFFFFFFFFFFFFFFFFF AND PUSH20 0xFFFFFFFFFFFFFFFFFFFFFFFFFFFFFFFFFFFFFFFF AND DUP2 MSTORE PUSH1 0x20 ADD SWAP1 DUP2 MSTORE PUSH1 0x20 ADD PUSH0 KECCAK256 PUSH0 PUSH2 0x100 EXP DUP2 SLOAD DUP2 PUSH1 0xFF MUL NOT AND SWAP1 DUP4 ISZERO ISZERO MUL OR SWAP1 SSTORE POP DUP4 CALLER PUSH20 0xFFFFFFFFFFFFFFFFFFFFFFFFFFFFFFFFFFFFFFFF AND PUSH32 0xEC9AB91322523C899EDE7830EC9BFC992B5981CDCC27B91162FB23DE5791117B PUSH1 0x40 MLOAD PUSH1 0x40 MLOAD DUP1 SWAP2 SUB SWAP1 LOG3 POP POP POP POP JUMP JUMPDEST PUSH1 0x2 SLOAD DUP2 JUMP JUMPDEST PUSH1 0x3 DUP2 DUP2 SLOAD DUP2 LT PUSH2 0x6D9 JUMPI PUSH0 DUP1 REVERT JUMPDEST SWAP1 PUSH0 MSTORE PUSH1 0x20 PUSH0 KECCAK256 SWAP1 PUSH1 0x4 MUL ADD PUSH0 SWAP2 POP SWAP1 POP DUP1 PUSH0 ADD PUSH0 SWAP1 SLOAD SWAP1 PUSH2 0x100 EXP SWAP1 DIV PUSH20 0xFFFFFFFFFFFFFFFFFFFFFFFFFFFFFFFFFFFFFFFF AND SWAP1 DUP1 PUSH1 0x1 ADD DUP1 SLOAD PUSH2 0x71D SWAP1 PUSH2 0xF1A JUMP JUMPDEST DUP1 PUSH1 0x1F ADD PUSH1 0x20 DUP1 SWAP2 DIV MUL PUSH1 0x20 ADD PUSH1 0x40 MLOAD SWAP1 DUP2 ADD PUSH1 0x40 MSTORE DUP1 SWAP3 SWAP2 SWAP1 DUP2 DUP2 MSTORE PUSH1 0x20 ADD DUP3 DUP1 SLOAD PUSH2 0x749 SWAP1 PUSH2 0xF1A JUMP JUMPDEST DUP1 ISZERO PUSH2 0x794 JUMPI DUP1 PUSH1 0x1F LT PUSH2 0x76B JUMPI PUSH2 0x100 DUP1 DUP4 SLOAD DIV MUL DUP4 MSTORE SWAP2 PUSH1 0x20 ADD SWAP2 PUSH2 0x794 JUMP JUMPDEST DUP3 ADD SWAP2 SWAP1 PUSH0 MSTORE PUSH1 0x20 PUSH0 KECCAK256 SWAP1 JUMPDEST DUP2 SLOAD DUP2 MSTORE SWAP1 PUSH1 0x1 ADD SWAP1 PUSH1 0x20 ADD DUP1 DUP4 GT PUSH2 0x777 JUMPI DUP3 SWAP1 SUB PUSH1 0x1F AND DUP3 ADD SWAP2 JUMPDEST POP POP POP POP POP SWAP1 DUP1 PUSH1 0x2 ADD PUSH0 SWAP1 SLOAD SWAP1 PUSH2 0x100 EXP SWAP1 DIV PUSH1 0xFF AND SWAP1 DUP1 PUSH1 0x3 ADD SLOAD SWAP1 POP DUP5 JUMP JUMPDEST PUSH1 0x1 ISZERO ISZERO PUSH1 0x1 PUSH0 CALLER PUSH20 0xFFFFFFFFFFFFFFFFFFFFFFFFFFFFFFFFFFFFFFFF AND PUSH20 0xFFFFFFFFFFFFFFFFFFFFFFFFFFFFFFFFFFFFFFFF AND DUP2 MSTORE PUSH1 0x20 ADD SWAP1 DUP2 MSTORE PUSH1 0x20 ADD PUSH0 KECCAK256 PUSH0 SWAP1 SLOAD SWAP1 PUSH2 0x100 EXP SWAP1 DIV PUSH1 0xFF AND ISZERO ISZERO EQ PUSH2 0x846 JUMPI PUSH1 0x40 MLOAD PUSH32 0x8C379A000000000000000000000000000000000000000000000000000000000 DUP2 MSTORE PUSH1 0x4 ADD PUSH2 0x83D SWAP1 PUSH2 0xEA2 JUMP JUMPDEST PUSH1 0x40 MLOAD DUP1 SWAP2 SUB SWAP1 REVERT JUMPDEST DUP1 DUP2 DUP3 PUSH1 0x1 PUSH1 0x4 PUSH0 DUP7 DUP2 MSTORE PUSH1 0x20 ADD SWAP1 DUP2 MSTORE PUSH1 0x20 ADD PUSH0 KECCAK256 PUSH0 CALLER PUSH20 0xFFFFFFFFFFFFFFFFFFFFFFFFFFFFFFFFFFFFFFFF AND PUSH20 0xFFFFFFFFFFFFFFFFFFFFFFFFFFFFFFFFFFFFFFFF AND DUP2 MSTORE PUSH1 0x20 ADD SWAP1 DUP2 MSTORE PUSH1 0x20 ADD PUSH0 KECCAK256 PUSH0 PUSH2 0x100 EXP DUP2 SLOAD DUP2 PUSH1 0xFF MUL NOT AND SWAP1 DUP4 ISZERO ISZERO MUL OR SWAP1 SSTORE POP DUP4 CALLER PUSH20 0xFFFFFFFFFFFFFFFFFFFFFFFFFFFFFFFFFFFFFFFF AND PUSH32 0x90EC57F18FA7B15C6B8D5E4D1DEB90796C74B2FF23D4D0CECAD0CB42A96B3128 PUSH1 0x40 MLOAD PUSH1 0x40 MLOAD DUP1 SWAP2 SUB SWAP1 LOG3 POP POP POP POP JUMP JUMPDEST PUSH1 0x4 PUSH1 0x20 MSTORE DUP2 PUSH0 MSTORE PUSH1 0x40 PUSH0 KECCAK256 PUSH1 0x20 MSTORE DUP1 PUSH0 MSTORE PUSH1 0x40 PUSH0 KECCAK256 PUSH0 SWAP2 POP SWAP2 POP SWAP1 SLOAD SWAP1 PUSH2 0x100 EXP SWAP1 DIV PUSH1 0xFF AND DUP2 JUMP JUMPDEST PUSH1 0x1 ISZERO ISZERO PUSH1 0x1 PUSH0 CALLER PUSH20 0xFFFFFFFFFFFFFFFFFFFFFFFFFFFFFFFFFFFFFFFF AND PUSH20 0xFFFFFFFFFFFFFFFFFFFFFFFFFFFFFFFFFFFFFFFF AND DUP2 MSTORE PUSH1 0x20 ADD SWAP1 DUP2 MSTORE PUSH1 0x20 ADD PUSH0 KECCAK256 PUSH0 SWAP1 SLOAD SWAP1 PUSH2 0x100 EXP SWAP1 DIV PUSH1 0xFF AND ISZERO ISZERO EQ PUSH2 0x9B1 JUMPI PUSH1 0x40 MLOAD PUSH32 0x8C379A000000000000000000000000000000000000000000000000000000000 DUP2 MSTORE PUSH1 0x4 ADD PUSH2 0x9A8 SWAP1 PUSH2 0xEA2 JUMP JUMPDEST PUSH1 0x40 MLOAD DUP1 SWAP2 SUB SWAP1 REVERT JUMPDEST DUP1 DUP2 PUSH0 PUSH1 0x3 DUP5 DUP2 SLOAD DUP2 LT PUSH2 0x9C8 JUMPI PUSH2 0x9C7 PUSH2 0x127E JUMP JUMPDEST JUMPDEST SWAP1 PUSH0 MSTORE PUSH1 0x20 PUSH0 KECCAK256 SWAP1 PUSH1 0x4 MUL ADD SWAP1 POP PUSH0 DUP2 PUSH0 ADD PUSH0 SWAP1 SLOAD SWAP1 PUSH2 0x100 EXP SWAP1 DIV PUSH20 0xFFFFFFFFFFFFFFFFFFFFFFFFFFFFFFFFFFFFFFFF AND PUSH20 0xFFFFFFFFFFFFFFFFFFFFFFFFFFFFFFFFFFFFFFFF AND DUP3 PUSH1 0x3 ADD SLOAD DUP4 PUSH1 0x1 ADD PUSH1 0x40 MLOAD PUSH2 0xA26 SWAP2 SWAP1 PUSH2 0x1335 JUMP JUMPDEST PUSH0 PUSH1 0x40 MLOAD DUP1 DUP4 SUB DUP2 DUP6 DUP8 GAS CALL SWAP3 POP POP POP RETURNDATASIZE DUP1 PUSH0 DUP2 EQ PUSH2 0xA60 JUMPI PUSH1 0x40 MLOAD SWAP2 POP PUSH1 0x1F NOT PUSH1 0x3F RETURNDATASIZE ADD AND DUP3 ADD PUSH1 0x40 MSTORE RETURNDATASIZE DUP3 MSTORE RETURNDATASIZE PUSH0 PUSH1 0x20 DUP5 ADD RETURNDATACOPY PUSH2 0xA65 JUMP JUMPDEST PUSH1 0x60 SWAP2 POP JUMPDEST POP POP SWAP1 POP DUP1 PUSH2 0xAA9 JUMPI PUSH1 0x40 MLOAD PUSH32 0x8C379A000000000000000000000000000000000000000000000000000000000 DUP2 MSTORE PUSH1 0x4 ADD PUSH2 0xAA0 SWAP1 PUSH2 0x1395 JUMP JUMPDEST PUSH1 0x40 MLOAD DUP1 SWAP2 SUB SWAP1 REVERT JUMPDEST PUSH1 0x1 DUP3 PUSH1 0x2 ADD PUSH0 PUSH2 0x100 EXP DUP2 SLOAD DUP2 PUSH1 0xFF MUL NOT AND SWAP1 DUP4 ISZERO ISZERO MUL OR SWAP1 SSTORE POP DUP5 CALLER PUSH20 0xFFFFFFFFFFFFFFFFFFFFFFFFFFFFFFFFFFFFFFFF AND PUSH32 0x892CD8F5B436BD5FB7DAC1F11AAFB73345D892BA3E9FE09CD94D95BA84928E73 PUSH1 0x40 MLOAD PUSH1 0x40 MLOAD DUP1 SWAP2 SUB SWAP1 LOG3 POP POP POP POP POP JUMP JUMPDEST PUSH0 DUP2 SWAP1 POP SWAP2 SWAP1 POP JUMP JUMPDEST PUSH2 0xB22 DUP2 PUSH2 0xB10 JUMP JUMPDEST DUP3 MSTORE POP POP JUMP JUMPDEST PUSH0 PUSH1 0x20 DUP3 ADD SWAP1 POP PUSH2 0xB3B PUSH0 DUP4 ADD DUP5 PUSH2 0xB19 JUMP JUMPDEST SWAP3 SWAP2 POP POP JUMP JUMPDEST PUSH0 DUP1 REVERT JUMPDEST PUSH0 DUP1 REVERT JUMPDEST PUSH2 0xB52 DUP2 PUSH2 0xB10 JUMP JUMPDEST DUP2 EQ PUSH2 0xB5C JUMPI PUSH0 DUP1 REVERT JUMPDEST POP JUMP JUMPDEST PUSH0 DUP2 CALLDATALOAD SWAP1 POP PUSH2 0xB6D DUP2 PUSH2 0xB49 JUMP JUMPDEST SWAP3 SWAP2 POP POP JUMP JUMPDEST PUSH0 PUSH1 0x20 DUP3 DUP5 SUB SLT ISZERO PUSH2 0xB88 JUMPI PUSH2 0xB87 PUSH2 0xB41 JUMP JUMPDEST JUMPDEST PUSH0 PUSH2 0xB95 DUP5 DUP3 DUP6 ADD PUSH2 0xB5F JUMP JUMPDEST SWAP2 POP POP SWAP3 SWAP2 POP POP JUMP JUMPDEST PUSH0 PUSH20 0xFFFFFFFFFFFFFFFFFFFFFFFFFFFFFFFFFFFFFFFF DUP3 AND SWAP1 POP SWAP2 SWAP1 POP JUMP JUMPDEST PUSH0 PUSH2 0xBC7 DUP3 PUSH2 0xB9E JUMP JUMPDEST SWAP1 POP SWAP2 SWAP1 POP JUMP JUMPDEST PUSH2 0xBD7 DUP2 PUSH2 0xBBD JUMP JUMPDEST DUP3 MSTORE POP POP JUMP JUMPDEST PUSH0 PUSH1 0x20 DUP3 ADD SWAP1 POP PUSH2 0xBF0 PUSH0 DUP4 ADD DUP5 PUSH2 0xBCE JUMP JUMPDEST SWAP3 SWAP2 POP POP JUMP JUMPDEST PUSH2 0xBFF DUP2 PUSH2 0xBBD JUMP JUMPDEST DUP2 EQ PUSH2 0xC09 JUMPI PUSH0 DUP1 REVERT JUMPDEST POP JUMP JUMPDEST PUSH0 DUP2 CALLDATALOAD SWAP1 POP PUSH2 0xC1A DUP2 PUSH2 0xBF6 JUMP JUMPDEST SWAP3 SWAP2 POP POP JUMP JUMPDEST PUSH0 PUSH1 0x20 DUP3 DUP5 SUB SLT ISZERO PUSH2 0xC35 JUMPI PUSH2 0xC34 PUSH2 0xB41 JUMP JUMPDEST JUMPDEST PUSH0 PUSH2 0xC42 DUP5 DUP3 DUP6 ADD PUSH2 0xC0C JUMP JUMPDEST SWAP2 POP POP SWAP3 SWAP2 POP POP JUMP JUMPDEST PUSH0 DUP2 ISZERO ISZERO SWAP1 POP SWAP2 SWAP1 POP JUMP JUMPDEST PUSH2 0xC5F DUP2 PUSH2 0xC4B JUMP JUMPDEST DUP3 MSTORE POP POP JUMP JUMPDEST PUSH0 PUSH1 0x20 DUP3 ADD SWAP1 POP PUSH2 0xC78 PUSH0 DUP4 ADD DUP5 PUSH2 0xC56 JUMP JUMPDEST SWAP3 SWAP2 POP POP JUMP JUMPDEST PUSH0 DUP1 REVERT JUMPDEST PUSH0 DUP1 REVERT JUMPDEST PUSH0 DUP1 REVERT JUMPDEST PUSH0 DUP1 DUP4 PUSH1 0x1F DUP5 ADD SLT PUSH2 0xC9F JUMPI PUSH2 0xC9E PUSH2 0xC7E JUMP JUMPDEST JUMPDEST DUP3 CALLDATALOAD SWAP1 POP PUSH8 0xFFFFFFFFFFFFFFFF DUP2 GT ISZERO PUSH2 0xCBC JUMPI PUSH2 0xCBB PUSH2 0xC82 JUMP JUMPDEST JUMPDEST PUSH1 0x20 DUP4 ADD SWAP2 POP DUP4 PUSH1 0x1 DUP3 MUL DUP4 ADD GT ISZERO PUSH2 0xCD8 JUMPI PUSH2 0xCD7 PUSH2 0xC86 JUMP JUMPDEST JUMPDEST SWAP3 POP SWAP3 SWAP1 POP JUMP JUMPDEST PUSH0 DUP1 PUSH0 DUP1 PUSH1 0x60 DUP6 DUP8 SUB SLT ISZERO PUSH2 0xCF7 JUMPI PUSH2 0xCF6 PUSH2 0xB41 JUMP JUMPDEST JUMPDEST PUSH0 PUSH2 0xD04 DUP8 DUP3 DUP9 ADD PUSH2 0xC0C JUMP JUMPDEST SWAP5 POP POP PUSH1 0x20 PUSH2 0xD15 DUP8 DUP3 DUP9 ADD PUSH2 0xB5F JUMP JUMPDEST SWAP4 POP POP PUSH1 0x40 DUP6 ADD CALLDATALOAD PUSH8 0xFFFFFFFFFFFFFFFF DUP2 GT ISZERO PUSH2 0xD36 JUMPI PUSH2 0xD35 PUSH2 0xB45 JUMP JUMPDEST JUMPDEST PUSH2 0xD42 DUP8 DUP3 DUP9 ADD PUSH2 0xC8A JUMP JUMPDEST SWAP3 POP SWAP3 POP POP SWAP3 SWAP6 SWAP2 SWAP5 POP SWAP3 POP JUMP JUMPDEST PUSH0 DUP2 MLOAD SWAP1 POP SWAP2 SWAP1 POP JUMP JUMPDEST PUSH0 DUP3 DUP3 MSTORE PUSH1 0x20 DUP3 ADD SWAP1 POP SWAP3 SWAP2 POP POP JUMP JUMPDEST DUP3 DUP2 DUP4 MCOPY PUSH0 DUP4 DUP4 ADD MSTORE POP POP POP JUMP JUMPDEST PUSH0 PUSH1 0x1F NOT PUSH1 0x1F DUP4 ADD AND SWAP1 POP SWAP2 SWAP1 POP JUMP JUMPDEST PUSH0 PUSH2 0xD92 DUP3 PUSH2 0xD50 JUMP JUMPDEST PUSH2 0xD9C DUP2 DUP6 PUSH2 0xD5A JUMP JUMPDEST SWAP4 POP PUSH2 0xDAC DUP2 DUP6 PUSH1 0x20 DUP7 ADD PUSH2 0xD6A JUMP JUMPDEST PUSH2 0xDB5 DUP2 PUSH2 0xD78 JUMP JUMPDEST DUP5 ADD SWAP2 POP POP SWAP3 SWAP2 POP POP JUMP JUMPDEST PUSH0 PUSH1 0x80 DUP3 ADD SWAP1 POP PUSH2 0xDD3 PUSH0 DUP4 ADD DUP8 PUSH2 0xBCE JUMP JUMPDEST DUP2 DUP2 SUB PUSH1 0x20 DUP4 ADD MSTORE PUSH2 0xDE5 DUP2 DUP7 PUSH2 0xD88 JUMP JUMPDEST SWAP1 POP PUSH2 0xDF4 PUSH1 0x40 DUP4 ADD DUP6 PUSH2 0xC56 JUMP JUMPDEST PUSH2 0xE01 PUSH1 0x60 DUP4 ADD DUP5 PUSH2 0xB19 JUMP JUMPDEST SWAP6 SWAP5 POP POP POP POP POP JUMP JUMPDEST PUSH0 DUP1 PUSH1 0x40 DUP4 DUP6 SUB SLT ISZERO PUSH2 0xE20 JUMPI PUSH2 0xE1F PUSH2 0xB41 JUMP JUMPDEST JUMPDEST PUSH0 PUSH2 0xE2D DUP6 DUP3 DUP7 ADD PUSH2 0xB5F JUMP JUMPDEST SWAP3 POP POP PUSH1 0x20 PUSH2 0xE3E DUP6 DUP3 DUP7 ADD PUSH2 0xC0C JUMP JUMPDEST SWAP2 POP POP SWAP3 POP SWAP3 SWAP1 POP JUMP JUMPDEST PUSH0 DUP3 DUP3 MSTORE PUSH1 0x20 DUP3 ADD SWAP1 POP SWAP3 SWAP2 POP POP JUMP JUMPDEST PUSH32 0x6E6F74206F776E65720000000000000000000000000000000000000000000000 PUSH0 DUP3 ADD MSTORE POP JUMP JUMPDEST PUSH0 PUSH2 0xE8C PUSH1 0x9 DUP4 PUSH2 0xE48 JUMP JUMPDEST SWAP2 POP PUSH2 0xE97 DUP3 PUSH2 0xE58 JUMP JUMPDEST PUSH1 0x20 DUP3 ADD SWAP1 POP SWAP2 SWAP1 POP JUMP JUMPDEST PUSH0 PUSH1 0x20 DUP3 ADD SWAP1 POP DUP2 DUP2 SUB PUSH0 DUP4 ADD MSTORE PUSH2 0xEB9 DUP2 PUSH2 0xE80 JUMP JUMPDEST SWAP1 POP SWAP2 SWAP1 POP JUMP JUMPDEST PUSH32 0x4E487B7100000000000000000000000000000000000000000000000000000000 PUSH0 MSTORE PUSH1 0x41 PUSH1 0x4 MSTORE PUSH1 0x24 PUSH0 REVERT JUMPDEST PUSH32 0x4E487B7100000000000000000000000000000000000000000000000000000000 PUSH0 MSTORE PUSH1 0x22 PUSH1 0x4 MSTORE PUSH1 0x24 PUSH0 REVERT JUMPDEST PUSH0 PUSH1 0x2 DUP3 DIV SWAP1 POP PUSH1 0x1 DUP3 AND DUP1 PUSH2 0xF31 JUMPI PUSH1 0x7F DUP3 AND SWAP2 POP JUMPDEST PUSH1 0x20 DUP3 LT DUP2 SUB PUSH2 0xF44 JUMPI PUSH2 0xF43 PUSH2 0xEED JUMP JUMPDEST JUMPDEST POP SWAP2 SWAP1 POP JUMP JUMPDEST PUSH0 DUP2 SWAP1 POP DUP2 PUSH0 MSTORE PUSH1 0x20 PUSH0 KECCAK256 SWAP1 POP SWAP2 SWAP1 POP JUMP JUMPDEST PUSH0 PUSH1 0x20 PUSH1 0x1F DUP4 ADD DIV SWAP1 POP SWAP2 SWAP1 POP JUMP JUMPDEST PUSH0 DUP3 DUP3 SHL SWAP1 POP SWAP3 SWAP2 POP POP JUMP JUMPDEST PUSH0 PUSH1 0x8 DUP4 MUL PUSH2 0xFA6 PUSH32 0xFFFFFFFFFFFFFFFFFFFFFFFFFFFFFFFFFFFFFFFFFFFFFFFFFFFFFFFFFFFFFFFF DUP3 PUSH2 0xF6B JUMP JUMPDEST PUSH2 0xFB0 DUP7 DUP4 PUSH2 0xF6B JUMP JUMPDEST SWAP6 POP DUP1 NOT DUP5 AND SWAP4 POP DUP1 DUP7 AND DUP5 OR SWAP3 POP POP POP SWAP4 SWAP3 POP POP POP JUMP JUMPDEST PUSH0 DUP2 SWAP1 POP SWAP2 SWAP1 POP JUMP JUMPDEST PUSH0 PUSH2 0xFEB PUSH2 0xFE6 PUSH2 0xFE1 DUP5 PUSH2 0xB10 JUMP JUMPDEST PUSH2 0xFC8 JUMP JUMPDEST PUSH2 0xB10 JUMP JUMPDEST SWAP1 POP SWAP2 SWAP1 POP JUMP JUMPDEST PUSH0 DUP2 SWAP1 POP SWAP2 SWAP1 POP JUMP JUMPDEST PUSH2 0x1004 DUP4 PUSH2 0xFD1 JUMP JUMPDEST PUSH2 0x1018 PUSH2 0x1010 DUP3 PUSH2 0xFF2 JUMP JUMPDEST DUP5 DUP5 SLOAD PUSH2 0xF77 JUMP JUMPDEST DUP3 SSTORE POP POP POP POP JUMP JUMPDEST PUSH0 SWAP1 JUMP JUMPDEST PUSH2 0x102C PUSH2 0x1020 JUMP JUMPDEST PUSH2 0x1037 DUP2 DUP5 DUP5 PUSH2 0xFFB JUMP JUMPDEST POP POP POP JUMP JUMPDEST JUMPDEST DUP2 DUP2 LT ISZERO PUSH2 0x105A JUMPI PUSH2 0x104F PUSH0 DUP3 PUSH2 0x1024 JUMP JUMPDEST PUSH1 0x1 DUP2 ADD SWAP1 POP PUSH2 0x103D JUMP JUMPDEST POP POP JUMP JUMPDEST PUSH1 0x1F DUP3 GT ISZERO PUSH2 0x109F JUMPI PUSH2 0x1070 DUP2 PUSH2 0xF4A JUMP JUMPDEST PUSH2 0x1079 DUP5 PUSH2 0xF5C JUMP JUMPDEST DUP2 ADD PUSH1 0x20 DUP6 LT ISZERO PUSH2 0x1088 JUMPI DUP2 SWAP1 POP JUMPDEST PUSH2 0x109C PUSH2 0x1094 DUP6 PUSH2 0xF5C JUMP JUMPDEST DUP4 ADD DUP3 PUSH2 0x103C JUMP JUMPDEST POP POP JUMPDEST POP POP POP JUMP JUMPDEST PUSH0 DUP3 DUP3 SHR SWAP1 POP SWAP3 SWAP2 POP POP JUMP JUMPDEST PUSH0 PUSH2 0x10BF PUSH0 NOT DUP5 PUSH1 0x8 MUL PUSH2 0x10A4 JUMP JUMPDEST NOT DUP1 DUP4 AND SWAP2 POP POP SWAP3 SWAP2 POP POP JUMP JUMPDEST PUSH0 PUSH2 0x10D7 DUP4 DUP4 PUSH2 0x10B0 JUMP JUMPDEST SWAP2 POP DUP3 PUSH1 0x2 MUL DUP3 OR SWAP1 POP SWAP3 SWAP2 POP POP JUMP JUMPDEST PUSH2 0x10F0 DUP3 PUSH2 0xD50 JUMP JUMPDEST PUSH8 0xFFFFFFFFFFFFFFFF DUP2 GT ISZERO PUSH2 0x1109 JUMPI PUSH2 0x1108 PUSH2 0xEC0 JUMP JUMPDEST JUMPDEST PUSH2 0x1113 DUP3 SLOAD PUSH2 0xF1A JUMP JUMPDEST PUSH2 0x111E DUP3 DUP3 DUP6 PUSH2 0x105E JUMP JUMPDEST PUSH0 PUSH1 0x20 SWAP1 POP PUSH1 0x1F DUP4 GT PUSH1 0x1 DUP2 EQ PUSH2 0x114F JUMPI PUSH0 DUP5 ISZERO PUSH2 0x113D JUMPI DUP3 DUP8 ADD MLOAD SWAP1 POP JUMPDEST PUSH2 0x1147 DUP6 DUP3 PUSH2 0x10CC JUMP JUMPDEST DUP7 SSTORE POP PUSH2 0x11AE JUMP JUMPDEST PUSH1 0x1F NOT DUP5 AND PUSH2 0x115D DUP7 PUSH2 0xF4A JUMP JUMPDEST PUSH0 JUMPDEST DUP3 DUP2 LT ISZERO PUSH2 0x1184 JUMPI DUP5 DUP10 ADD MLOAD DUP3 SSTORE PUSH1 0x1 DUP3 ADD SWAP2 POP PUSH1 0x20 DUP6 ADD SWAP5 POP PUSH1 0x20 DUP2 ADD SWAP1 POP PUSH2 0x115F JUMP JUMPDEST DUP7 DUP4 LT ISZERO PUSH2 0x11A1 JUMPI DUP5 DUP10 ADD MLOAD PUSH2 0x119D PUSH1 0x1F DUP10 AND DUP3 PUSH2 0x10B0 JUMP JUMPDEST DUP4 SSTORE POP JUMPDEST PUSH1 0x1 PUSH1 0x2 DUP9 MUL ADD DUP9 SSTORE POP POP POP JUMPDEST POP POP POP POP POP POP JUMP JUMPDEST PUSH32 0x4E487B7100000000000000000000000000000000000000000000000000000000 PUSH0 MSTORE PUSH1 0x11 PUSH1 0x4 MSTORE PUSH1 0x24 PUSH0 REVERT JUMPDEST PUSH0 PUSH2 0x11ED DUP3 PUSH2 0xB10 JUMP JUMPDEST SWAP2 POP PUSH2 0x11F8 DUP4 PUSH2 0xB10 JUMP JUMPDEST SWAP3 POP DUP3 DUP3 SUB SWAP1 POP DUP2 DUP2 GT ISZERO PUSH2 0x1210 JUMPI PUSH2 0x120F PUSH2 0x11B6 JUMP JUMPDEST JUMPDEST SWAP3 SWAP2 POP POP JUMP JUMPDEST PUSH32 0x6E6F7420617070726F7665640000000000000000000000000000000000000000 PUSH0 DUP3 ADD MSTORE POP JUMP JUMPDEST PUSH0 PUSH2 0x124A PUSH1 0xC DUP4 PUSH2 0xE48 JUMP JUMPDEST SWAP2 POP PUSH2 0x1255 DUP3 PUSH2 0x1216 JUMP JUMPDEST PUSH1 0x20 DUP3 ADD SWAP1 POP SWAP2 SWAP1 POP JUMP JUMPDEST PUSH0 PUSH1 0x20 DUP3 ADD SWAP1 POP DUP2 DUP2 SUB PUSH0 DUP4 ADD MSTORE PUSH2 0x1277 DUP2 PUSH2 0x123E JUMP JUMPDEST SWAP1 POP SWAP2 SWAP1 POP JUMP JUMPDEST PUSH32 0x4E487B7100000000000000000000000000000000000000000000000000000000 PUSH0 MSTORE PUSH1 0x32 PUSH1 0x4 MSTORE PUSH1 0x24 PUSH0 REVERT JUMPDEST PUSH0 DUP2 SWAP1 POP SWAP3 SWAP2 POP POP JUMP JUMPDEST PUSH0 DUP2 SLOAD PUSH2 0x12C1 DUP2 PUSH2 0xF1A JUMP JUMPDEST PUSH2 0x12CB DUP2 DUP7 PUSH2 0x12AB JUMP JUMPDEST SWAP5 POP PUSH1 0x1 DUP3 AND PUSH0 DUP2 EQ PUSH2 0x12E5 JUMPI PUSH1 0x1 DUP2 EQ PUSH2 0x12FA JUMPI PUSH2 0x132C JUMP JUMPDEST PUSH1 0xFF NOT DUP4 AND DUP7 MSTORE DUP2 ISZERO ISZERO DUP3 MUL DUP7 ADD SWAP4 POP PUSH2 0x132C JUMP JUMPDEST PUSH2 0x1303 DUP6 PUSH2 0xF4A JUMP JUMPDEST PUSH0 JUMPDEST DUP4 DUP2 LT ISZERO PUSH2 0x1324 JUMPI DUP2 SLOAD DUP2 DUP10 ADD MSTORE PUSH1 0x1 DUP3 ADD SWAP2 POP PUSH1 0x20 DUP2 ADD SWAP1 POP PUSH2 0x1305 JUMP JUMPDEST DUP4 DUP9 ADD SWAP6 POP POP POP JUMPDEST POP POP POP SWAP3 SWAP2 POP POP JUMP JUMPDEST PUSH0 PUSH2 0x1340 DUP3 DUP5 PUSH2 0x12B5 JUMP JUMPDEST SWAP2 POP DUP2 SWAP1 POP SWAP3 SWAP2 POP POP JUMP JUMPDEST PUSH32 0x6661696C2063616C6C0000000000000000000000000000000000000000000000 PUSH0 DUP3 ADD MSTORE POP JUMP JUMPDEST PUSH0 PUSH2 0x137F PUSH1 0x9 DUP4 PUSH2 0xE48 JUMP JUMPDEST SWAP2 POP PUSH2 0x138A DUP3 PUSH2 0x134B JUMP JUMPDEST PUSH1 0x20 DUP3 ADD SWAP1 POP SWAP2 SWAP1 POP JUMP JUMPDEST PUSH0 PUSH1 0x20 DUP3 ADD SWAP1 POP DUP2 DUP2 SUB PUSH0 DUP4 ADD MSTORE PUSH2 0x13AC DUP2 PUSH2 0x1373 JUMP JUMPDEST SWAP1 POP SWAP2 SWAP1 POP JUMP INVALID LOG2 PUSH5 0x6970667358 0x22 SLT KECCAK256 RETURNDATASIZE SWAP8 0x27 0x2C 0x22 CODESIZE 0xC6 PUSH26 0xEEF5501DB574BA7178C2C998CE4170FF8836CAC908FCCA3A6473 PUSH16 0x6C634300081A00330000000000000000 "
				},
				"gasEstimates": {
					"creation": {
						"codeDepositCost": "1019400",
						"executionCost": "infinite",
						"totalCost": "infinite"
					},
					"external": {
						"approve(uint256)": "28684",
						"approvedMapping(uint256,address)": "3137",
						"execute(uint256)": "infinite",
						"isOwnerMapping(address)": "2856",
						"needOwnerNum()": "2425",
						"owners(uint256)": "4944",
						"revoke(uint256)": "31021",
						"submit(address,uint256,bytes)": "infinite",
						"transactions(uint256)": "infinite"
					},
					"internal": {
						"_getApprovedCount(uint256)": "infinite"
					}
				},
				"methodIdentifiers": {
					"approve(uint256)": "b759f954",
					"approvedMapping(uint256,address)": "f5b39ff1",
					"execute(uint256)": "fe0d94c1",
					"isOwnerMapping(address)": "086bb259",
					"needOwnerNum()": "62e2c270",
					"owners(uint256)": "025e7c27",
					"revoke(uint256)": "20c5429b",
					"submit(address,uint256,bytes)": "14de327f",
					"transactions(uint256)": "9ace38c2"
				}
			},
			"storageLayout": {
				"storage": [
					{
						"astId": 32,
						"contract": "052MultiSignWallet.sol:MultiSignWallet",
						"label": "owners",
						"offset": 0,
						"slot": "0",
						"type": "t_array(t_address)dyn_storage"
					},
					{
						"astId": 36,
						"contract": "052MultiSignWallet.sol:MultiSignWallet",
						"label": "isOwnerMapping",
						"offset": 0,
						"slot": "1",
						"type": "t_mapping(t_address,t_bool)"
					},
					{
						"astId": 38,
						"contract": "052MultiSignWallet.sol:MultiSignWallet",
						"label": "needOwnerNum",
						"offset": 0,
						"slot": "2",
						"type": "t_uint256"
					},
					{
						"astId": 51,
						"contract": "052MultiSignWallet.sol:MultiSignWallet",
						"label": "transactions",
						"offset": 0,
						"slot": "3",
						"type": "t_array(t_struct(Transaction)47_storage)dyn_storage"
					},
					{
						"astId": 57,
						"contract": "052MultiSignWallet.sol:MultiSignWallet",
						"label": "approvedMapping",
						"offset": 0,
						"slot": "4",
						"type": "t_mapping(t_uint256,t_mapping(t_address,t_bool))"
					}
				],
				"types": {
					"t_address": {
						"encoding": "inplace",
						"label": "address",
						"numberOfBytes": "20"
					},
					"t_array(t_address)dyn_storage": {
						"base": "t_address",
						"encoding": "dynamic_array",
						"label": "address[]",
						"numberOfBytes": "32"
					},
					"t_array(t_struct(Transaction)47_storage)dyn_storage": {
						"base": "t_struct(Transaction)47_storage",
						"encoding": "dynamic_array",
						"label": "struct MultiSignWallet.Transaction[]",
						"numberOfBytes": "32"
					},
					"t_bool": {
						"encoding": "inplace",
						"label": "bool",
						"numberOfBytes": "1"
					},
					"t_bytes_storage": {
						"encoding": "bytes",
						"label": "bytes",
						"numberOfBytes": "32"
					},
					"t_mapping(t_address,t_bool)": {
						"encoding": "mapping",
						"key": "t_address",
						"label": "mapping(address => bool)",
						"numberOfBytes": "32",
						"value": "t_bool"
					},
					"t_mapping(t_uint256,t_mapping(t_address,t_bool))": {
						"encoding": "mapping",
						"key": "t_uint256",
						"label": "mapping(uint256 => mapping(address => bool))",
						"numberOfBytes": "32",
						"value": "t_mapping(t_address,t_bool)"
					},
					"t_struct(Transaction)47_storage": {
						"encoding": "inplace",
						"label": "struct MultiSignWallet.Transaction",
						"members": [
							{
								"astId": 40,
								"contract": "052MultiSignWallet.sol:MultiSignWallet",
								"label": "to",
								"offset": 0,
								"slot": "0",
								"type": "t_address"
							},
							{
								"astId": 42,
								"contract": "052MultiSignWallet.sol:MultiSignWallet",
								"label": "data",
								"offset": 0,
								"slot": "1",
								"type": "t_bytes_storage"
							},
							{
								"astId": 44,
								"contract": "052MultiSignWallet.sol:MultiSignWallet",
								"label": "executed",
								"offset": 0,
								"slot": "2",
								"type": "t_bool"
							},
							{
								"astId": 46,
								"contract": "052MultiSignWallet.sol:MultiSignWallet",
								"label": "amount",
								"offset": 0,
								"slot": "3",
								"type": "t_uint256"
							}
						],
						"numberOfBytes": "128"
					},
					"t_uint256": {
						"encoding": "inplace",
						"label": "uint256",
						"numberOfBytes": "32"
					}
				}
			},
			"userdoc": {
				"kind": "user",
				"methods": {},
				"version": 1
			}
		}
	}
}