{
	"HashFunc.sol": {
		"HashFunc": {
			"abi": [
				{
					"inputs": [
						{
							"internalType": "string",
							"name": "_text",
							"type": "string"
						},
						{
							"internalType": "uint256",
							"name": "_x",
							"type": "uint256"
						},
						{
							"internalType": "string",
							"name": "_text1",
							"type": "string"
						}
					],
					"name": "collistion",
					"outputs": [
						{
							"internalType": "bytes32",
							"name": "",
							"type": "bytes32"
						}
					],
					"stateMutability": "pure",
					"type": "function"
				},
				{
					"inputs": [
						{
							"internalType": "string",
							"name": "_text",
							"type": "string"
						},
						{
							"internalType": "string",
							"name": "_text1",
							"type": "string"
						}
					],
					"name": "collistion",
					"outputs": [
						{
							"internalType": "bytes32",
							"name": "",
							"type": "bytes32"
						}
					],
					"stateMutability": "pure",
					"type": "function"
				},
				{
					"inputs": [
						{
							"internalType": "string",
							"name": "_text",
							"type": "string"
						},
						{
							"internalType": "string",
							"name": "_text1",
							"type": "string"
						}
					],
					"name": "encode",
					"outputs": [
						{
							"internalType": "bytes",
							"name": "",
							"type": "bytes"
						}
					],
					"stateMutability": "pure",
					"type": "function"
				},
				{
					"inputs": [
						{
							"internalType": "string",
							"name": "_text",
							"type": "string"
						},
						{
							"internalType": "string",
							"name": "_text1",
							"type": "string"
						}
					],
					"name": "encodePacked",
					"outputs": [
						{
							"internalType": "bytes",
							"name": "",
							"type": "bytes"
						}
					],
					"stateMutability": "pure",
					"type": "function"
				},
				{
					"inputs": [
						{
							"internalType": "string",
							"name": "_text",
							"type": "string"
						},
						{
							"internalType": "uint256",
							"name": "_num",
							"type": "uint256"
						},
						{
							"internalType": "address",
							"name": "_addr",
							"type": "address"
						}
					],
					"name": "hash",
					"outputs": [
						{
							"internalType": "bytes32",
							"name": "",
							"type": "bytes32"
						}
					],
					"stateMutability": "pure",
					"type": "function"
				}
			],
			"devdoc": {
				"kind": "dev",
				"methods": {},
				"version": 1
			},
			"evm": {
				"assembly": "    /* \"HashFunc.sol\":57:891  contract HashFunc{... */\n  mstore(0x40, 0x80)\n  callvalue\n  dup1\n  iszero\n  tag_1\n  jumpi\n  0x00\n  dup1\n  revert\ntag_1:\n  pop\n  dataSize(sub_0)\n  dup1\n  dataOffset(sub_0)\n  0x00\n  codecopy\n  0x00\n  return\nstop\n\nsub_0: assembly {\n        /* \"HashFunc.sol\":57:891  contract HashFunc{... */\n      mstore(0x40, 0x80)\n      callvalue\n      dup1\n      iszero\n      tag_1\n      jumpi\n      0x00\n      dup1\n      revert\n    tag_1:\n      pop\n      jumpi(tag_2, lt(calldatasize, 0x04))\n      shr(0xe0, calldataload(0x00))\n      dup1\n      0x17fe2da2\n      eq\n      tag_3\n      jumpi\n      dup1\n      0x32ee4987\n      eq\n      tag_4\n      jumpi\n      dup1\n      0x5dda416e\n      eq\n      tag_5\n      jumpi\n      dup1\n      0x81c880ea\n      eq\n      tag_6\n      jumpi\n      dup1\n      0x892e5d01\n      eq\n      tag_7\n      jumpi\n    tag_2:\n      0x00\n      dup1\n      revert\n        /* \"HashFunc.sol\":246:388  function encode(string memory _text,string memory _text1) external pure returns (bytes memory){... */\n    tag_3:\n      tag_8\n      0x04\n      dup1\n      calldatasize\n      sub\n      dup2\n      add\n      swap1\n      tag_9\n      swap2\n      swap1\n      tag_10\n      jump\t// in\n    tag_9:\n      tag_11\n      jump\t// in\n    tag_8:\n      mload(0x40)\n      tag_12\n      swap2\n      swap1\n      tag_13\n      jump\t// in\n    tag_12:\n      mload(0x40)\n      dup1\n      swap2\n      sub\n      swap1\n      return\n        /* \"HashFunc.sol\":718:887  function collistion(string memory _text,uint _x,string memory _text1) external pure returns (bytes32){... */\n    tag_4:\n      tag_14\n      0x04\n      dup1\n      calldatasize\n      sub\n      dup2\n      add\n      swap1\n      tag_15\n      swap2\n      swap1\n      tag_16\n      jump\t// in\n    tag_15:\n      tag_17\n      jump\t// in\n    tag_14:\n      mload(0x40)\n      tag_18\n      swap2\n      swap1\n      tag_19\n      jump\t// in\n    tag_18:\n      mload(0x40)\n      dup1\n      swap2\n      sub\n      swap1\n      return\n        /* \"HashFunc.sol\":81:240  function hash(string memory _text,uint _num,address _addr) external pure returns (bytes32){... */\n    tag_5:\n      tag_20\n      0x04\n      dup1\n      calldatasize\n      sub\n      dup2\n      add\n      swap1\n      tag_21\n      swap2\n      swap1\n      tag_22\n      jump\t// in\n    tag_21:\n      tag_23\n      jump\t// in\n    tag_20:\n      mload(0x40)\n      tag_24\n      swap2\n      swap1\n      tag_19\n      jump\t// in\n    tag_24:\n      mload(0x40)\n      dup1\n      swap2\n      sub\n      swap1\n      return\n        /* \"HashFunc.sol\":554:712  function collistion(string memory _text,string memory _text1) external pure returns (bytes32){... */\n    tag_6:\n      tag_25\n      0x04\n      dup1\n      calldatasize\n      sub\n      dup2\n      add\n      swap1\n      tag_26\n      swap2\n      swap1\n      tag_10\n      jump\t// in\n    tag_26:\n      tag_27\n      jump\t// in\n    tag_25:\n      mload(0x40)\n      tag_28\n      swap2\n      swap1\n      tag_19\n      jump\t// in\n    tag_28:\n      mload(0x40)\n      dup1\n      swap2\n      sub\n      swap1\n      return\n        /* \"HashFunc.sol\":394:548  function encodePacked(string memory _text,string memory _text1) external pure returns (bytes memory){... */\n    tag_7:\n      tag_29\n      0x04\n      dup1\n      calldatasize\n      sub\n      dup2\n      add\n      swap1\n      tag_30\n      swap2\n      swap1\n      tag_10\n      jump\t// in\n    tag_30:\n      tag_31\n      jump\t// in\n    tag_29:\n      mload(0x40)\n      tag_32\n      swap2\n      swap1\n      tag_13\n      jump\t// in\n    tag_32:\n      mload(0x40)\n      dup1\n      swap2\n      sub\n      swap1\n      return\n        /* \"HashFunc.sol\":246:388  function encode(string memory _text,string memory _text1) external pure returns (bytes memory){... */\n    tag_11:\n        /* \"HashFunc.sol\":327:339  bytes memory */\n      0x60\n        /* \"HashFunc.sol\":368:373  _text */\n      dup3\n        /* \"HashFunc.sol\":374:380  _text1 */\n      dup3\n        /* \"HashFunc.sol\":357:381  abi.encode(_text,_text1) */\n      add(0x20, mload(0x40))\n      tag_34\n      swap3\n      swap2\n      swap1\n      tag_35\n      jump\t// in\n    tag_34:\n      mload(0x40)\n      0x20\n      dup2\n      dup4\n      sub\n      sub\n      dup2\n      mstore\n      swap1\n      0x40\n      mstore\n        /* \"HashFunc.sol\":350:381  return abi.encode(_text,_text1) */\n      swap1\n      pop\n        /* \"HashFunc.sol\":246:388  function encode(string memory _text,string memory _text1) external pure returns (bytes memory){... */\n      swap3\n      swap2\n      pop\n      pop\n      jump\t// out\n        /* \"HashFunc.sol\":718:887  function collistion(string memory _text,uint _x,string memory _text1) external pure returns (bytes32){... */\n    tag_17:\n        /* \"HashFunc.sol\":811:818  bytes32 */\n      0x00\n        /* \"HashFunc.sol\":863:868  _text */\n      dup4\n        /* \"HashFunc.sol\":869:871  _x */\n      dup4\n        /* \"HashFunc.sol\":872:878  _text1 */\n      dup4\n        /* \"HashFunc.sol\":846:879  abi.encodePacked(_text,_x,_text1) */\n      add(0x20, mload(0x40))\n      tag_37\n      swap4\n      swap3\n      swap2\n      swap1\n      tag_38\n      jump\t// in\n    tag_37:\n      mload(0x40)\n      0x20\n      dup2\n      dup4\n      sub\n      sub\n      dup2\n      mstore\n      swap1\n      0x40\n      mstore\n        /* \"HashFunc.sol\":836:880  keccak256(abi.encodePacked(_text,_x,_text1)) */\n      dup1\n      mload\n      swap1\n      0x20\n      add\n      keccak256\n        /* \"HashFunc.sol\":829:880  return keccak256(abi.encodePacked(_text,_x,_text1)) */\n      swap1\n      pop\n        /* \"HashFunc.sol\":718:887  function collistion(string memory _text,uint _x,string memory _text1) external pure returns (bytes32){... */\n      swap4\n      swap3\n      pop\n      pop\n      pop\n      jump\t// out\n        /* \"HashFunc.sol\":81:240  function hash(string memory _text,uint _num,address _addr) external pure returns (bytes32){... */\n    tag_23:\n        /* \"HashFunc.sol\":163:170  bytes32 */\n      0x00\n        /* \"HashFunc.sol\":215:220  _text */\n      dup4\n        /* \"HashFunc.sol\":221:225  _num */\n      dup4\n        /* \"HashFunc.sol\":226:231  _addr */\n      dup4\n        /* \"HashFunc.sol\":198:232  abi.encodePacked(_text,_num,_addr) */\n      add(0x20, mload(0x40))\n      tag_40\n      swap4\n      swap3\n      swap2\n      swap1\n      tag_41\n      jump\t// in\n    tag_40:\n      mload(0x40)\n      0x20\n      dup2\n      dup4\n      sub\n      sub\n      dup2\n      mstore\n      swap1\n      0x40\n      mstore\n        /* \"HashFunc.sol\":188:233  keccak256(abi.encodePacked(_text,_num,_addr)) */\n      dup1\n      mload\n      swap1\n      0x20\n      add\n      keccak256\n        /* \"HashFunc.sol\":181:233  return keccak256(abi.encodePacked(_text,_num,_addr)) */\n      swap1\n      pop\n        /* \"HashFunc.sol\":81:240  function hash(string memory _text,uint _num,address _addr) external pure returns (bytes32){... */\n      swap4\n      swap3\n      pop\n      pop\n      pop\n      jump\t// out\n        /* \"HashFunc.sol\":554:712  function collistion(string memory _text,string memory _text1) external pure returns (bytes32){... */\n    tag_27:\n        /* \"HashFunc.sol\":639:646  bytes32 */\n      0x00\n        /* \"HashFunc.sol\":691:696  _text */\n      dup3\n        /* \"HashFunc.sol\":697:703  _text1 */\n      dup3\n        /* \"HashFunc.sol\":674:704  abi.encodePacked(_text,_text1) */\n      add(0x20, mload(0x40))\n      tag_43\n      swap3\n      swap2\n      swap1\n      tag_44\n      jump\t// in\n    tag_43:\n      mload(0x40)\n      0x20\n      dup2\n      dup4\n      sub\n      sub\n      dup2\n      mstore\n      swap1\n      0x40\n      mstore\n        /* \"HashFunc.sol\":664:705  keccak256(abi.encodePacked(_text,_text1)) */\n      dup1\n      mload\n      swap1\n      0x20\n      add\n      keccak256\n        /* \"HashFunc.sol\":657:705  return keccak256(abi.encodePacked(_text,_text1)) */\n      swap1\n      pop\n        /* \"HashFunc.sol\":554:712  function collistion(string memory _text,string memory _text1) external pure returns (bytes32){... */\n      swap3\n      swap2\n      pop\n      pop\n      jump\t// out\n        /* \"HashFunc.sol\":394:548  function encodePacked(string memory _text,string memory _text1) external pure returns (bytes memory){... */\n    tag_31:\n        /* \"HashFunc.sol\":481:493  bytes memory */\n      0x60\n        /* \"HashFunc.sol\":528:533  _text */\n      dup3\n        /* \"HashFunc.sol\":534:540  _text1 */\n      dup3\n        /* \"HashFunc.sol\":511:541  abi.encodePacked(_text,_text1) */\n      add(0x20, mload(0x40))\n      tag_46\n      swap3\n      swap2\n      swap1\n      tag_44\n      jump\t// in\n    tag_46:\n      mload(0x40)\n      0x20\n      dup2\n      dup4\n      sub\n      sub\n      dup2\n      mstore\n      swap1\n      0x40\n      mstore\n        /* \"HashFunc.sol\":504:541  return abi.encodePacked(_text,_text1) */\n      swap1\n      pop\n        /* \"HashFunc.sol\":394:548  function encodePacked(string memory _text,string memory _text1) external pure returns (bytes memory){... */\n      swap3\n      swap2\n      pop\n      pop\n      jump\t// out\n        /* \"#utility.yul\":7:82   */\n    tag_47:\n        /* \"#utility.yul\":40:46   */\n      0x00\n        /* \"#utility.yul\":73:75   */\n      0x40\n        /* \"#utility.yul\":67:76   */\n      mload\n        /* \"#utility.yul\":57:76   */\n      swap1\n      pop\n        /* \"#utility.yul\":7:82   */\n      swap1\n      jump\t// out\n        /* \"#utility.yul\":88:205   */\n    tag_48:\n        /* \"#utility.yul\":197:198   */\n      0x00\n        /* \"#utility.yul\":194:195   */\n      dup1\n        /* \"#utility.yul\":187:199   */\n      revert\n        /* \"#utility.yul\":211:328   */\n    tag_49:\n        /* \"#utility.yul\":320:321   */\n      0x00\n        /* \"#utility.yul\":317:318   */\n      dup1\n        /* \"#utility.yul\":310:322   */\n      revert\n        /* \"#utility.yul\":334:451   */\n    tag_50:\n        /* \"#utility.yul\":443:444   */\n      0x00\n        /* \"#utility.yul\":440:441   */\n      dup1\n        /* \"#utility.yul\":433:445   */\n      revert\n        /* \"#utility.yul\":457:574   */\n    tag_51:\n        /* \"#utility.yul\":566:567   */\n      0x00\n        /* \"#utility.yul\":563:564   */\n      dup1\n        /* \"#utility.yul\":556:568   */\n      revert\n        /* \"#utility.yul\":580:682   */\n    tag_52:\n        /* \"#utility.yul\":621:627   */\n      0x00\n        /* \"#utility.yul\":672:674   */\n      0x1f\n        /* \"#utility.yul\":668:675   */\n      not\n        /* \"#utility.yul\":663:665   */\n      0x1f\n        /* \"#utility.yul\":656:661   */\n      dup4\n        /* \"#utility.yul\":652:666   */\n      add\n        /* \"#utility.yul\":648:676   */\n      and\n        /* \"#utility.yul\":638:676   */\n      swap1\n      pop\n        /* \"#utility.yul\":580:682   */\n      swap2\n      swap1\n      pop\n      jump\t// out\n        /* \"#utility.yul\":688:868   */\n    tag_53:\n        /* \"#utility.yul\":736:813   */\n      0x4e487b7100000000000000000000000000000000000000000000000000000000\n        /* \"#utility.yul\":733:734   */\n      0x00\n        /* \"#utility.yul\":726:814   */\n      mstore\n        /* \"#utility.yul\":833:837   */\n      0x41\n        /* \"#utility.yul\":830:831   */\n      0x04\n        /* \"#utility.yul\":823:838   */\n      mstore\n        /* \"#utility.yul\":857:861   */\n      0x24\n        /* \"#utility.yul\":854:855   */\n      0x00\n        /* \"#utility.yul\":847:862   */\n      revert\n        /* \"#utility.yul\":874:1155   */\n    tag_54:\n        /* \"#utility.yul\":957:984   */\n      tag_93\n        /* \"#utility.yul\":979:983   */\n      dup3\n        /* \"#utility.yul\":957:984   */\n      tag_52\n      jump\t// in\n    tag_93:\n        /* \"#utility.yul\":949:955   */\n      dup2\n        /* \"#utility.yul\":945:985   */\n      add\n        /* \"#utility.yul\":1087:1093   */\n      dup2\n        /* \"#utility.yul\":1075:1085   */\n      dup2\n        /* \"#utility.yul\":1072:1094   */\n      lt\n        /* \"#utility.yul\":1051:1069   */\n      0xffffffffffffffff\n        /* \"#utility.yul\":1039:1049   */\n      dup3\n        /* \"#utility.yul\":1036:1070   */\n      gt\n        /* \"#utility.yul\":1033:1095   */\n      or\n        /* \"#utility.yul\":1030:1118   */\n      iszero\n      tag_94\n      jumpi\n        /* \"#utility.yul\":1098:1116   */\n      tag_95\n      tag_53\n      jump\t// in\n    tag_95:\n        /* \"#utility.yul\":1030:1118   */\n    tag_94:\n        /* \"#utility.yul\":1138:1148   */\n      dup1\n        /* \"#utility.yul\":1134:1136   */\n      0x40\n        /* \"#utility.yul\":1127:1149   */\n      mstore\n        /* \"#utility.yul\":917:1155   */\n      pop\n        /* \"#utility.yul\":874:1155   */\n      pop\n      pop\n      jump\t// out\n        /* \"#utility.yul\":1161:1290   */\n    tag_55:\n        /* \"#utility.yul\":1195:1201   */\n      0x00\n        /* \"#utility.yul\":1222:1242   */\n      tag_97\n      tag_47\n      jump\t// in\n    tag_97:\n        /* \"#utility.yul\":1212:1242   */\n      swap1\n      pop\n        /* \"#utility.yul\":1251:1284   */\n      tag_98\n        /* \"#utility.yul\":1279:1283   */\n      dup3\n        /* \"#utility.yul\":1271:1277   */\n      dup3\n        /* \"#utility.yul\":1251:1284   */\n      tag_54\n      jump\t// in\n    tag_98:\n        /* \"#utility.yul\":1161:1290   */\n      swap2\n      swap1\n      pop\n      jump\t// out\n        /* \"#utility.yul\":1296:1604   */\n    tag_56:\n        /* \"#utility.yul\":1358:1362   */\n      0x00\n        /* \"#utility.yul\":1448:1466   */\n      0xffffffffffffffff\n        /* \"#utility.yul\":1440:1446   */\n      dup3\n        /* \"#utility.yul\":1437:1467   */\n      gt\n        /* \"#utility.yul\":1434:1490   */\n      iszero\n      tag_100\n      jumpi\n        /* \"#utility.yul\":1470:1488   */\n      tag_101\n      tag_53\n      jump\t// in\n    tag_101:\n        /* \"#utility.yul\":1434:1490   */\n    tag_100:\n        /* \"#utility.yul\":1508:1537   */\n      tag_102\n        /* \"#utility.yul\":1530:1536   */\n      dup3\n        /* \"#utility.yul\":1508:1537   */\n      tag_52\n      jump\t// in\n    tag_102:\n        /* \"#utility.yul\":1500:1537   */\n      swap1\n      pop\n        /* \"#utility.yul\":1592:1596   */\n      0x20\n        /* \"#utility.yul\":1586:1590   */\n      dup2\n        /* \"#utility.yul\":1582:1597   */\n      add\n        /* \"#utility.yul\":1574:1597   */\n      swap1\n      pop\n        /* \"#utility.yul\":1296:1604   */\n      swap2\n      swap1\n      pop\n      jump\t// out\n        /* \"#utility.yul\":1610:1758   */\n    tag_57:\n        /* \"#utility.yul\":1708:1714   */\n      dup3\n        /* \"#utility.yul\":1703:1706   */\n      dup2\n        /* \"#utility.yul\":1698:1701   */\n      dup4\n        /* \"#utility.yul\":1685:1715   */\n      calldatacopy\n        /* \"#utility.yul\":1749:1750   */\n      0x00\n        /* \"#utility.yul\":1740:1746   */\n      dup4\n        /* \"#utility.yul\":1735:1738   */\n      dup4\n        /* \"#utility.yul\":1731:1747   */\n      add\n        /* \"#utility.yul\":1724:1751   */\n      mstore\n        /* \"#utility.yul\":1610:1758   */\n      pop\n      pop\n      pop\n      jump\t// out\n        /* \"#utility.yul\":1764:2189   */\n    tag_58:\n        /* \"#utility.yul\":1842:1847   */\n      0x00\n        /* \"#utility.yul\":1867:1933   */\n      tag_105\n        /* \"#utility.yul\":1883:1932   */\n      tag_106\n        /* \"#utility.yul\":1925:1931   */\n      dup5\n        /* \"#utility.yul\":1883:1932   */\n      tag_56\n      jump\t// in\n    tag_106:\n        /* \"#utility.yul\":1867:1933   */\n      tag_55\n      jump\t// in\n    tag_105:\n        /* \"#utility.yul\":1858:1933   */\n      swap1\n      pop\n        /* \"#utility.yul\":1956:1962   */\n      dup3\n        /* \"#utility.yul\":1949:1954   */\n      dup2\n        /* \"#utility.yul\":1942:1963   */\n      mstore\n        /* \"#utility.yul\":1994:1998   */\n      0x20\n        /* \"#utility.yul\":1987:1992   */\n      dup2\n        /* \"#utility.yul\":1983:1999   */\n      add\n        /* \"#utility.yul\":2032:2035   */\n      dup5\n        /* \"#utility.yul\":2023:2029   */\n      dup5\n        /* \"#utility.yul\":2018:2021   */\n      dup5\n        /* \"#utility.yul\":2014:2030   */\n      add\n        /* \"#utility.yul\":2011:2036   */\n      gt\n        /* \"#utility.yul\":2008:2120   */\n      iszero\n      tag_107\n      jumpi\n        /* \"#utility.yul\":2039:2118   */\n      tag_108\n      tag_51\n      jump\t// in\n    tag_108:\n        /* \"#utility.yul\":2008:2120   */\n    tag_107:\n        /* \"#utility.yul\":2129:2183   */\n      tag_109\n        /* \"#utility.yul\":2176:2182   */\n      dup5\n        /* \"#utility.yul\":2171:2174   */\n      dup3\n        /* \"#utility.yul\":2166:2169   */\n      dup6\n        /* \"#utility.yul\":2129:2183   */\n      tag_57\n      jump\t// in\n    tag_109:\n        /* \"#utility.yul\":1848:2189   */\n      pop\n        /* \"#utility.yul\":1764:2189   */\n      swap4\n      swap3\n      pop\n      pop\n      pop\n      jump\t// out\n        /* \"#utility.yul\":2209:2549   */\n    tag_59:\n        /* \"#utility.yul\":2265:2270   */\n      0x00\n        /* \"#utility.yul\":2314:2317   */\n      dup3\n        /* \"#utility.yul\":2307:2311   */\n      0x1f\n        /* \"#utility.yul\":2299:2305   */\n      dup4\n        /* \"#utility.yul\":2295:2312   */\n      add\n        /* \"#utility.yul\":2291:2318   */\n      slt\n        /* \"#utility.yul\":2281:2403   */\n      tag_111\n      jumpi\n        /* \"#utility.yul\":2322:2401   */\n      tag_112\n      tag_50\n      jump\t// in\n    tag_112:\n        /* \"#utility.yul\":2281:2403   */\n    tag_111:\n        /* \"#utility.yul\":2439:2445   */\n      dup2\n        /* \"#utility.yul\":2426:2446   */\n      calldataload\n        /* \"#utility.yul\":2464:2543   */\n      tag_113\n        /* \"#utility.yul\":2539:2542   */\n      dup5\n        /* \"#utility.yul\":2531:2537   */\n      dup3\n        /* \"#utility.yul\":2524:2528   */\n      0x20\n        /* \"#utility.yul\":2516:2522   */\n      dup7\n        /* \"#utility.yul\":2512:2529   */\n      add\n        /* \"#utility.yul\":2464:2543   */\n      tag_58\n      jump\t// in\n    tag_113:\n        /* \"#utility.yul\":2455:2543   */\n      swap2\n      pop\n        /* \"#utility.yul\":2271:2549   */\n      pop\n        /* \"#utility.yul\":2209:2549   */\n      swap3\n      swap2\n      pop\n      pop\n      jump\t// out\n        /* \"#utility.yul\":2555:3389   */\n    tag_10:\n        /* \"#utility.yul\":2643:2649   */\n      0x00\n        /* \"#utility.yul\":2651:2657   */\n      dup1\n        /* \"#utility.yul\":2700:2702   */\n      0x40\n        /* \"#utility.yul\":2688:2697   */\n      dup4\n        /* \"#utility.yul\":2679:2686   */\n      dup6\n        /* \"#utility.yul\":2675:2698   */\n      sub\n        /* \"#utility.yul\":2671:2703   */\n      slt\n        /* \"#utility.yul\":2668:2787   */\n      iszero\n      tag_115\n      jumpi\n        /* \"#utility.yul\":2706:2785   */\n      tag_116\n      tag_48\n      jump\t// in\n    tag_116:\n        /* \"#utility.yul\":2668:2787   */\n    tag_115:\n        /* \"#utility.yul\":2854:2855   */\n      0x00\n        /* \"#utility.yul\":2843:2852   */\n      dup4\n        /* \"#utility.yul\":2839:2856   */\n      add\n        /* \"#utility.yul\":2826:2857   */\n      calldataload\n        /* \"#utility.yul\":2884:2902   */\n      0xffffffffffffffff\n        /* \"#utility.yul\":2876:2882   */\n      dup2\n        /* \"#utility.yul\":2873:2903   */\n      gt\n        /* \"#utility.yul\":2870:2987   */\n      iszero\n      tag_117\n      jumpi\n        /* \"#utility.yul\":2906:2985   */\n      tag_118\n      tag_49\n      jump\t// in\n    tag_118:\n        /* \"#utility.yul\":2870:2987   */\n    tag_117:\n        /* \"#utility.yul\":3011:3074   */\n      tag_119\n        /* \"#utility.yul\":3066:3073   */\n      dup6\n        /* \"#utility.yul\":3057:3063   */\n      dup3\n        /* \"#utility.yul\":3046:3055   */\n      dup7\n        /* \"#utility.yul\":3042:3064   */\n      add\n        /* \"#utility.yul\":3011:3074   */\n      tag_59\n      jump\t// in\n    tag_119:\n        /* \"#utility.yul\":3001:3074   */\n      swap3\n      pop\n        /* \"#utility.yul\":2797:3084   */\n      pop\n        /* \"#utility.yul\":3151:3153   */\n      0x20\n        /* \"#utility.yul\":3140:3149   */\n      dup4\n        /* \"#utility.yul\":3136:3154   */\n      add\n        /* \"#utility.yul\":3123:3155   */\n      calldataload\n        /* \"#utility.yul\":3182:3200   */\n      0xffffffffffffffff\n        /* \"#utility.yul\":3174:3180   */\n      dup2\n        /* \"#utility.yul\":3171:3201   */\n      gt\n        /* \"#utility.yul\":3168:3285   */\n      iszero\n      tag_120\n      jumpi\n        /* \"#utility.yul\":3204:3283   */\n      tag_121\n      tag_49\n      jump\t// in\n    tag_121:\n        /* \"#utility.yul\":3168:3285   */\n    tag_120:\n        /* \"#utility.yul\":3309:3372   */\n      tag_122\n        /* \"#utility.yul\":3364:3371   */\n      dup6\n        /* \"#utility.yul\":3355:3361   */\n      dup3\n        /* \"#utility.yul\":3344:3353   */\n      dup7\n        /* \"#utility.yul\":3340:3362   */\n      add\n        /* \"#utility.yul\":3309:3372   */\n      tag_59\n      jump\t// in\n    tag_122:\n        /* \"#utility.yul\":3299:3372   */\n      swap2\n      pop\n        /* \"#utility.yul\":3094:3382   */\n      pop\n        /* \"#utility.yul\":2555:3389   */\n      swap3\n      pop\n      swap3\n      swap1\n      pop\n      jump\t// out\n        /* \"#utility.yul\":3395:3493   */\n    tag_60:\n        /* \"#utility.yul\":3446:3452   */\n      0x00\n        /* \"#utility.yul\":3480:3485   */\n      dup2\n        /* \"#utility.yul\":3474:3486   */\n      mload\n        /* \"#utility.yul\":3464:3486   */\n      swap1\n      pop\n        /* \"#utility.yul\":3395:3493   */\n      swap2\n      swap1\n      pop\n      jump\t// out\n        /* \"#utility.yul\":3499:3667   */\n    tag_61:\n        /* \"#utility.yul\":3582:3593   */\n      0x00\n        /* \"#utility.yul\":3616:3622   */\n      dup3\n        /* \"#utility.yul\":3611:3614   */\n      dup3\n        /* \"#utility.yul\":3604:3623   */\n      mstore\n        /* \"#utility.yul\":3656:3660   */\n      0x20\n        /* \"#utility.yul\":3651:3654   */\n      dup3\n        /* \"#utility.yul\":3647:3661   */\n      add\n        /* \"#utility.yul\":3632:3661   */\n      swap1\n      pop\n        /* \"#utility.yul\":3499:3667   */\n      swap3\n      swap2\n      pop\n      pop\n      jump\t// out\n        /* \"#utility.yul\":3673:3812   */\n    tag_62:\n        /* \"#utility.yul\":3762:3768   */\n      dup3\n        /* \"#utility.yul\":3757:3760   */\n      dup2\n        /* \"#utility.yul\":3752:3755   */\n      dup4\n        /* \"#utility.yul\":3746:3769   */\n      mcopy\n        /* \"#utility.yul\":3803:3804   */\n      0x00\n        /* \"#utility.yul\":3794:3800   */\n      dup4\n        /* \"#utility.yul\":3789:3792   */\n      dup4\n        /* \"#utility.yul\":3785:3801   */\n      add\n        /* \"#utility.yul\":3778:3805   */\n      mstore\n        /* \"#utility.yul\":3673:3812   */\n      pop\n      pop\n      pop\n      jump\t// out\n        /* \"#utility.yul\":3818:4191   */\n    tag_63:\n        /* \"#utility.yul\":3904:3907   */\n      0x00\n        /* \"#utility.yul\":3932:3970   */\n      tag_127\n        /* \"#utility.yul\":3964:3969   */\n      dup3\n        /* \"#utility.yul\":3932:3970   */\n      tag_60\n      jump\t// in\n    tag_127:\n        /* \"#utility.yul\":3986:4056   */\n      tag_128\n        /* \"#utility.yul\":4049:4055   */\n      dup2\n        /* \"#utility.yul\":4044:4047   */\n      dup6\n        /* \"#utility.yul\":3986:4056   */\n      tag_61\n      jump\t// in\n    tag_128:\n        /* \"#utility.yul\":3979:4056   */\n      swap4\n      pop\n        /* \"#utility.yul\":4065:4130   */\n      tag_129\n        /* \"#utility.yul\":4123:4129   */\n      dup2\n        /* \"#utility.yul\":4118:4121   */\n      dup6\n        /* \"#utility.yul\":4111:4115   */\n      0x20\n        /* \"#utility.yul\":4104:4109   */\n      dup7\n        /* \"#utility.yul\":4100:4116   */\n      add\n        /* \"#utility.yul\":4065:4130   */\n      tag_62\n      jump\t// in\n    tag_129:\n        /* \"#utility.yul\":4155:4184   */\n      tag_130\n        /* \"#utility.yul\":4177:4183   */\n      dup2\n        /* \"#utility.yul\":4155:4184   */\n      tag_52\n      jump\t// in\n    tag_130:\n        /* \"#utility.yul\":4150:4153   */\n      dup5\n        /* \"#utility.yul\":4146:4185   */\n      add\n        /* \"#utility.yul\":4139:4185   */\n      swap2\n      pop\n        /* \"#utility.yul\":3908:4191   */\n      pop\n        /* \"#utility.yul\":3818:4191   */\n      swap3\n      swap2\n      pop\n      pop\n      jump\t// out\n        /* \"#utility.yul\":4197:4506   */\n    tag_13:\n        /* \"#utility.yul\":4308:4312   */\n      0x00\n        /* \"#utility.yul\":4346:4348   */\n      0x20\n        /* \"#utility.yul\":4335:4344   */\n      dup3\n        /* \"#utility.yul\":4331:4349   */\n      add\n        /* \"#utility.yul\":4323:4349   */\n      swap1\n      pop\n        /* \"#utility.yul\":4395:4404   */\n      dup2\n        /* \"#utility.yul\":4389:4393   */\n      dup2\n        /* \"#utility.yul\":4385:4405   */\n      sub\n        /* \"#utility.yul\":4381:4382   */\n      0x00\n        /* \"#utility.yul\":4370:4379   */\n      dup4\n        /* \"#utility.yul\":4366:4383   */\n      add\n        /* \"#utility.yul\":4359:4406   */\n      mstore\n        /* \"#utility.yul\":4423:4499   */\n      tag_132\n        /* \"#utility.yul\":4494:4498   */\n      dup2\n        /* \"#utility.yul\":4485:4491   */\n      dup5\n        /* \"#utility.yul\":4423:4499   */\n      tag_63\n      jump\t// in\n    tag_132:\n        /* \"#utility.yul\":4415:4499   */\n      swap1\n      pop\n        /* \"#utility.yul\":4197:4506   */\n      swap3\n      swap2\n      pop\n      pop\n      jump\t// out\n        /* \"#utility.yul\":4512:4589   */\n    tag_64:\n        /* \"#utility.yul\":4549:4556   */\n      0x00\n        /* \"#utility.yul\":4578:4583   */\n      dup2\n        /* \"#utility.yul\":4567:4583   */\n      swap1\n      pop\n        /* \"#utility.yul\":4512:4589   */\n      swap2\n      swap1\n      pop\n      jump\t// out\n        /* \"#utility.yul\":4595:4717   */\n    tag_65:\n        /* \"#utility.yul\":4668:4692   */\n      tag_135\n        /* \"#utility.yul\":4686:4691   */\n      dup2\n        /* \"#utility.yul\":4668:4692   */\n      tag_64\n      jump\t// in\n    tag_135:\n        /* \"#utility.yul\":4661:4666   */\n      dup2\n        /* \"#utility.yul\":4658:4693   */\n      eq\n        /* \"#utility.yul\":4648:4711   */\n      tag_136\n      jumpi\n        /* \"#utility.yul\":4707:4708   */\n      0x00\n        /* \"#utility.yul\":4704:4705   */\n      dup1\n        /* \"#utility.yul\":4697:4709   */\n      revert\n        /* \"#utility.yul\":4648:4711   */\n    tag_136:\n        /* \"#utility.yul\":4595:4717   */\n      pop\n      jump\t// out\n        /* \"#utility.yul\":4723:4862   */\n    tag_66:\n        /* \"#utility.yul\":4769:4774   */\n      0x00\n        /* \"#utility.yul\":4807:4813   */\n      dup2\n        /* \"#utility.yul\":4794:4814   */\n      calldataload\n        /* \"#utility.yul\":4785:4814   */\n      swap1\n      pop\n        /* \"#utility.yul\":4823:4856   */\n      tag_138\n        /* \"#utility.yul\":4850:4855   */\n      dup2\n        /* \"#utility.yul\":4823:4856   */\n      tag_65\n      jump\t// in\n    tag_138:\n        /* \"#utility.yul\":4723:4862   */\n      swap3\n      swap2\n      pop\n      pop\n      jump\t// out\n        /* \"#utility.yul\":4868:5847   */\n    tag_16:\n        /* \"#utility.yul\":4965:4971   */\n      0x00\n        /* \"#utility.yul\":4973:4979   */\n      dup1\n        /* \"#utility.yul\":4981:4987   */\n      0x00\n        /* \"#utility.yul\":5030:5032   */\n      0x60\n        /* \"#utility.yul\":5018:5027   */\n      dup5\n        /* \"#utility.yul\":5009:5016   */\n      dup7\n        /* \"#utility.yul\":5005:5028   */\n      sub\n        /* \"#utility.yul\":5001:5033   */\n      slt\n        /* \"#utility.yul\":4998:5117   */\n      iszero\n      tag_140\n      jumpi\n        /* \"#utility.yul\":5036:5115   */\n      tag_141\n      tag_48\n      jump\t// in\n    tag_141:\n        /* \"#utility.yul\":4998:5117   */\n    tag_140:\n        /* \"#utility.yul\":5184:5185   */\n      0x00\n        /* \"#utility.yul\":5173:5182   */\n      dup5\n        /* \"#utility.yul\":5169:5186   */\n      add\n        /* \"#utility.yul\":5156:5187   */\n      calldataload\n        /* \"#utility.yul\":5214:5232   */\n      0xffffffffffffffff\n        /* \"#utility.yul\":5206:5212   */\n      dup2\n        /* \"#utility.yul\":5203:5233   */\n      gt\n        /* \"#utility.yul\":5200:5317   */\n      iszero\n      tag_142\n      jumpi\n        /* \"#utility.yul\":5236:5315   */\n      tag_143\n      tag_49\n      jump\t// in\n    tag_143:\n        /* \"#utility.yul\":5200:5317   */\n    tag_142:\n        /* \"#utility.yul\":5341:5404   */\n      tag_144\n        /* \"#utility.yul\":5396:5403   */\n      dup7\n        /* \"#utility.yul\":5387:5393   */\n      dup3\n        /* \"#utility.yul\":5376:5385   */\n      dup8\n        /* \"#utility.yul\":5372:5394   */\n      add\n        /* \"#utility.yul\":5341:5404   */\n      tag_59\n      jump\t// in\n    tag_144:\n        /* \"#utility.yul\":5331:5404   */\n      swap4\n      pop\n        /* \"#utility.yul\":5127:5414   */\n      pop\n        /* \"#utility.yul\":5453:5455   */\n      0x20\n        /* \"#utility.yul\":5479:5532   */\n      tag_145\n        /* \"#utility.yul\":5524:5531   */\n      dup7\n        /* \"#utility.yul\":5515:5521   */\n      dup3\n        /* \"#utility.yul\":5504:5513   */\n      dup8\n        /* \"#utility.yul\":5500:5522   */\n      add\n        /* \"#utility.yul\":5479:5532   */\n      tag_66\n      jump\t// in\n    tag_145:\n        /* \"#utility.yul\":5469:5532   */\n      swap3\n      pop\n        /* \"#utility.yul\":5424:5542   */\n      pop\n        /* \"#utility.yul\":5609:5611   */\n      0x40\n        /* \"#utility.yul\":5598:5607   */\n      dup5\n        /* \"#utility.yul\":5594:5612   */\n      add\n        /* \"#utility.yul\":5581:5613   */\n      calldataload\n        /* \"#utility.yul\":5640:5658   */\n      0xffffffffffffffff\n        /* \"#utility.yul\":5632:5638   */\n      dup2\n        /* \"#utility.yul\":5629:5659   */\n      gt\n        /* \"#utility.yul\":5626:5743   */\n      iszero\n      tag_146\n      jumpi\n        /* \"#utility.yul\":5662:5741   */\n      tag_147\n      tag_49\n      jump\t// in\n    tag_147:\n        /* \"#utility.yul\":5626:5743   */\n    tag_146:\n        /* \"#utility.yul\":5767:5830   */\n      tag_148\n        /* \"#utility.yul\":5822:5829   */\n      dup7\n        /* \"#utility.yul\":5813:5819   */\n      dup3\n        /* \"#utility.yul\":5802:5811   */\n      dup8\n        /* \"#utility.yul\":5798:5820   */\n      add\n        /* \"#utility.yul\":5767:5830   */\n      tag_59\n      jump\t// in\n    tag_148:\n        /* \"#utility.yul\":5757:5830   */\n      swap2\n      pop\n        /* \"#utility.yul\":5552:5840   */\n      pop\n        /* \"#utility.yul\":4868:5847   */\n      swap3\n      pop\n      swap3\n      pop\n      swap3\n      jump\t// out\n        /* \"#utility.yul\":5853:5930   */\n    tag_67:\n        /* \"#utility.yul\":5890:5897   */\n      0x00\n        /* \"#utility.yul\":5919:5924   */\n      dup2\n        /* \"#utility.yul\":5908:5924   */\n      swap1\n      pop\n        /* \"#utility.yul\":5853:5930   */\n      swap2\n      swap1\n      pop\n      jump\t// out\n        /* \"#utility.yul\":5936:6054   */\n    tag_68:\n        /* \"#utility.yul\":6023:6047   */\n      tag_151\n        /* \"#utility.yul\":6041:6046   */\n      dup2\n        /* \"#utility.yul\":6023:6047   */\n      tag_67\n      jump\t// in\n    tag_151:\n        /* \"#utility.yul\":6018:6021   */\n      dup3\n        /* \"#utility.yul\":6011:6048   */\n      mstore\n        /* \"#utility.yul\":5936:6054   */\n      pop\n      pop\n      jump\t// out\n        /* \"#utility.yul\":6060:6282   */\n    tag_19:\n        /* \"#utility.yul\":6153:6157   */\n      0x00\n        /* \"#utility.yul\":6191:6193   */\n      0x20\n        /* \"#utility.yul\":6180:6189   */\n      dup3\n        /* \"#utility.yul\":6176:6194   */\n      add\n        /* \"#utility.yul\":6168:6194   */\n      swap1\n      pop\n        /* \"#utility.yul\":6204:6275   */\n      tag_153\n        /* \"#utility.yul\":6272:6273   */\n      0x00\n        /* \"#utility.yul\":6261:6270   */\n      dup4\n        /* \"#utility.yul\":6257:6274   */\n      add\n        /* \"#utility.yul\":6248:6254   */\n      dup5\n        /* \"#utility.yul\":6204:6275   */\n      tag_68\n      jump\t// in\n    tag_153:\n        /* \"#utility.yul\":6060:6282   */\n      swap3\n      swap2\n      pop\n      pop\n      jump\t// out\n        /* \"#utility.yul\":6288:6414   */\n    tag_69:\n        /* \"#utility.yul\":6325:6332   */\n      0x00\n        /* \"#utility.yul\":6365:6407   */\n      0xffffffffffffffffffffffffffffffffffffffff\n        /* \"#utility.yul\":6358:6363   */\n      dup3\n        /* \"#utility.yul\":6354:6408   */\n      and\n        /* \"#utility.yul\":6343:6408   */\n      swap1\n      pop\n        /* \"#utility.yul\":6288:6414   */\n      swap2\n      swap1\n      pop\n      jump\t// out\n        /* \"#utility.yul\":6420:6516   */\n    tag_70:\n        /* \"#utility.yul\":6457:6464   */\n      0x00\n        /* \"#utility.yul\":6486:6510   */\n      tag_156\n        /* \"#utility.yul\":6504:6509   */\n      dup3\n        /* \"#utility.yul\":6486:6510   */\n      tag_69\n      jump\t// in\n    tag_156:\n        /* \"#utility.yul\":6475:6510   */\n      swap1\n      pop\n        /* \"#utility.yul\":6420:6516   */\n      swap2\n      swap1\n      pop\n      jump\t// out\n        /* \"#utility.yul\":6522:6644   */\n    tag_71:\n        /* \"#utility.yul\":6595:6619   */\n      tag_158\n        /* \"#utility.yul\":6613:6618   */\n      dup2\n        /* \"#utility.yul\":6595:6619   */\n      tag_70\n      jump\t// in\n    tag_158:\n        /* \"#utility.yul\":6588:6593   */\n      dup2\n        /* \"#utility.yul\":6585:6620   */\n      eq\n        /* \"#utility.yul\":6575:6638   */\n      tag_159\n      jumpi\n        /* \"#utility.yul\":6634:6635   */\n      0x00\n        /* \"#utility.yul\":6631:6632   */\n      dup1\n        /* \"#utility.yul\":6624:6636   */\n      revert\n        /* \"#utility.yul\":6575:6638   */\n    tag_159:\n        /* \"#utility.yul\":6522:6644   */\n      pop\n      jump\t// out\n        /* \"#utility.yul\":6650:6789   */\n    tag_72:\n        /* \"#utility.yul\":6696:6701   */\n      0x00\n        /* \"#utility.yul\":6734:6740   */\n      dup2\n        /* \"#utility.yul\":6721:6741   */\n      calldataload\n        /* \"#utility.yul\":6712:6741   */\n      swap1\n      pop\n        /* \"#utility.yul\":6750:6783   */\n      tag_161\n        /* \"#utility.yul\":6777:6782   */\n      dup2\n        /* \"#utility.yul\":6750:6783   */\n      tag_71\n      jump\t// in\n    tag_161:\n        /* \"#utility.yul\":6650:6789   */\n      swap3\n      swap2\n      pop\n      pop\n      jump\t// out\n        /* \"#utility.yul\":6795:7594   */\n    tag_22:\n        /* \"#utility.yul\":6882:6888   */\n      0x00\n        /* \"#utility.yul\":6890:6896   */\n      dup1\n        /* \"#utility.yul\":6898:6904   */\n      0x00\n        /* \"#utility.yul\":6947:6949   */\n      0x60\n        /* \"#utility.yul\":6935:6944   */\n      dup5\n        /* \"#utility.yul\":6926:6933   */\n      dup7\n        /* \"#utility.yul\":6922:6945   */\n      sub\n        /* \"#utility.yul\":6918:6950   */\n      slt\n        /* \"#utility.yul\":6915:7034   */\n      iszero\n      tag_163\n      jumpi\n        /* \"#utility.yul\":6953:7032   */\n      tag_164\n      tag_48\n      jump\t// in\n    tag_164:\n        /* \"#utility.yul\":6915:7034   */\n    tag_163:\n        /* \"#utility.yul\":7101:7102   */\n      0x00\n        /* \"#utility.yul\":7090:7099   */\n      dup5\n        /* \"#utility.yul\":7086:7103   */\n      add\n        /* \"#utility.yul\":7073:7104   */\n      calldataload\n        /* \"#utility.yul\":7131:7149   */\n      0xffffffffffffffff\n        /* \"#utility.yul\":7123:7129   */\n      dup2\n        /* \"#utility.yul\":7120:7150   */\n      gt\n        /* \"#utility.yul\":7117:7234   */\n      iszero\n      tag_165\n      jumpi\n        /* \"#utility.yul\":7153:7232   */\n      tag_166\n      tag_49\n      jump\t// in\n    tag_166:\n        /* \"#utility.yul\":7117:7234   */\n    tag_165:\n        /* \"#utility.yul\":7258:7321   */\n      tag_167\n        /* \"#utility.yul\":7313:7320   */\n      dup7\n        /* \"#utility.yul\":7304:7310   */\n      dup3\n        /* \"#utility.yul\":7293:7302   */\n      dup8\n        /* \"#utility.yul\":7289:7311   */\n      add\n        /* \"#utility.yul\":7258:7321   */\n      tag_59\n      jump\t// in\n    tag_167:\n        /* \"#utility.yul\":7248:7321   */\n      swap4\n      pop\n        /* \"#utility.yul\":7044:7331   */\n      pop\n        /* \"#utility.yul\":7370:7372   */\n      0x20\n        /* \"#utility.yul\":7396:7449   */\n      tag_168\n        /* \"#utility.yul\":7441:7448   */\n      dup7\n        /* \"#utility.yul\":7432:7438   */\n      dup3\n        /* \"#utility.yul\":7421:7430   */\n      dup8\n        /* \"#utility.yul\":7417:7439   */\n      add\n        /* \"#utility.yul\":7396:7449   */\n      tag_66\n      jump\t// in\n    tag_168:\n        /* \"#utility.yul\":7386:7449   */\n      swap3\n      pop\n        /* \"#utility.yul\":7341:7459   */\n      pop\n        /* \"#utility.yul\":7498:7500   */\n      0x40\n        /* \"#utility.yul\":7524:7577   */\n      tag_169\n        /* \"#utility.yul\":7569:7576   */\n      dup7\n        /* \"#utility.yul\":7560:7566   */\n      dup3\n        /* \"#utility.yul\":7549:7558   */\n      dup8\n        /* \"#utility.yul\":7545:7567   */\n      add\n        /* \"#utility.yul\":7524:7577   */\n      tag_72\n      jump\t// in\n    tag_169:\n        /* \"#utility.yul\":7514:7577   */\n      swap2\n      pop\n        /* \"#utility.yul\":7469:7587   */\n      pop\n        /* \"#utility.yul\":6795:7594   */\n      swap3\n      pop\n      swap3\n      pop\n      swap3\n      jump\t// out\n        /* \"#utility.yul\":7600:7699   */\n    tag_73:\n        /* \"#utility.yul\":7652:7658   */\n      0x00\n        /* \"#utility.yul\":7686:7691   */\n      dup2\n        /* \"#utility.yul\":7680:7692   */\n      mload\n        /* \"#utility.yul\":7670:7692   */\n      swap1\n      pop\n        /* \"#utility.yul\":7600:7699   */\n      swap2\n      swap1\n      pop\n      jump\t// out\n        /* \"#utility.yul\":7705:7874   */\n    tag_74:\n        /* \"#utility.yul\":7789:7800   */\n      0x00\n        /* \"#utility.yul\":7823:7829   */\n      dup3\n        /* \"#utility.yul\":7818:7821   */\n      dup3\n        /* \"#utility.yul\":7811:7830   */\n      mstore\n        /* \"#utility.yul\":7863:7867   */\n      0x20\n        /* \"#utility.yul\":7858:7861   */\n      dup3\n        /* \"#utility.yul\":7854:7868   */\n      add\n        /* \"#utility.yul\":7839:7868   */\n      swap1\n      pop\n        /* \"#utility.yul\":7705:7874   */\n      swap3\n      swap2\n      pop\n      pop\n      jump\t// out\n        /* \"#utility.yul\":7880:8257   */\n    tag_75:\n        /* \"#utility.yul\":7968:7971   */\n      0x00\n        /* \"#utility.yul\":7996:8035   */\n      tag_173\n        /* \"#utility.yul\":8029:8034   */\n      dup3\n        /* \"#utility.yul\":7996:8035   */\n      tag_73\n      jump\t// in\n    tag_173:\n        /* \"#utility.yul\":8051:8122   */\n      tag_174\n        /* \"#utility.yul\":8115:8121   */\n      dup2\n        /* \"#utility.yul\":8110:8113   */\n      dup6\n        /* \"#utility.yul\":8051:8122   */\n      tag_74\n      jump\t// in\n    tag_174:\n        /* \"#utility.yul\":8044:8122   */\n      swap4\n      pop\n        /* \"#utility.yul\":8131:8196   */\n      tag_175\n        /* \"#utility.yul\":8189:8195   */\n      dup2\n        /* \"#utility.yul\":8184:8187   */\n      dup6\n        /* \"#utility.yul\":8177:8181   */\n      0x20\n        /* \"#utility.yul\":8170:8175   */\n      dup7\n        /* \"#utility.yul\":8166:8182   */\n      add\n        /* \"#utility.yul\":8131:8196   */\n      tag_62\n      jump\t// in\n    tag_175:\n        /* \"#utility.yul\":8221:8250   */\n      tag_176\n        /* \"#utility.yul\":8243:8249   */\n      dup2\n        /* \"#utility.yul\":8221:8250   */\n      tag_52\n      jump\t// in\n    tag_176:\n        /* \"#utility.yul\":8216:8219   */\n      dup5\n        /* \"#utility.yul\":8212:8251   */\n      add\n        /* \"#utility.yul\":8205:8251   */\n      swap2\n      pop\n        /* \"#utility.yul\":7972:8257   */\n      pop\n        /* \"#utility.yul\":7880:8257   */\n      swap3\n      swap2\n      pop\n      pop\n      jump\t// out\n        /* \"#utility.yul\":8263:8777   */\n    tag_35:\n        /* \"#utility.yul\":8424:8428   */\n      0x00\n        /* \"#utility.yul\":8462:8464   */\n      0x40\n        /* \"#utility.yul\":8451:8460   */\n      dup3\n        /* \"#utility.yul\":8447:8465   */\n      add\n        /* \"#utility.yul\":8439:8465   */\n      swap1\n      pop\n        /* \"#utility.yul\":8511:8520   */\n      dup2\n        /* \"#utility.yul\":8505:8509   */\n      dup2\n        /* \"#utility.yul\":8501:8521   */\n      sub\n        /* \"#utility.yul\":8497:8498   */\n      0x00\n        /* \"#utility.yul\":8486:8495   */\n      dup4\n        /* \"#utility.yul\":8482:8499   */\n      add\n        /* \"#utility.yul\":8475:8522   */\n      mstore\n        /* \"#utility.yul\":8539:8617   */\n      tag_178\n        /* \"#utility.yul\":8612:8616   */\n      dup2\n        /* \"#utility.yul\":8603:8609   */\n      dup6\n        /* \"#utility.yul\":8539:8617   */\n      tag_75\n      jump\t// in\n    tag_178:\n        /* \"#utility.yul\":8531:8617   */\n      swap1\n      pop\n        /* \"#utility.yul\":8664:8673   */\n      dup2\n        /* \"#utility.yul\":8658:8662   */\n      dup2\n        /* \"#utility.yul\":8654:8674   */\n      sub\n        /* \"#utility.yul\":8649:8651   */\n      0x20\n        /* \"#utility.yul\":8638:8647   */\n      dup4\n        /* \"#utility.yul\":8634:8652   */\n      add\n        /* \"#utility.yul\":8627:8675   */\n      mstore\n        /* \"#utility.yul\":8692:8770   */\n      tag_179\n        /* \"#utility.yul\":8765:8769   */\n      dup2\n        /* \"#utility.yul\":8756:8762   */\n      dup5\n        /* \"#utility.yul\":8692:8770   */\n      tag_75\n      jump\t// in\n    tag_179:\n        /* \"#utility.yul\":8684:8770   */\n      swap1\n      pop\n        /* \"#utility.yul\":8263:8777   */\n      swap4\n      swap3\n      pop\n      pop\n      pop\n      jump\t// out\n        /* \"#utility.yul\":8783:8931   */\n    tag_76:\n        /* \"#utility.yul\":8885:8896   */\n      0x00\n        /* \"#utility.yul\":8922:8925   */\n      dup2\n        /* \"#utility.yul\":8907:8925   */\n      swap1\n      pop\n        /* \"#utility.yul\":8783:8931   */\n      swap3\n      swap2\n      pop\n      pop\n      jump\t// out\n        /* \"#utility.yul\":8937:9327   */\n    tag_77:\n        /* \"#utility.yul\":9043:9046   */\n      0x00\n        /* \"#utility.yul\":9071:9110   */\n      tag_182\n        /* \"#utility.yul\":9104:9109   */\n      dup3\n        /* \"#utility.yul\":9071:9110   */\n      tag_73\n      jump\t// in\n    tag_182:\n        /* \"#utility.yul\":9126:9215   */\n      tag_183\n        /* \"#utility.yul\":9208:9214   */\n      dup2\n        /* \"#utility.yul\":9203:9206   */\n      dup6\n        /* \"#utility.yul\":9126:9215   */\n      tag_76\n      jump\t// in\n    tag_183:\n        /* \"#utility.yul\":9119:9215   */\n      swap4\n      pop\n        /* \"#utility.yul\":9224:9289   */\n      tag_184\n        /* \"#utility.yul\":9282:9288   */\n      dup2\n        /* \"#utility.yul\":9277:9280   */\n      dup6\n        /* \"#utility.yul\":9270:9274   */\n      0x20\n        /* \"#utility.yul\":9263:9268   */\n      dup7\n        /* \"#utility.yul\":9259:9275   */\n      add\n        /* \"#utility.yul\":9224:9289   */\n      tag_62\n      jump\t// in\n    tag_184:\n        /* \"#utility.yul\":9314:9320   */\n      dup1\n        /* \"#utility.yul\":9309:9312   */\n      dup5\n        /* \"#utility.yul\":9305:9321   */\n      add\n        /* \"#utility.yul\":9298:9321   */\n      swap2\n      pop\n        /* \"#utility.yul\":9047:9327   */\n      pop\n        /* \"#utility.yul\":8937:9327   */\n      swap3\n      swap2\n      pop\n      pop\n      jump\t// out\n        /* \"#utility.yul\":9333:9412   */\n    tag_78:\n        /* \"#utility.yul\":9372:9379   */\n      0x00\n        /* \"#utility.yul\":9401:9406   */\n      dup2\n        /* \"#utility.yul\":9390:9406   */\n      swap1\n      pop\n        /* \"#utility.yul\":9333:9412   */\n      swap2\n      swap1\n      pop\n      jump\t// out\n        /* \"#utility.yul\":9418:9575   */\n    tag_79:\n        /* \"#utility.yul\":9523:9568   */\n      tag_187\n        /* \"#utility.yul\":9543:9567   */\n      tag_188\n        /* \"#utility.yul\":9561:9566   */\n      dup3\n        /* \"#utility.yul\":9543:9567   */\n      tag_64\n      jump\t// in\n    tag_188:\n        /* \"#utility.yul\":9523:9568   */\n      tag_78\n      jump\t// in\n    tag_187:\n        /* \"#utility.yul\":9518:9521   */\n      dup3\n        /* \"#utility.yul\":9511:9569   */\n      mstore\n        /* \"#utility.yul\":9418:9575   */\n      pop\n      pop\n      jump\t// out\n        /* \"#utility.yul\":9581:10157   */\n    tag_38:\n        /* \"#utility.yul\":9789:9792   */\n      0x00\n        /* \"#utility.yul\":9811:9906   */\n      tag_190\n        /* \"#utility.yul\":9902:9905   */\n      dup3\n        /* \"#utility.yul\":9893:9899   */\n      dup7\n        /* \"#utility.yul\":9811:9906   */\n      tag_77\n      jump\t// in\n    tag_190:\n        /* \"#utility.yul\":9804:9906   */\n      swap2\n      pop\n        /* \"#utility.yul\":9916:9991   */\n      tag_191\n        /* \"#utility.yul\":9987:9990   */\n      dup3\n        /* \"#utility.yul\":9978:9984   */\n      dup6\n        /* \"#utility.yul\":9916:9991   */\n      tag_79\n      jump\t// in\n    tag_191:\n        /* \"#utility.yul\":10016:10018   */\n      0x20\n        /* \"#utility.yul\":10011:10014   */\n      dup3\n        /* \"#utility.yul\":10007:10019   */\n      add\n        /* \"#utility.yul\":10000:10019   */\n      swap2\n      pop\n        /* \"#utility.yul\":10036:10131   */\n      tag_192\n        /* \"#utility.yul\":10127:10130   */\n      dup3\n        /* \"#utility.yul\":10118:10124   */\n      dup5\n        /* \"#utility.yul\":10036:10131   */\n      tag_77\n      jump\t// in\n    tag_192:\n        /* \"#utility.yul\":10029:10131   */\n      swap2\n      pop\n        /* \"#utility.yul\":10148:10151   */\n      dup2\n        /* \"#utility.yul\":10141:10151   */\n      swap1\n      pop\n        /* \"#utility.yul\":9581:10157   */\n      swap5\n      swap4\n      pop\n      pop\n      pop\n      pop\n      jump\t// out\n        /* \"#utility.yul\":10163:10257   */\n    tag_80:\n        /* \"#utility.yul\":10196:10204   */\n      0x00\n        /* \"#utility.yul\":10244:10249   */\n      dup2\n        /* \"#utility.yul\":10240:10242   */\n      0x60\n        /* \"#utility.yul\":10236:10250   */\n      shl\n        /* \"#utility.yul\":10215:10250   */\n      swap1\n      pop\n        /* \"#utility.yul\":10163:10257   */\n      swap2\n      swap1\n      pop\n      jump\t// out\n        /* \"#utility.yul\":10263:10357   */\n    tag_81:\n        /* \"#utility.yul\":10302:10309   */\n      0x00\n        /* \"#utility.yul\":10331:10351   */\n      tag_195\n        /* \"#utility.yul\":10345:10350   */\n      dup3\n        /* \"#utility.yul\":10331:10351   */\n      tag_80\n      jump\t// in\n    tag_195:\n        /* \"#utility.yul\":10320:10351   */\n      swap1\n      pop\n        /* \"#utility.yul\":10263:10357   */\n      swap2\n      swap1\n      pop\n      jump\t// out\n        /* \"#utility.yul\":10363:10463   */\n    tag_82:\n        /* \"#utility.yul\":10402:10409   */\n      0x00\n        /* \"#utility.yul\":10431:10457   */\n      tag_197\n        /* \"#utility.yul\":10451:10456   */\n      dup3\n        /* \"#utility.yul\":10431:10457   */\n      tag_81\n      jump\t// in\n    tag_197:\n        /* \"#utility.yul\":10420:10457   */\n      swap1\n      pop\n        /* \"#utility.yul\":10363:10463   */\n      swap2\n      swap1\n      pop\n      jump\t// out\n        /* \"#utility.yul\":10469:10626   */\n    tag_83:\n        /* \"#utility.yul\":10574:10619   */\n      tag_199\n        /* \"#utility.yul\":10594:10618   */\n      tag_200\n        /* \"#utility.yul\":10612:10617   */\n      dup3\n        /* \"#utility.yul\":10594:10618   */\n      tag_70\n      jump\t// in\n    tag_200:\n        /* \"#utility.yul\":10574:10619   */\n      tag_82\n      jump\t// in\n    tag_199:\n        /* \"#utility.yul\":10569:10572   */\n      dup3\n        /* \"#utility.yul\":10562:10620   */\n      mstore\n        /* \"#utility.yul\":10469:10626   */\n      pop\n      pop\n      jump\t// out\n        /* \"#utility.yul\":10632:11189   */\n    tag_41:\n        /* \"#utility.yul\":10820:10823   */\n      0x00\n        /* \"#utility.yul\":10842:10937   */\n      tag_202\n        /* \"#utility.yul\":10933:10936   */\n      dup3\n        /* \"#utility.yul\":10924:10930   */\n      dup7\n        /* \"#utility.yul\":10842:10937   */\n      tag_77\n      jump\t// in\n    tag_202:\n        /* \"#utility.yul\":10835:10937   */\n      swap2\n      pop\n        /* \"#utility.yul\":10947:11022   */\n      tag_203\n        /* \"#utility.yul\":11018:11021   */\n      dup3\n        /* \"#utility.yul\":11009:11015   */\n      dup6\n        /* \"#utility.yul\":10947:11022   */\n      tag_79\n      jump\t// in\n    tag_203:\n        /* \"#utility.yul\":11047:11049   */\n      0x20\n        /* \"#utility.yul\":11042:11045   */\n      dup3\n        /* \"#utility.yul\":11038:11050   */\n      add\n        /* \"#utility.yul\":11031:11050   */\n      swap2\n      pop\n        /* \"#utility.yul\":11060:11135   */\n      tag_204\n        /* \"#utility.yul\":11131:11134   */\n      dup3\n        /* \"#utility.yul\":11122:11128   */\n      dup5\n        /* \"#utility.yul\":11060:11135   */\n      tag_83\n      jump\t// in\n    tag_204:\n        /* \"#utility.yul\":11160:11162   */\n      0x14\n        /* \"#utility.yul\":11155:11158   */\n      dup3\n        /* \"#utility.yul\":11151:11163   */\n      add\n        /* \"#utility.yul\":11144:11163   */\n      swap2\n      pop\n        /* \"#utility.yul\":11180:11183   */\n      dup2\n        /* \"#utility.yul\":11173:11183   */\n      swap1\n      pop\n        /* \"#utility.yul\":10632:11189   */\n      swap5\n      swap4\n      pop\n      pop\n      pop\n      pop\n      jump\t// out\n        /* \"#utility.yul\":11195:11630   */\n    tag_44:\n        /* \"#utility.yul\":11375:11378   */\n      0x00\n        /* \"#utility.yul\":11397:11492   */\n      tag_206\n        /* \"#utility.yul\":11488:11491   */\n      dup3\n        /* \"#utility.yul\":11479:11485   */\n      dup6\n        /* \"#utility.yul\":11397:11492   */\n      tag_77\n      jump\t// in\n    tag_206:\n        /* \"#utility.yul\":11390:11492   */\n      swap2\n      pop\n        /* \"#utility.yul\":11509:11604   */\n      tag_207\n        /* \"#utility.yul\":11600:11603   */\n      dup3\n        /* \"#utility.yul\":11591:11597   */\n      dup5\n        /* \"#utility.yul\":11509:11604   */\n      tag_77\n      jump\t// in\n    tag_207:\n        /* \"#utility.yul\":11502:11604   */\n      swap2\n      pop\n        /* \"#utility.yul\":11621:11624   */\n      dup2\n        /* \"#utility.yul\":11614:11624   */\n      swap1\n      pop\n        /* \"#utility.yul\":11195:11630   */\n      swap4\n      swap3\n      pop\n      pop\n      pop\n      jump\t// out\n\n    auxdata: 0xa2646970667358221220d413a1b9f9162a407934c9e95f4a4de6102437cabebd0fc361254117903aeff364736f6c634300081a0033\n}\n",
				"bytecode": {
					"linkReferences": {},
					"object": "6080604052348015600e575f80fd5b5061081d8061001c5f395ff3fe608060405234801561000f575f80fd5b5060043610610055575f3560e01c806317fe2da21461005957806332ee4987146100895780635dda416e146100b957806381c880ea146100e9578063892e5d0114610119575b5f80fd5b610073600480360381019061006e919061038a565b610149565b6040516100809190610460565b60405180910390f35b6100a3600480360381019061009e91906104b3565b610175565b6040516100b09190610553565b60405180910390f35b6100d360048036038101906100ce91906105c6565b6101aa565b6040516100e09190610553565b60405180910390f35b61010360048036038101906100fe919061038a565b6101df565b6040516101109190610553565b60405180910390f35b610133600480360381019061012e919061038a565b610211565b6040516101409190610460565b60405180910390f35b6060828260405160200161015e929190610684565b604051602081830303815290604052905092915050565b5f83838360405160200161018b93929190610713565b6040516020818303038152906040528051906020012090509392505050565b5f8383836040516020016101c09392919061078c565b6040516020818303038152906040528051906020012090509392505050565b5f82826040516020016101f39291906107c4565b60405160208183030381529060405280519060200120905092915050565b606082826040516020016102269291906107c4565b604051602081830303815290604052905092915050565b5f604051905090565b5f80fd5b5f80fd5b5f80fd5b5f80fd5b5f601f19601f8301169050919050565b7f4e487b71000000000000000000000000000000000000000000000000000000005f52604160045260245ffd5b61029c82610256565b810181811067ffffffffffffffff821117156102bb576102ba610266565b5b80604052505050565b5f6102cd61023d565b90506102d98282610293565b919050565b5f67ffffffffffffffff8211156102f8576102f7610266565b5b61030182610256565b9050602081019050919050565b828183375f83830152505050565b5f61032e610329846102de565b6102c4565b90508281526020810184848401111561034a57610349610252565b5b61035584828561030e565b509392505050565b5f82601f8301126103715761037061024e565b5b813561038184826020860161031c565b91505092915050565b5f80604083850312156103a05761039f610246565b5b5f83013567ffffffffffffffff8111156103bd576103bc61024a565b5b6103c98582860161035d565b925050602083013567ffffffffffffffff8111156103ea576103e961024a565b5b6103f68582860161035d565b9150509250929050565b5f81519050919050565b5f82825260208201905092915050565b8281835e5f83830152505050565b5f61043282610400565b61043c818561040a565b935061044c81856020860161041a565b61045581610256565b840191505092915050565b5f6020820190508181035f8301526104788184610428565b905092915050565b5f819050919050565b61049281610480565b811461049c575f80fd5b50565b5f813590506104ad81610489565b92915050565b5f805f606084860312156104ca576104c9610246565b5b5f84013567ffffffffffffffff8111156104e7576104e661024a565b5b6104f38682870161035d565b93505060206105048682870161049f565b925050604084013567ffffffffffffffff8111156105255761052461024a565b5b6105318682870161035d565b9150509250925092565b5f819050919050565b61054d8161053b565b82525050565b5f6020820190506105665f830184610544565b92915050565b5f73ffffffffffffffffffffffffffffffffffffffff82169050919050565b5f6105958261056c565b9050919050565b6105a58161058b565b81146105af575f80fd5b50565b5f813590506105c08161059c565b92915050565b5f805f606084860312156105dd576105dc610246565b5b5f84013567ffffffffffffffff8111156105fa576105f961024a565b5b6106068682870161035d565b93505060206106178682870161049f565b9250506040610628868287016105b2565b9150509250925092565b5f81519050919050565b5f82825260208201905092915050565b5f61065682610632565b610660818561063c565b935061067081856020860161041a565b61067981610256565b840191505092915050565b5f6040820190508181035f83015261069c818561064c565b905081810360208301526106b0818461064c565b90509392505050565b5f81905092915050565b5f6106cd82610632565b6106d781856106b9565b93506106e781856020860161041a565b80840191505092915050565b5f819050919050565b61070d61070882610480565b6106f3565b82525050565b5f61071e82866106c3565b915061072a82856106fc565b60208201915061073a82846106c3565b9150819050949350505050565b5f8160601b9050919050565b5f61075d82610747565b9050919050565b5f61076e82610753565b9050919050565b6107866107818261058b565b610764565b82525050565b5f61079782866106c3565b91506107a382856106fc565b6020820191506107b38284610775565b601482019150819050949350505050565b5f6107cf82856106c3565b91506107db82846106c3565b9150819050939250505056fea2646970667358221220d413a1b9f9162a407934c9e95f4a4de6102437cabebd0fc361254117903aeff364736f6c634300081a0033",
					"opcodes": "PUSH1 0x80 PUSH1 0x40 MSTORE CALLVALUE DUP1 ISZERO PUSH1 0xE JUMPI PUSH0 DUP1 REVERT JUMPDEST POP PUSH2 0x81D DUP1 PUSH2 0x1C PUSH0 CODECOPY PUSH0 RETURN INVALID PUSH1 0x80 PUSH1 0x40 MSTORE CALLVALUE DUP1 ISZERO PUSH2 0xF JUMPI PUSH0 DUP1 REVERT JUMPDEST POP PUSH1 0x4 CALLDATASIZE LT PUSH2 0x55 JUMPI PUSH0 CALLDATALOAD PUSH1 0xE0 SHR DUP1 PUSH4 0x17FE2DA2 EQ PUSH2 0x59 JUMPI DUP1 PUSH4 0x32EE4987 EQ PUSH2 0x89 JUMPI DUP1 PUSH4 0x5DDA416E EQ PUSH2 0xB9 JUMPI DUP1 PUSH4 0x81C880EA EQ PUSH2 0xE9 JUMPI DUP1 PUSH4 0x892E5D01 EQ PUSH2 0x119 JUMPI JUMPDEST PUSH0 DUP1 REVERT JUMPDEST PUSH2 0x73 PUSH1 0x4 DUP1 CALLDATASIZE SUB DUP2 ADD SWAP1 PUSH2 0x6E SWAP2 SWAP1 PUSH2 0x38A JUMP JUMPDEST PUSH2 0x149 JUMP JUMPDEST PUSH1 0x40 MLOAD PUSH2 0x80 SWAP2 SWAP1 PUSH2 0x460 JUMP JUMPDEST PUSH1 0x40 MLOAD DUP1 SWAP2 SUB SWAP1 RETURN JUMPDEST PUSH2 0xA3 PUSH1 0x4 DUP1 CALLDATASIZE SUB DUP2 ADD SWAP1 PUSH2 0x9E SWAP2 SWAP1 PUSH2 0x4B3 JUMP JUMPDEST PUSH2 0x175 JUMP JUMPDEST PUSH1 0x40 MLOAD PUSH2 0xB0 SWAP2 SWAP1 PUSH2 0x553 JUMP JUMPDEST PUSH1 0x40 MLOAD DUP1 SWAP2 SUB SWAP1 RETURN JUMPDEST PUSH2 0xD3 PUSH1 0x4 DUP1 CALLDATASIZE SUB DUP2 ADD SWAP1 PUSH2 0xCE SWAP2 SWAP1 PUSH2 0x5C6 JUMP JUMPDEST PUSH2 0x1AA JUMP JUMPDEST PUSH1 0x40 MLOAD PUSH2 0xE0 SWAP2 SWAP1 PUSH2 0x553 JUMP JUMPDEST PUSH1 0x40 MLOAD DUP1 SWAP2 SUB SWAP1 RETURN JUMPDEST PUSH2 0x103 PUSH1 0x4 DUP1 CALLDATASIZE SUB DUP2 ADD SWAP1 PUSH2 0xFE SWAP2 SWAP1 PUSH2 0x38A JUMP JUMPDEST PUSH2 0x1DF JUMP JUMPDEST PUSH1 0x40 MLOAD PUSH2 0x110 SWAP2 SWAP1 PUSH2 0x553 JUMP JUMPDEST PUSH1 0x40 MLOAD DUP1 SWAP2 SUB SWAP1 RETURN JUMPDEST PUSH2 0x133 PUSH1 0x4 DUP1 CALLDATASIZE SUB DUP2 ADD SWAP1 PUSH2 0x12E SWAP2 SWAP1 PUSH2 0x38A JUMP JUMPDEST PUSH2 0x211 JUMP JUMPDEST PUSH1 0x40 MLOAD PUSH2 0x140 SWAP2 SWAP1 PUSH2 0x460 JUMP JUMPDEST PUSH1 0x40 MLOAD DUP1 SWAP2 SUB SWAP1 RETURN JUMPDEST PUSH1 0x60 DUP3 DUP3 PUSH1 0x40 MLOAD PUSH1 0x20 ADD PUSH2 0x15E SWAP3 SWAP2 SWAP1 PUSH2 0x684 JUMP JUMPDEST PUSH1 0x40 MLOAD PUSH1 0x20 DUP2 DUP4 SUB SUB DUP2 MSTORE SWAP1 PUSH1 0x40 MSTORE SWAP1 POP SWAP3 SWAP2 POP POP JUMP JUMPDEST PUSH0 DUP4 DUP4 DUP4 PUSH1 0x40 MLOAD PUSH1 0x20 ADD PUSH2 0x18B SWAP4 SWAP3 SWAP2 SWAP1 PUSH2 0x713 JUMP JUMPDEST PUSH1 0x40 MLOAD PUSH1 0x20 DUP2 DUP4 SUB SUB DUP2 MSTORE SWAP1 PUSH1 0x40 MSTORE DUP1 MLOAD SWAP1 PUSH1 0x20 ADD KECCAK256 SWAP1 POP SWAP4 SWAP3 POP POP POP JUMP JUMPDEST PUSH0 DUP4 DUP4 DUP4 PUSH1 0x40 MLOAD PUSH1 0x20 ADD PUSH2 0x1C0 SWAP4 SWAP3 SWAP2 SWAP1 PUSH2 0x78C JUMP JUMPDEST PUSH1 0x40 MLOAD PUSH1 0x20 DUP2 DUP4 SUB SUB DUP2 MSTORE SWAP1 PUSH1 0x40 MSTORE DUP1 MLOAD SWAP1 PUSH1 0x20 ADD KECCAK256 SWAP1 POP SWAP4 SWAP3 POP POP POP JUMP JUMPDEST PUSH0 DUP3 DUP3 PUSH1 0x40 MLOAD PUSH1 0x20 ADD PUSH2 0x1F3 SWAP3 SWAP2 SWAP1 PUSH2 0x7C4 JUMP JUMPDEST PUSH1 0x40 MLOAD PUSH1 0x20 DUP2 DUP4 SUB SUB DUP2 MSTORE SWAP1 PUSH1 0x40 MSTORE DUP1 MLOAD SWAP1 PUSH1 0x20 ADD KECCAK256 SWAP1 POP SWAP3 SWAP2 POP POP JUMP JUMPDEST PUSH1 0x60 DUP3 DUP3 PUSH1 0x40 MLOAD PUSH1 0x20 ADD PUSH2 0x226 SWAP3 SWAP2 SWAP1 PUSH2 0x7C4 JUMP JUMPDEST PUSH1 0x40 MLOAD PUSH1 0x20 DUP2 DUP4 SUB SUB DUP2 MSTORE SWAP1 PUSH1 0x40 MSTORE SWAP1 POP SWAP3 SWAP2 POP POP JUMP JUMPDEST PUSH0 PUSH1 0x40 MLOAD SWAP1 POP SWAP1 JUMP JUMPDEST PUSH0 DUP1 REVERT JUMPDEST PUSH0 DUP1 REVERT JUMPDEST PUSH0 DUP1 REVERT JUMPDEST PUSH0 DUP1 REVERT JUMPDEST PUSH0 PUSH1 0x1F NOT PUSH1 0x1F DUP4 ADD AND SWAP1 POP SWAP2 SWAP1 POP JUMP JUMPDEST PUSH32 0x4E487B7100000000000000000000000000000000000000000000000000000000 PUSH0 MSTORE PUSH1 0x41 PUSH1 0x4 MSTORE PUSH1 0x24 PUSH0 REVERT JUMPDEST PUSH2 0x29C DUP3 PUSH2 0x256 JUMP JUMPDEST DUP2 ADD DUP2 DUP2 LT PUSH8 0xFFFFFFFFFFFFFFFF DUP3 GT OR ISZERO PUSH2 0x2BB JUMPI PUSH2 0x2BA PUSH2 0x266 JUMP JUMPDEST JUMPDEST DUP1 PUSH1 0x40 MSTORE POP POP POP JUMP JUMPDEST PUSH0 PUSH2 0x2CD PUSH2 0x23D JUMP JUMPDEST SWAP1 POP PUSH2 0x2D9 DUP3 DUP3 PUSH2 0x293 JUMP JUMPDEST SWAP2 SWAP1 POP JUMP JUMPDEST PUSH0 PUSH8 0xFFFFFFFFFFFFFFFF DUP3 GT ISZERO PUSH2 0x2F8 JUMPI PUSH2 0x2F7 PUSH2 0x266 JUMP JUMPDEST JUMPDEST PUSH2 0x301 DUP3 PUSH2 0x256 JUMP JUMPDEST SWAP1 POP PUSH1 0x20 DUP2 ADD SWAP1 POP SWAP2 SWAP1 POP JUMP JUMPDEST DUP3 DUP2 DUP4 CALLDATACOPY PUSH0 DUP4 DUP4 ADD MSTORE POP POP POP JUMP JUMPDEST PUSH0 PUSH2 0x32E PUSH2 0x329 DUP5 PUSH2 0x2DE JUMP JUMPDEST PUSH2 0x2C4 JUMP JUMPDEST SWAP1 POP DUP3 DUP2 MSTORE PUSH1 0x20 DUP2 ADD DUP5 DUP5 DUP5 ADD GT ISZERO PUSH2 0x34A JUMPI PUSH2 0x349 PUSH2 0x252 JUMP JUMPDEST JUMPDEST PUSH2 0x355 DUP5 DUP3 DUP6 PUSH2 0x30E JUMP JUMPDEST POP SWAP4 SWAP3 POP POP POP JUMP JUMPDEST PUSH0 DUP3 PUSH1 0x1F DUP4 ADD SLT PUSH2 0x371 JUMPI PUSH2 0x370 PUSH2 0x24E JUMP JUMPDEST JUMPDEST DUP2 CALLDATALOAD PUSH2 0x381 DUP5 DUP3 PUSH1 0x20 DUP7 ADD PUSH2 0x31C JUMP JUMPDEST SWAP2 POP POP SWAP3 SWAP2 POP POP JUMP JUMPDEST PUSH0 DUP1 PUSH1 0x40 DUP4 DUP6 SUB SLT ISZERO PUSH2 0x3A0 JUMPI PUSH2 0x39F PUSH2 0x246 JUMP JUMPDEST JUMPDEST PUSH0 DUP4 ADD CALLDATALOAD PUSH8 0xFFFFFFFFFFFFFFFF DUP2 GT ISZERO PUSH2 0x3BD JUMPI PUSH2 0x3BC PUSH2 0x24A JUMP JUMPDEST JUMPDEST PUSH2 0x3C9 DUP6 DUP3 DUP7 ADD PUSH2 0x35D JUMP JUMPDEST SWAP3 POP POP PUSH1 0x20 DUP4 ADD CALLDATALOAD PUSH8 0xFFFFFFFFFFFFFFFF DUP2 GT ISZERO PUSH2 0x3EA JUMPI PUSH2 0x3E9 PUSH2 0x24A JUMP JUMPDEST JUMPDEST PUSH2 0x3F6 DUP6 DUP3 DUP7 ADD PUSH2 0x35D JUMP JUMPDEST SWAP2 POP POP SWAP3 POP SWAP3 SWAP1 POP JUMP JUMPDEST PUSH0 DUP2 MLOAD SWAP1 POP SWAP2 SWAP1 POP JUMP JUMPDEST PUSH0 DUP3 DUP3 MSTORE PUSH1 0x20 DUP3 ADD SWAP1 POP SWAP3 SWAP2 POP POP JUMP JUMPDEST DUP3 DUP2 DUP4 MCOPY PUSH0 DUP4 DUP4 ADD MSTORE POP POP POP JUMP JUMPDEST PUSH0 PUSH2 0x432 DUP3 PUSH2 0x400 JUMP JUMPDEST PUSH2 0x43C DUP2 DUP6 PUSH2 0x40A JUMP JUMPDEST SWAP4 POP PUSH2 0x44C DUP2 DUP6 PUSH1 0x20 DUP7 ADD PUSH2 0x41A JUMP JUMPDEST PUSH2 0x455 DUP2 PUSH2 0x256 JUMP JUMPDEST DUP5 ADD SWAP2 POP POP SWAP3 SWAP2 POP POP JUMP JUMPDEST PUSH0 PUSH1 0x20 DUP3 ADD SWAP1 POP DUP2 DUP2 SUB PUSH0 DUP4 ADD MSTORE PUSH2 0x478 DUP2 DUP5 PUSH2 0x428 JUMP JUMPDEST SWAP1 POP SWAP3 SWAP2 POP POP JUMP JUMPDEST PUSH0 DUP2 SWAP1 POP SWAP2 SWAP1 POP JUMP JUMPDEST PUSH2 0x492 DUP2 PUSH2 0x480 JUMP JUMPDEST DUP2 EQ PUSH2 0x49C JUMPI PUSH0 DUP1 REVERT JUMPDEST POP JUMP JUMPDEST PUSH0 DUP2 CALLDATALOAD SWAP1 POP PUSH2 0x4AD DUP2 PUSH2 0x489 JUMP JUMPDEST SWAP3 SWAP2 POP POP JUMP JUMPDEST PUSH0 DUP1 PUSH0 PUSH1 0x60 DUP5 DUP7 SUB SLT ISZERO PUSH2 0x4CA JUMPI PUSH2 0x4C9 PUSH2 0x246 JUMP JUMPDEST JUMPDEST PUSH0 DUP5 ADD CALLDATALOAD PUSH8 0xFFFFFFFFFFFFFFFF DUP2 GT ISZERO PUSH2 0x4E7 JUMPI PUSH2 0x4E6 PUSH2 0x24A JUMP JUMPDEST JUMPDEST PUSH2 0x4F3 DUP7 DUP3 DUP8 ADD PUSH2 0x35D JUMP JUMPDEST SWAP4 POP POP PUSH1 0x20 PUSH2 0x504 DUP7 DUP3 DUP8 ADD PUSH2 0x49F JUMP JUMPDEST SWAP3 POP POP PUSH1 0x40 DUP5 ADD CALLDATALOAD PUSH8 0xFFFFFFFFFFFFFFFF DUP2 GT ISZERO PUSH2 0x525 JUMPI PUSH2 0x524 PUSH2 0x24A JUMP JUMPDEST JUMPDEST PUSH2 0x531 DUP7 DUP3 DUP8 ADD PUSH2 0x35D JUMP JUMPDEST SWAP2 POP POP SWAP3 POP SWAP3 POP SWAP3 JUMP JUMPDEST PUSH0 DUP2 SWAP1 POP SWAP2 SWAP1 POP JUMP JUMPDEST PUSH2 0x54D DUP2 PUSH2 0x53B JUMP JUMPDEST DUP3 MSTORE POP POP JUMP JUMPDEST PUSH0 PUSH1 0x20 DUP3 ADD SWAP1 POP PUSH2 0x566 PUSH0 DUP4 ADD DUP5 PUSH2 0x544 JUMP JUMPDEST SWAP3 SWAP2 POP POP JUMP JUMPDEST PUSH0 PUSH20 0xFFFFFFFFFFFFFFFFFFFFFFFFFFFFFFFFFFFFFFFF DUP3 AND SWAP1 POP SWAP2 SWAP1 POP JUMP JUMPDEST PUSH0 PUSH2 0x595 DUP3 PUSH2 0x56C JUMP JUMPDEST SWAP1 POP SWAP2 SWAP1 POP JUMP JUMPDEST PUSH2 0x5A5 DUP2 PUSH2 0x58B JUMP JUMPDEST DUP2 EQ PUSH2 0x5AF JUMPI PUSH0 DUP1 REVERT JUMPDEST POP JUMP JUMPDEST PUSH0 DUP2 CALLDATALOAD SWAP1 POP PUSH2 0x5C0 DUP2 PUSH2 0x59C JUMP JUMPDEST SWAP3 SWAP2 POP POP JUMP JUMPDEST PUSH0 DUP1 PUSH0 PUSH1 0x60 DUP5 DUP7 SUB SLT ISZERO PUSH2 0x5DD JUMPI PUSH2 0x5DC PUSH2 0x246 JUMP JUMPDEST JUMPDEST PUSH0 DUP5 ADD CALLDATALOAD PUSH8 0xFFFFFFFFFFFFFFFF DUP2 GT ISZERO PUSH2 0x5FA JUMPI PUSH2 0x5F9 PUSH2 0x24A JUMP JUMPDEST JUMPDEST PUSH2 0x606 DUP7 DUP3 DUP8 ADD PUSH2 0x35D JUMP JUMPDEST SWAP4 POP POP PUSH1 0x20 PUSH2 0x617 DUP7 DUP3 DUP8 ADD PUSH2 0x49F JUMP JUMPDEST SWAP3 POP POP PUSH1 0x40 PUSH2 0x628 DUP7 DUP3 DUP8 ADD PUSH2 0x5B2 JUMP JUMPDEST SWAP2 POP POP SWAP3 POP SWAP3 POP SWAP3 JUMP JUMPDEST PUSH0 DUP2 MLOAD SWAP1 POP SWAP2 SWAP1 POP JUMP JUMPDEST PUSH0 DUP3 DUP3 MSTORE PUSH1 0x20 DUP3 ADD SWAP1 POP SWAP3 SWAP2 POP POP JUMP JUMPDEST PUSH0 PUSH2 0x656 DUP3 PUSH2 0x632 JUMP JUMPDEST PUSH2 0x660 DUP2 DUP6 PUSH2 0x63C JUMP JUMPDEST SWAP4 POP PUSH2 0x670 DUP2 DUP6 PUSH1 0x20 DUP7 ADD PUSH2 0x41A JUMP JUMPDEST PUSH2 0x679 DUP2 PUSH2 0x256 JUMP JUMPDEST DUP5 ADD SWAP2 POP POP SWAP3 SWAP2 POP POP JUMP JUMPDEST PUSH0 PUSH1 0x40 DUP3 ADD SWAP1 POP DUP2 DUP2 SUB PUSH0 DUP4 ADD MSTORE PUSH2 0x69C DUP2 DUP6 PUSH2 0x64C JUMP JUMPDEST SWAP1 POP DUP2 DUP2 SUB PUSH1 0x20 DUP4 ADD MSTORE PUSH2 0x6B0 DUP2 DUP5 PUSH2 0x64C JUMP JUMPDEST SWAP1 POP SWAP4 SWAP3 POP POP POP JUMP JUMPDEST PUSH0 DUP2 SWAP1 POP SWAP3 SWAP2 POP POP JUMP JUMPDEST PUSH0 PUSH2 0x6CD DUP3 PUSH2 0x632 JUMP JUMPDEST PUSH2 0x6D7 DUP2 DUP6 PUSH2 0x6B9 JUMP JUMPDEST SWAP4 POP PUSH2 0x6E7 DUP2 DUP6 PUSH1 0x20 DUP7 ADD PUSH2 0x41A JUMP JUMPDEST DUP1 DUP5 ADD SWAP2 POP POP SWAP3 SWAP2 POP POP JUMP JUMPDEST PUSH0 DUP2 SWAP1 POP SWAP2 SWAP1 POP JUMP JUMPDEST PUSH2 0x70D PUSH2 0x708 DUP3 PUSH2 0x480 JUMP JUMPDEST PUSH2 0x6F3 JUMP JUMPDEST DUP3 MSTORE POP POP JUMP JUMPDEST PUSH0 PUSH2 0x71E DUP3 DUP7 PUSH2 0x6C3 JUMP JUMPDEST SWAP2 POP PUSH2 0x72A DUP3 DUP6 PUSH2 0x6FC JUMP JUMPDEST PUSH1 0x20 DUP3 ADD SWAP2 POP PUSH2 0x73A DUP3 DUP5 PUSH2 0x6C3 JUMP JUMPDEST SWAP2 POP DUP2 SWAP1 POP SWAP5 SWAP4 POP POP POP POP JUMP JUMPDEST PUSH0 DUP2 PUSH1 0x60 SHL SWAP1 POP SWAP2 SWAP1 POP JUMP JUMPDEST PUSH0 PUSH2 0x75D DUP3 PUSH2 0x747 JUMP JUMPDEST SWAP1 POP SWAP2 SWAP1 POP JUMP JUMPDEST PUSH0 PUSH2 0x76E DUP3 PUSH2 0x753 JUMP JUMPDEST SWAP1 POP SWAP2 SWAP1 POP JUMP JUMPDEST PUSH2 0x786 PUSH2 0x781 DUP3 PUSH2 0x58B JUMP JUMPDEST PUSH2 0x764 JUMP JUMPDEST DUP3 MSTORE POP POP JUMP JUMPDEST PUSH0 PUSH2 0x797 DUP3 DUP7 PUSH2 0x6C3 JUMP JUMPDEST SWAP2 POP PUSH2 0x7A3 DUP3 DUP6 PUSH2 0x6FC JUMP JUMPDEST PUSH1 0x20 DUP3 ADD SWAP2 POP PUSH2 0x7B3 DUP3 DUP5 PUSH2 0x775 JUMP JUMPDEST PUSH1 0x14 DUP3 ADD SWAP2 POP DUP2 SWAP1 POP SWAP5 SWAP4 POP POP POP POP JUMP JUMPDEST PUSH0 PUSH2 0x7CF DUP3 DUP6 PUSH2 0x6C3 JUMP JUMPDEST SWAP2 POP PUSH2 0x7DB DUP3 DUP5 PUSH2 0x6C3 JUMP JUMPDEST SWAP2 POP DUP2 SWAP1 POP SWAP4 SWAP3 POP POP POP JUMP INVALID LOG2 PUSH5 0x6970667358 0x22 SLT KECCAK256 0xD4 SGT LOG1 0xB9 0xF9 AND 0x2A BLOCKHASH PUSH26 0x34C9E95F4A4DE6102437CABEBD0FC361254117903AEFF364736F PUSH13 0x634300081A0033000000000000 "
				},
				"gasEstimates": {
					"creation": {
						"codeDepositCost": "415400",
						"executionCost": "447",
						"totalCost": "415847"
					},
					"external": {
						"collistion(string,string)": "infinite",
						"collistion(string,uint256,string)": "infinite",
						"encode(string,string)": "infinite",
						"encodePacked(string,string)": "infinite",
						"hash(string,uint256,address)": "infinite"
					}
				},
				"methodIdentifiers": {
					"collistion(string,string)": "81c880ea",
					"collistion(string,uint256,string)": "32ee4987",
					"encode(string,string)": "17fe2da2",
					"encodePacked(string,string)": "892e5d01",
					"hash(string,uint256,address)": "5dda416e"
				}
			},
			"storageLayout": {
				"storage": [],
				"types": null
			},
			"userdoc": {
				"kind": "user",
				"methods": {},
				"version": 1
			}
		}
	}
}