{
	"042TestCall.sol": {
		"CallTest": {
			"abi": [
				{
					"inputs": [
						{
							"internalType": "address",
							"name": "_test",
							"type": "address"
						}
					],
					"name": "callFoo",
					"outputs": [],
					"stateMutability": "payable",
					"type": "function"
				},
				{
					"inputs": [],
					"name": "data",
					"outputs": [
						{
							"internalType": "bytes",
							"name": "",
							"type": "bytes"
						}
					],
					"stateMutability": "view",
					"type": "function"
				},
				{
					"inputs": [
						{
							"internalType": "address",
							"name": "_test",
							"type": "address"
						}
					],
					"name": "test2",
					"outputs": [],
					"stateMutability": "nonpayable",
					"type": "function"
				}
			],
			"devdoc": {
				"kind": "dev",
				"methods": {},
				"version": 1
			},
			"evm": {
				"assembly": "    /* \"042TestCall.sol\":521:1003  contract CallTest{... */\n  mstore(0x40, 0x80)\n  callvalue\n  dup1\n  iszero\n  tag_1\n  jumpi\n  0x00\n  dup1\n  revert\ntag_1:\n  pop\n  dataSize(sub_0)\n  dup1\n  dataOffset(sub_0)\n  0x00\n  codecopy\n  0x00\n  return\nstop\n\nsub_0: assembly {\n        /* \"042TestCall.sol\":521:1003  contract CallTest{... */\n      mstore(0x40, 0x80)\n      jumpi(tag_1, lt(calldatasize, 0x04))\n      shr(0xe0, calldataload(0x00))\n      dup1\n      0x73d4a13a\n      eq\n      tag_2\n      jumpi\n      dup1\n      0xb11bead4\n      eq\n      tag_3\n      jumpi\n      dup1\n      0xedcbe76c\n      eq\n      tag_4\n      jumpi\n    tag_1:\n      0x00\n      dup1\n      revert\n        /* \"042TestCall.sol\":544:561  bytes public data */\n    tag_2:\n      callvalue\n      dup1\n      iszero\n      tag_5\n      jumpi\n      0x00\n      dup1\n      revert\n    tag_5:\n      pop\n      tag_6\n      tag_7\n      jump\t// in\n    tag_6:\n      mload(0x40)\n      tag_8\n      swap2\n      swap1\n      tag_9\n      jump\t// in\n    tag_8:\n      mload(0x40)\n      dup1\n      swap2\n      sub\n      swap1\n      return\n        /* \"042TestCall.sol\":828:1001  function test2(address _test) external {... */\n    tag_3:\n      callvalue\n      dup1\n      iszero\n      tag_10\n      jumpi\n      0x00\n      dup1\n      revert\n    tag_10:\n      pop\n      tag_11\n      0x04\n      dup1\n      calldatasize\n      sub\n      dup2\n      add\n      swap1\n      tag_12\n      swap2\n      swap1\n      tag_13\n      jump\t// in\n    tag_12:\n      tag_14\n      jump\t// in\n    tag_11:\n      stop\n        /* \"042TestCall.sol\":567:814  function callFoo(address _test) external payable {... */\n    tag_4:\n      tag_15\n      0x04\n      dup1\n      calldatasize\n      sub\n      dup2\n      add\n      swap1\n      tag_16\n      swap2\n      swap1\n      tag_13\n      jump\t// in\n    tag_16:\n      tag_17\n      jump\t// in\n    tag_15:\n      stop\n        /* \"042TestCall.sol\":544:561  bytes public data */\n    tag_7:\n      0x00\n      dup1\n      sload\n      tag_18\n      swap1\n      tag_19\n      jump\t// in\n    tag_18:\n      dup1\n      0x1f\n      add\n      0x20\n      dup1\n      swap2\n      div\n      mul\n      0x20\n      add\n      mload(0x40)\n      swap1\n      dup2\n      add\n      0x40\n      mstore\n      dup1\n      swap3\n      swap2\n      swap1\n      dup2\n      dup2\n      mstore\n      0x20\n      add\n      dup3\n      dup1\n      sload\n      tag_20\n      swap1\n      tag_19\n      jump\t// in\n    tag_20:\n      dup1\n      iszero\n      tag_21\n      jumpi\n      dup1\n      0x1f\n      lt\n      tag_22\n      jumpi\n      0x0100\n      dup1\n      dup4\n      sload\n      div\n      mul\n      dup4\n      mstore\n      swap2\n      0x20\n      add\n      swap2\n      jump(tag_21)\n    tag_22:\n      dup3\n      add\n      swap2\n      swap1\n      0x00\n      mstore\n      keccak256(0x00, 0x20)\n      swap1\n    tag_23:\n      dup2\n      sload\n      dup2\n      mstore\n      swap1\n      0x01\n      add\n      swap1\n      0x20\n      add\n      dup1\n      dup4\n      gt\n      tag_23\n      jumpi\n      dup3\n      swap1\n      sub\n      0x1f\n      and\n      dup3\n      add\n      swap2\n    tag_21:\n      pop\n      pop\n      pop\n      pop\n      pop\n      dup2\n      jump\t// out\n        /* \"042TestCall.sol\":828:1001  function test2(address _test) external {... */\n    tag_14:\n        /* \"042TestCall.sol\":878:890  bool success */\n      0x00\n        /* \"042TestCall.sol\":895:900  _test */\n      dup2\n        /* \"042TestCall.sol\":895:905  _test.call */\n      0xffffffffffffffffffffffffffffffffffffffff\n      and\n        /* \"042TestCall.sol\":906:960  abi.encodeWithSignature(\"notFunction(string,uint256)\") */\n      add(0x24, mload(0x40))\n      mload(0x40)\n      0x20\n      dup2\n      dup4\n      sub\n      sub\n      dup2\n      mstore\n      swap1\n      0x40\n      mstore\n      and(not(0xffffffffffffffffffffffffffffffffffffffffffffffffffffffff), 0xd46fff2700000000000000000000000000000000000000000000000000000000)\n      0x20\n      dup3\n      add\n      dup1\n      mload\n      0xffffffffffffffffffffffffffffffffffffffffffffffffffffffff\n      dup4\n      dup2\n      dup4\n      and\n      or\n      dup4\n      mstore\n      pop\n      pop\n      pop\n      pop\n        /* \"042TestCall.sol\":895:961  _test.call(abi.encodeWithSignature(\"notFunction(string,uint256)\")) */\n      mload(0x40)\n      tag_25\n      swap2\n      swap1\n      tag_26\n      jump\t// in\n    tag_25:\n      0x00\n      mload(0x40)\n      dup1\n      dup4\n      sub\n      dup2\n      0x00\n      dup7\n      gas\n      call\n      swap2\n      pop\n      pop\n      returndatasize\n      dup1\n      0x00\n      dup2\n      eq\n      tag_29\n      jumpi\n      mload(0x40)\n      swap2\n      pop\n      and(add(returndatasize, 0x3f), not(0x1f))\n      dup3\n      add\n      0x40\n      mstore\n      returndatasize\n      dup3\n      mstore\n      returndatasize\n      0x00\n      0x20\n      dup5\n      add\n      returndatacopy\n      jump(tag_28)\n    tag_29:\n      0x60\n      swap2\n      pop\n    tag_28:\n      pop\n        /* \"042TestCall.sol\":877:961  (bool success,) = _test.call(abi.encodeWithSignature(\"notFunction(string,uint256)\")) */\n      pop\n      swap1\n      pop\n        /* \"042TestCall.sol\":979:986  success */\n      dup1\n        /* \"042TestCall.sol\":971:994  require(success,\"fail\") */\n      tag_30\n      jumpi\n      mload(0x40)\n      0x08c379a000000000000000000000000000000000000000000000000000000000\n      dup2\n      mstore\n      0x04\n      add\n      tag_31\n      swap1\n      tag_32\n      jump\t// in\n    tag_31:\n      mload(0x40)\n      dup1\n      swap2\n      sub\n      swap1\n      revert\n    tag_30:\n        /* \"042TestCall.sol\":867:1001  {... */\n      pop\n        /* \"042TestCall.sol\":828:1001  function test2(address _test) external {... */\n      pop\n      jump\t// out\n        /* \"042TestCall.sol\":567:814  function callFoo(address _test) external payable {... */\n    tag_17:\n        /* \"042TestCall.sol\":625:637  bool success */\n      0x00\n        /* \"042TestCall.sol\":638:657  bytes  memory _data */\n      dup1\n        /* \"042TestCall.sol\":661:666  _test */\n      dup3\n        /* \"042TestCall.sol\":661:671  _test.call */\n      0xffffffffffffffffffffffffffffffffffffffff\n      and\n        /* \"042TestCall.sol\":678:681  111 */\n      0x6f\n        /* \"042TestCall.sol\":748:751  123 */\n      0x7b\n        /* \"042TestCall.sol\":690:752  abi.encodeWithSignature(\"foo(string,uint256)\", \"call foo\",123) */\n      add(0x24, mload(0x40))\n      tag_34\n      swap2\n      swap1\n      tag_35\n      jump\t// in\n    tag_34:\n      mload(0x40)\n      0x20\n      dup2\n      dup4\n      sub\n      sub\n      dup2\n      mstore\n      swap1\n      0x40\n      mstore\n      and(not(0xffffffffffffffffffffffffffffffffffffffffffffffffffffffff), 0x24ccab8f00000000000000000000000000000000000000000000000000000000)\n      0x20\n      dup3\n      add\n      dup1\n      mload\n      0xffffffffffffffffffffffffffffffffffffffffffffffffffffffff\n      dup4\n      dup2\n      dup4\n      and\n      or\n      dup4\n      mstore\n      pop\n      pop\n      pop\n      pop\n        /* \"042TestCall.sol\":661:753  _test.call{value:111}... */\n      mload(0x40)\n      tag_36\n      swap2\n      swap1\n      tag_26\n      jump\t// in\n    tag_36:\n      0x00\n      mload(0x40)\n      dup1\n      dup4\n      sub\n      dup2\n      dup6\n      dup8\n      gas\n      call\n      swap3\n      pop\n      pop\n      pop\n      returndatasize\n      dup1\n      0x00\n      dup2\n      eq\n      tag_39\n      jumpi\n      mload(0x40)\n      swap2\n      pop\n      and(add(returndatasize, 0x3f), not(0x1f))\n      dup3\n      add\n      0x40\n      mstore\n      returndatasize\n      dup3\n      mstore\n      returndatasize\n      0x00\n      0x20\n      dup5\n      add\n      returndatacopy\n      jump(tag_38)\n    tag_39:\n      0x60\n      swap2\n      pop\n    tag_38:\n      pop\n        /* \"042TestCall.sol\":624:753  (bool success,bytes  memory _data) = _test.call{value:111}... */\n      swap2\n      pop\n      swap2\n      pop\n        /* \"042TestCall.sol\":769:776  success */\n      dup2\n        /* \"042TestCall.sol\":761:785  require(success,\"fail\" ) */\n      tag_40\n      jumpi\n      mload(0x40)\n      0x08c379a000000000000000000000000000000000000000000000000000000000\n      dup2\n      mstore\n      0x04\n      add\n      tag_41\n      swap1\n      tag_32\n      jump\t// in\n    tag_41:\n      mload(0x40)\n      dup1\n      swap2\n      sub\n      swap1\n      revert\n    tag_40:\n        /* \"042TestCall.sol\":802:807  _data */\n      dup1\n        /* \"042TestCall.sol\":795:799  data */\n      0x00\n        /* \"042TestCall.sol\":795:807  data = _data */\n      swap1\n      dup2\n      tag_42\n      swap2\n      swap1\n      tag_43\n      jump\t// in\n    tag_42:\n      pop\n        /* \"042TestCall.sol\":616:814  {... */\n      pop\n      pop\n        /* \"042TestCall.sol\":567:814  function callFoo(address _test) external payable {... */\n      pop\n      jump\t// out\n        /* \"#utility.yul\":7:105   */\n    tag_44:\n        /* \"#utility.yul\":58:64   */\n      0x00\n        /* \"#utility.yul\":92:97   */\n      dup2\n        /* \"#utility.yul\":86:98   */\n      mload\n        /* \"#utility.yul\":76:98   */\n      swap1\n      pop\n        /* \"#utility.yul\":7:105   */\n      swap2\n      swap1\n      pop\n      jump\t// out\n        /* \"#utility.yul\":111:279   */\n    tag_45:\n        /* \"#utility.yul\":194:205   */\n      0x00\n        /* \"#utility.yul\":228:234   */\n      dup3\n        /* \"#utility.yul\":223:226   */\n      dup3\n        /* \"#utility.yul\":216:235   */\n      mstore\n        /* \"#utility.yul\":268:272   */\n      0x20\n        /* \"#utility.yul\":263:266   */\n      dup3\n        /* \"#utility.yul\":259:273   */\n      add\n        /* \"#utility.yul\":244:273   */\n      swap1\n      pop\n        /* \"#utility.yul\":111:279   */\n      swap3\n      swap2\n      pop\n      pop\n      jump\t// out\n        /* \"#utility.yul\":285:424   */\n    tag_46:\n        /* \"#utility.yul\":374:380   */\n      dup3\n        /* \"#utility.yul\":369:372   */\n      dup2\n        /* \"#utility.yul\":364:367   */\n      dup4\n        /* \"#utility.yul\":358:381   */\n      mcopy\n        /* \"#utility.yul\":415:416   */\n      0x00\n        /* \"#utility.yul\":406:412   */\n      dup4\n        /* \"#utility.yul\":401:404   */\n      dup4\n        /* \"#utility.yul\":397:413   */\n      add\n        /* \"#utility.yul\":390:417   */\n      mstore\n        /* \"#utility.yul\":285:424   */\n      pop\n      pop\n      pop\n      jump\t// out\n        /* \"#utility.yul\":430:532   */\n    tag_47:\n        /* \"#utility.yul\":471:477   */\n      0x00\n        /* \"#utility.yul\":522:524   */\n      0x1f\n        /* \"#utility.yul\":518:525   */\n      not\n        /* \"#utility.yul\":513:515   */\n      0x1f\n        /* \"#utility.yul\":506:511   */\n      dup4\n        /* \"#utility.yul\":502:516   */\n      add\n        /* \"#utility.yul\":498:526   */\n      and\n        /* \"#utility.yul\":488:526   */\n      swap1\n      pop\n        /* \"#utility.yul\":430:532   */\n      swap2\n      swap1\n      pop\n      jump\t// out\n        /* \"#utility.yul\":538:911   */\n    tag_48:\n        /* \"#utility.yul\":624:627   */\n      0x00\n        /* \"#utility.yul\":652:690   */\n      tag_91\n        /* \"#utility.yul\":684:689   */\n      dup3\n        /* \"#utility.yul\":652:690   */\n      tag_44\n      jump\t// in\n    tag_91:\n        /* \"#utility.yul\":706:776   */\n      tag_92\n        /* \"#utility.yul\":769:775   */\n      dup2\n        /* \"#utility.yul\":764:767   */\n      dup6\n        /* \"#utility.yul\":706:776   */\n      tag_45\n      jump\t// in\n    tag_92:\n        /* \"#utility.yul\":699:776   */\n      swap4\n      pop\n        /* \"#utility.yul\":785:850   */\n      tag_93\n        /* \"#utility.yul\":843:849   */\n      dup2\n        /* \"#utility.yul\":838:841   */\n      dup6\n        /* \"#utility.yul\":831:835   */\n      0x20\n        /* \"#utility.yul\":824:829   */\n      dup7\n        /* \"#utility.yul\":820:836   */\n      add\n        /* \"#utility.yul\":785:850   */\n      tag_46\n      jump\t// in\n    tag_93:\n        /* \"#utility.yul\":875:904   */\n      tag_94\n        /* \"#utility.yul\":897:903   */\n      dup2\n        /* \"#utility.yul\":875:904   */\n      tag_47\n      jump\t// in\n    tag_94:\n        /* \"#utility.yul\":870:873   */\n      dup5\n        /* \"#utility.yul\":866:905   */\n      add\n        /* \"#utility.yul\":859:905   */\n      swap2\n      pop\n        /* \"#utility.yul\":628:911   */\n      pop\n        /* \"#utility.yul\":538:911   */\n      swap3\n      swap2\n      pop\n      pop\n      jump\t// out\n        /* \"#utility.yul\":917:1226   */\n    tag_9:\n        /* \"#utility.yul\":1028:1032   */\n      0x00\n        /* \"#utility.yul\":1066:1068   */\n      0x20\n        /* \"#utility.yul\":1055:1064   */\n      dup3\n        /* \"#utility.yul\":1051:1069   */\n      add\n        /* \"#utility.yul\":1043:1069   */\n      swap1\n      pop\n        /* \"#utility.yul\":1115:1124   */\n      dup2\n        /* \"#utility.yul\":1109:1113   */\n      dup2\n        /* \"#utility.yul\":1105:1125   */\n      sub\n        /* \"#utility.yul\":1101:1102   */\n      0x00\n        /* \"#utility.yul\":1090:1099   */\n      dup4\n        /* \"#utility.yul\":1086:1103   */\n      add\n        /* \"#utility.yul\":1079:1126   */\n      mstore\n        /* \"#utility.yul\":1143:1219   */\n      tag_96\n        /* \"#utility.yul\":1214:1218   */\n      dup2\n        /* \"#utility.yul\":1205:1211   */\n      dup5\n        /* \"#utility.yul\":1143:1219   */\n      tag_48\n      jump\t// in\n    tag_96:\n        /* \"#utility.yul\":1135:1219   */\n      swap1\n      pop\n        /* \"#utility.yul\":917:1226   */\n      swap3\n      swap2\n      pop\n      pop\n      jump\t// out\n        /* \"#utility.yul\":1313:1430   */\n    tag_50:\n        /* \"#utility.yul\":1422:1423   */\n      0x00\n        /* \"#utility.yul\":1419:1420   */\n      dup1\n        /* \"#utility.yul\":1412:1424   */\n      revert\n        /* \"#utility.yul\":1559:1685   */\n    tag_52:\n        /* \"#utility.yul\":1596:1603   */\n      0x00\n        /* \"#utility.yul\":1636:1678   */\n      0xffffffffffffffffffffffffffffffffffffffff\n        /* \"#utility.yul\":1629:1634   */\n      dup3\n        /* \"#utility.yul\":1625:1679   */\n      and\n        /* \"#utility.yul\":1614:1679   */\n      swap1\n      pop\n        /* \"#utility.yul\":1559:1685   */\n      swap2\n      swap1\n      pop\n      jump\t// out\n        /* \"#utility.yul\":1691:1787   */\n    tag_53:\n        /* \"#utility.yul\":1728:1735   */\n      0x00\n        /* \"#utility.yul\":1757:1781   */\n      tag_102\n        /* \"#utility.yul\":1775:1780   */\n      dup3\n        /* \"#utility.yul\":1757:1781   */\n      tag_52\n      jump\t// in\n    tag_102:\n        /* \"#utility.yul\":1746:1781   */\n      swap1\n      pop\n        /* \"#utility.yul\":1691:1787   */\n      swap2\n      swap1\n      pop\n      jump\t// out\n        /* \"#utility.yul\":1793:1915   */\n    tag_54:\n        /* \"#utility.yul\":1866:1890   */\n      tag_104\n        /* \"#utility.yul\":1884:1889   */\n      dup2\n        /* \"#utility.yul\":1866:1890   */\n      tag_53\n      jump\t// in\n    tag_104:\n        /* \"#utility.yul\":1859:1864   */\n      dup2\n        /* \"#utility.yul\":1856:1891   */\n      eq\n        /* \"#utility.yul\":1846:1909   */\n      tag_105\n      jumpi\n        /* \"#utility.yul\":1905:1906   */\n      0x00\n        /* \"#utility.yul\":1902:1903   */\n      dup1\n        /* \"#utility.yul\":1895:1907   */\n      revert\n        /* \"#utility.yul\":1846:1909   */\n    tag_105:\n        /* \"#utility.yul\":1793:1915   */\n      pop\n      jump\t// out\n        /* \"#utility.yul\":1921:2060   */\n    tag_55:\n        /* \"#utility.yul\":1967:1972   */\n      0x00\n        /* \"#utility.yul\":2005:2011   */\n      dup2\n        /* \"#utility.yul\":1992:2012   */\n      calldataload\n        /* \"#utility.yul\":1983:2012   */\n      swap1\n      pop\n        /* \"#utility.yul\":2021:2054   */\n      tag_107\n        /* \"#utility.yul\":2048:2053   */\n      dup2\n        /* \"#utility.yul\":2021:2054   */\n      tag_54\n      jump\t// in\n    tag_107:\n        /* \"#utility.yul\":1921:2060   */\n      swap3\n      swap2\n      pop\n      pop\n      jump\t// out\n        /* \"#utility.yul\":2066:2395   */\n    tag_13:\n        /* \"#utility.yul\":2125:2131   */\n      0x00\n        /* \"#utility.yul\":2174:2176   */\n      0x20\n        /* \"#utility.yul\":2162:2171   */\n      dup3\n        /* \"#utility.yul\":2153:2160   */\n      dup5\n        /* \"#utility.yul\":2149:2172   */\n      sub\n        /* \"#utility.yul\":2145:2177   */\n      slt\n        /* \"#utility.yul\":2142:2261   */\n      iszero\n      tag_109\n      jumpi\n        /* \"#utility.yul\":2180:2259   */\n      tag_110\n      tag_50\n      jump\t// in\n    tag_110:\n        /* \"#utility.yul\":2142:2261   */\n    tag_109:\n        /* \"#utility.yul\":2300:2301   */\n      0x00\n        /* \"#utility.yul\":2325:2378   */\n      tag_111\n        /* \"#utility.yul\":2370:2377   */\n      dup5\n        /* \"#utility.yul\":2361:2367   */\n      dup3\n        /* \"#utility.yul\":2350:2359   */\n      dup6\n        /* \"#utility.yul\":2346:2368   */\n      add\n        /* \"#utility.yul\":2325:2378   */\n      tag_55\n      jump\t// in\n    tag_111:\n        /* \"#utility.yul\":2315:2378   */\n      swap2\n      pop\n        /* \"#utility.yul\":2271:2388   */\n      pop\n        /* \"#utility.yul\":2066:2395   */\n      swap3\n      swap2\n      pop\n      pop\n      jump\t// out\n        /* \"#utility.yul\":2401:2581   */\n    tag_56:\n        /* \"#utility.yul\":2449:2526   */\n      0x4e487b7100000000000000000000000000000000000000000000000000000000\n        /* \"#utility.yul\":2446:2447   */\n      0x00\n        /* \"#utility.yul\":2439:2527   */\n      mstore\n        /* \"#utility.yul\":2546:2550   */\n      0x22\n        /* \"#utility.yul\":2543:2544   */\n      0x04\n        /* \"#utility.yul\":2536:2551   */\n      mstore\n        /* \"#utility.yul\":2570:2574   */\n      0x24\n        /* \"#utility.yul\":2567:2568   */\n      0x00\n        /* \"#utility.yul\":2560:2575   */\n      revert\n        /* \"#utility.yul\":2587:2907   */\n    tag_19:\n        /* \"#utility.yul\":2631:2637   */\n      0x00\n        /* \"#utility.yul\":2668:2669   */\n      0x02\n        /* \"#utility.yul\":2662:2666   */\n      dup3\n        /* \"#utility.yul\":2658:2670   */\n      div\n        /* \"#utility.yul\":2648:2670   */\n      swap1\n      pop\n        /* \"#utility.yul\":2715:2716   */\n      0x01\n        /* \"#utility.yul\":2709:2713   */\n      dup3\n        /* \"#utility.yul\":2705:2717   */\n      and\n        /* \"#utility.yul\":2736:2754   */\n      dup1\n        /* \"#utility.yul\":2726:2807   */\n      tag_114\n      jumpi\n        /* \"#utility.yul\":2792:2796   */\n      0x7f\n        /* \"#utility.yul\":2784:2790   */\n      dup3\n        /* \"#utility.yul\":2780:2797   */\n      and\n        /* \"#utility.yul\":2770:2797   */\n      swap2\n      pop\n        /* \"#utility.yul\":2726:2807   */\n    tag_114:\n        /* \"#utility.yul\":2854:2856   */\n      0x20\n        /* \"#utility.yul\":2846:2852   */\n      dup3\n        /* \"#utility.yul\":2843:2857   */\n      lt\n        /* \"#utility.yul\":2823:2841   */\n      dup2\n        /* \"#utility.yul\":2820:2858   */\n      sub\n        /* \"#utility.yul\":2817:2901   */\n      tag_115\n      jumpi\n        /* \"#utility.yul\":2873:2891   */\n      tag_116\n      tag_56\n      jump\t// in\n    tag_116:\n        /* \"#utility.yul\":2817:2901   */\n    tag_115:\n        /* \"#utility.yul\":2638:2907   */\n      pop\n        /* \"#utility.yul\":2587:2907   */\n      swap2\n      swap1\n      pop\n      jump\t// out\n        /* \"#utility.yul\":2913:3060   */\n    tag_57:\n        /* \"#utility.yul\":3014:3025   */\n      0x00\n        /* \"#utility.yul\":3051:3054   */\n      dup2\n        /* \"#utility.yul\":3036:3054   */\n      swap1\n      pop\n        /* \"#utility.yul\":2913:3060   */\n      swap3\n      swap2\n      pop\n      pop\n      jump\t// out\n        /* \"#utility.yul\":3066:3452   */\n    tag_58:\n        /* \"#utility.yul\":3170:3173   */\n      0x00\n        /* \"#utility.yul\":3198:3236   */\n      tag_119\n        /* \"#utility.yul\":3230:3235   */\n      dup3\n        /* \"#utility.yul\":3198:3236   */\n      tag_44\n      jump\t// in\n    tag_119:\n        /* \"#utility.yul\":3252:3340   */\n      tag_120\n        /* \"#utility.yul\":3333:3339   */\n      dup2\n        /* \"#utility.yul\":3328:3331   */\n      dup6\n        /* \"#utility.yul\":3252:3340   */\n      tag_57\n      jump\t// in\n    tag_120:\n        /* \"#utility.yul\":3245:3340   */\n      swap4\n      pop\n        /* \"#utility.yul\":3349:3414   */\n      tag_121\n        /* \"#utility.yul\":3407:3413   */\n      dup2\n        /* \"#utility.yul\":3402:3405   */\n      dup6\n        /* \"#utility.yul\":3395:3399   */\n      0x20\n        /* \"#utility.yul\":3388:3393   */\n      dup7\n        /* \"#utility.yul\":3384:3400   */\n      add\n        /* \"#utility.yul\":3349:3414   */\n      tag_46\n      jump\t// in\n    tag_121:\n        /* \"#utility.yul\":3439:3445   */\n      dup1\n        /* \"#utility.yul\":3434:3437   */\n      dup5\n        /* \"#utility.yul\":3430:3446   */\n      add\n        /* \"#utility.yul\":3423:3446   */\n      swap2\n      pop\n        /* \"#utility.yul\":3174:3452   */\n      pop\n        /* \"#utility.yul\":3066:3452   */\n      swap3\n      swap2\n      pop\n      pop\n      jump\t// out\n        /* \"#utility.yul\":3458:3729   */\n    tag_26:\n        /* \"#utility.yul\":3588:3591   */\n      0x00\n        /* \"#utility.yul\":3610:3703   */\n      tag_123\n        /* \"#utility.yul\":3699:3702   */\n      dup3\n        /* \"#utility.yul\":3690:3696   */\n      dup5\n        /* \"#utility.yul\":3610:3703   */\n      tag_58\n      jump\t// in\n    tag_123:\n        /* \"#utility.yul\":3603:3703   */\n      swap2\n      pop\n        /* \"#utility.yul\":3720:3723   */\n      dup2\n        /* \"#utility.yul\":3713:3723   */\n      swap1\n      pop\n        /* \"#utility.yul\":3458:3729   */\n      swap3\n      swap2\n      pop\n      pop\n      jump\t// out\n        /* \"#utility.yul\":3735:3904   */\n    tag_59:\n        /* \"#utility.yul\":3819:3830   */\n      0x00\n        /* \"#utility.yul\":3853:3859   */\n      dup3\n        /* \"#utility.yul\":3848:3851   */\n      dup3\n        /* \"#utility.yul\":3841:3860   */\n      mstore\n        /* \"#utility.yul\":3893:3897   */\n      0x20\n        /* \"#utility.yul\":3888:3891   */\n      dup3\n        /* \"#utility.yul\":3884:3898   */\n      add\n        /* \"#utility.yul\":3869:3898   */\n      swap1\n      pop\n        /* \"#utility.yul\":3735:3904   */\n      swap3\n      swap2\n      pop\n      pop\n      jump\t// out\n        /* \"#utility.yul\":3910:4064   */\n    tag_60:\n        /* \"#utility.yul\":4050:4056   */\n      0x6661696c00000000000000000000000000000000000000000000000000000000\n        /* \"#utility.yul\":4046:4047   */\n      0x00\n        /* \"#utility.yul\":4038:4044   */\n      dup3\n        /* \"#utility.yul\":4034:4048   */\n      add\n        /* \"#utility.yul\":4027:4057   */\n      mstore\n        /* \"#utility.yul\":3910:4064   */\n      pop\n      jump\t// out\n        /* \"#utility.yul\":4070:4435   */\n    tag_61:\n        /* \"#utility.yul\":4212:4215   */\n      0x00\n        /* \"#utility.yul\":4233:4299   */\n      tag_127\n        /* \"#utility.yul\":4297:4298   */\n      0x04\n        /* \"#utility.yul\":4292:4295   */\n      dup4\n        /* \"#utility.yul\":4233:4299   */\n      tag_59\n      jump\t// in\n    tag_127:\n        /* \"#utility.yul\":4226:4299   */\n      swap2\n      pop\n        /* \"#utility.yul\":4308:4401   */\n      tag_128\n        /* \"#utility.yul\":4397:4400   */\n      dup3\n        /* \"#utility.yul\":4308:4401   */\n      tag_60\n      jump\t// in\n    tag_128:\n        /* \"#utility.yul\":4426:4428   */\n      0x20\n        /* \"#utility.yul\":4421:4424   */\n      dup3\n        /* \"#utility.yul\":4417:4429   */\n      add\n        /* \"#utility.yul\":4410:4429   */\n      swap1\n      pop\n        /* \"#utility.yul\":4070:4435   */\n      swap2\n      swap1\n      pop\n      jump\t// out\n        /* \"#utility.yul\":4441:4860   */\n    tag_32:\n        /* \"#utility.yul\":4607:4611   */\n      0x00\n        /* \"#utility.yul\":4645:4647   */\n      0x20\n        /* \"#utility.yul\":4634:4643   */\n      dup3\n        /* \"#utility.yul\":4630:4648   */\n      add\n        /* \"#utility.yul\":4622:4648   */\n      swap1\n      pop\n        /* \"#utility.yul\":4694:4703   */\n      dup2\n        /* \"#utility.yul\":4688:4692   */\n      dup2\n        /* \"#utility.yul\":4684:4704   */\n      sub\n        /* \"#utility.yul\":4680:4681   */\n      0x00\n        /* \"#utility.yul\":4669:4678   */\n      dup4\n        /* \"#utility.yul\":4665:4682   */\n      add\n        /* \"#utility.yul\":4658:4705   */\n      mstore\n        /* \"#utility.yul\":4722:4853   */\n      tag_130\n        /* \"#utility.yul\":4848:4852   */\n      dup2\n        /* \"#utility.yul\":4722:4853   */\n      tag_61\n      jump\t// in\n    tag_130:\n        /* \"#utility.yul\":4714:4853   */\n      swap1\n      pop\n        /* \"#utility.yul\":4441:4860   */\n      swap2\n      swap1\n      pop\n      jump\t// out\n        /* \"#utility.yul\":4866:5024   */\n    tag_62:\n        /* \"#utility.yul\":5006:5016   */\n      0x63616c6c20666f6f000000000000000000000000000000000000000000000000\n        /* \"#utility.yul\":5002:5003   */\n      0x00\n        /* \"#utility.yul\":4994:5000   */\n      dup3\n        /* \"#utility.yul\":4990:5004   */\n      add\n        /* \"#utility.yul\":4983:5017   */\n      mstore\n        /* \"#utility.yul\":4866:5024   */\n      pop\n      jump\t// out\n        /* \"#utility.yul\":5030:5395   */\n    tag_63:\n        /* \"#utility.yul\":5172:5175   */\n      0x00\n        /* \"#utility.yul\":5193:5259   */\n      tag_133\n        /* \"#utility.yul\":5257:5258   */\n      0x08\n        /* \"#utility.yul\":5252:5255   */\n      dup4\n        /* \"#utility.yul\":5193:5259   */\n      tag_59\n      jump\t// in\n    tag_133:\n        /* \"#utility.yul\":5186:5259   */\n      swap2\n      pop\n        /* \"#utility.yul\":5268:5361   */\n      tag_134\n        /* \"#utility.yul\":5357:5360   */\n      dup3\n        /* \"#utility.yul\":5268:5361   */\n      tag_62\n      jump\t// in\n    tag_134:\n        /* \"#utility.yul\":5386:5388   */\n      0x20\n        /* \"#utility.yul\":5381:5384   */\n      dup3\n        /* \"#utility.yul\":5377:5389   */\n      add\n        /* \"#utility.yul\":5370:5389   */\n      swap1\n      pop\n        /* \"#utility.yul\":5030:5395   */\n      swap2\n      swap1\n      pop\n      jump\t// out\n        /* \"#utility.yul\":5401:5488   */\n    tag_64:\n        /* \"#utility.yul\":5448:5455   */\n      0x00\n        /* \"#utility.yul\":5477:5482   */\n      dup2\n        /* \"#utility.yul\":5466:5482   */\n      swap1\n      pop\n        /* \"#utility.yul\":5401:5488   */\n      swap2\n      swap1\n      pop\n      jump\t// out\n        /* \"#utility.yul\":5494:5580   */\n    tag_65:\n        /* \"#utility.yul\":5529:5536   */\n      0x00\n        /* \"#utility.yul\":5569:5573   */\n      0xff\n        /* \"#utility.yul\":5562:5567   */\n      dup3\n        /* \"#utility.yul\":5558:5574   */\n      and\n        /* \"#utility.yul\":5547:5574   */\n      swap1\n      pop\n        /* \"#utility.yul\":5494:5580   */\n      swap2\n      swap1\n      pop\n      jump\t// out\n        /* \"#utility.yul\":5586:5646   */\n    tag_66:\n        /* \"#utility.yul\":5614:5617   */\n      0x00\n        /* \"#utility.yul\":5635:5640   */\n      dup2\n        /* \"#utility.yul\":5628:5640   */\n      swap1\n      pop\n        /* \"#utility.yul\":5586:5646   */\n      swap2\n      swap1\n      pop\n      jump\t// out\n        /* \"#utility.yul\":5652:5810   */\n    tag_67:\n        /* \"#utility.yul\":5710:5719   */\n      0x00\n        /* \"#utility.yul\":5743:5804   */\n      tag_139\n        /* \"#utility.yul\":5759:5803   */\n      tag_140\n        /* \"#utility.yul\":5768:5802   */\n      tag_141\n        /* \"#utility.yul\":5796:5801   */\n      dup5\n        /* \"#utility.yul\":5768:5802   */\n      tag_64\n      jump\t// in\n    tag_141:\n        /* \"#utility.yul\":5759:5803   */\n      tag_66\n      jump\t// in\n    tag_140:\n        /* \"#utility.yul\":5743:5804   */\n      tag_65\n      jump\t// in\n    tag_139:\n        /* \"#utility.yul\":5730:5804   */\n      swap1\n      pop\n        /* \"#utility.yul\":5652:5810   */\n      swap2\n      swap1\n      pop\n      jump\t// out\n        /* \"#utility.yul\":5816:5963   */\n    tag_68:\n        /* \"#utility.yul\":5911:5956   */\n      tag_143\n        /* \"#utility.yul\":5950:5955   */\n      dup2\n        /* \"#utility.yul\":5911:5956   */\n      tag_67\n      jump\t// in\n    tag_143:\n        /* \"#utility.yul\":5906:5909   */\n      dup3\n        /* \"#utility.yul\":5899:5957   */\n      mstore\n        /* \"#utility.yul\":5816:5963   */\n      pop\n      pop\n      jump\t// out\n        /* \"#utility.yul\":5969:6514   */\n    tag_35:\n        /* \"#utility.yul\":6171:6175   */\n      0x00\n        /* \"#utility.yul\":6209:6211   */\n      0x40\n        /* \"#utility.yul\":6198:6207   */\n      dup3\n        /* \"#utility.yul\":6194:6212   */\n      add\n        /* \"#utility.yul\":6186:6212   */\n      swap1\n      pop\n        /* \"#utility.yul\":6258:6267   */\n      dup2\n        /* \"#utility.yul\":6252:6256   */\n      dup2\n        /* \"#utility.yul\":6248:6268   */\n      sub\n        /* \"#utility.yul\":6244:6245   */\n      0x00\n        /* \"#utility.yul\":6233:6242   */\n      dup4\n        /* \"#utility.yul\":6229:6246   */\n      add\n        /* \"#utility.yul\":6222:6269   */\n      mstore\n        /* \"#utility.yul\":6286:6417   */\n      tag_145\n        /* \"#utility.yul\":6412:6416   */\n      dup2\n        /* \"#utility.yul\":6286:6417   */\n      tag_63\n      jump\t// in\n    tag_145:\n        /* \"#utility.yul\":6278:6417   */\n      swap1\n      pop\n        /* \"#utility.yul\":6427:6507   */\n      tag_146\n        /* \"#utility.yul\":6503:6505   */\n      0x20\n        /* \"#utility.yul\":6492:6501   */\n      dup4\n        /* \"#utility.yul\":6488:6506   */\n      add\n        /* \"#utility.yul\":6479:6485   */\n      dup5\n        /* \"#utility.yul\":6427:6507   */\n      tag_68\n      jump\t// in\n    tag_146:\n        /* \"#utility.yul\":5969:6514   */\n      swap3\n      swap2\n      pop\n      pop\n      jump\t// out\n        /* \"#utility.yul\":6520:6700   */\n    tag_69:\n        /* \"#utility.yul\":6568:6645   */\n      0x4e487b7100000000000000000000000000000000000000000000000000000000\n        /* \"#utility.yul\":6565:6566   */\n      0x00\n        /* \"#utility.yul\":6558:6646   */\n      mstore\n        /* \"#utility.yul\":6665:6669   */\n      0x41\n        /* \"#utility.yul\":6662:6663   */\n      0x04\n        /* \"#utility.yul\":6655:6670   */\n      mstore\n        /* \"#utility.yul\":6689:6693   */\n      0x24\n        /* \"#utility.yul\":6686:6687   */\n      0x00\n        /* \"#utility.yul\":6679:6694   */\n      revert\n        /* \"#utility.yul\":6706:6846   */\n    tag_70:\n        /* \"#utility.yul\":6754:6758   */\n      0x00\n        /* \"#utility.yul\":6777:6780   */\n      dup2\n        /* \"#utility.yul\":6769:6780   */\n      swap1\n      pop\n        /* \"#utility.yul\":6800:6803   */\n      dup2\n        /* \"#utility.yul\":6797:6798   */\n      0x00\n        /* \"#utility.yul\":6790:6804   */\n      mstore\n        /* \"#utility.yul\":6834:6838   */\n      0x20\n        /* \"#utility.yul\":6831:6832   */\n      0x00\n        /* \"#utility.yul\":6821:6839   */\n      keccak256\n        /* \"#utility.yul\":6813:6839   */\n      swap1\n      pop\n        /* \"#utility.yul\":6706:6846   */\n      swap2\n      swap1\n      pop\n      jump\t// out\n        /* \"#utility.yul\":6852:6945   */\n    tag_71:\n        /* \"#utility.yul\":6889:6895   */\n      0x00\n        /* \"#utility.yul\":6936:6938   */\n      0x20\n        /* \"#utility.yul\":6931:6933   */\n      0x1f\n        /* \"#utility.yul\":6924:6929   */\n      dup4\n        /* \"#utility.yul\":6920:6934   */\n      add\n        /* \"#utility.yul\":6916:6939   */\n      div\n        /* \"#utility.yul\":6906:6939   */\n      swap1\n      pop\n        /* \"#utility.yul\":6852:6945   */\n      swap2\n      swap1\n      pop\n      jump\t// out\n        /* \"#utility.yul\":6951:7058   */\n    tag_72:\n        /* \"#utility.yul\":6995:7003   */\n      0x00\n        /* \"#utility.yul\":7045:7050   */\n      dup3\n        /* \"#utility.yul\":7039:7043   */\n      dup3\n        /* \"#utility.yul\":7035:7051   */\n      shl\n        /* \"#utility.yul\":7014:7051   */\n      swap1\n      pop\n        /* \"#utility.yul\":6951:7058   */\n      swap3\n      swap2\n      pop\n      pop\n      jump\t// out\n        /* \"#utility.yul\":7064:7457   */\n    tag_73:\n        /* \"#utility.yul\":7133:7139   */\n      0x00\n        /* \"#utility.yul\":7183:7184   */\n      0x08\n        /* \"#utility.yul\":7171:7181   */\n      dup4\n        /* \"#utility.yul\":7167:7185   */\n      mul\n        /* \"#utility.yul\":7206:7303   */\n      tag_152\n        /* \"#utility.yul\":7236:7302   */\n      0xffffffffffffffffffffffffffffffffffffffffffffffffffffffffffffffff\n        /* \"#utility.yul\":7225:7234   */\n      dup3\n        /* \"#utility.yul\":7206:7303   */\n      tag_72\n      jump\t// in\n    tag_152:\n        /* \"#utility.yul\":7324:7363   */\n      tag_153\n        /* \"#utility.yul\":7354:7362   */\n      dup7\n        /* \"#utility.yul\":7343:7352   */\n      dup4\n        /* \"#utility.yul\":7324:7363   */\n      tag_72\n      jump\t// in\n    tag_153:\n        /* \"#utility.yul\":7312:7363   */\n      swap6\n      pop\n        /* \"#utility.yul\":7396:7400   */\n      dup1\n        /* \"#utility.yul\":7392:7401   */\n      not\n        /* \"#utility.yul\":7385:7390   */\n      dup5\n        /* \"#utility.yul\":7381:7402   */\n      and\n        /* \"#utility.yul\":7372:7402   */\n      swap4\n      pop\n        /* \"#utility.yul\":7445:7449   */\n      dup1\n        /* \"#utility.yul\":7435:7443   */\n      dup7\n        /* \"#utility.yul\":7431:7450   */\n      and\n        /* \"#utility.yul\":7424:7429   */\n      dup5\n        /* \"#utility.yul\":7421:7451   */\n      or\n        /* \"#utility.yul\":7411:7451   */\n      swap3\n      pop\n        /* \"#utility.yul\":7140:7457   */\n      pop\n      pop\n        /* \"#utility.yul\":7064:7457   */\n      swap4\n      swap3\n      pop\n      pop\n      pop\n      jump\t// out\n        /* \"#utility.yul\":7463:7540   */\n    tag_74:\n        /* \"#utility.yul\":7500:7507   */\n      0x00\n        /* \"#utility.yul\":7529:7534   */\n      dup2\n        /* \"#utility.yul\":7518:7534   */\n      swap1\n      pop\n        /* \"#utility.yul\":7463:7540   */\n      swap2\n      swap1\n      pop\n      jump\t// out\n        /* \"#utility.yul\":7546:7688   */\n    tag_75:\n        /* \"#utility.yul\":7596:7605   */\n      0x00\n        /* \"#utility.yul\":7629:7682   */\n      tag_156\n        /* \"#utility.yul\":7647:7681   */\n      tag_157\n        /* \"#utility.yul\":7656:7680   */\n      tag_158\n        /* \"#utility.yul\":7674:7679   */\n      dup5\n        /* \"#utility.yul\":7656:7680   */\n      tag_74\n      jump\t// in\n    tag_158:\n        /* \"#utility.yul\":7647:7681   */\n      tag_66\n      jump\t// in\n    tag_157:\n        /* \"#utility.yul\":7629:7682   */\n      tag_74\n      jump\t// in\n    tag_156:\n        /* \"#utility.yul\":7616:7682   */\n      swap1\n      pop\n        /* \"#utility.yul\":7546:7688   */\n      swap2\n      swap1\n      pop\n      jump\t// out\n        /* \"#utility.yul\":7694:7769   */\n    tag_76:\n        /* \"#utility.yul\":7737:7740   */\n      0x00\n        /* \"#utility.yul\":7758:7763   */\n      dup2\n        /* \"#utility.yul\":7751:7763   */\n      swap1\n      pop\n        /* \"#utility.yul\":7694:7769   */\n      swap2\n      swap1\n      pop\n      jump\t// out\n        /* \"#utility.yul\":7775:8044   */\n    tag_77:\n        /* \"#utility.yul\":7885:7924   */\n      tag_161\n        /* \"#utility.yul\":7916:7923   */\n      dup4\n        /* \"#utility.yul\":7885:7924   */\n      tag_75\n      jump\t// in\n    tag_161:\n        /* \"#utility.yul\":7946:8037   */\n      tag_162\n        /* \"#utility.yul\":7995:8036   */\n      tag_163\n        /* \"#utility.yul\":8019:8035   */\n      dup3\n        /* \"#utility.yul\":7995:8036   */\n      tag_76\n      jump\t// in\n    tag_163:\n        /* \"#utility.yul\":7987:7993   */\n      dup5\n        /* \"#utility.yul\":7980:7984   */\n      dup5\n        /* \"#utility.yul\":7974:7985   */\n      sload\n        /* \"#utility.yul\":7946:8037   */\n      tag_73\n      jump\t// in\n    tag_162:\n        /* \"#utility.yul\":7940:7944   */\n      dup3\n        /* \"#utility.yul\":7933:8038   */\n      sstore\n        /* \"#utility.yul\":7851:8044   */\n      pop\n        /* \"#utility.yul\":7775:8044   */\n      pop\n      pop\n      pop\n      jump\t// out\n        /* \"#utility.yul\":8050:8123   */\n    tag_78:\n        /* \"#utility.yul\":8095:8098   */\n      0x00\n        /* \"#utility.yul\":8050:8123   */\n      swap1\n      jump\t// out\n        /* \"#utility.yul\":8129:8318   */\n    tag_79:\n        /* \"#utility.yul\":8206:8238   */\n      tag_166\n      tag_78\n      jump\t// in\n    tag_166:\n        /* \"#utility.yul\":8247:8312   */\n      tag_167\n        /* \"#utility.yul\":8305:8311   */\n      dup2\n        /* \"#utility.yul\":8297:8303   */\n      dup5\n        /* \"#utility.yul\":8291:8295   */\n      dup5\n        /* \"#utility.yul\":8247:8312   */\n      tag_77\n      jump\t// in\n    tag_167:\n        /* \"#utility.yul\":8182:8318   */\n      pop\n        /* \"#utility.yul\":8129:8318   */\n      pop\n      pop\n      jump\t// out\n        /* \"#utility.yul\":8324:8510   */\n    tag_80:\n        /* \"#utility.yul\":8384:8504   */\n    tag_169:\n        /* \"#utility.yul\":8401:8404   */\n      dup2\n        /* \"#utility.yul\":8394:8399   */\n      dup2\n        /* \"#utility.yul\":8391:8405   */\n      lt\n        /* \"#utility.yul\":8384:8504   */\n      iszero\n      tag_171\n      jumpi\n        /* \"#utility.yul\":8455:8494   */\n      tag_172\n        /* \"#utility.yul\":8492:8493   */\n      0x00\n        /* \"#utility.yul\":8485:8490   */\n      dup3\n        /* \"#utility.yul\":8455:8494   */\n      tag_79\n      jump\t// in\n    tag_172:\n        /* \"#utility.yul\":8428:8429   */\n      0x01\n        /* \"#utility.yul\":8421:8426   */\n      dup2\n        /* \"#utility.yul\":8417:8430   */\n      add\n        /* \"#utility.yul\":8408:8430   */\n      swap1\n      pop\n        /* \"#utility.yul\":8384:8504   */\n      jump(tag_169)\n    tag_171:\n        /* \"#utility.yul\":8324:8510   */\n      pop\n      pop\n      jump\t// out\n        /* \"#utility.yul\":8516:9057   */\n    tag_81:\n        /* \"#utility.yul\":8616:8618   */\n      0x1f\n        /* \"#utility.yul\":8611:8614   */\n      dup3\n        /* \"#utility.yul\":8608:8619   */\n      gt\n        /* \"#utility.yul\":8605:9050   */\n      iszero\n      tag_174\n      jumpi\n        /* \"#utility.yul\":8650:8687   */\n      tag_175\n        /* \"#utility.yul\":8681:8686   */\n      dup2\n        /* \"#utility.yul\":8650:8687   */\n      tag_70\n      jump\t// in\n    tag_175:\n        /* \"#utility.yul\":8733:8762   */\n      tag_176\n        /* \"#utility.yul\":8751:8761   */\n      dup5\n        /* \"#utility.yul\":8733:8762   */\n      tag_71\n      jump\t// in\n    tag_176:\n        /* \"#utility.yul\":8723:8731   */\n      dup2\n        /* \"#utility.yul\":8719:8763   */\n      add\n        /* \"#utility.yul\":8916:8918   */\n      0x20\n        /* \"#utility.yul\":8904:8914   */\n      dup6\n        /* \"#utility.yul\":8901:8919   */\n      lt\n        /* \"#utility.yul\":8898:8947   */\n      iszero\n      tag_177\n      jumpi\n        /* \"#utility.yul\":8937:8945   */\n      dup2\n        /* \"#utility.yul\":8922:8945   */\n      swap1\n      pop\n        /* \"#utility.yul\":8898:8947   */\n    tag_177:\n        /* \"#utility.yul\":8960:9040   */\n      tag_178\n        /* \"#utility.yul\":9016:9038   */\n      tag_179\n        /* \"#utility.yul\":9034:9037   */\n      dup6\n        /* \"#utility.yul\":9016:9038   */\n      tag_71\n      jump\t// in\n    tag_179:\n        /* \"#utility.yul\":9006:9014   */\n      dup4\n        /* \"#utility.yul\":9002:9039   */\n      add\n        /* \"#utility.yul\":8989:9000   */\n      dup3\n        /* \"#utility.yul\":8960:9040   */\n      tag_80\n      jump\t// in\n    tag_178:\n        /* \"#utility.yul\":8620:9050   */\n      pop\n      pop\n        /* \"#utility.yul\":8605:9050   */\n    tag_174:\n        /* \"#utility.yul\":8516:9057   */\n      pop\n      pop\n      pop\n      jump\t// out\n        /* \"#utility.yul\":9063:9180   */\n    tag_82:\n        /* \"#utility.yul\":9117:9125   */\n      0x00\n        /* \"#utility.yul\":9167:9172   */\n      dup3\n        /* \"#utility.yul\":9161:9165   */\n      dup3\n        /* \"#utility.yul\":9157:9173   */\n      shr\n        /* \"#utility.yul\":9136:9173   */\n      swap1\n      pop\n        /* \"#utility.yul\":9063:9180   */\n      swap3\n      swap2\n      pop\n      pop\n      jump\t// out\n        /* \"#utility.yul\":9186:9355   */\n    tag_83:\n        /* \"#utility.yul\":9230:9236   */\n      0x00\n        /* \"#utility.yul\":9263:9314   */\n      tag_182\n        /* \"#utility.yul\":9311:9312   */\n      0x00\n        /* \"#utility.yul\":9307:9313   */\n      not\n        /* \"#utility.yul\":9299:9304   */\n      dup5\n        /* \"#utility.yul\":9296:9297   */\n      0x08\n        /* \"#utility.yul\":9292:9305   */\n      mul\n        /* \"#utility.yul\":9263:9314   */\n      tag_82\n      jump\t// in\n    tag_182:\n        /* \"#utility.yul\":9259:9315   */\n      not\n        /* \"#utility.yul\":9344:9348   */\n      dup1\n        /* \"#utility.yul\":9338:9342   */\n      dup4\n        /* \"#utility.yul\":9334:9349   */\n      and\n        /* \"#utility.yul\":9324:9349   */\n      swap2\n      pop\n        /* \"#utility.yul\":9237:9355   */\n      pop\n        /* \"#utility.yul\":9186:9355   */\n      swap3\n      swap2\n      pop\n      pop\n      jump\t// out\n        /* \"#utility.yul\":9360:9655   */\n    tag_84:\n        /* \"#utility.yul\":9436:9440   */\n      0x00\n        /* \"#utility.yul\":9582:9611   */\n      tag_184\n        /* \"#utility.yul\":9607:9610   */\n      dup4\n        /* \"#utility.yul\":9601:9605   */\n      dup4\n        /* \"#utility.yul\":9582:9611   */\n      tag_83\n      jump\t// in\n    tag_184:\n        /* \"#utility.yul\":9574:9611   */\n      swap2\n      pop\n        /* \"#utility.yul\":9644:9647   */\n      dup3\n        /* \"#utility.yul\":9641:9642   */\n      0x02\n        /* \"#utility.yul\":9637:9648   */\n      mul\n        /* \"#utility.yul\":9631:9635   */\n      dup3\n        /* \"#utility.yul\":9628:9649   */\n      or\n        /* \"#utility.yul\":9620:9649   */\n      swap1\n      pop\n        /* \"#utility.yul\":9360:9655   */\n      swap3\n      swap2\n      pop\n      pop\n      jump\t// out\n        /* \"#utility.yul\":9660:11050   */\n    tag_43:\n        /* \"#utility.yul\":9775:9811   */\n      tag_186\n        /* \"#utility.yul\":9807:9810   */\n      dup3\n        /* \"#utility.yul\":9775:9811   */\n      tag_44\n      jump\t// in\n    tag_186:\n        /* \"#utility.yul\":9876:9894   */\n      0xffffffffffffffff\n        /* \"#utility.yul\":9868:9874   */\n      dup2\n        /* \"#utility.yul\":9865:9895   */\n      gt\n        /* \"#utility.yul\":9862:9918   */\n      iszero\n      tag_187\n      jumpi\n        /* \"#utility.yul\":9898:9916   */\n      tag_188\n      tag_69\n      jump\t// in\n    tag_188:\n        /* \"#utility.yul\":9862:9918   */\n    tag_187:\n        /* \"#utility.yul\":9942:9980   */\n      tag_189\n        /* \"#utility.yul\":9974:9978   */\n      dup3\n        /* \"#utility.yul\":9968:9979   */\n      sload\n        /* \"#utility.yul\":9942:9980   */\n      tag_19\n      jump\t// in\n    tag_189:\n        /* \"#utility.yul\":10027:10093   */\n      tag_190\n        /* \"#utility.yul\":10086:10092   */\n      dup3\n        /* \"#utility.yul\":10078:10084   */\n      dup3\n        /* \"#utility.yul\":10072:10076   */\n      dup6\n        /* \"#utility.yul\":10027:10093   */\n      tag_81\n      jump\t// in\n    tag_190:\n        /* \"#utility.yul\":10120:10121   */\n      0x00\n        /* \"#utility.yul\":10144:10148   */\n      0x20\n        /* \"#utility.yul\":10131:10148   */\n      swap1\n      pop\n        /* \"#utility.yul\":10176:10178   */\n      0x1f\n        /* \"#utility.yul\":10168:10174   */\n      dup4\n        /* \"#utility.yul\":10165:10179   */\n      gt\n        /* \"#utility.yul\":10193:10194   */\n      0x01\n        /* \"#utility.yul\":10188:10805   */\n      dup2\n      eq\n      tag_192\n      jumpi\n        /* \"#utility.yul\":10849:10850   */\n      0x00\n        /* \"#utility.yul\":10866:10872   */\n      dup5\n        /* \"#utility.yul\":10863:10940   */\n      iszero\n      tag_193\n      jumpi\n        /* \"#utility.yul\":10915:10924   */\n      dup3\n        /* \"#utility.yul\":10910:10913   */\n      dup8\n        /* \"#utility.yul\":10906:10925   */\n      add\n        /* \"#utility.yul\":10900:10926   */\n      mload\n        /* \"#utility.yul\":10891:10926   */\n      swap1\n      pop\n        /* \"#utility.yul\":10863:10940   */\n    tag_193:\n        /* \"#utility.yul\":10966:11033   */\n      tag_194\n        /* \"#utility.yul\":11026:11032   */\n      dup6\n        /* \"#utility.yul\":11019:11024   */\n      dup3\n        /* \"#utility.yul\":10966:11033   */\n      tag_84\n      jump\t// in\n    tag_194:\n        /* \"#utility.yul\":10960:10964   */\n      dup7\n        /* \"#utility.yul\":10953:11034   */\n      sstore\n        /* \"#utility.yul\":10822:11044   */\n      pop\n        /* \"#utility.yul\":10158:11044   */\n      jump(tag_191)\n        /* \"#utility.yul\":10188:10805   */\n    tag_192:\n        /* \"#utility.yul\":10240:10244   */\n      0x1f\n        /* \"#utility.yul\":10236:10245   */\n      not\n        /* \"#utility.yul\":10228:10234   */\n      dup5\n        /* \"#utility.yul\":10224:10246   */\n      and\n        /* \"#utility.yul\":10274:10310   */\n      tag_195\n        /* \"#utility.yul\":10305:10309   */\n      dup7\n        /* \"#utility.yul\":10274:10310   */\n      tag_70\n      jump\t// in\n    tag_195:\n        /* \"#utility.yul\":10332:10333   */\n      0x00\n        /* \"#utility.yul\":10346:10554   */\n    tag_196:\n        /* \"#utility.yul\":10360:10367   */\n      dup3\n        /* \"#utility.yul\":10357:10358   */\n      dup2\n        /* \"#utility.yul\":10354:10368   */\n      lt\n        /* \"#utility.yul\":10346:10554   */\n      iszero\n      tag_198\n      jumpi\n        /* \"#utility.yul\":10439:10448   */\n      dup5\n        /* \"#utility.yul\":10434:10437   */\n      dup10\n        /* \"#utility.yul\":10430:10449   */\n      add\n        /* \"#utility.yul\":10424:10450   */\n      mload\n        /* \"#utility.yul\":10416:10422   */\n      dup3\n        /* \"#utility.yul\":10409:10451   */\n      sstore\n        /* \"#utility.yul\":10490:10491   */\n      0x01\n        /* \"#utility.yul\":10482:10488   */\n      dup3\n        /* \"#utility.yul\":10478:10492   */\n      add\n        /* \"#utility.yul\":10468:10492   */\n      swap2\n      pop\n        /* \"#utility.yul\":10537:10539   */\n      0x20\n        /* \"#utility.yul\":10526:10535   */\n      dup6\n        /* \"#utility.yul\":10522:10540   */\n      add\n        /* \"#utility.yul\":10509:10540   */\n      swap5\n      pop\n        /* \"#utility.yul\":10383:10387   */\n      0x20\n        /* \"#utility.yul\":10380:10381   */\n      dup2\n        /* \"#utility.yul\":10376:10388   */\n      add\n        /* \"#utility.yul\":10371:10388   */\n      swap1\n      pop\n        /* \"#utility.yul\":10346:10554   */\n      jump(tag_196)\n    tag_198:\n        /* \"#utility.yul\":10582:10588   */\n      dup7\n        /* \"#utility.yul\":10573:10580   */\n      dup4\n        /* \"#utility.yul\":10570:10589   */\n      lt\n        /* \"#utility.yul\":10567:10746   */\n      iszero\n      tag_199\n      jumpi\n        /* \"#utility.yul\":10640:10649   */\n      dup5\n        /* \"#utility.yul\":10635:10638   */\n      dup10\n        /* \"#utility.yul\":10631:10650   */\n      add\n        /* \"#utility.yul\":10625:10651   */\n      mload\n        /* \"#utility.yul\":10683:10731   */\n      tag_200\n        /* \"#utility.yul\":10725:10729   */\n      0x1f\n        /* \"#utility.yul\":10717:10723   */\n      dup10\n        /* \"#utility.yul\":10713:10730   */\n      and\n        /* \"#utility.yul\":10702:10711   */\n      dup3\n        /* \"#utility.yul\":10683:10731   */\n      tag_83\n      jump\t// in\n    tag_200:\n        /* \"#utility.yul\":10675:10681   */\n      dup4\n        /* \"#utility.yul\":10668:10732   */\n      sstore\n        /* \"#utility.yul\":10590:10746   */\n      pop\n        /* \"#utility.yul\":10567:10746   */\n    tag_199:\n        /* \"#utility.yul\":10792:10793   */\n      0x01\n        /* \"#utility.yul\":10788:10789   */\n      0x02\n        /* \"#utility.yul\":10780:10786   */\n      dup9\n        /* \"#utility.yul\":10776:10790   */\n      mul\n        /* \"#utility.yul\":10772:10794   */\n      add\n        /* \"#utility.yul\":10766:10770   */\n      dup9\n        /* \"#utility.yul\":10759:10795   */\n      sstore\n        /* \"#utility.yul\":10195:10805   */\n      pop\n      pop\n      pop\n        /* \"#utility.yul\":10158:11044   */\n    tag_191:\n      pop\n        /* \"#utility.yul\":9750:11050   */\n      pop\n      pop\n      pop\n        /* \"#utility.yul\":9660:11050   */\n      pop\n      pop\n      jump\t// out\n\n    auxdata: 0xa2646970667358221220eaeb477f68133803e2c06ddf502e999a222c97e2db1672a5e300b3ba9f93069964736f6c634300081a0033\n}\n",
				"bytecode": {
					"linkReferences": {},
					"object": "6080604052348015600e575f80fd5b5061097e8061001c5f395ff3fe608060405260043610610033575f3560e01c806373d4a13a14610037578063b11bead414610061578063edcbe76c14610089575b5f80fd5b348015610042575f80fd5b5061004b6100a5565b604051610058919061041d565b60405180910390f35b34801561006c575f80fd5b506100876004803603810190610082919061049b565b610130565b005b6100a3600480360381019061009e919061049b565b61025e565b005b5f80546100b1906104f3565b80601f01602080910402602001604051908101604052809291908181526020018280546100dd906104f3565b80156101285780601f106100ff57610100808354040283529160200191610128565b820191905f5260205f20905b81548152906001019060200180831161010b57829003601f168201915b505050505081565b5f8173ffffffffffffffffffffffffffffffffffffffff166040516024016040516020818303038152906040527fd46fff27000000000000000000000000000000000000000000000000000000007bffffffffffffffffffffffffffffffffffffffffffffffffffffffff19166020820180517bffffffffffffffffffffffffffffffffffffffffffffffffffffffff83818316178352505050506040516101d8919061055d565b5f604051808303815f865af19150503d805f8114610211576040519150601f19603f3d011682016040523d82523d5f602084013e610216565b606091505b505090508061025a576040517f08c379a0000000000000000000000000000000000000000000000000000000008152600401610251906105cd565b60405180910390fd5b5050565b5f808273ffffffffffffffffffffffffffffffffffffffff16606f607b60405160240161028b9190610683565b6040516020818303038152906040527f24ccab8f000000000000000000000000000000000000000000000000000000007bffffffffffffffffffffffffffffffffffffffffffffffffffffffff19166020820180517bffffffffffffffffffffffffffffffffffffffffffffffffffffffff8381831617835250505050604051610315919061055d565b5f6040518083038185875af1925050503d805f811461034f576040519150601f19603f3d011682016040523d82523d5f602084013e610354565b606091505b509150915081610399576040517f08c379a0000000000000000000000000000000000000000000000000000000008152600401610390906105cd565b60405180910390fd5b805f90816103a79190610879565b50505050565b5f81519050919050565b5f82825260208201905092915050565b8281835e5f83830152505050565b5f601f19601f8301169050919050565b5f6103ef826103ad565b6103f981856103b7565b93506104098185602086016103c7565b610412816103d5565b840191505092915050565b5f6020820190508181035f83015261043581846103e5565b905092915050565b5f80fd5b5f73ffffffffffffffffffffffffffffffffffffffff82169050919050565b5f61046a82610441565b9050919050565b61047a81610460565b8114610484575f80fd5b50565b5f8135905061049581610471565b92915050565b5f602082840312156104b0576104af61043d565b5b5f6104bd84828501610487565b91505092915050565b7f4e487b71000000000000000000000000000000000000000000000000000000005f52602260045260245ffd5b5f600282049050600182168061050a57607f821691505b60208210810361051d5761051c6104c6565b5b50919050565b5f81905092915050565b5f610537826103ad565b6105418185610523565b93506105518185602086016103c7565b80840191505092915050565b5f610568828461052d565b915081905092915050565b5f82825260208201905092915050565b7f6661696c000000000000000000000000000000000000000000000000000000005f82015250565b5f6105b7600483610573565b91506105c282610583565b602082019050919050565b5f6020820190508181035f8301526105e4816105ab565b9050919050565b7f63616c6c20666f6f0000000000000000000000000000000000000000000000005f82015250565b5f61061f600883610573565b915061062a826105eb565b602082019050919050565b5f819050919050565b5f60ff82169050919050565b5f819050919050565b5f61066d61066861066384610635565b61064a565b61063e565b9050919050565b61067d81610653565b82525050565b5f6040820190508181035f83015261069a81610613565b90506106a96020830184610674565b92915050565b7f4e487b71000000000000000000000000000000000000000000000000000000005f52604160045260245ffd5b5f819050815f5260205f209050919050565b5f6020601f8301049050919050565b5f82821b905092915050565b5f600883026107387fffffffffffffffffffffffffffffffffffffffffffffffffffffffffffffffff826106fd565b61074286836106fd565b95508019841693508086168417925050509392505050565b5f819050919050565b5f61077d6107786107738461075a565b61064a565b61075a565b9050919050565b5f819050919050565b61079683610763565b6107aa6107a282610784565b848454610709565b825550505050565b5f90565b6107be6107b2565b6107c981848461078d565b505050565b5b818110156107ec576107e15f826107b6565b6001810190506107cf565b5050565b601f82111561083157610802816106dc565b61080b846106ee565b8101602085101561081a578190505b61082e610826856106ee565b8301826107ce565b50505b505050565b5f82821c905092915050565b5f6108515f1984600802610836565b1980831691505092915050565b5f6108698383610842565b9150826002028217905092915050565b610882826103ad565b67ffffffffffffffff81111561089b5761089a6106af565b5b6108a582546104f3565b6108b08282856107f0565b5f60209050601f8311600181146108e1575f84156108cf578287015190505b6108d9858261085e565b865550610940565b601f1984166108ef866106dc565b5f5b82811015610916578489015182556001820191506020850194506020810190506108f1565b86831015610933578489015161092f601f891682610842565b8355505b6001600288020188555050505b50505050505056fea2646970667358221220eaeb477f68133803e2c06ddf502e999a222c97e2db1672a5e300b3ba9f93069964736f6c634300081a0033",
					"opcodes": "PUSH1 0x80 PUSH1 0x40 MSTORE CALLVALUE DUP1 ISZERO PUSH1 0xE JUMPI PUSH0 DUP1 REVERT JUMPDEST POP PUSH2 0x97E DUP1 PUSH2 0x1C PUSH0 CODECOPY PUSH0 RETURN INVALID PUSH1 0x80 PUSH1 0x40 MSTORE PUSH1 0x4 CALLDATASIZE LT PUSH2 0x33 JUMPI PUSH0 CALLDATALOAD PUSH1 0xE0 SHR DUP1 PUSH4 0x73D4A13A EQ PUSH2 0x37 JUMPI DUP1 PUSH4 0xB11BEAD4 EQ PUSH2 0x61 JUMPI DUP1 PUSH4 0xEDCBE76C EQ PUSH2 0x89 JUMPI JUMPDEST PUSH0 DUP1 REVERT JUMPDEST CALLVALUE DUP1 ISZERO PUSH2 0x42 JUMPI PUSH0 DUP1 REVERT JUMPDEST POP PUSH2 0x4B PUSH2 0xA5 JUMP JUMPDEST PUSH1 0x40 MLOAD PUSH2 0x58 SWAP2 SWAP1 PUSH2 0x41D JUMP JUMPDEST PUSH1 0x40 MLOAD DUP1 SWAP2 SUB SWAP1 RETURN JUMPDEST CALLVALUE DUP1 ISZERO PUSH2 0x6C JUMPI PUSH0 DUP1 REVERT JUMPDEST POP PUSH2 0x87 PUSH1 0x4 DUP1 CALLDATASIZE SUB DUP2 ADD SWAP1 PUSH2 0x82 SWAP2 SWAP1 PUSH2 0x49B JUMP JUMPDEST PUSH2 0x130 JUMP JUMPDEST STOP JUMPDEST PUSH2 0xA3 PUSH1 0x4 DUP1 CALLDATASIZE SUB DUP2 ADD SWAP1 PUSH2 0x9E SWAP2 SWAP1 PUSH2 0x49B JUMP JUMPDEST PUSH2 0x25E JUMP JUMPDEST STOP JUMPDEST PUSH0 DUP1 SLOAD PUSH2 0xB1 SWAP1 PUSH2 0x4F3 JUMP JUMPDEST DUP1 PUSH1 0x1F ADD PUSH1 0x20 DUP1 SWAP2 DIV MUL PUSH1 0x20 ADD PUSH1 0x40 MLOAD SWAP1 DUP2 ADD PUSH1 0x40 MSTORE DUP1 SWAP3 SWAP2 SWAP1 DUP2 DUP2 MSTORE PUSH1 0x20 ADD DUP3 DUP1 SLOAD PUSH2 0xDD SWAP1 PUSH2 0x4F3 JUMP JUMPDEST DUP1 ISZERO PUSH2 0x128 JUMPI DUP1 PUSH1 0x1F LT PUSH2 0xFF JUMPI PUSH2 0x100 DUP1 DUP4 SLOAD DIV MUL DUP4 MSTORE SWAP2 PUSH1 0x20 ADD SWAP2 PUSH2 0x128 JUMP JUMPDEST DUP3 ADD SWAP2 SWAP1 PUSH0 MSTORE PUSH1 0x20 PUSH0 KECCAK256 SWAP1 JUMPDEST DUP2 SLOAD DUP2 MSTORE SWAP1 PUSH1 0x1 ADD SWAP1 PUSH1 0x20 ADD DUP1 DUP4 GT PUSH2 0x10B JUMPI DUP3 SWAP1 SUB PUSH1 0x1F AND DUP3 ADD SWAP2 JUMPDEST POP POP POP POP POP DUP2 JUMP JUMPDEST PUSH0 DUP2 PUSH20 0xFFFFFFFFFFFFFFFFFFFFFFFFFFFFFFFFFFFFFFFF AND PUSH1 0x40 MLOAD PUSH1 0x24 ADD PUSH1 0x40 MLOAD PUSH1 0x20 DUP2 DUP4 SUB SUB DUP2 MSTORE SWAP1 PUSH1 0x40 MSTORE PUSH32 0xD46FFF2700000000000000000000000000000000000000000000000000000000 PUSH28 0xFFFFFFFFFFFFFFFFFFFFFFFFFFFFFFFFFFFFFFFFFFFFFFFFFFFFFFFF NOT AND PUSH1 0x20 DUP3 ADD DUP1 MLOAD PUSH28 0xFFFFFFFFFFFFFFFFFFFFFFFFFFFFFFFFFFFFFFFFFFFFFFFFFFFFFFFF DUP4 DUP2 DUP4 AND OR DUP4 MSTORE POP POP POP POP PUSH1 0x40 MLOAD PUSH2 0x1D8 SWAP2 SWAP1 PUSH2 0x55D JUMP JUMPDEST PUSH0 PUSH1 0x40 MLOAD DUP1 DUP4 SUB DUP2 PUSH0 DUP7 GAS CALL SWAP2 POP POP RETURNDATASIZE DUP1 PUSH0 DUP2 EQ PUSH2 0x211 JUMPI PUSH1 0x40 MLOAD SWAP2 POP PUSH1 0x1F NOT PUSH1 0x3F RETURNDATASIZE ADD AND DUP3 ADD PUSH1 0x40 MSTORE RETURNDATASIZE DUP3 MSTORE RETURNDATASIZE PUSH0 PUSH1 0x20 DUP5 ADD RETURNDATACOPY PUSH2 0x216 JUMP JUMPDEST PUSH1 0x60 SWAP2 POP JUMPDEST POP POP SWAP1 POP DUP1 PUSH2 0x25A JUMPI PUSH1 0x40 MLOAD PUSH32 0x8C379A000000000000000000000000000000000000000000000000000000000 DUP2 MSTORE PUSH1 0x4 ADD PUSH2 0x251 SWAP1 PUSH2 0x5CD JUMP JUMPDEST PUSH1 0x40 MLOAD DUP1 SWAP2 SUB SWAP1 REVERT JUMPDEST POP POP JUMP JUMPDEST PUSH0 DUP1 DUP3 PUSH20 0xFFFFFFFFFFFFFFFFFFFFFFFFFFFFFFFFFFFFFFFF AND PUSH1 0x6F PUSH1 0x7B PUSH1 0x40 MLOAD PUSH1 0x24 ADD PUSH2 0x28B SWAP2 SWAP1 PUSH2 0x683 JUMP JUMPDEST PUSH1 0x40 MLOAD PUSH1 0x20 DUP2 DUP4 SUB SUB DUP2 MSTORE SWAP1 PUSH1 0x40 MSTORE PUSH32 0x24CCAB8F00000000000000000000000000000000000000000000000000000000 PUSH28 0xFFFFFFFFFFFFFFFFFFFFFFFFFFFFFFFFFFFFFFFFFFFFFFFFFFFFFFFF NOT AND PUSH1 0x20 DUP3 ADD DUP1 MLOAD PUSH28 0xFFFFFFFFFFFFFFFFFFFFFFFFFFFFFFFFFFFFFFFFFFFFFFFFFFFFFFFF DUP4 DUP2 DUP4 AND OR DUP4 MSTORE POP POP POP POP PUSH1 0x40 MLOAD PUSH2 0x315 SWAP2 SWAP1 PUSH2 0x55D JUMP JUMPDEST PUSH0 PUSH1 0x40 MLOAD DUP1 DUP4 SUB DUP2 DUP6 DUP8 GAS CALL SWAP3 POP POP POP RETURNDATASIZE DUP1 PUSH0 DUP2 EQ PUSH2 0x34F JUMPI PUSH1 0x40 MLOAD SWAP2 POP PUSH1 0x1F NOT PUSH1 0x3F RETURNDATASIZE ADD AND DUP3 ADD PUSH1 0x40 MSTORE RETURNDATASIZE DUP3 MSTORE RETURNDATASIZE PUSH0 PUSH1 0x20 DUP5 ADD RETURNDATACOPY PUSH2 0x354 JUMP JUMPDEST PUSH1 0x60 SWAP2 POP JUMPDEST POP SWAP2 POP SWAP2 POP DUP2 PUSH2 0x399 JUMPI PUSH1 0x40 MLOAD PUSH32 0x8C379A000000000000000000000000000000000000000000000000000000000 DUP2 MSTORE PUSH1 0x4 ADD PUSH2 0x390 SWAP1 PUSH2 0x5CD JUMP JUMPDEST PUSH1 0x40 MLOAD DUP1 SWAP2 SUB SWAP1 REVERT JUMPDEST DUP1 PUSH0 SWAP1 DUP2 PUSH2 0x3A7 SWAP2 SWAP1 PUSH2 0x879 JUMP JUMPDEST POP POP POP POP JUMP JUMPDEST PUSH0 DUP2 MLOAD SWAP1 POP SWAP2 SWAP1 POP JUMP JUMPDEST PUSH0 DUP3 DUP3 MSTORE PUSH1 0x20 DUP3 ADD SWAP1 POP SWAP3 SWAP2 POP POP JUMP JUMPDEST DUP3 DUP2 DUP4 MCOPY PUSH0 DUP4 DUP4 ADD MSTORE POP POP POP JUMP JUMPDEST PUSH0 PUSH1 0x1F NOT PUSH1 0x1F DUP4 ADD AND SWAP1 POP SWAP2 SWAP1 POP JUMP JUMPDEST PUSH0 PUSH2 0x3EF DUP3 PUSH2 0x3AD JUMP JUMPDEST PUSH2 0x3F9 DUP2 DUP6 PUSH2 0x3B7 JUMP JUMPDEST SWAP4 POP PUSH2 0x409 DUP2 DUP6 PUSH1 0x20 DUP7 ADD PUSH2 0x3C7 JUMP JUMPDEST PUSH2 0x412 DUP2 PUSH2 0x3D5 JUMP JUMPDEST DUP5 ADD SWAP2 POP POP SWAP3 SWAP2 POP POP JUMP JUMPDEST PUSH0 PUSH1 0x20 DUP3 ADD SWAP1 POP DUP2 DUP2 SUB PUSH0 DUP4 ADD MSTORE PUSH2 0x435 DUP2 DUP5 PUSH2 0x3E5 JUMP JUMPDEST SWAP1 POP SWAP3 SWAP2 POP POP JUMP JUMPDEST PUSH0 DUP1 REVERT JUMPDEST PUSH0 PUSH20 0xFFFFFFFFFFFFFFFFFFFFFFFFFFFFFFFFFFFFFFFF DUP3 AND SWAP1 POP SWAP2 SWAP1 POP JUMP JUMPDEST PUSH0 PUSH2 0x46A DUP3 PUSH2 0x441 JUMP JUMPDEST SWAP1 POP SWAP2 SWAP1 POP JUMP JUMPDEST PUSH2 0x47A DUP2 PUSH2 0x460 JUMP JUMPDEST DUP2 EQ PUSH2 0x484 JUMPI PUSH0 DUP1 REVERT JUMPDEST POP JUMP JUMPDEST PUSH0 DUP2 CALLDATALOAD SWAP1 POP PUSH2 0x495 DUP2 PUSH2 0x471 JUMP JUMPDEST SWAP3 SWAP2 POP POP JUMP JUMPDEST PUSH0 PUSH1 0x20 DUP3 DUP5 SUB SLT ISZERO PUSH2 0x4B0 JUMPI PUSH2 0x4AF PUSH2 0x43D JUMP JUMPDEST JUMPDEST PUSH0 PUSH2 0x4BD DUP5 DUP3 DUP6 ADD PUSH2 0x487 JUMP JUMPDEST SWAP2 POP POP SWAP3 SWAP2 POP POP JUMP JUMPDEST PUSH32 0x4E487B7100000000000000000000000000000000000000000000000000000000 PUSH0 MSTORE PUSH1 0x22 PUSH1 0x4 MSTORE PUSH1 0x24 PUSH0 REVERT JUMPDEST PUSH0 PUSH1 0x2 DUP3 DIV SWAP1 POP PUSH1 0x1 DUP3 AND DUP1 PUSH2 0x50A JUMPI PUSH1 0x7F DUP3 AND SWAP2 POP JUMPDEST PUSH1 0x20 DUP3 LT DUP2 SUB PUSH2 0x51D JUMPI PUSH2 0x51C PUSH2 0x4C6 JUMP JUMPDEST JUMPDEST POP SWAP2 SWAP1 POP JUMP JUMPDEST PUSH0 DUP2 SWAP1 POP SWAP3 SWAP2 POP POP JUMP JUMPDEST PUSH0 PUSH2 0x537 DUP3 PUSH2 0x3AD JUMP JUMPDEST PUSH2 0x541 DUP2 DUP6 PUSH2 0x523 JUMP JUMPDEST SWAP4 POP PUSH2 0x551 DUP2 DUP6 PUSH1 0x20 DUP7 ADD PUSH2 0x3C7 JUMP JUMPDEST DUP1 DUP5 ADD SWAP2 POP POP SWAP3 SWAP2 POP POP JUMP JUMPDEST PUSH0 PUSH2 0x568 DUP3 DUP5 PUSH2 0x52D JUMP JUMPDEST SWAP2 POP DUP2 SWAP1 POP SWAP3 SWAP2 POP POP JUMP JUMPDEST PUSH0 DUP3 DUP3 MSTORE PUSH1 0x20 DUP3 ADD SWAP1 POP SWAP3 SWAP2 POP POP JUMP JUMPDEST PUSH32 0x6661696C00000000000000000000000000000000000000000000000000000000 PUSH0 DUP3 ADD MSTORE POP JUMP JUMPDEST PUSH0 PUSH2 0x5B7 PUSH1 0x4 DUP4 PUSH2 0x573 JUMP JUMPDEST SWAP2 POP PUSH2 0x5C2 DUP3 PUSH2 0x583 JUMP JUMPDEST PUSH1 0x20 DUP3 ADD SWAP1 POP SWAP2 SWAP1 POP JUMP JUMPDEST PUSH0 PUSH1 0x20 DUP3 ADD SWAP1 POP DUP2 DUP2 SUB PUSH0 DUP4 ADD MSTORE PUSH2 0x5E4 DUP2 PUSH2 0x5AB JUMP JUMPDEST SWAP1 POP SWAP2 SWAP1 POP JUMP JUMPDEST PUSH32 0x63616C6C20666F6F000000000000000000000000000000000000000000000000 PUSH0 DUP3 ADD MSTORE POP JUMP JUMPDEST PUSH0 PUSH2 0x61F PUSH1 0x8 DUP4 PUSH2 0x573 JUMP JUMPDEST SWAP2 POP PUSH2 0x62A DUP3 PUSH2 0x5EB JUMP JUMPDEST PUSH1 0x20 DUP3 ADD SWAP1 POP SWAP2 SWAP1 POP JUMP JUMPDEST PUSH0 DUP2 SWAP1 POP SWAP2 SWAP1 POP JUMP JUMPDEST PUSH0 PUSH1 0xFF DUP3 AND SWAP1 POP SWAP2 SWAP1 POP JUMP JUMPDEST PUSH0 DUP2 SWAP1 POP SWAP2 SWAP1 POP JUMP JUMPDEST PUSH0 PUSH2 0x66D PUSH2 0x668 PUSH2 0x663 DUP5 PUSH2 0x635 JUMP JUMPDEST PUSH2 0x64A JUMP JUMPDEST PUSH2 0x63E JUMP JUMPDEST SWAP1 POP SWAP2 SWAP1 POP JUMP JUMPDEST PUSH2 0x67D DUP2 PUSH2 0x653 JUMP JUMPDEST DUP3 MSTORE POP POP JUMP JUMPDEST PUSH0 PUSH1 0x40 DUP3 ADD SWAP1 POP DUP2 DUP2 SUB PUSH0 DUP4 ADD MSTORE PUSH2 0x69A DUP2 PUSH2 0x613 JUMP JUMPDEST SWAP1 POP PUSH2 0x6A9 PUSH1 0x20 DUP4 ADD DUP5 PUSH2 0x674 JUMP JUMPDEST SWAP3 SWAP2 POP POP JUMP JUMPDEST PUSH32 0x4E487B7100000000000000000000000000000000000000000000000000000000 PUSH0 MSTORE PUSH1 0x41 PUSH1 0x4 MSTORE PUSH1 0x24 PUSH0 REVERT JUMPDEST PUSH0 DUP2 SWAP1 POP DUP2 PUSH0 MSTORE PUSH1 0x20 PUSH0 KECCAK256 SWAP1 POP SWAP2 SWAP1 POP JUMP JUMPDEST PUSH0 PUSH1 0x20 PUSH1 0x1F DUP4 ADD DIV SWAP1 POP SWAP2 SWAP1 POP JUMP JUMPDEST PUSH0 DUP3 DUP3 SHL SWAP1 POP SWAP3 SWAP2 POP POP JUMP JUMPDEST PUSH0 PUSH1 0x8 DUP4 MUL PUSH2 0x738 PUSH32 0xFFFFFFFFFFFFFFFFFFFFFFFFFFFFFFFFFFFFFFFFFFFFFFFFFFFFFFFFFFFFFFFF DUP3 PUSH2 0x6FD JUMP JUMPDEST PUSH2 0x742 DUP7 DUP4 PUSH2 0x6FD JUMP JUMPDEST SWAP6 POP DUP1 NOT DUP5 AND SWAP4 POP DUP1 DUP7 AND DUP5 OR SWAP3 POP POP POP SWAP4 SWAP3 POP POP POP JUMP JUMPDEST PUSH0 DUP2 SWAP1 POP SWAP2 SWAP1 POP JUMP JUMPDEST PUSH0 PUSH2 0x77D PUSH2 0x778 PUSH2 0x773 DUP5 PUSH2 0x75A JUMP JUMPDEST PUSH2 0x64A JUMP JUMPDEST PUSH2 0x75A JUMP JUMPDEST SWAP1 POP SWAP2 SWAP1 POP JUMP JUMPDEST PUSH0 DUP2 SWAP1 POP SWAP2 SWAP1 POP JUMP JUMPDEST PUSH2 0x796 DUP4 PUSH2 0x763 JUMP JUMPDEST PUSH2 0x7AA PUSH2 0x7A2 DUP3 PUSH2 0x784 JUMP JUMPDEST DUP5 DUP5 SLOAD PUSH2 0x709 JUMP JUMPDEST DUP3 SSTORE POP POP POP POP JUMP JUMPDEST PUSH0 SWAP1 JUMP JUMPDEST PUSH2 0x7BE PUSH2 0x7B2 JUMP JUMPDEST PUSH2 0x7C9 DUP2 DUP5 DUP5 PUSH2 0x78D JUMP JUMPDEST POP POP POP JUMP JUMPDEST JUMPDEST DUP2 DUP2 LT ISZERO PUSH2 0x7EC JUMPI PUSH2 0x7E1 PUSH0 DUP3 PUSH2 0x7B6 JUMP JUMPDEST PUSH1 0x1 DUP2 ADD SWAP1 POP PUSH2 0x7CF JUMP JUMPDEST POP POP JUMP JUMPDEST PUSH1 0x1F DUP3 GT ISZERO PUSH2 0x831 JUMPI PUSH2 0x802 DUP2 PUSH2 0x6DC JUMP JUMPDEST PUSH2 0x80B DUP5 PUSH2 0x6EE JUMP JUMPDEST DUP2 ADD PUSH1 0x20 DUP6 LT ISZERO PUSH2 0x81A JUMPI DUP2 SWAP1 POP JUMPDEST PUSH2 0x82E PUSH2 0x826 DUP6 PUSH2 0x6EE JUMP JUMPDEST DUP4 ADD DUP3 PUSH2 0x7CE JUMP JUMPDEST POP POP JUMPDEST POP POP POP JUMP JUMPDEST PUSH0 DUP3 DUP3 SHR SWAP1 POP SWAP3 SWAP2 POP POP JUMP JUMPDEST PUSH0 PUSH2 0x851 PUSH0 NOT DUP5 PUSH1 0x8 MUL PUSH2 0x836 JUMP JUMPDEST NOT DUP1 DUP4 AND SWAP2 POP POP SWAP3 SWAP2 POP POP JUMP JUMPDEST PUSH0 PUSH2 0x869 DUP4 DUP4 PUSH2 0x842 JUMP JUMPDEST SWAP2 POP DUP3 PUSH1 0x2 MUL DUP3 OR SWAP1 POP SWAP3 SWAP2 POP POP JUMP JUMPDEST PUSH2 0x882 DUP3 PUSH2 0x3AD JUMP JUMPDEST PUSH8 0xFFFFFFFFFFFFFFFF DUP2 GT ISZERO PUSH2 0x89B JUMPI PUSH2 0x89A PUSH2 0x6AF JUMP JUMPDEST JUMPDEST PUSH2 0x8A5 DUP3 SLOAD PUSH2 0x4F3 JUMP JUMPDEST PUSH2 0x8B0 DUP3 DUP3 DUP6 PUSH2 0x7F0 JUMP JUMPDEST PUSH0 PUSH1 0x20 SWAP1 POP PUSH1 0x1F DUP4 GT PUSH1 0x1 DUP2 EQ PUSH2 0x8E1 JUMPI PUSH0 DUP5 ISZERO PUSH2 0x8CF JUMPI DUP3 DUP8 ADD MLOAD SWAP1 POP JUMPDEST PUSH2 0x8D9 DUP6 DUP3 PUSH2 0x85E JUMP JUMPDEST DUP7 SSTORE POP PUSH2 0x940 JUMP JUMPDEST PUSH1 0x1F NOT DUP5 AND PUSH2 0x8EF DUP7 PUSH2 0x6DC JUMP JUMPDEST PUSH0 JUMPDEST DUP3 DUP2 LT ISZERO PUSH2 0x916 JUMPI DUP5 DUP10 ADD MLOAD DUP3 SSTORE PUSH1 0x1 DUP3 ADD SWAP2 POP PUSH1 0x20 DUP6 ADD SWAP5 POP PUSH1 0x20 DUP2 ADD SWAP1 POP PUSH2 0x8F1 JUMP JUMPDEST DUP7 DUP4 LT ISZERO PUSH2 0x933 JUMPI DUP5 DUP10 ADD MLOAD PUSH2 0x92F PUSH1 0x1F DUP10 AND DUP3 PUSH2 0x842 JUMP JUMPDEST DUP4 SSTORE POP JUMPDEST PUSH1 0x1 PUSH1 0x2 DUP9 MUL ADD DUP9 SSTORE POP POP POP JUMPDEST POP POP POP POP POP POP JUMP INVALID LOG2 PUSH5 0x6970667358 0x22 SLT KECCAK256 0xEA 0xEB SELFBALANCE PUSH32 0x68133803E2C06DDF502E999A222C97E2DB1672A5E300B3BA9F93069964736F6C PUSH4 0x4300081A STOP CALLER "
				},
				"gasEstimates": {
					"creation": {
						"codeDepositCost": "486000",
						"executionCost": "516",
						"totalCost": "486516"
					},
					"external": {
						"callFoo(address)": "infinite",
						"data()": "infinite",
						"test2(address)": "infinite"
					}
				},
				"methodIdentifiers": {
					"callFoo(address)": "edcbe76c",
					"data()": "73d4a13a",
					"test2(address)": "b11bead4"
				}
			},
			"storageLayout": {
				"storage": [
					{
						"astId": 44,
						"contract": "042TestCall.sol:CallTest",
						"label": "data",
						"offset": 0,
						"slot": "0",
						"type": "t_bytes_storage"
					}
				],
				"types": {
					"t_bytes_storage": {
						"encoding": "bytes",
						"label": "bytes",
						"numberOfBytes": "32"
					}
				}
			},
			"userdoc": {
				"kind": "user",
				"methods": {},
				"version": 1
			}
		}
	}
}