{
	"042TestCall.sol": {
		"TestCaler": {
			"abi": [
				{
					"anonymous": false,
					"inputs": [
						{
							"indexed": false,
							"internalType": "address",
							"name": "call",
							"type": "address"
						},
						{
							"indexed": false,
							"internalType": "uint256",
							"name": "amount",
							"type": "uint256"
						},
						{
							"indexed": false,
							"internalType": "string",
							"name": "message",
							"type": "string"
						}
					],
					"name": "Log",
					"type": "event"
				},
				{
					"inputs": [
						{
							"internalType": "string",
							"name": "_message",
							"type": "string"
						},
						{
							"internalType": "uint256",
							"name": "_x",
							"type": "uint256"
						}
					],
					"name": "foo",
					"outputs": [
						{
							"internalType": "bool",
							"name": "",
							"type": "bool"
						},
						{
							"internalType": "uint256",
							"name": "",
							"type": "uint256"
						}
					],
					"stateMutability": "payable",
					"type": "function"
				},
				{
					"inputs": [],
					"name": "message",
					"outputs": [
						{
							"internalType": "string",
							"name": "",
							"type": "string"
						}
					],
					"stateMutability": "view",
					"type": "function"
				},
				{
					"inputs": [],
					"name": "x",
					"outputs": [
						{
							"internalType": "uint256",
							"name": "",
							"type": "uint256"
						}
					],
					"stateMutability": "view",
					"type": "function"
				},
				{
					"stateMutability": "payable",
					"type": "receive"
				}
			],
			"devdoc": {
				"kind": "dev",
				"methods": {},
				"version": 1
			},
			"evm": {
				"assembly": "    /* \"042TestCall.sol\":57:519  contract TestCaler{... */\n  mstore(0x40, 0x80)\n  callvalue\n  dup1\n  iszero\n  tag_1\n  jumpi\n  0x00\n  dup1\n  revert\ntag_1:\n  pop\n  dataSize(sub_0)\n  dup1\n  dataOffset(sub_0)\n  0x00\n  codecopy\n  0x00\n  return\nstop\n\nsub_0: assembly {\n        /* \"042TestCall.sol\":57:519  contract TestCaler{... */\n      mstore(0x40, 0x80)\n      jumpi(tag_1, lt(calldatasize, 0x04))\n      shr(0xe0, calldataload(0x00))\n      dup1\n      0x0c55699c\n      eq\n      tag_3\n      jumpi\n      dup1\n      0x24ccab8f\n      eq\n      tag_4\n      jumpi\n      dup1\n      0xe21f37ce\n      eq\n      tag_5\n      jumpi\n      jump(tag_2)\n    tag_1:\n      jumpi(tag_2, calldatasize)\n      stop\n    tag_2:\n      0x00\n      dup1\n      revert\n        /* \"042TestCall.sol\":108:121  uint public x */\n    tag_3:\n      callvalue\n      dup1\n      iszero\n      tag_8\n      jumpi\n      0x00\n      dup1\n      revert\n    tag_8:\n      pop\n      tag_9\n      tag_10\n      jump\t// in\n    tag_9:\n      mload(0x40)\n      tag_11\n      swap2\n      swap1\n      tag_12\n      jump\t// in\n    tag_11:\n      mload(0x40)\n      dup1\n      swap2\n      sub\n      swap1\n      return\n        /* \"042TestCall.sol\":332:516  function foo(string memory _message,uint256 _x)... */\n    tag_4:\n      tag_13\n      0x04\n      dup1\n      calldatasize\n      sub\n      dup2\n      add\n      swap1\n      tag_14\n      swap2\n      swap1\n      tag_15\n      jump\t// in\n    tag_14:\n      tag_16\n      jump\t// in\n    tag_13:\n      mload(0x40)\n      tag_17\n      swap3\n      swap2\n      swap1\n      tag_18\n      jump\t// in\n    tag_17:\n      mload(0x40)\n      dup1\n      swap2\n      sub\n      swap1\n      return\n        /* \"042TestCall.sol\":81:102  string public message */\n    tag_5:\n      callvalue\n      dup1\n      iszero\n      tag_19\n      jumpi\n      0x00\n      dup1\n      revert\n    tag_19:\n      pop\n      tag_20\n      tag_21\n      jump\t// in\n    tag_20:\n      mload(0x40)\n      tag_22\n      swap2\n      swap1\n      tag_23\n      jump\t// in\n    tag_22:\n      mload(0x40)\n      dup1\n      swap2\n      sub\n      swap1\n      return\n        /* \"042TestCall.sol\":108:121  uint public x */\n    tag_10:\n      sload(0x01)\n      dup2\n      jump\t// out\n        /* \"042TestCall.sol\":332:516  function foo(string memory _message,uint256 _x)... */\n    tag_16:\n        /* \"042TestCall.sol\":425:429  bool */\n      0x00\n        /* \"042TestCall.sol\":430:434  uint */\n      dup1\n        /* \"042TestCall.sol\":460:468  _message */\n      dup4\n        /* \"042TestCall.sol\":450:457  message */\n      0x00\n        /* \"042TestCall.sol\":450:468  message = _message */\n      swap1\n      dup2\n      tag_25\n      swap2\n      swap1\n      tag_26\n      jump\t// in\n    tag_25:\n      pop\n        /* \"042TestCall.sol\":482:484  _x */\n      dup3\n        /* \"042TestCall.sol\":478:479  x */\n      0x01\n        /* \"042TestCall.sol\":478:484  x = _x */\n      dup2\n      swap1\n      sstore\n      pop\n        /* \"042TestCall.sol\":502:506  true */\n      0x01\n        /* \"042TestCall.sol\":507:508  x */\n      dup1\n      sload\n        /* \"042TestCall.sol\":494:509  return (true,x) */\n      swap2\n      pop\n      swap2\n      pop\n        /* \"042TestCall.sol\":332:516  function foo(string memory _message,uint256 _x)... */\n      swap3\n      pop\n      swap3\n      swap1\n      pop\n      jump\t// out\n        /* \"042TestCall.sol\":81:102  string public message */\n    tag_21:\n      0x00\n      dup1\n      sload\n      tag_27\n      swap1\n      tag_28\n      jump\t// in\n    tag_27:\n      dup1\n      0x1f\n      add\n      0x20\n      dup1\n      swap2\n      div\n      mul\n      0x20\n      add\n      mload(0x40)\n      swap1\n      dup2\n      add\n      0x40\n      mstore\n      dup1\n      swap3\n      swap2\n      swap1\n      dup2\n      dup2\n      mstore\n      0x20\n      add\n      dup3\n      dup1\n      sload\n      tag_29\n      swap1\n      tag_28\n      jump\t// in\n    tag_29:\n      dup1\n      iszero\n      tag_30\n      jumpi\n      dup1\n      0x1f\n      lt\n      tag_31\n      jumpi\n      0x0100\n      dup1\n      dup4\n      sload\n      div\n      mul\n      dup4\n      mstore\n      swap2\n      0x20\n      add\n      swap2\n      jump(tag_30)\n    tag_31:\n      dup3\n      add\n      swap2\n      swap1\n      0x00\n      mstore\n      keccak256(0x00, 0x20)\n      swap1\n    tag_32:\n      dup2\n      sload\n      dup2\n      mstore\n      swap1\n      0x01\n      add\n      swap1\n      0x20\n      add\n      dup1\n      dup4\n      gt\n      tag_32\n      jumpi\n      dup3\n      swap1\n      sub\n      0x1f\n      and\n      dup3\n      add\n      swap2\n    tag_30:\n      pop\n      pop\n      pop\n      pop\n      pop\n      dup2\n      jump\t// out\n        /* \"#utility.yul\":7:84   */\n    tag_33:\n        /* \"#utility.yul\":44:51   */\n      0x00\n        /* \"#utility.yul\":73:78   */\n      dup2\n        /* \"#utility.yul\":62:78   */\n      swap1\n      pop\n        /* \"#utility.yul\":7:84   */\n      swap2\n      swap1\n      pop\n      jump\t// out\n        /* \"#utility.yul\":90:208   */\n    tag_34:\n        /* \"#utility.yul\":177:201   */\n      tag_75\n        /* \"#utility.yul\":195:200   */\n      dup2\n        /* \"#utility.yul\":177:201   */\n      tag_33\n      jump\t// in\n    tag_75:\n        /* \"#utility.yul\":172:175   */\n      dup3\n        /* \"#utility.yul\":165:202   */\n      mstore\n        /* \"#utility.yul\":90:208   */\n      pop\n      pop\n      jump\t// out\n        /* \"#utility.yul\":214:436   */\n    tag_12:\n        /* \"#utility.yul\":307:311   */\n      0x00\n        /* \"#utility.yul\":345:347   */\n      0x20\n        /* \"#utility.yul\":334:343   */\n      dup3\n        /* \"#utility.yul\":330:348   */\n      add\n        /* \"#utility.yul\":322:348   */\n      swap1\n      pop\n        /* \"#utility.yul\":358:429   */\n      tag_77\n        /* \"#utility.yul\":426:427   */\n      0x00\n        /* \"#utility.yul\":415:424   */\n      dup4\n        /* \"#utility.yul\":411:428   */\n      add\n        /* \"#utility.yul\":402:408   */\n      dup5\n        /* \"#utility.yul\":358:429   */\n      tag_34\n      jump\t// in\n    tag_77:\n        /* \"#utility.yul\":214:436   */\n      swap3\n      swap2\n      pop\n      pop\n      jump\t// out\n        /* \"#utility.yul\":442:517   */\n    tag_35:\n        /* \"#utility.yul\":475:481   */\n      0x00\n        /* \"#utility.yul\":508:510   */\n      0x40\n        /* \"#utility.yul\":502:511   */\n      mload\n        /* \"#utility.yul\":492:511   */\n      swap1\n      pop\n        /* \"#utility.yul\":442:517   */\n      swap1\n      jump\t// out\n        /* \"#utility.yul\":523:640   */\n    tag_36:\n        /* \"#utility.yul\":632:633   */\n      0x00\n        /* \"#utility.yul\":629:630   */\n      dup1\n        /* \"#utility.yul\":622:634   */\n      revert\n        /* \"#utility.yul\":646:763   */\n    tag_37:\n        /* \"#utility.yul\":755:756   */\n      0x00\n        /* \"#utility.yul\":752:753   */\n      dup1\n        /* \"#utility.yul\":745:757   */\n      revert\n        /* \"#utility.yul\":769:886   */\n    tag_38:\n        /* \"#utility.yul\":878:879   */\n      0x00\n        /* \"#utility.yul\":875:876   */\n      dup1\n        /* \"#utility.yul\":868:880   */\n      revert\n        /* \"#utility.yul\":892:1009   */\n    tag_39:\n        /* \"#utility.yul\":1001:1002   */\n      0x00\n        /* \"#utility.yul\":998:999   */\n      dup1\n        /* \"#utility.yul\":991:1003   */\n      revert\n        /* \"#utility.yul\":1015:1117   */\n    tag_40:\n        /* \"#utility.yul\":1056:1062   */\n      0x00\n        /* \"#utility.yul\":1107:1109   */\n      0x1f\n        /* \"#utility.yul\":1103:1110   */\n      not\n        /* \"#utility.yul\":1098:1100   */\n      0x1f\n        /* \"#utility.yul\":1091:1096   */\n      dup4\n        /* \"#utility.yul\":1087:1101   */\n      add\n        /* \"#utility.yul\":1083:1111   */\n      and\n        /* \"#utility.yul\":1073:1111   */\n      swap1\n      pop\n        /* \"#utility.yul\":1015:1117   */\n      swap2\n      swap1\n      pop\n      jump\t// out\n        /* \"#utility.yul\":1123:1303   */\n    tag_41:\n        /* \"#utility.yul\":1171:1248   */\n      0x4e487b7100000000000000000000000000000000000000000000000000000000\n        /* \"#utility.yul\":1168:1169   */\n      0x00\n        /* \"#utility.yul\":1161:1249   */\n      mstore\n        /* \"#utility.yul\":1268:1272   */\n      0x41\n        /* \"#utility.yul\":1265:1266   */\n      0x04\n        /* \"#utility.yul\":1258:1273   */\n      mstore\n        /* \"#utility.yul\":1292:1296   */\n      0x24\n        /* \"#utility.yul\":1289:1290   */\n      0x00\n        /* \"#utility.yul\":1282:1297   */\n      revert\n        /* \"#utility.yul\":1309:1590   */\n    tag_42:\n        /* \"#utility.yul\":1392:1419   */\n      tag_86\n        /* \"#utility.yul\":1414:1418   */\n      dup3\n        /* \"#utility.yul\":1392:1419   */\n      tag_40\n      jump\t// in\n    tag_86:\n        /* \"#utility.yul\":1384:1390   */\n      dup2\n        /* \"#utility.yul\":1380:1420   */\n      add\n        /* \"#utility.yul\":1522:1528   */\n      dup2\n        /* \"#utility.yul\":1510:1520   */\n      dup2\n        /* \"#utility.yul\":1507:1529   */\n      lt\n        /* \"#utility.yul\":1486:1504   */\n      0xffffffffffffffff\n        /* \"#utility.yul\":1474:1484   */\n      dup3\n        /* \"#utility.yul\":1471:1505   */\n      gt\n        /* \"#utility.yul\":1468:1530   */\n      or\n        /* \"#utility.yul\":1465:1553   */\n      iszero\n      tag_87\n      jumpi\n        /* \"#utility.yul\":1533:1551   */\n      tag_88\n      tag_41\n      jump\t// in\n    tag_88:\n        /* \"#utility.yul\":1465:1553   */\n    tag_87:\n        /* \"#utility.yul\":1573:1583   */\n      dup1\n        /* \"#utility.yul\":1569:1571   */\n      0x40\n        /* \"#utility.yul\":1562:1584   */\n      mstore\n        /* \"#utility.yul\":1352:1590   */\n      pop\n        /* \"#utility.yul\":1309:1590   */\n      pop\n      pop\n      jump\t// out\n        /* \"#utility.yul\":1596:1725   */\n    tag_43:\n        /* \"#utility.yul\":1630:1636   */\n      0x00\n        /* \"#utility.yul\":1657:1677   */\n      tag_90\n      tag_35\n      jump\t// in\n    tag_90:\n        /* \"#utility.yul\":1647:1677   */\n      swap1\n      pop\n        /* \"#utility.yul\":1686:1719   */\n      tag_91\n        /* \"#utility.yul\":1714:1718   */\n      dup3\n        /* \"#utility.yul\":1706:1712   */\n      dup3\n        /* \"#utility.yul\":1686:1719   */\n      tag_42\n      jump\t// in\n    tag_91:\n        /* \"#utility.yul\":1596:1725   */\n      swap2\n      swap1\n      pop\n      jump\t// out\n        /* \"#utility.yul\":1731:2039   */\n    tag_44:\n        /* \"#utility.yul\":1793:1797   */\n      0x00\n        /* \"#utility.yul\":1883:1901   */\n      0xffffffffffffffff\n        /* \"#utility.yul\":1875:1881   */\n      dup3\n        /* \"#utility.yul\":1872:1902   */\n      gt\n        /* \"#utility.yul\":1869:1925   */\n      iszero\n      tag_93\n      jumpi\n        /* \"#utility.yul\":1905:1923   */\n      tag_94\n      tag_41\n      jump\t// in\n    tag_94:\n        /* \"#utility.yul\":1869:1925   */\n    tag_93:\n        /* \"#utility.yul\":1943:1972   */\n      tag_95\n        /* \"#utility.yul\":1965:1971   */\n      dup3\n        /* \"#utility.yul\":1943:1972   */\n      tag_40\n      jump\t// in\n    tag_95:\n        /* \"#utility.yul\":1935:1972   */\n      swap1\n      pop\n        /* \"#utility.yul\":2027:2031   */\n      0x20\n        /* \"#utility.yul\":2021:2025   */\n      dup2\n        /* \"#utility.yul\":2017:2032   */\n      add\n        /* \"#utility.yul\":2009:2032   */\n      swap1\n      pop\n        /* \"#utility.yul\":1731:2039   */\n      swap2\n      swap1\n      pop\n      jump\t// out\n        /* \"#utility.yul\":2045:2193   */\n    tag_45:\n        /* \"#utility.yul\":2143:2149   */\n      dup3\n        /* \"#utility.yul\":2138:2141   */\n      dup2\n        /* \"#utility.yul\":2133:2136   */\n      dup4\n        /* \"#utility.yul\":2120:2150   */\n      calldatacopy\n        /* \"#utility.yul\":2184:2185   */\n      0x00\n        /* \"#utility.yul\":2175:2181   */\n      dup4\n        /* \"#utility.yul\":2170:2173   */\n      dup4\n        /* \"#utility.yul\":2166:2182   */\n      add\n        /* \"#utility.yul\":2159:2186   */\n      mstore\n        /* \"#utility.yul\":2045:2193   */\n      pop\n      pop\n      pop\n      jump\t// out\n        /* \"#utility.yul\":2199:2624   */\n    tag_46:\n        /* \"#utility.yul\":2277:2282   */\n      0x00\n        /* \"#utility.yul\":2302:2368   */\n      tag_98\n        /* \"#utility.yul\":2318:2367   */\n      tag_99\n        /* \"#utility.yul\":2360:2366   */\n      dup5\n        /* \"#utility.yul\":2318:2367   */\n      tag_44\n      jump\t// in\n    tag_99:\n        /* \"#utility.yul\":2302:2368   */\n      tag_43\n      jump\t// in\n    tag_98:\n        /* \"#utility.yul\":2293:2368   */\n      swap1\n      pop\n        /* \"#utility.yul\":2391:2397   */\n      dup3\n        /* \"#utility.yul\":2384:2389   */\n      dup2\n        /* \"#utility.yul\":2377:2398   */\n      mstore\n        /* \"#utility.yul\":2429:2433   */\n      0x20\n        /* \"#utility.yul\":2422:2427   */\n      dup2\n        /* \"#utility.yul\":2418:2434   */\n      add\n        /* \"#utility.yul\":2467:2470   */\n      dup5\n        /* \"#utility.yul\":2458:2464   */\n      dup5\n        /* \"#utility.yul\":2453:2456   */\n      dup5\n        /* \"#utility.yul\":2449:2465   */\n      add\n        /* \"#utility.yul\":2446:2471   */\n      gt\n        /* \"#utility.yul\":2443:2555   */\n      iszero\n      tag_100\n      jumpi\n        /* \"#utility.yul\":2474:2553   */\n      tag_101\n      tag_39\n      jump\t// in\n    tag_101:\n        /* \"#utility.yul\":2443:2555   */\n    tag_100:\n        /* \"#utility.yul\":2564:2618   */\n      tag_102\n        /* \"#utility.yul\":2611:2617   */\n      dup5\n        /* \"#utility.yul\":2606:2609   */\n      dup3\n        /* \"#utility.yul\":2601:2604   */\n      dup6\n        /* \"#utility.yul\":2564:2618   */\n      tag_45\n      jump\t// in\n    tag_102:\n        /* \"#utility.yul\":2283:2624   */\n      pop\n        /* \"#utility.yul\":2199:2624   */\n      swap4\n      swap3\n      pop\n      pop\n      pop\n      jump\t// out\n        /* \"#utility.yul\":2644:2984   */\n    tag_47:\n        /* \"#utility.yul\":2700:2705   */\n      0x00\n        /* \"#utility.yul\":2749:2752   */\n      dup3\n        /* \"#utility.yul\":2742:2746   */\n      0x1f\n        /* \"#utility.yul\":2734:2740   */\n      dup4\n        /* \"#utility.yul\":2730:2747   */\n      add\n        /* \"#utility.yul\":2726:2753   */\n      slt\n        /* \"#utility.yul\":2716:2838   */\n      tag_104\n      jumpi\n        /* \"#utility.yul\":2757:2836   */\n      tag_105\n      tag_38\n      jump\t// in\n    tag_105:\n        /* \"#utility.yul\":2716:2838   */\n    tag_104:\n        /* \"#utility.yul\":2874:2880   */\n      dup2\n        /* \"#utility.yul\":2861:2881   */\n      calldataload\n        /* \"#utility.yul\":2899:2978   */\n      tag_106\n        /* \"#utility.yul\":2974:2977   */\n      dup5\n        /* \"#utility.yul\":2966:2972   */\n      dup3\n        /* \"#utility.yul\":2959:2963   */\n      0x20\n        /* \"#utility.yul\":2951:2957   */\n      dup7\n        /* \"#utility.yul\":2947:2964   */\n      add\n        /* \"#utility.yul\":2899:2978   */\n      tag_46\n      jump\t// in\n    tag_106:\n        /* \"#utility.yul\":2890:2978   */\n      swap2\n      pop\n        /* \"#utility.yul\":2706:2984   */\n      pop\n        /* \"#utility.yul\":2644:2984   */\n      swap3\n      swap2\n      pop\n      pop\n      jump\t// out\n        /* \"#utility.yul\":2990:3112   */\n    tag_48:\n        /* \"#utility.yul\":3063:3087   */\n      tag_108\n        /* \"#utility.yul\":3081:3086   */\n      dup2\n        /* \"#utility.yul\":3063:3087   */\n      tag_33\n      jump\t// in\n    tag_108:\n        /* \"#utility.yul\":3056:3061   */\n      dup2\n        /* \"#utility.yul\":3053:3088   */\n      eq\n        /* \"#utility.yul\":3043:3106   */\n      tag_109\n      jumpi\n        /* \"#utility.yul\":3102:3103   */\n      0x00\n        /* \"#utility.yul\":3099:3100   */\n      dup1\n        /* \"#utility.yul\":3092:3104   */\n      revert\n        /* \"#utility.yul\":3043:3106   */\n    tag_109:\n        /* \"#utility.yul\":2990:3112   */\n      pop\n      jump\t// out\n        /* \"#utility.yul\":3118:3257   */\n    tag_49:\n        /* \"#utility.yul\":3164:3169   */\n      0x00\n        /* \"#utility.yul\":3202:3208   */\n      dup2\n        /* \"#utility.yul\":3189:3209   */\n      calldataload\n        /* \"#utility.yul\":3180:3209   */\n      swap1\n      pop\n        /* \"#utility.yul\":3218:3251   */\n      tag_111\n        /* \"#utility.yul\":3245:3250   */\n      dup2\n        /* \"#utility.yul\":3218:3251   */\n      tag_48\n      jump\t// in\n    tag_111:\n        /* \"#utility.yul\":3118:3257   */\n      swap3\n      swap2\n      pop\n      pop\n      jump\t// out\n        /* \"#utility.yul\":3263:3917   */\n    tag_15:\n        /* \"#utility.yul\":3341:3347   */\n      0x00\n        /* \"#utility.yul\":3349:3355   */\n      dup1\n        /* \"#utility.yul\":3398:3400   */\n      0x40\n        /* \"#utility.yul\":3386:3395   */\n      dup4\n        /* \"#utility.yul\":3377:3384   */\n      dup6\n        /* \"#utility.yul\":3373:3396   */\n      sub\n        /* \"#utility.yul\":3369:3401   */\n      slt\n        /* \"#utility.yul\":3366:3485   */\n      iszero\n      tag_113\n      jumpi\n        /* \"#utility.yul\":3404:3483   */\n      tag_114\n      tag_36\n      jump\t// in\n    tag_114:\n        /* \"#utility.yul\":3366:3485   */\n    tag_113:\n        /* \"#utility.yul\":3552:3553   */\n      0x00\n        /* \"#utility.yul\":3541:3550   */\n      dup4\n        /* \"#utility.yul\":3537:3554   */\n      add\n        /* \"#utility.yul\":3524:3555   */\n      calldataload\n        /* \"#utility.yul\":3582:3600   */\n      0xffffffffffffffff\n        /* \"#utility.yul\":3574:3580   */\n      dup2\n        /* \"#utility.yul\":3571:3601   */\n      gt\n        /* \"#utility.yul\":3568:3685   */\n      iszero\n      tag_115\n      jumpi\n        /* \"#utility.yul\":3604:3683   */\n      tag_116\n      tag_37\n      jump\t// in\n    tag_116:\n        /* \"#utility.yul\":3568:3685   */\n    tag_115:\n        /* \"#utility.yul\":3709:3772   */\n      tag_117\n        /* \"#utility.yul\":3764:3771   */\n      dup6\n        /* \"#utility.yul\":3755:3761   */\n      dup3\n        /* \"#utility.yul\":3744:3753   */\n      dup7\n        /* \"#utility.yul\":3740:3762   */\n      add\n        /* \"#utility.yul\":3709:3772   */\n      tag_47\n      jump\t// in\n    tag_117:\n        /* \"#utility.yul\":3699:3772   */\n      swap3\n      pop\n        /* \"#utility.yul\":3495:3782   */\n      pop\n        /* \"#utility.yul\":3821:3823   */\n      0x20\n        /* \"#utility.yul\":3847:3900   */\n      tag_118\n        /* \"#utility.yul\":3892:3899   */\n      dup6\n        /* \"#utility.yul\":3883:3889   */\n      dup3\n        /* \"#utility.yul\":3872:3881   */\n      dup7\n        /* \"#utility.yul\":3868:3890   */\n      add\n        /* \"#utility.yul\":3847:3900   */\n      tag_49\n      jump\t// in\n    tag_118:\n        /* \"#utility.yul\":3837:3900   */\n      swap2\n      pop\n        /* \"#utility.yul\":3792:3910   */\n      pop\n        /* \"#utility.yul\":3263:3917   */\n      swap3\n      pop\n      swap3\n      swap1\n      pop\n      jump\t// out\n        /* \"#utility.yul\":3923:4013   */\n    tag_50:\n        /* \"#utility.yul\":3957:3964   */\n      0x00\n        /* \"#utility.yul\":4000:4005   */\n      dup2\n        /* \"#utility.yul\":3993:4006   */\n      iszero\n        /* \"#utility.yul\":3986:4007   */\n      iszero\n        /* \"#utility.yul\":3975:4007   */\n      swap1\n      pop\n        /* \"#utility.yul\":3923:4013   */\n      swap2\n      swap1\n      pop\n      jump\t// out\n        /* \"#utility.yul\":4019:4128   */\n    tag_51:\n        /* \"#utility.yul\":4100:4121   */\n      tag_121\n        /* \"#utility.yul\":4115:4120   */\n      dup2\n        /* \"#utility.yul\":4100:4121   */\n      tag_50\n      jump\t// in\n    tag_121:\n        /* \"#utility.yul\":4095:4098   */\n      dup3\n        /* \"#utility.yul\":4088:4122   */\n      mstore\n        /* \"#utility.yul\":4019:4128   */\n      pop\n      pop\n      jump\t// out\n        /* \"#utility.yul\":4134:4454   */\n    tag_18:\n        /* \"#utility.yul\":4249:4253   */\n      0x00\n        /* \"#utility.yul\":4287:4289   */\n      0x40\n        /* \"#utility.yul\":4276:4285   */\n      dup3\n        /* \"#utility.yul\":4272:4290   */\n      add\n        /* \"#utility.yul\":4264:4290   */\n      swap1\n      pop\n        /* \"#utility.yul\":4300:4365   */\n      tag_123\n        /* \"#utility.yul\":4362:4363   */\n      0x00\n        /* \"#utility.yul\":4351:4360   */\n      dup4\n        /* \"#utility.yul\":4347:4364   */\n      add\n        /* \"#utility.yul\":4338:4344   */\n      dup6\n        /* \"#utility.yul\":4300:4365   */\n      tag_51\n      jump\t// in\n    tag_123:\n        /* \"#utility.yul\":4375:4447   */\n      tag_124\n        /* \"#utility.yul\":4443:4445   */\n      0x20\n        /* \"#utility.yul\":4432:4441   */\n      dup4\n        /* \"#utility.yul\":4428:4446   */\n      add\n        /* \"#utility.yul\":4419:4425   */\n      dup5\n        /* \"#utility.yul\":4375:4447   */\n      tag_34\n      jump\t// in\n    tag_124:\n        /* \"#utility.yul\":4134:4454   */\n      swap4\n      swap3\n      pop\n      pop\n      pop\n      jump\t// out\n        /* \"#utility.yul\":4460:4559   */\n    tag_52:\n        /* \"#utility.yul\":4512:4518   */\n      0x00\n        /* \"#utility.yul\":4546:4551   */\n      dup2\n        /* \"#utility.yul\":4540:4552   */\n      mload\n        /* \"#utility.yul\":4530:4552   */\n      swap1\n      pop\n        /* \"#utility.yul\":4460:4559   */\n      swap2\n      swap1\n      pop\n      jump\t// out\n        /* \"#utility.yul\":4565:4734   */\n    tag_53:\n        /* \"#utility.yul\":4649:4660   */\n      0x00\n        /* \"#utility.yul\":4683:4689   */\n      dup3\n        /* \"#utility.yul\":4678:4681   */\n      dup3\n        /* \"#utility.yul\":4671:4690   */\n      mstore\n        /* \"#utility.yul\":4723:4727   */\n      0x20\n        /* \"#utility.yul\":4718:4721   */\n      dup3\n        /* \"#utility.yul\":4714:4728   */\n      add\n        /* \"#utility.yul\":4699:4728   */\n      swap1\n      pop\n        /* \"#utility.yul\":4565:4734   */\n      swap3\n      swap2\n      pop\n      pop\n      jump\t// out\n        /* \"#utility.yul\":4740:4879   */\n    tag_54:\n        /* \"#utility.yul\":4829:4835   */\n      dup3\n        /* \"#utility.yul\":4824:4827   */\n      dup2\n        /* \"#utility.yul\":4819:4822   */\n      dup4\n        /* \"#utility.yul\":4813:4836   */\n      mcopy\n        /* \"#utility.yul\":4870:4871   */\n      0x00\n        /* \"#utility.yul\":4861:4867   */\n      dup4\n        /* \"#utility.yul\":4856:4859   */\n      dup4\n        /* \"#utility.yul\":4852:4868   */\n      add\n        /* \"#utility.yul\":4845:4872   */\n      mstore\n        /* \"#utility.yul\":4740:4879   */\n      pop\n      pop\n      pop\n      jump\t// out\n        /* \"#utility.yul\":4885:5262   */\n    tag_55:\n        /* \"#utility.yul\":4973:4976   */\n      0x00\n        /* \"#utility.yul\":5001:5040   */\n      tag_129\n        /* \"#utility.yul\":5034:5039   */\n      dup3\n        /* \"#utility.yul\":5001:5040   */\n      tag_52\n      jump\t// in\n    tag_129:\n        /* \"#utility.yul\":5056:5127   */\n      tag_130\n        /* \"#utility.yul\":5120:5126   */\n      dup2\n        /* \"#utility.yul\":5115:5118   */\n      dup6\n        /* \"#utility.yul\":5056:5127   */\n      tag_53\n      jump\t// in\n    tag_130:\n        /* \"#utility.yul\":5049:5127   */\n      swap4\n      pop\n        /* \"#utility.yul\":5136:5201   */\n      tag_131\n        /* \"#utility.yul\":5194:5200   */\n      dup2\n        /* \"#utility.yul\":5189:5192   */\n      dup6\n        /* \"#utility.yul\":5182:5186   */\n      0x20\n        /* \"#utility.yul\":5175:5180   */\n      dup7\n        /* \"#utility.yul\":5171:5187   */\n      add\n        /* \"#utility.yul\":5136:5201   */\n      tag_54\n      jump\t// in\n    tag_131:\n        /* \"#utility.yul\":5226:5255   */\n      tag_132\n        /* \"#utility.yul\":5248:5254   */\n      dup2\n        /* \"#utility.yul\":5226:5255   */\n      tag_40\n      jump\t// in\n    tag_132:\n        /* \"#utility.yul\":5221:5224   */\n      dup5\n        /* \"#utility.yul\":5217:5256   */\n      add\n        /* \"#utility.yul\":5210:5256   */\n      swap2\n      pop\n        /* \"#utility.yul\":4977:5262   */\n      pop\n        /* \"#utility.yul\":4885:5262   */\n      swap3\n      swap2\n      pop\n      pop\n      jump\t// out\n        /* \"#utility.yul\":5268:5581   */\n    tag_23:\n        /* \"#utility.yul\":5381:5385   */\n      0x00\n        /* \"#utility.yul\":5419:5421   */\n      0x20\n        /* \"#utility.yul\":5408:5417   */\n      dup3\n        /* \"#utility.yul\":5404:5422   */\n      add\n        /* \"#utility.yul\":5396:5422   */\n      swap1\n      pop\n        /* \"#utility.yul\":5468:5477   */\n      dup2\n        /* \"#utility.yul\":5462:5466   */\n      dup2\n        /* \"#utility.yul\":5458:5478   */\n      sub\n        /* \"#utility.yul\":5454:5455   */\n      0x00\n        /* \"#utility.yul\":5443:5452   */\n      dup4\n        /* \"#utility.yul\":5439:5456   */\n      add\n        /* \"#utility.yul\":5432:5479   */\n      mstore\n        /* \"#utility.yul\":5496:5574   */\n      tag_134\n        /* \"#utility.yul\":5569:5573   */\n      dup2\n        /* \"#utility.yul\":5560:5566   */\n      dup5\n        /* \"#utility.yul\":5496:5574   */\n      tag_55\n      jump\t// in\n    tag_134:\n        /* \"#utility.yul\":5488:5574   */\n      swap1\n      pop\n        /* \"#utility.yul\":5268:5581   */\n      swap3\n      swap2\n      pop\n      pop\n      jump\t// out\n        /* \"#utility.yul\":5587:5767   */\n    tag_56:\n        /* \"#utility.yul\":5635:5712   */\n      0x4e487b7100000000000000000000000000000000000000000000000000000000\n        /* \"#utility.yul\":5632:5633   */\n      0x00\n        /* \"#utility.yul\":5625:5713   */\n      mstore\n        /* \"#utility.yul\":5732:5736   */\n      0x22\n        /* \"#utility.yul\":5729:5730   */\n      0x04\n        /* \"#utility.yul\":5722:5737   */\n      mstore\n        /* \"#utility.yul\":5756:5760   */\n      0x24\n        /* \"#utility.yul\":5753:5754   */\n      0x00\n        /* \"#utility.yul\":5746:5761   */\n      revert\n        /* \"#utility.yul\":5773:6093   */\n    tag_28:\n        /* \"#utility.yul\":5817:5823   */\n      0x00\n        /* \"#utility.yul\":5854:5855   */\n      0x02\n        /* \"#utility.yul\":5848:5852   */\n      dup3\n        /* \"#utility.yul\":5844:5856   */\n      div\n        /* \"#utility.yul\":5834:5856   */\n      swap1\n      pop\n        /* \"#utility.yul\":5901:5902   */\n      0x01\n        /* \"#utility.yul\":5895:5899   */\n      dup3\n        /* \"#utility.yul\":5891:5903   */\n      and\n        /* \"#utility.yul\":5922:5940   */\n      dup1\n        /* \"#utility.yul\":5912:5993   */\n      tag_137\n      jumpi\n        /* \"#utility.yul\":5978:5982   */\n      0x7f\n        /* \"#utility.yul\":5970:5976   */\n      dup3\n        /* \"#utility.yul\":5966:5983   */\n      and\n        /* \"#utility.yul\":5956:5983   */\n      swap2\n      pop\n        /* \"#utility.yul\":5912:5993   */\n    tag_137:\n        /* \"#utility.yul\":6040:6042   */\n      0x20\n        /* \"#utility.yul\":6032:6038   */\n      dup3\n        /* \"#utility.yul\":6029:6043   */\n      lt\n        /* \"#utility.yul\":6009:6027   */\n      dup2\n        /* \"#utility.yul\":6006:6044   */\n      sub\n        /* \"#utility.yul\":6003:6087   */\n      tag_138\n      jumpi\n        /* \"#utility.yul\":6059:6077   */\n      tag_139\n      tag_56\n      jump\t// in\n    tag_139:\n        /* \"#utility.yul\":6003:6087   */\n    tag_138:\n        /* \"#utility.yul\":5824:6093   */\n      pop\n        /* \"#utility.yul\":5773:6093   */\n      swap2\n      swap1\n      pop\n      jump\t// out\n        /* \"#utility.yul\":6099:6240   */\n    tag_57:\n        /* \"#utility.yul\":6148:6152   */\n      0x00\n        /* \"#utility.yul\":6171:6174   */\n      dup2\n        /* \"#utility.yul\":6163:6174   */\n      swap1\n      pop\n        /* \"#utility.yul\":6194:6197   */\n      dup2\n        /* \"#utility.yul\":6191:6192   */\n      0x00\n        /* \"#utility.yul\":6184:6198   */\n      mstore\n        /* \"#utility.yul\":6228:6232   */\n      0x20\n        /* \"#utility.yul\":6225:6226   */\n      0x00\n        /* \"#utility.yul\":6215:6233   */\n      keccak256\n        /* \"#utility.yul\":6207:6233   */\n      swap1\n      pop\n        /* \"#utility.yul\":6099:6240   */\n      swap2\n      swap1\n      pop\n      jump\t// out\n        /* \"#utility.yul\":6246:6339   */\n    tag_58:\n        /* \"#utility.yul\":6283:6289   */\n      0x00\n        /* \"#utility.yul\":6330:6332   */\n      0x20\n        /* \"#utility.yul\":6325:6327   */\n      0x1f\n        /* \"#utility.yul\":6318:6323   */\n      dup4\n        /* \"#utility.yul\":6314:6328   */\n      add\n        /* \"#utility.yul\":6310:6333   */\n      div\n        /* \"#utility.yul\":6300:6333   */\n      swap1\n      pop\n        /* \"#utility.yul\":6246:6339   */\n      swap2\n      swap1\n      pop\n      jump\t// out\n        /* \"#utility.yul\":6345:6452   */\n    tag_59:\n        /* \"#utility.yul\":6389:6397   */\n      0x00\n        /* \"#utility.yul\":6439:6444   */\n      dup3\n        /* \"#utility.yul\":6433:6437   */\n      dup3\n        /* \"#utility.yul\":6429:6445   */\n      shl\n        /* \"#utility.yul\":6408:6445   */\n      swap1\n      pop\n        /* \"#utility.yul\":6345:6452   */\n      swap3\n      swap2\n      pop\n      pop\n      jump\t// out\n        /* \"#utility.yul\":6458:6851   */\n    tag_60:\n        /* \"#utility.yul\":6527:6533   */\n      0x00\n        /* \"#utility.yul\":6577:6578   */\n      0x08\n        /* \"#utility.yul\":6565:6575   */\n      dup4\n        /* \"#utility.yul\":6561:6579   */\n      mul\n        /* \"#utility.yul\":6600:6697   */\n      tag_144\n        /* \"#utility.yul\":6630:6696   */\n      0xffffffffffffffffffffffffffffffffffffffffffffffffffffffffffffffff\n        /* \"#utility.yul\":6619:6628   */\n      dup3\n        /* \"#utility.yul\":6600:6697   */\n      tag_59\n      jump\t// in\n    tag_144:\n        /* \"#utility.yul\":6718:6757   */\n      tag_145\n        /* \"#utility.yul\":6748:6756   */\n      dup7\n        /* \"#utility.yul\":6737:6746   */\n      dup4\n        /* \"#utility.yul\":6718:6757   */\n      tag_59\n      jump\t// in\n    tag_145:\n        /* \"#utility.yul\":6706:6757   */\n      swap6\n      pop\n        /* \"#utility.yul\":6790:6794   */\n      dup1\n        /* \"#utility.yul\":6786:6795   */\n      not\n        /* \"#utility.yul\":6779:6784   */\n      dup5\n        /* \"#utility.yul\":6775:6796   */\n      and\n        /* \"#utility.yul\":6766:6796   */\n      swap4\n      pop\n        /* \"#utility.yul\":6839:6843   */\n      dup1\n        /* \"#utility.yul\":6829:6837   */\n      dup7\n        /* \"#utility.yul\":6825:6844   */\n      and\n        /* \"#utility.yul\":6818:6823   */\n      dup5\n        /* \"#utility.yul\":6815:6845   */\n      or\n        /* \"#utility.yul\":6805:6845   */\n      swap3\n      pop\n        /* \"#utility.yul\":6534:6851   */\n      pop\n      pop\n        /* \"#utility.yul\":6458:6851   */\n      swap4\n      swap3\n      pop\n      pop\n      pop\n      jump\t// out\n        /* \"#utility.yul\":6857:6917   */\n    tag_61:\n        /* \"#utility.yul\":6885:6888   */\n      0x00\n        /* \"#utility.yul\":6906:6911   */\n      dup2\n        /* \"#utility.yul\":6899:6911   */\n      swap1\n      pop\n        /* \"#utility.yul\":6857:6917   */\n      swap2\n      swap1\n      pop\n      jump\t// out\n        /* \"#utility.yul\":6923:7065   */\n    tag_62:\n        /* \"#utility.yul\":6973:6982   */\n      0x00\n        /* \"#utility.yul\":7006:7059   */\n      tag_148\n        /* \"#utility.yul\":7024:7058   */\n      tag_149\n        /* \"#utility.yul\":7033:7057   */\n      tag_150\n        /* \"#utility.yul\":7051:7056   */\n      dup5\n        /* \"#utility.yul\":7033:7057   */\n      tag_33\n      jump\t// in\n    tag_150:\n        /* \"#utility.yul\":7024:7058   */\n      tag_61\n      jump\t// in\n    tag_149:\n        /* \"#utility.yul\":7006:7059   */\n      tag_33\n      jump\t// in\n    tag_148:\n        /* \"#utility.yul\":6993:7059   */\n      swap1\n      pop\n        /* \"#utility.yul\":6923:7065   */\n      swap2\n      swap1\n      pop\n      jump\t// out\n        /* \"#utility.yul\":7071:7146   */\n    tag_63:\n        /* \"#utility.yul\":7114:7117   */\n      0x00\n        /* \"#utility.yul\":7135:7140   */\n      dup2\n        /* \"#utility.yul\":7128:7140   */\n      swap1\n      pop\n        /* \"#utility.yul\":7071:7146   */\n      swap2\n      swap1\n      pop\n      jump\t// out\n        /* \"#utility.yul\":7152:7421   */\n    tag_64:\n        /* \"#utility.yul\":7262:7301   */\n      tag_153\n        /* \"#utility.yul\":7293:7300   */\n      dup4\n        /* \"#utility.yul\":7262:7301   */\n      tag_62\n      jump\t// in\n    tag_153:\n        /* \"#utility.yul\":7323:7414   */\n      tag_154\n        /* \"#utility.yul\":7372:7413   */\n      tag_155\n        /* \"#utility.yul\":7396:7412   */\n      dup3\n        /* \"#utility.yul\":7372:7413   */\n      tag_63\n      jump\t// in\n    tag_155:\n        /* \"#utility.yul\":7364:7370   */\n      dup5\n        /* \"#utility.yul\":7357:7361   */\n      dup5\n        /* \"#utility.yul\":7351:7362   */\n      sload\n        /* \"#utility.yul\":7323:7414   */\n      tag_60\n      jump\t// in\n    tag_154:\n        /* \"#utility.yul\":7317:7321   */\n      dup3\n        /* \"#utility.yul\":7310:7415   */\n      sstore\n        /* \"#utility.yul\":7228:7421   */\n      pop\n        /* \"#utility.yul\":7152:7421   */\n      pop\n      pop\n      pop\n      jump\t// out\n        /* \"#utility.yul\":7427:7500   */\n    tag_65:\n        /* \"#utility.yul\":7472:7475   */\n      0x00\n        /* \"#utility.yul\":7427:7500   */\n      swap1\n      jump\t// out\n        /* \"#utility.yul\":7506:7695   */\n    tag_66:\n        /* \"#utility.yul\":7583:7615   */\n      tag_158\n      tag_65\n      jump\t// in\n    tag_158:\n        /* \"#utility.yul\":7624:7689   */\n      tag_159\n        /* \"#utility.yul\":7682:7688   */\n      dup2\n        /* \"#utility.yul\":7674:7680   */\n      dup5\n        /* \"#utility.yul\":7668:7672   */\n      dup5\n        /* \"#utility.yul\":7624:7689   */\n      tag_64\n      jump\t// in\n    tag_159:\n        /* \"#utility.yul\":7559:7695   */\n      pop\n        /* \"#utility.yul\":7506:7695   */\n      pop\n      pop\n      jump\t// out\n        /* \"#utility.yul\":7701:7887   */\n    tag_67:\n        /* \"#utility.yul\":7761:7881   */\n    tag_161:\n        /* \"#utility.yul\":7778:7781   */\n      dup2\n        /* \"#utility.yul\":7771:7776   */\n      dup2\n        /* \"#utility.yul\":7768:7782   */\n      lt\n        /* \"#utility.yul\":7761:7881   */\n      iszero\n      tag_163\n      jumpi\n        /* \"#utility.yul\":7832:7871   */\n      tag_164\n        /* \"#utility.yul\":7869:7870   */\n      0x00\n        /* \"#utility.yul\":7862:7867   */\n      dup3\n        /* \"#utility.yul\":7832:7871   */\n      tag_66\n      jump\t// in\n    tag_164:\n        /* \"#utility.yul\":7805:7806   */\n      0x01\n        /* \"#utility.yul\":7798:7803   */\n      dup2\n        /* \"#utility.yul\":7794:7807   */\n      add\n        /* \"#utility.yul\":7785:7807   */\n      swap1\n      pop\n        /* \"#utility.yul\":7761:7881   */\n      jump(tag_161)\n    tag_163:\n        /* \"#utility.yul\":7701:7887   */\n      pop\n      pop\n      jump\t// out\n        /* \"#utility.yul\":7893:8436   */\n    tag_68:\n        /* \"#utility.yul\":7994:7996   */\n      0x1f\n        /* \"#utility.yul\":7989:7992   */\n      dup3\n        /* \"#utility.yul\":7986:7997   */\n      gt\n        /* \"#utility.yul\":7983:8429   */\n      iszero\n      tag_166\n      jumpi\n        /* \"#utility.yul\":8028:8066   */\n      tag_167\n        /* \"#utility.yul\":8060:8065   */\n      dup2\n        /* \"#utility.yul\":8028:8066   */\n      tag_57\n      jump\t// in\n    tag_167:\n        /* \"#utility.yul\":8112:8141   */\n      tag_168\n        /* \"#utility.yul\":8130:8140   */\n      dup5\n        /* \"#utility.yul\":8112:8141   */\n      tag_58\n      jump\t// in\n    tag_168:\n        /* \"#utility.yul\":8102:8110   */\n      dup2\n        /* \"#utility.yul\":8098:8142   */\n      add\n        /* \"#utility.yul\":8295:8297   */\n      0x20\n        /* \"#utility.yul\":8283:8293   */\n      dup6\n        /* \"#utility.yul\":8280:8298   */\n      lt\n        /* \"#utility.yul\":8277:8326   */\n      iszero\n      tag_169\n      jumpi\n        /* \"#utility.yul\":8316:8324   */\n      dup2\n        /* \"#utility.yul\":8301:8324   */\n      swap1\n      pop\n        /* \"#utility.yul\":8277:8326   */\n    tag_169:\n        /* \"#utility.yul\":8339:8419   */\n      tag_170\n        /* \"#utility.yul\":8395:8417   */\n      tag_171\n        /* \"#utility.yul\":8413:8416   */\n      dup6\n        /* \"#utility.yul\":8395:8417   */\n      tag_58\n      jump\t// in\n    tag_171:\n        /* \"#utility.yul\":8385:8393   */\n      dup4\n        /* \"#utility.yul\":8381:8418   */\n      add\n        /* \"#utility.yul\":8368:8379   */\n      dup3\n        /* \"#utility.yul\":8339:8419   */\n      tag_67\n      jump\t// in\n    tag_170:\n        /* \"#utility.yul\":7998:8429   */\n      pop\n      pop\n        /* \"#utility.yul\":7983:8429   */\n    tag_166:\n        /* \"#utility.yul\":7893:8436   */\n      pop\n      pop\n      pop\n      jump\t// out\n        /* \"#utility.yul\":8442:8559   */\n    tag_69:\n        /* \"#utility.yul\":8496:8504   */\n      0x00\n        /* \"#utility.yul\":8546:8551   */\n      dup3\n        /* \"#utility.yul\":8540:8544   */\n      dup3\n        /* \"#utility.yul\":8536:8552   */\n      shr\n        /* \"#utility.yul\":8515:8552   */\n      swap1\n      pop\n        /* \"#utility.yul\":8442:8559   */\n      swap3\n      swap2\n      pop\n      pop\n      jump\t// out\n        /* \"#utility.yul\":8565:8734   */\n    tag_70:\n        /* \"#utility.yul\":8609:8615   */\n      0x00\n        /* \"#utility.yul\":8642:8693   */\n      tag_174\n        /* \"#utility.yul\":8690:8691   */\n      0x00\n        /* \"#utility.yul\":8686:8692   */\n      not\n        /* \"#utility.yul\":8678:8683   */\n      dup5\n        /* \"#utility.yul\":8675:8676   */\n      0x08\n        /* \"#utility.yul\":8671:8684   */\n      mul\n        /* \"#utility.yul\":8642:8693   */\n      tag_69\n      jump\t// in\n    tag_174:\n        /* \"#utility.yul\":8638:8694   */\n      not\n        /* \"#utility.yul\":8723:8727   */\n      dup1\n        /* \"#utility.yul\":8717:8721   */\n      dup4\n        /* \"#utility.yul\":8713:8728   */\n      and\n        /* \"#utility.yul\":8703:8728   */\n      swap2\n      pop\n        /* \"#utility.yul\":8616:8734   */\n      pop\n        /* \"#utility.yul\":8565:8734   */\n      swap3\n      swap2\n      pop\n      pop\n      jump\t// out\n        /* \"#utility.yul\":8739:9034   */\n    tag_71:\n        /* \"#utility.yul\":8815:8819   */\n      0x00\n        /* \"#utility.yul\":8961:8990   */\n      tag_176\n        /* \"#utility.yul\":8986:8989   */\n      dup4\n        /* \"#utility.yul\":8980:8984   */\n      dup4\n        /* \"#utility.yul\":8961:8990   */\n      tag_70\n      jump\t// in\n    tag_176:\n        /* \"#utility.yul\":8953:8990   */\n      swap2\n      pop\n        /* \"#utility.yul\":9023:9026   */\n      dup3\n        /* \"#utility.yul\":9020:9021   */\n      0x02\n        /* \"#utility.yul\":9016:9027   */\n      mul\n        /* \"#utility.yul\":9010:9014   */\n      dup3\n        /* \"#utility.yul\":9007:9028   */\n      or\n        /* \"#utility.yul\":8999:9028   */\n      swap1\n      pop\n        /* \"#utility.yul\":8739:9034   */\n      swap3\n      swap2\n      pop\n      pop\n      jump\t// out\n        /* \"#utility.yul\":9039:10434   */\n    tag_26:\n        /* \"#utility.yul\":9156:9193   */\n      tag_178\n        /* \"#utility.yul\":9189:9192   */\n      dup3\n        /* \"#utility.yul\":9156:9193   */\n      tag_52\n      jump\t// in\n    tag_178:\n        /* \"#utility.yul\":9258:9276   */\n      0xffffffffffffffff\n        /* \"#utility.yul\":9250:9256   */\n      dup2\n        /* \"#utility.yul\":9247:9277   */\n      gt\n        /* \"#utility.yul\":9244:9300   */\n      iszero\n      tag_179\n      jumpi\n        /* \"#utility.yul\":9280:9298   */\n      tag_180\n      tag_41\n      jump\t// in\n    tag_180:\n        /* \"#utility.yul\":9244:9300   */\n    tag_179:\n        /* \"#utility.yul\":9324:9362   */\n      tag_181\n        /* \"#utility.yul\":9356:9360   */\n      dup3\n        /* \"#utility.yul\":9350:9361   */\n      sload\n        /* \"#utility.yul\":9324:9362   */\n      tag_28\n      jump\t// in\n    tag_181:\n        /* \"#utility.yul\":9409:9476   */\n      tag_182\n        /* \"#utility.yul\":9469:9475   */\n      dup3\n        /* \"#utility.yul\":9461:9467   */\n      dup3\n        /* \"#utility.yul\":9455:9459   */\n      dup6\n        /* \"#utility.yul\":9409:9476   */\n      tag_68\n      jump\t// in\n    tag_182:\n        /* \"#utility.yul\":9503:9504   */\n      0x00\n        /* \"#utility.yul\":9527:9531   */\n      0x20\n        /* \"#utility.yul\":9514:9531   */\n      swap1\n      pop\n        /* \"#utility.yul\":9559:9561   */\n      0x1f\n        /* \"#utility.yul\":9551:9557   */\n      dup4\n        /* \"#utility.yul\":9548:9562   */\n      gt\n        /* \"#utility.yul\":9576:9577   */\n      0x01\n        /* \"#utility.yul\":9571:10189   */\n      dup2\n      eq\n      tag_184\n      jumpi\n        /* \"#utility.yul\":10233:10234   */\n      0x00\n        /* \"#utility.yul\":10250:10256   */\n      dup5\n        /* \"#utility.yul\":10247:10324   */\n      iszero\n      tag_185\n      jumpi\n        /* \"#utility.yul\":10299:10308   */\n      dup3\n        /* \"#utility.yul\":10294:10297   */\n      dup8\n        /* \"#utility.yul\":10290:10309   */\n      add\n        /* \"#utility.yul\":10284:10310   */\n      mload\n        /* \"#utility.yul\":10275:10310   */\n      swap1\n      pop\n        /* \"#utility.yul\":10247:10324   */\n    tag_185:\n        /* \"#utility.yul\":10350:10417   */\n      tag_186\n        /* \"#utility.yul\":10410:10416   */\n      dup6\n        /* \"#utility.yul\":10403:10408   */\n      dup3\n        /* \"#utility.yul\":10350:10417   */\n      tag_71\n      jump\t// in\n    tag_186:\n        /* \"#utility.yul\":10344:10348   */\n      dup7\n        /* \"#utility.yul\":10337:10418   */\n      sstore\n        /* \"#utility.yul\":10206:10428   */\n      pop\n        /* \"#utility.yul\":9541:10428   */\n      jump(tag_183)\n        /* \"#utility.yul\":9571:10189   */\n    tag_184:\n        /* \"#utility.yul\":9623:9627   */\n      0x1f\n        /* \"#utility.yul\":9619:9628   */\n      not\n        /* \"#utility.yul\":9611:9617   */\n      dup5\n        /* \"#utility.yul\":9607:9629   */\n      and\n        /* \"#utility.yul\":9657:9694   */\n      tag_187\n        /* \"#utility.yul\":9689:9693   */\n      dup7\n        /* \"#utility.yul\":9657:9694   */\n      tag_57\n      jump\t// in\n    tag_187:\n        /* \"#utility.yul\":9716:9717   */\n      0x00\n        /* \"#utility.yul\":9730:9938   */\n    tag_188:\n        /* \"#utility.yul\":9744:9751   */\n      dup3\n        /* \"#utility.yul\":9741:9742   */\n      dup2\n        /* \"#utility.yul\":9738:9752   */\n      lt\n        /* \"#utility.yul\":9730:9938   */\n      iszero\n      tag_190\n      jumpi\n        /* \"#utility.yul\":9823:9832   */\n      dup5\n        /* \"#utility.yul\":9818:9821   */\n      dup10\n        /* \"#utility.yul\":9814:9833   */\n      add\n        /* \"#utility.yul\":9808:9834   */\n      mload\n        /* \"#utility.yul\":9800:9806   */\n      dup3\n        /* \"#utility.yul\":9793:9835   */\n      sstore\n        /* \"#utility.yul\":9874:9875   */\n      0x01\n        /* \"#utility.yul\":9866:9872   */\n      dup3\n        /* \"#utility.yul\":9862:9876   */\n      add\n        /* \"#utility.yul\":9852:9876   */\n      swap2\n      pop\n        /* \"#utility.yul\":9921:9923   */\n      0x20\n        /* \"#utility.yul\":9910:9919   */\n      dup6\n        /* \"#utility.yul\":9906:9924   */\n      add\n        /* \"#utility.yul\":9893:9924   */\n      swap5\n      pop\n        /* \"#utility.yul\":9767:9771   */\n      0x20\n        /* \"#utility.yul\":9764:9765   */\n      dup2\n        /* \"#utility.yul\":9760:9772   */\n      add\n        /* \"#utility.yul\":9755:9772   */\n      swap1\n      pop\n        /* \"#utility.yul\":9730:9938   */\n      jump(tag_188)\n    tag_190:\n        /* \"#utility.yul\":9966:9972   */\n      dup7\n        /* \"#utility.yul\":9957:9964   */\n      dup4\n        /* \"#utility.yul\":9954:9973   */\n      lt\n        /* \"#utility.yul\":9951:10130   */\n      iszero\n      tag_191\n      jumpi\n        /* \"#utility.yul\":10024:10033   */\n      dup5\n        /* \"#utility.yul\":10019:10022   */\n      dup10\n        /* \"#utility.yul\":10015:10034   */\n      add\n        /* \"#utility.yul\":10009:10035   */\n      mload\n        /* \"#utility.yul\":10067:10115   */\n      tag_192\n        /* \"#utility.yul\":10109:10113   */\n      0x1f\n        /* \"#utility.yul\":10101:10107   */\n      dup10\n        /* \"#utility.yul\":10097:10114   */\n      and\n        /* \"#utility.yul\":10086:10095   */\n      dup3\n        /* \"#utility.yul\":10067:10115   */\n      tag_70\n      jump\t// in\n    tag_192:\n        /* \"#utility.yul\":10059:10065   */\n      dup4\n        /* \"#utility.yul\":10052:10116   */\n      sstore\n        /* \"#utility.yul\":9974:10130   */\n      pop\n        /* \"#utility.yul\":9951:10130   */\n    tag_191:\n        /* \"#utility.yul\":10176:10177   */\n      0x01\n        /* \"#utility.yul\":10172:10173   */\n      0x02\n        /* \"#utility.yul\":10164:10170   */\n      dup9\n        /* \"#utility.yul\":10160:10174   */\n      mul\n        /* \"#utility.yul\":10156:10178   */\n      add\n        /* \"#utility.yul\":10150:10154   */\n      dup9\n        /* \"#utility.yul\":10143:10179   */\n      sstore\n        /* \"#utility.yul\":9578:10189   */\n      pop\n      pop\n      pop\n        /* \"#utility.yul\":9541:10428   */\n    tag_183:\n      pop\n        /* \"#utility.yul\":9131:10434   */\n      pop\n      pop\n      pop\n        /* \"#utility.yul\":9039:10434   */\n      pop\n      pop\n      jump\t// out\n\n    auxdata: 0xa26469706673582212203fd50f3aa06a9af79d80b612ea2b0538165d9ff673ae0db4bfc0018b2fd52cd264736f6c634300081a0033\n}\n",
				"bytecode": {
					"linkReferences": {},
					"object": "6080604052348015600e575f80fd5b506107418061001c5f395ff3fe608060405260043610610037575f3560e01c80630c55699c1461004257806324ccab8f1461006c578063e21f37ce1461009d5761003e565b3661003e57005b5f80fd5b34801561004d575f80fd5b506100566100c7565b6040516100639190610197565b60405180910390f35b61008660048036038101906100819190610327565b6100cd565b60405161009492919061039b565b60405180910390f35b3480156100a8575f80fd5b506100b16100f4565b6040516100be9190610422565b60405180910390f35b60015481565b5f80835f90816100dd919061063c565b508260018190555060018054915091509250929050565b5f80546101009061046f565b80601f016020809104026020016040519081016040528092919081815260200182805461012c9061046f565b80156101775780601f1061014e57610100808354040283529160200191610177565b820191905f5260205f20905b81548152906001019060200180831161015a57829003601f168201915b505050505081565b5f819050919050565b6101918161017f565b82525050565b5f6020820190506101aa5f830184610188565b92915050565b5f604051905090565b5f80fd5b5f80fd5b5f80fd5b5f80fd5b5f601f19601f8301169050919050565b7f4e487b71000000000000000000000000000000000000000000000000000000005f52604160045260245ffd5b61020f826101c9565b810181811067ffffffffffffffff8211171561022e5761022d6101d9565b5b80604052505050565b5f6102406101b0565b905061024c8282610206565b919050565b5f67ffffffffffffffff82111561026b5761026a6101d9565b5b610274826101c9565b9050602081019050919050565b828183375f83830152505050565b5f6102a161029c84610251565b610237565b9050828152602081018484840111156102bd576102bc6101c5565b5b6102c8848285610281565b509392505050565b5f82601f8301126102e4576102e36101c1565b5b81356102f484826020860161028f565b91505092915050565b6103068161017f565b8114610310575f80fd5b50565b5f81359050610321816102fd565b92915050565b5f806040838503121561033d5761033c6101b9565b5b5f83013567ffffffffffffffff81111561035a576103596101bd565b5b610366858286016102d0565b925050602061037785828601610313565b9150509250929050565b5f8115159050919050565b61039581610381565b82525050565b5f6040820190506103ae5f83018561038c565b6103bb6020830184610188565b9392505050565b5f81519050919050565b5f82825260208201905092915050565b8281835e5f83830152505050565b5f6103f4826103c2565b6103fe81856103cc565b935061040e8185602086016103dc565b610417816101c9565b840191505092915050565b5f6020820190508181035f83015261043a81846103ea565b905092915050565b7f4e487b71000000000000000000000000000000000000000000000000000000005f52602260045260245ffd5b5f600282049050600182168061048657607f821691505b60208210810361049957610498610442565b5b50919050565b5f819050815f5260205f209050919050565b5f6020601f8301049050919050565b5f82821b905092915050565b5f600883026104fb7fffffffffffffffffffffffffffffffffffffffffffffffffffffffffffffffff826104c0565b61050586836104c0565b95508019841693508086168417925050509392505050565b5f819050919050565b5f61054061053b6105368461017f565b61051d565b61017f565b9050919050565b5f819050919050565b61055983610526565b61056d61056582610547565b8484546104cc565b825550505050565b5f90565b610581610575565b61058c818484610550565b505050565b5b818110156105af576105a45f82610579565b600181019050610592565b5050565b601f8211156105f4576105c58161049f565b6105ce846104b1565b810160208510156105dd578190505b6105f16105e9856104b1565b830182610591565b50505b505050565b5f82821c905092915050565b5f6106145f19846008026105f9565b1980831691505092915050565b5f61062c8383610605565b9150826002028217905092915050565b610645826103c2565b67ffffffffffffffff81111561065e5761065d6101d9565b5b610668825461046f565b6106738282856105b3565b5f60209050601f8311600181146106a4575f8415610692578287015190505b61069c8582610621565b865550610703565b601f1984166106b28661049f565b5f5b828110156106d9578489015182556001820191506020850194506020810190506106b4565b868310156106f657848901516106f2601f891682610605565b8355505b6001600288020188555050505b50505050505056fea26469706673582212203fd50f3aa06a9af79d80b612ea2b0538165d9ff673ae0db4bfc0018b2fd52cd264736f6c634300081a0033",
					"opcodes": "PUSH1 0x80 PUSH1 0x40 MSTORE CALLVALUE DUP1 ISZERO PUSH1 0xE JUMPI PUSH0 DUP1 REVERT JUMPDEST POP PUSH2 0x741 DUP1 PUSH2 0x1C PUSH0 CODECOPY PUSH0 RETURN INVALID PUSH1 0x80 PUSH1 0x40 MSTORE PUSH1 0x4 CALLDATASIZE LT PUSH2 0x37 JUMPI PUSH0 CALLDATALOAD PUSH1 0xE0 SHR DUP1 PUSH4 0xC55699C EQ PUSH2 0x42 JUMPI DUP1 PUSH4 0x24CCAB8F EQ PUSH2 0x6C JUMPI DUP1 PUSH4 0xE21F37CE EQ PUSH2 0x9D JUMPI PUSH2 0x3E JUMP JUMPDEST CALLDATASIZE PUSH2 0x3E JUMPI STOP JUMPDEST PUSH0 DUP1 REVERT JUMPDEST CALLVALUE DUP1 ISZERO PUSH2 0x4D JUMPI PUSH0 DUP1 REVERT JUMPDEST POP PUSH2 0x56 PUSH2 0xC7 JUMP JUMPDEST PUSH1 0x40 MLOAD PUSH2 0x63 SWAP2 SWAP1 PUSH2 0x197 JUMP JUMPDEST PUSH1 0x40 MLOAD DUP1 SWAP2 SUB SWAP1 RETURN JUMPDEST PUSH2 0x86 PUSH1 0x4 DUP1 CALLDATASIZE SUB DUP2 ADD SWAP1 PUSH2 0x81 SWAP2 SWAP1 PUSH2 0x327 JUMP JUMPDEST PUSH2 0xCD JUMP JUMPDEST PUSH1 0x40 MLOAD PUSH2 0x94 SWAP3 SWAP2 SWAP1 PUSH2 0x39B JUMP JUMPDEST PUSH1 0x40 MLOAD DUP1 SWAP2 SUB SWAP1 RETURN JUMPDEST CALLVALUE DUP1 ISZERO PUSH2 0xA8 JUMPI PUSH0 DUP1 REVERT JUMPDEST POP PUSH2 0xB1 PUSH2 0xF4 JUMP JUMPDEST PUSH1 0x40 MLOAD PUSH2 0xBE SWAP2 SWAP1 PUSH2 0x422 JUMP JUMPDEST PUSH1 0x40 MLOAD DUP1 SWAP2 SUB SWAP1 RETURN JUMPDEST PUSH1 0x1 SLOAD DUP2 JUMP JUMPDEST PUSH0 DUP1 DUP4 PUSH0 SWAP1 DUP2 PUSH2 0xDD SWAP2 SWAP1 PUSH2 0x63C JUMP JUMPDEST POP DUP3 PUSH1 0x1 DUP2 SWAP1 SSTORE POP PUSH1 0x1 DUP1 SLOAD SWAP2 POP SWAP2 POP SWAP3 POP SWAP3 SWAP1 POP JUMP JUMPDEST PUSH0 DUP1 SLOAD PUSH2 0x100 SWAP1 PUSH2 0x46F JUMP JUMPDEST DUP1 PUSH1 0x1F ADD PUSH1 0x20 DUP1 SWAP2 DIV MUL PUSH1 0x20 ADD PUSH1 0x40 MLOAD SWAP1 DUP2 ADD PUSH1 0x40 MSTORE DUP1 SWAP3 SWAP2 SWAP1 DUP2 DUP2 MSTORE PUSH1 0x20 ADD DUP3 DUP1 SLOAD PUSH2 0x12C SWAP1 PUSH2 0x46F JUMP JUMPDEST DUP1 ISZERO PUSH2 0x177 JUMPI DUP1 PUSH1 0x1F LT PUSH2 0x14E JUMPI PUSH2 0x100 DUP1 DUP4 SLOAD DIV MUL DUP4 MSTORE SWAP2 PUSH1 0x20 ADD SWAP2 PUSH2 0x177 JUMP JUMPDEST DUP3 ADD SWAP2 SWAP1 PUSH0 MSTORE PUSH1 0x20 PUSH0 KECCAK256 SWAP1 JUMPDEST DUP2 SLOAD DUP2 MSTORE SWAP1 PUSH1 0x1 ADD SWAP1 PUSH1 0x20 ADD DUP1 DUP4 GT PUSH2 0x15A JUMPI DUP3 SWAP1 SUB PUSH1 0x1F AND DUP3 ADD SWAP2 JUMPDEST POP POP POP POP POP DUP2 JUMP JUMPDEST PUSH0 DUP2 SWAP1 POP SWAP2 SWAP1 POP JUMP JUMPDEST PUSH2 0x191 DUP2 PUSH2 0x17F JUMP JUMPDEST DUP3 MSTORE POP POP JUMP JUMPDEST PUSH0 PUSH1 0x20 DUP3 ADD SWAP1 POP PUSH2 0x1AA PUSH0 DUP4 ADD DUP5 PUSH2 0x188 JUMP JUMPDEST SWAP3 SWAP2 POP POP JUMP JUMPDEST PUSH0 PUSH1 0x40 MLOAD SWAP1 POP SWAP1 JUMP JUMPDEST PUSH0 DUP1 REVERT JUMPDEST PUSH0 DUP1 REVERT JUMPDEST PUSH0 DUP1 REVERT JUMPDEST PUSH0 DUP1 REVERT JUMPDEST PUSH0 PUSH1 0x1F NOT PUSH1 0x1F DUP4 ADD AND SWAP1 POP SWAP2 SWAP1 POP JUMP JUMPDEST PUSH32 0x4E487B7100000000000000000000000000000000000000000000000000000000 PUSH0 MSTORE PUSH1 0x41 PUSH1 0x4 MSTORE PUSH1 0x24 PUSH0 REVERT JUMPDEST PUSH2 0x20F DUP3 PUSH2 0x1C9 JUMP JUMPDEST DUP2 ADD DUP2 DUP2 LT PUSH8 0xFFFFFFFFFFFFFFFF DUP3 GT OR ISZERO PUSH2 0x22E JUMPI PUSH2 0x22D PUSH2 0x1D9 JUMP JUMPDEST JUMPDEST DUP1 PUSH1 0x40 MSTORE POP POP POP JUMP JUMPDEST PUSH0 PUSH2 0x240 PUSH2 0x1B0 JUMP JUMPDEST SWAP1 POP PUSH2 0x24C DUP3 DUP3 PUSH2 0x206 JUMP JUMPDEST SWAP2 SWAP1 POP JUMP JUMPDEST PUSH0 PUSH8 0xFFFFFFFFFFFFFFFF DUP3 GT ISZERO PUSH2 0x26B JUMPI PUSH2 0x26A PUSH2 0x1D9 JUMP JUMPDEST JUMPDEST PUSH2 0x274 DUP3 PUSH2 0x1C9 JUMP JUMPDEST SWAP1 POP PUSH1 0x20 DUP2 ADD SWAP1 POP SWAP2 SWAP1 POP JUMP JUMPDEST DUP3 DUP2 DUP4 CALLDATACOPY PUSH0 DUP4 DUP4 ADD MSTORE POP POP POP JUMP JUMPDEST PUSH0 PUSH2 0x2A1 PUSH2 0x29C DUP5 PUSH2 0x251 JUMP JUMPDEST PUSH2 0x237 JUMP JUMPDEST SWAP1 POP DUP3 DUP2 MSTORE PUSH1 0x20 DUP2 ADD DUP5 DUP5 DUP5 ADD GT ISZERO PUSH2 0x2BD JUMPI PUSH2 0x2BC PUSH2 0x1C5 JUMP JUMPDEST JUMPDEST PUSH2 0x2C8 DUP5 DUP3 DUP6 PUSH2 0x281 JUMP JUMPDEST POP SWAP4 SWAP3 POP POP POP JUMP JUMPDEST PUSH0 DUP3 PUSH1 0x1F DUP4 ADD SLT PUSH2 0x2E4 JUMPI PUSH2 0x2E3 PUSH2 0x1C1 JUMP JUMPDEST JUMPDEST DUP2 CALLDATALOAD PUSH2 0x2F4 DUP5 DUP3 PUSH1 0x20 DUP7 ADD PUSH2 0x28F JUMP JUMPDEST SWAP2 POP POP SWAP3 SWAP2 POP POP JUMP JUMPDEST PUSH2 0x306 DUP2 PUSH2 0x17F JUMP JUMPDEST DUP2 EQ PUSH2 0x310 JUMPI PUSH0 DUP1 REVERT JUMPDEST POP JUMP JUMPDEST PUSH0 DUP2 CALLDATALOAD SWAP1 POP PUSH2 0x321 DUP2 PUSH2 0x2FD JUMP JUMPDEST SWAP3 SWAP2 POP POP JUMP JUMPDEST PUSH0 DUP1 PUSH1 0x40 DUP4 DUP6 SUB SLT ISZERO PUSH2 0x33D JUMPI PUSH2 0x33C PUSH2 0x1B9 JUMP JUMPDEST JUMPDEST PUSH0 DUP4 ADD CALLDATALOAD PUSH8 0xFFFFFFFFFFFFFFFF DUP2 GT ISZERO PUSH2 0x35A JUMPI PUSH2 0x359 PUSH2 0x1BD JUMP JUMPDEST JUMPDEST PUSH2 0x366 DUP6 DUP3 DUP7 ADD PUSH2 0x2D0 JUMP JUMPDEST SWAP3 POP POP PUSH1 0x20 PUSH2 0x377 DUP6 DUP3 DUP7 ADD PUSH2 0x313 JUMP JUMPDEST SWAP2 POP POP SWAP3 POP SWAP3 SWAP1 POP JUMP JUMPDEST PUSH0 DUP2 ISZERO ISZERO SWAP1 POP SWAP2 SWAP1 POP JUMP JUMPDEST PUSH2 0x395 DUP2 PUSH2 0x381 JUMP JUMPDEST DUP3 MSTORE POP POP JUMP JUMPDEST PUSH0 PUSH1 0x40 DUP3 ADD SWAP1 POP PUSH2 0x3AE PUSH0 DUP4 ADD DUP6 PUSH2 0x38C JUMP JUMPDEST PUSH2 0x3BB PUSH1 0x20 DUP4 ADD DUP5 PUSH2 0x188 JUMP JUMPDEST SWAP4 SWAP3 POP POP POP JUMP JUMPDEST PUSH0 DUP2 MLOAD SWAP1 POP SWAP2 SWAP1 POP JUMP JUMPDEST PUSH0 DUP3 DUP3 MSTORE PUSH1 0x20 DUP3 ADD SWAP1 POP SWAP3 SWAP2 POP POP JUMP JUMPDEST DUP3 DUP2 DUP4 MCOPY PUSH0 DUP4 DUP4 ADD MSTORE POP POP POP JUMP JUMPDEST PUSH0 PUSH2 0x3F4 DUP3 PUSH2 0x3C2 JUMP JUMPDEST PUSH2 0x3FE DUP2 DUP6 PUSH2 0x3CC JUMP JUMPDEST SWAP4 POP PUSH2 0x40E DUP2 DUP6 PUSH1 0x20 DUP7 ADD PUSH2 0x3DC JUMP JUMPDEST PUSH2 0x417 DUP2 PUSH2 0x1C9 JUMP JUMPDEST DUP5 ADD SWAP2 POP POP SWAP3 SWAP2 POP POP JUMP JUMPDEST PUSH0 PUSH1 0x20 DUP3 ADD SWAP1 POP DUP2 DUP2 SUB PUSH0 DUP4 ADD MSTORE PUSH2 0x43A DUP2 DUP5 PUSH2 0x3EA JUMP JUMPDEST SWAP1 POP SWAP3 SWAP2 POP POP JUMP JUMPDEST PUSH32 0x4E487B7100000000000000000000000000000000000000000000000000000000 PUSH0 MSTORE PUSH1 0x22 PUSH1 0x4 MSTORE PUSH1 0x24 PUSH0 REVERT JUMPDEST PUSH0 PUSH1 0x2 DUP3 DIV SWAP1 POP PUSH1 0x1 DUP3 AND DUP1 PUSH2 0x486 JUMPI PUSH1 0x7F DUP3 AND SWAP2 POP JUMPDEST PUSH1 0x20 DUP3 LT DUP2 SUB PUSH2 0x499 JUMPI PUSH2 0x498 PUSH2 0x442 JUMP JUMPDEST JUMPDEST POP SWAP2 SWAP1 POP JUMP JUMPDEST PUSH0 DUP2 SWAP1 POP DUP2 PUSH0 MSTORE PUSH1 0x20 PUSH0 KECCAK256 SWAP1 POP SWAP2 SWAP1 POP JUMP JUMPDEST PUSH0 PUSH1 0x20 PUSH1 0x1F DUP4 ADD DIV SWAP1 POP SWAP2 SWAP1 POP JUMP JUMPDEST PUSH0 DUP3 DUP3 SHL SWAP1 POP SWAP3 SWAP2 POP POP JUMP JUMPDEST PUSH0 PUSH1 0x8 DUP4 MUL PUSH2 0x4FB PUSH32 0xFFFFFFFFFFFFFFFFFFFFFFFFFFFFFFFFFFFFFFFFFFFFFFFFFFFFFFFFFFFFFFFF DUP3 PUSH2 0x4C0 JUMP JUMPDEST PUSH2 0x505 DUP7 DUP4 PUSH2 0x4C0 JUMP JUMPDEST SWAP6 POP DUP1 NOT DUP5 AND SWAP4 POP DUP1 DUP7 AND DUP5 OR SWAP3 POP POP POP SWAP4 SWAP3 POP POP POP JUMP JUMPDEST PUSH0 DUP2 SWAP1 POP SWAP2 SWAP1 POP JUMP JUMPDEST PUSH0 PUSH2 0x540 PUSH2 0x53B PUSH2 0x536 DUP5 PUSH2 0x17F JUMP JUMPDEST PUSH2 0x51D JUMP JUMPDEST PUSH2 0x17F JUMP JUMPDEST SWAP1 POP SWAP2 SWAP1 POP JUMP JUMPDEST PUSH0 DUP2 SWAP1 POP SWAP2 SWAP1 POP JUMP JUMPDEST PUSH2 0x559 DUP4 PUSH2 0x526 JUMP JUMPDEST PUSH2 0x56D PUSH2 0x565 DUP3 PUSH2 0x547 JUMP JUMPDEST DUP5 DUP5 SLOAD PUSH2 0x4CC JUMP JUMPDEST DUP3 SSTORE POP POP POP POP JUMP JUMPDEST PUSH0 SWAP1 JUMP JUMPDEST PUSH2 0x581 PUSH2 0x575 JUMP JUMPDEST PUSH2 0x58C DUP2 DUP5 DUP5 PUSH2 0x550 JUMP JUMPDEST POP POP POP JUMP JUMPDEST JUMPDEST DUP2 DUP2 LT ISZERO PUSH2 0x5AF JUMPI PUSH2 0x5A4 PUSH0 DUP3 PUSH2 0x579 JUMP JUMPDEST PUSH1 0x1 DUP2 ADD SWAP1 POP PUSH2 0x592 JUMP JUMPDEST POP POP JUMP JUMPDEST PUSH1 0x1F DUP3 GT ISZERO PUSH2 0x5F4 JUMPI PUSH2 0x5C5 DUP2 PUSH2 0x49F JUMP JUMPDEST PUSH2 0x5CE DUP5 PUSH2 0x4B1 JUMP JUMPDEST DUP2 ADD PUSH1 0x20 DUP6 LT ISZERO PUSH2 0x5DD JUMPI DUP2 SWAP1 POP JUMPDEST PUSH2 0x5F1 PUSH2 0x5E9 DUP6 PUSH2 0x4B1 JUMP JUMPDEST DUP4 ADD DUP3 PUSH2 0x591 JUMP JUMPDEST POP POP JUMPDEST POP POP POP JUMP JUMPDEST PUSH0 DUP3 DUP3 SHR SWAP1 POP SWAP3 SWAP2 POP POP JUMP JUMPDEST PUSH0 PUSH2 0x614 PUSH0 NOT DUP5 PUSH1 0x8 MUL PUSH2 0x5F9 JUMP JUMPDEST NOT DUP1 DUP4 AND SWAP2 POP POP SWAP3 SWAP2 POP POP JUMP JUMPDEST PUSH0 PUSH2 0x62C DUP4 DUP4 PUSH2 0x605 JUMP JUMPDEST SWAP2 POP DUP3 PUSH1 0x2 MUL DUP3 OR SWAP1 POP SWAP3 SWAP2 POP POP JUMP JUMPDEST PUSH2 0x645 DUP3 PUSH2 0x3C2 JUMP JUMPDEST PUSH8 0xFFFFFFFFFFFFFFFF DUP2 GT ISZERO PUSH2 0x65E JUMPI PUSH2 0x65D PUSH2 0x1D9 JUMP JUMPDEST JUMPDEST PUSH2 0x668 DUP3 SLOAD PUSH2 0x46F JUMP JUMPDEST PUSH2 0x673 DUP3 DUP3 DUP6 PUSH2 0x5B3 JUMP JUMPDEST PUSH0 PUSH1 0x20 SWAP1 POP PUSH1 0x1F DUP4 GT PUSH1 0x1 DUP2 EQ PUSH2 0x6A4 JUMPI PUSH0 DUP5 ISZERO PUSH2 0x692 JUMPI DUP3 DUP8 ADD MLOAD SWAP1 POP JUMPDEST PUSH2 0x69C DUP6 DUP3 PUSH2 0x621 JUMP JUMPDEST DUP7 SSTORE POP PUSH2 0x703 JUMP JUMPDEST PUSH1 0x1F NOT DUP5 AND PUSH2 0x6B2 DUP7 PUSH2 0x49F JUMP JUMPDEST PUSH0 JUMPDEST DUP3 DUP2 LT ISZERO PUSH2 0x6D9 JUMPI DUP5 DUP10 ADD MLOAD DUP3 SSTORE PUSH1 0x1 DUP3 ADD SWAP2 POP PUSH1 0x20 DUP6 ADD SWAP5 POP PUSH1 0x20 DUP2 ADD SWAP1 POP PUSH2 0x6B4 JUMP JUMPDEST DUP7 DUP4 LT ISZERO PUSH2 0x6F6 JUMPI DUP5 DUP10 ADD MLOAD PUSH2 0x6F2 PUSH1 0x1F DUP10 AND DUP3 PUSH2 0x605 JUMP JUMPDEST DUP4 SSTORE POP JUMPDEST PUSH1 0x1 PUSH1 0x2 DUP9 MUL ADD DUP9 SSTORE POP POP POP JUMPDEST POP POP POP POP POP POP JUMP INVALID LOG2 PUSH5 0x6970667358 0x22 SLT KECCAK256 EXTCODEHASH 0xD5 0xF GASPRICE LOG0 PUSH11 0x9AF79D80B612EA2B053816 TSTORE SWAP16 0xF6 PUSH20 0xAE0DB4BFC0018B2FD52CD264736F6C634300081A STOP CALLER "
				},
				"gasEstimates": {
					"creation": {
						"codeDepositCost": "371400",
						"executionCost": "409",
						"totalCost": "371809"
					},
					"external": {
						"foo(string,uint256)": "infinite",
						"message()": "infinite",
						"x()": "2403"
					}
				},
				"methodIdentifiers": {
					"foo(string,uint256)": "24ccab8f",
					"message()": "e21f37ce",
					"x()": "0c55699c"
				}
			},
			"storageLayout": {
				"storage": [
					{
						"astId": 3,
						"contract": "042TestCall.sol:TestCaler",
						"label": "message",
						"offset": 0,
						"slot": "0",
						"type": "t_string_storage"
					},
					{
						"astId": 5,
						"contract": "042TestCall.sol:TestCaler",
						"label": "x",
						"offset": 0,
						"slot": "1",
						"type": "t_uint256"
					}
				],
				"types": {
					"t_string_storage": {
						"encoding": "bytes",
						"label": "string",
						"numberOfBytes": "32"
					},
					"t_uint256": {
						"encoding": "inplace",
						"label": "uint256",
						"numberOfBytes": "32"
					}
				}
			},
			"userdoc": {
				"kind": "user",
				"methods": {},
				"version": 1
			}
		}
	}
}