{
	"038SendEth.sol": {
		"SenderEther": {
			"abi": [
				{
					"inputs": [],
					"stateMutability": "payable",
					"type": "constructor"
				},
				{
					"inputs": [
						{
							"internalType": "address payable",
							"name": "_to",
							"type": "address"
						}
					],
					"name": "sendVaiCall",
					"outputs": [],
					"stateMutability": "payable",
					"type": "function"
				},
				{
					"inputs": [
						{
							"internalType": "address payable",
							"name": "_to",
							"type": "address"
						}
					],
					"name": "sendVaiSend",
					"outputs": [],
					"stateMutability": "payable",
					"type": "function"
				},
				{
					"inputs": [
						{
							"internalType": "address payable",
							"name": "_to",
							"type": "address"
						}
					],
					"name": "sendVaiTransfer",
					"outputs": [],
					"stateMutability": "payable",
					"type": "function"
				},
				{
					"stateMutability": "payable",
					"type": "receive"
				}
			],
			"devdoc": {
				"kind": "dev",
				"methods": {},
				"version": 1
			},
			"evm": {
				"assembly": "    /* \"038SendEth.sol\":56:552  contract SenderEther{... */\n  mstore(0x40, 0x80)\n  dataSize(sub_0)\n  dup1\n  dataOffset(sub_0)\n  0x00\n  codecopy\n  0x00\n  return\nstop\n\nsub_0: assembly {\n        /* \"038SendEth.sol\":56:552  contract SenderEther{... */\n      mstore(0x40, 0x80)\n      jumpi(tag_1, lt(calldatasize, 0x04))\n      shr(0xe0, calldataload(0x00))\n      dup1\n      0x1d6ed79e\n      eq\n      tag_3\n      jumpi\n      dup1\n      0x84754a3e\n      eq\n      tag_4\n      jumpi\n      dup1\n      0xa89caaed\n      eq\n      tag_5\n      jumpi\n      jump(tag_2)\n    tag_1:\n      jumpi(tag_2, calldatasize)\n      stop\n    tag_2:\n      0x00\n      dup1\n      revert\n        /* \"038SendEth.sol\":401:550  function sendVaiCall(address payable _to) external payable {... */\n    tag_3:\n      tag_8\n      0x04\n      dup1\n      calldatasize\n      sub\n      dup2\n      add\n      swap1\n      tag_9\n      swap2\n      swap1\n      tag_10\n      jump\t// in\n    tag_9:\n      tag_11\n      jump\t// in\n    tag_8:\n      stop\n        /* \"038SendEth.sol\":154:257  function sendVaiTransfer(address payable _to) external payable {... */\n    tag_4:\n      tag_12\n      0x04\n      dup1\n      calldatasize\n      sub\n      dup2\n      add\n      swap1\n      tag_13\n      swap2\n      swap1\n      tag_10\n      jump\t// in\n    tag_13:\n      tag_14\n      jump\t// in\n    tag_12:\n      stop\n        /* \"038SendEth.sol\":263:395  function sendVaiSend(address payable _to) external payable {... */\n    tag_5:\n      tag_15\n      0x04\n      dup1\n      calldatasize\n      sub\n      dup2\n      add\n      swap1\n      tag_16\n      swap2\n      swap1\n      tag_10\n      jump\t// in\n    tag_16:\n      tag_17\n      jump\t// in\n    tag_15:\n      stop\n        /* \"038SendEth.sol\":401:550  function sendVaiCall(address payable _to) external payable {... */\n    tag_11:\n        /* \"038SendEth.sol\":469:481  bool success */\n      0x00\n        /* \"038SendEth.sol\":487:490  _to */\n      dup2\n        /* \"038SendEth.sol\":487:495  _to.call */\n      0xffffffffffffffffffffffffffffffffffffffff\n      and\n        /* \"038SendEth.sol\":502:505  123 */\n      0x7b\n        /* \"038SendEth.sol\":487:510  _to.call{value:123}(\"\") */\n      mload(0x40)\n      tag_19\n      swap1\n      tag_20\n      jump\t// in\n    tag_19:\n      0x00\n      mload(0x40)\n      dup1\n      dup4\n      sub\n      dup2\n      dup6\n      dup8\n      gas\n      call\n      swap3\n      pop\n      pop\n      pop\n      returndatasize\n      dup1\n      0x00\n      dup2\n      eq\n      tag_23\n      jumpi\n      mload(0x40)\n      swap2\n      pop\n      and(add(returndatasize, 0x3f), not(0x1f))\n      dup3\n      add\n      0x40\n      mstore\n      returndatasize\n      dup3\n      mstore\n      returndatasize\n      0x00\n      0x20\n      dup5\n      add\n      returndatacopy\n      jump(tag_22)\n    tag_23:\n      0x60\n      swap2\n      pop\n    tag_22:\n      pop\n        /* \"038SendEth.sol\":468:510  (bool success,)=   _to.call{value:123}(\"\") */\n      pop\n      swap1\n      pop\n        /* \"038SendEth.sol\":526:533  success */\n      dup1\n        /* \"038SendEth.sol\":518:542  require(success,\"error\") */\n      tag_24\n      jumpi\n      mload(0x40)\n      0x08c379a000000000000000000000000000000000000000000000000000000000\n      dup2\n      mstore\n      0x04\n      add\n      tag_25\n      swap1\n      tag_26\n      jump\t// in\n    tag_25:\n      mload(0x40)\n      dup1\n      swap2\n      sub\n      swap1\n      revert\n    tag_24:\n        /* \"038SendEth.sol\":460:550  {... */\n      pop\n        /* \"038SendEth.sol\":401:550  function sendVaiCall(address payable _to) external payable {... */\n      pop\n      jump\t// out\n        /* \"038SendEth.sol\":154:257  function sendVaiTransfer(address payable _to) external payable {... */\n    tag_14:\n        /* \"038SendEth.sol\":227:230  _to */\n      dup1\n        /* \"038SendEth.sol\":227:239  _to.transfer */\n      0xffffffffffffffffffffffffffffffffffffffff\n      and\n        /* \"038SendEth.sol\":227:250  _to.transfer(msg.value) */\n      0x08fc\n        /* \"038SendEth.sol\":240:249  msg.value */\n      callvalue\n        /* \"038SendEth.sol\":227:250  _to.transfer(msg.value) */\n      swap1\n      dup2\n      iszero\n      mul\n      swap1\n      mload(0x40)\n      0x00\n      mload(0x40)\n      dup1\n      dup4\n      sub\n      dup2\n      dup6\n      dup9\n      dup9\n      call\n      swap4\n      pop\n      pop\n      pop\n      pop\n      iszero\n      dup1\n      iszero\n      tag_29\n      jumpi\n      returndatasize\n      0x00\n      dup1\n      returndatacopy\n      revert(0x00, returndatasize)\n    tag_29:\n      pop\n        /* \"038SendEth.sol\":154:257  function sendVaiTransfer(address payable _to) external payable {... */\n      pop\n      jump\t// out\n        /* \"038SendEth.sol\":263:395  function sendVaiSend(address payable _to) external payable {... */\n    tag_17:\n        /* \"038SendEth.sol\":331:340  bool sent */\n      0x00\n        /* \"038SendEth.sol\":344:347  _to */\n      dup2\n        /* \"038SendEth.sol\":344:352  _to.send */\n      0xffffffffffffffffffffffffffffffffffffffff\n      and\n        /* \"038SendEth.sol\":344:357  _to.send(123) */\n      0x08fc\n        /* \"038SendEth.sol\":353:356  123 */\n      0x7b\n        /* \"038SendEth.sol\":344:357  _to.send(123) */\n      swap1\n      dup2\n      iszero\n      mul\n      swap1\n      mload(0x40)\n      0x00\n      mload(0x40)\n      dup1\n      dup4\n      sub\n      dup2\n      dup6\n      dup9\n      dup9\n      call\n      swap4\n      pop\n      pop\n      pop\n      pop\n        /* \"038SendEth.sol\":331:357  bool sent =  _to.send(123) */\n      swap1\n      pop\n        /* \"038SendEth.sol\":374:378  sent */\n      dup1\n        /* \"038SendEth.sol\":366:387  require(sent,\"error\") */\n      tag_32\n      jumpi\n      mload(0x40)\n      0x08c379a000000000000000000000000000000000000000000000000000000000\n      dup2\n      mstore\n      0x04\n      add\n      tag_33\n      swap1\n      tag_26\n      jump\t// in\n    tag_33:\n      mload(0x40)\n      dup1\n      swap2\n      sub\n      swap1\n      revert\n    tag_32:\n        /* \"038SendEth.sol\":322:395  {... */\n      pop\n        /* \"038SendEth.sol\":263:395  function sendVaiSend(address payable _to) external payable {... */\n      pop\n      jump\t// out\n        /* \"#utility.yul\":88:205   */\n    tag_35:\n        /* \"#utility.yul\":197:198   */\n      0x00\n        /* \"#utility.yul\":194:195   */\n      dup1\n        /* \"#utility.yul\":187:199   */\n      revert\n        /* \"#utility.yul\":334:460   */\n    tag_37:\n        /* \"#utility.yul\":371:378   */\n      0x00\n        /* \"#utility.yul\":411:453   */\n      0xffffffffffffffffffffffffffffffffffffffff\n        /* \"#utility.yul\":404:409   */\n      dup3\n        /* \"#utility.yul\":400:454   */\n      and\n        /* \"#utility.yul\":389:454   */\n      swap1\n      pop\n        /* \"#utility.yul\":334:460   */\n      swap2\n      swap1\n      pop\n      jump\t// out\n        /* \"#utility.yul\":466:570   */\n    tag_38:\n        /* \"#utility.yul\":511:518   */\n      0x00\n        /* \"#utility.yul\":540:564   */\n      tag_53\n        /* \"#utility.yul\":558:563   */\n      dup3\n        /* \"#utility.yul\":540:564   */\n      tag_37\n      jump\t// in\n    tag_53:\n        /* \"#utility.yul\":529:564   */\n      swap1\n      pop\n        /* \"#utility.yul\":466:570   */\n      swap2\n      swap1\n      pop\n      jump\t// out\n        /* \"#utility.yul\":576:714   */\n    tag_39:\n        /* \"#utility.yul\":657:689   */\n      tag_55\n        /* \"#utility.yul\":683:688   */\n      dup2\n        /* \"#utility.yul\":657:689   */\n      tag_38\n      jump\t// in\n    tag_55:\n        /* \"#utility.yul\":650:655   */\n      dup2\n        /* \"#utility.yul\":647:690   */\n      eq\n        /* \"#utility.yul\":637:708   */\n      tag_56\n      jumpi\n        /* \"#utility.yul\":704:705   */\n      0x00\n        /* \"#utility.yul\":701:702   */\n      dup1\n        /* \"#utility.yul\":694:706   */\n      revert\n        /* \"#utility.yul\":637:708   */\n    tag_56:\n        /* \"#utility.yul\":576:714   */\n      pop\n      jump\t// out\n        /* \"#utility.yul\":720:875   */\n    tag_40:\n        /* \"#utility.yul\":774:779   */\n      0x00\n        /* \"#utility.yul\":812:818   */\n      dup2\n        /* \"#utility.yul\":799:819   */\n      calldataload\n        /* \"#utility.yul\":790:819   */\n      swap1\n      pop\n        /* \"#utility.yul\":828:869   */\n      tag_58\n        /* \"#utility.yul\":863:868   */\n      dup2\n        /* \"#utility.yul\":828:869   */\n      tag_39\n      jump\t// in\n    tag_58:\n        /* \"#utility.yul\":720:875   */\n      swap3\n      swap2\n      pop\n      pop\n      jump\t// out\n        /* \"#utility.yul\":881:1226   */\n    tag_10:\n        /* \"#utility.yul\":948:954   */\n      0x00\n        /* \"#utility.yul\":997:999   */\n      0x20\n        /* \"#utility.yul\":985:994   */\n      dup3\n        /* \"#utility.yul\":976:983   */\n      dup5\n        /* \"#utility.yul\":972:995   */\n      sub\n        /* \"#utility.yul\":968:1000   */\n      slt\n        /* \"#utility.yul\":965:1084   */\n      iszero\n      tag_60\n      jumpi\n        /* \"#utility.yul\":1003:1082   */\n      tag_61\n      tag_35\n      jump\t// in\n    tag_61:\n        /* \"#utility.yul\":965:1084   */\n    tag_60:\n        /* \"#utility.yul\":1123:1124   */\n      0x00\n        /* \"#utility.yul\":1148:1209   */\n      tag_62\n        /* \"#utility.yul\":1201:1208   */\n      dup5\n        /* \"#utility.yul\":1192:1198   */\n      dup3\n        /* \"#utility.yul\":1181:1190   */\n      dup6\n        /* \"#utility.yul\":1177:1199   */\n      add\n        /* \"#utility.yul\":1148:1209   */\n      tag_40\n      jump\t// in\n    tag_62:\n        /* \"#utility.yul\":1138:1209   */\n      swap2\n      pop\n        /* \"#utility.yul\":1094:1219   */\n      pop\n        /* \"#utility.yul\":881:1226   */\n      swap3\n      swap2\n      pop\n      pop\n      jump\t// out\n        /* \"#utility.yul\":1232:1379   */\n    tag_41:\n        /* \"#utility.yul\":1333:1344   */\n      0x00\n        /* \"#utility.yul\":1370:1373   */\n      dup2\n        /* \"#utility.yul\":1355:1373   */\n      swap1\n      pop\n        /* \"#utility.yul\":1232:1379   */\n      swap3\n      swap2\n      pop\n      pop\n      jump\t// out\n        /* \"#utility.yul\":1385:1499   */\n    tag_42:\n      pop\n      jump\t// out\n        /* \"#utility.yul\":1505:1903   */\n    tag_43:\n        /* \"#utility.yul\":1664:1667   */\n      0x00\n        /* \"#utility.yul\":1685:1768   */\n      tag_66\n        /* \"#utility.yul\":1766:1767   */\n      0x00\n        /* \"#utility.yul\":1761:1764   */\n      dup4\n        /* \"#utility.yul\":1685:1768   */\n      tag_41\n      jump\t// in\n    tag_66:\n        /* \"#utility.yul\":1678:1768   */\n      swap2\n      pop\n        /* \"#utility.yul\":1777:1870   */\n      tag_67\n        /* \"#utility.yul\":1866:1869   */\n      dup3\n        /* \"#utility.yul\":1777:1870   */\n      tag_42\n      jump\t// in\n    tag_67:\n        /* \"#utility.yul\":1895:1896   */\n      0x00\n        /* \"#utility.yul\":1890:1893   */\n      dup3\n        /* \"#utility.yul\":1886:1897   */\n      add\n        /* \"#utility.yul\":1879:1897   */\n      swap1\n      pop\n        /* \"#utility.yul\":1505:1903   */\n      swap2\n      swap1\n      pop\n      jump\t// out\n        /* \"#utility.yul\":1909:2288   */\n    tag_20:\n        /* \"#utility.yul\":2093:2096   */\n      0x00\n        /* \"#utility.yul\":2115:2262   */\n      tag_69\n        /* \"#utility.yul\":2258:2261   */\n      dup3\n        /* \"#utility.yul\":2115:2262   */\n      tag_43\n      jump\t// in\n    tag_69:\n        /* \"#utility.yul\":2108:2262   */\n      swap2\n      pop\n        /* \"#utility.yul\":2279:2282   */\n      dup2\n        /* \"#utility.yul\":2272:2282   */\n      swap1\n      pop\n        /* \"#utility.yul\":1909:2288   */\n      swap2\n      swap1\n      pop\n      jump\t// out\n        /* \"#utility.yul\":2294:2463   */\n    tag_44:\n        /* \"#utility.yul\":2378:2389   */\n      0x00\n        /* \"#utility.yul\":2412:2418   */\n      dup3\n        /* \"#utility.yul\":2407:2410   */\n      dup3\n        /* \"#utility.yul\":2400:2419   */\n      mstore\n        /* \"#utility.yul\":2452:2456   */\n      0x20\n        /* \"#utility.yul\":2447:2450   */\n      dup3\n        /* \"#utility.yul\":2443:2457   */\n      add\n        /* \"#utility.yul\":2428:2457   */\n      swap1\n      pop\n        /* \"#utility.yul\":2294:2463   */\n      swap3\n      swap2\n      pop\n      pop\n      jump\t// out\n        /* \"#utility.yul\":2469:2624   */\n    tag_45:\n        /* \"#utility.yul\":2609:2616   */\n      0x6572726f72000000000000000000000000000000000000000000000000000000\n        /* \"#utility.yul\":2605:2606   */\n      0x00\n        /* \"#utility.yul\":2597:2603   */\n      dup3\n        /* \"#utility.yul\":2593:2607   */\n      add\n        /* \"#utility.yul\":2586:2617   */\n      mstore\n        /* \"#utility.yul\":2469:2624   */\n      pop\n      jump\t// out\n        /* \"#utility.yul\":2630:2995   */\n    tag_46:\n        /* \"#utility.yul\":2772:2775   */\n      0x00\n        /* \"#utility.yul\":2793:2859   */\n      tag_73\n        /* \"#utility.yul\":2857:2858   */\n      0x05\n        /* \"#utility.yul\":2852:2855   */\n      dup4\n        /* \"#utility.yul\":2793:2859   */\n      tag_44\n      jump\t// in\n    tag_73:\n        /* \"#utility.yul\":2786:2859   */\n      swap2\n      pop\n        /* \"#utility.yul\":2868:2961   */\n      tag_74\n        /* \"#utility.yul\":2957:2960   */\n      dup3\n        /* \"#utility.yul\":2868:2961   */\n      tag_45\n      jump\t// in\n    tag_74:\n        /* \"#utility.yul\":2986:2988   */\n      0x20\n        /* \"#utility.yul\":2981:2984   */\n      dup3\n        /* \"#utility.yul\":2977:2989   */\n      add\n        /* \"#utility.yul\":2970:2989   */\n      swap1\n      pop\n        /* \"#utility.yul\":2630:2995   */\n      swap2\n      swap1\n      pop\n      jump\t// out\n        /* \"#utility.yul\":3001:3420   */\n    tag_26:\n        /* \"#utility.yul\":3167:3171   */\n      0x00\n        /* \"#utility.yul\":3205:3207   */\n      0x20\n        /* \"#utility.yul\":3194:3203   */\n      dup3\n        /* \"#utility.yul\":3190:3208   */\n      add\n        /* \"#utility.yul\":3182:3208   */\n      swap1\n      pop\n        /* \"#utility.yul\":3254:3263   */\n      dup2\n        /* \"#utility.yul\":3248:3252   */\n      dup2\n        /* \"#utility.yul\":3244:3264   */\n      sub\n        /* \"#utility.yul\":3240:3241   */\n      0x00\n        /* \"#utility.yul\":3229:3238   */\n      dup4\n        /* \"#utility.yul\":3225:3242   */\n      add\n        /* \"#utility.yul\":3218:3265   */\n      mstore\n        /* \"#utility.yul\":3282:3413   */\n      tag_76\n        /* \"#utility.yul\":3408:3412   */\n      dup2\n        /* \"#utility.yul\":3282:3413   */\n      tag_46\n      jump\t// in\n    tag_76:\n        /* \"#utility.yul\":3274:3413   */\n      swap1\n      pop\n        /* \"#utility.yul\":3001:3420   */\n      swap2\n      swap1\n      pop\n      jump\t// out\n\n    auxdata: 0xa2646970667358221220d0c5288ed2cc3a0a3ecffa949352a89343228b0e1f47c16cba9759d1f0a4f27764736f6c634300081a0033\n}\n",
				"bytecode": {
					"linkReferences": {},
					"object": "608060405261037e806100115f395ff3fe608060405260043610610037575f3560e01c80631d6ed79e1461004257806384754a3e1461005e578063a89caaed1461007a5761003e565b3661003e57005b5f80fd5b61005c60048036038101906100579190610264565b610096565b005b61007860048036038101906100739190610264565b610143565b005b610094600480360381019061008f9190610264565b61018a565b005b5f8173ffffffffffffffffffffffffffffffffffffffff16607b6040516100bc906102bc565b5f6040518083038185875af1925050503d805f81146100f6576040519150601f19603f3d011682016040523d82523d5f602084013e6100fb565b606091505b505090508061013f576040517f08c379a00000000000000000000000000000000000000000000000000000000081526004016101369061032a565b60405180910390fd5b5050565b8073ffffffffffffffffffffffffffffffffffffffff166108fc3490811502906040515f60405180830381858888f19350505050158015610186573d5f803e3d5ffd5b5050565b5f8173ffffffffffffffffffffffffffffffffffffffff166108fc607b90811502906040515f60405180830381858888f19350505050905080610202576040517f08c379a00000000000000000000000000000000000000000000000000000000081526004016101f99061032a565b60405180910390fd5b5050565b5f80fd5b5f73ffffffffffffffffffffffffffffffffffffffff82169050919050565b5f6102338261020a565b9050919050565b61024381610229565b811461024d575f80fd5b50565b5f8135905061025e8161023a565b92915050565b5f6020828403121561027957610278610206565b5b5f61028684828501610250565b91505092915050565b5f81905092915050565b50565b5f6102a75f8361028f565b91506102b282610299565b5f82019050919050565b5f6102c68261029c565b9150819050919050565b5f82825260208201905092915050565b7f6572726f720000000000000000000000000000000000000000000000000000005f82015250565b5f6103146005836102d0565b915061031f826102e0565b602082019050919050565b5f6020820190508181035f83015261034181610308565b905091905056fea2646970667358221220d0c5288ed2cc3a0a3ecffa949352a89343228b0e1f47c16cba9759d1f0a4f27764736f6c634300081a0033",
					"opcodes": "PUSH1 0x80 PUSH1 0x40 MSTORE PUSH2 0x37E DUP1 PUSH2 0x11 PUSH0 CODECOPY PUSH0 RETURN INVALID PUSH1 0x80 PUSH1 0x40 MSTORE PUSH1 0x4 CALLDATASIZE LT PUSH2 0x37 JUMPI PUSH0 CALLDATALOAD PUSH1 0xE0 SHR DUP1 PUSH4 0x1D6ED79E EQ PUSH2 0x42 JUMPI DUP1 PUSH4 0x84754A3E EQ PUSH2 0x5E JUMPI DUP1 PUSH4 0xA89CAAED EQ PUSH2 0x7A JUMPI PUSH2 0x3E JUMP JUMPDEST CALLDATASIZE PUSH2 0x3E JUMPI STOP JUMPDEST PUSH0 DUP1 REVERT JUMPDEST PUSH2 0x5C PUSH1 0x4 DUP1 CALLDATASIZE SUB DUP2 ADD SWAP1 PUSH2 0x57 SWAP2 SWAP1 PUSH2 0x264 JUMP JUMPDEST PUSH2 0x96 JUMP JUMPDEST STOP JUMPDEST PUSH2 0x78 PUSH1 0x4 DUP1 CALLDATASIZE SUB DUP2 ADD SWAP1 PUSH2 0x73 SWAP2 SWAP1 PUSH2 0x264 JUMP JUMPDEST PUSH2 0x143 JUMP JUMPDEST STOP JUMPDEST PUSH2 0x94 PUSH1 0x4 DUP1 CALLDATASIZE SUB DUP2 ADD SWAP1 PUSH2 0x8F SWAP2 SWAP1 PUSH2 0x264 JUMP JUMPDEST PUSH2 0x18A JUMP JUMPDEST STOP JUMPDEST PUSH0 DUP2 PUSH20 0xFFFFFFFFFFFFFFFFFFFFFFFFFFFFFFFFFFFFFFFF AND PUSH1 0x7B PUSH1 0x40 MLOAD PUSH2 0xBC SWAP1 PUSH2 0x2BC JUMP JUMPDEST PUSH0 PUSH1 0x40 MLOAD DUP1 DUP4 SUB DUP2 DUP6 DUP8 GAS CALL SWAP3 POP POP POP RETURNDATASIZE DUP1 PUSH0 DUP2 EQ PUSH2 0xF6 JUMPI PUSH1 0x40 MLOAD SWAP2 POP PUSH1 0x1F NOT PUSH1 0x3F RETURNDATASIZE ADD AND DUP3 ADD PUSH1 0x40 MSTORE RETURNDATASIZE DUP3 MSTORE RETURNDATASIZE PUSH0 PUSH1 0x20 DUP5 ADD RETURNDATACOPY PUSH2 0xFB JUMP JUMPDEST PUSH1 0x60 SWAP2 POP JUMPDEST POP POP SWAP1 POP DUP1 PUSH2 0x13F JUMPI PUSH1 0x40 MLOAD PUSH32 0x8C379A000000000000000000000000000000000000000000000000000000000 DUP2 MSTORE PUSH1 0x4 ADD PUSH2 0x136 SWAP1 PUSH2 0x32A JUMP JUMPDEST PUSH1 0x40 MLOAD DUP1 SWAP2 SUB SWAP1 REVERT JUMPDEST POP POP JUMP JUMPDEST DUP1 PUSH20 0xFFFFFFFFFFFFFFFFFFFFFFFFFFFFFFFFFFFFFFFF AND PUSH2 0x8FC CALLVALUE SWAP1 DUP2 ISZERO MUL SWAP1 PUSH1 0x40 MLOAD PUSH0 PUSH1 0x40 MLOAD DUP1 DUP4 SUB DUP2 DUP6 DUP9 DUP9 CALL SWAP4 POP POP POP POP ISZERO DUP1 ISZERO PUSH2 0x186 JUMPI RETURNDATASIZE PUSH0 DUP1 RETURNDATACOPY RETURNDATASIZE PUSH0 REVERT JUMPDEST POP POP JUMP JUMPDEST PUSH0 DUP2 PUSH20 0xFFFFFFFFFFFFFFFFFFFFFFFFFFFFFFFFFFFFFFFF AND PUSH2 0x8FC PUSH1 0x7B SWAP1 DUP2 ISZERO MUL SWAP1 PUSH1 0x40 MLOAD PUSH0 PUSH1 0x40 MLOAD DUP1 DUP4 SUB DUP2 DUP6 DUP9 DUP9 CALL SWAP4 POP POP POP POP SWAP1 POP DUP1 PUSH2 0x202 JUMPI PUSH1 0x40 MLOAD PUSH32 0x8C379A000000000000000000000000000000000000000000000000000000000 DUP2 MSTORE PUSH1 0x4 ADD PUSH2 0x1F9 SWAP1 PUSH2 0x32A JUMP JUMPDEST PUSH1 0x40 MLOAD DUP1 SWAP2 SUB SWAP1 REVERT JUMPDEST POP POP JUMP JUMPDEST PUSH0 DUP1 REVERT JUMPDEST PUSH0 PUSH20 0xFFFFFFFFFFFFFFFFFFFFFFFFFFFFFFFFFFFFFFFF DUP3 AND SWAP1 POP SWAP2 SWAP1 POP JUMP JUMPDEST PUSH0 PUSH2 0x233 DUP3 PUSH2 0x20A JUMP JUMPDEST SWAP1 POP SWAP2 SWAP1 POP JUMP JUMPDEST PUSH2 0x243 DUP2 PUSH2 0x229 JUMP JUMPDEST DUP2 EQ PUSH2 0x24D JUMPI PUSH0 DUP1 REVERT JUMPDEST POP JUMP JUMPDEST PUSH0 DUP2 CALLDATALOAD SWAP1 POP PUSH2 0x25E DUP2 PUSH2 0x23A JUMP JUMPDEST SWAP3 SWAP2 POP POP JUMP JUMPDEST PUSH0 PUSH1 0x20 DUP3 DUP5 SUB SLT ISZERO PUSH2 0x279 JUMPI PUSH2 0x278 PUSH2 0x206 JUMP JUMPDEST JUMPDEST PUSH0 PUSH2 0x286 DUP5 DUP3 DUP6 ADD PUSH2 0x250 JUMP JUMPDEST SWAP2 POP POP SWAP3 SWAP2 POP POP JUMP JUMPDEST PUSH0 DUP2 SWAP1 POP SWAP3 SWAP2 POP POP JUMP JUMPDEST POP JUMP JUMPDEST PUSH0 PUSH2 0x2A7 PUSH0 DUP4 PUSH2 0x28F JUMP JUMPDEST SWAP2 POP PUSH2 0x2B2 DUP3 PUSH2 0x299 JUMP JUMPDEST PUSH0 DUP3 ADD SWAP1 POP SWAP2 SWAP1 POP JUMP JUMPDEST PUSH0 PUSH2 0x2C6 DUP3 PUSH2 0x29C JUMP JUMPDEST SWAP2 POP DUP2 SWAP1 POP SWAP2 SWAP1 POP JUMP JUMPDEST PUSH0 DUP3 DUP3 MSTORE PUSH1 0x20 DUP3 ADD SWAP1 POP SWAP3 SWAP2 POP POP JUMP JUMPDEST PUSH32 0x6572726F72000000000000000000000000000000000000000000000000000000 PUSH0 DUP3 ADD MSTORE POP JUMP JUMPDEST PUSH0 PUSH2 0x314 PUSH1 0x5 DUP4 PUSH2 0x2D0 JUMP JUMPDEST SWAP2 POP PUSH2 0x31F DUP3 PUSH2 0x2E0 JUMP JUMPDEST PUSH1 0x20 DUP3 ADD SWAP1 POP SWAP2 SWAP1 POP JUMP JUMPDEST PUSH0 PUSH1 0x20 DUP3 ADD SWAP1 POP DUP2 DUP2 SUB PUSH0 DUP4 ADD MSTORE PUSH2 0x341 DUP2 PUSH2 0x308 JUMP JUMPDEST SWAP1 POP SWAP2 SWAP1 POP JUMP INVALID LOG2 PUSH5 0x6970667358 0x22 SLT KECCAK256 0xD0 0xC5 0x28 DUP15 0xD2 0xCC GASPRICE EXP RETURNDATACOPY 0xCF STATICCALL SWAP5 SWAP4 MSTORE 0xA8 SWAP4 NUMBER 0x22 DUP12 0xE 0x1F SELFBALANCE 0xC1 PUSH13 0xBA9759D1F0A4F27764736F6C63 NUMBER STOP ADDMOD BYTE STOP CALLER "
				},
				"gasEstimates": {
					"creation": {
						"codeDepositCost": "178800",
						"executionCost": "194",
						"totalCost": "178994"
					},
					"external": {
						"sendVaiCall(address)": "infinite",
						"sendVaiSend(address)": "infinite",
						"sendVaiTransfer(address)": "infinite"
					}
				},
				"methodIdentifiers": {
					"sendVaiCall(address)": "1d6ed79e",
					"sendVaiSend(address)": "a89caaed",
					"sendVaiTransfer(address)": "84754a3e"
				}
			},
			"storageLayout": {
				"storage": [],
				"types": null
			},
			"userdoc": {
				"kind": "user",
				"methods": {},
				"version": 1
			}
		}
	}
}