{
	"test.sol": {
		"Loaclariables": {
			"abi": [
				{
					"inputs": [],
					"name": "foo",
					"outputs": [],
					"stateMutability": "nonpayable",
					"type": "function"
				},
				{
					"inputs": [],
					"name": "myUnit",
					"outputs": [
						{
							"internalType": "uint256",
							"name": "",
							"type": "uint256"
						}
					],
					"stateMutability": "view",
					"type": "function"
				}
			],
			"devdoc": {
				"kind": "dev",
				"methods": {},
				"version": 1
			},
			"evm": {
				"assembly": "    /* \"test.sol\":878:1188  contract Loaclariables{... */\n  mstore(0x40, 0x80)\n    /* \"test.sol\":1002:1005  123 */\n  0x7b\n    /* \"test.sol\":980:1005  uint public   myUnit =123 */\n  0x00\n  sstore\n    /* \"test.sol\":878:1188  contract Loaclariables{... */\n  callvalue\n  dup1\n  iszero\n  tag_1\n  jumpi\n  0x00\n  dup1\n  revert\ntag_1:\n  pop\n  dataSize(sub_0)\n  dup1\n  dataOffset(sub_0)\n  0x00\n  codecopy\n  0x00\n  return\nstop\n\nsub_0: assembly {\n        /* \"test.sol\":878:1188  contract Loaclariables{... */\n      mstore(0x40, 0x80)\n      callvalue\n      dup1\n      iszero\n      tag_1\n      jumpi\n      0x00\n      dup1\n      revert\n    tag_1:\n      pop\n      jumpi(tag_2, lt(calldatasize, 0x04))\n      shr(0xe0, calldataload(0x00))\n      dup1\n      0x6a345bb4\n      eq\n      tag_3\n      jumpi\n      dup1\n      0xc2985578\n      eq\n      tag_4\n      jumpi\n    tag_2:\n      0x00\n      dup1\n      revert\n        /* \"test.sol\":980:1005  uint public   myUnit =123 */\n    tag_3:\n      tag_5\n      tag_6\n      jump\t// in\n    tag_5:\n      mload(0x40)\n      tag_7\n      swap2\n      swap1\n      tag_8\n      jump\t// in\n    tag_7:\n      mload(0x40)\n      dup1\n      swap2\n      sub\n      swap1\n      return\n        /* \"test.sol\":1011:1186  function foo() external {... */\n    tag_4:\n      tag_9\n      tag_10\n      jump\t// in\n    tag_9:\n      stop\n        /* \"test.sol\":980:1005  uint public   myUnit =123 */\n    tag_6:\n      sload(0x00)\n      dup2\n      jump\t// out\n        /* \"test.sol\":1011:1186  function foo() external {... */\n    tag_10:\n        /* \"test.sol\":1070:1082  uint ocalVal */\n      0x00\n        /* \"test.sol\":1085:1088  123 */\n      0x7b\n        /* \"test.sol\":1070:1088  uint ocalVal = 123 */\n      swap1\n      pop\n        /* \"test.sol\":1100:1106  bool f */\n      0x00\n        /* \"test.sol\":1134:1137  456 */\n      0x01c8\n        /* \"test.sol\":1124:1137  ocalVal+= 456 */\n      dup3\n      tag_12\n      swap2\n      swap1\n      tag_13\n      jump\t// in\n    tag_12:\n      swap2\n      pop\n        /* \"test.sol\":1151:1155  true */\n      0x01\n        /* \"test.sol\":1147:1155  f = true */\n      swap1\n      pop\n        /* \"test.sol\":1176:1179  456 */\n      0x01c8\n        /* \"test.sol\":1166:1172  myUnit */\n      0x00\n      dup1\n        /* \"test.sol\":1166:1179  myUnit += 456 */\n      dup3\n      dup3\n      sload\n      tag_14\n      swap2\n      swap1\n      tag_13\n      jump\t// in\n    tag_14:\n      swap3\n      pop\n      pop\n      dup2\n      swap1\n      sstore\n      pop\n        /* \"test.sol\":1035:1186  {... */\n      pop\n      pop\n        /* \"test.sol\":1011:1186  function foo() external {... */\n      jump\t// out\n        /* \"#utility.yul\":7:84   */\n    tag_15:\n        /* \"#utility.yul\":44:51   */\n      0x00\n        /* \"#utility.yul\":73:78   */\n      dup2\n        /* \"#utility.yul\":62:78   */\n      swap1\n      pop\n        /* \"#utility.yul\":7:84   */\n      swap2\n      swap1\n      pop\n      jump\t// out\n        /* \"#utility.yul\":90:208   */\n    tag_16:\n        /* \"#utility.yul\":177:201   */\n      tag_21\n        /* \"#utility.yul\":195:200   */\n      dup2\n        /* \"#utility.yul\":177:201   */\n      tag_15\n      jump\t// in\n    tag_21:\n        /* \"#utility.yul\":172:175   */\n      dup3\n        /* \"#utility.yul\":165:202   */\n      mstore\n        /* \"#utility.yul\":90:208   */\n      pop\n      pop\n      jump\t// out\n        /* \"#utility.yul\":214:436   */\n    tag_8:\n        /* \"#utility.yul\":307:311   */\n      0x00\n        /* \"#utility.yul\":345:347   */\n      0x20\n        /* \"#utility.yul\":334:343   */\n      dup3\n        /* \"#utility.yul\":330:348   */\n      add\n        /* \"#utility.yul\":322:348   */\n      swap1\n      pop\n        /* \"#utility.yul\":358:429   */\n      tag_23\n        /* \"#utility.yul\":426:427   */\n      0x00\n        /* \"#utility.yul\":415:424   */\n      dup4\n        /* \"#utility.yul\":411:428   */\n      add\n        /* \"#utility.yul\":402:408   */\n      dup5\n        /* \"#utility.yul\":358:429   */\n      tag_16\n      jump\t// in\n    tag_23:\n        /* \"#utility.yul\":214:436   */\n      swap3\n      swap2\n      pop\n      pop\n      jump\t// out\n        /* \"#utility.yul\":442:622   */\n    tag_17:\n        /* \"#utility.yul\":490:567   */\n      0x4e487b7100000000000000000000000000000000000000000000000000000000\n        /* \"#utility.yul\":487:488   */\n      0x00\n        /* \"#utility.yul\":480:568   */\n      mstore\n        /* \"#utility.yul\":587:591   */\n      0x11\n        /* \"#utility.yul\":584:585   */\n      0x04\n        /* \"#utility.yul\":577:592   */\n      mstore\n        /* \"#utility.yul\":611:615   */\n      0x24\n        /* \"#utility.yul\":608:609   */\n      0x00\n        /* \"#utility.yul\":601:616   */\n      revert\n        /* \"#utility.yul\":628:819   */\n    tag_13:\n        /* \"#utility.yul\":668:671   */\n      0x00\n        /* \"#utility.yul\":687:707   */\n      tag_26\n        /* \"#utility.yul\":705:706   */\n      dup3\n        /* \"#utility.yul\":687:707   */\n      tag_15\n      jump\t// in\n    tag_26:\n        /* \"#utility.yul\":682:707   */\n      swap2\n      pop\n        /* \"#utility.yul\":721:741   */\n      tag_27\n        /* \"#utility.yul\":739:740   */\n      dup4\n        /* \"#utility.yul\":721:741   */\n      tag_15\n      jump\t// in\n    tag_27:\n        /* \"#utility.yul\":716:741   */\n      swap3\n      pop\n        /* \"#utility.yul\":764:765   */\n      dup3\n        /* \"#utility.yul\":761:762   */\n      dup3\n        /* \"#utility.yul\":757:766   */\n      add\n        /* \"#utility.yul\":750:766   */\n      swap1\n      pop\n        /* \"#utility.yul\":785:788   */\n      dup1\n        /* \"#utility.yul\":782:783   */\n      dup3\n        /* \"#utility.yul\":779:789   */\n      gt\n        /* \"#utility.yul\":776:812   */\n      iszero\n      tag_28\n      jumpi\n        /* \"#utility.yul\":792:810   */\n      tag_29\n      tag_17\n      jump\t// in\n    tag_29:\n        /* \"#utility.yul\":776:812   */\n    tag_28:\n        /* \"#utility.yul\":628:819   */\n      swap3\n      swap2\n      pop\n      pop\n      jump\t// out\n\n    auxdata: 0xa2646970667358221220d9c61782ef9dd9469d0b60d4d6fb59336476b06ddcc5b58d10bd2a66acee74f664736f6c634300081a0033\n}\n",
				"bytecode": {
					"linkReferences": {},
					"object": "6080604052607b5f553480156012575f80fd5b50610163806100205f395ff3fe608060405234801561000f575f80fd5b5060043610610034575f3560e01c80636a345bb414610038578063c298557814610056575b5f80fd5b610040610060565b60405161004d91906100b4565b60405180910390f35b61005e610065565b005b5f5481565b5f607b90505f6101c88261007991906100fa565b9150600190506101c85f8082825461009191906100fa565b925050819055505050565b5f819050919050565b6100ae8161009c565b82525050565b5f6020820190506100c75f8301846100a5565b92915050565b7f4e487b71000000000000000000000000000000000000000000000000000000005f52601160045260245ffd5b5f6101048261009c565b915061010f8361009c565b9250828201905080821115610127576101266100cd565b5b9291505056fea2646970667358221220d9c61782ef9dd9469d0b60d4d6fb59336476b06ddcc5b58d10bd2a66acee74f664736f6c634300081a0033",
					"opcodes": "PUSH1 0x80 PUSH1 0x40 MSTORE PUSH1 0x7B PUSH0 SSTORE CALLVALUE DUP1 ISZERO PUSH1 0x12 JUMPI PUSH0 DUP1 REVERT JUMPDEST POP PUSH2 0x163 DUP1 PUSH2 0x20 PUSH0 CODECOPY PUSH0 RETURN INVALID PUSH1 0x80 PUSH1 0x40 MSTORE CALLVALUE DUP1 ISZERO PUSH2 0xF JUMPI PUSH0 DUP1 REVERT JUMPDEST POP PUSH1 0x4 CALLDATASIZE LT PUSH2 0x34 JUMPI PUSH0 CALLDATALOAD PUSH1 0xE0 SHR DUP1 PUSH4 0x6A345BB4 EQ PUSH2 0x38 JUMPI DUP1 PUSH4 0xC2985578 EQ PUSH2 0x56 JUMPI JUMPDEST PUSH0 DUP1 REVERT JUMPDEST PUSH2 0x40 PUSH2 0x60 JUMP JUMPDEST PUSH1 0x40 MLOAD PUSH2 0x4D SWAP2 SWAP1 PUSH2 0xB4 JUMP JUMPDEST PUSH1 0x40 MLOAD DUP1 SWAP2 SUB SWAP1 RETURN JUMPDEST PUSH2 0x5E PUSH2 0x65 JUMP JUMPDEST STOP JUMPDEST PUSH0 SLOAD DUP2 JUMP JUMPDEST PUSH0 PUSH1 0x7B SWAP1 POP PUSH0 PUSH2 0x1C8 DUP3 PUSH2 0x79 SWAP2 SWAP1 PUSH2 0xFA JUMP JUMPDEST SWAP2 POP PUSH1 0x1 SWAP1 POP PUSH2 0x1C8 PUSH0 DUP1 DUP3 DUP3 SLOAD PUSH2 0x91 SWAP2 SWAP1 PUSH2 0xFA JUMP JUMPDEST SWAP3 POP POP DUP2 SWAP1 SSTORE POP POP POP JUMP JUMPDEST PUSH0 DUP2 SWAP1 POP SWAP2 SWAP1 POP JUMP JUMPDEST PUSH2 0xAE DUP2 PUSH2 0x9C JUMP JUMPDEST DUP3 MSTORE POP POP JUMP JUMPDEST PUSH0 PUSH1 0x20 DUP3 ADD SWAP1 POP PUSH2 0xC7 PUSH0 DUP4 ADD DUP5 PUSH2 0xA5 JUMP JUMPDEST SWAP3 SWAP2 POP POP JUMP JUMPDEST PUSH32 0x4E487B7100000000000000000000000000000000000000000000000000000000 PUSH0 MSTORE PUSH1 0x11 PUSH1 0x4 MSTORE PUSH1 0x24 PUSH0 REVERT JUMPDEST PUSH0 PUSH2 0x104 DUP3 PUSH2 0x9C JUMP JUMPDEST SWAP2 POP PUSH2 0x10F DUP4 PUSH2 0x9C JUMP JUMPDEST SWAP3 POP DUP3 DUP3 ADD SWAP1 POP DUP1 DUP3 GT ISZERO PUSH2 0x127 JUMPI PUSH2 0x126 PUSH2 0xCD JUMP JUMPDEST JUMPDEST SWAP3 SWAP2 POP POP JUMP INVALID LOG2 PUSH5 0x6970667358 0x22 SLT KECCAK256 0xD9 0xC6 OR DUP3 0xEF SWAP14 0xD9 CHAINID SWAP14 SIGNEXTEND PUSH1 0xD4 0xD6 0xFB MSIZE CALLER PUSH5 0x76B06DDCC5 0xB5 DUP14 LT 0xBD 0x2A PUSH7 0xACEE74F664736F PUSH13 0x634300081A0033000000000000 "
				},
				"gasEstimates": {
					"creation": {
						"codeDepositCost": "71000",
						"executionCost": "22226",
						"totalCost": "93226"
					},
					"external": {
						"foo()": "infinite",
						"myUnit()": "2402"
					}
				},
				"methodIdentifiers": {
					"foo()": "c2985578",
					"myUnit()": "6a345bb4"
				}
			},
			"storageLayout": {
				"storage": [
					{
						"astId": 75,
						"contract": "test.sol:Loaclariables",
						"label": "myUnit",
						"offset": 0,
						"slot": "0",
						"type": "t_uint256"
					}
				],
				"types": {
					"t_uint256": {
						"encoding": "inplace",
						"label": "uint256",
						"numberOfBytes": "32"
					}
				}
			},
			"userdoc": {
				"kind": "user",
				"methods": {},
				"version": 1
			}
		}
	}
}