{
	"test.sol": {
		"FunctionOutputs": {
			"abi": [
				{
					"inputs": [],
					"name": "assignedReturn",
					"outputs": [
						{
							"internalType": "address",
							"name": "add",
							"type": "address"
						},
						{
							"internalType": "bool",
							"name": "b",
							"type": "bool"
						}
					],
					"stateMutability": "pure",
					"type": "function"
				},
				{
					"inputs": [],
					"name": "test",
					"outputs": [],
					"stateMutability": "pure",
					"type": "function"
				},
				{
					"inputs": [],
					"name": "testNamedReturn",
					"outputs": [
						{
							"internalType": "address",
							"name": "add",
							"type": "address"
						},
						{
							"internalType": "bool",
							"name": "b",
							"type": "bool"
						}
					],
					"stateMutability": "pure",
					"type": "function"
				},
				{
					"inputs": [],
					"name": "testReturn",
					"outputs": [
						{
							"internalType": "address",
							"name": "",
							"type": "address"
						},
						{
							"internalType": "bool",
							"name": "",
							"type": "bool"
						}
					],
					"stateMutability": "pure",
					"type": "function"
				}
			],
			"devdoc": {
				"kind": "dev",
				"methods": {},
				"version": 1
			},
			"evm": {
				"assembly": "    /* \"test.sol\":3458:4161  contract FunctionOutputs{... */\n  mstore(0x40, 0x80)\n  callvalue\n  dup1\n  iszero\n  tag_1\n  jumpi\n  0x00\n  dup1\n  revert\ntag_1:\n  pop\n  dataSize(sub_0)\n  dup1\n  dataOffset(sub_0)\n  0x00\n  codecopy\n  0x00\n  return\nstop\n\nsub_0: assembly {\n        /* \"test.sol\":3458:4161  contract FunctionOutputs{... */\n      mstore(0x40, 0x80)\n      callvalue\n      dup1\n      iszero\n      tag_1\n      jumpi\n      0x00\n      dup1\n      revert\n    tag_1:\n      pop\n      jumpi(tag_2, lt(calldatasize, 0x04))\n      shr(0xe0, calldataload(0x00))\n      dup1\n      0x27d8ae6d\n      eq\n      tag_3\n      jumpi\n      dup1\n      0x2c1bd05d\n      eq\n      tag_4\n      jumpi\n      dup1\n      0xe13a7716\n      eq\n      tag_5\n      jumpi\n      dup1\n      0xf8a8fd6d\n      eq\n      tag_6\n      jumpi\n    tag_2:\n      0x00\n      dup1\n      revert\n        /* \"test.sol\":3674:3873  function testNamedReturn() public pure returns (address add,bool b) {  ... */\n    tag_3:\n      tag_7\n      tag_8\n      jump\t// in\n    tag_7:\n      mload(0x40)\n      tag_9\n      swap3\n      swap2\n      swap1\n      tag_10\n      jump\t// in\n    tag_9:\n      mload(0x40)\n      dup1\n      swap2\n      sub\n      swap1\n      return\n        /* \"test.sol\":3878:4040  function assignedReturn() public pure returns (address add,bool b) {  ... */\n    tag_4:\n      tag_11\n      tag_12\n      jump\t// in\n    tag_11:\n      mload(0x40)\n      tag_13\n      swap3\n      swap2\n      swap1\n      tag_10\n      jump\t// in\n    tag_13:\n      mload(0x40)\n      dup1\n      swap2\n      sub\n      swap1\n      return\n        /* \"test.sol\":3488:3668  function testReturn() public pure  returns (address,bool) {  ... */\n    tag_5:\n      tag_14\n      tag_15\n      jump\t// in\n    tag_14:\n      mload(0x40)\n      tag_16\n      swap3\n      swap2\n      swap1\n      tag_10\n      jump\t// in\n    tag_16:\n      mload(0x40)\n      dup1\n      swap2\n      sub\n      swap1\n      return\n        /* \"test.sol\":4046:4159  function test() public pure {  ... */\n    tag_6:\n      tag_17\n      tag_18\n      jump\t// in\n    tag_17:\n      stop\n        /* \"test.sol\":3674:3873  function testNamedReturn() public pure returns (address add,bool b) {  ... */\n    tag_8:\n        /* \"test.sol\":3722:3733  address add */\n      0x00\n        /* \"test.sol\":3734:3740  bool b */\n      dup1\n        /* \"test.sol\":3769:3811  0x5B38Da6a701c568545dCfcB03FcB875f56beddC4 */\n      0x5b38da6a701c568545dcfcb03fcb875f56beddc4\n        /* \"test.sol\":3813:3817  true */\n      0x01\n        /* \"test.sol\":3754:3818  return(address(0x5B38Da6a701c568545dCfcB03FcB875f56beddC4),true) */\n      swap2\n      pop\n      swap2\n      pop\n        /* \"test.sol\":3674:3873  function testNamedReturn() public pure returns (address add,bool b) {  ... */\n      swap1\n      swap2\n      jump\t// out\n        /* \"test.sol\":3878:4040  function assignedReturn() public pure returns (address add,bool b) {  ... */\n    tag_12:\n        /* \"test.sol\":3925:3936  address add */\n      0x00\n        /* \"test.sol\":3937:3943  bool b */\n      dup1\n        /* \"test.sol\":3972:4014  0x5B38Da6a701c568545dCfcB03FcB875f56beddC4 */\n      0x5b38da6a701c568545dcfcb03fcb875f56beddc4\n        /* \"test.sol\":3957:4015  add =  address(0x5B38Da6a701c568545dCfcB03FcB875f56beddC4) */\n      swap2\n      pop\n        /* \"test.sol\":4029:4033  true */\n      0x01\n        /* \"test.sol\":4025:4033  b = true */\n      swap1\n      pop\n        /* \"test.sol\":3878:4040  function assignedReturn() public pure returns (address add,bool b) {  ... */\n      swap1\n      swap2\n      jump\t// out\n        /* \"test.sol\":3488:3668  function testReturn() public pure  returns (address,bool) {  ... */\n    tag_15:\n        /* \"test.sol\":3532:3539  address */\n      0x00\n        /* \"test.sol\":3540:3544  bool */\n      dup1\n        /* \"test.sol\":3573:3615  0x5B38Da6a701c568545dCfcB03FcB875f56beddC4 */\n      0x5b38da6a701c568545dcfcb03fcb875f56beddc4\n        /* \"test.sol\":3617:3621  true */\n      0x01\n        /* \"test.sol\":3558:3622  return(address(0x5B38Da6a701c568545dCfcB03FcB875f56beddC4),true) */\n      swap2\n      pop\n      swap2\n      pop\n        /* \"test.sol\":3488:3668  function testReturn() public pure  returns (address,bool) {  ... */\n      swap1\n      swap2\n      jump\t// out\n        /* \"test.sol\":4046:4159  function test() public pure {  ... */\n    tag_18:\n        /* \"test.sol\":4086:4098  address _add */\n      0x00\n        /* \"test.sol\":4108:4116  bool  _b */\n      dup1\n        /* \"test.sol\":4140:4152  testReturn() */\n      tag_23\n        /* \"test.sol\":4140:4150  testReturn */\n      tag_15\n        /* \"test.sol\":4140:4152  testReturn() */\n      jump\t// in\n    tag_23:\n        /* \"test.sol\":4126:4152  (_add, _b) =  testReturn() */\n      dup1\n      swap3\n      pop\n      dup2\n      swap4\n      pop\n      pop\n      pop\n        /* \"test.sol\":4074:4159  {  ... */\n      pop\n      pop\n        /* \"test.sol\":4046:4159  function test() public pure {  ... */\n      jump\t// out\n        /* \"#utility.yul\":7:133   */\n    tag_24:\n        /* \"#utility.yul\":44:51   */\n      0x00\n        /* \"#utility.yul\":84:126   */\n      0xffffffffffffffffffffffffffffffffffffffff\n        /* \"#utility.yul\":77:82   */\n      dup3\n        /* \"#utility.yul\":73:127   */\n      and\n        /* \"#utility.yul\":62:127   */\n      swap1\n      pop\n        /* \"#utility.yul\":7:133   */\n      swap2\n      swap1\n      pop\n      jump\t// out\n        /* \"#utility.yul\":139:235   */\n    tag_25:\n        /* \"#utility.yul\":176:183   */\n      0x00\n        /* \"#utility.yul\":205:229   */\n      tag_32\n        /* \"#utility.yul\":223:228   */\n      dup3\n        /* \"#utility.yul\":205:229   */\n      tag_24\n      jump\t// in\n    tag_32:\n        /* \"#utility.yul\":194:229   */\n      swap1\n      pop\n        /* \"#utility.yul\":139:235   */\n      swap2\n      swap1\n      pop\n      jump\t// out\n        /* \"#utility.yul\":241:359   */\n    tag_26:\n        /* \"#utility.yul\":328:352   */\n      tag_34\n        /* \"#utility.yul\":346:351   */\n      dup2\n        /* \"#utility.yul\":328:352   */\n      tag_25\n      jump\t// in\n    tag_34:\n        /* \"#utility.yul\":323:326   */\n      dup3\n        /* \"#utility.yul\":316:353   */\n      mstore\n        /* \"#utility.yul\":241:359   */\n      pop\n      pop\n      jump\t// out\n        /* \"#utility.yul\":365:455   */\n    tag_27:\n        /* \"#utility.yul\":399:406   */\n      0x00\n        /* \"#utility.yul\":442:447   */\n      dup2\n        /* \"#utility.yul\":435:448   */\n      iszero\n        /* \"#utility.yul\":428:449   */\n      iszero\n        /* \"#utility.yul\":417:449   */\n      swap1\n      pop\n        /* \"#utility.yul\":365:455   */\n      swap2\n      swap1\n      pop\n      jump\t// out\n        /* \"#utility.yul\":461:570   */\n    tag_28:\n        /* \"#utility.yul\":542:563   */\n      tag_37\n        /* \"#utility.yul\":557:562   */\n      dup2\n        /* \"#utility.yul\":542:563   */\n      tag_27\n      jump\t// in\n    tag_37:\n        /* \"#utility.yul\":537:540   */\n      dup3\n        /* \"#utility.yul\":530:564   */\n      mstore\n        /* \"#utility.yul\":461:570   */\n      pop\n      pop\n      jump\t// out\n        /* \"#utility.yul\":576:896   */\n    tag_10:\n        /* \"#utility.yul\":691:695   */\n      0x00\n        /* \"#utility.yul\":729:731   */\n      0x40\n        /* \"#utility.yul\":718:727   */\n      dup3\n        /* \"#utility.yul\":714:732   */\n      add\n        /* \"#utility.yul\":706:732   */\n      swap1\n      pop\n        /* \"#utility.yul\":742:813   */\n      tag_39\n        /* \"#utility.yul\":810:811   */\n      0x00\n        /* \"#utility.yul\":799:808   */\n      dup4\n        /* \"#utility.yul\":795:812   */\n      add\n        /* \"#utility.yul\":786:792   */\n      dup6\n        /* \"#utility.yul\":742:813   */\n      tag_26\n      jump\t// in\n    tag_39:\n        /* \"#utility.yul\":823:889   */\n      tag_40\n        /* \"#utility.yul\":885:887   */\n      0x20\n        /* \"#utility.yul\":874:883   */\n      dup4\n        /* \"#utility.yul\":870:888   */\n      add\n        /* \"#utility.yul\":861:867   */\n      dup5\n        /* \"#utility.yul\":823:889   */\n      tag_28\n      jump\t// in\n    tag_40:\n        /* \"#utility.yul\":576:896   */\n      swap4\n      swap3\n      pop\n      pop\n      pop\n      jump\t// out\n\n    auxdata: 0xa26469706673582212203aad3879a1ba33eeeacb53c07d1de414e97d7f6a5165d381c78dd464af7754a864736f6c634300081a0033\n}\n",
				"bytecode": {
					"linkReferences": {},
					"object": "6080604052348015600e575f80fd5b506101e48061001c5f395ff3fe608060405234801561000f575f80fd5b506004361061004a575f3560e01c806327d8ae6d1461004e5780632c1bd05d1461006d578063e13a77161461008c578063f8a8fd6d146100ab575b5f80fd5b6100566100b5565b604051610064929190610187565b60405180910390f35b6100756100d6565b604051610083929190610187565b60405180910390f35b6100946100f7565b6040516100a2929190610187565b60405180910390f35b6100b3610118565b005b5f80735b38da6a701c568545dcfcb03fcb875f56beddc46001915091509091565b5f80735b38da6a701c568545dcfcb03fcb875f56beddc49150600190509091565b5f80735b38da6a701c568545dcfcb03fcb875f56beddc46001915091509091565b5f806101226100f7565b80925081935050505050565b5f73ffffffffffffffffffffffffffffffffffffffff82169050919050565b5f6101578261012e565b9050919050565b6101678161014d565b82525050565b5f8115159050919050565b6101818161016d565b82525050565b5f60408201905061019a5f83018561015e565b6101a76020830184610178565b939250505056fea26469706673582212203aad3879a1ba33eeeacb53c07d1de414e97d7f6a5165d381c78dd464af7754a864736f6c634300081a0033",
					"opcodes": "PUSH1 0x80 PUSH1 0x40 MSTORE CALLVALUE DUP1 ISZERO PUSH1 0xE JUMPI PUSH0 DUP1 REVERT JUMPDEST POP PUSH2 0x1E4 DUP1 PUSH2 0x1C PUSH0 CODECOPY PUSH0 RETURN INVALID PUSH1 0x80 PUSH1 0x40 MSTORE CALLVALUE DUP1 ISZERO PUSH2 0xF JUMPI PUSH0 DUP1 REVERT JUMPDEST POP PUSH1 0x4 CALLDATASIZE LT PUSH2 0x4A JUMPI PUSH0 CALLDATALOAD PUSH1 0xE0 SHR DUP1 PUSH4 0x27D8AE6D EQ PUSH2 0x4E JUMPI DUP1 PUSH4 0x2C1BD05D EQ PUSH2 0x6D JUMPI DUP1 PUSH4 0xE13A7716 EQ PUSH2 0x8C JUMPI DUP1 PUSH4 0xF8A8FD6D EQ PUSH2 0xAB JUMPI JUMPDEST PUSH0 DUP1 REVERT JUMPDEST PUSH2 0x56 PUSH2 0xB5 JUMP JUMPDEST PUSH1 0x40 MLOAD PUSH2 0x64 SWAP3 SWAP2 SWAP1 PUSH2 0x187 JUMP JUMPDEST PUSH1 0x40 MLOAD DUP1 SWAP2 SUB SWAP1 RETURN JUMPDEST PUSH2 0x75 PUSH2 0xD6 JUMP JUMPDEST PUSH1 0x40 MLOAD PUSH2 0x83 SWAP3 SWAP2 SWAP1 PUSH2 0x187 JUMP JUMPDEST PUSH1 0x40 MLOAD DUP1 SWAP2 SUB SWAP1 RETURN JUMPDEST PUSH2 0x94 PUSH2 0xF7 JUMP JUMPDEST PUSH1 0x40 MLOAD PUSH2 0xA2 SWAP3 SWAP2 SWAP1 PUSH2 0x187 JUMP JUMPDEST PUSH1 0x40 MLOAD DUP1 SWAP2 SUB SWAP1 RETURN JUMPDEST PUSH2 0xB3 PUSH2 0x118 JUMP JUMPDEST STOP JUMPDEST PUSH0 DUP1 PUSH20 0x5B38DA6A701C568545DCFCB03FCB875F56BEDDC4 PUSH1 0x1 SWAP2 POP SWAP2 POP SWAP1 SWAP2 JUMP JUMPDEST PUSH0 DUP1 PUSH20 0x5B38DA6A701C568545DCFCB03FCB875F56BEDDC4 SWAP2 POP PUSH1 0x1 SWAP1 POP SWAP1 SWAP2 JUMP JUMPDEST PUSH0 DUP1 PUSH20 0x5B38DA6A701C568545DCFCB03FCB875F56BEDDC4 PUSH1 0x1 SWAP2 POP SWAP2 POP SWAP1 SWAP2 JUMP JUMPDEST PUSH0 DUP1 PUSH2 0x122 PUSH2 0xF7 JUMP JUMPDEST DUP1 SWAP3 POP DUP2 SWAP4 POP POP POP POP POP JUMP JUMPDEST PUSH0 PUSH20 0xFFFFFFFFFFFFFFFFFFFFFFFFFFFFFFFFFFFFFFFF DUP3 AND SWAP1 POP SWAP2 SWAP1 POP JUMP JUMPDEST PUSH0 PUSH2 0x157 DUP3 PUSH2 0x12E JUMP JUMPDEST SWAP1 POP SWAP2 SWAP1 POP JUMP JUMPDEST PUSH2 0x167 DUP2 PUSH2 0x14D JUMP JUMPDEST DUP3 MSTORE POP POP JUMP JUMPDEST PUSH0 DUP2 ISZERO ISZERO SWAP1 POP SWAP2 SWAP1 POP JUMP JUMPDEST PUSH2 0x181 DUP2 PUSH2 0x16D JUMP JUMPDEST DUP3 MSTORE POP POP JUMP JUMPDEST PUSH0 PUSH1 0x40 DUP3 ADD SWAP1 POP PUSH2 0x19A PUSH0 DUP4 ADD DUP6 PUSH2 0x15E JUMP JUMPDEST PUSH2 0x1A7 PUSH1 0x20 DUP4 ADD DUP5 PUSH2 0x178 JUMP JUMPDEST SWAP4 SWAP3 POP POP POP JUMP INVALID LOG2 PUSH5 0x6970667358 0x22 SLT KECCAK256 GASPRICE 0xAD CODESIZE PUSH26 0xA1BA33EEEACB53C07D1DE414E97D7F6A5165D381C78DD464AF77 SLOAD 0xA8 PUSH5 0x736F6C6343 STOP ADDMOD BYTE STOP CALLER "
				},
				"gasEstimates": {
					"creation": {
						"codeDepositCost": "96800",
						"executionCost": "145",
						"totalCost": "96945"
					},
					"external": {
						"assignedReturn()": "499",
						"test()": "267",
						"testNamedReturn()": "477",
						"testReturn()": "521"
					}
				},
				"methodIdentifiers": {
					"assignedReturn()": "2c1bd05d",
					"test()": "f8a8fd6d",
					"testNamedReturn()": "27d8ae6d",
					"testReturn()": "e13a7716"
				}
			},
			"storageLayout": {
				"storage": [],
				"types": null
			},
			"userdoc": {
				"kind": "user",
				"methods": {},
				"version": 1
			}
		}
	}
}