{
	"test.sol": {
		"Enum": {
			"abi": [
				{
					"inputs": [],
					"name": "get",
					"outputs": [
						{
							"internalType": "enum Enum.Status",
							"name": "",
							"type": "uint8"
						}
					],
					"stateMutability": "view",
					"type": "function"
				},
				{
					"inputs": [
						{
							"internalType": "uint256",
							"name": "",
							"type": "uint256"
						}
					],
					"name": "orders",
					"outputs": [
						{
							"internalType": "enum Enum.Status",
							"name": "status",
							"type": "uint8"
						},
						{
							"internalType": "address",
							"name": "buyer",
							"type": "address"
						}
					],
					"stateMutability": "view",
					"type": "function"
				},
				{
					"inputs": [],
					"name": "reset",
					"outputs": [],
					"stateMutability": "nonpayable",
					"type": "function"
				},
				{
					"inputs": [
						{
							"internalType": "enum Enum.Status",
							"name": "_status",
							"type": "uint8"
						}
					],
					"name": "set",
					"outputs": [],
					"stateMutability": "nonpayable",
					"type": "function"
				},
				{
					"inputs": [],
					"name": "ship",
					"outputs": [],
					"stateMutability": "nonpayable",
					"type": "function"
				},
				{
					"inputs": [],
					"name": "status",
					"outputs": [
						{
							"internalType": "enum Enum.Status",
							"name": "",
							"type": "uint8"
						}
					],
					"stateMutability": "view",
					"type": "function"
				}
			],
			"devdoc": {
				"kind": "dev",
				"methods": {},
				"version": 1
			},
			"evm": {
				"assembly": "    /* \"test.sol\":7155:7714  contract Enum {... */\n  mstore(0x40, 0x80)\n  callvalue\n  dup1\n  iszero\n  tag_1\n  jumpi\n  0x00\n  dup1\n  revert\ntag_1:\n  pop\n  dataSize(sub_0)\n  dup1\n  dataOffset(sub_0)\n  0x00\n  codecopy\n  0x00\n  return\nstop\n\nsub_0: assembly {\n        /* \"test.sol\":7155:7714  contract Enum {... */\n      mstore(0x40, 0x80)\n      callvalue\n      dup1\n      iszero\n      tag_1\n      jumpi\n      0x00\n      dup1\n      revert\n    tag_1:\n      pop\n      jumpi(tag_2, lt(calldatasize, 0x04))\n      shr(0xe0, calldataload(0x00))\n      dup1\n      0x200d2ed2\n      eq\n      tag_3\n      jumpi\n      dup1\n      0x24b8ba5f\n      eq\n      tag_4\n      jumpi\n      dup1\n      0x6d4ce63c\n      eq\n      tag_5\n      jumpi\n      dup1\n      0xa85c38ef\n      eq\n      tag_6\n      jumpi\n      dup1\n      0xb6bef7b3\n      eq\n      tag_7\n      jumpi\n      dup1\n      0xd826f88f\n      eq\n      tag_8\n      jumpi\n    tag_2:\n      0x00\n      dup1\n      revert\n        /* \"test.sol\":7400:7420  Status public status */\n    tag_3:\n      tag_9\n      tag_10\n      jump\t// in\n    tag_9:\n      mload(0x40)\n      tag_11\n      swap2\n      swap1\n      tag_12\n      jump\t// in\n    tag_11:\n      mload(0x40)\n      dup1\n      swap2\n      sub\n      swap1\n      return\n        /* \"test.sol\":7509:7579  function set(Status _status) external{... */\n    tag_4:\n      tag_13\n      0x04\n      dup1\n      calldatasize\n      sub\n      dup2\n      add\n      swap1\n      tag_14\n      swap2\n      swap1\n      tag_15\n      jump\t// in\n    tag_14:\n      tag_16\n      jump\t// in\n    tag_13:\n      stop\n        /* \"test.sol\":7428:7503  function get() external view returns (Status){... */\n    tag_5:\n      tag_17\n      tag_18\n      jump\t// in\n    tag_17:\n      mload(0x40)\n      tag_19\n      swap2\n      swap1\n      tag_12\n      jump\t// in\n    tag_19:\n      mload(0x40)\n      dup1\n      swap2\n      sub\n      swap1\n      return\n        /* \"test.sol\":7373:7394  Order[] public orders */\n    tag_6:\n      tag_20\n      0x04\n      dup1\n      calldatasize\n      sub\n      dup2\n      add\n      swap1\n      tag_21\n      swap2\n      swap1\n      tag_22\n      jump\t// in\n    tag_21:\n      tag_23\n      jump\t// in\n    tag_20:\n      mload(0x40)\n      tag_24\n      swap3\n      swap2\n      swap1\n      tag_25\n      jump\t// in\n    tag_24:\n      mload(0x40)\n      dup1\n      swap2\n      sub\n      swap1\n      return\n        /* \"test.sol\":7585:7649  function ship() external{... */\n    tag_7:\n      tag_26\n      tag_27\n      jump\t// in\n    tag_26:\n      stop\n        /* \"test.sol\":7655:7710  function reset() external{... */\n    tag_8:\n      tag_28\n      tag_29\n      jump\t// in\n    tag_28:\n      stop\n        /* \"test.sol\":7400:7420  Status public status */\n    tag_10:\n      0x01\n      0x00\n      swap1\n      sload\n      swap1\n      0x0100\n      exp\n      swap1\n      div\n      0xff\n      and\n      dup2\n      jump\t// out\n        /* \"test.sol\":7509:7579  function set(Status _status) external{... */\n    tag_16:\n        /* \"test.sol\":7565:7572  _status */\n      dup1\n        /* \"test.sol\":7556:7562  status */\n      0x01\n      0x00\n        /* \"test.sol\":7556:7572  status = _status */\n      0x0100\n      exp\n      dup2\n      sload\n      dup2\n      0xff\n      mul\n      not\n      and\n      swap1\n      dup4\n      0x05\n      dup2\n      gt\n      iszero\n      tag_31\n      jumpi\n      tag_32\n      tag_33\n      jump\t// in\n    tag_32:\n    tag_31:\n      mul\n      or\n      swap1\n      sstore\n      pop\n        /* \"test.sol\":7509:7579  function set(Status _status) external{... */\n      pop\n      jump\t// out\n        /* \"test.sol\":7428:7503  function get() external view returns (Status){... */\n    tag_18:\n        /* \"test.sol\":7466:7472  Status */\n      0x00\n        /* \"test.sol\":7490:7496  status */\n      0x01\n      0x00\n      swap1\n      sload\n      swap1\n      0x0100\n      exp\n      swap1\n      div\n      0xff\n      and\n        /* \"test.sol\":7483:7496  return status */\n      swap1\n      pop\n        /* \"test.sol\":7428:7503  function get() external view returns (Status){... */\n      swap1\n      jump\t// out\n        /* \"test.sol\":7373:7394  Order[] public orders */\n    tag_23:\n      0x00\n      dup2\n      dup2\n      sload\n      dup2\n      lt\n      tag_35\n      jumpi\n      0x00\n      dup1\n      revert\n    tag_35:\n      swap1\n      0x00\n      mstore\n      keccak256(0x00, 0x20)\n      add\n      0x00\n      swap2\n      pop\n      swap1\n      pop\n      dup1\n      0x00\n      add\n      0x00\n      swap1\n      sload\n      swap1\n      0x0100\n      exp\n      swap1\n      div\n      0xff\n      and\n      swap1\n      dup1\n      0x00\n      add\n      0x01\n      swap1\n      sload\n      swap1\n      0x0100\n      exp\n      swap1\n      div\n      0xffffffffffffffffffffffffffffffffffffffff\n      and\n      swap1\n      pop\n      dup3\n      jump\t// out\n        /* \"test.sol\":7585:7649  function ship() external{... */\n    tag_27:\n        /* \"test.sol\":7628:7642  Status.Shipped */\n      0x02\n        /* \"test.sol\":7619:7625  status */\n      0x01\n      0x00\n        /* \"test.sol\":7619:7642  status = Status.Shipped */\n      0x0100\n      exp\n      dup2\n      sload\n      dup2\n      0xff\n      mul\n      not\n      and\n      swap1\n      dup4\n      0x05\n      dup2\n      gt\n      iszero\n      tag_38\n      jumpi\n      tag_39\n      tag_33\n      jump\t// in\n    tag_39:\n    tag_38:\n      mul\n      or\n      swap1\n      sstore\n      pop\n        /* \"test.sol\":7585:7649  function ship() external{... */\n      jump\t// out\n        /* \"test.sol\":7655:7710  function reset() external{... */\n    tag_29:\n        /* \"test.sol\":7697:7703  status */\n      0x01\n      0x00\n        /* \"test.sol\":7690:7703  delete status */\n      0x0100\n      exp\n      dup2\n      sload\n      swap1\n      0xff\n      mul\n      not\n      and\n      swap1\n      sstore\n        /* \"test.sol\":7655:7710  function reset() external{... */\n      jump\t// out\n        /* \"#utility.yul\":7:187   */\n    tag_33:\n        /* \"#utility.yul\":55:132   */\n      0x4e487b7100000000000000000000000000000000000000000000000000000000\n        /* \"#utility.yul\":52:53   */\n      0x00\n        /* \"#utility.yul\":45:133   */\n      mstore\n        /* \"#utility.yul\":152:156   */\n      0x21\n        /* \"#utility.yul\":149:150   */\n      0x04\n        /* \"#utility.yul\":142:157   */\n      mstore\n        /* \"#utility.yul\":176:180   */\n      0x24\n        /* \"#utility.yul\":173:174   */\n      0x00\n        /* \"#utility.yul\":166:181   */\n      revert\n        /* \"#utility.yul\":193:308   */\n    tag_41:\n        /* \"#utility.yul\":276:277   */\n      0x06\n        /* \"#utility.yul\":269:274   */\n      dup2\n        /* \"#utility.yul\":266:278   */\n      lt\n        /* \"#utility.yul\":256:302   */\n      tag_59\n      jumpi\n        /* \"#utility.yul\":282:300   */\n      tag_60\n      tag_33\n      jump\t// in\n    tag_60:\n        /* \"#utility.yul\":256:302   */\n    tag_59:\n        /* \"#utility.yul\":193:308   */\n      pop\n      jump\t// out\n        /* \"#utility.yul\":314:445   */\n    tag_42:\n        /* \"#utility.yul\":361:368   */\n      0x00\n        /* \"#utility.yul\":390:395   */\n      dup2\n        /* \"#utility.yul\":379:395   */\n      swap1\n      pop\n        /* \"#utility.yul\":396:439   */\n      tag_62\n        /* \"#utility.yul\":433:438   */\n      dup3\n        /* \"#utility.yul\":396:439   */\n      tag_41\n      jump\t// in\n    tag_62:\n        /* \"#utility.yul\":314:445   */\n      swap2\n      swap1\n      pop\n      jump\t// out\n        /* \"#utility.yul\":451:582   */\n    tag_43:\n        /* \"#utility.yul\":509:518   */\n      0x00\n        /* \"#utility.yul\":542:576   */\n      tag_64\n        /* \"#utility.yul\":570:575   */\n      dup3\n        /* \"#utility.yul\":542:576   */\n      tag_42\n      jump\t// in\n    tag_64:\n        /* \"#utility.yul\":529:576   */\n      swap1\n      pop\n        /* \"#utility.yul\":451:582   */\n      swap2\n      swap1\n      pop\n      jump\t// out\n        /* \"#utility.yul\":588:735   */\n    tag_44:\n        /* \"#utility.yul\":683:728   */\n      tag_66\n        /* \"#utility.yul\":722:727   */\n      dup2\n        /* \"#utility.yul\":683:728   */\n      tag_43\n      jump\t// in\n    tag_66:\n        /* \"#utility.yul\":678:681   */\n      dup3\n        /* \"#utility.yul\":671:729   */\n      mstore\n        /* \"#utility.yul\":588:735   */\n      pop\n      pop\n      jump\t// out\n        /* \"#utility.yul\":741:979   */\n    tag_12:\n        /* \"#utility.yul\":842:846   */\n      0x00\n        /* \"#utility.yul\":880:882   */\n      0x20\n        /* \"#utility.yul\":869:878   */\n      dup3\n        /* \"#utility.yul\":865:883   */\n      add\n        /* \"#utility.yul\":857:883   */\n      swap1\n      pop\n        /* \"#utility.yul\":893:972   */\n      tag_68\n        /* \"#utility.yul\":969:970   */\n      0x00\n        /* \"#utility.yul\":958:967   */\n      dup4\n        /* \"#utility.yul\":954:971   */\n      add\n        /* \"#utility.yul\":945:951   */\n      dup5\n        /* \"#utility.yul\":893:972   */\n      tag_44\n      jump\t// in\n    tag_68:\n        /* \"#utility.yul\":741:979   */\n      swap3\n      swap2\n      pop\n      pop\n      jump\t// out\n        /* \"#utility.yul\":1066:1183   */\n    tag_46:\n        /* \"#utility.yul\":1175:1176   */\n      0x00\n        /* \"#utility.yul\":1172:1173   */\n      dup1\n        /* \"#utility.yul\":1165:1177   */\n      revert\n        /* \"#utility.yul\":1312:1421   */\n    tag_48:\n        /* \"#utility.yul\":1395:1396   */\n      0x06\n        /* \"#utility.yul\":1388:1393   */\n      dup2\n        /* \"#utility.yul\":1385:1397   */\n      lt\n        /* \"#utility.yul\":1375:1415   */\n      tag_73\n      jumpi\n        /* \"#utility.yul\":1411:1412   */\n      0x00\n        /* \"#utility.yul\":1408:1409   */\n      dup1\n        /* \"#utility.yul\":1401:1413   */\n      revert\n        /* \"#utility.yul\":1375:1415   */\n    tag_73:\n        /* \"#utility.yul\":1312:1421   */\n      pop\n      jump\t// out\n        /* \"#utility.yul\":1427:1586   */\n    tag_49:\n        /* \"#utility.yul\":1483:1488   */\n      0x00\n        /* \"#utility.yul\":1521:1527   */\n      dup2\n        /* \"#utility.yul\":1508:1528   */\n      calldataload\n        /* \"#utility.yul\":1499:1528   */\n      swap1\n      pop\n        /* \"#utility.yul\":1537:1580   */\n      tag_75\n        /* \"#utility.yul\":1574:1579   */\n      dup2\n        /* \"#utility.yul\":1537:1580   */\n      tag_48\n      jump\t// in\n    tag_75:\n        /* \"#utility.yul\":1427:1586   */\n      swap3\n      swap2\n      pop\n      pop\n      jump\t// out\n        /* \"#utility.yul\":1592:1941   */\n    tag_15:\n        /* \"#utility.yul\":1661:1667   */\n      0x00\n        /* \"#utility.yul\":1710:1712   */\n      0x20\n        /* \"#utility.yul\":1698:1707   */\n      dup3\n        /* \"#utility.yul\":1689:1696   */\n      dup5\n        /* \"#utility.yul\":1685:1708   */\n      sub\n        /* \"#utility.yul\":1681:1713   */\n      slt\n        /* \"#utility.yul\":1678:1797   */\n      iszero\n      tag_77\n      jumpi\n        /* \"#utility.yul\":1716:1795   */\n      tag_78\n      tag_46\n      jump\t// in\n    tag_78:\n        /* \"#utility.yul\":1678:1797   */\n    tag_77:\n        /* \"#utility.yul\":1836:1837   */\n      0x00\n        /* \"#utility.yul\":1861:1924   */\n      tag_79\n        /* \"#utility.yul\":1916:1923   */\n      dup5\n        /* \"#utility.yul\":1907:1913   */\n      dup3\n        /* \"#utility.yul\":1896:1905   */\n      dup6\n        /* \"#utility.yul\":1892:1914   */\n      add\n        /* \"#utility.yul\":1861:1924   */\n      tag_49\n      jump\t// in\n    tag_79:\n        /* \"#utility.yul\":1851:1924   */\n      swap2\n      pop\n        /* \"#utility.yul\":1807:1934   */\n      pop\n        /* \"#utility.yul\":1592:1941   */\n      swap3\n      swap2\n      pop\n      pop\n      jump\t// out\n        /* \"#utility.yul\":1947:2024   */\n    tag_50:\n        /* \"#utility.yul\":1984:1991   */\n      0x00\n        /* \"#utility.yul\":2013:2018   */\n      dup2\n        /* \"#utility.yul\":2002:2018   */\n      swap1\n      pop\n        /* \"#utility.yul\":1947:2024   */\n      swap2\n      swap1\n      pop\n      jump\t// out\n        /* \"#utility.yul\":2030:2152   */\n    tag_51:\n        /* \"#utility.yul\":2103:2127   */\n      tag_82\n        /* \"#utility.yul\":2121:2126   */\n      dup2\n        /* \"#utility.yul\":2103:2127   */\n      tag_50\n      jump\t// in\n    tag_82:\n        /* \"#utility.yul\":2096:2101   */\n      dup2\n        /* \"#utility.yul\":2093:2128   */\n      eq\n        /* \"#utility.yul\":2083:2146   */\n      tag_83\n      jumpi\n        /* \"#utility.yul\":2142:2143   */\n      0x00\n        /* \"#utility.yul\":2139:2140   */\n      dup1\n        /* \"#utility.yul\":2132:2144   */\n      revert\n        /* \"#utility.yul\":2083:2146   */\n    tag_83:\n        /* \"#utility.yul\":2030:2152   */\n      pop\n      jump\t// out\n        /* \"#utility.yul\":2158:2297   */\n    tag_52:\n        /* \"#utility.yul\":2204:2209   */\n      0x00\n        /* \"#utility.yul\":2242:2248   */\n      dup2\n        /* \"#utility.yul\":2229:2249   */\n      calldataload\n        /* \"#utility.yul\":2220:2249   */\n      swap1\n      pop\n        /* \"#utility.yul\":2258:2291   */\n      tag_85\n        /* \"#utility.yul\":2285:2290   */\n      dup2\n        /* \"#utility.yul\":2258:2291   */\n      tag_51\n      jump\t// in\n    tag_85:\n        /* \"#utility.yul\":2158:2297   */\n      swap3\n      swap2\n      pop\n      pop\n      jump\t// out\n        /* \"#utility.yul\":2303:2632   */\n    tag_22:\n        /* \"#utility.yul\":2362:2368   */\n      0x00\n        /* \"#utility.yul\":2411:2413   */\n      0x20\n        /* \"#utility.yul\":2399:2408   */\n      dup3\n        /* \"#utility.yul\":2390:2397   */\n      dup5\n        /* \"#utility.yul\":2386:2409   */\n      sub\n        /* \"#utility.yul\":2382:2414   */\n      slt\n        /* \"#utility.yul\":2379:2498   */\n      iszero\n      tag_87\n      jumpi\n        /* \"#utility.yul\":2417:2496   */\n      tag_88\n      tag_46\n      jump\t// in\n    tag_88:\n        /* \"#utility.yul\":2379:2498   */\n    tag_87:\n        /* \"#utility.yul\":2537:2538   */\n      0x00\n        /* \"#utility.yul\":2562:2615   */\n      tag_89\n        /* \"#utility.yul\":2607:2614   */\n      dup5\n        /* \"#utility.yul\":2598:2604   */\n      dup3\n        /* \"#utility.yul\":2587:2596   */\n      dup6\n        /* \"#utility.yul\":2583:2605   */\n      add\n        /* \"#utility.yul\":2562:2615   */\n      tag_52\n      jump\t// in\n    tag_89:\n        /* \"#utility.yul\":2552:2615   */\n      swap2\n      pop\n        /* \"#utility.yul\":2508:2625   */\n      pop\n        /* \"#utility.yul\":2303:2632   */\n      swap3\n      swap2\n      pop\n      pop\n      jump\t// out\n        /* \"#utility.yul\":2638:2764   */\n    tag_53:\n        /* \"#utility.yul\":2675:2682   */\n      0x00\n        /* \"#utility.yul\":2715:2757   */\n      0xffffffffffffffffffffffffffffffffffffffff\n        /* \"#utility.yul\":2708:2713   */\n      dup3\n        /* \"#utility.yul\":2704:2758   */\n      and\n        /* \"#utility.yul\":2693:2758   */\n      swap1\n      pop\n        /* \"#utility.yul\":2638:2764   */\n      swap2\n      swap1\n      pop\n      jump\t// out\n        /* \"#utility.yul\":2770:2866   */\n    tag_54:\n        /* \"#utility.yul\":2807:2814   */\n      0x00\n        /* \"#utility.yul\":2836:2860   */\n      tag_92\n        /* \"#utility.yul\":2854:2859   */\n      dup3\n        /* \"#utility.yul\":2836:2860   */\n      tag_53\n      jump\t// in\n    tag_92:\n        /* \"#utility.yul\":2825:2860   */\n      swap1\n      pop\n        /* \"#utility.yul\":2770:2866   */\n      swap2\n      swap1\n      pop\n      jump\t// out\n        /* \"#utility.yul\":2872:2990   */\n    tag_55:\n        /* \"#utility.yul\":2959:2983   */\n      tag_94\n        /* \"#utility.yul\":2977:2982   */\n      dup2\n        /* \"#utility.yul\":2959:2983   */\n      tag_54\n      jump\t// in\n    tag_94:\n        /* \"#utility.yul\":2954:2957   */\n      dup3\n        /* \"#utility.yul\":2947:2984   */\n      mstore\n        /* \"#utility.yul\":2872:2990   */\n      pop\n      pop\n      jump\t// out\n        /* \"#utility.yul\":2996:3344   */\n    tag_25:\n        /* \"#utility.yul\":3125:3129   */\n      0x00\n        /* \"#utility.yul\":3163:3165   */\n      0x40\n        /* \"#utility.yul\":3152:3161   */\n      dup3\n        /* \"#utility.yul\":3148:3166   */\n      add\n        /* \"#utility.yul\":3140:3166   */\n      swap1\n      pop\n        /* \"#utility.yul\":3176:3255   */\n      tag_96\n        /* \"#utility.yul\":3252:3253   */\n      0x00\n        /* \"#utility.yul\":3241:3250   */\n      dup4\n        /* \"#utility.yul\":3237:3254   */\n      add\n        /* \"#utility.yul\":3228:3234   */\n      dup6\n        /* \"#utility.yul\":3176:3255   */\n      tag_44\n      jump\t// in\n    tag_96:\n        /* \"#utility.yul\":3265:3337   */\n      tag_97\n        /* \"#utility.yul\":3333:3335   */\n      0x20\n        /* \"#utility.yul\":3322:3331   */\n      dup4\n        /* \"#utility.yul\":3318:3336   */\n      add\n        /* \"#utility.yul\":3309:3315   */\n      dup5\n        /* \"#utility.yul\":3265:3337   */\n      tag_55\n      jump\t// in\n    tag_97:\n        /* \"#utility.yul\":2996:3344   */\n      swap4\n      swap3\n      pop\n      pop\n      pop\n      jump\t// out\n\n    auxdata: 0xa264697066735822122021cc5bda09e0a80d37cf4c0f0b08345ed2e53f4a600c84ba48eb168c13d56a9764736f6c634300081a0033\n}\n",
				"bytecode": {
					"linkReferences": {},
					"object": "6080604052348015600e575f80fd5b506103c08061001c5f395ff3fe608060405234801561000f575f80fd5b5060043610610060575f3560e01c8063200d2ed21461006457806324b8ba5f146100825780636d4ce63c1461009e578063a85c38ef146100bc578063b6bef7b3146100ed578063d826f88f146100f7575b5f80fd5b61006c610101565b604051610079919061025b565b60405180910390f35b61009c6004803603810190610097919061029b565b610113565b005b6100a661013f565b6040516100b3919061025b565b60405180910390f35b6100d660048036038101906100d191906102f9565b610154565b6040516100e4929190610363565b60405180910390f35b6100f56101a9565b005b6100ff6101d5565b005b60015f9054906101000a900460ff1681565b8060015f6101000a81548160ff02191690836005811115610137576101366101e8565b5b021790555050565b5f60015f9054906101000a900460ff16905090565b5f8181548110610162575f80fd5b905f5260205f20015f91509050805f015f9054906101000a900460ff1690805f0160019054906101000a900473ffffffffffffffffffffffffffffffffffffffff16905082565b600260015f6101000a81548160ff021916908360058111156101ce576101cd6101e8565b5b0217905550565b60015f6101000a81549060ff0219169055565b7f4e487b71000000000000000000000000000000000000000000000000000000005f52602160045260245ffd5b60068110610226576102256101e8565b5b50565b5f81905061023682610215565b919050565b5f61024582610229565b9050919050565b6102558161023b565b82525050565b5f60208201905061026e5f83018461024c565b92915050565b5f80fd5b60068110610284575f80fd5b50565b5f8135905061029581610278565b92915050565b5f602082840312156102b0576102af610274565b5b5f6102bd84828501610287565b91505092915050565b5f819050919050565b6102d8816102c6565b81146102e2575f80fd5b50565b5f813590506102f3816102cf565b92915050565b5f6020828403121561030e5761030d610274565b5b5f61031b848285016102e5565b91505092915050565b5f73ffffffffffffffffffffffffffffffffffffffff82169050919050565b5f61034d82610324565b9050919050565b61035d81610343565b82525050565b5f6040820190506103765f83018561024c565b6103836020830184610354565b939250505056fea264697066735822122021cc5bda09e0a80d37cf4c0f0b08345ed2e53f4a600c84ba48eb168c13d56a9764736f6c634300081a0033",
					"opcodes": "PUSH1 0x80 PUSH1 0x40 MSTORE CALLVALUE DUP1 ISZERO PUSH1 0xE JUMPI PUSH0 DUP1 REVERT JUMPDEST POP PUSH2 0x3C0 DUP1 PUSH2 0x1C PUSH0 CODECOPY PUSH0 RETURN INVALID PUSH1 0x80 PUSH1 0x40 MSTORE CALLVALUE DUP1 ISZERO PUSH2 0xF JUMPI PUSH0 DUP1 REVERT JUMPDEST POP PUSH1 0x4 CALLDATASIZE LT PUSH2 0x60 JUMPI PUSH0 CALLDATALOAD PUSH1 0xE0 SHR DUP1 PUSH4 0x200D2ED2 EQ PUSH2 0x64 JUMPI DUP1 PUSH4 0x24B8BA5F EQ PUSH2 0x82 JUMPI DUP1 PUSH4 0x6D4CE63C EQ PUSH2 0x9E JUMPI DUP1 PUSH4 0xA85C38EF EQ PUSH2 0xBC JUMPI DUP1 PUSH4 0xB6BEF7B3 EQ PUSH2 0xED JUMPI DUP1 PUSH4 0xD826F88F EQ PUSH2 0xF7 JUMPI JUMPDEST PUSH0 DUP1 REVERT JUMPDEST PUSH2 0x6C PUSH2 0x101 JUMP JUMPDEST PUSH1 0x40 MLOAD PUSH2 0x79 SWAP2 SWAP1 PUSH2 0x25B JUMP JUMPDEST PUSH1 0x40 MLOAD DUP1 SWAP2 SUB SWAP1 RETURN JUMPDEST PUSH2 0x9C PUSH1 0x4 DUP1 CALLDATASIZE SUB DUP2 ADD SWAP1 PUSH2 0x97 SWAP2 SWAP1 PUSH2 0x29B JUMP JUMPDEST PUSH2 0x113 JUMP JUMPDEST STOP JUMPDEST PUSH2 0xA6 PUSH2 0x13F JUMP JUMPDEST PUSH1 0x40 MLOAD PUSH2 0xB3 SWAP2 SWAP1 PUSH2 0x25B JUMP JUMPDEST PUSH1 0x40 MLOAD DUP1 SWAP2 SUB SWAP1 RETURN JUMPDEST PUSH2 0xD6 PUSH1 0x4 DUP1 CALLDATASIZE SUB DUP2 ADD SWAP1 PUSH2 0xD1 SWAP2 SWAP1 PUSH2 0x2F9 JUMP JUMPDEST PUSH2 0x154 JUMP JUMPDEST PUSH1 0x40 MLOAD PUSH2 0xE4 SWAP3 SWAP2 SWAP1 PUSH2 0x363 JUMP JUMPDEST PUSH1 0x40 MLOAD DUP1 SWAP2 SUB SWAP1 RETURN JUMPDEST PUSH2 0xF5 PUSH2 0x1A9 JUMP JUMPDEST STOP JUMPDEST PUSH2 0xFF PUSH2 0x1D5 JUMP JUMPDEST STOP JUMPDEST PUSH1 0x1 PUSH0 SWAP1 SLOAD SWAP1 PUSH2 0x100 EXP SWAP1 DIV PUSH1 0xFF AND DUP2 JUMP JUMPDEST DUP1 PUSH1 0x1 PUSH0 PUSH2 0x100 EXP DUP2 SLOAD DUP2 PUSH1 0xFF MUL NOT AND SWAP1 DUP4 PUSH1 0x5 DUP2 GT ISZERO PUSH2 0x137 JUMPI PUSH2 0x136 PUSH2 0x1E8 JUMP JUMPDEST JUMPDEST MUL OR SWAP1 SSTORE POP POP JUMP JUMPDEST PUSH0 PUSH1 0x1 PUSH0 SWAP1 SLOAD SWAP1 PUSH2 0x100 EXP SWAP1 DIV PUSH1 0xFF AND SWAP1 POP SWAP1 JUMP JUMPDEST PUSH0 DUP2 DUP2 SLOAD DUP2 LT PUSH2 0x162 JUMPI PUSH0 DUP1 REVERT JUMPDEST SWAP1 PUSH0 MSTORE PUSH1 0x20 PUSH0 KECCAK256 ADD PUSH0 SWAP2 POP SWAP1 POP DUP1 PUSH0 ADD PUSH0 SWAP1 SLOAD SWAP1 PUSH2 0x100 EXP SWAP1 DIV PUSH1 0xFF AND SWAP1 DUP1 PUSH0 ADD PUSH1 0x1 SWAP1 SLOAD SWAP1 PUSH2 0x100 EXP SWAP1 DIV PUSH20 0xFFFFFFFFFFFFFFFFFFFFFFFFFFFFFFFFFFFFFFFF AND SWAP1 POP DUP3 JUMP JUMPDEST PUSH1 0x2 PUSH1 0x1 PUSH0 PUSH2 0x100 EXP DUP2 SLOAD DUP2 PUSH1 0xFF MUL NOT AND SWAP1 DUP4 PUSH1 0x5 DUP2 GT ISZERO PUSH2 0x1CE JUMPI PUSH2 0x1CD PUSH2 0x1E8 JUMP JUMPDEST JUMPDEST MUL OR SWAP1 SSTORE POP JUMP JUMPDEST PUSH1 0x1 PUSH0 PUSH2 0x100 EXP DUP2 SLOAD SWAP1 PUSH1 0xFF MUL NOT AND SWAP1 SSTORE JUMP JUMPDEST PUSH32 0x4E487B7100000000000000000000000000000000000000000000000000000000 PUSH0 MSTORE PUSH1 0x21 PUSH1 0x4 MSTORE PUSH1 0x24 PUSH0 REVERT JUMPDEST PUSH1 0x6 DUP2 LT PUSH2 0x226 JUMPI PUSH2 0x225 PUSH2 0x1E8 JUMP JUMPDEST JUMPDEST POP JUMP JUMPDEST PUSH0 DUP2 SWAP1 POP PUSH2 0x236 DUP3 PUSH2 0x215 JUMP JUMPDEST SWAP2 SWAP1 POP JUMP JUMPDEST PUSH0 PUSH2 0x245 DUP3 PUSH2 0x229 JUMP JUMPDEST SWAP1 POP SWAP2 SWAP1 POP JUMP JUMPDEST PUSH2 0x255 DUP2 PUSH2 0x23B JUMP JUMPDEST DUP3 MSTORE POP POP JUMP JUMPDEST PUSH0 PUSH1 0x20 DUP3 ADD SWAP1 POP PUSH2 0x26E PUSH0 DUP4 ADD DUP5 PUSH2 0x24C JUMP JUMPDEST SWAP3 SWAP2 POP POP JUMP JUMPDEST PUSH0 DUP1 REVERT JUMPDEST PUSH1 0x6 DUP2 LT PUSH2 0x284 JUMPI PUSH0 DUP1 REVERT JUMPDEST POP JUMP JUMPDEST PUSH0 DUP2 CALLDATALOAD SWAP1 POP PUSH2 0x295 DUP2 PUSH2 0x278 JUMP JUMPDEST SWAP3 SWAP2 POP POP JUMP JUMPDEST PUSH0 PUSH1 0x20 DUP3 DUP5 SUB SLT ISZERO PUSH2 0x2B0 JUMPI PUSH2 0x2AF PUSH2 0x274 JUMP JUMPDEST JUMPDEST PUSH0 PUSH2 0x2BD DUP5 DUP3 DUP6 ADD PUSH2 0x287 JUMP JUMPDEST SWAP2 POP POP SWAP3 SWAP2 POP POP JUMP JUMPDEST PUSH0 DUP2 SWAP1 POP SWAP2 SWAP1 POP JUMP JUMPDEST PUSH2 0x2D8 DUP2 PUSH2 0x2C6 JUMP JUMPDEST DUP2 EQ PUSH2 0x2E2 JUMPI PUSH0 DUP1 REVERT JUMPDEST POP JUMP JUMPDEST PUSH0 DUP2 CALLDATALOAD SWAP1 POP PUSH2 0x2F3 DUP2 PUSH2 0x2CF JUMP JUMPDEST SWAP3 SWAP2 POP POP JUMP JUMPDEST PUSH0 PUSH1 0x20 DUP3 DUP5 SUB SLT ISZERO PUSH2 0x30E JUMPI PUSH2 0x30D PUSH2 0x274 JUMP JUMPDEST JUMPDEST PUSH0 PUSH2 0x31B DUP5 DUP3 DUP6 ADD PUSH2 0x2E5 JUMP JUMPDEST SWAP2 POP POP SWAP3 SWAP2 POP POP JUMP JUMPDEST PUSH0 PUSH20 0xFFFFFFFFFFFFFFFFFFFFFFFFFFFFFFFFFFFFFFFF DUP3 AND SWAP1 POP SWAP2 SWAP1 POP JUMP JUMPDEST PUSH0 PUSH2 0x34D DUP3 PUSH2 0x324 JUMP JUMPDEST SWAP1 POP SWAP2 SWAP1 POP JUMP JUMPDEST PUSH2 0x35D DUP2 PUSH2 0x343 JUMP JUMPDEST DUP3 MSTORE POP POP JUMP JUMPDEST PUSH0 PUSH1 0x40 DUP3 ADD SWAP1 POP PUSH2 0x376 PUSH0 DUP4 ADD DUP6 PUSH2 0x24C JUMP JUMPDEST PUSH2 0x383 PUSH1 0x20 DUP4 ADD DUP5 PUSH2 0x354 JUMP JUMPDEST SWAP4 SWAP3 POP POP POP JUMP INVALID LOG2 PUSH5 0x6970667358 0x22 SLT KECCAK256 0x21 0xCC JUMPDEST 0xDA MULMOD 0xE0 0xA8 0xD CALLDATACOPY 0xCF 0x4C 0xF SIGNEXTEND ADDMOD CALLVALUE MCOPY 0xD2 0xE5 EXTCODEHASH BLOBBASEFEE PUSH1 0xC DUP5 0xBA BASEFEE 0xEB AND DUP13 SGT 0xD5 PUSH11 0x9764736F6C634300081A00 CALLER "
				},
				"gasEstimates": {
					"creation": {
						"codeDepositCost": "192000",
						"executionCost": "230",
						"totalCost": "192230"
					},
					"external": {
						"get()": "2583",
						"orders(uint256)": "7400",
						"reset()": "24472",
						"set(uint8)": "24645",
						"ship()": "24495",
						"status()": "2532"
					}
				},
				"methodIdentifiers": {
					"get()": "6d4ce63c",
					"orders(uint256)": "a85c38ef",
					"reset()": "d826f88f",
					"set(uint8)": "24b8ba5f",
					"ship()": "b6bef7b3",
					"status()": "200d2ed2"
				}
			},
			"storageLayout": {
				"storage": [
					{
						"astId": 713,
						"contract": "test.sol:Enum",
						"label": "orders",
						"offset": 0,
						"slot": "0",
						"type": "t_array(t_struct(Order)709_storage)dyn_storage"
					},
					{
						"astId": 716,
						"contract": "test.sol:Enum",
						"label": "status",
						"offset": 0,
						"slot": "1",
						"type": "t_enum(Status)703"
					}
				],
				"types": {
					"t_address": {
						"encoding": "inplace",
						"label": "address",
						"numberOfBytes": "20"
					},
					"t_array(t_struct(Order)709_storage)dyn_storage": {
						"base": "t_struct(Order)709_storage",
						"encoding": "dynamic_array",
						"label": "struct Enum.Order[]",
						"numberOfBytes": "32"
					},
					"t_enum(Status)703": {
						"encoding": "inplace",
						"label": "enum Enum.Status",
						"numberOfBytes": "1"
					},
					"t_struct(Order)709_storage": {
						"encoding": "inplace",
						"label": "struct Enum.Order",
						"members": [
							{
								"astId": 706,
								"contract": "test.sol:Enum",
								"label": "status",
								"offset": 0,
								"slot": "0",
								"type": "t_enum(Status)703"
							},
							{
								"astId": 708,
								"contract": "test.sol:Enum",
								"label": "buyer",
								"offset": 1,
								"slot": "0",
								"type": "t_address"
							}
						],
						"numberOfBytes": "32"
					}
				}
			},
			"userdoc": {
				"kind": "user",
				"methods": {},
				"version": 1
			}
		}
	}
}