{
	"test.sol": {
		"Event": {
			"abi": [
				{
					"anonymous": false,
					"inputs": [
						{
							"indexed": false,
							"internalType": "string",
							"name": "message",
							"type": "string"
						},
						{
							"indexed": false,
							"internalType": "uint256",
							"name": "val",
							"type": "uint256"
						}
					],
					"name": "Log",
					"type": "event"
				},
				{
					"anonymous": false,
					"inputs": [
						{
							"indexed": true,
							"internalType": "address",
							"name": "sender",
							"type": "address"
						},
						{
							"indexed": false,
							"internalType": "uint256",
							"name": "val",
							"type": "uint256"
						}
					],
					"name": "Log",
					"type": "event"
				},
				{
					"anonymous": false,
					"inputs": [
						{
							"indexed": true,
							"internalType": "address",
							"name": "_from",
							"type": "address"
						},
						{
							"indexed": true,
							"internalType": "address",
							"name": "_to",
							"type": "address"
						},
						{
							"indexed": false,
							"internalType": "string",
							"name": "message",
							"type": "string"
						}
					],
					"name": "Message",
					"type": "event"
				},
				{
					"inputs": [
						{
							"internalType": "address",
							"name": "_to",
							"type": "address"
						},
						{
							"internalType": "string",
							"name": "message",
							"type": "string"
						}
					],
					"name": "sendMessage",
					"outputs": [],
					"stateMutability": "nonpayable",
					"type": "function"
				},
				{
					"inputs": [],
					"name": "test",
					"outputs": [],
					"stateMutability": "nonpayable",
					"type": "function"
				}
			],
			"devdoc": {
				"kind": "dev",
				"methods": {},
				"version": 1
			},
			"evm": {
				"assembly": "    /* \"test.sol\":7716:8177  contract Event{... */\n  mstore(0x40, 0x80)\n  callvalue\n  dup1\n  iszero\n  tag_1\n  jumpi\n  0x00\n  dup1\n  revert\ntag_1:\n  pop\n  dataSize(sub_0)\n  dup1\n  dataOffset(sub_0)\n  0x00\n  codecopy\n  0x00\n  return\nstop\n\nsub_0: assembly {\n        /* \"test.sol\":7716:8177  contract Event{... */\n      mstore(0x40, 0x80)\n      callvalue\n      dup1\n      iszero\n      tag_1\n      jumpi\n      0x00\n      dup1\n      revert\n    tag_1:\n      pop\n      jumpi(tag_2, lt(calldatasize, 0x04))\n      shr(0xe0, calldataload(0x00))\n      dup1\n      0xde6f24bb\n      eq\n      tag_3\n      jumpi\n      dup1\n      0xf8a8fd6d\n      eq\n      tag_4\n      jumpi\n    tag_2:\n      0x00\n      dup1\n      revert\n        /* \"test.sol\":8049:8174  function sendMessage(address  _to, string calldata message) external {... */\n    tag_3:\n      tag_5\n      0x04\n      dup1\n      calldatasize\n      sub\n      dup2\n      add\n      swap1\n      tag_6\n      swap2\n      swap1\n      tag_7\n      jump\t// in\n    tag_6:\n      tag_8\n      jump\t// in\n    tag_5:\n      stop\n        /* \"test.sol\":7866:7961  function test() external {... */\n    tag_4:\n      tag_9\n      tag_10\n      jump\t// in\n    tag_9:\n      stop\n        /* \"test.sol\":8049:8174  function sendMessage(address  _to, string calldata message) external {... */\n    tag_8:\n        /* \"test.sol\":8153:8156  _to */\n      dup3\n        /* \"test.sol\":8133:8166  Message(msg.sender, _to, message) */\n      0xffffffffffffffffffffffffffffffffffffffff\n      and\n        /* \"test.sol\":8141:8151  msg.sender */\n      caller\n        /* \"test.sol\":8133:8166  Message(msg.sender, _to, message) */\n      0xffffffffffffffffffffffffffffffffffffffff\n      and\n      0xb3dbe9e9894ca2c11cb6c80bd0b0bccb9f5b41d612dbeeda0d5474de40b874fe\n        /* \"test.sol\":8158:8165  message */\n      dup5\n      dup5\n        /* \"test.sol\":8133:8166  Message(msg.sender, _to, message) */\n      mload(0x40)\n      tag_12\n      swap3\n      swap2\n      swap1\n      tag_13\n      jump\t// in\n    tag_12:\n      mload(0x40)\n      dup1\n      swap2\n      sub\n      swap1\n      log3\n        /* \"test.sol\":8049:8174  function sendMessage(address  _to, string calldata message) external {... */\n      pop\n      pop\n      pop\n      jump\t// out\n        /* \"test.sol\":7866:7961  function test() external {... */\n    tag_10:\n        /* \"test.sol\":7906:7920  Log(\"foo\",123) */\n      0xdd970dd9b5bfe707922155b058a407655cb18288b807e2216442bca8ad83d6b5\n        /* \"test.sol\":7916:7919  123 */\n      0x7b\n        /* \"test.sol\":7906:7920  Log(\"foo\",123) */\n      mload(0x40)\n      tag_15\n      swap2\n      swap1\n      tag_16\n      jump\t// in\n    tag_15:\n      mload(0x40)\n      dup1\n      swap2\n      sub\n      swap1\n      log1\n        /* \"test.sol\":7939:7949  msg.sender */\n      caller\n        /* \"test.sol\":7935:7954  Log(msg.sender,456) */\n      0xffffffffffffffffffffffffffffffffffffffff\n      and\n      0xf950957d2407bed19dc99b718b46b4ce6090c05589006dfb86fd22c34865b23e\n        /* \"test.sol\":7950:7953  456 */\n      0x01c8\n        /* \"test.sol\":7935:7954  Log(msg.sender,456) */\n      mload(0x40)\n      tag_17\n      swap2\n      swap1\n      tag_18\n      jump\t// in\n    tag_17:\n      mload(0x40)\n      dup1\n      swap2\n      sub\n      swap1\n      log2\n        /* \"test.sol\":7866:7961  function test() external {... */\n      jump\t// out\n        /* \"#utility.yul\":88:205   */\n    tag_20:\n        /* \"#utility.yul\":197:198   */\n      0x00\n        /* \"#utility.yul\":194:195   */\n      dup1\n        /* \"#utility.yul\":187:199   */\n      revert\n        /* \"#utility.yul\":211:328   */\n    tag_21:\n        /* \"#utility.yul\":320:321   */\n      0x00\n        /* \"#utility.yul\":317:318   */\n      dup1\n        /* \"#utility.yul\":310:322   */\n      revert\n        /* \"#utility.yul\":334:460   */\n    tag_22:\n        /* \"#utility.yul\":371:378   */\n      0x00\n        /* \"#utility.yul\":411:453   */\n      0xffffffffffffffffffffffffffffffffffffffff\n        /* \"#utility.yul\":404:409   */\n      dup3\n        /* \"#utility.yul\":400:454   */\n      and\n        /* \"#utility.yul\":389:454   */\n      swap1\n      pop\n        /* \"#utility.yul\":334:460   */\n      swap2\n      swap1\n      pop\n      jump\t// out\n        /* \"#utility.yul\":466:562   */\n    tag_23:\n        /* \"#utility.yul\":503:510   */\n      0x00\n        /* \"#utility.yul\":532:556   */\n      tag_50\n        /* \"#utility.yul\":550:555   */\n      dup3\n        /* \"#utility.yul\":532:556   */\n      tag_22\n      jump\t// in\n    tag_50:\n        /* \"#utility.yul\":521:556   */\n      swap1\n      pop\n        /* \"#utility.yul\":466:562   */\n      swap2\n      swap1\n      pop\n      jump\t// out\n        /* \"#utility.yul\":568:690   */\n    tag_24:\n        /* \"#utility.yul\":641:665   */\n      tag_52\n        /* \"#utility.yul\":659:664   */\n      dup2\n        /* \"#utility.yul\":641:665   */\n      tag_23\n      jump\t// in\n    tag_52:\n        /* \"#utility.yul\":634:639   */\n      dup2\n        /* \"#utility.yul\":631:666   */\n      eq\n        /* \"#utility.yul\":621:684   */\n      tag_53\n      jumpi\n        /* \"#utility.yul\":680:681   */\n      0x00\n        /* \"#utility.yul\":677:678   */\n      dup1\n        /* \"#utility.yul\":670:682   */\n      revert\n        /* \"#utility.yul\":621:684   */\n    tag_53:\n        /* \"#utility.yul\":568:690   */\n      pop\n      jump\t// out\n        /* \"#utility.yul\":696:835   */\n    tag_25:\n        /* \"#utility.yul\":742:747   */\n      0x00\n        /* \"#utility.yul\":780:786   */\n      dup2\n        /* \"#utility.yul\":767:787   */\n      calldataload\n        /* \"#utility.yul\":758:787   */\n      swap1\n      pop\n        /* \"#utility.yul\":796:829   */\n      tag_55\n        /* \"#utility.yul\":823:828   */\n      dup2\n        /* \"#utility.yul\":796:829   */\n      tag_24\n      jump\t// in\n    tag_55:\n        /* \"#utility.yul\":696:835   */\n      swap3\n      swap2\n      pop\n      pop\n      jump\t// out\n        /* \"#utility.yul\":841:958   */\n    tag_26:\n        /* \"#utility.yul\":950:951   */\n      0x00\n        /* \"#utility.yul\":947:948   */\n      dup1\n        /* \"#utility.yul\":940:952   */\n      revert\n        /* \"#utility.yul\":964:1081   */\n    tag_27:\n        /* \"#utility.yul\":1073:1074   */\n      0x00\n        /* \"#utility.yul\":1070:1071   */\n      dup1\n        /* \"#utility.yul\":1063:1075   */\n      revert\n        /* \"#utility.yul\":1087:1204   */\n    tag_28:\n        /* \"#utility.yul\":1196:1197   */\n      0x00\n        /* \"#utility.yul\":1193:1194   */\n      dup1\n        /* \"#utility.yul\":1186:1198   */\n      revert\n        /* \"#utility.yul\":1224:1777   */\n    tag_29:\n        /* \"#utility.yul\":1282:1290   */\n      0x00\n        /* \"#utility.yul\":1292:1298   */\n      dup1\n        /* \"#utility.yul\":1342:1345   */\n      dup4\n        /* \"#utility.yul\":1335:1339   */\n      0x1f\n        /* \"#utility.yul\":1327:1333   */\n      dup5\n        /* \"#utility.yul\":1323:1340   */\n      add\n        /* \"#utility.yul\":1319:1346   */\n      slt\n        /* \"#utility.yul\":1309:1431   */\n      tag_60\n      jumpi\n        /* \"#utility.yul\":1350:1429   */\n      tag_61\n      tag_26\n      jump\t// in\n    tag_61:\n        /* \"#utility.yul\":1309:1431   */\n    tag_60:\n        /* \"#utility.yul\":1463:1469   */\n      dup3\n        /* \"#utility.yul\":1450:1470   */\n      calldataload\n        /* \"#utility.yul\":1440:1470   */\n      swap1\n      pop\n        /* \"#utility.yul\":1493:1511   */\n      0xffffffffffffffff\n        /* \"#utility.yul\":1485:1491   */\n      dup2\n        /* \"#utility.yul\":1482:1512   */\n      gt\n        /* \"#utility.yul\":1479:1596   */\n      iszero\n      tag_62\n      jumpi\n        /* \"#utility.yul\":1515:1594   */\n      tag_63\n      tag_27\n      jump\t// in\n    tag_63:\n        /* \"#utility.yul\":1479:1596   */\n    tag_62:\n        /* \"#utility.yul\":1629:1633   */\n      0x20\n        /* \"#utility.yul\":1621:1627   */\n      dup4\n        /* \"#utility.yul\":1617:1634   */\n      add\n        /* \"#utility.yul\":1605:1634   */\n      swap2\n      pop\n        /* \"#utility.yul\":1683:1686   */\n      dup4\n        /* \"#utility.yul\":1675:1679   */\n      0x01\n        /* \"#utility.yul\":1667:1673   */\n      dup3\n        /* \"#utility.yul\":1663:1680   */\n      mul\n        /* \"#utility.yul\":1653:1661   */\n      dup4\n        /* \"#utility.yul\":1649:1681   */\n      add\n        /* \"#utility.yul\":1646:1687   */\n      gt\n        /* \"#utility.yul\":1643:1771   */\n      iszero\n      tag_64\n      jumpi\n        /* \"#utility.yul\":1690:1769   */\n      tag_65\n      tag_28\n      jump\t// in\n    tag_65:\n        /* \"#utility.yul\":1643:1771   */\n    tag_64:\n        /* \"#utility.yul\":1224:1777   */\n      swap3\n      pop\n      swap3\n      swap1\n      pop\n      jump\t// out\n        /* \"#utility.yul\":1783:2457   */\n    tag_7:\n        /* \"#utility.yul\":1863:1869   */\n      0x00\n        /* \"#utility.yul\":1871:1877   */\n      dup1\n        /* \"#utility.yul\":1879:1885   */\n      0x00\n        /* \"#utility.yul\":1928:1930   */\n      0x40\n        /* \"#utility.yul\":1916:1925   */\n      dup5\n        /* \"#utility.yul\":1907:1914   */\n      dup7\n        /* \"#utility.yul\":1903:1926   */\n      sub\n        /* \"#utility.yul\":1899:1931   */\n      slt\n        /* \"#utility.yul\":1896:2015   */\n      iszero\n      tag_67\n      jumpi\n        /* \"#utility.yul\":1934:2013   */\n      tag_68\n      tag_20\n      jump\t// in\n    tag_68:\n        /* \"#utility.yul\":1896:2015   */\n    tag_67:\n        /* \"#utility.yul\":2054:2055   */\n      0x00\n        /* \"#utility.yul\":2079:2132   */\n      tag_69\n        /* \"#utility.yul\":2124:2131   */\n      dup7\n        /* \"#utility.yul\":2115:2121   */\n      dup3\n        /* \"#utility.yul\":2104:2113   */\n      dup8\n        /* \"#utility.yul\":2100:2122   */\n      add\n        /* \"#utility.yul\":2079:2132   */\n      tag_25\n      jump\t// in\n    tag_69:\n        /* \"#utility.yul\":2069:2132   */\n      swap4\n      pop\n        /* \"#utility.yul\":2025:2142   */\n      pop\n        /* \"#utility.yul\":2209:2211   */\n      0x20\n        /* \"#utility.yul\":2198:2207   */\n      dup5\n        /* \"#utility.yul\":2194:2212   */\n      add\n        /* \"#utility.yul\":2181:2213   */\n      calldataload\n        /* \"#utility.yul\":2240:2258   */\n      0xffffffffffffffff\n        /* \"#utility.yul\":2232:2238   */\n      dup2\n        /* \"#utility.yul\":2229:2259   */\n      gt\n        /* \"#utility.yul\":2226:2343   */\n      iszero\n      tag_70\n      jumpi\n        /* \"#utility.yul\":2262:2341   */\n      tag_71\n      tag_21\n      jump\t// in\n    tag_71:\n        /* \"#utility.yul\":2226:2343   */\n    tag_70:\n        /* \"#utility.yul\":2375:2440   */\n      tag_72\n        /* \"#utility.yul\":2432:2439   */\n      dup7\n        /* \"#utility.yul\":2423:2429   */\n      dup3\n        /* \"#utility.yul\":2412:2421   */\n      dup8\n        /* \"#utility.yul\":2408:2430   */\n      add\n        /* \"#utility.yul\":2375:2440   */\n      tag_29\n      jump\t// in\n    tag_72:\n        /* \"#utility.yul\":2357:2440   */\n      swap3\n      pop\n      swap3\n      pop\n        /* \"#utility.yul\":2152:2450   */\n      pop\n        /* \"#utility.yul\":1783:2457   */\n      swap3\n      pop\n      swap3\n      pop\n      swap3\n      jump\t// out\n        /* \"#utility.yul\":2463:2632   */\n    tag_30:\n        /* \"#utility.yul\":2547:2558   */\n      0x00\n        /* \"#utility.yul\":2581:2587   */\n      dup3\n        /* \"#utility.yul\":2576:2579   */\n      dup3\n        /* \"#utility.yul\":2569:2588   */\n      mstore\n        /* \"#utility.yul\":2621:2625   */\n      0x20\n        /* \"#utility.yul\":2616:2619   */\n      dup3\n        /* \"#utility.yul\":2612:2626   */\n      add\n        /* \"#utility.yul\":2597:2626   */\n      swap1\n      pop\n        /* \"#utility.yul\":2463:2632   */\n      swap3\n      swap2\n      pop\n      pop\n      jump\t// out\n        /* \"#utility.yul\":2638:2786   */\n    tag_31:\n        /* \"#utility.yul\":2736:2742   */\n      dup3\n        /* \"#utility.yul\":2731:2734   */\n      dup2\n        /* \"#utility.yul\":2726:2729   */\n      dup4\n        /* \"#utility.yul\":2713:2743   */\n      calldatacopy\n        /* \"#utility.yul\":2777:2778   */\n      0x00\n        /* \"#utility.yul\":2768:2774   */\n      dup4\n        /* \"#utility.yul\":2763:2766   */\n      dup4\n        /* \"#utility.yul\":2759:2775   */\n      add\n        /* \"#utility.yul\":2752:2779   */\n      mstore\n        /* \"#utility.yul\":2638:2786   */\n      pop\n      pop\n      pop\n      jump\t// out\n        /* \"#utility.yul\":2792:2894   */\n    tag_32:\n        /* \"#utility.yul\":2833:2839   */\n      0x00\n        /* \"#utility.yul\":2884:2886   */\n      0x1f\n        /* \"#utility.yul\":2880:2887   */\n      not\n        /* \"#utility.yul\":2875:2877   */\n      0x1f\n        /* \"#utility.yul\":2868:2873   */\n      dup4\n        /* \"#utility.yul\":2864:2878   */\n      add\n        /* \"#utility.yul\":2860:2888   */\n      and\n        /* \"#utility.yul\":2850:2888   */\n      swap1\n      pop\n        /* \"#utility.yul\":2792:2894   */\n      swap2\n      swap1\n      pop\n      jump\t// out\n        /* \"#utility.yul\":2924:3241   */\n    tag_33:\n        /* \"#utility.yul\":3022:3025   */\n      0x00\n        /* \"#utility.yul\":3043:3114   */\n      tag_77\n        /* \"#utility.yul\":3107:3113   */\n      dup4\n        /* \"#utility.yul\":3102:3105   */\n      dup6\n        /* \"#utility.yul\":3043:3114   */\n      tag_30\n      jump\t// in\n    tag_77:\n        /* \"#utility.yul\":3036:3114   */\n      swap4\n      pop\n        /* \"#utility.yul\":3124:3180   */\n      tag_78\n        /* \"#utility.yul\":3173:3179   */\n      dup4\n        /* \"#utility.yul\":3168:3171   */\n      dup6\n        /* \"#utility.yul\":3161:3166   */\n      dup5\n        /* \"#utility.yul\":3124:3180   */\n      tag_31\n      jump\t// in\n    tag_78:\n        /* \"#utility.yul\":3205:3234   */\n      tag_79\n        /* \"#utility.yul\":3227:3233   */\n      dup4\n        /* \"#utility.yul\":3205:3234   */\n      tag_32\n      jump\t// in\n    tag_79:\n        /* \"#utility.yul\":3200:3203   */\n      dup5\n        /* \"#utility.yul\":3196:3235   */\n      add\n        /* \"#utility.yul\":3189:3235   */\n      swap1\n      pop\n        /* \"#utility.yul\":2924:3241   */\n      swap4\n      swap3\n      pop\n      pop\n      pop\n      jump\t// out\n        /* \"#utility.yul\":3247:3580   */\n    tag_13:\n        /* \"#utility.yul\":3370:3374   */\n      0x00\n        /* \"#utility.yul\":3408:3410   */\n      0x20\n        /* \"#utility.yul\":3397:3406   */\n      dup3\n        /* \"#utility.yul\":3393:3411   */\n      add\n        /* \"#utility.yul\":3385:3411   */\n      swap1\n      pop\n        /* \"#utility.yul\":3457:3466   */\n      dup2\n        /* \"#utility.yul\":3451:3455   */\n      dup2\n        /* \"#utility.yul\":3447:3467   */\n      sub\n        /* \"#utility.yul\":3443:3444   */\n      0x00\n        /* \"#utility.yul\":3432:3441   */\n      dup4\n        /* \"#utility.yul\":3428:3445   */\n      add\n        /* \"#utility.yul\":3421:3468   */\n      mstore\n        /* \"#utility.yul\":3485:3573   */\n      tag_81\n        /* \"#utility.yul\":3568:3572   */\n      dup2\n        /* \"#utility.yul\":3559:3565   */\n      dup5\n        /* \"#utility.yul\":3551:3557   */\n      dup7\n        /* \"#utility.yul\":3485:3573   */\n      tag_33\n      jump\t// in\n    tag_81:\n        /* \"#utility.yul\":3477:3573   */\n      swap1\n      pop\n        /* \"#utility.yul\":3247:3580   */\n      swap4\n      swap3\n      pop\n      pop\n      pop\n      jump\t// out\n        /* \"#utility.yul\":3586:3739   */\n    tag_34:\n        /* \"#utility.yul\":3726:3731   */\n      0x666f6f0000000000000000000000000000000000000000000000000000000000\n        /* \"#utility.yul\":3722:3723   */\n      0x00\n        /* \"#utility.yul\":3714:3720   */\n      dup3\n        /* \"#utility.yul\":3710:3724   */\n      add\n        /* \"#utility.yul\":3703:3732   */\n      mstore\n        /* \"#utility.yul\":3586:3739   */\n      pop\n      jump\t// out\n        /* \"#utility.yul\":3745:4110   */\n    tag_35:\n        /* \"#utility.yul\":3887:3890   */\n      0x00\n        /* \"#utility.yul\":3908:3974   */\n      tag_84\n        /* \"#utility.yul\":3972:3973   */\n      0x03\n        /* \"#utility.yul\":3967:3970   */\n      dup4\n        /* \"#utility.yul\":3908:3974   */\n      tag_30\n      jump\t// in\n    tag_84:\n        /* \"#utility.yul\":3901:3974   */\n      swap2\n      pop\n        /* \"#utility.yul\":3983:4076   */\n      tag_85\n        /* \"#utility.yul\":4072:4075   */\n      dup3\n        /* \"#utility.yul\":3983:4076   */\n      tag_34\n      jump\t// in\n    tag_85:\n        /* \"#utility.yul\":4101:4103   */\n      0x20\n        /* \"#utility.yul\":4096:4099   */\n      dup3\n        /* \"#utility.yul\":4092:4104   */\n      add\n        /* \"#utility.yul\":4085:4104   */\n      swap1\n      pop\n        /* \"#utility.yul\":3745:4110   */\n      swap2\n      swap1\n      pop\n      jump\t// out\n        /* \"#utility.yul\":4116:4203   */\n    tag_36:\n        /* \"#utility.yul\":4163:4170   */\n      0x00\n        /* \"#utility.yul\":4192:4197   */\n      dup2\n        /* \"#utility.yul\":4181:4197   */\n      swap1\n      pop\n        /* \"#utility.yul\":4116:4203   */\n      swap2\n      swap1\n      pop\n      jump\t// out\n        /* \"#utility.yul\":4209:4286   */\n    tag_37:\n        /* \"#utility.yul\":4246:4253   */\n      0x00\n        /* \"#utility.yul\":4275:4280   */\n      dup2\n        /* \"#utility.yul\":4264:4280   */\n      swap1\n      pop\n        /* \"#utility.yul\":4209:4286   */\n      swap2\n      swap1\n      pop\n      jump\t// out\n        /* \"#utility.yul\":4292:4352   */\n    tag_38:\n        /* \"#utility.yul\":4320:4323   */\n      0x00\n        /* \"#utility.yul\":4341:4346   */\n      dup2\n        /* \"#utility.yul\":4334:4346   */\n      swap1\n      pop\n        /* \"#utility.yul\":4292:4352   */\n      swap2\n      swap1\n      pop\n      jump\t// out\n        /* \"#utility.yul\":4358:4520   */\n    tag_39:\n        /* \"#utility.yul\":4418:4427   */\n      0x00\n        /* \"#utility.yul\":4451:4514   */\n      tag_90\n        /* \"#utility.yul\":4469:4513   */\n      tag_91\n        /* \"#utility.yul\":4478:4512   */\n      tag_92\n        /* \"#utility.yul\":4506:4511   */\n      dup5\n        /* \"#utility.yul\":4478:4512   */\n      tag_36\n      jump\t// in\n    tag_92:\n        /* \"#utility.yul\":4469:4513   */\n      tag_38\n      jump\t// in\n    tag_91:\n        /* \"#utility.yul\":4451:4514   */\n      tag_37\n      jump\t// in\n    tag_90:\n        /* \"#utility.yul\":4438:4514   */\n      swap1\n      pop\n        /* \"#utility.yul\":4358:4520   */\n      swap2\n      swap1\n      pop\n      jump\t// out\n        /* \"#utility.yul\":4526:4677   */\n    tag_40:\n        /* \"#utility.yul\":4623:4670   */\n      tag_94\n        /* \"#utility.yul\":4664:4669   */\n      dup2\n        /* \"#utility.yul\":4623:4670   */\n      tag_39\n      jump\t// in\n    tag_94:\n        /* \"#utility.yul\":4618:4621   */\n      dup3\n        /* \"#utility.yul\":4611:4671   */\n      mstore\n        /* \"#utility.yul\":4526:4677   */\n      pop\n      pop\n      jump\t// out\n        /* \"#utility.yul\":4683:5232   */\n    tag_16:\n        /* \"#utility.yul\":4887:4891   */\n      0x00\n        /* \"#utility.yul\":4925:4927   */\n      0x40\n        /* \"#utility.yul\":4914:4923   */\n      dup3\n        /* \"#utility.yul\":4910:4928   */\n      add\n        /* \"#utility.yul\":4902:4928   */\n      swap1\n      pop\n        /* \"#utility.yul\":4974:4983   */\n      dup2\n        /* \"#utility.yul\":4968:4972   */\n      dup2\n        /* \"#utility.yul\":4964:4984   */\n      sub\n        /* \"#utility.yul\":4960:4961   */\n      0x00\n        /* \"#utility.yul\":4949:4958   */\n      dup4\n        /* \"#utility.yul\":4945:4962   */\n      add\n        /* \"#utility.yul\":4938:4985   */\n      mstore\n        /* \"#utility.yul\":5002:5133   */\n      tag_96\n        /* \"#utility.yul\":5128:5132   */\n      dup2\n        /* \"#utility.yul\":5002:5133   */\n      tag_35\n      jump\t// in\n    tag_96:\n        /* \"#utility.yul\":4994:5133   */\n      swap1\n      pop\n        /* \"#utility.yul\":5143:5225   */\n      tag_97\n        /* \"#utility.yul\":5221:5223   */\n      0x20\n        /* \"#utility.yul\":5210:5219   */\n      dup4\n        /* \"#utility.yul\":5206:5224   */\n      add\n        /* \"#utility.yul\":5197:5203   */\n      dup5\n        /* \"#utility.yul\":5143:5225   */\n      tag_40\n      jump\t// in\n    tag_97:\n        /* \"#utility.yul\":4683:5232   */\n      swap3\n      swap2\n      pop\n      pop\n      jump\t// out\n        /* \"#utility.yul\":5238:5325   */\n    tag_41:\n        /* \"#utility.yul\":5285:5292   */\n      0x00\n        /* \"#utility.yul\":5314:5319   */\n      dup2\n        /* \"#utility.yul\":5303:5319   */\n      swap1\n      pop\n        /* \"#utility.yul\":5238:5325   */\n      swap2\n      swap1\n      pop\n      jump\t// out\n        /* \"#utility.yul\":5331:5493   */\n    tag_42:\n        /* \"#utility.yul\":5391:5400   */\n      0x00\n        /* \"#utility.yul\":5424:5487   */\n      tag_100\n        /* \"#utility.yul\":5442:5486   */\n      tag_101\n        /* \"#utility.yul\":5451:5485   */\n      tag_102\n        /* \"#utility.yul\":5479:5484   */\n      dup5\n        /* \"#utility.yul\":5451:5485   */\n      tag_41\n      jump\t// in\n    tag_102:\n        /* \"#utility.yul\":5442:5486   */\n      tag_38\n      jump\t// in\n    tag_101:\n        /* \"#utility.yul\":5424:5487   */\n      tag_37\n      jump\t// in\n    tag_100:\n        /* \"#utility.yul\":5411:5487   */\n      swap1\n      pop\n        /* \"#utility.yul\":5331:5493   */\n      swap2\n      swap1\n      pop\n      jump\t// out\n        /* \"#utility.yul\":5499:5650   */\n    tag_43:\n        /* \"#utility.yul\":5596:5643   */\n      tag_104\n        /* \"#utility.yul\":5637:5642   */\n      dup2\n        /* \"#utility.yul\":5596:5643   */\n      tag_42\n      jump\t// in\n    tag_104:\n        /* \"#utility.yul\":5591:5594   */\n      dup3\n        /* \"#utility.yul\":5584:5644   */\n      mstore\n        /* \"#utility.yul\":5499:5650   */\n      pop\n      pop\n      jump\t// out\n        /* \"#utility.yul\":5656:5898   */\n    tag_18:\n        /* \"#utility.yul\":5759:5763   */\n      0x00\n        /* \"#utility.yul\":5797:5799   */\n      0x20\n        /* \"#utility.yul\":5786:5795   */\n      dup3\n        /* \"#utility.yul\":5782:5800   */\n      add\n        /* \"#utility.yul\":5774:5800   */\n      swap1\n      pop\n        /* \"#utility.yul\":5810:5891   */\n      tag_106\n        /* \"#utility.yul\":5888:5889   */\n      0x00\n        /* \"#utility.yul\":5877:5886   */\n      dup4\n        /* \"#utility.yul\":5873:5890   */\n      add\n        /* \"#utility.yul\":5864:5870   */\n      dup5\n        /* \"#utility.yul\":5810:5891   */\n      tag_43\n      jump\t// in\n    tag_106:\n        /* \"#utility.yul\":5656:5898   */\n      swap3\n      swap2\n      pop\n      pop\n      jump\t// out\n\n    auxdata: 0xa264697066735822122066f4dca2a98e570cc9623ac08590432ba931f5cbc22f6157cd922664c397075e64736f6c634300081a0033\n}\n",
				"bytecode": {
					"linkReferences": {},
					"object": "6080604052348015600e575f80fd5b506104398061001c5f395ff3fe608060405234801561000f575f80fd5b5060043610610034575f3560e01c8063de6f24bb14610038578063f8a8fd6d14610054575b5f80fd5b610052600480360381019061004d9190610217565b61005e565b005b61005c6100ca565b005b8273ffffffffffffffffffffffffffffffffffffffff163373ffffffffffffffffffffffffffffffffffffffff167fb3dbe9e9894ca2c11cb6c80bd0b0bccb9f5b41d612dbeeda0d5474de40b874fe84846040516100bd9291906102ce565b60405180910390a3505050565b7fdd970dd9b5bfe707922155b058a407655cb18288b807e2216442bca8ad83d6b5607b6040516100fa9190610385565b60405180910390a13373ffffffffffffffffffffffffffffffffffffffff167ff950957d2407bed19dc99b718b46b4ce6090c05589006dfb86fd22c34865b23e6101c860405161014a91906103ea565b60405180910390a2565b5f80fd5b5f80fd5b5f73ffffffffffffffffffffffffffffffffffffffff82169050919050565b5f6101858261015c565b9050919050565b6101958161017b565b811461019f575f80fd5b50565b5f813590506101b08161018c565b92915050565b5f80fd5b5f80fd5b5f80fd5b5f8083601f8401126101d7576101d66101b6565b5b8235905067ffffffffffffffff8111156101f4576101f36101ba565b5b6020830191508360018202830111156102105761020f6101be565b5b9250929050565b5f805f6040848603121561022e5761022d610154565b5b5f61023b868287016101a2565b935050602084013567ffffffffffffffff81111561025c5761025b610158565b5b610268868287016101c2565b92509250509250925092565b5f82825260208201905092915050565b828183375f83830152505050565b5f601f19601f8301169050919050565b5f6102ad8385610274565b93506102ba838584610284565b6102c383610292565b840190509392505050565b5f6020820190508181035f8301526102e78184866102a2565b90509392505050565b7f666f6f00000000000000000000000000000000000000000000000000000000005f82015250565b5f610324600383610274565b915061032f826102f0565b602082019050919050565b5f819050919050565b5f819050919050565b5f819050919050565b5f61036f61036a6103658461033a565b61034c565b610343565b9050919050565b61037f81610355565b82525050565b5f6040820190508181035f83015261039c81610318565b90506103ab6020830184610376565b92915050565b5f819050919050565b5f6103d46103cf6103ca846103b1565b61034c565b610343565b9050919050565b6103e4816103ba565b82525050565b5f6020820190506103fd5f8301846103db565b9291505056fea264697066735822122066f4dca2a98e570cc9623ac08590432ba931f5cbc22f6157cd922664c397075e64736f6c634300081a0033",
					"opcodes": "PUSH1 0x80 PUSH1 0x40 MSTORE CALLVALUE DUP1 ISZERO PUSH1 0xE JUMPI PUSH0 DUP1 REVERT JUMPDEST POP PUSH2 0x439 DUP1 PUSH2 0x1C PUSH0 CODECOPY PUSH0 RETURN INVALID PUSH1 0x80 PUSH1 0x40 MSTORE CALLVALUE DUP1 ISZERO PUSH2 0xF JUMPI PUSH0 DUP1 REVERT JUMPDEST POP PUSH1 0x4 CALLDATASIZE LT PUSH2 0x34 JUMPI PUSH0 CALLDATALOAD PUSH1 0xE0 SHR DUP1 PUSH4 0xDE6F24BB EQ PUSH2 0x38 JUMPI DUP1 PUSH4 0xF8A8FD6D EQ PUSH2 0x54 JUMPI JUMPDEST PUSH0 DUP1 REVERT JUMPDEST PUSH2 0x52 PUSH1 0x4 DUP1 CALLDATASIZE SUB DUP2 ADD SWAP1 PUSH2 0x4D SWAP2 SWAP1 PUSH2 0x217 JUMP JUMPDEST PUSH2 0x5E JUMP JUMPDEST STOP JUMPDEST PUSH2 0x5C PUSH2 0xCA JUMP JUMPDEST STOP JUMPDEST DUP3 PUSH20 0xFFFFFFFFFFFFFFFFFFFFFFFFFFFFFFFFFFFFFFFF AND CALLER PUSH20 0xFFFFFFFFFFFFFFFFFFFFFFFFFFFFFFFFFFFFFFFF AND PUSH32 0xB3DBE9E9894CA2C11CB6C80BD0B0BCCB9F5B41D612DBEEDA0D5474DE40B874FE DUP5 DUP5 PUSH1 0x40 MLOAD PUSH2 0xBD SWAP3 SWAP2 SWAP1 PUSH2 0x2CE JUMP JUMPDEST PUSH1 0x40 MLOAD DUP1 SWAP2 SUB SWAP1 LOG3 POP POP POP JUMP JUMPDEST PUSH32 0xDD970DD9B5BFE707922155B058A407655CB18288B807E2216442BCA8AD83D6B5 PUSH1 0x7B PUSH1 0x40 MLOAD PUSH2 0xFA SWAP2 SWAP1 PUSH2 0x385 JUMP JUMPDEST PUSH1 0x40 MLOAD DUP1 SWAP2 SUB SWAP1 LOG1 CALLER PUSH20 0xFFFFFFFFFFFFFFFFFFFFFFFFFFFFFFFFFFFFFFFF AND PUSH32 0xF950957D2407BED19DC99B718B46B4CE6090C05589006DFB86FD22C34865B23E PUSH2 0x1C8 PUSH1 0x40 MLOAD PUSH2 0x14A SWAP2 SWAP1 PUSH2 0x3EA JUMP JUMPDEST PUSH1 0x40 MLOAD DUP1 SWAP2 SUB SWAP1 LOG2 JUMP JUMPDEST PUSH0 DUP1 REVERT JUMPDEST PUSH0 DUP1 REVERT JUMPDEST PUSH0 PUSH20 0xFFFFFFFFFFFFFFFFFFFFFFFFFFFFFFFFFFFFFFFF DUP3 AND SWAP1 POP SWAP2 SWAP1 POP JUMP JUMPDEST PUSH0 PUSH2 0x185 DUP3 PUSH2 0x15C JUMP JUMPDEST SWAP1 POP SWAP2 SWAP1 POP JUMP JUMPDEST PUSH2 0x195 DUP2 PUSH2 0x17B JUMP JUMPDEST DUP2 EQ PUSH2 0x19F JUMPI PUSH0 DUP1 REVERT JUMPDEST POP JUMP JUMPDEST PUSH0 DUP2 CALLDATALOAD SWAP1 POP PUSH2 0x1B0 DUP2 PUSH2 0x18C JUMP JUMPDEST SWAP3 SWAP2 POP POP JUMP JUMPDEST PUSH0 DUP1 REVERT JUMPDEST PUSH0 DUP1 REVERT JUMPDEST PUSH0 DUP1 REVERT JUMPDEST PUSH0 DUP1 DUP4 PUSH1 0x1F DUP5 ADD SLT PUSH2 0x1D7 JUMPI PUSH2 0x1D6 PUSH2 0x1B6 JUMP JUMPDEST JUMPDEST DUP3 CALLDATALOAD SWAP1 POP PUSH8 0xFFFFFFFFFFFFFFFF DUP2 GT ISZERO PUSH2 0x1F4 JUMPI PUSH2 0x1F3 PUSH2 0x1BA JUMP JUMPDEST JUMPDEST PUSH1 0x20 DUP4 ADD SWAP2 POP DUP4 PUSH1 0x1 DUP3 MUL DUP4 ADD GT ISZERO PUSH2 0x210 JUMPI PUSH2 0x20F PUSH2 0x1BE JUMP JUMPDEST JUMPDEST SWAP3 POP SWAP3 SWAP1 POP JUMP JUMPDEST PUSH0 DUP1 PUSH0 PUSH1 0x40 DUP5 DUP7 SUB SLT ISZERO PUSH2 0x22E JUMPI PUSH2 0x22D PUSH2 0x154 JUMP JUMPDEST JUMPDEST PUSH0 PUSH2 0x23B DUP7 DUP3 DUP8 ADD PUSH2 0x1A2 JUMP JUMPDEST SWAP4 POP POP PUSH1 0x20 DUP5 ADD CALLDATALOAD PUSH8 0xFFFFFFFFFFFFFFFF DUP2 GT ISZERO PUSH2 0x25C JUMPI PUSH2 0x25B PUSH2 0x158 JUMP JUMPDEST JUMPDEST PUSH2 0x268 DUP7 DUP3 DUP8 ADD PUSH2 0x1C2 JUMP JUMPDEST SWAP3 POP SWAP3 POP POP SWAP3 POP SWAP3 POP SWAP3 JUMP JUMPDEST PUSH0 DUP3 DUP3 MSTORE PUSH1 0x20 DUP3 ADD SWAP1 POP SWAP3 SWAP2 POP POP JUMP JUMPDEST DUP3 DUP2 DUP4 CALLDATACOPY PUSH0 DUP4 DUP4 ADD MSTORE POP POP POP JUMP JUMPDEST PUSH0 PUSH1 0x1F NOT PUSH1 0x1F DUP4 ADD AND SWAP1 POP SWAP2 SWAP1 POP JUMP JUMPDEST PUSH0 PUSH2 0x2AD DUP4 DUP6 PUSH2 0x274 JUMP JUMPDEST SWAP4 POP PUSH2 0x2BA DUP4 DUP6 DUP5 PUSH2 0x284 JUMP JUMPDEST PUSH2 0x2C3 DUP4 PUSH2 0x292 JUMP JUMPDEST DUP5 ADD SWAP1 POP SWAP4 SWAP3 POP POP POP JUMP JUMPDEST PUSH0 PUSH1 0x20 DUP3 ADD SWAP1 POP DUP2 DUP2 SUB PUSH0 DUP4 ADD MSTORE PUSH2 0x2E7 DUP2 DUP5 DUP7 PUSH2 0x2A2 JUMP JUMPDEST SWAP1 POP SWAP4 SWAP3 POP POP POP JUMP JUMPDEST PUSH32 0x666F6F0000000000000000000000000000000000000000000000000000000000 PUSH0 DUP3 ADD MSTORE POP JUMP JUMPDEST PUSH0 PUSH2 0x324 PUSH1 0x3 DUP4 PUSH2 0x274 JUMP JUMPDEST SWAP2 POP PUSH2 0x32F DUP3 PUSH2 0x2F0 JUMP JUMPDEST PUSH1 0x20 DUP3 ADD SWAP1 POP SWAP2 SWAP1 POP JUMP JUMPDEST PUSH0 DUP2 SWAP1 POP SWAP2 SWAP1 POP JUMP JUMPDEST PUSH0 DUP2 SWAP1 POP SWAP2 SWAP1 POP JUMP JUMPDEST PUSH0 DUP2 SWAP1 POP SWAP2 SWAP1 POP JUMP JUMPDEST PUSH0 PUSH2 0x36F PUSH2 0x36A PUSH2 0x365 DUP5 PUSH2 0x33A JUMP JUMPDEST PUSH2 0x34C JUMP JUMPDEST PUSH2 0x343 JUMP JUMPDEST SWAP1 POP SWAP2 SWAP1 POP JUMP JUMPDEST PUSH2 0x37F DUP2 PUSH2 0x355 JUMP JUMPDEST DUP3 MSTORE POP POP JUMP JUMPDEST PUSH0 PUSH1 0x40 DUP3 ADD SWAP1 POP DUP2 DUP2 SUB PUSH0 DUP4 ADD MSTORE PUSH2 0x39C DUP2 PUSH2 0x318 JUMP JUMPDEST SWAP1 POP PUSH2 0x3AB PUSH1 0x20 DUP4 ADD DUP5 PUSH2 0x376 JUMP JUMPDEST SWAP3 SWAP2 POP POP JUMP JUMPDEST PUSH0 DUP2 SWAP1 POP SWAP2 SWAP1 POP JUMP JUMPDEST PUSH0 PUSH2 0x3D4 PUSH2 0x3CF PUSH2 0x3CA DUP5 PUSH2 0x3B1 JUMP JUMPDEST PUSH2 0x34C JUMP JUMPDEST PUSH2 0x343 JUMP JUMPDEST SWAP1 POP SWAP2 SWAP1 POP JUMP JUMPDEST PUSH2 0x3E4 DUP2 PUSH2 0x3BA JUMP JUMPDEST DUP3 MSTORE POP POP JUMP JUMPDEST PUSH0 PUSH1 0x20 DUP3 ADD SWAP1 POP PUSH2 0x3FD PUSH0 DUP4 ADD DUP5 PUSH2 0x3DB JUMP JUMPDEST SWAP3 SWAP2 POP POP JUMP INVALID LOG2 PUSH5 0x6970667358 0x22 SLT KECCAK256 PUSH7 0xF4DCA2A98E570C 0xC9 PUSH3 0x3AC085 SWAP1 NUMBER 0x2B 0xA9 BALANCE CREATE2 0xCB 0xC2 0x2F PUSH2 0x57CD SWAP3 0x26 PUSH5 0xC397075E64 PUSH20 0x6F6C634300081A00330000000000000000000000 "
				},
				"gasEstimates": {
					"creation": {
						"codeDepositCost": "216200",
						"executionCost": "255",
						"totalCost": "216455"
					},
					"external": {
						"sendMessage(address,string)": "infinite",
						"test()": "infinite"
					}
				},
				"methodIdentifiers": {
					"sendMessage(address,string)": "de6f24bb",
					"test()": "f8a8fd6d"
				}
			},
			"storageLayout": {
				"storage": [],
				"types": null
			},
			"userdoc": {
				"kind": "user",
				"methods": {},
				"version": 1
			}
		}
	}
}