{
	"CSAMM.sol": {
		"CSAMM": {
			"abi": [
				{
					"inputs": [
						{
							"internalType": "address",
							"name": "_token0",
							"type": "address"
						},
						{
							"internalType": "address",
							"name": "_token1",
							"type": "address"
						}
					],
					"stateMutability": "nonpayable",
					"type": "constructor"
				},
				{
					"inputs": [
						{
							"internalType": "uint256",
							"name": "_amount0",
							"type": "uint256"
						},
						{
							"internalType": "uint256",
							"name": "_amount1",
							"type": "uint256"
						}
					],
					"name": "addLiquidity",
					"outputs": [
						{
							"internalType": "uint256",
							"name": "shares",
							"type": "uint256"
						}
					],
					"stateMutability": "nonpayable",
					"type": "function"
				},
				{
					"inputs": [
						{
							"internalType": "address",
							"name": "",
							"type": "address"
						}
					],
					"name": "balanceOf",
					"outputs": [
						{
							"internalType": "uint256",
							"name": "",
							"type": "uint256"
						}
					],
					"stateMutability": "view",
					"type": "function"
				},
				{
					"inputs": [
						{
							"internalType": "uint256",
							"name": "_shares",
							"type": "uint256"
						}
					],
					"name": "removeLiquidity",
					"outputs": [
						{
							"internalType": "uint256",
							"name": "d0",
							"type": "uint256"
						},
						{
							"internalType": "uint256",
							"name": "d1",
							"type": "uint256"
						}
					],
					"stateMutability": "nonpayable",
					"type": "function"
				},
				{
					"inputs": [],
					"name": "reserve0",
					"outputs": [
						{
							"internalType": "uint256",
							"name": "",
							"type": "uint256"
						}
					],
					"stateMutability": "view",
					"type": "function"
				},
				{
					"inputs": [],
					"name": "reserve1",
					"outputs": [
						{
							"internalType": "uint256",
							"name": "",
							"type": "uint256"
						}
					],
					"stateMutability": "view",
					"type": "function"
				},
				{
					"inputs": [
						{
							"internalType": "address",
							"name": "_tokenIn",
							"type": "address"
						},
						{
							"internalType": "uint256",
							"name": "_amountIn",
							"type": "uint256"
						}
					],
					"name": "swap",
					"outputs": [
						{
							"internalType": "uint256",
							"name": "amountOut",
							"type": "uint256"
						}
					],
					"stateMutability": "nonpayable",
					"type": "function"
				},
				{
					"inputs": [],
					"name": "token0",
					"outputs": [
						{
							"internalType": "contract IERC20",
							"name": "",
							"type": "address"
						}
					],
					"stateMutability": "view",
					"type": "function"
				},
				{
					"inputs": [],
					"name": "token1",
					"outputs": [
						{
							"internalType": "contract IERC20",
							"name": "",
							"type": "address"
						}
					],
					"stateMutability": "view",
					"type": "function"
				},
				{
					"inputs": [],
					"name": "totalSupply",
					"outputs": [
						{
							"internalType": "uint256",
							"name": "",
							"type": "uint256"
						}
					],
					"stateMutability": "view",
					"type": "function"
				}
			],
			"devdoc": {
				"kind": "dev",
				"methods": {},
				"version": 1
			},
			"evm": {
				"assembly": "    /* \"CSAMM.sol\":114:3943  contract CSAMM{... */\n  mstore(0x40, 0xc0)\n    /* \"CSAMM.sol\":3819:3939  constructor(address _token0, address _token1){... */\n  callvalue\n  dup1\n  iszero\n  tag_1\n  jumpi\n  0x00\n  dup1\n  revert\ntag_1:\n  pop\n  mload(0x40)\n  sub(codesize, bytecodeSize)\n  dup1\n  bytecodeSize\n  dup4\n  codecopy\n  dup2\n  dup2\n  add\n  0x40\n  mstore\n  dup2\n  add\n  swap1\n  tag_2\n  swap2\n  swap1\n  tag_3\n  jump\t// in\ntag_2:\n    /* \"CSAMM.sol\":3890:3897  _token0 */\n  dup2\n    /* \"CSAMM.sol\":3874:3898  token0 = IERC20(_token0) */\n  0xffffffffffffffffffffffffffffffffffffffff\n  and\n  0x80\n  dup2\n  0xffffffffffffffffffffffffffffffffffffffff\n  and\n  dup2\n  mstore\n  pop\n  pop\n    /* \"CSAMM.sol\":3924:3931  _token1 */\n  dup1\n    /* \"CSAMM.sol\":3908:3932  token1 = IERC20(_token1) */\n  0xffffffffffffffffffffffffffffffffffffffff\n  and\n  0xa0\n  dup2\n  0xffffffffffffffffffffffffffffffffffffffff\n  and\n  dup2\n  mstore\n  pop\n  pop\n    /* \"CSAMM.sol\":3819:3939  constructor(address _token0, address _token1){... */\n  pop\n  pop\n    /* \"CSAMM.sol\":114:3943  contract CSAMM{... */\n  jump(tag_6)\n    /* \"#utility.yul\":88:205   */\ntag_8:\n    /* \"#utility.yul\":197:198   */\n  0x00\n    /* \"#utility.yul\":194:195   */\n  dup1\n    /* \"#utility.yul\":187:199   */\n  revert\n    /* \"#utility.yul\":334:460   */\ntag_10:\n    /* \"#utility.yul\":371:378   */\n  0x00\n    /* \"#utility.yul\":411:453   */\n  0xffffffffffffffffffffffffffffffffffffffff\n    /* \"#utility.yul\":404:409   */\n  dup3\n    /* \"#utility.yul\":400:454   */\n  and\n    /* \"#utility.yul\":389:454   */\n  swap1\n  pop\n    /* \"#utility.yul\":334:460   */\n  swap2\n  swap1\n  pop\n  jump\t// out\n    /* \"#utility.yul\":466:562   */\ntag_11:\n    /* \"#utility.yul\":503:510   */\n  0x00\n    /* \"#utility.yul\":532:556   */\n  tag_20\n    /* \"#utility.yul\":550:555   */\n  dup3\n    /* \"#utility.yul\":532:556   */\n  tag_10\n  jump\t// in\ntag_20:\n    /* \"#utility.yul\":521:556   */\n  swap1\n  pop\n    /* \"#utility.yul\":466:562   */\n  swap2\n  swap1\n  pop\n  jump\t// out\n    /* \"#utility.yul\":568:690   */\ntag_12:\n    /* \"#utility.yul\":641:665   */\n  tag_22\n    /* \"#utility.yul\":659:664   */\n  dup2\n    /* \"#utility.yul\":641:665   */\n  tag_11\n  jump\t// in\ntag_22:\n    /* \"#utility.yul\":634:639   */\n  dup2\n    /* \"#utility.yul\":631:666   */\n  eq\n    /* \"#utility.yul\":621:684   */\n  tag_23\n  jumpi\n    /* \"#utility.yul\":680:681   */\n  0x00\n    /* \"#utility.yul\":677:678   */\n  dup1\n    /* \"#utility.yul\":670:682   */\n  revert\n    /* \"#utility.yul\":621:684   */\ntag_23:\n    /* \"#utility.yul\":568:690   */\n  pop\n  jump\t// out\n    /* \"#utility.yul\":696:839   */\ntag_13:\n    /* \"#utility.yul\":753:758   */\n  0x00\n    /* \"#utility.yul\":784:790   */\n  dup2\n    /* \"#utility.yul\":778:791   */\n  mload\n    /* \"#utility.yul\":769:791   */\n  swap1\n  pop\n    /* \"#utility.yul\":800:833   */\n  tag_25\n    /* \"#utility.yul\":827:832   */\n  dup2\n    /* \"#utility.yul\":800:833   */\n  tag_12\n  jump\t// in\ntag_25:\n    /* \"#utility.yul\":696:839   */\n  swap3\n  swap2\n  pop\n  pop\n  jump\t// out\n    /* \"#utility.yul\":845:1352   */\ntag_3:\n    /* \"#utility.yul\":924:930   */\n  0x00\n    /* \"#utility.yul\":932:938   */\n  dup1\n    /* \"#utility.yul\":981:983   */\n  0x40\n    /* \"#utility.yul\":969:978   */\n  dup4\n    /* \"#utility.yul\":960:967   */\n  dup6\n    /* \"#utility.yul\":956:979   */\n  sub\n    /* \"#utility.yul\":952:984   */\n  slt\n    /* \"#utility.yul\":949:1068   */\n  iszero\n  tag_27\n  jumpi\n    /* \"#utility.yul\":987:1066   */\n  tag_28\n  tag_8\n  jump\t// in\ntag_28:\n    /* \"#utility.yul\":949:1068   */\ntag_27:\n    /* \"#utility.yul\":1107:1108   */\n  0x00\n    /* \"#utility.yul\":1132:1196   */\n  tag_29\n    /* \"#utility.yul\":1188:1195   */\n  dup6\n    /* \"#utility.yul\":1179:1185   */\n  dup3\n    /* \"#utility.yul\":1168:1177   */\n  dup7\n    /* \"#utility.yul\":1164:1186   */\n  add\n    /* \"#utility.yul\":1132:1196   */\n  tag_13\n  jump\t// in\ntag_29:\n    /* \"#utility.yul\":1122:1196   */\n  swap3\n  pop\n    /* \"#utility.yul\":1078:1206   */\n  pop\n    /* \"#utility.yul\":1245:1247   */\n  0x20\n    /* \"#utility.yul\":1271:1335   */\n  tag_30\n    /* \"#utility.yul\":1327:1334   */\n  dup6\n    /* \"#utility.yul\":1318:1324   */\n  dup3\n    /* \"#utility.yul\":1307:1316   */\n  dup7\n    /* \"#utility.yul\":1303:1325   */\n  add\n    /* \"#utility.yul\":1271:1335   */\n  tag_13\n  jump\t// in\ntag_30:\n    /* \"#utility.yul\":1261:1335   */\n  swap2\n  pop\n    /* \"#utility.yul\":1216:1345   */\n  pop\n    /* \"#utility.yul\":845:1352   */\n  swap3\n  pop\n  swap3\n  swap1\n  pop\n  jump\t// out\n    /* \"CSAMM.sol\":114:3943  contract CSAMM{... */\ntag_6:\n  mload(0x80)\n  mload(0xa0)\n  codecopy(0x00, dataOffset(sub_0), dataSize(sub_0))\n  0x00\n  assignImmutable(\"0x03065c56175bab9d6c02682cec557b5c933cd8364ccf2dd44ab76e0c260931e7\")\n  0x00\n  assignImmutable(\"0x588e5ad3f145f9d841773d4229bac23d743ef980914ad5d2b613712259f67f55\")\n  return(0x00, dataSize(sub_0))\nstop\n\nsub_0: assembly {\n        /* \"CSAMM.sol\":114:3943  contract CSAMM{... */\n      mstore(0x40, 0x80)\n      callvalue\n      dup1\n      iszero\n      tag_1\n      jumpi\n      0x00\n      dup1\n      revert\n    tag_1:\n      pop\n      jumpi(tag_2, lt(calldatasize, 0x04))\n      shr(0xe0, calldataload(0x00))\n      dup1\n      0x70a08231\n      gt\n      tag_12\n      jumpi\n      dup1\n      0x70a08231\n      eq\n      tag_7\n      jumpi\n      dup1\n      0x9c8f9f23\n      eq\n      tag_8\n      jumpi\n      dup1\n      0x9cd441da\n      eq\n      tag_9\n      jumpi\n      dup1\n      0xd004f0f7\n      eq\n      tag_10\n      jumpi\n      dup1\n      0xd21220a7\n      eq\n      tag_11\n      jumpi\n      jump(tag_2)\n    tag_12:\n      dup1\n      0x0dfe1681\n      eq\n      tag_3\n      jumpi\n      dup1\n      0x18160ddd\n      eq\n      tag_4\n      jumpi\n      dup1\n      0x443cb4bc\n      eq\n      tag_5\n      jumpi\n      dup1\n      0x5a76f25e\n      eq\n      tag_6\n      jumpi\n    tag_2:\n      0x00\n      dup1\n      revert\n        /* \"CSAMM.sol\":135:165  IERC20 public immutable token0 */\n    tag_3:\n      tag_13\n      tag_14\n      jump\t// in\n    tag_13:\n      mload(0x40)\n      tag_15\n      swap2\n      swap1\n      tag_16\n      jump\t// in\n    tag_15:\n      mload(0x40)\n      dup1\n      swap2\n      sub\n      swap1\n      return\n        /* \"CSAMM.sol\":260:283  uint public totalSupply */\n    tag_4:\n      tag_17\n      tag_18\n      jump\t// in\n    tag_17:\n      mload(0x40)\n      tag_19\n      swap2\n      swap1\n      tag_20\n      jump\t// in\n    tag_19:\n      mload(0x40)\n      dup1\n      swap2\n      sub\n      swap1\n      return\n        /* \"CSAMM.sol\":208:228  uint public reserve0 */\n    tag_5:\n      tag_21\n      tag_22\n      jump\t// in\n    tag_21:\n      mload(0x40)\n      tag_23\n      swap2\n      swap1\n      tag_20\n      jump\t// in\n    tag_23:\n      mload(0x40)\n      dup1\n      swap2\n      sub\n      swap1\n      return\n        /* \"CSAMM.sol\":234:254  uint public reserve1 */\n    tag_6:\n      tag_24\n      tag_25\n      jump\t// in\n    tag_24:\n      mload(0x40)\n      tag_26\n      swap2\n      swap1\n      tag_20\n      jump\t// in\n    tag_26:\n      mload(0x40)\n      dup1\n      swap2\n      sub\n      swap1\n      return\n        /* \"CSAMM.sol\":290:332  mapping (address => uint) public balanceOf */\n    tag_7:\n      tag_27\n      0x04\n      dup1\n      calldatasize\n      sub\n      dup2\n      add\n      swap1\n      tag_28\n      swap2\n      swap1\n      tag_29\n      jump\t// in\n    tag_28:\n      tag_30\n      jump\t// in\n    tag_27:\n      mload(0x40)\n      tag_31\n      swap2\n      swap1\n      tag_20\n      jump\t// in\n    tag_31:\n      mload(0x40)\n      dup1\n      swap2\n      sub\n      swap1\n      return\n        /* \"CSAMM.sol\":3395:3813  function removeLiquidity(uint _shares) external returns(uint d0,uint d1){... */\n    tag_8:\n      tag_32\n      0x04\n      dup1\n      calldatasize\n      sub\n      dup2\n      add\n      swap1\n      tag_33\n      swap2\n      swap1\n      tag_34\n      jump\t// in\n    tag_33:\n      tag_35\n      jump\t// in\n    tag_32:\n      mload(0x40)\n      tag_36\n      swap3\n      swap2\n      swap1\n      tag_37\n      jump\t// in\n    tag_36:\n      mload(0x40)\n      dup1\n      swap2\n      sub\n      swap1\n      return\n        /* \"CSAMM.sol\":2727:3388  function addLiquidity(uint _amount0,uint _amount1) external returns(uint shares){... */\n    tag_9:\n      tag_38\n      0x04\n      dup1\n      calldatasize\n      sub\n      dup2\n      add\n      swap1\n      tag_39\n      swap2\n      swap1\n      tag_40\n      jump\t// in\n    tag_39:\n      tag_41\n      jump\t// in\n    tag_38:\n      mload(0x40)\n      tag_42\n      swap2\n      swap1\n      tag_20\n      jump\t// in\n    tag_42:\n      mload(0x40)\n      dup1\n      swap2\n      sub\n      swap1\n      return\n        /* \"CSAMM.sol\":726:2698  function swap(address _tokenIn,uint _amountIn)  external returns (uint amountOut)  {... */\n    tag_10:\n      tag_43\n      0x04\n      dup1\n      calldatasize\n      sub\n      dup2\n      add\n      swap1\n      tag_44\n      swap2\n      swap1\n      tag_45\n      jump\t// in\n    tag_44:\n      tag_46\n      jump\t// in\n    tag_43:\n      mload(0x40)\n      tag_47\n      swap2\n      swap1\n      tag_20\n      jump\t// in\n    tag_47:\n      mload(0x40)\n      dup1\n      swap2\n      sub\n      swap1\n      return\n        /* \"CSAMM.sol\":171:201  IERC20 public immutable token1 */\n    tag_11:\n      tag_48\n      tag_49\n      jump\t// in\n    tag_48:\n      mload(0x40)\n      tag_50\n      swap2\n      swap1\n      tag_16\n      jump\t// in\n    tag_50:\n      mload(0x40)\n      dup1\n      swap2\n      sub\n      swap1\n      return\n        /* \"CSAMM.sol\":135:165  IERC20 public immutable token0 */\n    tag_14:\n      immutable(\"0x588e5ad3f145f9d841773d4229bac23d743ef980914ad5d2b613712259f67f55\")\n      dup2\n      jump\t// out\n        /* \"CSAMM.sol\":260:283  uint public totalSupply */\n    tag_18:\n      sload(0x02)\n      dup2\n      jump\t// out\n        /* \"CSAMM.sol\":208:228  uint public reserve0 */\n    tag_22:\n      sload(0x00)\n      dup2\n      jump\t// out\n        /* \"CSAMM.sol\":234:254  uint public reserve1 */\n    tag_25:\n      sload(0x01)\n      dup2\n      jump\t// out\n        /* \"CSAMM.sol\":290:332  mapping (address => uint) public balanceOf */\n    tag_30:\n      mstore(0x20, 0x03)\n      dup1\n      0x00\n      mstore\n      keccak256(0x00, 0x40)\n      0x00\n      swap2\n      pop\n      swap1\n      pop\n      sload\n      dup2\n      jump\t// out\n        /* \"CSAMM.sol\":3395:3813  function removeLiquidity(uint _shares) external returns(uint d0,uint d1){... */\n    tag_35:\n        /* \"CSAMM.sol\":3451:3458  uint d0 */\n      0x00\n        /* \"CSAMM.sol\":3459:3466  uint d1 */\n      dup1\n        /* \"CSAMM.sol\":3505:3516  totalSupply */\n      sload(0x02)\n        /* \"CSAMM.sol\":3493:3501  reserve0 */\n      sload(0x00)\n        /* \"CSAMM.sol\":3483:3490  _shares */\n      dup5\n        /* \"CSAMM.sol\":3483:3501  _shares * reserve0 */\n      tag_52\n      swap2\n      swap1\n      tag_53\n      jump\t// in\n    tag_52:\n        /* \"CSAMM.sol\":3482:3516  (_shares * reserve0) / totalSupply */\n      tag_54\n      swap2\n      swap1\n      tag_55\n      jump\t// in\n    tag_54:\n        /* \"CSAMM.sol\":3477:3516  d0 = (_shares * reserve0) / totalSupply */\n      swap2\n      pop\n        /* \"CSAMM.sol\":3554:3565  totalSupply */\n      sload(0x02)\n        /* \"CSAMM.sol\":3542:3550  reserve1 */\n      sload(0x01)\n        /* \"CSAMM.sol\":3532:3539  _shares */\n      dup5\n        /* \"CSAMM.sol\":3532:3550  _shares * reserve1 */\n      tag_56\n      swap2\n      swap1\n      tag_53\n      jump\t// in\n    tag_56:\n        /* \"CSAMM.sol\":3531:3565  (_shares * reserve1) / totalSupply */\n      tag_57\n      swap2\n      swap1\n      tag_55\n      jump\t// in\n    tag_57:\n        /* \"CSAMM.sol\":3526:3565  d1 = (_shares * reserve1) / totalSupply */\n      swap1\n      pop\n        /* \"CSAMM.sol\":3576:3602  _burn(msg.sender, _shares) */\n      tag_58\n        /* \"CSAMM.sol\":3582:3592  msg.sender */\n      caller\n        /* \"CSAMM.sol\":3594:3601  _shares */\n      dup5\n        /* \"CSAMM.sol\":3576:3581  _burn */\n      tag_59\n        /* \"CSAMM.sol\":3576:3602  _burn(msg.sender, _shares) */\n      jump\t// in\n    tag_58:\n        /* \"CSAMM.sol\":3613:3650  _update(reserve0 - d0, reserve1 - d1) */\n      tag_60\n        /* \"CSAMM.sol\":3632:3634  d0 */\n      dup3\n        /* \"CSAMM.sol\":3621:3629  reserve0 */\n      sload(0x00)\n        /* \"CSAMM.sol\":3621:3634  reserve0 - d0 */\n      tag_61\n      swap2\n      swap1\n      tag_62\n      jump\t// in\n    tag_61:\n        /* \"CSAMM.sol\":3647:3649  d1 */\n      dup3\n        /* \"CSAMM.sol\":3636:3644  reserve1 */\n      sload(0x01)\n        /* \"CSAMM.sol\":3636:3649  reserve1 - d1 */\n      tag_63\n      swap2\n      swap1\n      tag_62\n      jump\t// in\n    tag_63:\n        /* \"CSAMM.sol\":3613:3620  _update */\n      tag_64\n        /* \"CSAMM.sol\":3613:3650  _update(reserve0 - d0, reserve1 - d1) */\n      jump\t// in\n    tag_60:\n        /* \"CSAMM.sol\":3668:3669  0 */\n      0x00\n        /* \"CSAMM.sol\":3663:3665  d0 */\n      dup3\n        /* \"CSAMM.sol\":3663:3669  d0 > 0 */\n      gt\n        /* \"CSAMM.sol\":3660:3729  if(d0 > 0 ){... */\n      iszero\n      tag_65\n      jumpi\n        /* \"CSAMM.sol\":3685:3691  token0 */\n      immutable(\"0x588e5ad3f145f9d841773d4229bac23d743ef980914ad5d2b613712259f67f55\")\n        /* \"CSAMM.sol\":3685:3700  token0.transfer */\n      0xffffffffffffffffffffffffffffffffffffffff\n      and\n      0xa9059cbb\n        /* \"CSAMM.sol\":3701:3711  msg.sender */\n      caller\n        /* \"CSAMM.sol\":3713:3715  d0 */\n      dup5\n        /* \"CSAMM.sol\":3685:3717  token0.transfer(msg.sender, d0 ) */\n      mload(0x40)\n      dup4\n      0xffffffff\n      and\n      0xe0\n      shl\n      dup2\n      mstore\n      0x04\n      add\n      tag_66\n      swap3\n      swap2\n      swap1\n      tag_67\n      jump\t// in\n    tag_66:\n      0x20\n      mload(0x40)\n      dup1\n      dup4\n      sub\n      dup2\n      0x00\n      dup8\n      gas\n      call\n      iszero\n      dup1\n      iszero\n      tag_69\n      jumpi\n      returndatasize\n      0x00\n      dup1\n      returndatacopy\n      revert(0x00, returndatasize)\n    tag_69:\n      pop\n      pop\n      pop\n      pop\n      mload(0x40)\n      returndatasize\n      not(0x1f)\n      0x1f\n      dup3\n      add\n      and\n      dup3\n      add\n      dup1\n      0x40\n      mstore\n      pop\n      dup2\n      add\n      swap1\n      tag_70\n      swap2\n      swap1\n      tag_71\n      jump\t// in\n    tag_70:\n      pop\n        /* \"CSAMM.sol\":3660:3729  if(d0 > 0 ){... */\n    tag_65:\n        /* \"CSAMM.sol\":3747:3748  0 */\n      0x00\n        /* \"CSAMM.sol\":3742:3744  d1 */\n      dup2\n        /* \"CSAMM.sol\":3742:3748  d1 > 0 */\n      gt\n        /* \"CSAMM.sol\":3738:3807  if (d1 > 0 ){... */\n      iszero\n      tag_72\n      jumpi\n        /* \"CSAMM.sol\":3764:3770  token1 */\n      immutable(\"0x03065c56175bab9d6c02682cec557b5c933cd8364ccf2dd44ab76e0c260931e7\")\n        /* \"CSAMM.sol\":3764:3779  token1.transfer */\n      0xffffffffffffffffffffffffffffffffffffffff\n      and\n      0xa9059cbb\n        /* \"CSAMM.sol\":3780:3790  msg.sender */\n      caller\n        /* \"CSAMM.sol\":3792:3794  d1 */\n      dup4\n        /* \"CSAMM.sol\":3764:3796  token1.transfer(msg.sender, d1 ) */\n      mload(0x40)\n      dup4\n      0xffffffff\n      and\n      0xe0\n      shl\n      dup2\n      mstore\n      0x04\n      add\n      tag_73\n      swap3\n      swap2\n      swap1\n      tag_67\n      jump\t// in\n    tag_73:\n      0x20\n      mload(0x40)\n      dup1\n      dup4\n      sub\n      dup2\n      0x00\n      dup8\n      gas\n      call\n      iszero\n      dup1\n      iszero\n      tag_75\n      jumpi\n      returndatasize\n      0x00\n      dup1\n      returndatacopy\n      revert(0x00, returndatasize)\n    tag_75:\n      pop\n      pop\n      pop\n      pop\n      mload(0x40)\n      returndatasize\n      not(0x1f)\n      0x1f\n      dup3\n      add\n      and\n      dup3\n      add\n      dup1\n      0x40\n      mstore\n      pop\n      dup2\n      add\n      swap1\n      tag_76\n      swap2\n      swap1\n      tag_71\n      jump\t// in\n    tag_76:\n      pop\n        /* \"CSAMM.sol\":3738:3807  if (d1 > 0 ){... */\n    tag_72:\n        /* \"CSAMM.sol\":3395:3813  function removeLiquidity(uint _shares) external returns(uint d0,uint d1){... */\n      swap2\n      pop\n      swap2\n      jump\t// out\n        /* \"CSAMM.sol\":2727:3388  function addLiquidity(uint _amount0,uint _amount1) external returns(uint shares){... */\n    tag_41:\n        /* \"CSAMM.sol\":2795:2806  uint shares */\n      0x00\n        /* \"CSAMM.sol\":2818:2824  token0 */\n      immutable(\"0x588e5ad3f145f9d841773d4229bac23d743ef980914ad5d2b613712259f67f55\")\n        /* \"CSAMM.sol\":2818:2837  token0.transferFrom */\n      0xffffffffffffffffffffffffffffffffffffffff\n      and\n      0x23b872dd\n        /* \"CSAMM.sol\":2838:2848  msg.sender */\n      caller\n        /* \"CSAMM.sol\":2858:2862  this */\n      address\n        /* \"CSAMM.sol\":2865:2873  _amount0 */\n      dup7\n        /* \"CSAMM.sol\":2818:2874  token0.transferFrom(msg.sender, address(this), _amount0) */\n      mload(0x40)\n      dup5\n      0xffffffff\n      and\n      0xe0\n      shl\n      dup2\n      mstore\n      0x04\n      add\n      tag_78\n      swap4\n      swap3\n      swap2\n      swap1\n      tag_79\n      jump\t// in\n    tag_78:\n      0x20\n      mload(0x40)\n      dup1\n      dup4\n      sub\n      dup2\n      0x00\n      dup8\n      gas\n      call\n      iszero\n      dup1\n      iszero\n      tag_81\n      jumpi\n      returndatasize\n      0x00\n      dup1\n      returndatacopy\n      revert(0x00, returndatasize)\n    tag_81:\n      pop\n      pop\n      pop\n      pop\n      mload(0x40)\n      returndatasize\n      not(0x1f)\n      0x1f\n      dup3\n      add\n      and\n      dup3\n      add\n      dup1\n      0x40\n      mstore\n      pop\n      dup2\n      add\n      swap1\n      tag_82\n      swap2\n      swap1\n      tag_71\n      jump\t// in\n    tag_82:\n      pop\n        /* \"CSAMM.sol\":2884:2890  token1 */\n      immutable(\"0x03065c56175bab9d6c02682cec557b5c933cd8364ccf2dd44ab76e0c260931e7\")\n        /* \"CSAMM.sol\":2884:2903  token1.transferFrom */\n      0xffffffffffffffffffffffffffffffffffffffff\n      and\n      0x23b872dd\n        /* \"CSAMM.sol\":2904:2914  msg.sender */\n      caller\n        /* \"CSAMM.sol\":2924:2928  this */\n      address\n        /* \"CSAMM.sol\":2931:2939  _amount1 */\n      dup6\n        /* \"CSAMM.sol\":2884:2940  token1.transferFrom(msg.sender, address(this), _amount1) */\n      mload(0x40)\n      dup5\n      0xffffffff\n      and\n      0xe0\n      shl\n      dup2\n      mstore\n      0x04\n      add\n      tag_83\n      swap4\n      swap3\n      swap2\n      swap1\n      tag_79\n      jump\t// in\n    tag_83:\n      0x20\n      mload(0x40)\n      dup1\n      dup4\n      sub\n      dup2\n      0x00\n      dup8\n      gas\n      call\n      iszero\n      dup1\n      iszero\n      tag_85\n      jumpi\n      returndatasize\n      0x00\n      dup1\n      returndatacopy\n      revert(0x00, returndatasize)\n    tag_85:\n      pop\n      pop\n      pop\n      pop\n      mload(0x40)\n      returndatasize\n      not(0x1f)\n      0x1f\n      dup3\n      add\n      and\n      dup3\n      add\n      dup1\n      0x40\n      mstore\n      pop\n      dup2\n      add\n      swap1\n      tag_86\n      swap2\n      swap1\n      tag_71\n      jump\t// in\n    tag_86:\n      pop\n        /* \"CSAMM.sol\":2950:2959  uint bal0 */\n      0x00\n        /* \"CSAMM.sol\":2962:2968  token0 */\n      immutable(\"0x588e5ad3f145f9d841773d4229bac23d743ef980914ad5d2b613712259f67f55\")\n        /* \"CSAMM.sol\":2962:2978  token0.balanceOf */\n      0xffffffffffffffffffffffffffffffffffffffff\n      and\n      0x70a08231\n        /* \"CSAMM.sol\":2987:2991  this */\n      address\n        /* \"CSAMM.sol\":2962:2993  token0.balanceOf(address(this)) */\n      mload(0x40)\n      dup3\n      0xffffffff\n      and\n      0xe0\n      shl\n      dup2\n      mstore\n      0x04\n      add\n      tag_87\n      swap2\n      swap1\n      tag_88\n      jump\t// in\n    tag_87:\n      0x20\n      mload(0x40)\n      dup1\n      dup4\n      sub\n      dup2\n      dup7\n      gas\n      staticcall\n      iszero\n      dup1\n      iszero\n      tag_90\n      jumpi\n      returndatasize\n      0x00\n      dup1\n      returndatacopy\n      revert(0x00, returndatasize)\n    tag_90:\n      pop\n      pop\n      pop\n      pop\n      mload(0x40)\n      returndatasize\n      not(0x1f)\n      0x1f\n      dup3\n      add\n      and\n      dup3\n      add\n      dup1\n      0x40\n      mstore\n      pop\n      dup2\n      add\n      swap1\n      tag_91\n      swap2\n      swap1\n      tag_92\n      jump\t// in\n    tag_91:\n        /* \"CSAMM.sol\":2950:2993  uint bal0 = token0.balanceOf(address(this)) */\n      swap1\n      pop\n        /* \"CSAMM.sol\":3003:3012  uint bal1 */\n      0x00\n        /* \"CSAMM.sol\":3015:3021  token1 */\n      immutable(\"0x03065c56175bab9d6c02682cec557b5c933cd8364ccf2dd44ab76e0c260931e7\")\n        /* \"CSAMM.sol\":3015:3031  token1.balanceOf */\n      0xffffffffffffffffffffffffffffffffffffffff\n      and\n      0x70a08231\n        /* \"CSAMM.sol\":3040:3044  this */\n      address\n        /* \"CSAMM.sol\":3015:3046  token1.balanceOf(address(this)) */\n      mload(0x40)\n      dup3\n      0xffffffff\n      and\n      0xe0\n      shl\n      dup2\n      mstore\n      0x04\n      add\n      tag_93\n      swap2\n      swap1\n      tag_88\n      jump\t// in\n    tag_93:\n      0x20\n      mload(0x40)\n      dup1\n      dup4\n      sub\n      dup2\n      dup7\n      gas\n      staticcall\n      iszero\n      dup1\n      iszero\n      tag_95\n      jumpi\n      returndatasize\n      0x00\n      dup1\n      returndatacopy\n      revert(0x00, returndatasize)\n    tag_95:\n      pop\n      pop\n      pop\n      pop\n      mload(0x40)\n      returndatasize\n      not(0x1f)\n      0x1f\n      dup3\n      add\n      and\n      dup3\n      add\n      dup1\n      0x40\n      mstore\n      pop\n      dup2\n      add\n      swap1\n      tag_96\n      swap2\n      swap1\n      tag_92\n      jump\t// in\n    tag_96:\n        /* \"CSAMM.sol\":3003:3046  uint bal1 = token1.balanceOf(address(this)) */\n      swap1\n      pop\n        /* \"CSAMM.sol\":3057:3064  uint d0 */\n      0x00\n        /* \"CSAMM.sol\":3074:3082  reserve0 */\n      dup1\n      sload\n        /* \"CSAMM.sol\":3067:3071  bal0 */\n      dup4\n        /* \"CSAMM.sol\":3067:3082  bal0 - reserve0 */\n      tag_97\n      swap2\n      swap1\n      tag_62\n      jump\t// in\n    tag_97:\n        /* \"CSAMM.sol\":3057:3082  uint d0 = bal0 - reserve0 */\n      swap1\n      pop\n        /* \"CSAMM.sol\":3092:3099  uint d1 */\n      0x00\n        /* \"CSAMM.sol\":3109:3117  reserve1 */\n      sload(0x01)\n        /* \"CSAMM.sol\":3102:3106  bal1 */\n      dup4\n        /* \"CSAMM.sol\":3102:3117  bal1 - reserve1 */\n      tag_98\n      swap2\n      swap1\n      tag_62\n      jump\t// in\n    tag_98:\n        /* \"CSAMM.sol\":3092:3117  uint d1 = bal1 - reserve1 */\n      swap1\n      pop\n        /* \"CSAMM.sol\":3146:3147  0 */\n      0x00\n        /* \"CSAMM.sol\":3131:3142  totalSupply */\n      sload(0x02)\n        /* \"CSAMM.sol\":3131:3147  totalSupply == 0 */\n      sub\n        /* \"CSAMM.sol\":3128:3275  if(totalSupply == 0){... */\n      tag_99\n      jumpi\n        /* \"CSAMM.sol\":3176:3178  d1 */\n      dup1\n        /* \"CSAMM.sol\":3171:3173  d0 */\n      dup3\n        /* \"CSAMM.sol\":3171:3178  d0 + d1 */\n      tag_100\n      swap2\n      swap1\n      tag_101\n      jump\t// in\n    tag_100:\n        /* \"CSAMM.sol\":3162:3178  shares = d0 + d1 */\n      swap5\n      pop\n        /* \"CSAMM.sol\":3128:3275  if(totalSupply == 0){... */\n      jump(tag_102)\n    tag_99:\n        /* \"CSAMM.sol\":3255:3263  reserve1 */\n      sload(0x01)\n        /* \"CSAMM.sol\":3244:3252  reserve0 */\n      sload(0x00)\n        /* \"CSAMM.sol\":3244:3263  reserve0 + reserve1 */\n      tag_103\n      swap2\n      swap1\n      tag_101\n      jump\t// in\n    tag_103:\n        /* \"CSAMM.sol\":3229:3240  totalSupply */\n      sload(0x02)\n        /* \"CSAMM.sol\":3223:3225  d1 */\n      dup3\n        /* \"CSAMM.sol\":3218:3220  d0 */\n      dup5\n        /* \"CSAMM.sol\":3218:3225  d0 + d1 */\n      tag_104\n      swap2\n      swap1\n      tag_101\n      jump\t// in\n    tag_104:\n        /* \"CSAMM.sol\":3216:3240  ( d0 + d1) + totalSupply */\n      tag_105\n      swap2\n      swap1\n      tag_101\n      jump\t// in\n    tag_105:\n        /* \"CSAMM.sol\":3215:3264  (( d0 + d1) + totalSupply) /(reserve0 + reserve1) */\n      tag_106\n      swap2\n      swap1\n      tag_55\n      jump\t// in\n    tag_106:\n        /* \"CSAMM.sol\":3207:3264  shares =(( d0 + d1) + totalSupply) /(reserve0 + reserve1) */\n      swap5\n      pop\n        /* \"CSAMM.sol\":3128:3275  if(totalSupply == 0){... */\n    tag_102:\n        /* \"CSAMM.sol\":3302:3303  0 */\n      0x00\n        /* \"CSAMM.sol\":3293:3299  shares */\n      dup6\n        /* \"CSAMM.sol\":3293:3303  shares > 0 */\n      gt\n        /* \"CSAMM.sol\":3285:3321  require(shares > 0,\"Unable to mint\") */\n      tag_107\n      jumpi\n      mload(0x40)\n      0x08c379a000000000000000000000000000000000000000000000000000000000\n      dup2\n      mstore\n      0x04\n      add\n      tag_108\n      swap1\n      tag_109\n      jump\t// in\n    tag_108:\n      mload(0x40)\n      dup1\n      swap2\n      sub\n      swap1\n      revert\n    tag_107:\n        /* \"CSAMM.sol\":3331:3356  _mint(msg.sender, shares) */\n      tag_110\n        /* \"CSAMM.sol\":3337:3347  msg.sender */\n      caller\n        /* \"CSAMM.sol\":3349:3355  shares */\n      dup7\n        /* \"CSAMM.sol\":3331:3336  _mint */\n      tag_111\n        /* \"CSAMM.sol\":3331:3356  _mint(msg.sender, shares) */\n      jump\t// in\n    tag_110:\n        /* \"CSAMM.sol\":3366:3381  _update(d0, d1) */\n      tag_112\n        /* \"CSAMM.sol\":3374:3376  d0 */\n      dup3\n        /* \"CSAMM.sol\":3378:3380  d1 */\n      dup3\n        /* \"CSAMM.sol\":3366:3373  _update */\n      tag_64\n        /* \"CSAMM.sol\":3366:3381  _update(d0, d1) */\n      jump\t// in\n    tag_112:\n        /* \"CSAMM.sol\":2807:3388  {... */\n      pop\n      pop\n      pop\n      pop\n        /* \"CSAMM.sol\":2727:3388  function addLiquidity(uint _amount0,uint _amount1) external returns(uint shares){... */\n      swap3\n      swap2\n      pop\n      pop\n      jump\t// out\n        /* \"CSAMM.sol\":726:2698  function swap(address _tokenIn,uint _amountIn)  external returns (uint amountOut)  {... */\n    tag_46:\n        /* \"CSAMM.sol\":792:806  uint amountOut */\n      0x00\n        /* \"CSAMM.sol\":847:853  token0 */\n      immutable(\"0x588e5ad3f145f9d841773d4229bac23d743ef980914ad5d2b613712259f67f55\")\n        /* \"CSAMM.sol\":827:854  _tokenIn == address(token0) */\n      0xffffffffffffffffffffffffffffffffffffffff\n      and\n        /* \"CSAMM.sol\":827:835  _tokenIn */\n      dup4\n        /* \"CSAMM.sol\":827:854  _tokenIn == address(token0) */\n      0xffffffffffffffffffffffffffffffffffffffff\n      and\n      eq\n        /* \"CSAMM.sol\":827:884  _tokenIn == address(token0) ||_tokenIn == address(token1) */\n      dup1\n      tag_114\n      jumpi\n      pop\n        /* \"CSAMM.sol\":877:883  token1 */\n      immutable(\"0x03065c56175bab9d6c02682cec557b5c933cd8364ccf2dd44ab76e0c260931e7\")\n        /* \"CSAMM.sol\":857:884  _tokenIn == address(token1) */\n      0xffffffffffffffffffffffffffffffffffffffff\n      and\n        /* \"CSAMM.sol\":857:865  _tokenIn */\n      dup4\n        /* \"CSAMM.sol\":857:884  _tokenIn == address(token1) */\n      0xffffffffffffffffffffffffffffffffffffffff\n      and\n      eq\n        /* \"CSAMM.sol\":827:884  _tokenIn == address(token0) ||_tokenIn == address(token1) */\n    tag_114:\n        /* \"CSAMM.sol\":819:900  require(_tokenIn == address(token0) ||_tokenIn == address(token1), \"Wrong Token\") */\n      tag_115\n      jumpi\n      mload(0x40)\n      0x08c379a000000000000000000000000000000000000000000000000000000000\n      dup2\n      mstore\n      0x04\n      add\n      tag_116\n      swap1\n      tag_117\n      jump\t// in\n    tag_116:\n      mload(0x40)\n      dup1\n      swap2\n      sub\n      swap1\n      revert\n    tag_115:\n        /* \"CSAMM.sol\":911:924  bool isToken0 */\n      0x00\n        /* \"CSAMM.sol\":947:953  token0 */\n      immutable(\"0x588e5ad3f145f9d841773d4229bac23d743ef980914ad5d2b613712259f67f55\")\n        /* \"CSAMM.sol\":927:954  _tokenIn == address(token0) */\n      0xffffffffffffffffffffffffffffffffffffffff\n      and\n        /* \"CSAMM.sol\":927:935  _tokenIn */\n      dup5\n        /* \"CSAMM.sol\":927:954  _tokenIn == address(token0) */\n      0xffffffffffffffffffffffffffffffffffffffff\n      and\n      eq\n        /* \"CSAMM.sol\":911:954  bool isToken0 = _tokenIn == address(token0) */\n      swap1\n      pop\n        /* \"CSAMM.sol\":965:979  IERC20 tokenIn */\n      0x00\n        /* \"CSAMM.sol\":980:995  IERC20 tokenOut */\n      dup1\n        /* \"CSAMM.sol\":999:1007  isToken0 */\n      dup3\n        /* \"CSAMM.sol\":999:1041  isToken0 ? (token0,token1):(token1,token0) */\n      tag_118\n      jumpi\n        /* \"CSAMM.sol\":1027:1033  token1 */\n      immutable(\"0x03065c56175bab9d6c02682cec557b5c933cd8364ccf2dd44ab76e0c260931e7\")\n        /* \"CSAMM.sol\":1034:1040  token0 */\n      immutable(\"0x588e5ad3f145f9d841773d4229bac23d743ef980914ad5d2b613712259f67f55\")\n        /* \"CSAMM.sol\":999:1041  isToken0 ? (token0,token1):(token1,token0) */\n      jump(tag_119)\n    tag_118:\n        /* \"CSAMM.sol\":1011:1017  token0 */\n      immutable(\"0x588e5ad3f145f9d841773d4229bac23d743ef980914ad5d2b613712259f67f55\")\n        /* \"CSAMM.sol\":1018:1024  token1 */\n      immutable(\"0x03065c56175bab9d6c02682cec557b5c933cd8364ccf2dd44ab76e0c260931e7\")\n        /* \"CSAMM.sol\":999:1041  isToken0 ? (token0,token1):(token1,token0) */\n    tag_119:\n        /* \"CSAMM.sol\":964:1041  (IERC20 tokenIn,IERC20 tokenOut) = isToken0 ? (token0,token1):(token1,token0) */\n      swap2\n      pop\n      swap2\n      pop\n        /* \"CSAMM.sol\":1052:1066  uint reserveIn */\n      0x00\n        /* \"CSAMM.sol\":1067:1082  uint reserveOut */\n      dup1\n        /* \"CSAMM.sol\":1086:1094  isToken0 */\n      dup5\n        /* \"CSAMM.sol\":1086:1136  isToken0 ? (reserve0,reserve1):(reserve1,reserve0) */\n      tag_120\n      jumpi\n        /* \"CSAMM.sol\":1118:1126  reserve1 */\n      sload(0x01)\n        /* \"CSAMM.sol\":1127:1135  reserve0 */\n      sload(0x00)\n        /* \"CSAMM.sol\":1086:1136  isToken0 ? (reserve0,reserve1):(reserve1,reserve0) */\n      jump(tag_121)\n    tag_120:\n        /* \"CSAMM.sol\":1098:1106  reserve0 */\n      sload(0x00)\n        /* \"CSAMM.sol\":1107:1115  reserve1 */\n      sload(0x01)\n        /* \"CSAMM.sol\":1086:1136  isToken0 ? (reserve0,reserve1):(reserve1,reserve0) */\n    tag_121:\n        /* \"CSAMM.sol\":1051:1136  (uint reserveIn,uint reserveOut) = isToken0 ? (reserve0,reserve1):(reserve1,reserve0) */\n      swap2\n      pop\n      swap2\n      pop\n        /* \"CSAMM.sol\":1146:1160  uint  amountIn */\n      0x00\n        /* \"CSAMM.sol\":1197:1206  reserveIn */\n      dup3\n        /* \"CSAMM.sol\":1163:1169  token0 */\n      immutable(\"0x588e5ad3f145f9d841773d4229bac23d743ef980914ad5d2b613712259f67f55\")\n        /* \"CSAMM.sol\":1163:1179  token0.balanceOf */\n      0xffffffffffffffffffffffffffffffffffffffff\n      and\n      0x70a08231\n        /* \"CSAMM.sol\":1188:1192  this */\n      address\n        /* \"CSAMM.sol\":1163:1194  token0.balanceOf(address(this)) */\n      mload(0x40)\n      dup3\n      0xffffffff\n      and\n      0xe0\n      shl\n      dup2\n      mstore\n      0x04\n      add\n      tag_122\n      swap2\n      swap1\n      tag_88\n      jump\t// in\n    tag_122:\n      0x20\n      mload(0x40)\n      dup1\n      dup4\n      sub\n      dup2\n      dup7\n      gas\n      staticcall\n      iszero\n      dup1\n      iszero\n      tag_124\n      jumpi\n      returndatasize\n      0x00\n      dup1\n      returndatacopy\n      revert(0x00, returndatasize)\n    tag_124:\n      pop\n      pop\n      pop\n      pop\n      mload(0x40)\n      returndatasize\n      not(0x1f)\n      0x1f\n      dup3\n      add\n      and\n      dup3\n      add\n      dup1\n      0x40\n      mstore\n      pop\n      dup2\n      add\n      swap1\n      tag_125\n      swap2\n      swap1\n      tag_92\n      jump\t// in\n    tag_125:\n        /* \"CSAMM.sol\":1163:1206  token0.balanceOf(address(this)) - reserveIn */\n      tag_126\n      swap2\n      swap1\n      tag_62\n      jump\t// in\n    tag_126:\n        /* \"CSAMM.sol\":1146:1206  uint  amountIn = token0.balanceOf(address(this)) - reserveIn */\n      swap1\n      pop\n        /* \"CSAMM.sol\":1923:1930  tokenIn */\n      dup5\n        /* \"CSAMM.sol\":1923:1943  tokenIn.transferFrom */\n      0xffffffffffffffffffffffffffffffffffffffff\n      and\n      0x23b872dd\n        /* \"CSAMM.sol\":1944:1954  msg.sender */\n      caller\n        /* \"CSAMM.sol\":1964:1968  this */\n      address\n        /* \"CSAMM.sol\":1971:1980  _amountIn */\n      dup12\n        /* \"CSAMM.sol\":1923:1981  tokenIn.transferFrom(msg.sender, address(this), _amountIn) */\n      mload(0x40)\n      dup5\n      0xffffffff\n      and\n      0xe0\n      shl\n      dup2\n      mstore\n      0x04\n      add\n      tag_127\n      swap4\n      swap3\n      swap2\n      swap1\n      tag_79\n      jump\t// in\n    tag_127:\n      0x20\n      mload(0x40)\n      dup1\n      dup4\n      sub\n      dup2\n      0x00\n      dup8\n      gas\n      call\n      iszero\n      dup1\n      iszero\n      tag_129\n      jumpi\n      returndatasize\n      0x00\n      dup1\n      returndatacopy\n      revert(0x00, returndatasize)\n    tag_129:\n      pop\n      pop\n      pop\n      pop\n      mload(0x40)\n      returndatasize\n      not(0x1f)\n      0x1f\n      dup3\n      add\n      and\n      dup3\n      add\n      dup1\n      0x40\n      mstore\n      pop\n      dup2\n      add\n      swap1\n      tag_130\n      swap2\n      swap1\n      tag_71\n      jump\t// in\n    tag_130:\n      pop\n        /* \"CSAMM.sol\":2146:2150  1000 */\n      0x03e8\n        /* \"CSAMM.sol\":2141:2144  997 */\n      0x03e5\n        /* \"CSAMM.sol\":2130:2138  amountIn */\n      dup3\n        /* \"CSAMM.sol\":2130:2144  amountIn * 997 */\n      tag_131\n      swap2\n      swap1\n      tag_53\n      jump\t// in\n    tag_131:\n        /* \"CSAMM.sol\":2130:2150  amountIn * 997 /1000 */\n      tag_132\n      swap2\n      swap1\n      tag_55\n      jump\t// in\n    tag_132:\n        /* \"CSAMM.sol\":2118:2150  amountOut = amountIn * 997 /1000 */\n      swap7\n      pop\n        /* \"CSAMM.sol\":2162:2171  uint res0 */\n      0x00\n        /* \"CSAMM.sol\":2172:2181  uint res1 */\n      dup1\n        /* \"CSAMM.sol\":2185:2193  isToken0 */\n      dup8\n        /* \"CSAMM.sol\":2185:2309  isToken0 ?... */\n      tag_133\n      jumpi\n        /* \"CSAMM.sol\":2276:2285  amountOut */\n      dup9\n        /* \"CSAMM.sol\":2264:2273  reserveIn */\n      dup6\n        /* \"CSAMM.sol\":2264:2285  reserveIn - amountOut */\n      tag_134\n      swap2\n      swap1\n      tag_62\n      jump\t// in\n    tag_134:\n        /* \"CSAMM.sol\":2299:2308  _amountIn */\n      dup11\n        /* \"CSAMM.sol\":2286:2296  reserveOut */\n      dup6\n        /* \"CSAMM.sol\":2286:2308  reserveOut + _amountIn */\n      tag_135\n      swap2\n      swap1\n      tag_101\n      jump\t// in\n    tag_135:\n        /* \"CSAMM.sol\":2185:2309  isToken0 ?... */\n      jump(tag_136)\n    tag_133:\n        /* \"CSAMM.sol\":2218:2227  _amountIn */\n      dup10\n        /* \"CSAMM.sol\":2206:2215  reserveIn */\n      dup6\n        /* \"CSAMM.sol\":2206:2227  reserveIn + _amountIn */\n      tag_137\n      swap2\n      swap1\n      tag_101\n      jump\t// in\n    tag_137:\n        /* \"CSAMM.sol\":2241:2250  amountOut */\n      dup10\n        /* \"CSAMM.sol\":2228:2238  reserveOut */\n      dup6\n        /* \"CSAMM.sol\":2228:2250  reserveOut - amountOut */\n      tag_138\n      swap2\n      swap1\n      tag_62\n      jump\t// in\n    tag_138:\n        /* \"CSAMM.sol\":2185:2309  isToken0 ?... */\n    tag_136:\n        /* \"CSAMM.sol\":2161:2309  (uint res0,uint res1) = isToken0 ?... */\n      swap2\n      pop\n      swap2\n      pop\n        /* \"CSAMM.sol\":2321:2339  _update(res0,res1) */\n      tag_139\n        /* \"CSAMM.sol\":2329:2333  res0 */\n      dup3\n        /* \"CSAMM.sol\":2334:2338  res1 */\n      dup3\n        /* \"CSAMM.sol\":2321:2328  _update */\n      tag_64\n        /* \"CSAMM.sol\":2321:2339  _update(res0,res1) */\n      jump\t// in\n    tag_139:\n        /* \"CSAMM.sol\":2652:2660  tokenOut */\n      dup6\n        /* \"CSAMM.sol\":2652:2669  tokenOut.transfer */\n      0xffffffffffffffffffffffffffffffffffffffff\n      and\n      0xa9059cbb\n        /* \"CSAMM.sol\":2670:2680  msg.sender */\n      caller\n        /* \"CSAMM.sol\":2681:2690  amountOut */\n      dup12\n        /* \"CSAMM.sol\":2652:2691  tokenOut.transfer(msg.sender,amountOut) */\n      mload(0x40)\n      dup4\n      0xffffffff\n      and\n      0xe0\n      shl\n      dup2\n      mstore\n      0x04\n      add\n      tag_140\n      swap3\n      swap2\n      swap1\n      tag_67\n      jump\t// in\n    tag_140:\n      0x20\n      mload(0x40)\n      dup1\n      dup4\n      sub\n      dup2\n      0x00\n      dup8\n      gas\n      call\n      iszero\n      dup1\n      iszero\n      tag_142\n      jumpi\n      returndatasize\n      0x00\n      dup1\n      returndatacopy\n      revert(0x00, returndatasize)\n    tag_142:\n      pop\n      pop\n      pop\n      pop\n      mload(0x40)\n      returndatasize\n      not(0x1f)\n      0x1f\n      dup3\n      add\n      and\n      dup3\n      add\n      dup1\n      0x40\n      mstore\n      pop\n      dup2\n      add\n      swap1\n      tag_143\n      swap2\n      swap1\n      tag_71\n      jump\t// in\n    tag_143:\n      pop\n        /* \"CSAMM.sol\":809:2698  {... */\n      pop\n      pop\n      pop\n      pop\n      pop\n      pop\n      pop\n      pop\n        /* \"CSAMM.sol\":726:2698  function swap(address _tokenIn,uint _amountIn)  external returns (uint amountOut)  {... */\n      swap3\n      swap2\n      pop\n      pop\n      jump\t// out\n        /* \"CSAMM.sol\":171:201  IERC20 public immutable token1 */\n    tag_49:\n      immutable(\"0x03065c56175bab9d6c02682cec557b5c933cd8364ccf2dd44ab76e0c260931e7\")\n      dup2\n      jump\t// out\n        /* \"CSAMM.sol\":468:591  function _burn(address _to,uint _amount) private {... */\n    tag_59:\n        /* \"CSAMM.sol\":545:552  _amount */\n      dup1\n        /* \"CSAMM.sol\":527:536  balanceOf */\n      0x03\n        /* \"CSAMM.sol\":527:541  balanceOf[_to] */\n      0x00\n        /* \"CSAMM.sol\":537:540  _to */\n      dup5\n        /* \"CSAMM.sol\":527:541  balanceOf[_to] */\n      0xffffffffffffffffffffffffffffffffffffffff\n      and\n      0xffffffffffffffffffffffffffffffffffffffff\n      and\n      dup2\n      mstore\n      0x20\n      add\n      swap1\n      dup2\n      mstore\n      0x20\n      add\n      0x00\n      keccak256\n      0x00\n        /* \"CSAMM.sol\":527:552  balanceOf[_to] -= _amount */\n      dup3\n      dup3\n      sload\n      tag_145\n      swap2\n      swap1\n      tag_62\n      jump\t// in\n    tag_145:\n      swap3\n      pop\n      pop\n      dup2\n      swap1\n      sstore\n      pop\n        /* \"CSAMM.sol\":577:584  _amount */\n      dup1\n        /* \"CSAMM.sol\":562:573  totalSupply */\n      0x02\n      0x00\n        /* \"CSAMM.sol\":562:584  totalSupply -= _amount */\n      dup3\n      dup3\n      sload\n      tag_146\n      swap2\n      swap1\n      tag_62\n      jump\t// in\n    tag_146:\n      swap3\n      pop\n      pop\n      dup2\n      swap1\n      sstore\n      pop\n        /* \"CSAMM.sol\":468:591  function _burn(address _to,uint _amount) private {... */\n      pop\n      pop\n      jump\t// out\n        /* \"CSAMM.sol\":597:720  function _update(uint _reserve0,uint _reserve1) private {... */\n    tag_64:\n        /* \"CSAMM.sol\":674:683  _reserve0 */\n      dup2\n        /* \"CSAMM.sol\":663:671  reserve0 */\n      0x00\n        /* \"CSAMM.sol\":663:683  reserve0 = _reserve0 */\n      dup2\n      swap1\n      sstore\n      pop\n        /* \"CSAMM.sol\":704:713  _reserve1 */\n      dup1\n        /* \"CSAMM.sol\":693:701  reserve1 */\n      0x01\n        /* \"CSAMM.sol\":693:713  reserve1 = _reserve1 */\n      dup2\n      swap1\n      sstore\n      pop\n        /* \"CSAMM.sol\":597:720  function _update(uint _reserve0,uint _reserve1) private {... */\n      pop\n      pop\n      jump\t// out\n        /* \"CSAMM.sol\":339:462  function _mint(address _to,uint _amount) private {... */\n    tag_111:\n        /* \"CSAMM.sol\":416:423  _amount */\n      dup1\n        /* \"CSAMM.sol\":398:407  balanceOf */\n      0x03\n        /* \"CSAMM.sol\":398:412  balanceOf[_to] */\n      0x00\n        /* \"CSAMM.sol\":408:411  _to */\n      dup5\n        /* \"CSAMM.sol\":398:412  balanceOf[_to] */\n      0xffffffffffffffffffffffffffffffffffffffff\n      and\n      0xffffffffffffffffffffffffffffffffffffffff\n      and\n      dup2\n      mstore\n      0x20\n      add\n      swap1\n      dup2\n      mstore\n      0x20\n      add\n      0x00\n      keccak256\n      0x00\n        /* \"CSAMM.sol\":398:423  balanceOf[_to] += _amount */\n      dup3\n      dup3\n      sload\n      tag_149\n      swap2\n      swap1\n      tag_101\n      jump\t// in\n    tag_149:\n      swap3\n      pop\n      pop\n      dup2\n      swap1\n      sstore\n      pop\n        /* \"CSAMM.sol\":448:455  _amount */\n      dup1\n        /* \"CSAMM.sol\":433:444  totalSupply */\n      0x02\n      0x00\n        /* \"CSAMM.sol\":433:455  totalSupply += _amount */\n      dup3\n      dup3\n      sload\n      tag_150\n      swap2\n      swap1\n      tag_101\n      jump\t// in\n    tag_150:\n      swap3\n      pop\n      pop\n      dup2\n      swap1\n      sstore\n      pop\n        /* \"CSAMM.sol\":339:462  function _mint(address _to,uint _amount) private {... */\n      pop\n      pop\n      jump\t// out\n        /* \"#utility.yul\":7:133   */\n    tag_151:\n        /* \"#utility.yul\":44:51   */\n      0x00\n        /* \"#utility.yul\":84:126   */\n      0xffffffffffffffffffffffffffffffffffffffff\n        /* \"#utility.yul\":77:82   */\n      dup3\n        /* \"#utility.yul\":73:127   */\n      and\n        /* \"#utility.yul\":62:127   */\n      swap1\n      pop\n        /* \"#utility.yul\":7:133   */\n      swap2\n      swap1\n      pop\n      jump\t// out\n        /* \"#utility.yul\":139:199   */\n    tag_152:\n        /* \"#utility.yul\":167:170   */\n      0x00\n        /* \"#utility.yul\":188:193   */\n      dup2\n        /* \"#utility.yul\":181:193   */\n      swap1\n      pop\n        /* \"#utility.yul\":139:199   */\n      swap2\n      swap1\n      pop\n      jump\t// out\n        /* \"#utility.yul\":205:347   */\n    tag_153:\n        /* \"#utility.yul\":255:264   */\n      0x00\n        /* \"#utility.yul\":288:341   */\n      tag_183\n        /* \"#utility.yul\":306:340   */\n      tag_184\n        /* \"#utility.yul\":315:339   */\n      tag_185\n        /* \"#utility.yul\":333:338   */\n      dup5\n        /* \"#utility.yul\":315:339   */\n      tag_151\n      jump\t// in\n    tag_185:\n        /* \"#utility.yul\":306:340   */\n      tag_152\n      jump\t// in\n    tag_184:\n        /* \"#utility.yul\":288:341   */\n      tag_151\n      jump\t// in\n    tag_183:\n        /* \"#utility.yul\":275:341   */\n      swap1\n      pop\n        /* \"#utility.yul\":205:347   */\n      swap2\n      swap1\n      pop\n      jump\t// out\n        /* \"#utility.yul\":353:479   */\n    tag_154:\n        /* \"#utility.yul\":403:412   */\n      0x00\n        /* \"#utility.yul\":436:473   */\n      tag_187\n        /* \"#utility.yul\":467:472   */\n      dup3\n        /* \"#utility.yul\":436:473   */\n      tag_153\n      jump\t// in\n    tag_187:\n        /* \"#utility.yul\":423:473   */\n      swap1\n      pop\n        /* \"#utility.yul\":353:479   */\n      swap2\n      swap1\n      pop\n      jump\t// out\n        /* \"#utility.yul\":485:625   */\n    tag_155:\n        /* \"#utility.yul\":549:558   */\n      0x00\n        /* \"#utility.yul\":582:619   */\n      tag_189\n        /* \"#utility.yul\":613:618   */\n      dup3\n        /* \"#utility.yul\":582:619   */\n      tag_154\n      jump\t// in\n    tag_189:\n        /* \"#utility.yul\":569:619   */\n      swap1\n      pop\n        /* \"#utility.yul\":485:625   */\n      swap2\n      swap1\n      pop\n      jump\t// out\n        /* \"#utility.yul\":631:790   */\n    tag_156:\n        /* \"#utility.yul\":732:783   */\n      tag_191\n        /* \"#utility.yul\":777:782   */\n      dup2\n        /* \"#utility.yul\":732:783   */\n      tag_155\n      jump\t// in\n    tag_191:\n        /* \"#utility.yul\":727:730   */\n      dup3\n        /* \"#utility.yul\":720:784   */\n      mstore\n        /* \"#utility.yul\":631:790   */\n      pop\n      pop\n      jump\t// out\n        /* \"#utility.yul\":796:1046   */\n    tag_16:\n        /* \"#utility.yul\":903:907   */\n      0x00\n        /* \"#utility.yul\":941:943   */\n      0x20\n        /* \"#utility.yul\":930:939   */\n      dup3\n        /* \"#utility.yul\":926:944   */\n      add\n        /* \"#utility.yul\":918:944   */\n      swap1\n      pop\n        /* \"#utility.yul\":954:1039   */\n      tag_193\n        /* \"#utility.yul\":1036:1037   */\n      0x00\n        /* \"#utility.yul\":1025:1034   */\n      dup4\n        /* \"#utility.yul\":1021:1038   */\n      add\n        /* \"#utility.yul\":1012:1018   */\n      dup5\n        /* \"#utility.yul\":954:1039   */\n      tag_156\n      jump\t// in\n    tag_193:\n        /* \"#utility.yul\":796:1046   */\n      swap3\n      swap2\n      pop\n      pop\n      jump\t// out\n        /* \"#utility.yul\":1052:1129   */\n    tag_157:\n        /* \"#utility.yul\":1089:1096   */\n      0x00\n        /* \"#utility.yul\":1118:1123   */\n      dup2\n        /* \"#utility.yul\":1107:1123   */\n      swap1\n      pop\n        /* \"#utility.yul\":1052:1129   */\n      swap2\n      swap1\n      pop\n      jump\t// out\n        /* \"#utility.yul\":1135:1253   */\n    tag_158:\n        /* \"#utility.yul\":1222:1246   */\n      tag_196\n        /* \"#utility.yul\":1240:1245   */\n      dup2\n        /* \"#utility.yul\":1222:1246   */\n      tag_157\n      jump\t// in\n    tag_196:\n        /* \"#utility.yul\":1217:1220   */\n      dup3\n        /* \"#utility.yul\":1210:1247   */\n      mstore\n        /* \"#utility.yul\":1135:1253   */\n      pop\n      pop\n      jump\t// out\n        /* \"#utility.yul\":1259:1481   */\n    tag_20:\n        /* \"#utility.yul\":1352:1356   */\n      0x00\n        /* \"#utility.yul\":1390:1392   */\n      0x20\n        /* \"#utility.yul\":1379:1388   */\n      dup3\n        /* \"#utility.yul\":1375:1393   */\n      add\n        /* \"#utility.yul\":1367:1393   */\n      swap1\n      pop\n        /* \"#utility.yul\":1403:1474   */\n      tag_198\n        /* \"#utility.yul\":1471:1472   */\n      0x00\n        /* \"#utility.yul\":1460:1469   */\n      dup4\n        /* \"#utility.yul\":1456:1473   */\n      add\n        /* \"#utility.yul\":1447:1453   */\n      dup5\n        /* \"#utility.yul\":1403:1474   */\n      tag_158\n      jump\t// in\n    tag_198:\n        /* \"#utility.yul\":1259:1481   */\n      swap3\n      swap2\n      pop\n      pop\n      jump\t// out\n        /* \"#utility.yul\":1568:1685   */\n    tag_160:\n        /* \"#utility.yul\":1677:1678   */\n      0x00\n        /* \"#utility.yul\":1674:1675   */\n      dup1\n        /* \"#utility.yul\":1667:1679   */\n      revert\n        /* \"#utility.yul\":1814:1910   */\n    tag_162:\n        /* \"#utility.yul\":1851:1858   */\n      0x00\n        /* \"#utility.yul\":1880:1904   */\n      tag_203\n        /* \"#utility.yul\":1898:1903   */\n      dup3\n        /* \"#utility.yul\":1880:1904   */\n      tag_151\n      jump\t// in\n    tag_203:\n        /* \"#utility.yul\":1869:1904   */\n      swap1\n      pop\n        /* \"#utility.yul\":1814:1910   */\n      swap2\n      swap1\n      pop\n      jump\t// out\n        /* \"#utility.yul\":1916:2038   */\n    tag_163:\n        /* \"#utility.yul\":1989:2013   */\n      tag_205\n        /* \"#utility.yul\":2007:2012   */\n      dup2\n        /* \"#utility.yul\":1989:2013   */\n      tag_162\n      jump\t// in\n    tag_205:\n        /* \"#utility.yul\":1982:1987   */\n      dup2\n        /* \"#utility.yul\":1979:2014   */\n      eq\n        /* \"#utility.yul\":1969:2032   */\n      tag_206\n      jumpi\n        /* \"#utility.yul\":2028:2029   */\n      0x00\n        /* \"#utility.yul\":2025:2026   */\n      dup1\n        /* \"#utility.yul\":2018:2030   */\n      revert\n        /* \"#utility.yul\":1969:2032   */\n    tag_206:\n        /* \"#utility.yul\":1916:2038   */\n      pop\n      jump\t// out\n        /* \"#utility.yul\":2044:2183   */\n    tag_164:\n        /* \"#utility.yul\":2090:2095   */\n      0x00\n        /* \"#utility.yul\":2128:2134   */\n      dup2\n        /* \"#utility.yul\":2115:2135   */\n      calldataload\n        /* \"#utility.yul\":2106:2135   */\n      swap1\n      pop\n        /* \"#utility.yul\":2144:2177   */\n      tag_208\n        /* \"#utility.yul\":2171:2176   */\n      dup2\n        /* \"#utility.yul\":2144:2177   */\n      tag_163\n      jump\t// in\n    tag_208:\n        /* \"#utility.yul\":2044:2183   */\n      swap3\n      swap2\n      pop\n      pop\n      jump\t// out\n        /* \"#utility.yul\":2189:2518   */\n    tag_29:\n        /* \"#utility.yul\":2248:2254   */\n      0x00\n        /* \"#utility.yul\":2297:2299   */\n      0x20\n        /* \"#utility.yul\":2285:2294   */\n      dup3\n        /* \"#utility.yul\":2276:2283   */\n      dup5\n        /* \"#utility.yul\":2272:2295   */\n      sub\n        /* \"#utility.yul\":2268:2300   */\n      slt\n        /* \"#utility.yul\":2265:2384   */\n      iszero\n      tag_210\n      jumpi\n        /* \"#utility.yul\":2303:2382   */\n      tag_211\n      tag_160\n      jump\t// in\n    tag_211:\n        /* \"#utility.yul\":2265:2384   */\n    tag_210:\n        /* \"#utility.yul\":2423:2424   */\n      0x00\n        /* \"#utility.yul\":2448:2501   */\n      tag_212\n        /* \"#utility.yul\":2493:2500   */\n      dup5\n        /* \"#utility.yul\":2484:2490   */\n      dup3\n        /* \"#utility.yul\":2473:2482   */\n      dup6\n        /* \"#utility.yul\":2469:2491   */\n      add\n        /* \"#utility.yul\":2448:2501   */\n      tag_164\n      jump\t// in\n    tag_212:\n        /* \"#utility.yul\":2438:2501   */\n      swap2\n      pop\n        /* \"#utility.yul\":2394:2511   */\n      pop\n        /* \"#utility.yul\":2189:2518   */\n      swap3\n      swap2\n      pop\n      pop\n      jump\t// out\n        /* \"#utility.yul\":2524:2646   */\n    tag_165:\n        /* \"#utility.yul\":2597:2621   */\n      tag_214\n        /* \"#utility.yul\":2615:2620   */\n      dup2\n        /* \"#utility.yul\":2597:2621   */\n      tag_157\n      jump\t// in\n    tag_214:\n        /* \"#utility.yul\":2590:2595   */\n      dup2\n        /* \"#utility.yul\":2587:2622   */\n      eq\n        /* \"#utility.yul\":2577:2640   */\n      tag_215\n      jumpi\n        /* \"#utility.yul\":2636:2637   */\n      0x00\n        /* \"#utility.yul\":2633:2634   */\n      dup1\n        /* \"#utility.yul\":2626:2638   */\n      revert\n        /* \"#utility.yul\":2577:2640   */\n    tag_215:\n        /* \"#utility.yul\":2524:2646   */\n      pop\n      jump\t// out\n        /* \"#utility.yul\":2652:2791   */\n    tag_166:\n        /* \"#utility.yul\":2698:2703   */\n      0x00\n        /* \"#utility.yul\":2736:2742   */\n      dup2\n        /* \"#utility.yul\":2723:2743   */\n      calldataload\n        /* \"#utility.yul\":2714:2743   */\n      swap1\n      pop\n        /* \"#utility.yul\":2752:2785   */\n      tag_217\n        /* \"#utility.yul\":2779:2784   */\n      dup2\n        /* \"#utility.yul\":2752:2785   */\n      tag_165\n      jump\t// in\n    tag_217:\n        /* \"#utility.yul\":2652:2791   */\n      swap3\n      swap2\n      pop\n      pop\n      jump\t// out\n        /* \"#utility.yul\":2797:3126   */\n    tag_34:\n        /* \"#utility.yul\":2856:2862   */\n      0x00\n        /* \"#utility.yul\":2905:2907   */\n      0x20\n        /* \"#utility.yul\":2893:2902   */\n      dup3\n        /* \"#utility.yul\":2884:2891   */\n      dup5\n        /* \"#utility.yul\":2880:2903   */\n      sub\n        /* \"#utility.yul\":2876:2908   */\n      slt\n        /* \"#utility.yul\":2873:2992   */\n      iszero\n      tag_219\n      jumpi\n        /* \"#utility.yul\":2911:2990   */\n      tag_220\n      tag_160\n      jump\t// in\n    tag_220:\n        /* \"#utility.yul\":2873:2992   */\n    tag_219:\n        /* \"#utility.yul\":3031:3032   */\n      0x00\n        /* \"#utility.yul\":3056:3109   */\n      tag_221\n        /* \"#utility.yul\":3101:3108   */\n      dup5\n        /* \"#utility.yul\":3092:3098   */\n      dup3\n        /* \"#utility.yul\":3081:3090   */\n      dup6\n        /* \"#utility.yul\":3077:3099   */\n      add\n        /* \"#utility.yul\":3056:3109   */\n      tag_166\n      jump\t// in\n    tag_221:\n        /* \"#utility.yul\":3046:3109   */\n      swap2\n      pop\n        /* \"#utility.yul\":3002:3119   */\n      pop\n        /* \"#utility.yul\":2797:3126   */\n      swap3\n      swap2\n      pop\n      pop\n      jump\t// out\n        /* \"#utility.yul\":3132:3464   */\n    tag_37:\n        /* \"#utility.yul\":3253:3257   */\n      0x00\n        /* \"#utility.yul\":3291:3293   */\n      0x40\n        /* \"#utility.yul\":3280:3289   */\n      dup3\n        /* \"#utility.yul\":3276:3294   */\n      add\n        /* \"#utility.yul\":3268:3294   */\n      swap1\n      pop\n        /* \"#utility.yul\":3304:3375   */\n      tag_223\n        /* \"#utility.yul\":3372:3373   */\n      0x00\n        /* \"#utility.yul\":3361:3370   */\n      dup4\n        /* \"#utility.yul\":3357:3374   */\n      add\n        /* \"#utility.yul\":3348:3354   */\n      dup6\n        /* \"#utility.yul\":3304:3375   */\n      tag_158\n      jump\t// in\n    tag_223:\n        /* \"#utility.yul\":3385:3457   */\n      tag_224\n        /* \"#utility.yul\":3453:3455   */\n      0x20\n        /* \"#utility.yul\":3442:3451   */\n      dup4\n        /* \"#utility.yul\":3438:3456   */\n      add\n        /* \"#utility.yul\":3429:3435   */\n      dup5\n        /* \"#utility.yul\":3385:3457   */\n      tag_158\n      jump\t// in\n    tag_224:\n        /* \"#utility.yul\":3132:3464   */\n      swap4\n      swap3\n      pop\n      pop\n      pop\n      jump\t// out\n        /* \"#utility.yul\":3470:3944   */\n    tag_40:\n        /* \"#utility.yul\":3538:3544   */\n      0x00\n        /* \"#utility.yul\":3546:3552   */\n      dup1\n        /* \"#utility.yul\":3595:3597   */\n      0x40\n        /* \"#utility.yul\":3583:3592   */\n      dup4\n        /* \"#utility.yul\":3574:3581   */\n      dup6\n        /* \"#utility.yul\":3570:3593   */\n      sub\n        /* \"#utility.yul\":3566:3598   */\n      slt\n        /* \"#utility.yul\":3563:3682   */\n      iszero\n      tag_226\n      jumpi\n        /* \"#utility.yul\":3601:3680   */\n      tag_227\n      tag_160\n      jump\t// in\n    tag_227:\n        /* \"#utility.yul\":3563:3682   */\n    tag_226:\n        /* \"#utility.yul\":3721:3722   */\n      0x00\n        /* \"#utility.yul\":3746:3799   */\n      tag_228\n        /* \"#utility.yul\":3791:3798   */\n      dup6\n        /* \"#utility.yul\":3782:3788   */\n      dup3\n        /* \"#utility.yul\":3771:3780   */\n      dup7\n        /* \"#utility.yul\":3767:3789   */\n      add\n        /* \"#utility.yul\":3746:3799   */\n      tag_166\n      jump\t// in\n    tag_228:\n        /* \"#utility.yul\":3736:3799   */\n      swap3\n      pop\n        /* \"#utility.yul\":3692:3809   */\n      pop\n        /* \"#utility.yul\":3848:3850   */\n      0x20\n        /* \"#utility.yul\":3874:3927   */\n      tag_229\n        /* \"#utility.yul\":3919:3926   */\n      dup6\n        /* \"#utility.yul\":3910:3916   */\n      dup3\n        /* \"#utility.yul\":3899:3908   */\n      dup7\n        /* \"#utility.yul\":3895:3917   */\n      add\n        /* \"#utility.yul\":3874:3927   */\n      tag_166\n      jump\t// in\n    tag_229:\n        /* \"#utility.yul\":3864:3927   */\n      swap2\n      pop\n        /* \"#utility.yul\":3819:3937   */\n      pop\n        /* \"#utility.yul\":3470:3944   */\n      swap3\n      pop\n      swap3\n      swap1\n      pop\n      jump\t// out\n        /* \"#utility.yul\":3950:4424   */\n    tag_45:\n        /* \"#utility.yul\":4018:4024   */\n      0x00\n        /* \"#utility.yul\":4026:4032   */\n      dup1\n        /* \"#utility.yul\":4075:4077   */\n      0x40\n        /* \"#utility.yul\":4063:4072   */\n      dup4\n        /* \"#utility.yul\":4054:4061   */\n      dup6\n        /* \"#utility.yul\":4050:4073   */\n      sub\n        /* \"#utility.yul\":4046:4078   */\n      slt\n        /* \"#utility.yul\":4043:4162   */\n      iszero\n      tag_231\n      jumpi\n        /* \"#utility.yul\":4081:4160   */\n      tag_232\n      tag_160\n      jump\t// in\n    tag_232:\n        /* \"#utility.yul\":4043:4162   */\n    tag_231:\n        /* \"#utility.yul\":4201:4202   */\n      0x00\n        /* \"#utility.yul\":4226:4279   */\n      tag_233\n        /* \"#utility.yul\":4271:4278   */\n      dup6\n        /* \"#utility.yul\":4262:4268   */\n      dup3\n        /* \"#utility.yul\":4251:4260   */\n      dup7\n        /* \"#utility.yul\":4247:4269   */\n      add\n        /* \"#utility.yul\":4226:4279   */\n      tag_164\n      jump\t// in\n    tag_233:\n        /* \"#utility.yul\":4216:4279   */\n      swap3\n      pop\n        /* \"#utility.yul\":4172:4289   */\n      pop\n        /* \"#utility.yul\":4328:4330   */\n      0x20\n        /* \"#utility.yul\":4354:4407   */\n      tag_234\n        /* \"#utility.yul\":4399:4406   */\n      dup6\n        /* \"#utility.yul\":4390:4396   */\n      dup3\n        /* \"#utility.yul\":4379:4388   */\n      dup7\n        /* \"#utility.yul\":4375:4397   */\n      add\n        /* \"#utility.yul\":4354:4407   */\n      tag_166\n      jump\t// in\n    tag_234:\n        /* \"#utility.yul\":4344:4407   */\n      swap2\n      pop\n        /* \"#utility.yul\":4299:4417   */\n      pop\n        /* \"#utility.yul\":3950:4424   */\n      swap3\n      pop\n      swap3\n      swap1\n      pop\n      jump\t// out\n        /* \"#utility.yul\":4430:4610   */\n    tag_167:\n        /* \"#utility.yul\":4478:4555   */\n      0x4e487b7100000000000000000000000000000000000000000000000000000000\n        /* \"#utility.yul\":4475:4476   */\n      0x00\n        /* \"#utility.yul\":4468:4556   */\n      mstore\n        /* \"#utility.yul\":4575:4579   */\n      0x11\n        /* \"#utility.yul\":4572:4573   */\n      0x04\n        /* \"#utility.yul\":4565:4580   */\n      mstore\n        /* \"#utility.yul\":4599:4603   */\n      0x24\n        /* \"#utility.yul\":4596:4597   */\n      0x00\n        /* \"#utility.yul\":4589:4604   */\n      revert\n        /* \"#utility.yul\":4616:5026   */\n    tag_53:\n        /* \"#utility.yul\":4656:4663   */\n      0x00\n        /* \"#utility.yul\":4679:4699   */\n      tag_237\n        /* \"#utility.yul\":4697:4698   */\n      dup3\n        /* \"#utility.yul\":4679:4699   */\n      tag_157\n      jump\t// in\n    tag_237:\n        /* \"#utility.yul\":4674:4699   */\n      swap2\n      pop\n        /* \"#utility.yul\":4713:4733   */\n      tag_238\n        /* \"#utility.yul\":4731:4732   */\n      dup4\n        /* \"#utility.yul\":4713:4733   */\n      tag_157\n      jump\t// in\n    tag_238:\n        /* \"#utility.yul\":4708:4733   */\n      swap3\n      pop\n        /* \"#utility.yul\":4768:4769   */\n      dup3\n        /* \"#utility.yul\":4765:4766   */\n      dup3\n        /* \"#utility.yul\":4761:4770   */\n      mul\n        /* \"#utility.yul\":4790:4820   */\n      tag_239\n        /* \"#utility.yul\":4808:4819   */\n      dup2\n        /* \"#utility.yul\":4790:4820   */\n      tag_157\n      jump\t// in\n    tag_239:\n        /* \"#utility.yul\":4779:4820   */\n      swap2\n      pop\n        /* \"#utility.yul\":4969:4970   */\n      dup3\n        /* \"#utility.yul\":4960:4967   */\n      dup3\n        /* \"#utility.yul\":4956:4971   */\n      div\n        /* \"#utility.yul\":4953:4954   */\n      dup5\n        /* \"#utility.yul\":4950:4972   */\n      eq\n        /* \"#utility.yul\":4930:4931   */\n      dup4\n        /* \"#utility.yul\":4923:4932   */\n      iszero\n        /* \"#utility.yul\":4903:4986   */\n      or\n        /* \"#utility.yul\":4880:5019   */\n      tag_240\n      jumpi\n        /* \"#utility.yul\":4999:5017   */\n      tag_241\n      tag_167\n      jump\t// in\n    tag_241:\n        /* \"#utility.yul\":4880:5019   */\n    tag_240:\n        /* \"#utility.yul\":4664:5026   */\n      pop\n        /* \"#utility.yul\":4616:5026   */\n      swap3\n      swap2\n      pop\n      pop\n      jump\t// out\n        /* \"#utility.yul\":5032:5212   */\n    tag_168:\n        /* \"#utility.yul\":5080:5157   */\n      0x4e487b7100000000000000000000000000000000000000000000000000000000\n        /* \"#utility.yul\":5077:5078   */\n      0x00\n        /* \"#utility.yul\":5070:5158   */\n      mstore\n        /* \"#utility.yul\":5177:5181   */\n      0x12\n        /* \"#utility.yul\":5174:5175   */\n      0x04\n        /* \"#utility.yul\":5167:5182   */\n      mstore\n        /* \"#utility.yul\":5201:5205   */\n      0x24\n        /* \"#utility.yul\":5198:5199   */\n      0x00\n        /* \"#utility.yul\":5191:5206   */\n      revert\n        /* \"#utility.yul\":5218:5403   */\n    tag_55:\n        /* \"#utility.yul\":5258:5259   */\n      0x00\n        /* \"#utility.yul\":5275:5295   */\n      tag_244\n        /* \"#utility.yul\":5293:5294   */\n      dup3\n        /* \"#utility.yul\":5275:5295   */\n      tag_157\n      jump\t// in\n    tag_244:\n        /* \"#utility.yul\":5270:5295   */\n      swap2\n      pop\n        /* \"#utility.yul\":5309:5329   */\n      tag_245\n        /* \"#utility.yul\":5327:5328   */\n      dup4\n        /* \"#utility.yul\":5309:5329   */\n      tag_157\n      jump\t// in\n    tag_245:\n        /* \"#utility.yul\":5304:5329   */\n      swap3\n      pop\n        /* \"#utility.yul\":5348:5349   */\n      dup3\n        /* \"#utility.yul\":5338:5373   */\n      tag_246\n      jumpi\n        /* \"#utility.yul\":5353:5371   */\n      tag_247\n      tag_168\n      jump\t// in\n    tag_247:\n        /* \"#utility.yul\":5338:5373   */\n    tag_246:\n        /* \"#utility.yul\":5395:5396   */\n      dup3\n        /* \"#utility.yul\":5392:5393   */\n      dup3\n        /* \"#utility.yul\":5388:5397   */\n      div\n        /* \"#utility.yul\":5383:5397   */\n      swap1\n      pop\n        /* \"#utility.yul\":5218:5403   */\n      swap3\n      swap2\n      pop\n      pop\n      jump\t// out\n        /* \"#utility.yul\":5409:5603   */\n    tag_62:\n        /* \"#utility.yul\":5449:5453   */\n      0x00\n        /* \"#utility.yul\":5469:5489   */\n      tag_249\n        /* \"#utility.yul\":5487:5488   */\n      dup3\n        /* \"#utility.yul\":5469:5489   */\n      tag_157\n      jump\t// in\n    tag_249:\n        /* \"#utility.yul\":5464:5489   */\n      swap2\n      pop\n        /* \"#utility.yul\":5503:5523   */\n      tag_250\n        /* \"#utility.yul\":5521:5522   */\n      dup4\n        /* \"#utility.yul\":5503:5523   */\n      tag_157\n      jump\t// in\n    tag_250:\n        /* \"#utility.yul\":5498:5523   */\n      swap3\n      pop\n        /* \"#utility.yul\":5547:5548   */\n      dup3\n        /* \"#utility.yul\":5544:5545   */\n      dup3\n        /* \"#utility.yul\":5540:5549   */\n      sub\n        /* \"#utility.yul\":5532:5549   */\n      swap1\n      pop\n        /* \"#utility.yul\":5571:5572   */\n      dup2\n        /* \"#utility.yul\":5565:5569   */\n      dup2\n        /* \"#utility.yul\":5562:5573   */\n      gt\n        /* \"#utility.yul\":5559:5596   */\n      iszero\n      tag_251\n      jumpi\n        /* \"#utility.yul\":5576:5594   */\n      tag_252\n      tag_167\n      jump\t// in\n    tag_252:\n        /* \"#utility.yul\":5559:5596   */\n    tag_251:\n        /* \"#utility.yul\":5409:5603   */\n      swap3\n      swap2\n      pop\n      pop\n      jump\t// out\n        /* \"#utility.yul\":5609:5727   */\n    tag_169:\n        /* \"#utility.yul\":5696:5720   */\n      tag_254\n        /* \"#utility.yul\":5714:5719   */\n      dup2\n        /* \"#utility.yul\":5696:5720   */\n      tag_162\n      jump\t// in\n    tag_254:\n        /* \"#utility.yul\":5691:5694   */\n      dup3\n        /* \"#utility.yul\":5684:5721   */\n      mstore\n        /* \"#utility.yul\":5609:5727   */\n      pop\n      pop\n      jump\t// out\n        /* \"#utility.yul\":5733:6065   */\n    tag_67:\n        /* \"#utility.yul\":5854:5858   */\n      0x00\n        /* \"#utility.yul\":5892:5894   */\n      0x40\n        /* \"#utility.yul\":5881:5890   */\n      dup3\n        /* \"#utility.yul\":5877:5895   */\n      add\n        /* \"#utility.yul\":5869:5895   */\n      swap1\n      pop\n        /* \"#utility.yul\":5905:5976   */\n      tag_256\n        /* \"#utility.yul\":5973:5974   */\n      0x00\n        /* \"#utility.yul\":5962:5971   */\n      dup4\n        /* \"#utility.yul\":5958:5975   */\n      add\n        /* \"#utility.yul\":5949:5955   */\n      dup6\n        /* \"#utility.yul\":5905:5976   */\n      tag_169\n      jump\t// in\n    tag_256:\n        /* \"#utility.yul\":5986:6058   */\n      tag_257\n        /* \"#utility.yul\":6054:6056   */\n      0x20\n        /* \"#utility.yul\":6043:6052   */\n      dup4\n        /* \"#utility.yul\":6039:6057   */\n      add\n        /* \"#utility.yul\":6030:6036   */\n      dup5\n        /* \"#utility.yul\":5986:6058   */\n      tag_158\n      jump\t// in\n    tag_257:\n        /* \"#utility.yul\":5733:6065   */\n      swap4\n      swap3\n      pop\n      pop\n      pop\n      jump\t// out\n        /* \"#utility.yul\":6071:6161   */\n    tag_170:\n        /* \"#utility.yul\":6105:6112   */\n      0x00\n        /* \"#utility.yul\":6148:6153   */\n      dup2\n        /* \"#utility.yul\":6141:6154   */\n      iszero\n        /* \"#utility.yul\":6134:6155   */\n      iszero\n        /* \"#utility.yul\":6123:6155   */\n      swap1\n      pop\n        /* \"#utility.yul\":6071:6161   */\n      swap2\n      swap1\n      pop\n      jump\t// out\n        /* \"#utility.yul\":6167:6283   */\n    tag_171:\n        /* \"#utility.yul\":6237:6258   */\n      tag_260\n        /* \"#utility.yul\":6252:6257   */\n      dup2\n        /* \"#utility.yul\":6237:6258   */\n      tag_170\n      jump\t// in\n    tag_260:\n        /* \"#utility.yul\":6230:6235   */\n      dup2\n        /* \"#utility.yul\":6227:6259   */\n      eq\n        /* \"#utility.yul\":6217:6277   */\n      tag_261\n      jumpi\n        /* \"#utility.yul\":6273:6274   */\n      0x00\n        /* \"#utility.yul\":6270:6271   */\n      dup1\n        /* \"#utility.yul\":6263:6275   */\n      revert\n        /* \"#utility.yul\":6217:6277   */\n    tag_261:\n        /* \"#utility.yul\":6167:6283   */\n      pop\n      jump\t// out\n        /* \"#utility.yul\":6289:6426   */\n    tag_172:\n        /* \"#utility.yul\":6343:6348   */\n      0x00\n        /* \"#utility.yul\":6374:6380   */\n      dup2\n        /* \"#utility.yul\":6368:6381   */\n      mload\n        /* \"#utility.yul\":6359:6381   */\n      swap1\n      pop\n        /* \"#utility.yul\":6390:6420   */\n      tag_263\n        /* \"#utility.yul\":6414:6419   */\n      dup2\n        /* \"#utility.yul\":6390:6420   */\n      tag_171\n      jump\t// in\n    tag_263:\n        /* \"#utility.yul\":6289:6426   */\n      swap3\n      swap2\n      pop\n      pop\n      jump\t// out\n        /* \"#utility.yul\":6432:6777   */\n    tag_71:\n        /* \"#utility.yul\":6499:6505   */\n      0x00\n        /* \"#utility.yul\":6548:6550   */\n      0x20\n        /* \"#utility.yul\":6536:6545   */\n      dup3\n        /* \"#utility.yul\":6527:6534   */\n      dup5\n        /* \"#utility.yul\":6523:6546   */\n      sub\n        /* \"#utility.yul\":6519:6551   */\n      slt\n        /* \"#utility.yul\":6516:6635   */\n      iszero\n      tag_265\n      jumpi\n        /* \"#utility.yul\":6554:6633   */\n      tag_266\n      tag_160\n      jump\t// in\n    tag_266:\n        /* \"#utility.yul\":6516:6635   */\n    tag_265:\n        /* \"#utility.yul\":6674:6675   */\n      0x00\n        /* \"#utility.yul\":6699:6760   */\n      tag_267\n        /* \"#utility.yul\":6752:6759   */\n      dup5\n        /* \"#utility.yul\":6743:6749   */\n      dup3\n        /* \"#utility.yul\":6732:6741   */\n      dup6\n        /* \"#utility.yul\":6728:6750   */\n      add\n        /* \"#utility.yul\":6699:6760   */\n      tag_172\n      jump\t// in\n    tag_267:\n        /* \"#utility.yul\":6689:6760   */\n      swap2\n      pop\n        /* \"#utility.yul\":6645:6770   */\n      pop\n        /* \"#utility.yul\":6432:6777   */\n      swap3\n      swap2\n      pop\n      pop\n      jump\t// out\n        /* \"#utility.yul\":6783:7225   */\n    tag_79:\n        /* \"#utility.yul\":6932:6936   */\n      0x00\n        /* \"#utility.yul\":6970:6972   */\n      0x60\n        /* \"#utility.yul\":6959:6968   */\n      dup3\n        /* \"#utility.yul\":6955:6973   */\n      add\n        /* \"#utility.yul\":6947:6973   */\n      swap1\n      pop\n        /* \"#utility.yul\":6983:7054   */\n      tag_269\n        /* \"#utility.yul\":7051:7052   */\n      0x00\n        /* \"#utility.yul\":7040:7049   */\n      dup4\n        /* \"#utility.yul\":7036:7053   */\n      add\n        /* \"#utility.yul\":7027:7033   */\n      dup7\n        /* \"#utility.yul\":6983:7054   */\n      tag_169\n      jump\t// in\n    tag_269:\n        /* \"#utility.yul\":7064:7136   */\n      tag_270\n        /* \"#utility.yul\":7132:7134   */\n      0x20\n        /* \"#utility.yul\":7121:7130   */\n      dup4\n        /* \"#utility.yul\":7117:7135   */\n      add\n        /* \"#utility.yul\":7108:7114   */\n      dup6\n        /* \"#utility.yul\":7064:7136   */\n      tag_169\n      jump\t// in\n    tag_270:\n        /* \"#utility.yul\":7146:7218   */\n      tag_271\n        /* \"#utility.yul\":7214:7216   */\n      0x40\n        /* \"#utility.yul\":7203:7212   */\n      dup4\n        /* \"#utility.yul\":7199:7217   */\n      add\n        /* \"#utility.yul\":7190:7196   */\n      dup5\n        /* \"#utility.yul\":7146:7218   */\n      tag_158\n      jump\t// in\n    tag_271:\n        /* \"#utility.yul\":6783:7225   */\n      swap5\n      swap4\n      pop\n      pop\n      pop\n      pop\n      jump\t// out\n        /* \"#utility.yul\":7231:7453   */\n    tag_88:\n        /* \"#utility.yul\":7324:7328   */\n      0x00\n        /* \"#utility.yul\":7362:7364   */\n      0x20\n        /* \"#utility.yul\":7351:7360   */\n      dup3\n        /* \"#utility.yul\":7347:7365   */\n      add\n        /* \"#utility.yul\":7339:7365   */\n      swap1\n      pop\n        /* \"#utility.yul\":7375:7446   */\n      tag_273\n        /* \"#utility.yul\":7443:7444   */\n      0x00\n        /* \"#utility.yul\":7432:7441   */\n      dup4\n        /* \"#utility.yul\":7428:7445   */\n      add\n        /* \"#utility.yul\":7419:7425   */\n      dup5\n        /* \"#utility.yul\":7375:7446   */\n      tag_169\n      jump\t// in\n    tag_273:\n        /* \"#utility.yul\":7231:7453   */\n      swap3\n      swap2\n      pop\n      pop\n      jump\t// out\n        /* \"#utility.yul\":7459:7602   */\n    tag_173:\n        /* \"#utility.yul\":7516:7521   */\n      0x00\n        /* \"#utility.yul\":7547:7553   */\n      dup2\n        /* \"#utility.yul\":7541:7554   */\n      mload\n        /* \"#utility.yul\":7532:7554   */\n      swap1\n      pop\n        /* \"#utility.yul\":7563:7596   */\n      tag_275\n        /* \"#utility.yul\":7590:7595   */\n      dup2\n        /* \"#utility.yul\":7563:7596   */\n      tag_165\n      jump\t// in\n    tag_275:\n        /* \"#utility.yul\":7459:7602   */\n      swap3\n      swap2\n      pop\n      pop\n      jump\t// out\n        /* \"#utility.yul\":7608:7959   */\n    tag_92:\n        /* \"#utility.yul\":7678:7684   */\n      0x00\n        /* \"#utility.yul\":7727:7729   */\n      0x20\n        /* \"#utility.yul\":7715:7724   */\n      dup3\n        /* \"#utility.yul\":7706:7713   */\n      dup5\n        /* \"#utility.yul\":7702:7725   */\n      sub\n        /* \"#utility.yul\":7698:7730   */\n      slt\n        /* \"#utility.yul\":7695:7814   */\n      iszero\n      tag_277\n      jumpi\n        /* \"#utility.yul\":7733:7812   */\n      tag_278\n      tag_160\n      jump\t// in\n    tag_278:\n        /* \"#utility.yul\":7695:7814   */\n    tag_277:\n        /* \"#utility.yul\":7853:7854   */\n      0x00\n        /* \"#utility.yul\":7878:7942   */\n      tag_279\n        /* \"#utility.yul\":7934:7941   */\n      dup5\n        /* \"#utility.yul\":7925:7931   */\n      dup3\n        /* \"#utility.yul\":7914:7923   */\n      dup6\n        /* \"#utility.yul\":7910:7932   */\n      add\n        /* \"#utility.yul\":7878:7942   */\n      tag_173\n      jump\t// in\n    tag_279:\n        /* \"#utility.yul\":7868:7942   */\n      swap2\n      pop\n        /* \"#utility.yul\":7824:7952   */\n      pop\n        /* \"#utility.yul\":7608:7959   */\n      swap3\n      swap2\n      pop\n      pop\n      jump\t// out\n        /* \"#utility.yul\":7965:8156   */\n    tag_101:\n        /* \"#utility.yul\":8005:8008   */\n      0x00\n        /* \"#utility.yul\":8024:8044   */\n      tag_281\n        /* \"#utility.yul\":8042:8043   */\n      dup3\n        /* \"#utility.yul\":8024:8044   */\n      tag_157\n      jump\t// in\n    tag_281:\n        /* \"#utility.yul\":8019:8044   */\n      swap2\n      pop\n        /* \"#utility.yul\":8058:8078   */\n      tag_282\n        /* \"#utility.yul\":8076:8077   */\n      dup4\n        /* \"#utility.yul\":8058:8078   */\n      tag_157\n      jump\t// in\n    tag_282:\n        /* \"#utility.yul\":8053:8078   */\n      swap3\n      pop\n        /* \"#utility.yul\":8101:8102   */\n      dup3\n        /* \"#utility.yul\":8098:8099   */\n      dup3\n        /* \"#utility.yul\":8094:8103   */\n      add\n        /* \"#utility.yul\":8087:8103   */\n      swap1\n      pop\n        /* \"#utility.yul\":8122:8125   */\n      dup1\n        /* \"#utility.yul\":8119:8120   */\n      dup3\n        /* \"#utility.yul\":8116:8126   */\n      gt\n        /* \"#utility.yul\":8113:8149   */\n      iszero\n      tag_283\n      jumpi\n        /* \"#utility.yul\":8129:8147   */\n      tag_284\n      tag_167\n      jump\t// in\n    tag_284:\n        /* \"#utility.yul\":8113:8149   */\n    tag_283:\n        /* \"#utility.yul\":7965:8156   */\n      swap3\n      swap2\n      pop\n      pop\n      jump\t// out\n        /* \"#utility.yul\":8162:8331   */\n    tag_174:\n        /* \"#utility.yul\":8246:8257   */\n      0x00\n        /* \"#utility.yul\":8280:8286   */\n      dup3\n        /* \"#utility.yul\":8275:8278   */\n      dup3\n        /* \"#utility.yul\":8268:8287   */\n      mstore\n        /* \"#utility.yul\":8320:8324   */\n      0x20\n        /* \"#utility.yul\":8315:8318   */\n      dup3\n        /* \"#utility.yul\":8311:8325   */\n      add\n        /* \"#utility.yul\":8296:8325   */\n      swap1\n      pop\n        /* \"#utility.yul\":8162:8331   */\n      swap3\n      swap2\n      pop\n      pop\n      jump\t// out\n        /* \"#utility.yul\":8337:8501   */\n    tag_175:\n        /* \"#utility.yul\":8477:8493   */\n      0x556e61626c6520746f206d696e74000000000000000000000000000000000000\n        /* \"#utility.yul\":8473:8474   */\n      0x00\n        /* \"#utility.yul\":8465:8471   */\n      dup3\n        /* \"#utility.yul\":8461:8475   */\n      add\n        /* \"#utility.yul\":8454:8494   */\n      mstore\n        /* \"#utility.yul\":8337:8501   */\n      pop\n      jump\t// out\n        /* \"#utility.yul\":8507:8873   */\n    tag_176:\n        /* \"#utility.yul\":8649:8652   */\n      0x00\n        /* \"#utility.yul\":8670:8737   */\n      tag_288\n        /* \"#utility.yul\":8734:8736   */\n      0x0e\n        /* \"#utility.yul\":8729:8732   */\n      dup4\n        /* \"#utility.yul\":8670:8737   */\n      tag_174\n      jump\t// in\n    tag_288:\n        /* \"#utility.yul\":8663:8737   */\n      swap2\n      pop\n        /* \"#utility.yul\":8746:8839   */\n      tag_289\n        /* \"#utility.yul\":8835:8838   */\n      dup3\n        /* \"#utility.yul\":8746:8839   */\n      tag_175\n      jump\t// in\n    tag_289:\n        /* \"#utility.yul\":8864:8866   */\n      0x20\n        /* \"#utility.yul\":8859:8862   */\n      dup3\n        /* \"#utility.yul\":8855:8867   */\n      add\n        /* \"#utility.yul\":8848:8867   */\n      swap1\n      pop\n        /* \"#utility.yul\":8507:8873   */\n      swap2\n      swap1\n      pop\n      jump\t// out\n        /* \"#utility.yul\":8879:9298   */\n    tag_109:\n        /* \"#utility.yul\":9045:9049   */\n      0x00\n        /* \"#utility.yul\":9083:9085   */\n      0x20\n        /* \"#utility.yul\":9072:9081   */\n      dup3\n        /* \"#utility.yul\":9068:9086   */\n      add\n        /* \"#utility.yul\":9060:9086   */\n      swap1\n      pop\n        /* \"#utility.yul\":9132:9141   */\n      dup2\n        /* \"#utility.yul\":9126:9130   */\n      dup2\n        /* \"#utility.yul\":9122:9142   */\n      sub\n        /* \"#utility.yul\":9118:9119   */\n      0x00\n        /* \"#utility.yul\":9107:9116   */\n      dup4\n        /* \"#utility.yul\":9103:9120   */\n      add\n        /* \"#utility.yul\":9096:9143   */\n      mstore\n        /* \"#utility.yul\":9160:9291   */\n      tag_291\n        /* \"#utility.yul\":9286:9290   */\n      dup2\n        /* \"#utility.yul\":9160:9291   */\n      tag_176\n      jump\t// in\n    tag_291:\n        /* \"#utility.yul\":9152:9291   */\n      swap1\n      pop\n        /* \"#utility.yul\":8879:9298   */\n      swap2\n      swap1\n      pop\n      jump\t// out\n        /* \"#utility.yul\":9304:9465   */\n    tag_177:\n        /* \"#utility.yul\":9444:9457   */\n      0x57726f6e6720546f6b656e000000000000000000000000000000000000000000\n        /* \"#utility.yul\":9440:9441   */\n      0x00\n        /* \"#utility.yul\":9432:9438   */\n      dup3\n        /* \"#utility.yul\":9428:9442   */\n      add\n        /* \"#utility.yul\":9421:9458   */\n      mstore\n        /* \"#utility.yul\":9304:9465   */\n      pop\n      jump\t// out\n        /* \"#utility.yul\":9471:9837   */\n    tag_178:\n        /* \"#utility.yul\":9613:9616   */\n      0x00\n        /* \"#utility.yul\":9634:9701   */\n      tag_294\n        /* \"#utility.yul\":9698:9700   */\n      0x0b\n        /* \"#utility.yul\":9693:9696   */\n      dup4\n        /* \"#utility.yul\":9634:9701   */\n      tag_174\n      jump\t// in\n    tag_294:\n        /* \"#utility.yul\":9627:9701   */\n      swap2\n      pop\n        /* \"#utility.yul\":9710:9803   */\n      tag_295\n        /* \"#utility.yul\":9799:9802   */\n      dup3\n        /* \"#utility.yul\":9710:9803   */\n      tag_177\n      jump\t// in\n    tag_295:\n        /* \"#utility.yul\":9828:9830   */\n      0x20\n        /* \"#utility.yul\":9823:9826   */\n      dup3\n        /* \"#utility.yul\":9819:9831   */\n      add\n        /* \"#utility.yul\":9812:9831   */\n      swap1\n      pop\n        /* \"#utility.yul\":9471:9837   */\n      swap2\n      swap1\n      pop\n      jump\t// out\n        /* \"#utility.yul\":9843:10262   */\n    tag_117:\n        /* \"#utility.yul\":10009:10013   */\n      0x00\n        /* \"#utility.yul\":10047:10049   */\n      0x20\n        /* \"#utility.yul\":10036:10045   */\n      dup3\n        /* \"#utility.yul\":10032:10050   */\n      add\n        /* \"#utility.yul\":10024:10050   */\n      swap1\n      pop\n        /* \"#utility.yul\":10096:10105   */\n      dup2\n        /* \"#utility.yul\":10090:10094   */\n      dup2\n        /* \"#utility.yul\":10086:10106   */\n      sub\n        /* \"#utility.yul\":10082:10083   */\n      0x00\n        /* \"#utility.yul\":10071:10080   */\n      dup4\n        /* \"#utility.yul\":10067:10084   */\n      add\n        /* \"#utility.yul\":10060:10107   */\n      mstore\n        /* \"#utility.yul\":10124:10255   */\n      tag_297\n        /* \"#utility.yul\":10250:10254   */\n      dup2\n        /* \"#utility.yul\":10124:10255   */\n      tag_178\n      jump\t// in\n    tag_297:\n        /* \"#utility.yul\":10116:10255   */\n      swap1\n      pop\n        /* \"#utility.yul\":9843:10262   */\n      swap2\n      swap1\n      pop\n      jump\t// out\n\n    auxdata: 0xa264697066735822122088c4b9f6e2e025a0a7611d76812420c5678fb1cd361770620e3d60df2824197764736f6c634300081a0033\n}\n",
				"bytecode": {
					"linkReferences": {},
					"object": "60c060405234801561000f575f80fd5b50604051611391380380611391833981810160405281019061003191906100fe565b8173ffffffffffffffffffffffffffffffffffffffff1660808173ffffffffffffffffffffffffffffffffffffffff16815250508073ffffffffffffffffffffffffffffffffffffffff1660a08173ffffffffffffffffffffffffffffffffffffffff1681525050505061013c565b5f80fd5b5f73ffffffffffffffffffffffffffffffffffffffff82169050919050565b5f6100cd826100a4565b9050919050565b6100dd816100c3565b81146100e7575f80fd5b50565b5f815190506100f8816100d4565b92915050565b5f8060408385031215610114576101136100a0565b5b5f610121858286016100ea565b9250506020610132858286016100ea565b9150509250929050565b60805160a0516111d26101bf5f395f818161034d0152818161048e015281816105c80152818161078a01528181610872015281816108da0152610b3101525f81816101ee015281816102a8015281816103f00152818161052d015281816107350152818161081a01528181610893015281816108b9015261091d01526111d25ff3fe608060405234801561000f575f80fd5b5060043610610091575f3560e01c806370a082311161006457806370a082311461010d5780639c8f9f231461013d5780639cd441da1461016e578063d004f0f71461019e578063d21220a7146101ce57610091565b80630dfe16811461009557806318160ddd146100b3578063443cb4bc146100d15780635a76f25e146100ef575b5f80fd5b61009d6101ec565b6040516100aa9190610cbc565b60405180910390f35b6100bb610210565b6040516100c89190610ced565b60405180910390f35b6100d9610216565b6040516100e69190610ced565b60405180910390f35b6100f761021b565b6040516101049190610ced565b60405180910390f35b61012760048036038101906101229190610d45565b610221565b6040516101349190610ced565b60405180910390f35b61015760048036038101906101529190610d9a565b610236565b604051610165929190610dc5565b60405180910390f35b61018860048036038101906101839190610dec565b6103ed565b6040516101959190610ced565b60405180910390f35b6101b860048036038101906101b39190610e2a565b610732565b6040516101c59190610ced565b60405180910390f35b6101d6610b2f565b6040516101e39190610cbc565b60405180910390f35b7f000000000000000000000000000000000000000000000000000000000000000081565b60025481565b5f5481565b60015481565b6003602052805f5260405f205f915090505481565b5f806002545f54846102489190610e95565b6102529190610f03565b9150600254600154846102659190610e95565b61026f9190610f03565b905061027b3384610b53565b61029e825f5461028b9190610f33565b826001546102999190610f33565b610bc2565b5f821115610343577f000000000000000000000000000000000000000000000000000000000000000073ffffffffffffffffffffffffffffffffffffffff1663a9059cbb33846040518363ffffffff1660e01b8152600401610301929190610f75565b6020604051808303815f875af115801561031d573d5f803e3d5ffd5b505050506040513d601f19601f820116820180604052508101906103419190610fd1565b505b5f8111156103e8577f000000000000000000000000000000000000000000000000000000000000000073ffffffffffffffffffffffffffffffffffffffff1663a9059cbb33836040518363ffffffff1660e01b81526004016103a6929190610f75565b6020604051808303815f875af11580156103c2573d5f803e3d5ffd5b505050506040513d601f19601f820116820180604052508101906103e69190610fd1565b505b915091565b5f7f000000000000000000000000000000000000000000000000000000000000000073ffffffffffffffffffffffffffffffffffffffff166323b872dd3330866040518463ffffffff1660e01b815260040161044b93929190610ffc565b6020604051808303815f875af1158015610467573d5f803e3d5ffd5b505050506040513d601f19601f8201168201806040525081019061048b9190610fd1565b507f000000000000000000000000000000000000000000000000000000000000000073ffffffffffffffffffffffffffffffffffffffff166323b872dd3330856040518463ffffffff1660e01b81526004016104e993929190610ffc565b6020604051808303815f875af1158015610505573d5f803e3d5ffd5b505050506040513d601f19601f820116820180604052508101906105299190610fd1565b505f7f000000000000000000000000000000000000000000000000000000000000000073ffffffffffffffffffffffffffffffffffffffff166370a08231306040518263ffffffff1660e01b81526004016105849190611031565b602060405180830381865afa15801561059f573d5f803e3d5ffd5b505050506040513d601f19601f820116820180604052508101906105c3919061105e565b90505f7f000000000000000000000000000000000000000000000000000000000000000073ffffffffffffffffffffffffffffffffffffffff166370a08231306040518263ffffffff1660e01b815260040161061f9190611031565b602060405180830381865afa15801561063a573d5f803e3d5ffd5b505050506040513d601f19601f8201168201806040525081019061065e919061105e565b90505f80548361066e9190610f33565b90505f6001548361067f9190610f33565b90505f6002540361069d5780826106969190611089565b94506106d2565b6001545f546106ac9190611089565b60025482846106bb9190611089565b6106c59190611089565b6106cf9190610f03565b94505b5f8511610714576040517f08c379a000000000000000000000000000000000000000000000000000000000815260040161070b90611116565b60405180910390fd5b61071e3386610bd3565b6107288282610bc2565b5050505092915050565b5f7f000000000000000000000000000000000000000000000000000000000000000073ffffffffffffffffffffffffffffffffffffffff168373ffffffffffffffffffffffffffffffffffffffff1614806107d857507f000000000000000000000000000000000000000000000000000000000000000073ffffffffffffffffffffffffffffffffffffffff168373ffffffffffffffffffffffffffffffffffffffff16145b610817576040517f08c379a000000000000000000000000000000000000000000000000000000000815260040161080e9061117e565b60405180910390fd5b5f7f000000000000000000000000000000000000000000000000000000000000000073ffffffffffffffffffffffffffffffffffffffff168473ffffffffffffffffffffffffffffffffffffffff161490505f80826108b7577f00000000000000000000000000000000000000000000000000000000000000007f00000000000000000000000000000000000000000000000000000000000000006108fa565b7f00000000000000000000000000000000000000000000000000000000000000007f00000000000000000000000000000000000000000000000000000000000000005b915091505f808461090f576001545f54610915565b5f546001545b915091505f827f000000000000000000000000000000000000000000000000000000000000000073ffffffffffffffffffffffffffffffffffffffff166370a08231306040518263ffffffff1660e01b81526004016109749190611031565b602060405180830381865afa15801561098f573d5f803e3d5ffd5b505050506040513d601f19601f820116820180604052508101906109b3919061105e565b6109bd9190610f33565b90508473ffffffffffffffffffffffffffffffffffffffff166323b872dd33308b6040518463ffffffff1660e01b81526004016109fc93929190610ffc565b6020604051808303815f875af1158015610a18573d5f803e3d5ffd5b505050506040513d601f19601f82011682018060405250810190610a3c9190610fd1565b506103e86103e582610a4e9190610e95565b610a589190610f03565b96505f8087610a7e578885610a6d9190610f33565b8a85610a799190611089565b610a97565b8985610a8a9190611089565b8985610a969190610f33565b5b91509150610aa58282610bc2565b8573ffffffffffffffffffffffffffffffffffffffff1663a9059cbb338b6040518363ffffffff1660e01b8152600401610ae0929190610f75565b6020604051808303815f875af1158015610afc573d5f803e3d5ffd5b505050506040513d601f19601f82011682018060405250810190610b209190610fd1565b50505050505050505092915050565b7f000000000000000000000000000000000000000000000000000000000000000081565b8060035f8473ffffffffffffffffffffffffffffffffffffffff1673ffffffffffffffffffffffffffffffffffffffff1681526020019081526020015f205f828254610b9f9190610f33565b925050819055508060025f828254610bb79190610f33565b925050819055505050565b815f81905550806001819055505050565b8060035f8473ffffffffffffffffffffffffffffffffffffffff1673ffffffffffffffffffffffffffffffffffffffff1681526020019081526020015f205f828254610c1f9190611089565b925050819055508060025f828254610c379190611089565b925050819055505050565b5f73ffffffffffffffffffffffffffffffffffffffff82169050919050565b5f819050919050565b5f610c84610c7f610c7a84610c42565b610c61565b610c42565b9050919050565b5f610c9582610c6a565b9050919050565b5f610ca682610c8b565b9050919050565b610cb681610c9c565b82525050565b5f602082019050610ccf5f830184610cad565b92915050565b5f819050919050565b610ce781610cd5565b82525050565b5f602082019050610d005f830184610cde565b92915050565b5f80fd5b5f610d1482610c42565b9050919050565b610d2481610d0a565b8114610d2e575f80fd5b50565b5f81359050610d3f81610d1b565b92915050565b5f60208284031215610d5a57610d59610d06565b5b5f610d6784828501610d31565b91505092915050565b610d7981610cd5565b8114610d83575f80fd5b50565b5f81359050610d9481610d70565b92915050565b5f60208284031215610daf57610dae610d06565b5b5f610dbc84828501610d86565b91505092915050565b5f604082019050610dd85f830185610cde565b610de56020830184610cde565b9392505050565b5f8060408385031215610e0257610e01610d06565b5b5f610e0f85828601610d86565b9250506020610e2085828601610d86565b9150509250929050565b5f8060408385031215610e4057610e3f610d06565b5b5f610e4d85828601610d31565b9250506020610e5e85828601610d86565b9150509250929050565b7f4e487b71000000000000000000000000000000000000000000000000000000005f52601160045260245ffd5b5f610e9f82610cd5565b9150610eaa83610cd5565b9250828202610eb881610cd5565b91508282048414831517610ecf57610ece610e68565b5b5092915050565b7f4e487b71000000000000000000000000000000000000000000000000000000005f52601260045260245ffd5b5f610f0d82610cd5565b9150610f1883610cd5565b925082610f2857610f27610ed6565b5b828204905092915050565b5f610f3d82610cd5565b9150610f4883610cd5565b9250828203905081811115610f6057610f5f610e68565b5b92915050565b610f6f81610d0a565b82525050565b5f604082019050610f885f830185610f66565b610f956020830184610cde565b9392505050565b5f8115159050919050565b610fb081610f9c565b8114610fba575f80fd5b50565b5f81519050610fcb81610fa7565b92915050565b5f60208284031215610fe657610fe5610d06565b5b5f610ff384828501610fbd565b91505092915050565b5f60608201905061100f5f830186610f66565b61101c6020830185610f66565b6110296040830184610cde565b949350505050565b5f6020820190506110445f830184610f66565b92915050565b5f8151905061105881610d70565b92915050565b5f6020828403121561107357611072610d06565b5b5f6110808482850161104a565b91505092915050565b5f61109382610cd5565b915061109e83610cd5565b92508282019050808211156110b6576110b5610e68565b5b92915050565b5f82825260208201905092915050565b7f556e61626c6520746f206d696e740000000000000000000000000000000000005f82015250565b5f611100600e836110bc565b915061110b826110cc565b602082019050919050565b5f6020820190508181035f83015261112d816110f4565b9050919050565b7f57726f6e6720546f6b656e0000000000000000000000000000000000000000005f82015250565b5f611168600b836110bc565b915061117382611134565b602082019050919050565b5f6020820190508181035f8301526111958161115c565b905091905056fea264697066735822122088c4b9f6e2e025a0a7611d76812420c5678fb1cd361770620e3d60df2824197764736f6c634300081a0033",
					"opcodes": "PUSH1 0xC0 PUSH1 0x40 MSTORE CALLVALUE DUP1 ISZERO PUSH2 0xF JUMPI PUSH0 DUP1 REVERT JUMPDEST POP PUSH1 0x40 MLOAD PUSH2 0x1391 CODESIZE SUB DUP1 PUSH2 0x1391 DUP4 CODECOPY DUP2 DUP2 ADD PUSH1 0x40 MSTORE DUP2 ADD SWAP1 PUSH2 0x31 SWAP2 SWAP1 PUSH2 0xFE JUMP JUMPDEST DUP2 PUSH20 0xFFFFFFFFFFFFFFFFFFFFFFFFFFFFFFFFFFFFFFFF AND PUSH1 0x80 DUP2 PUSH20 0xFFFFFFFFFFFFFFFFFFFFFFFFFFFFFFFFFFFFFFFF AND DUP2 MSTORE POP POP DUP1 PUSH20 0xFFFFFFFFFFFFFFFFFFFFFFFFFFFFFFFFFFFFFFFF AND PUSH1 0xA0 DUP2 PUSH20 0xFFFFFFFFFFFFFFFFFFFFFFFFFFFFFFFFFFFFFFFF AND DUP2 MSTORE POP POP POP POP PUSH2 0x13C JUMP JUMPDEST PUSH0 DUP1 REVERT JUMPDEST PUSH0 PUSH20 0xFFFFFFFFFFFFFFFFFFFFFFFFFFFFFFFFFFFFFFFF DUP3 AND SWAP1 POP SWAP2 SWAP1 POP JUMP JUMPDEST PUSH0 PUSH2 0xCD DUP3 PUSH2 0xA4 JUMP JUMPDEST SWAP1 POP SWAP2 SWAP1 POP JUMP JUMPDEST PUSH2 0xDD DUP2 PUSH2 0xC3 JUMP JUMPDEST DUP2 EQ PUSH2 0xE7 JUMPI PUSH0 DUP1 REVERT JUMPDEST POP JUMP JUMPDEST PUSH0 DUP2 MLOAD SWAP1 POP PUSH2 0xF8 DUP2 PUSH2 0xD4 JUMP JUMPDEST SWAP3 SWAP2 POP POP JUMP JUMPDEST PUSH0 DUP1 PUSH1 0x40 DUP4 DUP6 SUB SLT ISZERO PUSH2 0x114 JUMPI PUSH2 0x113 PUSH2 0xA0 JUMP JUMPDEST JUMPDEST PUSH0 PUSH2 0x121 DUP6 DUP3 DUP7 ADD PUSH2 0xEA JUMP JUMPDEST SWAP3 POP POP PUSH1 0x20 PUSH2 0x132 DUP6 DUP3 DUP7 ADD PUSH2 0xEA JUMP JUMPDEST SWAP2 POP POP SWAP3 POP SWAP3 SWAP1 POP JUMP JUMPDEST PUSH1 0x80 MLOAD PUSH1 0xA0 MLOAD PUSH2 0x11D2 PUSH2 0x1BF PUSH0 CODECOPY PUSH0 DUP2 DUP2 PUSH2 0x34D ADD MSTORE DUP2 DUP2 PUSH2 0x48E ADD MSTORE DUP2 DUP2 PUSH2 0x5C8 ADD MSTORE DUP2 DUP2 PUSH2 0x78A ADD MSTORE DUP2 DUP2 PUSH2 0x872 ADD MSTORE DUP2 DUP2 PUSH2 0x8DA ADD MSTORE PUSH2 0xB31 ADD MSTORE PUSH0 DUP2 DUP2 PUSH2 0x1EE ADD MSTORE DUP2 DUP2 PUSH2 0x2A8 ADD MSTORE DUP2 DUP2 PUSH2 0x3F0 ADD MSTORE DUP2 DUP2 PUSH2 0x52D ADD MSTORE DUP2 DUP2 PUSH2 0x735 ADD MSTORE DUP2 DUP2 PUSH2 0x81A ADD MSTORE DUP2 DUP2 PUSH2 0x893 ADD MSTORE DUP2 DUP2 PUSH2 0x8B9 ADD MSTORE PUSH2 0x91D ADD MSTORE PUSH2 0x11D2 PUSH0 RETURN INVALID PUSH1 0x80 PUSH1 0x40 MSTORE CALLVALUE DUP1 ISZERO PUSH2 0xF JUMPI PUSH0 DUP1 REVERT JUMPDEST POP PUSH1 0x4 CALLDATASIZE LT PUSH2 0x91 JUMPI PUSH0 CALLDATALOAD PUSH1 0xE0 SHR DUP1 PUSH4 0x70A08231 GT PUSH2 0x64 JUMPI DUP1 PUSH4 0x70A08231 EQ PUSH2 0x10D JUMPI DUP1 PUSH4 0x9C8F9F23 EQ PUSH2 0x13D JUMPI DUP1 PUSH4 0x9CD441DA EQ PUSH2 0x16E JUMPI DUP1 PUSH4 0xD004F0F7 EQ PUSH2 0x19E JUMPI DUP1 PUSH4 0xD21220A7 EQ PUSH2 0x1CE JUMPI PUSH2 0x91 JUMP JUMPDEST DUP1 PUSH4 0xDFE1681 EQ PUSH2 0x95 JUMPI DUP1 PUSH4 0x18160DDD EQ PUSH2 0xB3 JUMPI DUP1 PUSH4 0x443CB4BC EQ PUSH2 0xD1 JUMPI DUP1 PUSH4 0x5A76F25E EQ PUSH2 0xEF JUMPI JUMPDEST PUSH0 DUP1 REVERT JUMPDEST PUSH2 0x9D PUSH2 0x1EC JUMP JUMPDEST PUSH1 0x40 MLOAD PUSH2 0xAA SWAP2 SWAP1 PUSH2 0xCBC JUMP JUMPDEST PUSH1 0x40 MLOAD DUP1 SWAP2 SUB SWAP1 RETURN JUMPDEST PUSH2 0xBB PUSH2 0x210 JUMP JUMPDEST PUSH1 0x40 MLOAD PUSH2 0xC8 SWAP2 SWAP1 PUSH2 0xCED JUMP JUMPDEST PUSH1 0x40 MLOAD DUP1 SWAP2 SUB SWAP1 RETURN JUMPDEST PUSH2 0xD9 PUSH2 0x216 JUMP JUMPDEST PUSH1 0x40 MLOAD PUSH2 0xE6 SWAP2 SWAP1 PUSH2 0xCED JUMP JUMPDEST PUSH1 0x40 MLOAD DUP1 SWAP2 SUB SWAP1 RETURN JUMPDEST PUSH2 0xF7 PUSH2 0x21B JUMP JUMPDEST PUSH1 0x40 MLOAD PUSH2 0x104 SWAP2 SWAP1 PUSH2 0xCED JUMP JUMPDEST PUSH1 0x40 MLOAD DUP1 SWAP2 SUB SWAP1 RETURN JUMPDEST PUSH2 0x127 PUSH1 0x4 DUP1 CALLDATASIZE SUB DUP2 ADD SWAP1 PUSH2 0x122 SWAP2 SWAP1 PUSH2 0xD45 JUMP JUMPDEST PUSH2 0x221 JUMP JUMPDEST PUSH1 0x40 MLOAD PUSH2 0x134 SWAP2 SWAP1 PUSH2 0xCED JUMP JUMPDEST PUSH1 0x40 MLOAD DUP1 SWAP2 SUB SWAP1 RETURN JUMPDEST PUSH2 0x157 PUSH1 0x4 DUP1 CALLDATASIZE SUB DUP2 ADD SWAP1 PUSH2 0x152 SWAP2 SWAP1 PUSH2 0xD9A JUMP JUMPDEST PUSH2 0x236 JUMP JUMPDEST PUSH1 0x40 MLOAD PUSH2 0x165 SWAP3 SWAP2 SWAP1 PUSH2 0xDC5 JUMP JUMPDEST PUSH1 0x40 MLOAD DUP1 SWAP2 SUB SWAP1 RETURN JUMPDEST PUSH2 0x188 PUSH1 0x4 DUP1 CALLDATASIZE SUB DUP2 ADD SWAP1 PUSH2 0x183 SWAP2 SWAP1 PUSH2 0xDEC JUMP JUMPDEST PUSH2 0x3ED JUMP JUMPDEST PUSH1 0x40 MLOAD PUSH2 0x195 SWAP2 SWAP1 PUSH2 0xCED JUMP JUMPDEST PUSH1 0x40 MLOAD DUP1 SWAP2 SUB SWAP1 RETURN JUMPDEST PUSH2 0x1B8 PUSH1 0x4 DUP1 CALLDATASIZE SUB DUP2 ADD SWAP1 PUSH2 0x1B3 SWAP2 SWAP1 PUSH2 0xE2A JUMP JUMPDEST PUSH2 0x732 JUMP JUMPDEST PUSH1 0x40 MLOAD PUSH2 0x1C5 SWAP2 SWAP1 PUSH2 0xCED JUMP JUMPDEST PUSH1 0x40 MLOAD DUP1 SWAP2 SUB SWAP1 RETURN JUMPDEST PUSH2 0x1D6 PUSH2 0xB2F JUMP JUMPDEST PUSH1 0x40 MLOAD PUSH2 0x1E3 SWAP2 SWAP1 PUSH2 0xCBC JUMP JUMPDEST PUSH1 0x40 MLOAD DUP1 SWAP2 SUB SWAP1 RETURN JUMPDEST PUSH32 0x0 DUP2 JUMP JUMPDEST PUSH1 0x2 SLOAD DUP2 JUMP JUMPDEST PUSH0 SLOAD DUP2 JUMP JUMPDEST PUSH1 0x1 SLOAD DUP2 JUMP JUMPDEST PUSH1 0x3 PUSH1 0x20 MSTORE DUP1 PUSH0 MSTORE PUSH1 0x40 PUSH0 KECCAK256 PUSH0 SWAP2 POP SWAP1 POP SLOAD DUP2 JUMP JUMPDEST PUSH0 DUP1 PUSH1 0x2 SLOAD PUSH0 SLOAD DUP5 PUSH2 0x248 SWAP2 SWAP1 PUSH2 0xE95 JUMP JUMPDEST PUSH2 0x252 SWAP2 SWAP1 PUSH2 0xF03 JUMP JUMPDEST SWAP2 POP PUSH1 0x2 SLOAD PUSH1 0x1 SLOAD DUP5 PUSH2 0x265 SWAP2 SWAP1 PUSH2 0xE95 JUMP JUMPDEST PUSH2 0x26F SWAP2 SWAP1 PUSH2 0xF03 JUMP JUMPDEST SWAP1 POP PUSH2 0x27B CALLER DUP5 PUSH2 0xB53 JUMP JUMPDEST PUSH2 0x29E DUP3 PUSH0 SLOAD PUSH2 0x28B SWAP2 SWAP1 PUSH2 0xF33 JUMP JUMPDEST DUP3 PUSH1 0x1 SLOAD PUSH2 0x299 SWAP2 SWAP1 PUSH2 0xF33 JUMP JUMPDEST PUSH2 0xBC2 JUMP JUMPDEST PUSH0 DUP3 GT ISZERO PUSH2 0x343 JUMPI PUSH32 0x0 PUSH20 0xFFFFFFFFFFFFFFFFFFFFFFFFFFFFFFFFFFFFFFFF AND PUSH4 0xA9059CBB CALLER DUP5 PUSH1 0x40 MLOAD DUP4 PUSH4 0xFFFFFFFF AND PUSH1 0xE0 SHL DUP2 MSTORE PUSH1 0x4 ADD PUSH2 0x301 SWAP3 SWAP2 SWAP1 PUSH2 0xF75 JUMP JUMPDEST PUSH1 0x20 PUSH1 0x40 MLOAD DUP1 DUP4 SUB DUP2 PUSH0 DUP8 GAS CALL ISZERO DUP1 ISZERO PUSH2 0x31D JUMPI RETURNDATASIZE PUSH0 DUP1 RETURNDATACOPY RETURNDATASIZE PUSH0 REVERT JUMPDEST POP POP POP POP PUSH1 0x40 MLOAD RETURNDATASIZE PUSH1 0x1F NOT PUSH1 0x1F DUP3 ADD AND DUP3 ADD DUP1 PUSH1 0x40 MSTORE POP DUP2 ADD SWAP1 PUSH2 0x341 SWAP2 SWAP1 PUSH2 0xFD1 JUMP JUMPDEST POP JUMPDEST PUSH0 DUP2 GT ISZERO PUSH2 0x3E8 JUMPI PUSH32 0x0 PUSH20 0xFFFFFFFFFFFFFFFFFFFFFFFFFFFFFFFFFFFFFFFF AND PUSH4 0xA9059CBB CALLER DUP4 PUSH1 0x40 MLOAD DUP4 PUSH4 0xFFFFFFFF AND PUSH1 0xE0 SHL DUP2 MSTORE PUSH1 0x4 ADD PUSH2 0x3A6 SWAP3 SWAP2 SWAP1 PUSH2 0xF75 JUMP JUMPDEST PUSH1 0x20 PUSH1 0x40 MLOAD DUP1 DUP4 SUB DUP2 PUSH0 DUP8 GAS CALL ISZERO DUP1 ISZERO PUSH2 0x3C2 JUMPI RETURNDATASIZE PUSH0 DUP1 RETURNDATACOPY RETURNDATASIZE PUSH0 REVERT JUMPDEST POP POP POP POP PUSH1 0x40 MLOAD RETURNDATASIZE PUSH1 0x1F NOT PUSH1 0x1F DUP3 ADD AND DUP3 ADD DUP1 PUSH1 0x40 MSTORE POP DUP2 ADD SWAP1 PUSH2 0x3E6 SWAP2 SWAP1 PUSH2 0xFD1 JUMP JUMPDEST POP JUMPDEST SWAP2 POP SWAP2 JUMP JUMPDEST PUSH0 PUSH32 0x0 PUSH20 0xFFFFFFFFFFFFFFFFFFFFFFFFFFFFFFFFFFFFFFFF AND PUSH4 0x23B872DD CALLER ADDRESS DUP7 PUSH1 0x40 MLOAD DUP5 PUSH4 0xFFFFFFFF AND PUSH1 0xE0 SHL DUP2 MSTORE PUSH1 0x4 ADD PUSH2 0x44B SWAP4 SWAP3 SWAP2 SWAP1 PUSH2 0xFFC JUMP JUMPDEST PUSH1 0x20 PUSH1 0x40 MLOAD DUP1 DUP4 SUB DUP2 PUSH0 DUP8 GAS CALL ISZERO DUP1 ISZERO PUSH2 0x467 JUMPI RETURNDATASIZE PUSH0 DUP1 RETURNDATACOPY RETURNDATASIZE PUSH0 REVERT JUMPDEST POP POP POP POP PUSH1 0x40 MLOAD RETURNDATASIZE PUSH1 0x1F NOT PUSH1 0x1F DUP3 ADD AND DUP3 ADD DUP1 PUSH1 0x40 MSTORE POP DUP2 ADD SWAP1 PUSH2 0x48B SWAP2 SWAP1 PUSH2 0xFD1 JUMP JUMPDEST POP PUSH32 0x0 PUSH20 0xFFFFFFFFFFFFFFFFFFFFFFFFFFFFFFFFFFFFFFFF AND PUSH4 0x23B872DD CALLER ADDRESS DUP6 PUSH1 0x40 MLOAD DUP5 PUSH4 0xFFFFFFFF AND PUSH1 0xE0 SHL DUP2 MSTORE PUSH1 0x4 ADD PUSH2 0x4E9 SWAP4 SWAP3 SWAP2 SWAP1 PUSH2 0xFFC JUMP JUMPDEST PUSH1 0x20 PUSH1 0x40 MLOAD DUP1 DUP4 SUB DUP2 PUSH0 DUP8 GAS CALL ISZERO DUP1 ISZERO PUSH2 0x505 JUMPI RETURNDATASIZE PUSH0 DUP1 RETURNDATACOPY RETURNDATASIZE PUSH0 REVERT JUMPDEST POP POP POP POP PUSH1 0x40 MLOAD RETURNDATASIZE PUSH1 0x1F NOT PUSH1 0x1F DUP3 ADD AND DUP3 ADD DUP1 PUSH1 0x40 MSTORE POP DUP2 ADD SWAP1 PUSH2 0x529 SWAP2 SWAP1 PUSH2 0xFD1 JUMP JUMPDEST POP PUSH0 PUSH32 0x0 PUSH20 0xFFFFFFFFFFFFFFFFFFFFFFFFFFFFFFFFFFFFFFFF AND PUSH4 0x70A08231 ADDRESS PUSH1 0x40 MLOAD DUP3 PUSH4 0xFFFFFFFF AND PUSH1 0xE0 SHL DUP2 MSTORE PUSH1 0x4 ADD PUSH2 0x584 SWAP2 SWAP1 PUSH2 0x1031 JUMP JUMPDEST PUSH1 0x20 PUSH1 0x40 MLOAD DUP1 DUP4 SUB DUP2 DUP7 GAS STATICCALL ISZERO DUP1 ISZERO PUSH2 0x59F JUMPI RETURNDATASIZE PUSH0 DUP1 RETURNDATACOPY RETURNDATASIZE PUSH0 REVERT JUMPDEST POP POP POP POP PUSH1 0x40 MLOAD RETURNDATASIZE PUSH1 0x1F NOT PUSH1 0x1F DUP3 ADD AND DUP3 ADD DUP1 PUSH1 0x40 MSTORE POP DUP2 ADD SWAP1 PUSH2 0x5C3 SWAP2 SWAP1 PUSH2 0x105E JUMP JUMPDEST SWAP1 POP PUSH0 PUSH32 0x0 PUSH20 0xFFFFFFFFFFFFFFFFFFFFFFFFFFFFFFFFFFFFFFFF AND PUSH4 0x70A08231 ADDRESS PUSH1 0x40 MLOAD DUP3 PUSH4 0xFFFFFFFF AND PUSH1 0xE0 SHL DUP2 MSTORE PUSH1 0x4 ADD PUSH2 0x61F SWAP2 SWAP1 PUSH2 0x1031 JUMP JUMPDEST PUSH1 0x20 PUSH1 0x40 MLOAD DUP1 DUP4 SUB DUP2 DUP7 GAS STATICCALL ISZERO DUP1 ISZERO PUSH2 0x63A JUMPI RETURNDATASIZE PUSH0 DUP1 RETURNDATACOPY RETURNDATASIZE PUSH0 REVERT JUMPDEST POP POP POP POP PUSH1 0x40 MLOAD RETURNDATASIZE PUSH1 0x1F NOT PUSH1 0x1F DUP3 ADD AND DUP3 ADD DUP1 PUSH1 0x40 MSTORE POP DUP2 ADD SWAP1 PUSH2 0x65E SWAP2 SWAP1 PUSH2 0x105E JUMP JUMPDEST SWAP1 POP PUSH0 DUP1 SLOAD DUP4 PUSH2 0x66E SWAP2 SWAP1 PUSH2 0xF33 JUMP JUMPDEST SWAP1 POP PUSH0 PUSH1 0x1 SLOAD DUP4 PUSH2 0x67F SWAP2 SWAP1 PUSH2 0xF33 JUMP JUMPDEST SWAP1 POP PUSH0 PUSH1 0x2 SLOAD SUB PUSH2 0x69D JUMPI DUP1 DUP3 PUSH2 0x696 SWAP2 SWAP1 PUSH2 0x1089 JUMP JUMPDEST SWAP5 POP PUSH2 0x6D2 JUMP JUMPDEST PUSH1 0x1 SLOAD PUSH0 SLOAD PUSH2 0x6AC SWAP2 SWAP1 PUSH2 0x1089 JUMP JUMPDEST PUSH1 0x2 SLOAD DUP3 DUP5 PUSH2 0x6BB SWAP2 SWAP1 PUSH2 0x1089 JUMP JUMPDEST PUSH2 0x6C5 SWAP2 SWAP1 PUSH2 0x1089 JUMP JUMPDEST PUSH2 0x6CF SWAP2 SWAP1 PUSH2 0xF03 JUMP JUMPDEST SWAP5 POP JUMPDEST PUSH0 DUP6 GT PUSH2 0x714 JUMPI PUSH1 0x40 MLOAD PUSH32 0x8C379A000000000000000000000000000000000000000000000000000000000 DUP2 MSTORE PUSH1 0x4 ADD PUSH2 0x70B SWAP1 PUSH2 0x1116 JUMP JUMPDEST PUSH1 0x40 MLOAD DUP1 SWAP2 SUB SWAP1 REVERT JUMPDEST PUSH2 0x71E CALLER DUP7 PUSH2 0xBD3 JUMP JUMPDEST PUSH2 0x728 DUP3 DUP3 PUSH2 0xBC2 JUMP JUMPDEST POP POP POP POP SWAP3 SWAP2 POP POP JUMP JUMPDEST PUSH0 PUSH32 0x0 PUSH20 0xFFFFFFFFFFFFFFFFFFFFFFFFFFFFFFFFFFFFFFFF AND DUP4 PUSH20 0xFFFFFFFFFFFFFFFFFFFFFFFFFFFFFFFFFFFFFFFF AND EQ DUP1 PUSH2 0x7D8 JUMPI POP PUSH32 0x0 PUSH20 0xFFFFFFFFFFFFFFFFFFFFFFFFFFFFFFFFFFFFFFFF AND DUP4 PUSH20 0xFFFFFFFFFFFFFFFFFFFFFFFFFFFFFFFFFFFFFFFF AND EQ JUMPDEST PUSH2 0x817 JUMPI PUSH1 0x40 MLOAD PUSH32 0x8C379A000000000000000000000000000000000000000000000000000000000 DUP2 MSTORE PUSH1 0x4 ADD PUSH2 0x80E SWAP1 PUSH2 0x117E JUMP JUMPDEST PUSH1 0x40 MLOAD DUP1 SWAP2 SUB SWAP1 REVERT JUMPDEST PUSH0 PUSH32 0x0 PUSH20 0xFFFFFFFFFFFFFFFFFFFFFFFFFFFFFFFFFFFFFFFF AND DUP5 PUSH20 0xFFFFFFFFFFFFFFFFFFFFFFFFFFFFFFFFFFFFFFFF AND EQ SWAP1 POP PUSH0 DUP1 DUP3 PUSH2 0x8B7 JUMPI PUSH32 0x0 PUSH32 0x0 PUSH2 0x8FA JUMP JUMPDEST PUSH32 0x0 PUSH32 0x0 JUMPDEST SWAP2 POP SWAP2 POP PUSH0 DUP1 DUP5 PUSH2 0x90F JUMPI PUSH1 0x1 SLOAD PUSH0 SLOAD PUSH2 0x915 JUMP JUMPDEST PUSH0 SLOAD PUSH1 0x1 SLOAD JUMPDEST SWAP2 POP SWAP2 POP PUSH0 DUP3 PUSH32 0x0 PUSH20 0xFFFFFFFFFFFFFFFFFFFFFFFFFFFFFFFFFFFFFFFF AND PUSH4 0x70A08231 ADDRESS PUSH1 0x40 MLOAD DUP3 PUSH4 0xFFFFFFFF AND PUSH1 0xE0 SHL DUP2 MSTORE PUSH1 0x4 ADD PUSH2 0x974 SWAP2 SWAP1 PUSH2 0x1031 JUMP JUMPDEST PUSH1 0x20 PUSH1 0x40 MLOAD DUP1 DUP4 SUB DUP2 DUP7 GAS STATICCALL ISZERO DUP1 ISZERO PUSH2 0x98F JUMPI RETURNDATASIZE PUSH0 DUP1 RETURNDATACOPY RETURNDATASIZE PUSH0 REVERT JUMPDEST POP POP POP POP PUSH1 0x40 MLOAD RETURNDATASIZE PUSH1 0x1F NOT PUSH1 0x1F DUP3 ADD AND DUP3 ADD DUP1 PUSH1 0x40 MSTORE POP DUP2 ADD SWAP1 PUSH2 0x9B3 SWAP2 SWAP1 PUSH2 0x105E JUMP JUMPDEST PUSH2 0x9BD SWAP2 SWAP1 PUSH2 0xF33 JUMP JUMPDEST SWAP1 POP DUP5 PUSH20 0xFFFFFFFFFFFFFFFFFFFFFFFFFFFFFFFFFFFFFFFF AND PUSH4 0x23B872DD CALLER ADDRESS DUP12 PUSH1 0x40 MLOAD DUP5 PUSH4 0xFFFFFFFF AND PUSH1 0xE0 SHL DUP2 MSTORE PUSH1 0x4 ADD PUSH2 0x9FC SWAP4 SWAP3 SWAP2 SWAP1 PUSH2 0xFFC JUMP JUMPDEST PUSH1 0x20 PUSH1 0x40 MLOAD DUP1 DUP4 SUB DUP2 PUSH0 DUP8 GAS CALL ISZERO DUP1 ISZERO PUSH2 0xA18 JUMPI RETURNDATASIZE PUSH0 DUP1 RETURNDATACOPY RETURNDATASIZE PUSH0 REVERT JUMPDEST POP POP POP POP PUSH1 0x40 MLOAD RETURNDATASIZE PUSH1 0x1F NOT PUSH1 0x1F DUP3 ADD AND DUP3 ADD DUP1 PUSH1 0x40 MSTORE POP DUP2 ADD SWAP1 PUSH2 0xA3C SWAP2 SWAP1 PUSH2 0xFD1 JUMP JUMPDEST POP PUSH2 0x3E8 PUSH2 0x3E5 DUP3 PUSH2 0xA4E SWAP2 SWAP1 PUSH2 0xE95 JUMP JUMPDEST PUSH2 0xA58 SWAP2 SWAP1 PUSH2 0xF03 JUMP JUMPDEST SWAP7 POP PUSH0 DUP1 DUP8 PUSH2 0xA7E JUMPI DUP9 DUP6 PUSH2 0xA6D SWAP2 SWAP1 PUSH2 0xF33 JUMP JUMPDEST DUP11 DUP6 PUSH2 0xA79 SWAP2 SWAP1 PUSH2 0x1089 JUMP JUMPDEST PUSH2 0xA97 JUMP JUMPDEST DUP10 DUP6 PUSH2 0xA8A SWAP2 SWAP1 PUSH2 0x1089 JUMP JUMPDEST DUP10 DUP6 PUSH2 0xA96 SWAP2 SWAP1 PUSH2 0xF33 JUMP JUMPDEST JUMPDEST SWAP2 POP SWAP2 POP PUSH2 0xAA5 DUP3 DUP3 PUSH2 0xBC2 JUMP JUMPDEST DUP6 PUSH20 0xFFFFFFFFFFFFFFFFFFFFFFFFFFFFFFFFFFFFFFFF AND PUSH4 0xA9059CBB CALLER DUP12 PUSH1 0x40 MLOAD DUP4 PUSH4 0xFFFFFFFF AND PUSH1 0xE0 SHL DUP2 MSTORE PUSH1 0x4 ADD PUSH2 0xAE0 SWAP3 SWAP2 SWAP1 PUSH2 0xF75 JUMP JUMPDEST PUSH1 0x20 PUSH1 0x40 MLOAD DUP1 DUP4 SUB DUP2 PUSH0 DUP8 GAS CALL ISZERO DUP1 ISZERO PUSH2 0xAFC JUMPI RETURNDATASIZE PUSH0 DUP1 RETURNDATACOPY RETURNDATASIZE PUSH0 REVERT JUMPDEST POP POP POP POP PUSH1 0x40 MLOAD RETURNDATASIZE PUSH1 0x1F NOT PUSH1 0x1F DUP3 ADD AND DUP3 ADD DUP1 PUSH1 0x40 MSTORE POP DUP2 ADD SWAP1 PUSH2 0xB20 SWAP2 SWAP1 PUSH2 0xFD1 JUMP JUMPDEST POP POP POP POP POP POP POP POP POP SWAP3 SWAP2 POP POP JUMP JUMPDEST PUSH32 0x0 DUP2 JUMP JUMPDEST DUP1 PUSH1 0x3 PUSH0 DUP5 PUSH20 0xFFFFFFFFFFFFFFFFFFFFFFFFFFFFFFFFFFFFFFFF AND PUSH20 0xFFFFFFFFFFFFFFFFFFFFFFFFFFFFFFFFFFFFFFFF AND DUP2 MSTORE PUSH1 0x20 ADD SWAP1 DUP2 MSTORE PUSH1 0x20 ADD PUSH0 KECCAK256 PUSH0 DUP3 DUP3 SLOAD PUSH2 0xB9F SWAP2 SWAP1 PUSH2 0xF33 JUMP JUMPDEST SWAP3 POP POP DUP2 SWAP1 SSTORE POP DUP1 PUSH1 0x2 PUSH0 DUP3 DUP3 SLOAD PUSH2 0xBB7 SWAP2 SWAP1 PUSH2 0xF33 JUMP JUMPDEST SWAP3 POP POP DUP2 SWAP1 SSTORE POP POP POP JUMP JUMPDEST DUP2 PUSH0 DUP2 SWAP1 SSTORE POP DUP1 PUSH1 0x1 DUP2 SWAP1 SSTORE POP POP POP JUMP JUMPDEST DUP1 PUSH1 0x3 PUSH0 DUP5 PUSH20 0xFFFFFFFFFFFFFFFFFFFFFFFFFFFFFFFFFFFFFFFF AND PUSH20 0xFFFFFFFFFFFFFFFFFFFFFFFFFFFFFFFFFFFFFFFF AND DUP2 MSTORE PUSH1 0x20 ADD SWAP1 DUP2 MSTORE PUSH1 0x20 ADD PUSH0 KECCAK256 PUSH0 DUP3 DUP3 SLOAD PUSH2 0xC1F SWAP2 SWAP1 PUSH2 0x1089 JUMP JUMPDEST SWAP3 POP POP DUP2 SWAP1 SSTORE POP DUP1 PUSH1 0x2 PUSH0 DUP3 DUP3 SLOAD PUSH2 0xC37 SWAP2 SWAP1 PUSH2 0x1089 JUMP JUMPDEST SWAP3 POP POP DUP2 SWAP1 SSTORE POP POP POP JUMP JUMPDEST PUSH0 PUSH20 0xFFFFFFFFFFFFFFFFFFFFFFFFFFFFFFFFFFFFFFFF DUP3 AND SWAP1 POP SWAP2 SWAP1 POP JUMP JUMPDEST PUSH0 DUP2 SWAP1 POP SWAP2 SWAP1 POP JUMP JUMPDEST PUSH0 PUSH2 0xC84 PUSH2 0xC7F PUSH2 0xC7A DUP5 PUSH2 0xC42 JUMP JUMPDEST PUSH2 0xC61 JUMP JUMPDEST PUSH2 0xC42 JUMP JUMPDEST SWAP1 POP SWAP2 SWAP1 POP JUMP JUMPDEST PUSH0 PUSH2 0xC95 DUP3 PUSH2 0xC6A JUMP JUMPDEST SWAP1 POP SWAP2 SWAP1 POP JUMP JUMPDEST PUSH0 PUSH2 0xCA6 DUP3 PUSH2 0xC8B JUMP JUMPDEST SWAP1 POP SWAP2 SWAP1 POP JUMP JUMPDEST PUSH2 0xCB6 DUP2 PUSH2 0xC9C JUMP JUMPDEST DUP3 MSTORE POP POP JUMP JUMPDEST PUSH0 PUSH1 0x20 DUP3 ADD SWAP1 POP PUSH2 0xCCF PUSH0 DUP4 ADD DUP5 PUSH2 0xCAD JUMP JUMPDEST SWAP3 SWAP2 POP POP JUMP JUMPDEST PUSH0 DUP2 SWAP1 POP SWAP2 SWAP1 POP JUMP JUMPDEST PUSH2 0xCE7 DUP2 PUSH2 0xCD5 JUMP JUMPDEST DUP3 MSTORE POP POP JUMP JUMPDEST PUSH0 PUSH1 0x20 DUP3 ADD SWAP1 POP PUSH2 0xD00 PUSH0 DUP4 ADD DUP5 PUSH2 0xCDE JUMP JUMPDEST SWAP3 SWAP2 POP POP JUMP JUMPDEST PUSH0 DUP1 REVERT JUMPDEST PUSH0 PUSH2 0xD14 DUP3 PUSH2 0xC42 JUMP JUMPDEST SWAP1 POP SWAP2 SWAP1 POP JUMP JUMPDEST PUSH2 0xD24 DUP2 PUSH2 0xD0A JUMP JUMPDEST DUP2 EQ PUSH2 0xD2E JUMPI PUSH0 DUP1 REVERT JUMPDEST POP JUMP JUMPDEST PUSH0 DUP2 CALLDATALOAD SWAP1 POP PUSH2 0xD3F DUP2 PUSH2 0xD1B JUMP JUMPDEST SWAP3 SWAP2 POP POP JUMP JUMPDEST PUSH0 PUSH1 0x20 DUP3 DUP5 SUB SLT ISZERO PUSH2 0xD5A JUMPI PUSH2 0xD59 PUSH2 0xD06 JUMP JUMPDEST JUMPDEST PUSH0 PUSH2 0xD67 DUP5 DUP3 DUP6 ADD PUSH2 0xD31 JUMP JUMPDEST SWAP2 POP POP SWAP3 SWAP2 POP POP JUMP JUMPDEST PUSH2 0xD79 DUP2 PUSH2 0xCD5 JUMP JUMPDEST DUP2 EQ PUSH2 0xD83 JUMPI PUSH0 DUP1 REVERT JUMPDEST POP JUMP JUMPDEST PUSH0 DUP2 CALLDATALOAD SWAP1 POP PUSH2 0xD94 DUP2 PUSH2 0xD70 JUMP JUMPDEST SWAP3 SWAP2 POP POP JUMP JUMPDEST PUSH0 PUSH1 0x20 DUP3 DUP5 SUB SLT ISZERO PUSH2 0xDAF JUMPI PUSH2 0xDAE PUSH2 0xD06 JUMP JUMPDEST JUMPDEST PUSH0 PUSH2 0xDBC DUP5 DUP3 DUP6 ADD PUSH2 0xD86 JUMP JUMPDEST SWAP2 POP POP SWAP3 SWAP2 POP POP JUMP JUMPDEST PUSH0 PUSH1 0x40 DUP3 ADD SWAP1 POP PUSH2 0xDD8 PUSH0 DUP4 ADD DUP6 PUSH2 0xCDE JUMP JUMPDEST PUSH2 0xDE5 PUSH1 0x20 DUP4 ADD DUP5 PUSH2 0xCDE JUMP JUMPDEST SWAP4 SWAP3 POP POP POP JUMP JUMPDEST PUSH0 DUP1 PUSH1 0x40 DUP4 DUP6 SUB SLT ISZERO PUSH2 0xE02 JUMPI PUSH2 0xE01 PUSH2 0xD06 JUMP JUMPDEST JUMPDEST PUSH0 PUSH2 0xE0F DUP6 DUP3 DUP7 ADD PUSH2 0xD86 JUMP JUMPDEST SWAP3 POP POP PUSH1 0x20 PUSH2 0xE20 DUP6 DUP3 DUP7 ADD PUSH2 0xD86 JUMP JUMPDEST SWAP2 POP POP SWAP3 POP SWAP3 SWAP1 POP JUMP JUMPDEST PUSH0 DUP1 PUSH1 0x40 DUP4 DUP6 SUB SLT ISZERO PUSH2 0xE40 JUMPI PUSH2 0xE3F PUSH2 0xD06 JUMP JUMPDEST JUMPDEST PUSH0 PUSH2 0xE4D DUP6 DUP3 DUP7 ADD PUSH2 0xD31 JUMP JUMPDEST SWAP3 POP POP PUSH1 0x20 PUSH2 0xE5E DUP6 DUP3 DUP7 ADD PUSH2 0xD86 JUMP JUMPDEST SWAP2 POP POP SWAP3 POP SWAP3 SWAP1 POP JUMP JUMPDEST PUSH32 0x4E487B7100000000000000000000000000000000000000000000000000000000 PUSH0 MSTORE PUSH1 0x11 PUSH1 0x4 MSTORE PUSH1 0x24 PUSH0 REVERT JUMPDEST PUSH0 PUSH2 0xE9F DUP3 PUSH2 0xCD5 JUMP JUMPDEST SWAP2 POP PUSH2 0xEAA DUP4 PUSH2 0xCD5 JUMP JUMPDEST SWAP3 POP DUP3 DUP3 MUL PUSH2 0xEB8 DUP2 PUSH2 0xCD5 JUMP JUMPDEST SWAP2 POP DUP3 DUP3 DIV DUP5 EQ DUP4 ISZERO OR PUSH2 0xECF JUMPI PUSH2 0xECE PUSH2 0xE68 JUMP JUMPDEST JUMPDEST POP SWAP3 SWAP2 POP POP JUMP JUMPDEST PUSH32 0x4E487B7100000000000000000000000000000000000000000000000000000000 PUSH0 MSTORE PUSH1 0x12 PUSH1 0x4 MSTORE PUSH1 0x24 PUSH0 REVERT JUMPDEST PUSH0 PUSH2 0xF0D DUP3 PUSH2 0xCD5 JUMP JUMPDEST SWAP2 POP PUSH2 0xF18 DUP4 PUSH2 0xCD5 JUMP JUMPDEST SWAP3 POP DUP3 PUSH2 0xF28 JUMPI PUSH2 0xF27 PUSH2 0xED6 JUMP JUMPDEST JUMPDEST DUP3 DUP3 DIV SWAP1 POP SWAP3 SWAP2 POP POP JUMP JUMPDEST PUSH0 PUSH2 0xF3D DUP3 PUSH2 0xCD5 JUMP JUMPDEST SWAP2 POP PUSH2 0xF48 DUP4 PUSH2 0xCD5 JUMP JUMPDEST SWAP3 POP DUP3 DUP3 SUB SWAP1 POP DUP2 DUP2 GT ISZERO PUSH2 0xF60 JUMPI PUSH2 0xF5F PUSH2 0xE68 JUMP JUMPDEST JUMPDEST SWAP3 SWAP2 POP POP JUMP JUMPDEST PUSH2 0xF6F DUP2 PUSH2 0xD0A JUMP JUMPDEST DUP3 MSTORE POP POP JUMP JUMPDEST PUSH0 PUSH1 0x40 DUP3 ADD SWAP1 POP PUSH2 0xF88 PUSH0 DUP4 ADD DUP6 PUSH2 0xF66 JUMP JUMPDEST PUSH2 0xF95 PUSH1 0x20 DUP4 ADD DUP5 PUSH2 0xCDE JUMP JUMPDEST SWAP4 SWAP3 POP POP POP JUMP JUMPDEST PUSH0 DUP2 ISZERO ISZERO SWAP1 POP SWAP2 SWAP1 POP JUMP JUMPDEST PUSH2 0xFB0 DUP2 PUSH2 0xF9C JUMP JUMPDEST DUP2 EQ PUSH2 0xFBA JUMPI PUSH0 DUP1 REVERT JUMPDEST POP JUMP JUMPDEST PUSH0 DUP2 MLOAD SWAP1 POP PUSH2 0xFCB DUP2 PUSH2 0xFA7 JUMP JUMPDEST SWAP3 SWAP2 POP POP JUMP JUMPDEST PUSH0 PUSH1 0x20 DUP3 DUP5 SUB SLT ISZERO PUSH2 0xFE6 JUMPI PUSH2 0xFE5 PUSH2 0xD06 JUMP JUMPDEST JUMPDEST PUSH0 PUSH2 0xFF3 DUP5 DUP3 DUP6 ADD PUSH2 0xFBD JUMP JUMPDEST SWAP2 POP POP SWAP3 SWAP2 POP POP JUMP JUMPDEST PUSH0 PUSH1 0x60 DUP3 ADD SWAP1 POP PUSH2 0x100F PUSH0 DUP4 ADD DUP7 PUSH2 0xF66 JUMP JUMPDEST PUSH2 0x101C PUSH1 0x20 DUP4 ADD DUP6 PUSH2 0xF66 JUMP JUMPDEST PUSH2 0x1029 PUSH1 0x40 DUP4 ADD DUP5 PUSH2 0xCDE JUMP JUMPDEST SWAP5 SWAP4 POP POP POP POP JUMP JUMPDEST PUSH0 PUSH1 0x20 DUP3 ADD SWAP1 POP PUSH2 0x1044 PUSH0 DUP4 ADD DUP5 PUSH2 0xF66 JUMP JUMPDEST SWAP3 SWAP2 POP POP JUMP JUMPDEST PUSH0 DUP2 MLOAD SWAP1 POP PUSH2 0x1058 DUP2 PUSH2 0xD70 JUMP JUMPDEST SWAP3 SWAP2 POP POP JUMP JUMPDEST PUSH0 PUSH1 0x20 DUP3 DUP5 SUB SLT ISZERO PUSH2 0x1073 JUMPI PUSH2 0x1072 PUSH2 0xD06 JUMP JUMPDEST JUMPDEST PUSH0 PUSH2 0x1080 DUP5 DUP3 DUP6 ADD PUSH2 0x104A JUMP JUMPDEST SWAP2 POP POP SWAP3 SWAP2 POP POP JUMP JUMPDEST PUSH0 PUSH2 0x1093 DUP3 PUSH2 0xCD5 JUMP JUMPDEST SWAP2 POP PUSH2 0x109E DUP4 PUSH2 0xCD5 JUMP JUMPDEST SWAP3 POP DUP3 DUP3 ADD SWAP1 POP DUP1 DUP3 GT ISZERO PUSH2 0x10B6 JUMPI PUSH2 0x10B5 PUSH2 0xE68 JUMP JUMPDEST JUMPDEST SWAP3 SWAP2 POP POP JUMP JUMPDEST PUSH0 DUP3 DUP3 MSTORE PUSH1 0x20 DUP3 ADD SWAP1 POP SWAP3 SWAP2 POP POP JUMP JUMPDEST PUSH32 0x556E61626C6520746F206D696E74000000000000000000000000000000000000 PUSH0 DUP3 ADD MSTORE POP JUMP JUMPDEST PUSH0 PUSH2 0x1100 PUSH1 0xE DUP4 PUSH2 0x10BC JUMP JUMPDEST SWAP2 POP PUSH2 0x110B DUP3 PUSH2 0x10CC JUMP JUMPDEST PUSH1 0x20 DUP3 ADD SWAP1 POP SWAP2 SWAP1 POP JUMP JUMPDEST PUSH0 PUSH1 0x20 DUP3 ADD SWAP1 POP DUP2 DUP2 SUB PUSH0 DUP4 ADD MSTORE PUSH2 0x112D DUP2 PUSH2 0x10F4 JUMP JUMPDEST SWAP1 POP SWAP2 SWAP1 POP JUMP JUMPDEST PUSH32 0x57726F6E6720546F6B656E000000000000000000000000000000000000000000 PUSH0 DUP3 ADD MSTORE POP JUMP JUMPDEST PUSH0 PUSH2 0x1168 PUSH1 0xB DUP4 PUSH2 0x10BC JUMP JUMPDEST SWAP2 POP PUSH2 0x1173 DUP3 PUSH2 0x1134 JUMP JUMPDEST PUSH1 0x20 DUP3 ADD SWAP1 POP SWAP2 SWAP1 POP JUMP JUMPDEST PUSH0 PUSH1 0x20 DUP3 ADD SWAP1 POP DUP2 DUP2 SUB PUSH0 DUP4 ADD MSTORE PUSH2 0x1195 DUP2 PUSH2 0x115C JUMP JUMPDEST SWAP1 POP SWAP2 SWAP1 POP JUMP INVALID LOG2 PUSH5 0x6970667358 0x22 SLT KECCAK256 DUP9 0xC4 0xB9 0xF6 0xE2 0xE0 0x25 LOG0 0xA7 PUSH2 0x1D76 DUP2 0x24 KECCAK256 0xC5 PUSH8 0x8FB1CD361770620E RETURNDATASIZE PUSH1 0xDF 0x28 0x24 NOT PUSH24 0x64736F6C634300081A003300000000000000000000000000 "
				},
				"gasEstimates": {
					"creation": {
						"codeDepositCost": "912400",
						"executionCost": "infinite",
						"totalCost": "infinite"
					},
					"external": {
						"addLiquidity(uint256,uint256)": "infinite",
						"balanceOf(address)": "2802",
						"removeLiquidity(uint256)": "infinite",
						"reserve0()": "2469",
						"reserve1()": "2492",
						"swap(address,uint256)": "infinite",
						"token0()": "infinite",
						"token1()": "infinite",
						"totalSupply()": "2448"
					},
					"internal": {
						"_burn(address,uint256)": "infinite",
						"_mint(address,uint256)": "infinite",
						"_update(uint256,uint256)": "44240"
					}
				},
				"methodIdentifiers": {
					"addLiquidity(uint256,uint256)": "9cd441da",
					"balanceOf(address)": "70a08231",
					"removeLiquidity(uint256)": "9c8f9f23",
					"reserve0()": "443cb4bc",
					"reserve1()": "5a76f25e",
					"swap(address,uint256)": "d004f0f7",
					"token0()": "0dfe1681",
					"token1()": "d21220a7",
					"totalSupply()": "18160ddd"
				}
			},
			"storageLayout": {
				"storage": [
					{
						"astId": 796,
						"contract": "CSAMM.sol:CSAMM",
						"label": "reserve0",
						"offset": 0,
						"slot": "0",
						"type": "t_uint256"
					},
					{
						"astId": 798,
						"contract": "CSAMM.sol:CSAMM",
						"label": "reserve1",
						"offset": 0,
						"slot": "1",
						"type": "t_uint256"
					},
					{
						"astId": 800,
						"contract": "CSAMM.sol:CSAMM",
						"label": "totalSupply",
						"offset": 0,
						"slot": "2",
						"type": "t_uint256"
					},
					{
						"astId": 804,
						"contract": "CSAMM.sol:CSAMM",
						"label": "balanceOf",
						"offset": 0,
						"slot": "3",
						"type": "t_mapping(t_address,t_uint256)"
					}
				],
				"types": {
					"t_address": {
						"encoding": "inplace",
						"label": "address",
						"numberOfBytes": "20"
					},
					"t_mapping(t_address,t_uint256)": {
						"encoding": "mapping",
						"key": "t_address",
						"label": "mapping(address => uint256)",
						"numberOfBytes": "32",
						"value": "t_uint256"
					},
					"t_uint256": {
						"encoding": "inplace",
						"label": "uint256",
						"numberOfBytes": "32"
					}
				}
			},
			"userdoc": {
				"kind": "user",
				"methods": {},
				"version": 1
			}
		}
	}
}