{
	"MyNft.sol": {
		"DutchAuction": {
			"abi": [
				{
					"inputs": [
						{
							"internalType": "uint256",
							"name": "_startPrice",
							"type": "uint256"
						},
						{
							"internalType": "uint256",
							"name": "_cutRate",
							"type": "uint256"
						},
						{
							"internalType": "address",
							"name": "_nft",
							"type": "address"
						},
						{
							"internalType": "uint256",
							"name": "_nftId",
							"type": "uint256"
						}
					],
					"stateMutability": "nonpayable",
					"type": "constructor"
				},
				{
					"inputs": [],
					"name": "buy",
					"outputs": [],
					"stateMutability": "payable",
					"type": "function"
				},
				{
					"inputs": [],
					"name": "cutRate",
					"outputs": [
						{
							"internalType": "uint256",
							"name": "",
							"type": "uint256"
						}
					],
					"stateMutability": "view",
					"type": "function"
				},
				{
					"inputs": [],
					"name": "endTime",
					"outputs": [
						{
							"internalType": "uint256",
							"name": "",
							"type": "uint256"
						}
					],
					"stateMutability": "view",
					"type": "function"
				},
				{
					"inputs": [],
					"name": "getPrice",
					"outputs": [
						{
							"internalType": "uint256",
							"name": "",
							"type": "uint256"
						}
					],
					"stateMutability": "view",
					"type": "function"
				},
				{
					"inputs": [],
					"name": "nft",
					"outputs": [
						{
							"internalType": "contract IERC721",
							"name": "",
							"type": "address"
						}
					],
					"stateMutability": "view",
					"type": "function"
				},
				{
					"inputs": [],
					"name": "nftId",
					"outputs": [
						{
							"internalType": "uint256",
							"name": "",
							"type": "uint256"
						}
					],
					"stateMutability": "view",
					"type": "function"
				},
				{
					"inputs": [],
					"name": "sellerAddress",
					"outputs": [
						{
							"internalType": "address",
							"name": "",
							"type": "address"
						}
					],
					"stateMutability": "view",
					"type": "function"
				},
				{
					"inputs": [],
					"name": "startPrice",
					"outputs": [
						{
							"internalType": "uint256",
							"name": "",
							"type": "uint256"
						}
					],
					"stateMutability": "view",
					"type": "function"
				},
				{
					"inputs": [],
					"name": "startTime",
					"outputs": [
						{
							"internalType": "uint256",
							"name": "",
							"type": "uint256"
						}
					],
					"stateMutability": "view",
					"type": "function"
				}
			],
			"devdoc": {
				"kind": "dev",
				"methods": {},
				"version": 1
			},
			"evm": {
				"assembly": "    /* \"MyNft.sol\":192:1568  contract DutchAuction{... */\n  mstore(0x40, 0x0160)\n    /* \"MyNft.sol\":545:962  constructor(... */\n  callvalue\n  dup1\n  iszero\n  tag_1\n  jumpi\n  0x00\n  dup1\n  revert\ntag_1:\n  pop\n  mload(0x40)\n  sub(codesize, bytecodeSize)\n  dup1\n  bytecodeSize\n  dup4\n  codecopy\n  dup2\n  dup2\n  add\n  0x40\n  mstore\n  dup2\n  add\n  swap1\n  tag_2\n  swap2\n  swap1\n  tag_3\n  jump\t// in\ntag_2:\n    /* \"MyNft.sol\":691:701  msg.sender */\n  caller\n    /* \"MyNft.sol\":666:702  sellerAddress = payable (msg.sender) */\n  0xffffffffffffffffffffffffffffffffffffffff\n  and\n  0xc0\n  dup2\n  0xffffffffffffffffffffffffffffffffffffffff\n  and\n  dup2\n  mstore\n  pop\n  pop\n    /* \"MyNft.sol\":725:736  _startPrice */\n  dup4\n    /* \"MyNft.sol\":712:736  startPrice = _startPrice */\n  0xe0\n  dup2\n  dup2\n  mstore\n  pop\n  pop\n    /* \"MyNft.sol\":756:764  _cutRate */\n  dup3\n    /* \"MyNft.sol\":746:764  cutRate = _cutRate */\n  0x0140\n  dup2\n  dup2\n  mstore\n  pop\n  pop\n    /* \"MyNft.sol\":786:801  block.timestamp */\n  timestamp\n    /* \"MyNft.sol\":774:801  startTime = block.timestamp */\n  0x0100\n  dup2\n  dup2\n  mstore\n  pop\n  pop\n    /* \"MyNft.sol\":253:259  7 days */\n  0x093a80\n    /* \"MyNft.sol\":821:836  block.timestamp */\n  timestamp\n    /* \"MyNft.sol\":821:847  block.timestamp + DURATION */\n  tag_6\n  swap2\n  swap1\n  tag_7\n  jump\t// in\ntag_6:\n    /* \"MyNft.sol\":811:847  endTime = block.timestamp + DURATION */\n  0x0120\n  dup2\n  dup2\n  mstore\n  pop\n  pop\n    /* \"MyNft.sol\":253:259  7 days */\n  0x093a80\n    /* \"MyNft.sol\":881:889  _cutRate */\n  dup4\n    /* \"MyNft.sol\":881:900  _cutRate * DURATION */\n  tag_8\n  swap2\n  swap1\n  tag_9\n  jump\t// in\ntag_8:\n    /* \"MyNft.sol\":866:877  _startPrice */\n  dup5\n    /* \"MyNft.sol\":866:900  _startPrice >= _cutRate * DURATION */\n  lt\n  iszero\n    /* \"MyNft.sol\":858:901  require(_startPrice >= _cutRate * DURATION) */\n  tag_10\n  jumpi\n  0x00\n  dup1\n  revert\ntag_10:\n    /* \"MyNft.sol\":926:930  _nft */\n  dup2\n    /* \"MyNft.sol\":912:931  nft = IERC721(_nft) */\n  0xffffffffffffffffffffffffffffffffffffffff\n  and\n  0x80\n  dup2\n  0xffffffffffffffffffffffffffffffffffffffff\n  and\n  dup2\n  mstore\n  pop\n  pop\n    /* \"MyNft.sol\":949:955  _nftId */\n  dup1\n    /* \"MyNft.sol\":941:955  nftId = _nftId */\n  0xa0\n  dup2\n  dup2\n  mstore\n  pop\n  pop\n    /* \"MyNft.sol\":545:962  constructor(... */\n  pop\n  pop\n  pop\n  pop\n    /* \"MyNft.sol\":192:1568  contract DutchAuction{... */\n  jump(tag_11)\n    /* \"#utility.yul\":88:205   */\ntag_13:\n    /* \"#utility.yul\":197:198   */\n  0x00\n    /* \"#utility.yul\":194:195   */\n  dup1\n    /* \"#utility.yul\":187:199   */\n  revert\n    /* \"#utility.yul\":334:411   */\ntag_15:\n    /* \"#utility.yul\":371:378   */\n  0x00\n    /* \"#utility.yul\":400:405   */\n  dup2\n    /* \"#utility.yul\":389:405   */\n  swap1\n  pop\n    /* \"#utility.yul\":334:411   */\n  swap2\n  swap1\n  pop\n  jump\t// out\n    /* \"#utility.yul\":417:539   */\ntag_16:\n    /* \"#utility.yul\":490:514   */\n  tag_29\n    /* \"#utility.yul\":508:513   */\n  dup2\n    /* \"#utility.yul\":490:514   */\n  tag_15\n  jump\t// in\ntag_29:\n    /* \"#utility.yul\":483:488   */\n  dup2\n    /* \"#utility.yul\":480:515   */\n  eq\n    /* \"#utility.yul\":470:533   */\n  tag_30\n  jumpi\n    /* \"#utility.yul\":529:530   */\n  0x00\n    /* \"#utility.yul\":526:527   */\n  dup1\n    /* \"#utility.yul\":519:531   */\n  revert\n    /* \"#utility.yul\":470:533   */\ntag_30:\n    /* \"#utility.yul\":417:539   */\n  pop\n  jump\t// out\n    /* \"#utility.yul\":545:688   */\ntag_17:\n    /* \"#utility.yul\":602:607   */\n  0x00\n    /* \"#utility.yul\":633:639   */\n  dup2\n    /* \"#utility.yul\":627:640   */\n  mload\n    /* \"#utility.yul\":618:640   */\n  swap1\n  pop\n    /* \"#utility.yul\":649:682   */\n  tag_32\n    /* \"#utility.yul\":676:681   */\n  dup2\n    /* \"#utility.yul\":649:682   */\n  tag_16\n  jump\t// in\ntag_32:\n    /* \"#utility.yul\":545:688   */\n  swap3\n  swap2\n  pop\n  pop\n  jump\t// out\n    /* \"#utility.yul\":694:820   */\ntag_18:\n    /* \"#utility.yul\":731:738   */\n  0x00\n    /* \"#utility.yul\":771:813   */\n  0xffffffffffffffffffffffffffffffffffffffff\n    /* \"#utility.yul\":764:769   */\n  dup3\n    /* \"#utility.yul\":760:814   */\n  and\n    /* \"#utility.yul\":749:814   */\n  swap1\n  pop\n    /* \"#utility.yul\":694:820   */\n  swap2\n  swap1\n  pop\n  jump\t// out\n    /* \"#utility.yul\":826:922   */\ntag_19:\n    /* \"#utility.yul\":863:870   */\n  0x00\n    /* \"#utility.yul\":892:916   */\n  tag_35\n    /* \"#utility.yul\":910:915   */\n  dup3\n    /* \"#utility.yul\":892:916   */\n  tag_18\n  jump\t// in\ntag_35:\n    /* \"#utility.yul\":881:916   */\n  swap1\n  pop\n    /* \"#utility.yul\":826:922   */\n  swap2\n  swap1\n  pop\n  jump\t// out\n    /* \"#utility.yul\":928:1050   */\ntag_20:\n    /* \"#utility.yul\":1001:1025   */\n  tag_37\n    /* \"#utility.yul\":1019:1024   */\n  dup2\n    /* \"#utility.yul\":1001:1025   */\n  tag_19\n  jump\t// in\ntag_37:\n    /* \"#utility.yul\":994:999   */\n  dup2\n    /* \"#utility.yul\":991:1026   */\n  eq\n    /* \"#utility.yul\":981:1044   */\n  tag_38\n  jumpi\n    /* \"#utility.yul\":1040:1041   */\n  0x00\n    /* \"#utility.yul\":1037:1038   */\n  dup1\n    /* \"#utility.yul\":1030:1042   */\n  revert\n    /* \"#utility.yul\":981:1044   */\ntag_38:\n    /* \"#utility.yul\":928:1050   */\n  pop\n  jump\t// out\n    /* \"#utility.yul\":1056:1199   */\ntag_21:\n    /* \"#utility.yul\":1113:1118   */\n  0x00\n    /* \"#utility.yul\":1144:1150   */\n  dup2\n    /* \"#utility.yul\":1138:1151   */\n  mload\n    /* \"#utility.yul\":1129:1151   */\n  swap1\n  pop\n    /* \"#utility.yul\":1160:1193   */\n  tag_40\n    /* \"#utility.yul\":1187:1192   */\n  dup2\n    /* \"#utility.yul\":1160:1193   */\n  tag_20\n  jump\t// in\ntag_40:\n    /* \"#utility.yul\":1056:1199   */\n  swap3\n  swap2\n  pop\n  pop\n  jump\t// out\n    /* \"#utility.yul\":1205:2025   */\ntag_3:\n    /* \"#utility.yul\":1302:1308   */\n  0x00\n    /* \"#utility.yul\":1310:1316   */\n  dup1\n    /* \"#utility.yul\":1318:1324   */\n  0x00\n    /* \"#utility.yul\":1326:1332   */\n  dup1\n    /* \"#utility.yul\":1375:1378   */\n  0x80\n    /* \"#utility.yul\":1363:1372   */\n  dup6\n    /* \"#utility.yul\":1354:1361   */\n  dup8\n    /* \"#utility.yul\":1350:1373   */\n  sub\n    /* \"#utility.yul\":1346:1379   */\n  slt\n    /* \"#utility.yul\":1343:1463   */\n  iszero\n  tag_42\n  jumpi\n    /* \"#utility.yul\":1382:1461   */\n  tag_43\n  tag_13\n  jump\t// in\ntag_43:\n    /* \"#utility.yul\":1343:1463   */\ntag_42:\n    /* \"#utility.yul\":1502:1503   */\n  0x00\n    /* \"#utility.yul\":1527:1591   */\n  tag_44\n    /* \"#utility.yul\":1583:1590   */\n  dup8\n    /* \"#utility.yul\":1574:1580   */\n  dup3\n    /* \"#utility.yul\":1563:1572   */\n  dup9\n    /* \"#utility.yul\":1559:1581   */\n  add\n    /* \"#utility.yul\":1527:1591   */\n  tag_17\n  jump\t// in\ntag_44:\n    /* \"#utility.yul\":1517:1591   */\n  swap5\n  pop\n    /* \"#utility.yul\":1473:1601   */\n  pop\n    /* \"#utility.yul\":1640:1642   */\n  0x20\n    /* \"#utility.yul\":1666:1730   */\n  tag_45\n    /* \"#utility.yul\":1722:1729   */\n  dup8\n    /* \"#utility.yul\":1713:1719   */\n  dup3\n    /* \"#utility.yul\":1702:1711   */\n  dup9\n    /* \"#utility.yul\":1698:1720   */\n  add\n    /* \"#utility.yul\":1666:1730   */\n  tag_17\n  jump\t// in\ntag_45:\n    /* \"#utility.yul\":1656:1730   */\n  swap4\n  pop\n    /* \"#utility.yul\":1611:1740   */\n  pop\n    /* \"#utility.yul\":1779:1781   */\n  0x40\n    /* \"#utility.yul\":1805:1869   */\n  tag_46\n    /* \"#utility.yul\":1861:1868   */\n  dup8\n    /* \"#utility.yul\":1852:1858   */\n  dup3\n    /* \"#utility.yul\":1841:1850   */\n  dup9\n    /* \"#utility.yul\":1837:1859   */\n  add\n    /* \"#utility.yul\":1805:1869   */\n  tag_21\n  jump\t// in\ntag_46:\n    /* \"#utility.yul\":1795:1869   */\n  swap3\n  pop\n    /* \"#utility.yul\":1750:1879   */\n  pop\n    /* \"#utility.yul\":1918:1920   */\n  0x60\n    /* \"#utility.yul\":1944:2008   */\n  tag_47\n    /* \"#utility.yul\":2000:2007   */\n  dup8\n    /* \"#utility.yul\":1991:1997   */\n  dup3\n    /* \"#utility.yul\":1980:1989   */\n  dup9\n    /* \"#utility.yul\":1976:1998   */\n  add\n    /* \"#utility.yul\":1944:2008   */\n  tag_17\n  jump\t// in\ntag_47:\n    /* \"#utility.yul\":1934:2008   */\n  swap2\n  pop\n    /* \"#utility.yul\":1889:2018   */\n  pop\n    /* \"#utility.yul\":1205:2025   */\n  swap3\n  swap6\n  swap2\n  swap5\n  pop\n  swap3\n  pop\n  jump\t// out\n    /* \"#utility.yul\":2031:2211   */\ntag_22:\n    /* \"#utility.yul\":2079:2156   */\n  0x4e487b7100000000000000000000000000000000000000000000000000000000\n    /* \"#utility.yul\":2076:2077   */\n  0x00\n    /* \"#utility.yul\":2069:2157   */\n  mstore\n    /* \"#utility.yul\":2176:2180   */\n  0x11\n    /* \"#utility.yul\":2173:2174   */\n  0x04\n    /* \"#utility.yul\":2166:2181   */\n  mstore\n    /* \"#utility.yul\":2200:2204   */\n  0x24\n    /* \"#utility.yul\":2197:2198   */\n  0x00\n    /* \"#utility.yul\":2190:2205   */\n  revert\n    /* \"#utility.yul\":2217:2408   */\ntag_7:\n    /* \"#utility.yul\":2257:2260   */\n  0x00\n    /* \"#utility.yul\":2276:2296   */\n  tag_50\n    /* \"#utility.yul\":2294:2295   */\n  dup3\n    /* \"#utility.yul\":2276:2296   */\n  tag_15\n  jump\t// in\ntag_50:\n    /* \"#utility.yul\":2271:2296   */\n  swap2\n  pop\n    /* \"#utility.yul\":2310:2330   */\n  tag_51\n    /* \"#utility.yul\":2328:2329   */\n  dup4\n    /* \"#utility.yul\":2310:2330   */\n  tag_15\n  jump\t// in\ntag_51:\n    /* \"#utility.yul\":2305:2330   */\n  swap3\n  pop\n    /* \"#utility.yul\":2353:2354   */\n  dup3\n    /* \"#utility.yul\":2350:2351   */\n  dup3\n    /* \"#utility.yul\":2346:2355   */\n  add\n    /* \"#utility.yul\":2339:2355   */\n  swap1\n  pop\n    /* \"#utility.yul\":2374:2377   */\n  dup1\n    /* \"#utility.yul\":2371:2372   */\n  dup3\n    /* \"#utility.yul\":2368:2378   */\n  gt\n    /* \"#utility.yul\":2365:2401   */\n  iszero\n  tag_52\n  jumpi\n    /* \"#utility.yul\":2381:2399   */\n  tag_53\n  tag_22\n  jump\t// in\ntag_53:\n    /* \"#utility.yul\":2365:2401   */\ntag_52:\n    /* \"#utility.yul\":2217:2408   */\n  swap3\n  swap2\n  pop\n  pop\n  jump\t// out\n    /* \"#utility.yul\":2414:2824   */\ntag_9:\n    /* \"#utility.yul\":2454:2461   */\n  0x00\n    /* \"#utility.yul\":2477:2497   */\n  tag_55\n    /* \"#utility.yul\":2495:2496   */\n  dup3\n    /* \"#utility.yul\":2477:2497   */\n  tag_15\n  jump\t// in\ntag_55:\n    /* \"#utility.yul\":2472:2497   */\n  swap2\n  pop\n    /* \"#utility.yul\":2511:2531   */\n  tag_56\n    /* \"#utility.yul\":2529:2530   */\n  dup4\n    /* \"#utility.yul\":2511:2531   */\n  tag_15\n  jump\t// in\ntag_56:\n    /* \"#utility.yul\":2506:2531   */\n  swap3\n  pop\n    /* \"#utility.yul\":2566:2567   */\n  dup3\n    /* \"#utility.yul\":2563:2564   */\n  dup3\n    /* \"#utility.yul\":2559:2568   */\n  mul\n    /* \"#utility.yul\":2588:2618   */\n  tag_57\n    /* \"#utility.yul\":2606:2617   */\n  dup2\n    /* \"#utility.yul\":2588:2618   */\n  tag_15\n  jump\t// in\ntag_57:\n    /* \"#utility.yul\":2577:2618   */\n  swap2\n  pop\n    /* \"#utility.yul\":2767:2768   */\n  dup3\n    /* \"#utility.yul\":2758:2765   */\n  dup3\n    /* \"#utility.yul\":2754:2769   */\n  div\n    /* \"#utility.yul\":2751:2752   */\n  dup5\n    /* \"#utility.yul\":2748:2770   */\n  eq\n    /* \"#utility.yul\":2728:2729   */\n  dup4\n    /* \"#utility.yul\":2721:2730   */\n  iszero\n    /* \"#utility.yul\":2701:2784   */\n  or\n    /* \"#utility.yul\":2678:2817   */\n  tag_58\n  jumpi\n    /* \"#utility.yul\":2797:2815   */\n  tag_59\n  tag_22\n  jump\t// in\ntag_59:\n    /* \"#utility.yul\":2678:2817   */\ntag_58:\n    /* \"#utility.yul\":2462:2824   */\n  pop\n    /* \"#utility.yul\":2414:2824   */\n  swap3\n  swap2\n  pop\n  pop\n  jump\t// out\n    /* \"MyNft.sol\":192:1568  contract DutchAuction{... */\ntag_11:\n  mload(0x80)\n  mload(0xa0)\n  mload(0xc0)\n  mload(0xe0)\n  mload(0x0100)\n  mload(0x0120)\n  mload(0x0140)\n  codecopy(0x00, dataOffset(sub_0), dataSize(sub_0))\n  0x00\n  assignImmutable(\"0x7749cc8014201da2069c21d93ba99c584b6f62d393fde534ed47eac227e31561\")\n  0x00\n  assignImmutable(\"0x58a280f74f57bf051c40f060139dc747e015be52f68c57e2c4ab2e4bd4146f43\")\n  0x00\n  assignImmutable(\"0x81e080ffc23e8b8d44dd829bc823229e92b893eb1d8f624419d3f5682eb97fc3\")\n  0x00\n  assignImmutable(\"0x1572b593c53d839d80004aa4b8c51211864104f06ace9e22be9c4365b50655ea\")\n  0x00\n  assignImmutable(\"0xf4c2b5de886427473655d4c904c743576dc2d53249b7535d96c06cc97ae7216b\")\n  0x00\n  assignImmutable(\"0x939eb54753ed0cc7e2272bfb34cbe098308c93936ed54d79078f76ade0b2e789\")\n  0x00\n  assignImmutable(\"0x8e8fab5f003314da8d1873ea7720e8d9f47650136d916064d1edb8a11d682624\")\n  return(0x00, dataSize(sub_0))\nstop\n\nsub_0: assembly {\n        /* \"MyNft.sol\":192:1568  contract DutchAuction{... */\n      mstore(0x40, 0x80)\n      jumpi(tag_1, lt(calldatasize, 0x04))\n      shr(0xe0, calldataload(0x00))\n      dup1\n      0x98d5fdca\n      gt\n      tag_11\n      jumpi\n      dup1\n      0x98d5fdca\n      eq\n      tag_6\n      jumpi\n      dup1\n      0xa62e80fc\n      eq\n      tag_7\n      jumpi\n      dup1\n      0xa6f2ae3a\n      eq\n      tag_8\n      jumpi\n      dup1\n      0xc6bc5182\n      eq\n      tag_9\n      jumpi\n      dup1\n      0xf1a9af89\n      eq\n      tag_10\n      jumpi\n      jump(tag_1)\n    tag_11:\n      dup1\n      0x3197cbb6\n      eq\n      tag_2\n      jumpi\n      dup1\n      0x3d9b2ae6\n      eq\n      tag_3\n      jumpi\n      dup1\n      0x47ccca02\n      eq\n      tag_4\n      jumpi\n      dup1\n      0x78e97925\n      eq\n      tag_5\n      jumpi\n    tag_1:\n      0x00\n      dup1\n      revert\n        /* \"MyNft.sol\":474:503  uint public immutable endTime */\n    tag_2:\n      callvalue\n      dup1\n      iszero\n      tag_12\n      jumpi\n      0x00\n      dup1\n      revert\n    tag_12:\n      pop\n      tag_13\n      tag_14\n      jump\t// in\n    tag_13:\n      mload(0x40)\n      tag_15\n      swap2\n      swap1\n      tag_16\n      jump\t// in\n    tag_15:\n      mload(0x40)\n      dup1\n      swap2\n      sub\n      swap1\n      return\n        /* \"MyNft.sol\":353:392  address public  immutable sellerAddress */\n    tag_3:\n      callvalue\n      dup1\n      iszero\n      tag_17\n      jumpi\n      0x00\n      dup1\n      revert\n    tag_17:\n      pop\n      tag_18\n      tag_19\n      jump\t// in\n    tag_18:\n      mload(0x40)\n      tag_20\n      swap2\n      swap1\n      tag_21\n      jump\t// in\n    tag_20:\n      mload(0x40)\n      dup1\n      swap2\n      sub\n      swap1\n      return\n        /* \"MyNft.sol\":265:293  IERC721 public immutable nft */\n    tag_4:\n      callvalue\n      dup1\n      iszero\n      tag_22\n      jumpi\n      0x00\n      dup1\n      revert\n    tag_22:\n      pop\n      tag_23\n      tag_24\n      jump\t// in\n    tag_23:\n      mload(0x40)\n      tag_25\n      swap2\n      swap1\n      tag_26\n      jump\t// in\n    tag_25:\n      mload(0x40)\n      dup1\n      swap2\n      sub\n      swap1\n      return\n        /* \"MyNft.sol\":437:468  uint public immutable startTime */\n    tag_5:\n      callvalue\n      dup1\n      iszero\n      tag_27\n      jumpi\n      0x00\n      dup1\n      revert\n    tag_27:\n      pop\n      tag_28\n      tag_29\n      jump\t// in\n    tag_28:\n      mload(0x40)\n      tag_30\n      swap2\n      swap1\n      tag_16\n      jump\t// in\n    tag_30:\n      mload(0x40)\n      dup1\n      swap2\n      sub\n      swap1\n      return\n        /* \"MyNft.sol\":968:1181  function getPrice() public view returns (uint){... */\n    tag_6:\n      callvalue\n      dup1\n      iszero\n      tag_31\n      jumpi\n      0x00\n      dup1\n      revert\n    tag_31:\n      pop\n      tag_32\n      tag_33\n      jump\t// in\n    tag_32:\n      mload(0x40)\n      tag_34\n      swap2\n      swap1\n      tag_16\n      jump\t// in\n    tag_34:\n      mload(0x40)\n      dup1\n      swap2\n      sub\n      swap1\n      return\n        /* \"MyNft.sol\":509:538  uint public immutable cutRate */\n    tag_7:\n      callvalue\n      dup1\n      iszero\n      tag_35\n      jumpi\n      0x00\n      dup1\n      revert\n    tag_35:\n      pop\n      tag_36\n      tag_37\n      jump\t// in\n    tag_36:\n      mload(0x40)\n      tag_38\n      swap2\n      swap1\n      tag_16\n      jump\t// in\n    tag_38:\n      mload(0x40)\n      dup1\n      swap2\n      sub\n      swap1\n      return\n        /* \"MyNft.sol\":1187:1561  function buy() payable external {... */\n    tag_8:\n      tag_39\n      tag_40\n      jump\t// in\n    tag_39:\n      stop\n        /* \"MyNft.sol\":299:326  uint public immutable nftId */\n    tag_9:\n      callvalue\n      dup1\n      iszero\n      tag_41\n      jumpi\n      0x00\n      dup1\n      revert\n    tag_41:\n      pop\n      tag_42\n      tag_43\n      jump\t// in\n    tag_42:\n      mload(0x40)\n      tag_44\n      swap2\n      swap1\n      tag_16\n      jump\t// in\n    tag_44:\n      mload(0x40)\n      dup1\n      swap2\n      sub\n      swap1\n      return\n        /* \"MyNft.sol\":398:430  uint public immutable startPrice */\n    tag_10:\n      callvalue\n      dup1\n      iszero\n      tag_45\n      jumpi\n      0x00\n      dup1\n      revert\n    tag_45:\n      pop\n      tag_46\n      tag_47\n      jump\t// in\n    tag_46:\n      mload(0x40)\n      tag_48\n      swap2\n      swap1\n      tag_16\n      jump\t// in\n    tag_48:\n      mload(0x40)\n      dup1\n      swap2\n      sub\n      swap1\n      return\n        /* \"MyNft.sol\":474:503  uint public immutable endTime */\n    tag_14:\n      immutable(\"0x58a280f74f57bf051c40f060139dc747e015be52f68c57e2c4ab2e4bd4146f43\")\n      dup2\n      jump\t// out\n        /* \"MyNft.sol\":353:392  address public  immutable sellerAddress */\n    tag_19:\n      immutable(\"0xf4c2b5de886427473655d4c904c743576dc2d53249b7535d96c06cc97ae7216b\")\n      dup2\n      jump\t// out\n        /* \"MyNft.sol\":265:293  IERC721 public immutable nft */\n    tag_24:\n      immutable(\"0x8e8fab5f003314da8d1873ea7720e8d9f47650136d916064d1edb8a11d682624\")\n      dup2\n      jump\t// out\n        /* \"MyNft.sol\":437:468  uint public immutable startTime */\n    tag_29:\n      immutable(\"0x81e080ffc23e8b8d44dd829bc823229e92b893eb1d8f624419d3f5682eb97fc3\")\n      dup2\n      jump\t// out\n        /* \"MyNft.sol\":968:1181  function getPrice() public view returns (uint){... */\n    tag_33:\n        /* \"MyNft.sol\":1009:1013  uint */\n      0x00\n        /* \"MyNft.sol\":1024:1033  uint time */\n      dup1\n        /* \"MyNft.sol\":1054:1063  startTime */\n      immutable(\"0x81e080ffc23e8b8d44dd829bc823229e92b893eb1d8f624419d3f5682eb97fc3\")\n        /* \"MyNft.sol\":1036:1051  block.timestamp */\n      timestamp\n        /* \"MyNft.sol\":1036:1063  block.timestamp - startTime */\n      tag_50\n      swap2\n      swap1\n      tag_51\n      jump\t// in\n    tag_50:\n        /* \"MyNft.sol\":1024:1063  uint time = block.timestamp - startTime */\n      swap1\n      pop\n        /* \"MyNft.sol\":1073:1086  uint cutPrice */\n      0x00\n        /* \"MyNft.sol\":1096:1103  cutRate */\n      immutable(\"0x7749cc8014201da2069c21d93ba99c584b6f62d393fde534ed47eac227e31561\")\n        /* \"MyNft.sol\":1089:1093  time */\n      dup3\n        /* \"MyNft.sol\":1089:1103  time * cutRate */\n      tag_52\n      swap2\n      swap1\n      tag_53\n      jump\t// in\n    tag_52:\n        /* \"MyNft.sol\":1073:1103  uint cutPrice = time * cutRate */\n      swap1\n      pop\n        /* \"MyNft.sol\":1145:1146  0 */\n      0x00\n        /* \"MyNft.sol\":1134:1142  cutPrice */\n      dup2\n        /* \"MyNft.sol\":1121:1131  startPrice */\n      immutable(\"0x1572b593c53d839d80004aa4b8c51211864104f06ace9e22be9c4365b50655ea\")\n        /* \"MyNft.sol\":1121:1142  startPrice - cutPrice */\n      tag_54\n      swap2\n      swap1\n      tag_51\n      jump\t// in\n    tag_54:\n        /* \"MyNft.sol\":1121:1146  startPrice - cutPrice > 0 */\n      gt\n        /* \"MyNft.sol\":1121:1174  startPrice - cutPrice > 0 ? startPrice - cutPrice : 0 */\n      tag_55\n      jumpi\n        /* \"MyNft.sol\":1173:1174  0 */\n      0x00\n        /* \"MyNft.sol\":1121:1174  startPrice - cutPrice > 0 ? startPrice - cutPrice : 0 */\n      jump(tag_56)\n    tag_55:\n        /* \"MyNft.sol\":1162:1170  cutPrice */\n      dup1\n        /* \"MyNft.sol\":1149:1159  startPrice */\n      immutable(\"0x1572b593c53d839d80004aa4b8c51211864104f06ace9e22be9c4365b50655ea\")\n        /* \"MyNft.sol\":1149:1170  startPrice - cutPrice */\n      tag_57\n      swap2\n      swap1\n      tag_51\n      jump\t// in\n    tag_57:\n        /* \"MyNft.sol\":1121:1174  startPrice - cutPrice > 0 ? startPrice - cutPrice : 0 */\n    tag_56:\n        /* \"MyNft.sol\":1113:1174  return  startPrice - cutPrice > 0 ? startPrice - cutPrice : 0 */\n      swap3\n      pop\n      pop\n      pop\n        /* \"MyNft.sol\":968:1181  function getPrice() public view returns (uint){... */\n      swap1\n      jump\t// out\n        /* \"MyNft.sol\":509:538  uint public immutable cutRate */\n    tag_37:\n      immutable(\"0x7749cc8014201da2069c21d93ba99c584b6f62d393fde534ed47eac227e31561\")\n      dup2\n      jump\t// out\n        /* \"MyNft.sol\":1187:1561  function buy() payable external {... */\n    tag_40:\n        /* \"MyNft.sol\":1256:1263  endTime */\n      immutable(\"0x58a280f74f57bf051c40f060139dc747e015be52f68c57e2c4ab2e4bd4146f43\")\n        /* \"MyNft.sol\":1238:1253  block.timestamp */\n      timestamp\n        /* \"MyNft.sol\":1238:1263  block.timestamp < endTime */\n      lt\n        /* \"MyNft.sol\":1230:1276  require(block.timestamp < endTime,\"time last\") */\n      tag_59\n      jumpi\n      mload(0x40)\n      0x08c379a000000000000000000000000000000000000000000000000000000000\n      dup2\n      mstore\n      0x04\n      add\n      tag_60\n      swap1\n      tag_61\n      jump\t// in\n    tag_60:\n      mload(0x40)\n      dup1\n      swap2\n      sub\n      swap1\n      revert\n    tag_59:\n        /* \"MyNft.sol\":1286:1296  uint price */\n      0x00\n        /* \"MyNft.sol\":1299:1309  getPrice() */\n      tag_62\n        /* \"MyNft.sol\":1299:1307  getPrice */\n      tag_33\n        /* \"MyNft.sol\":1299:1309  getPrice() */\n      jump\t// in\n    tag_62:\n        /* \"MyNft.sol\":1286:1309  uint price = getPrice() */\n      swap1\n      pop\n        /* \"MyNft.sol\":1340:1345  price */\n      dup1\n        /* \"MyNft.sol\":1327:1336  msg.value */\n      callvalue\n        /* \"MyNft.sol\":1327:1345  msg.value >= price */\n      lt\n      iszero\n        /* \"MyNft.sol\":1319:1366  require(msg.value >= price, \"Not enough value\") */\n      tag_63\n      jumpi\n      mload(0x40)\n      0x08c379a000000000000000000000000000000000000000000000000000000000\n      dup2\n      mstore\n      0x04\n      add\n      tag_64\n      swap1\n      tag_65\n      jump\t// in\n    tag_64:\n      mload(0x40)\n      dup1\n      swap2\n      sub\n      swap1\n      revert\n    tag_63:\n        /* \"MyNft.sol\":1376:1379  nft */\n      immutable(\"0x8e8fab5f003314da8d1873ea7720e8d9f47650136d916064d1edb8a11d682624\")\n        /* \"MyNft.sol\":1376:1392  nft.transferForm */\n      0xffffffffffffffffffffffffffffffffffffffff\n      and\n      0x3112ae5b\n        /* \"MyNft.sol\":1393:1406  sellerAddress */\n      immutable(\"0xf4c2b5de886427473655d4c904c743576dc2d53249b7535d96c06cc97ae7216b\")\n        /* \"MyNft.sol\":1408:1418  msg.sender */\n      caller\n        /* \"MyNft.sol\":1420:1425  nftId */\n      immutable(\"0x939eb54753ed0cc7e2272bfb34cbe098308c93936ed54d79078f76ade0b2e789\")\n        /* \"MyNft.sol\":1376:1426  nft.transferForm(sellerAddress, msg.sender, nftId) */\n      mload(0x40)\n      dup5\n      0xffffffff\n      and\n      0xe0\n      shl\n      dup2\n      mstore\n      0x04\n      add\n      tag_66\n      swap4\n      swap3\n      swap2\n      swap1\n      tag_67\n      jump\t// in\n    tag_66:\n      0x00\n      mload(0x40)\n      dup1\n      dup4\n      sub\n      dup2\n      0x00\n      dup8\n      dup1\n      extcodesize\n      iszero\n      dup1\n      iszero\n      tag_68\n      jumpi\n      0x00\n      dup1\n      revert\n    tag_68:\n      pop\n      gas\n      call\n      iszero\n      dup1\n      iszero\n      tag_70\n      jumpi\n      returndatasize\n      0x00\n      dup1\n      returndatacopy\n      revert(0x00, returndatasize)\n    tag_70:\n      pop\n      pop\n      pop\n      pop\n        /* \"MyNft.sol\":1437:1448  uint refund */\n      0x00\n        /* \"MyNft.sol\":1463:1468  price */\n      dup2\n        /* \"MyNft.sol\":1451:1460  msg.value */\n      callvalue\n        /* \"MyNft.sol\":1451:1468  msg.value - price */\n      tag_71\n      swap2\n      swap1\n      tag_51\n      jump\t// in\n    tag_71:\n        /* \"MyNft.sol\":1437:1468  uint refund = msg.value - price */\n      swap1\n      pop\n        /* \"MyNft.sol\":1490:1491  0 */\n      0x00\n        /* \"MyNft.sol\":1481:1487  refund */\n      dup2\n        /* \"MyNft.sol\":1481:1491  refund > 0 */\n      gt\n        /* \"MyNft.sol\":1478:1554  if(refund > 0){... */\n      iszero\n      tag_72\n      jumpi\n        /* \"MyNft.sol\":1515:1525  msg.sender */\n      caller\n        /* \"MyNft.sol\":1506:1535  payable (msg.sender).transfer */\n      0xffffffffffffffffffffffffffffffffffffffff\n      and\n        /* \"MyNft.sol\":1506:1543  payable (msg.sender).transfer(refund) */\n      0x08fc\n        /* \"MyNft.sol\":1536:1542  refund */\n      dup3\n        /* \"MyNft.sol\":1506:1543  payable (msg.sender).transfer(refund) */\n      swap1\n      dup2\n      iszero\n      mul\n      swap1\n      mload(0x40)\n      0x00\n      mload(0x40)\n      dup1\n      dup4\n      sub\n      dup2\n      dup6\n      dup9\n      dup9\n      call\n      swap4\n      pop\n      pop\n      pop\n      pop\n      iszero\n      dup1\n      iszero\n      tag_74\n      jumpi\n      returndatasize\n      0x00\n      dup1\n      returndatacopy\n      revert(0x00, returndatasize)\n    tag_74:\n      pop\n        /* \"MyNft.sol\":1478:1554  if(refund > 0){... */\n    tag_72:\n        /* \"MyNft.sol\":1219:1561  {... */\n      pop\n      pop\n        /* \"MyNft.sol\":1187:1561  function buy() payable external {... */\n      jump\t// out\n        /* \"MyNft.sol\":299:326  uint public immutable nftId */\n    tag_43:\n      immutable(\"0x939eb54753ed0cc7e2272bfb34cbe098308c93936ed54d79078f76ade0b2e789\")\n      dup2\n      jump\t// out\n        /* \"MyNft.sol\":398:430  uint public immutable startPrice */\n    tag_47:\n      immutable(\"0x1572b593c53d839d80004aa4b8c51211864104f06ace9e22be9c4365b50655ea\")\n      dup2\n      jump\t// out\n        /* \"#utility.yul\":7:84   */\n    tag_75:\n        /* \"#utility.yul\":44:51   */\n      0x00\n        /* \"#utility.yul\":73:78   */\n      dup2\n        /* \"#utility.yul\":62:78   */\n      swap1\n      pop\n        /* \"#utility.yul\":7:84   */\n      swap2\n      swap1\n      pop\n      jump\t// out\n        /* \"#utility.yul\":90:208   */\n    tag_76:\n        /* \"#utility.yul\":177:201   */\n      tag_94\n        /* \"#utility.yul\":195:200   */\n      dup2\n        /* \"#utility.yul\":177:201   */\n      tag_75\n      jump\t// in\n    tag_94:\n        /* \"#utility.yul\":172:175   */\n      dup3\n        /* \"#utility.yul\":165:202   */\n      mstore\n        /* \"#utility.yul\":90:208   */\n      pop\n      pop\n      jump\t// out\n        /* \"#utility.yul\":214:436   */\n    tag_16:\n        /* \"#utility.yul\":307:311   */\n      0x00\n        /* \"#utility.yul\":345:347   */\n      0x20\n        /* \"#utility.yul\":334:343   */\n      dup3\n        /* \"#utility.yul\":330:348   */\n      add\n        /* \"#utility.yul\":322:348   */\n      swap1\n      pop\n        /* \"#utility.yul\":358:429   */\n      tag_96\n        /* \"#utility.yul\":426:427   */\n      0x00\n        /* \"#utility.yul\":415:424   */\n      dup4\n        /* \"#utility.yul\":411:428   */\n      add\n        /* \"#utility.yul\":402:408   */\n      dup5\n        /* \"#utility.yul\":358:429   */\n      tag_76\n      jump\t// in\n    tag_96:\n        /* \"#utility.yul\":214:436   */\n      swap3\n      swap2\n      pop\n      pop\n      jump\t// out\n        /* \"#utility.yul\":442:568   */\n    tag_77:\n        /* \"#utility.yul\":479:486   */\n      0x00\n        /* \"#utility.yul\":519:561   */\n      0xffffffffffffffffffffffffffffffffffffffff\n        /* \"#utility.yul\":512:517   */\n      dup3\n        /* \"#utility.yul\":508:562   */\n      and\n        /* \"#utility.yul\":497:562   */\n      swap1\n      pop\n        /* \"#utility.yul\":442:568   */\n      swap2\n      swap1\n      pop\n      jump\t// out\n        /* \"#utility.yul\":574:670   */\n    tag_78:\n        /* \"#utility.yul\":611:618   */\n      0x00\n        /* \"#utility.yul\":640:664   */\n      tag_99\n        /* \"#utility.yul\":658:663   */\n      dup3\n        /* \"#utility.yul\":640:664   */\n      tag_77\n      jump\t// in\n    tag_99:\n        /* \"#utility.yul\":629:664   */\n      swap1\n      pop\n        /* \"#utility.yul\":574:670   */\n      swap2\n      swap1\n      pop\n      jump\t// out\n        /* \"#utility.yul\":676:794   */\n    tag_79:\n        /* \"#utility.yul\":763:787   */\n      tag_101\n        /* \"#utility.yul\":781:786   */\n      dup2\n        /* \"#utility.yul\":763:787   */\n      tag_78\n      jump\t// in\n    tag_101:\n        /* \"#utility.yul\":758:761   */\n      dup3\n        /* \"#utility.yul\":751:788   */\n      mstore\n        /* \"#utility.yul\":676:794   */\n      pop\n      pop\n      jump\t// out\n        /* \"#utility.yul\":800:1022   */\n    tag_21:\n        /* \"#utility.yul\":893:897   */\n      0x00\n        /* \"#utility.yul\":931:933   */\n      0x20\n        /* \"#utility.yul\":920:929   */\n      dup3\n        /* \"#utility.yul\":916:934   */\n      add\n        /* \"#utility.yul\":908:934   */\n      swap1\n      pop\n        /* \"#utility.yul\":944:1015   */\n      tag_103\n        /* \"#utility.yul\":1012:1013   */\n      0x00\n        /* \"#utility.yul\":1001:1010   */\n      dup4\n        /* \"#utility.yul\":997:1014   */\n      add\n        /* \"#utility.yul\":988:994   */\n      dup5\n        /* \"#utility.yul\":944:1015   */\n      tag_79\n      jump\t// in\n    tag_103:\n        /* \"#utility.yul\":800:1022   */\n      swap3\n      swap2\n      pop\n      pop\n      jump\t// out\n        /* \"#utility.yul\":1028:1088   */\n    tag_80:\n        /* \"#utility.yul\":1056:1059   */\n      0x00\n        /* \"#utility.yul\":1077:1082   */\n      dup2\n        /* \"#utility.yul\":1070:1082   */\n      swap1\n      pop\n        /* \"#utility.yul\":1028:1088   */\n      swap2\n      swap1\n      pop\n      jump\t// out\n        /* \"#utility.yul\":1094:1236   */\n    tag_81:\n        /* \"#utility.yul\":1144:1153   */\n      0x00\n        /* \"#utility.yul\":1177:1230   */\n      tag_106\n        /* \"#utility.yul\":1195:1229   */\n      tag_107\n        /* \"#utility.yul\":1204:1228   */\n      tag_108\n        /* \"#utility.yul\":1222:1227   */\n      dup5\n        /* \"#utility.yul\":1204:1228   */\n      tag_77\n      jump\t// in\n    tag_108:\n        /* \"#utility.yul\":1195:1229   */\n      tag_80\n      jump\t// in\n    tag_107:\n        /* \"#utility.yul\":1177:1230   */\n      tag_77\n      jump\t// in\n    tag_106:\n        /* \"#utility.yul\":1164:1230   */\n      swap1\n      pop\n        /* \"#utility.yul\":1094:1236   */\n      swap2\n      swap1\n      pop\n      jump\t// out\n        /* \"#utility.yul\":1242:1368   */\n    tag_82:\n        /* \"#utility.yul\":1292:1301   */\n      0x00\n        /* \"#utility.yul\":1325:1362   */\n      tag_110\n        /* \"#utility.yul\":1356:1361   */\n      dup3\n        /* \"#utility.yul\":1325:1362   */\n      tag_81\n      jump\t// in\n    tag_110:\n        /* \"#utility.yul\":1312:1362   */\n      swap1\n      pop\n        /* \"#utility.yul\":1242:1368   */\n      swap2\n      swap1\n      pop\n      jump\t// out\n        /* \"#utility.yul\":1374:1514   */\n    tag_83:\n        /* \"#utility.yul\":1438:1447   */\n      0x00\n        /* \"#utility.yul\":1471:1508   */\n      tag_112\n        /* \"#utility.yul\":1502:1507   */\n      dup3\n        /* \"#utility.yul\":1471:1508   */\n      tag_82\n      jump\t// in\n    tag_112:\n        /* \"#utility.yul\":1458:1508   */\n      swap1\n      pop\n        /* \"#utility.yul\":1374:1514   */\n      swap2\n      swap1\n      pop\n      jump\t// out\n        /* \"#utility.yul\":1520:1679   */\n    tag_84:\n        /* \"#utility.yul\":1621:1672   */\n      tag_114\n        /* \"#utility.yul\":1666:1671   */\n      dup2\n        /* \"#utility.yul\":1621:1672   */\n      tag_83\n      jump\t// in\n    tag_114:\n        /* \"#utility.yul\":1616:1619   */\n      dup3\n        /* \"#utility.yul\":1609:1673   */\n      mstore\n        /* \"#utility.yul\":1520:1679   */\n      pop\n      pop\n      jump\t// out\n        /* \"#utility.yul\":1685:1935   */\n    tag_26:\n        /* \"#utility.yul\":1792:1796   */\n      0x00\n        /* \"#utility.yul\":1830:1832   */\n      0x20\n        /* \"#utility.yul\":1819:1828   */\n      dup3\n        /* \"#utility.yul\":1815:1833   */\n      add\n        /* \"#utility.yul\":1807:1833   */\n      swap1\n      pop\n        /* \"#utility.yul\":1843:1928   */\n      tag_116\n        /* \"#utility.yul\":1925:1926   */\n      0x00\n        /* \"#utility.yul\":1914:1923   */\n      dup4\n        /* \"#utility.yul\":1910:1927   */\n      add\n        /* \"#utility.yul\":1901:1907   */\n      dup5\n        /* \"#utility.yul\":1843:1928   */\n      tag_84\n      jump\t// in\n    tag_116:\n        /* \"#utility.yul\":1685:1935   */\n      swap3\n      swap2\n      pop\n      pop\n      jump\t// out\n        /* \"#utility.yul\":1941:2121   */\n    tag_85:\n        /* \"#utility.yul\":1989:2066   */\n      0x4e487b7100000000000000000000000000000000000000000000000000000000\n        /* \"#utility.yul\":1986:1987   */\n      0x00\n        /* \"#utility.yul\":1979:2067   */\n      mstore\n        /* \"#utility.yul\":2086:2090   */\n      0x11\n        /* \"#utility.yul\":2083:2084   */\n      0x04\n        /* \"#utility.yul\":2076:2091   */\n      mstore\n        /* \"#utility.yul\":2110:2114   */\n      0x24\n        /* \"#utility.yul\":2107:2108   */\n      0x00\n        /* \"#utility.yul\":2100:2115   */\n      revert\n        /* \"#utility.yul\":2127:2321   */\n    tag_51:\n        /* \"#utility.yul\":2167:2171   */\n      0x00\n        /* \"#utility.yul\":2187:2207   */\n      tag_119\n        /* \"#utility.yul\":2205:2206   */\n      dup3\n        /* \"#utility.yul\":2187:2207   */\n      tag_75\n      jump\t// in\n    tag_119:\n        /* \"#utility.yul\":2182:2207   */\n      swap2\n      pop\n        /* \"#utility.yul\":2221:2241   */\n      tag_120\n        /* \"#utility.yul\":2239:2240   */\n      dup4\n        /* \"#utility.yul\":2221:2241   */\n      tag_75\n      jump\t// in\n    tag_120:\n        /* \"#utility.yul\":2216:2241   */\n      swap3\n      pop\n        /* \"#utility.yul\":2265:2266   */\n      dup3\n        /* \"#utility.yul\":2262:2263   */\n      dup3\n        /* \"#utility.yul\":2258:2267   */\n      sub\n        /* \"#utility.yul\":2250:2267   */\n      swap1\n      pop\n        /* \"#utility.yul\":2289:2290   */\n      dup2\n        /* \"#utility.yul\":2283:2287   */\n      dup2\n        /* \"#utility.yul\":2280:2291   */\n      gt\n        /* \"#utility.yul\":2277:2314   */\n      iszero\n      tag_121\n      jumpi\n        /* \"#utility.yul\":2294:2312   */\n      tag_122\n      tag_85\n      jump\t// in\n    tag_122:\n        /* \"#utility.yul\":2277:2314   */\n    tag_121:\n        /* \"#utility.yul\":2127:2321   */\n      swap3\n      swap2\n      pop\n      pop\n      jump\t// out\n        /* \"#utility.yul\":2327:2737   */\n    tag_53:\n        /* \"#utility.yul\":2367:2374   */\n      0x00\n        /* \"#utility.yul\":2390:2410   */\n      tag_124\n        /* \"#utility.yul\":2408:2409   */\n      dup3\n        /* \"#utility.yul\":2390:2410   */\n      tag_75\n      jump\t// in\n    tag_124:\n        /* \"#utility.yul\":2385:2410   */\n      swap2\n      pop\n        /* \"#utility.yul\":2424:2444   */\n      tag_125\n        /* \"#utility.yul\":2442:2443   */\n      dup4\n        /* \"#utility.yul\":2424:2444   */\n      tag_75\n      jump\t// in\n    tag_125:\n        /* \"#utility.yul\":2419:2444   */\n      swap3\n      pop\n        /* \"#utility.yul\":2479:2480   */\n      dup3\n        /* \"#utility.yul\":2476:2477   */\n      dup3\n        /* \"#utility.yul\":2472:2481   */\n      mul\n        /* \"#utility.yul\":2501:2531   */\n      tag_126\n        /* \"#utility.yul\":2519:2530   */\n      dup2\n        /* \"#utility.yul\":2501:2531   */\n      tag_75\n      jump\t// in\n    tag_126:\n        /* \"#utility.yul\":2490:2531   */\n      swap2\n      pop\n        /* \"#utility.yul\":2680:2681   */\n      dup3\n        /* \"#utility.yul\":2671:2678   */\n      dup3\n        /* \"#utility.yul\":2667:2682   */\n      div\n        /* \"#utility.yul\":2664:2665   */\n      dup5\n        /* \"#utility.yul\":2661:2683   */\n      eq\n        /* \"#utility.yul\":2641:2642   */\n      dup4\n        /* \"#utility.yul\":2634:2643   */\n      iszero\n        /* \"#utility.yul\":2614:2697   */\n      or\n        /* \"#utility.yul\":2591:2730   */\n      tag_127\n      jumpi\n        /* \"#utility.yul\":2710:2728   */\n      tag_128\n      tag_85\n      jump\t// in\n    tag_128:\n        /* \"#utility.yul\":2591:2730   */\n    tag_127:\n        /* \"#utility.yul\":2375:2737   */\n      pop\n        /* \"#utility.yul\":2327:2737   */\n      swap3\n      swap2\n      pop\n      pop\n      jump\t// out\n        /* \"#utility.yul\":2743:2912   */\n    tag_86:\n        /* \"#utility.yul\":2827:2838   */\n      0x00\n        /* \"#utility.yul\":2861:2867   */\n      dup3\n        /* \"#utility.yul\":2856:2859   */\n      dup3\n        /* \"#utility.yul\":2849:2868   */\n      mstore\n        /* \"#utility.yul\":2901:2905   */\n      0x20\n        /* \"#utility.yul\":2896:2899   */\n      dup3\n        /* \"#utility.yul\":2892:2906   */\n      add\n        /* \"#utility.yul\":2877:2906   */\n      swap1\n      pop\n        /* \"#utility.yul\":2743:2912   */\n      swap3\n      swap2\n      pop\n      pop\n      jump\t// out\n        /* \"#utility.yul\":2918:3077   */\n    tag_87:\n        /* \"#utility.yul\":3058:3069   */\n      0x74696d65206c6173740000000000000000000000000000000000000000000000\n        /* \"#utility.yul\":3054:3055   */\n      0x00\n        /* \"#utility.yul\":3046:3052   */\n      dup3\n        /* \"#utility.yul\":3042:3056   */\n      add\n        /* \"#utility.yul\":3035:3070   */\n      mstore\n        /* \"#utility.yul\":2918:3077   */\n      pop\n      jump\t// out\n        /* \"#utility.yul\":3083:3448   */\n    tag_88:\n        /* \"#utility.yul\":3225:3228   */\n      0x00\n        /* \"#utility.yul\":3246:3312   */\n      tag_132\n        /* \"#utility.yul\":3310:3311   */\n      0x09\n        /* \"#utility.yul\":3305:3308   */\n      dup4\n        /* \"#utility.yul\":3246:3312   */\n      tag_86\n      jump\t// in\n    tag_132:\n        /* \"#utility.yul\":3239:3312   */\n      swap2\n      pop\n        /* \"#utility.yul\":3321:3414   */\n      tag_133\n        /* \"#utility.yul\":3410:3413   */\n      dup3\n        /* \"#utility.yul\":3321:3414   */\n      tag_87\n      jump\t// in\n    tag_133:\n        /* \"#utility.yul\":3439:3441   */\n      0x20\n        /* \"#utility.yul\":3434:3437   */\n      dup3\n        /* \"#utility.yul\":3430:3442   */\n      add\n        /* \"#utility.yul\":3423:3442   */\n      swap1\n      pop\n        /* \"#utility.yul\":3083:3448   */\n      swap2\n      swap1\n      pop\n      jump\t// out\n        /* \"#utility.yul\":3454:3873   */\n    tag_61:\n        /* \"#utility.yul\":3620:3624   */\n      0x00\n        /* \"#utility.yul\":3658:3660   */\n      0x20\n        /* \"#utility.yul\":3647:3656   */\n      dup3\n        /* \"#utility.yul\":3643:3661   */\n      add\n        /* \"#utility.yul\":3635:3661   */\n      swap1\n      pop\n        /* \"#utility.yul\":3707:3716   */\n      dup2\n        /* \"#utility.yul\":3701:3705   */\n      dup2\n        /* \"#utility.yul\":3697:3717   */\n      sub\n        /* \"#utility.yul\":3693:3694   */\n      0x00\n        /* \"#utility.yul\":3682:3691   */\n      dup4\n        /* \"#utility.yul\":3678:3695   */\n      add\n        /* \"#utility.yul\":3671:3718   */\n      mstore\n        /* \"#utility.yul\":3735:3866   */\n      tag_135\n        /* \"#utility.yul\":3861:3865   */\n      dup2\n        /* \"#utility.yul\":3735:3866   */\n      tag_88\n      jump\t// in\n    tag_135:\n        /* \"#utility.yul\":3727:3866   */\n      swap1\n      pop\n        /* \"#utility.yul\":3454:3873   */\n      swap2\n      swap1\n      pop\n      jump\t// out\n        /* \"#utility.yul\":3879:4045   */\n    tag_89:\n        /* \"#utility.yul\":4019:4037   */\n      0x4e6f7420656e6f7567682076616c756500000000000000000000000000000000\n        /* \"#utility.yul\":4015:4016   */\n      0x00\n        /* \"#utility.yul\":4007:4013   */\n      dup3\n        /* \"#utility.yul\":4003:4017   */\n      add\n        /* \"#utility.yul\":3996:4038   */\n      mstore\n        /* \"#utility.yul\":3879:4045   */\n      pop\n      jump\t// out\n        /* \"#utility.yul\":4051:4417   */\n    tag_90:\n        /* \"#utility.yul\":4193:4196   */\n      0x00\n        /* \"#utility.yul\":4214:4281   */\n      tag_138\n        /* \"#utility.yul\":4278:4280   */\n      0x10\n        /* \"#utility.yul\":4273:4276   */\n      dup4\n        /* \"#utility.yul\":4214:4281   */\n      tag_86\n      jump\t// in\n    tag_138:\n        /* \"#utility.yul\":4207:4281   */\n      swap2\n      pop\n        /* \"#utility.yul\":4290:4383   */\n      tag_139\n        /* \"#utility.yul\":4379:4382   */\n      dup3\n        /* \"#utility.yul\":4290:4383   */\n      tag_89\n      jump\t// in\n    tag_139:\n        /* \"#utility.yul\":4408:4410   */\n      0x20\n        /* \"#utility.yul\":4403:4406   */\n      dup3\n        /* \"#utility.yul\":4399:4411   */\n      add\n        /* \"#utility.yul\":4392:4411   */\n      swap1\n      pop\n        /* \"#utility.yul\":4051:4417   */\n      swap2\n      swap1\n      pop\n      jump\t// out\n        /* \"#utility.yul\":4423:4842   */\n    tag_65:\n        /* \"#utility.yul\":4589:4593   */\n      0x00\n        /* \"#utility.yul\":4627:4629   */\n      0x20\n        /* \"#utility.yul\":4616:4625   */\n      dup3\n        /* \"#utility.yul\":4612:4630   */\n      add\n        /* \"#utility.yul\":4604:4630   */\n      swap1\n      pop\n        /* \"#utility.yul\":4676:4685   */\n      dup2\n        /* \"#utility.yul\":4670:4674   */\n      dup2\n        /* \"#utility.yul\":4666:4686   */\n      sub\n        /* \"#utility.yul\":4662:4663   */\n      0x00\n        /* \"#utility.yul\":4651:4660   */\n      dup4\n        /* \"#utility.yul\":4647:4664   */\n      add\n        /* \"#utility.yul\":4640:4687   */\n      mstore\n        /* \"#utility.yul\":4704:4835   */\n      tag_141\n        /* \"#utility.yul\":4830:4834   */\n      dup2\n        /* \"#utility.yul\":4704:4835   */\n      tag_90\n      jump\t// in\n    tag_141:\n        /* \"#utility.yul\":4696:4835   */\n      swap1\n      pop\n        /* \"#utility.yul\":4423:4842   */\n      swap2\n      swap1\n      pop\n      jump\t// out\n        /* \"#utility.yul\":4848:5290   */\n    tag_67:\n        /* \"#utility.yul\":4997:5001   */\n      0x00\n        /* \"#utility.yul\":5035:5037   */\n      0x60\n        /* \"#utility.yul\":5024:5033   */\n      dup3\n        /* \"#utility.yul\":5020:5038   */\n      add\n        /* \"#utility.yul\":5012:5038   */\n      swap1\n      pop\n        /* \"#utility.yul\":5048:5119   */\n      tag_143\n        /* \"#utility.yul\":5116:5117   */\n      0x00\n        /* \"#utility.yul\":5105:5114   */\n      dup4\n        /* \"#utility.yul\":5101:5118   */\n      add\n        /* \"#utility.yul\":5092:5098   */\n      dup7\n        /* \"#utility.yul\":5048:5119   */\n      tag_79\n      jump\t// in\n    tag_143:\n        /* \"#utility.yul\":5129:5201   */\n      tag_144\n        /* \"#utility.yul\":5197:5199   */\n      0x20\n        /* \"#utility.yul\":5186:5195   */\n      dup4\n        /* \"#utility.yul\":5182:5200   */\n      add\n        /* \"#utility.yul\":5173:5179   */\n      dup6\n        /* \"#utility.yul\":5129:5201   */\n      tag_79\n      jump\t// in\n    tag_144:\n        /* \"#utility.yul\":5211:5283   */\n      tag_145\n        /* \"#utility.yul\":5279:5281   */\n      0x40\n        /* \"#utility.yul\":5268:5277   */\n      dup4\n        /* \"#utility.yul\":5264:5282   */\n      add\n        /* \"#utility.yul\":5255:5261   */\n      dup5\n        /* \"#utility.yul\":5211:5283   */\n      tag_76\n      jump\t// in\n    tag_145:\n        /* \"#utility.yul\":4848:5290   */\n      swap5\n      swap4\n      pop\n      pop\n      pop\n      pop\n      jump\t// out\n\n    auxdata: 0xa264697066735822122020f1e23076d6c0c5fa41e23eb9f3bce2abef987a49333285d71f6352efe6233e64736f6c634300081a0033\n}\n",
				"bytecode": {
					"linkReferences": {},
					"object": "610160604052348015610010575f80fd5b50604051610b82380380610b8283398181016040528101906100329190610187565b3373ffffffffffffffffffffffffffffffffffffffff1660c08173ffffffffffffffffffffffffffffffffffffffff16815250508360e0818152505082610140818152505042610100818152505062093a804261008f9190610218565b610120818152505062093a80836100a6919061024b565b8410156100b1575f80fd5b8173ffffffffffffffffffffffffffffffffffffffff1660808173ffffffffffffffffffffffffffffffffffffffff16815250508060a081815250505050505061028c565b5f80fd5b5f819050919050565b61010c816100fa565b8114610116575f80fd5b50565b5f8151905061012781610103565b92915050565b5f73ffffffffffffffffffffffffffffffffffffffff82169050919050565b5f6101568261012d565b9050919050565b6101668161014c565b8114610170575f80fd5b50565b5f815190506101818161015d565b92915050565b5f805f806080858703121561019f5761019e6100f6565b5b5f6101ac87828801610119565b94505060206101bd87828801610119565b93505060406101ce87828801610173565b92505060606101df87828801610119565b91505092959194509250565b7f4e487b71000000000000000000000000000000000000000000000000000000005f52601160045260245ffd5b5f610222826100fa565b915061022d836100fa565b9250828201905080821115610245576102446101eb565b5b92915050565b5f610255826100fa565b9150610260836100fa565b925082820261026e816100fa565b91508282048414831517610285576102846101eb565b5b5092915050565b60805160a05160c05160e05161010051610120516101405161086d6103155f395f81816102a6015261034001525f81816101e5015261036401525f8181610251015261027701525f81816102d60152818161030d015261056201525f8181610209015261045001525f8181610472015261053e01525f818161022d0152610414015261086d5ff3fe608060405260043610610085575f3560e01c806398d5fdca1161005857806398d5fdca14610131578063a62e80fc1461015b578063a6f2ae3a14610185578063c6bc51821461018f578063f1a9af89146101b957610085565b80633197cbb6146100895780633d9b2ae6146100b357806347ccca02146100dd57806378e9792514610107575b5f80fd5b348015610094575f80fd5b5061009d6101e3565b6040516100aa919061059c565b60405180910390f35b3480156100be575f80fd5b506100c7610207565b6040516100d491906105f4565b60405180910390f35b3480156100e8575f80fd5b506100f161022b565b6040516100fe9190610668565b60405180910390f35b348015610112575f80fd5b5061011b61024f565b604051610128919061059c565b60405180910390f35b34801561013c575f80fd5b50610145610273565b604051610152919061059c565b60405180910390f35b348015610166575f80fd5b5061016f61033e565b60405161017c919061059c565b60405180910390f35b61018d610362565b005b34801561019a575f80fd5b506101a361053c565b6040516101b0919061059c565b60405180910390f35b3480156101c4575f80fd5b506101cd610560565b6040516101da919061059c565b60405180910390f35b7f000000000000000000000000000000000000000000000000000000000000000081565b7f000000000000000000000000000000000000000000000000000000000000000081565b7f000000000000000000000000000000000000000000000000000000000000000081565b7f000000000000000000000000000000000000000000000000000000000000000081565b5f807f0000000000000000000000000000000000000000000000000000000000000000426102a191906106ae565b90505f7f0000000000000000000000000000000000000000000000000000000000000000826102d091906106e1565b90505f817f00000000000000000000000000000000000000000000000000000000000000006102ff91906106ae565b1161030a575f610337565b807f000000000000000000000000000000000000000000000000000000000000000061033691906106ae565b5b9250505090565b7f000000000000000000000000000000000000000000000000000000000000000081565b7f000000000000000000000000000000000000000000000000000000000000000042106103c4576040517f08c379a00000000000000000000000000000000000000000000000000000000081526004016103bb9061077c565b60405180910390fd5b5f6103cd610273565b905080341015610412576040517f08c379a0000000000000000000000000000000000000000000000000000000008152600401610409906107e4565b60405180910390fd5b7f000000000000000000000000000000000000000000000000000000000000000073ffffffffffffffffffffffffffffffffffffffff16633112ae5b7f0000000000000000000000000000000000000000000000000000000000000000337f00000000000000000000000000000000000000000000000000000000000000006040518463ffffffff1660e01b81526004016104af93929190610802565b5f604051808303815f87803b1580156104c6575f80fd5b505af11580156104d8573d5f803e3d5ffd5b505050505f81346104e991906106ae565b90505f811115610538573373ffffffffffffffffffffffffffffffffffffffff166108fc8290811502906040515f60405180830381858888f19350505050158015610536573d5f803e3d5ffd5b505b5050565b7f000000000000000000000000000000000000000000000000000000000000000081565b7f000000000000000000000000000000000000000000000000000000000000000081565b5f819050919050565b61059681610584565b82525050565b5f6020820190506105af5f83018461058d565b92915050565b5f73ffffffffffffffffffffffffffffffffffffffff82169050919050565b5f6105de826105b5565b9050919050565b6105ee816105d4565b82525050565b5f6020820190506106075f8301846105e5565b92915050565b5f819050919050565b5f61063061062b610626846105b5565b61060d565b6105b5565b9050919050565b5f61064182610616565b9050919050565b5f61065282610637565b9050919050565b61066281610648565b82525050565b5f60208201905061067b5f830184610659565b92915050565b7f4e487b71000000000000000000000000000000000000000000000000000000005f52601160045260245ffd5b5f6106b882610584565b91506106c383610584565b92508282039050818111156106db576106da610681565b5b92915050565b5f6106eb82610584565b91506106f683610584565b925082820261070481610584565b9150828204841483151761071b5761071a610681565b5b5092915050565b5f82825260208201905092915050565b7f74696d65206c61737400000000000000000000000000000000000000000000005f82015250565b5f610766600983610722565b915061077182610732565b602082019050919050565b5f6020820190508181035f8301526107938161075a565b9050919050565b7f4e6f7420656e6f7567682076616c7565000000000000000000000000000000005f82015250565b5f6107ce601083610722565b91506107d98261079a565b602082019050919050565b5f6020820190508181035f8301526107fb816107c2565b9050919050565b5f6060820190506108155f8301866105e5565b61082260208301856105e5565b61082f604083018461058d565b94935050505056fea264697066735822122020f1e23076d6c0c5fa41e23eb9f3bce2abef987a49333285d71f6352efe6233e64736f6c634300081a0033",
					"opcodes": "PUSH2 0x160 PUSH1 0x40 MSTORE CALLVALUE DUP1 ISZERO PUSH2 0x10 JUMPI PUSH0 DUP1 REVERT JUMPDEST POP PUSH1 0x40 MLOAD PUSH2 0xB82 CODESIZE SUB DUP1 PUSH2 0xB82 DUP4 CODECOPY DUP2 DUP2 ADD PUSH1 0x40 MSTORE DUP2 ADD SWAP1 PUSH2 0x32 SWAP2 SWAP1 PUSH2 0x187 JUMP JUMPDEST CALLER PUSH20 0xFFFFFFFFFFFFFFFFFFFFFFFFFFFFFFFFFFFFFFFF AND PUSH1 0xC0 DUP2 PUSH20 0xFFFFFFFFFFFFFFFFFFFFFFFFFFFFFFFFFFFFFFFF AND DUP2 MSTORE POP POP DUP4 PUSH1 0xE0 DUP2 DUP2 MSTORE POP POP DUP3 PUSH2 0x140 DUP2 DUP2 MSTORE POP POP TIMESTAMP PUSH2 0x100 DUP2 DUP2 MSTORE POP POP PUSH3 0x93A80 TIMESTAMP PUSH2 0x8F SWAP2 SWAP1 PUSH2 0x218 JUMP JUMPDEST PUSH2 0x120 DUP2 DUP2 MSTORE POP POP PUSH3 0x93A80 DUP4 PUSH2 0xA6 SWAP2 SWAP1 PUSH2 0x24B JUMP JUMPDEST DUP5 LT ISZERO PUSH2 0xB1 JUMPI PUSH0 DUP1 REVERT JUMPDEST DUP2 PUSH20 0xFFFFFFFFFFFFFFFFFFFFFFFFFFFFFFFFFFFFFFFF AND PUSH1 0x80 DUP2 PUSH20 0xFFFFFFFFFFFFFFFFFFFFFFFFFFFFFFFFFFFFFFFF AND DUP2 MSTORE POP POP DUP1 PUSH1 0xA0 DUP2 DUP2 MSTORE POP POP POP POP POP POP PUSH2 0x28C JUMP JUMPDEST PUSH0 DUP1 REVERT JUMPDEST PUSH0 DUP2 SWAP1 POP SWAP2 SWAP1 POP JUMP JUMPDEST PUSH2 0x10C DUP2 PUSH2 0xFA JUMP JUMPDEST DUP2 EQ PUSH2 0x116 JUMPI PUSH0 DUP1 REVERT JUMPDEST POP JUMP JUMPDEST PUSH0 DUP2 MLOAD SWAP1 POP PUSH2 0x127 DUP2 PUSH2 0x103 JUMP JUMPDEST SWAP3 SWAP2 POP POP JUMP JUMPDEST PUSH0 PUSH20 0xFFFFFFFFFFFFFFFFFFFFFFFFFFFFFFFFFFFFFFFF DUP3 AND SWAP1 POP SWAP2 SWAP1 POP JUMP JUMPDEST PUSH0 PUSH2 0x156 DUP3 PUSH2 0x12D JUMP JUMPDEST SWAP1 POP SWAP2 SWAP1 POP JUMP JUMPDEST PUSH2 0x166 DUP2 PUSH2 0x14C JUMP JUMPDEST DUP2 EQ PUSH2 0x170 JUMPI PUSH0 DUP1 REVERT JUMPDEST POP JUMP JUMPDEST PUSH0 DUP2 MLOAD SWAP1 POP PUSH2 0x181 DUP2 PUSH2 0x15D JUMP JUMPDEST SWAP3 SWAP2 POP POP JUMP JUMPDEST PUSH0 DUP1 PUSH0 DUP1 PUSH1 0x80 DUP6 DUP8 SUB SLT ISZERO PUSH2 0x19F JUMPI PUSH2 0x19E PUSH2 0xF6 JUMP JUMPDEST JUMPDEST PUSH0 PUSH2 0x1AC DUP8 DUP3 DUP9 ADD PUSH2 0x119 JUMP JUMPDEST SWAP5 POP POP PUSH1 0x20 PUSH2 0x1BD DUP8 DUP3 DUP9 ADD PUSH2 0x119 JUMP JUMPDEST SWAP4 POP POP PUSH1 0x40 PUSH2 0x1CE DUP8 DUP3 DUP9 ADD PUSH2 0x173 JUMP JUMPDEST SWAP3 POP POP PUSH1 0x60 PUSH2 0x1DF DUP8 DUP3 DUP9 ADD PUSH2 0x119 JUMP JUMPDEST SWAP2 POP POP SWAP3 SWAP6 SWAP2 SWAP5 POP SWAP3 POP JUMP JUMPDEST PUSH32 0x4E487B7100000000000000000000000000000000000000000000000000000000 PUSH0 MSTORE PUSH1 0x11 PUSH1 0x4 MSTORE PUSH1 0x24 PUSH0 REVERT JUMPDEST PUSH0 PUSH2 0x222 DUP3 PUSH2 0xFA JUMP JUMPDEST SWAP2 POP PUSH2 0x22D DUP4 PUSH2 0xFA JUMP JUMPDEST SWAP3 POP DUP3 DUP3 ADD SWAP1 POP DUP1 DUP3 GT ISZERO PUSH2 0x245 JUMPI PUSH2 0x244 PUSH2 0x1EB JUMP JUMPDEST JUMPDEST SWAP3 SWAP2 POP POP JUMP JUMPDEST PUSH0 PUSH2 0x255 DUP3 PUSH2 0xFA JUMP JUMPDEST SWAP2 POP PUSH2 0x260 DUP4 PUSH2 0xFA JUMP JUMPDEST SWAP3 POP DUP3 DUP3 MUL PUSH2 0x26E DUP2 PUSH2 0xFA JUMP JUMPDEST SWAP2 POP DUP3 DUP3 DIV DUP5 EQ DUP4 ISZERO OR PUSH2 0x285 JUMPI PUSH2 0x284 PUSH2 0x1EB JUMP JUMPDEST JUMPDEST POP SWAP3 SWAP2 POP POP JUMP JUMPDEST PUSH1 0x80 MLOAD PUSH1 0xA0 MLOAD PUSH1 0xC0 MLOAD PUSH1 0xE0 MLOAD PUSH2 0x100 MLOAD PUSH2 0x120 MLOAD PUSH2 0x140 MLOAD PUSH2 0x86D PUSH2 0x315 PUSH0 CODECOPY PUSH0 DUP2 DUP2 PUSH2 0x2A6 ADD MSTORE PUSH2 0x340 ADD MSTORE PUSH0 DUP2 DUP2 PUSH2 0x1E5 ADD MSTORE PUSH2 0x364 ADD MSTORE PUSH0 DUP2 DUP2 PUSH2 0x251 ADD MSTORE PUSH2 0x277 ADD MSTORE PUSH0 DUP2 DUP2 PUSH2 0x2D6 ADD MSTORE DUP2 DUP2 PUSH2 0x30D ADD MSTORE PUSH2 0x562 ADD MSTORE PUSH0 DUP2 DUP2 PUSH2 0x209 ADD MSTORE PUSH2 0x450 ADD MSTORE PUSH0 DUP2 DUP2 PUSH2 0x472 ADD MSTORE PUSH2 0x53E ADD MSTORE PUSH0 DUP2 DUP2 PUSH2 0x22D ADD MSTORE PUSH2 0x414 ADD MSTORE PUSH2 0x86D PUSH0 RETURN INVALID PUSH1 0x80 PUSH1 0x40 MSTORE PUSH1 0x4 CALLDATASIZE LT PUSH2 0x85 JUMPI PUSH0 CALLDATALOAD PUSH1 0xE0 SHR DUP1 PUSH4 0x98D5FDCA GT PUSH2 0x58 JUMPI DUP1 PUSH4 0x98D5FDCA EQ PUSH2 0x131 JUMPI DUP1 PUSH4 0xA62E80FC EQ PUSH2 0x15B JUMPI DUP1 PUSH4 0xA6F2AE3A EQ PUSH2 0x185 JUMPI DUP1 PUSH4 0xC6BC5182 EQ PUSH2 0x18F JUMPI DUP1 PUSH4 0xF1A9AF89 EQ PUSH2 0x1B9 JUMPI PUSH2 0x85 JUMP JUMPDEST DUP1 PUSH4 0x3197CBB6 EQ PUSH2 0x89 JUMPI DUP1 PUSH4 0x3D9B2AE6 EQ PUSH2 0xB3 JUMPI DUP1 PUSH4 0x47CCCA02 EQ PUSH2 0xDD JUMPI DUP1 PUSH4 0x78E97925 EQ PUSH2 0x107 JUMPI JUMPDEST PUSH0 DUP1 REVERT JUMPDEST CALLVALUE DUP1 ISZERO PUSH2 0x94 JUMPI PUSH0 DUP1 REVERT JUMPDEST POP PUSH2 0x9D PUSH2 0x1E3 JUMP JUMPDEST PUSH1 0x40 MLOAD PUSH2 0xAA SWAP2 SWAP1 PUSH2 0x59C JUMP JUMPDEST PUSH1 0x40 MLOAD DUP1 SWAP2 SUB SWAP1 RETURN JUMPDEST CALLVALUE DUP1 ISZERO PUSH2 0xBE JUMPI PUSH0 DUP1 REVERT JUMPDEST POP PUSH2 0xC7 PUSH2 0x207 JUMP JUMPDEST PUSH1 0x40 MLOAD PUSH2 0xD4 SWAP2 SWAP1 PUSH2 0x5F4 JUMP JUMPDEST PUSH1 0x40 MLOAD DUP1 SWAP2 SUB SWAP1 RETURN JUMPDEST CALLVALUE DUP1 ISZERO PUSH2 0xE8 JUMPI PUSH0 DUP1 REVERT JUMPDEST POP PUSH2 0xF1 PUSH2 0x22B JUMP JUMPDEST PUSH1 0x40 MLOAD PUSH2 0xFE SWAP2 SWAP1 PUSH2 0x668 JUMP JUMPDEST PUSH1 0x40 MLOAD DUP1 SWAP2 SUB SWAP1 RETURN JUMPDEST CALLVALUE DUP1 ISZERO PUSH2 0x112 JUMPI PUSH0 DUP1 REVERT JUMPDEST POP PUSH2 0x11B PUSH2 0x24F JUMP JUMPDEST PUSH1 0x40 MLOAD PUSH2 0x128 SWAP2 SWAP1 PUSH2 0x59C JUMP JUMPDEST PUSH1 0x40 MLOAD DUP1 SWAP2 SUB SWAP1 RETURN JUMPDEST CALLVALUE DUP1 ISZERO PUSH2 0x13C JUMPI PUSH0 DUP1 REVERT JUMPDEST POP PUSH2 0x145 PUSH2 0x273 JUMP JUMPDEST PUSH1 0x40 MLOAD PUSH2 0x152 SWAP2 SWAP1 PUSH2 0x59C JUMP JUMPDEST PUSH1 0x40 MLOAD DUP1 SWAP2 SUB SWAP1 RETURN JUMPDEST CALLVALUE DUP1 ISZERO PUSH2 0x166 JUMPI PUSH0 DUP1 REVERT JUMPDEST POP PUSH2 0x16F PUSH2 0x33E JUMP JUMPDEST PUSH1 0x40 MLOAD PUSH2 0x17C SWAP2 SWAP1 PUSH2 0x59C JUMP JUMPDEST PUSH1 0x40 MLOAD DUP1 SWAP2 SUB SWAP1 RETURN JUMPDEST PUSH2 0x18D PUSH2 0x362 JUMP JUMPDEST STOP JUMPDEST CALLVALUE DUP1 ISZERO PUSH2 0x19A JUMPI PUSH0 DUP1 REVERT JUMPDEST POP PUSH2 0x1A3 PUSH2 0x53C JUMP JUMPDEST PUSH1 0x40 MLOAD PUSH2 0x1B0 SWAP2 SWAP1 PUSH2 0x59C JUMP JUMPDEST PUSH1 0x40 MLOAD DUP1 SWAP2 SUB SWAP1 RETURN JUMPDEST CALLVALUE DUP1 ISZERO PUSH2 0x1C4 JUMPI PUSH0 DUP1 REVERT JUMPDEST POP PUSH2 0x1CD PUSH2 0x560 JUMP JUMPDEST PUSH1 0x40 MLOAD PUSH2 0x1DA SWAP2 SWAP1 PUSH2 0x59C JUMP JUMPDEST PUSH1 0x40 MLOAD DUP1 SWAP2 SUB SWAP1 RETURN JUMPDEST PUSH32 0x0 DUP2 JUMP JUMPDEST PUSH32 0x0 DUP2 JUMP JUMPDEST PUSH32 0x0 DUP2 JUMP JUMPDEST PUSH32 0x0 DUP2 JUMP JUMPDEST PUSH0 DUP1 PUSH32 0x0 TIMESTAMP PUSH2 0x2A1 SWAP2 SWAP1 PUSH2 0x6AE JUMP JUMPDEST SWAP1 POP PUSH0 PUSH32 0x0 DUP3 PUSH2 0x2D0 SWAP2 SWAP1 PUSH2 0x6E1 JUMP JUMPDEST SWAP1 POP PUSH0 DUP2 PUSH32 0x0 PUSH2 0x2FF SWAP2 SWAP1 PUSH2 0x6AE JUMP JUMPDEST GT PUSH2 0x30A JUMPI PUSH0 PUSH2 0x337 JUMP JUMPDEST DUP1 PUSH32 0x0 PUSH2 0x336 SWAP2 SWAP1 PUSH2 0x6AE JUMP JUMPDEST JUMPDEST SWAP3 POP POP POP SWAP1 JUMP JUMPDEST PUSH32 0x0 DUP2 JUMP JUMPDEST PUSH32 0x0 TIMESTAMP LT PUSH2 0x3C4 JUMPI PUSH1 0x40 MLOAD PUSH32 0x8C379A000000000000000000000000000000000000000000000000000000000 DUP2 MSTORE PUSH1 0x4 ADD PUSH2 0x3BB SWAP1 PUSH2 0x77C JUMP JUMPDEST PUSH1 0x40 MLOAD DUP1 SWAP2 SUB SWAP1 REVERT JUMPDEST PUSH0 PUSH2 0x3CD PUSH2 0x273 JUMP JUMPDEST SWAP1 POP DUP1 CALLVALUE LT ISZERO PUSH2 0x412 JUMPI PUSH1 0x40 MLOAD PUSH32 0x8C379A000000000000000000000000000000000000000000000000000000000 DUP2 MSTORE PUSH1 0x4 ADD PUSH2 0x409 SWAP1 PUSH2 0x7E4 JUMP JUMPDEST PUSH1 0x40 MLOAD DUP1 SWAP2 SUB SWAP1 REVERT JUMPDEST PUSH32 0x0 PUSH20 0xFFFFFFFFFFFFFFFFFFFFFFFFFFFFFFFFFFFFFFFF AND PUSH4 0x3112AE5B PUSH32 0x0 CALLER PUSH32 0x0 PUSH1 0x40 MLOAD DUP5 PUSH4 0xFFFFFFFF AND PUSH1 0xE0 SHL DUP2 MSTORE PUSH1 0x4 ADD PUSH2 0x4AF SWAP4 SWAP3 SWAP2 SWAP1 PUSH2 0x802 JUMP JUMPDEST PUSH0 PUSH1 0x40 MLOAD DUP1 DUP4 SUB DUP2 PUSH0 DUP8 DUP1 EXTCODESIZE ISZERO DUP1 ISZERO PUSH2 0x4C6 JUMPI PUSH0 DUP1 REVERT JUMPDEST POP GAS CALL ISZERO DUP1 ISZERO PUSH2 0x4D8 JUMPI RETURNDATASIZE PUSH0 DUP1 RETURNDATACOPY RETURNDATASIZE PUSH0 REVERT JUMPDEST POP POP POP POP PUSH0 DUP2 CALLVALUE PUSH2 0x4E9 SWAP2 SWAP1 PUSH2 0x6AE JUMP JUMPDEST SWAP1 POP PUSH0 DUP2 GT ISZERO PUSH2 0x538 JUMPI CALLER PUSH20 0xFFFFFFFFFFFFFFFFFFFFFFFFFFFFFFFFFFFFFFFF AND PUSH2 0x8FC DUP3 SWAP1 DUP2 ISZERO MUL SWAP1 PUSH1 0x40 MLOAD PUSH0 PUSH1 0x40 MLOAD DUP1 DUP4 SUB DUP2 DUP6 DUP9 DUP9 CALL SWAP4 POP POP POP POP ISZERO DUP1 ISZERO PUSH2 0x536 JUMPI RETURNDATASIZE PUSH0 DUP1 RETURNDATACOPY RETURNDATASIZE PUSH0 REVERT JUMPDEST POP JUMPDEST POP POP JUMP JUMPDEST PUSH32 0x0 DUP2 JUMP JUMPDEST PUSH32 0x0 DUP2 JUMP JUMPDEST PUSH0 DUP2 SWAP1 POP SWAP2 SWAP1 POP JUMP JUMPDEST PUSH2 0x596 DUP2 PUSH2 0x584 JUMP JUMPDEST DUP3 MSTORE POP POP JUMP JUMPDEST PUSH0 PUSH1 0x20 DUP3 ADD SWAP1 POP PUSH2 0x5AF PUSH0 DUP4 ADD DUP5 PUSH2 0x58D JUMP JUMPDEST SWAP3 SWAP2 POP POP JUMP JUMPDEST PUSH0 PUSH20 0xFFFFFFFFFFFFFFFFFFFFFFFFFFFFFFFFFFFFFFFF DUP3 AND SWAP1 POP SWAP2 SWAP1 POP JUMP JUMPDEST PUSH0 PUSH2 0x5DE DUP3 PUSH2 0x5B5 JUMP JUMPDEST SWAP1 POP SWAP2 SWAP1 POP JUMP JUMPDEST PUSH2 0x5EE DUP2 PUSH2 0x5D4 JUMP JUMPDEST DUP3 MSTORE POP POP JUMP JUMPDEST PUSH0 PUSH1 0x20 DUP3 ADD SWAP1 POP PUSH2 0x607 PUSH0 DUP4 ADD DUP5 PUSH2 0x5E5 JUMP JUMPDEST SWAP3 SWAP2 POP POP JUMP JUMPDEST PUSH0 DUP2 SWAP1 POP SWAP2 SWAP1 POP JUMP JUMPDEST PUSH0 PUSH2 0x630 PUSH2 0x62B PUSH2 0x626 DUP5 PUSH2 0x5B5 JUMP JUMPDEST PUSH2 0x60D JUMP JUMPDEST PUSH2 0x5B5 JUMP JUMPDEST SWAP1 POP SWAP2 SWAP1 POP JUMP JUMPDEST PUSH0 PUSH2 0x641 DUP3 PUSH2 0x616 JUMP JUMPDEST SWAP1 POP SWAP2 SWAP1 POP JUMP JUMPDEST PUSH0 PUSH2 0x652 DUP3 PUSH2 0x637 JUMP JUMPDEST SWAP1 POP SWAP2 SWAP1 POP JUMP JUMPDEST PUSH2 0x662 DUP2 PUSH2 0x648 JUMP JUMPDEST DUP3 MSTORE POP POP JUMP JUMPDEST PUSH0 PUSH1 0x20 DUP3 ADD SWAP1 POP PUSH2 0x67B PUSH0 DUP4 ADD DUP5 PUSH2 0x659 JUMP JUMPDEST SWAP3 SWAP2 POP POP JUMP JUMPDEST PUSH32 0x4E487B7100000000000000000000000000000000000000000000000000000000 PUSH0 MSTORE PUSH1 0x11 PUSH1 0x4 MSTORE PUSH1 0x24 PUSH0 REVERT JUMPDEST PUSH0 PUSH2 0x6B8 DUP3 PUSH2 0x584 JUMP JUMPDEST SWAP2 POP PUSH2 0x6C3 DUP4 PUSH2 0x584 JUMP JUMPDEST SWAP3 POP DUP3 DUP3 SUB SWAP1 POP DUP2 DUP2 GT ISZERO PUSH2 0x6DB JUMPI PUSH2 0x6DA PUSH2 0x681 JUMP JUMPDEST JUMPDEST SWAP3 SWAP2 POP POP JUMP JUMPDEST PUSH0 PUSH2 0x6EB DUP3 PUSH2 0x584 JUMP JUMPDEST SWAP2 POP PUSH2 0x6F6 DUP4 PUSH2 0x584 JUMP JUMPDEST SWAP3 POP DUP3 DUP3 MUL PUSH2 0x704 DUP2 PUSH2 0x584 JUMP JUMPDEST SWAP2 POP DUP3 DUP3 DIV DUP5 EQ DUP4 ISZERO OR PUSH2 0x71B JUMPI PUSH2 0x71A PUSH2 0x681 JUMP JUMPDEST JUMPDEST POP SWAP3 SWAP2 POP POP JUMP JUMPDEST PUSH0 DUP3 DUP3 MSTORE PUSH1 0x20 DUP3 ADD SWAP1 POP SWAP3 SWAP2 POP POP JUMP JUMPDEST PUSH32 0x74696D65206C6173740000000000000000000000000000000000000000000000 PUSH0 DUP3 ADD MSTORE POP JUMP JUMPDEST PUSH0 PUSH2 0x766 PUSH1 0x9 DUP4 PUSH2 0x722 JUMP JUMPDEST SWAP2 POP PUSH2 0x771 DUP3 PUSH2 0x732 JUMP JUMPDEST PUSH1 0x20 DUP3 ADD SWAP1 POP SWAP2 SWAP1 POP JUMP JUMPDEST PUSH0 PUSH1 0x20 DUP3 ADD SWAP1 POP DUP2 DUP2 SUB PUSH0 DUP4 ADD MSTORE PUSH2 0x793 DUP2 PUSH2 0x75A JUMP JUMPDEST SWAP1 POP SWAP2 SWAP1 POP JUMP JUMPDEST PUSH32 0x4E6F7420656E6F7567682076616C756500000000000000000000000000000000 PUSH0 DUP3 ADD MSTORE POP JUMP JUMPDEST PUSH0 PUSH2 0x7CE PUSH1 0x10 DUP4 PUSH2 0x722 JUMP JUMPDEST SWAP2 POP PUSH2 0x7D9 DUP3 PUSH2 0x79A JUMP JUMPDEST PUSH1 0x20 DUP3 ADD SWAP1 POP SWAP2 SWAP1 POP JUMP JUMPDEST PUSH0 PUSH1 0x20 DUP3 ADD SWAP1 POP DUP2 DUP2 SUB PUSH0 DUP4 ADD MSTORE PUSH2 0x7FB DUP2 PUSH2 0x7C2 JUMP JUMPDEST SWAP1 POP SWAP2 SWAP1 POP JUMP JUMPDEST PUSH0 PUSH1 0x60 DUP3 ADD SWAP1 POP PUSH2 0x815 PUSH0 DUP4 ADD DUP7 PUSH2 0x5E5 JUMP JUMPDEST PUSH2 0x822 PUSH1 0x20 DUP4 ADD DUP6 PUSH2 0x5E5 JUMP JUMPDEST PUSH2 0x82F PUSH1 0x40 DUP4 ADD DUP5 PUSH2 0x58D JUMP JUMPDEST SWAP5 SWAP4 POP POP POP POP JUMP INVALID LOG2 PUSH5 0x6970667358 0x22 SLT KECCAK256 KECCAK256 CALL 0xE2 ADDRESS PUSH23 0xD6C0C5FA41E23EB9F3BCE2ABEF987A49333285D71F6352 0xEF 0xE6 0x23 RETURNDATACOPY PUSH5 0x736F6C6343 STOP ADDMOD BYTE STOP CALLER "
				},
				"gasEstimates": {
					"creation": {
						"codeDepositCost": "431400",
						"executionCost": "infinite",
						"totalCost": "infinite"
					},
					"external": {
						"buy()": "infinite",
						"cutRate()": "infinite",
						"endTime()": "infinite",
						"getPrice()": "infinite",
						"nft()": "infinite",
						"nftId()": "infinite",
						"sellerAddress()": "infinite",
						"startPrice()": "infinite",
						"startTime()": "infinite"
					}
				},
				"methodIdentifiers": {
					"buy()": "a6f2ae3a",
					"cutRate()": "a62e80fc",
					"endTime()": "3197cbb6",
					"getPrice()": "98d5fdca",
					"nft()": "47ccca02",
					"nftId()": "c6bc5182",
					"sellerAddress()": "3d9b2ae6",
					"startPrice()": "f1a9af89",
					"startTime()": "78e97925"
				}
			},
			"storageLayout": {
				"storage": [],
				"types": null
			},
			"userdoc": {
				"kind": "user",
				"methods": {},
				"version": 1
			}
		}
	}
}