{
	"data": {
		"bytecode": {
			"linkReferences": {},
			"object": "6080604052348015600e575f80fd5b50610c938061001c5f395ff3fe608060405234801561000f575f80fd5b5060043610610034575f3560e01c80637049e08714610038578063e5c5e9a314610068575b5f80fd5b610052600480360381019061004d919061026a565b61009b565b60405161005f919061037a565b60405180910390f35b610082600480360381019061007d91906104c2565b6100d0565b60405161009294939291906106e9565b60405180910390f35b606085858585856040516020016100b69594939291906108a2565b604051602081830303815290604052905095945050505050565b5f8060606100dc610107565b848060200190518101906100f09190610bc1565b809450819550829650839750505050509193509193565b604051806040016040528060608152602001610121610127565b81525090565b6040518060400160405280600290602082028036833780820191505090505090565b5f604051905090565b5f80fd5b5f80fd5b5f819050919050565b61016c8161015a565b8114610176575f80fd5b50565b5f8135905061018781610163565b92915050565b5f73ffffffffffffffffffffffffffffffffffffffff82169050919050565b5f6101b68261018d565b9050919050565b6101c6816101ac565b81146101d0575f80fd5b50565b5f813590506101e1816101bd565b92915050565b5f80fd5b5f80fd5b5f80fd5b5f8083601f840112610208576102076101e7565b5b8235905067ffffffffffffffff811115610225576102246101eb565b5b602083019150836020820283011115610241576102406101ef565b5b9250929050565b5f80fd5b5f6060828403121561026157610260610248565b5b81905092915050565b5f805f805f6080868803121561028357610282610152565b5b5f61029088828901610179565b95505060206102a1888289016101d3565b945050604086013567ffffffffffffffff8111156102c2576102c1610156565b5b6102ce888289016101f3565b9350935050606086013567ffffffffffffffff8111156102f1576102f0610156565b5b6102fd8882890161024c565b9150509295509295909350565b5f81519050919050565b5f82825260208201905092915050565b8281835e5f83830152505050565b5f601f19601f8301169050919050565b5f61034c8261030a565b6103568185610314565b9350610366818560208601610324565b61036f81610332565b840191505092915050565b5f6020820190508181035f8301526103928184610342565b905092915050565b5f80fd5b7f4e487b71000000000000000000000000000000000000000000000000000000005f52604160045260245ffd5b6103d482610332565b810181811067ffffffffffffffff821117156103f3576103f261039e565b5b80604052505050565b5f610405610149565b905061041182826103cb565b919050565b5f67ffffffffffffffff8211156104305761042f61039e565b5b61043982610332565b9050602081019050919050565b828183375f83830152505050565b5f61046661046184610416565b6103fc565b9050828152602081018484840111156104825761048161039a565b5b61048d848285610446565b509392505050565b5f82601f8301126104a9576104a86101e7565b5b81356104b9848260208601610454565b91505092915050565b5f602082840312156104d7576104d6610152565b5b5f82013567ffffffffffffffff8111156104f4576104f3610156565b5b61050084828501610495565b91505092915050565b6105128161015a565b82525050565b610521816101ac565b82525050565b5f81519050919050565b5f82825260208201905092915050565b5f819050602082019050919050565b6105598161015a565b82525050565b5f61056a8383610550565b60208301905092915050565b5f602082019050919050565b5f61058c82610527565b6105968185610531565b93506105a183610541565b805f5b838110156105d15781516105b8888261055f565b97506105c383610576565b9250506001810190506105a4565b5085935050505092915050565b5f81519050919050565b5f82825260208201905092915050565b5f610602826105de565b61060c81856105e8565b935061061c818560208601610324565b61062581610332565b840191505092915050565b5f60029050919050565b5f81905092915050565b5f819050919050565b5f602082019050919050565b61066281610630565b61066c818461063a565b925061067782610644565b805f5b838110156106a757815161068e878261055f565b96506106998361064d565b92505060018101905061067a565b505050505050565b5f606083015f8301518482035f8601526106c982826105f8565b91505060208301516106de6020860182610659565b508091505092915050565b5f6080820190506106fc5f830187610509565b6107096020830186610518565b818103604083015261071b8185610582565b9050818103606083015261072f81846106af565b905095945050505050565b5f80fd5b82818337505050565b5f6107528385610531565b93507f07ffffffffffffffffffffffffffffffffffffffffffffffffffffffffffffff8311156107855761078461073a565b5b60208302925061079683858461073e565b82840190509392505050565b5f80fd5b5f80fd5b5f80fd5b5f80833560016020038436030381126107ca576107c96107aa565b5b83810192508235915060208301925067ffffffffffffffff8211156107f2576107f16107a2565b5b600182023603831315610808576108076107a6565b5b509250929050565b5f61081b83856105e8565b9350610828838584610446565b61083183610332565b840190509392505050565b5f82905092915050565b6108526040838361073e565b5050565b5f606083016108675f8401846107ae565b8583035f870152610879838284610810565b9250505061088a602084018461083c565b6108976020860182610846565b508091505092915050565b5f6080820190506108b55f830188610509565b6108c26020830187610518565b81810360408301526108d5818587610747565b905081810360608301526108e98184610856565b90509695505050505050565b5f8151905061090381610163565b92915050565b5f6109138261018d565b9050919050565b61092381610909565b811461092d575f80fd5b50565b5f8151905061093e8161091a565b92915050565b5f67ffffffffffffffff82111561095e5761095d61039e565b5b602082029050602081019050919050565b5f61098161097c84610944565b6103fc565b905080838252602082019050602084028301858111156109a4576109a36101ef565b5b835b818110156109cd57806109b988826108f5565b8452602084019350506020810190506109a6565b5050509392505050565b5f82601f8301126109eb576109ea6101e7565b5b81516109fb84826020860161096f565b91505092915050565b5f80fd5b5f80fd5b5f67ffffffffffffffff821115610a2657610a2561039e565b5b610a2f82610332565b9050602081019050919050565b5f610a4e610a4984610a0c565b6103fc565b905082815260208101848484011115610a6a57610a6961039a565b5b610a75848285610324565b509392505050565b5f82601f830112610a9157610a906101e7565b5b8151610aa1848260208601610a3c565b91505092915050565b5f67ffffffffffffffff821115610ac457610ac361039e565b5b602082029050919050565b5f610ae1610adc84610aaa565b6103fc565b90508060208402830185811115610afb57610afa6101ef565b5b835b81811015610b245780610b1088826108f5565b845260208401935050602081019050610afd565b5050509392505050565b5f82601f830112610b4257610b416101e7565b5b6002610b4f848285610acf565b91505092915050565b5f60608284031215610b6d57610b6c610a04565b5b610b7760406103fc565b90505f82015167ffffffffffffffff811115610b9657610b95610a08565b5b610ba284828501610a7d565b5f830152506020610bb584828501610b2e565b60208301525092915050565b5f805f8060808587031215610bd957610bd8610152565b5b5f610be6878288016108f5565b9450506020610bf787828801610930565b935050604085015167ffffffffffffffff811115610c1857610c17610156565b5b610c24878288016109d7565b925050606085015167ffffffffffffffff811115610c4557610c44610156565b5b610c5187828801610b58565b9150509295919450925056fea2646970667358221220f29187360cd4454d040bd693edda6af663cf16a068782eeff0617fbe37d14d8264736f6c634300081a0033",
			"opcodes": "PUSH1 0x80 PUSH1 0x40 MSTORE CALLVALUE DUP1 ISZERO PUSH1 0xE JUMPI PUSH0 DUP1 REVERT JUMPDEST POP PUSH2 0xC93 DUP1 PUSH2 0x1C PUSH0 CODECOPY PUSH0 RETURN INVALID PUSH1 0x80 PUSH1 0x40 MSTORE CALLVALUE DUP1 ISZERO PUSH2 0xF JUMPI PUSH0 DUP1 REVERT JUMPDEST POP PUSH1 0x4 CALLDATASIZE LT PUSH2 0x34 JUMPI PUSH0 CALLDATALOAD PUSH1 0xE0 SHR DUP1 PUSH4 0x7049E087 EQ PUSH2 0x38 JUMPI DUP1 PUSH4 0xE5C5E9A3 EQ PUSH2 0x68 JUMPI JUMPDEST PUSH0 DUP1 REVERT JUMPDEST PUSH2 0x52 PUSH1 0x4 DUP1 CALLDATASIZE SUB DUP2 ADD SWAP1 PUSH2 0x4D SWAP2 SWAP1 PUSH2 0x26A JUMP JUMPDEST PUSH2 0x9B JUMP JUMPDEST PUSH1 0x40 MLOAD PUSH2 0x5F SWAP2 SWAP1 PUSH2 0x37A JUMP JUMPDEST PUSH1 0x40 MLOAD DUP1 SWAP2 SUB SWAP1 RETURN JUMPDEST PUSH2 0x82 PUSH1 0x4 DUP1 CALLDATASIZE SUB DUP2 ADD SWAP1 PUSH2 0x7D SWAP2 SWAP1 PUSH2 0x4C2 JUMP JUMPDEST PUSH2 0xD0 JUMP JUMPDEST PUSH1 0x40 MLOAD PUSH2 0x92 SWAP5 SWAP4 SWAP3 SWAP2 SWAP1 PUSH2 0x6E9 JUMP JUMPDEST PUSH1 0x40 MLOAD DUP1 SWAP2 SUB SWAP1 RETURN JUMPDEST PUSH1 0x60 DUP6 DUP6 DUP6 DUP6 DUP6 PUSH1 0x40 MLOAD PUSH1 0x20 ADD PUSH2 0xB6 SWAP6 SWAP5 SWAP4 SWAP3 SWAP2 SWAP1 PUSH2 0x8A2 JUMP JUMPDEST PUSH1 0x40 MLOAD PUSH1 0x20 DUP2 DUP4 SUB SUB DUP2 MSTORE SWAP1 PUSH1 0x40 MSTORE SWAP1 POP SWAP6 SWAP5 POP POP POP POP POP JUMP JUMPDEST PUSH0 DUP1 PUSH1 0x60 PUSH2 0xDC PUSH2 0x107 JUMP JUMPDEST DUP5 DUP1 PUSH1 0x20 ADD SWAP1 MLOAD DUP2 ADD SWAP1 PUSH2 0xF0 SWAP2 SWAP1 PUSH2 0xBC1 JUMP JUMPDEST DUP1 SWAP5 POP DUP2 SWAP6 POP DUP3 SWAP7 POP DUP4 SWAP8 POP POP POP POP POP SWAP2 SWAP4 POP SWAP2 SWAP4 JUMP JUMPDEST PUSH1 0x40 MLOAD DUP1 PUSH1 0x40 ADD PUSH1 0x40 MSTORE DUP1 PUSH1 0x60 DUP2 MSTORE PUSH1 0x20 ADD PUSH2 0x121 PUSH2 0x127 JUMP JUMPDEST DUP2 MSTORE POP SWAP1 JUMP JUMPDEST PUSH1 0x40 MLOAD DUP1 PUSH1 0x40 ADD PUSH1 0x40 MSTORE DUP1 PUSH1 0x2 SWAP1 PUSH1 0x20 DUP3 MUL DUP1 CALLDATASIZE DUP4 CALLDATACOPY DUP1 DUP3 ADD SWAP2 POP POP SWAP1 POP POP SWAP1 JUMP JUMPDEST PUSH0 PUSH1 0x40 MLOAD SWAP1 POP SWAP1 JUMP JUMPDEST PUSH0 DUP1 REVERT JUMPDEST PUSH0 DUP1 REVERT JUMPDEST PUSH0 DUP2 SWAP1 POP SWAP2 SWAP1 POP JUMP JUMPDEST PUSH2 0x16C DUP2 PUSH2 0x15A JUMP JUMPDEST DUP2 EQ PUSH2 0x176 JUMPI PUSH0 DUP1 REVERT JUMPDEST POP JUMP JUMPDEST PUSH0 DUP2 CALLDATALOAD SWAP1 POP PUSH2 0x187 DUP2 PUSH2 0x163 JUMP JUMPDEST SWAP3 SWAP2 POP POP JUMP JUMPDEST PUSH0 PUSH20 0xFFFFFFFFFFFFFFFFFFFFFFFFFFFFFFFFFFFFFFFF DUP3 AND SWAP1 POP SWAP2 SWAP1 POP JUMP JUMPDEST PUSH0 PUSH2 0x1B6 DUP3 PUSH2 0x18D JUMP JUMPDEST SWAP1 POP SWAP2 SWAP1 POP JUMP JUMPDEST PUSH2 0x1C6 DUP2 PUSH2 0x1AC JUMP JUMPDEST DUP2 EQ PUSH2 0x1D0 JUMPI PUSH0 DUP1 REVERT JUMPDEST POP JUMP JUMPDEST PUSH0 DUP2 CALLDATALOAD SWAP1 POP PUSH2 0x1E1 DUP2 PUSH2 0x1BD JUMP JUMPDEST SWAP3 SWAP2 POP POP JUMP JUMPDEST PUSH0 DUP1 REVERT JUMPDEST PUSH0 DUP1 REVERT JUMPDEST PUSH0 DUP1 REVERT JUMPDEST PUSH0 DUP1 DUP4 PUSH1 0x1F DUP5 ADD SLT PUSH2 0x208 JUMPI PUSH2 0x207 PUSH2 0x1E7 JUMP JUMPDEST JUMPDEST DUP3 CALLDATALOAD SWAP1 POP PUSH8 0xFFFFFFFFFFFFFFFF DUP2 GT ISZERO PUSH2 0x225 JUMPI PUSH2 0x224 PUSH2 0x1EB JUMP JUMPDEST JUMPDEST PUSH1 0x20 DUP4 ADD SWAP2 POP DUP4 PUSH1 0x20 DUP3 MUL DUP4 ADD GT ISZERO PUSH2 0x241 JUMPI PUSH2 0x240 PUSH2 0x1EF JUMP JUMPDEST JUMPDEST SWAP3 POP SWAP3 SWAP1 POP JUMP JUMPDEST PUSH0 DUP1 REVERT JUMPDEST PUSH0 PUSH1 0x60 DUP3 DUP5 SUB SLT ISZERO PUSH2 0x261 JUMPI PUSH2 0x260 PUSH2 0x248 JUMP JUMPDEST JUMPDEST DUP2 SWAP1 POP SWAP3 SWAP2 POP POP JUMP JUMPDEST PUSH0 DUP1 PUSH0 DUP1 PUSH0 PUSH1 0x80 DUP7 DUP9 SUB SLT ISZERO PUSH2 0x283 JUMPI PUSH2 0x282 PUSH2 0x152 JUMP JUMPDEST JUMPDEST PUSH0 PUSH2 0x290 DUP9 DUP3 DUP10 ADD PUSH2 0x179 JUMP JUMPDEST SWAP6 POP POP PUSH1 0x20 PUSH2 0x2A1 DUP9 DUP3 DUP10 ADD PUSH2 0x1D3 JUMP JUMPDEST SWAP5 POP POP PUSH1 0x40 DUP7 ADD CALLDATALOAD PUSH8 0xFFFFFFFFFFFFFFFF DUP2 GT ISZERO PUSH2 0x2C2 JUMPI PUSH2 0x2C1 PUSH2 0x156 JUMP JUMPDEST JUMPDEST PUSH2 0x2CE DUP9 DUP3 DUP10 ADD PUSH2 0x1F3 JUMP JUMPDEST SWAP4 POP SWAP4 POP POP PUSH1 0x60 DUP7 ADD CALLDATALOAD PUSH8 0xFFFFFFFFFFFFFFFF DUP2 GT ISZERO PUSH2 0x2F1 JUMPI PUSH2 0x2F0 PUSH2 0x156 JUMP JUMPDEST JUMPDEST PUSH2 0x2FD DUP9 DUP3 DUP10 ADD PUSH2 0x24C JUMP JUMPDEST SWAP2 POP POP SWAP3 SWAP6 POP SWAP3 SWAP6 SWAP1 SWAP4 POP JUMP JUMPDEST PUSH0 DUP2 MLOAD SWAP1 POP SWAP2 SWAP1 POP JUMP JUMPDEST PUSH0 DUP3 DUP3 MSTORE PUSH1 0x20 DUP3 ADD SWAP1 POP SWAP3 SWAP2 POP POP JUMP JUMPDEST DUP3 DUP2 DUP4 MCOPY PUSH0 DUP4 DUP4 ADD MSTORE POP POP POP JUMP JUMPDEST PUSH0 PUSH1 0x1F NOT PUSH1 0x1F DUP4 ADD AND SWAP1 POP SWAP2 SWAP1 POP JUMP JUMPDEST PUSH0 PUSH2 0x34C DUP3 PUSH2 0x30A JUMP JUMPDEST PUSH2 0x356 DUP2 DUP6 PUSH2 0x314 JUMP JUMPDEST SWAP4 POP PUSH2 0x366 DUP2 DUP6 PUSH1 0x20 DUP7 ADD PUSH2 0x324 JUMP JUMPDEST PUSH2 0x36F DUP2 PUSH2 0x332 JUMP JUMPDEST DUP5 ADD SWAP2 POP POP SWAP3 SWAP2 POP POP JUMP JUMPDEST PUSH0 PUSH1 0x20 DUP3 ADD SWAP1 POP DUP2 DUP2 SUB PUSH0 DUP4 ADD MSTORE PUSH2 0x392 DUP2 DUP5 PUSH2 0x342 JUMP JUMPDEST SWAP1 POP SWAP3 SWAP2 POP POP JUMP JUMPDEST PUSH0 DUP1 REVERT JUMPDEST PUSH32 0x4E487B7100000000000000000000000000000000000000000000000000000000 PUSH0 MSTORE PUSH1 0x41 PUSH1 0x4 MSTORE PUSH1 0x24 PUSH0 REVERT JUMPDEST PUSH2 0x3D4 DUP3 PUSH2 0x332 JUMP JUMPDEST DUP2 ADD DUP2 DUP2 LT PUSH8 0xFFFFFFFFFFFFFFFF DUP3 GT OR ISZERO PUSH2 0x3F3 JUMPI PUSH2 0x3F2 PUSH2 0x39E JUMP JUMPDEST JUMPDEST DUP1 PUSH1 0x40 MSTORE POP POP POP JUMP JUMPDEST PUSH0 PUSH2 0x405 PUSH2 0x149 JUMP JUMPDEST SWAP1 POP PUSH2 0x411 DUP3 DUP3 PUSH2 0x3CB JUMP JUMPDEST SWAP2 SWAP1 POP JUMP JUMPDEST PUSH0 PUSH8 0xFFFFFFFFFFFFFFFF DUP3 GT ISZERO PUSH2 0x430 JUMPI PUSH2 0x42F PUSH2 0x39E JUMP JUMPDEST JUMPDEST PUSH2 0x439 DUP3 PUSH2 0x332 JUMP JUMPDEST SWAP1 POP PUSH1 0x20 DUP2 ADD SWAP1 POP SWAP2 SWAP1 POP JUMP JUMPDEST DUP3 DUP2 DUP4 CALLDATACOPY PUSH0 DUP4 DUP4 ADD MSTORE POP POP POP JUMP JUMPDEST PUSH0 PUSH2 0x466 PUSH2 0x461 DUP5 PUSH2 0x416 JUMP JUMPDEST PUSH2 0x3FC JUMP JUMPDEST SWAP1 POP DUP3 DUP2 MSTORE PUSH1 0x20 DUP2 ADD DUP5 DUP5 DUP5 ADD GT ISZERO PUSH2 0x482 JUMPI PUSH2 0x481 PUSH2 0x39A JUMP JUMPDEST JUMPDEST PUSH2 0x48D DUP5 DUP3 DUP6 PUSH2 0x446 JUMP JUMPDEST POP SWAP4 SWAP3 POP POP POP JUMP JUMPDEST PUSH0 DUP3 PUSH1 0x1F DUP4 ADD SLT PUSH2 0x4A9 JUMPI PUSH2 0x4A8 PUSH2 0x1E7 JUMP JUMPDEST JUMPDEST DUP2 CALLDATALOAD PUSH2 0x4B9 DUP5 DUP3 PUSH1 0x20 DUP7 ADD PUSH2 0x454 JUMP JUMPDEST SWAP2 POP POP SWAP3 SWAP2 POP POP JUMP JUMPDEST PUSH0 PUSH1 0x20 DUP3 DUP5 SUB SLT ISZERO PUSH2 0x4D7 JUMPI PUSH2 0x4D6 PUSH2 0x152 JUMP JUMPDEST JUMPDEST PUSH0 DUP3 ADD CALLDATALOAD PUSH8 0xFFFFFFFFFFFFFFFF DUP2 GT ISZERO PUSH2 0x4F4 JUMPI PUSH2 0x4F3 PUSH2 0x156 JUMP JUMPDEST JUMPDEST PUSH2 0x500 DUP5 DUP3 DUP6 ADD PUSH2 0x495 JUMP JUMPDEST SWAP2 POP POP SWAP3 SWAP2 POP POP JUMP JUMPDEST PUSH2 0x512 DUP2 PUSH2 0x15A JUMP JUMPDEST DUP3 MSTORE POP POP JUMP JUMPDEST PUSH2 0x521 DUP2 PUSH2 0x1AC JUMP JUMPDEST DUP3 MSTORE POP POP JUMP JUMPDEST PUSH0 DUP2 MLOAD SWAP1 POP SWAP2 SWAP1 POP JUMP JUMPDEST PUSH0 DUP3 DUP3 MSTORE PUSH1 0x20 DUP3 ADD SWAP1 POP SWAP3 SWAP2 POP POP JUMP JUMPDEST PUSH0 DUP2 SWAP1 POP PUSH1 0x20 DUP3 ADD SWAP1 POP SWAP2 SWAP1 POP JUMP JUMPDEST PUSH2 0x559 DUP2 PUSH2 0x15A JUMP JUMPDEST DUP3 MSTORE POP POP JUMP JUMPDEST PUSH0 PUSH2 0x56A DUP4 DUP4 PUSH2 0x550 JUMP JUMPDEST PUSH1 0x20 DUP4 ADD SWAP1 POP SWAP3 SWAP2 POP POP JUMP JUMPDEST PUSH0 PUSH1 0x20 DUP3 ADD SWAP1 POP SWAP2 SWAP1 POP JUMP JUMPDEST PUSH0 PUSH2 0x58C DUP3 PUSH2 0x527 JUMP JUMPDEST PUSH2 0x596 DUP2 DUP6 PUSH2 0x531 JUMP JUMPDEST SWAP4 POP PUSH2 0x5A1 DUP4 PUSH2 0x541 JUMP JUMPDEST DUP1 PUSH0 JUMPDEST DUP4 DUP2 LT ISZERO PUSH2 0x5D1 JUMPI DUP2 MLOAD PUSH2 0x5B8 DUP9 DUP3 PUSH2 0x55F JUMP JUMPDEST SWAP8 POP PUSH2 0x5C3 DUP4 PUSH2 0x576 JUMP JUMPDEST SWAP3 POP POP PUSH1 0x1 DUP2 ADD SWAP1 POP PUSH2 0x5A4 JUMP JUMPDEST POP DUP6 SWAP4 POP POP POP POP SWAP3 SWAP2 POP POP JUMP JUMPDEST PUSH0 DUP2 MLOAD SWAP1 POP SWAP2 SWAP1 POP JUMP JUMPDEST PUSH0 DUP3 DUP3 MSTORE PUSH1 0x20 DUP3 ADD SWAP1 POP SWAP3 SWAP2 POP POP JUMP JUMPDEST PUSH0 PUSH2 0x602 DUP3 PUSH2 0x5DE JUMP JUMPDEST PUSH2 0x60C DUP2 DUP6 PUSH2 0x5E8 JUMP JUMPDEST SWAP4 POP PUSH2 0x61C DUP2 DUP6 PUSH1 0x20 DUP7 ADD PUSH2 0x324 JUMP JUMPDEST PUSH2 0x625 DUP2 PUSH2 0x332 JUMP JUMPDEST DUP5 ADD SWAP2 POP POP SWAP3 SWAP2 POP POP JUMP JUMPDEST PUSH0 PUSH1 0x2 SWAP1 POP SWAP2 SWAP1 POP JUMP JUMPDEST PUSH0 DUP2 SWAP1 POP SWAP3 SWAP2 POP POP JUMP JUMPDEST PUSH0 DUP2 SWAP1 POP SWAP2 SWAP1 POP JUMP JUMPDEST PUSH0 PUSH1 0x20 DUP3 ADD SWAP1 POP SWAP2 SWAP1 POP JUMP JUMPDEST PUSH2 0x662 DUP2 PUSH2 0x630 JUMP JUMPDEST PUSH2 0x66C DUP2 DUP5 PUSH2 0x63A JUMP JUMPDEST SWAP3 POP PUSH2 0x677 DUP3 PUSH2 0x644 JUMP JUMPDEST DUP1 PUSH0 JUMPDEST DUP4 DUP2 LT ISZERO PUSH2 0x6A7 JUMPI DUP2 MLOAD PUSH2 0x68E DUP8 DUP3 PUSH2 0x55F JUMP JUMPDEST SWAP7 POP PUSH2 0x699 DUP4 PUSH2 0x64D JUMP JUMPDEST SWAP3 POP POP PUSH1 0x1 DUP2 ADD SWAP1 POP PUSH2 0x67A JUMP JUMPDEST POP POP POP POP POP POP JUMP JUMPDEST PUSH0 PUSH1 0x60 DUP4 ADD PUSH0 DUP4 ADD MLOAD DUP5 DUP3 SUB PUSH0 DUP7 ADD MSTORE PUSH2 0x6C9 DUP3 DUP3 PUSH2 0x5F8 JUMP JUMPDEST SWAP2 POP POP PUSH1 0x20 DUP4 ADD MLOAD PUSH2 0x6DE PUSH1 0x20 DUP7 ADD DUP3 PUSH2 0x659 JUMP JUMPDEST POP DUP1 SWAP2 POP POP SWAP3 SWAP2 POP POP JUMP JUMPDEST PUSH0 PUSH1 0x80 DUP3 ADD SWAP1 POP PUSH2 0x6FC PUSH0 DUP4 ADD DUP8 PUSH2 0x509 JUMP JUMPDEST PUSH2 0x709 PUSH1 0x20 DUP4 ADD DUP7 PUSH2 0x518 JUMP JUMPDEST DUP2 DUP2 SUB PUSH1 0x40 DUP4 ADD MSTORE PUSH2 0x71B DUP2 DUP6 PUSH2 0x582 JUMP JUMPDEST SWAP1 POP DUP2 DUP2 SUB PUSH1 0x60 DUP4 ADD MSTORE PUSH2 0x72F DUP2 DUP5 PUSH2 0x6AF JUMP JUMPDEST SWAP1 POP SWAP6 SWAP5 POP POP POP POP POP JUMP JUMPDEST PUSH0 DUP1 REVERT JUMPDEST DUP3 DUP2 DUP4 CALLDATACOPY POP POP POP JUMP JUMPDEST PUSH0 PUSH2 0x752 DUP4 DUP6 PUSH2 0x531 JUMP JUMPDEST SWAP4 POP PUSH32 0x7FFFFFFFFFFFFFFFFFFFFFFFFFFFFFFFFFFFFFFFFFFFFFFFFFFFFFFFFFFFFFF DUP4 GT ISZERO PUSH2 0x785 JUMPI PUSH2 0x784 PUSH2 0x73A JUMP JUMPDEST JUMPDEST PUSH1 0x20 DUP4 MUL SWAP3 POP PUSH2 0x796 DUP4 DUP6 DUP5 PUSH2 0x73E JUMP JUMPDEST DUP3 DUP5 ADD SWAP1 POP SWAP4 SWAP3 POP POP POP JUMP JUMPDEST PUSH0 DUP1 REVERT JUMPDEST PUSH0 DUP1 REVERT JUMPDEST PUSH0 DUP1 REVERT JUMPDEST PUSH0 DUP1 DUP4 CALLDATALOAD PUSH1 0x1 PUSH1 0x20 SUB DUP5 CALLDATASIZE SUB SUB DUP2 SLT PUSH2 0x7CA JUMPI PUSH2 0x7C9 PUSH2 0x7AA JUMP JUMPDEST JUMPDEST DUP4 DUP2 ADD SWAP3 POP DUP3 CALLDATALOAD SWAP2 POP PUSH1 0x20 DUP4 ADD SWAP3 POP PUSH8 0xFFFFFFFFFFFFFFFF DUP3 GT ISZERO PUSH2 0x7F2 JUMPI PUSH2 0x7F1 PUSH2 0x7A2 JUMP JUMPDEST JUMPDEST PUSH1 0x1 DUP3 MUL CALLDATASIZE SUB DUP4 SGT ISZERO PUSH2 0x808 JUMPI PUSH2 0x807 PUSH2 0x7A6 JUMP JUMPDEST JUMPDEST POP SWAP3 POP SWAP3 SWAP1 POP JUMP JUMPDEST PUSH0 PUSH2 0x81B DUP4 DUP6 PUSH2 0x5E8 JUMP JUMPDEST SWAP4 POP PUSH2 0x828 DUP4 DUP6 DUP5 PUSH2 0x446 JUMP JUMPDEST PUSH2 0x831 DUP4 PUSH2 0x332 JUMP JUMPDEST DUP5 ADD SWAP1 POP SWAP4 SWAP3 POP POP POP JUMP JUMPDEST PUSH0 DUP3 SWAP1 POP SWAP3 SWAP2 POP POP JUMP JUMPDEST PUSH2 0x852 PUSH1 0x40 DUP4 DUP4 PUSH2 0x73E JUMP JUMPDEST POP POP JUMP JUMPDEST PUSH0 PUSH1 0x60 DUP4 ADD PUSH2 0x867 PUSH0 DUP5 ADD DUP5 PUSH2 0x7AE JUMP JUMPDEST DUP6 DUP4 SUB PUSH0 DUP8 ADD MSTORE PUSH2 0x879 DUP4 DUP3 DUP5 PUSH2 0x810 JUMP JUMPDEST SWAP3 POP POP POP PUSH2 0x88A PUSH1 0x20 DUP5 ADD DUP5 PUSH2 0x83C JUMP JUMPDEST PUSH2 0x897 PUSH1 0x20 DUP7 ADD DUP3 PUSH2 0x846 JUMP JUMPDEST POP DUP1 SWAP2 POP POP SWAP3 SWAP2 POP POP JUMP JUMPDEST PUSH0 PUSH1 0x80 DUP3 ADD SWAP1 POP PUSH2 0x8B5 PUSH0 DUP4 ADD DUP9 PUSH2 0x509 JUMP JUMPDEST PUSH2 0x8C2 PUSH1 0x20 DUP4 ADD DUP8 PUSH2 0x518 JUMP JUMPDEST DUP2 DUP2 SUB PUSH1 0x40 DUP4 ADD MSTORE PUSH2 0x8D5 DUP2 DUP6 DUP8 PUSH2 0x747 JUMP JUMPDEST SWAP1 POP DUP2 DUP2 SUB PUSH1 0x60 DUP4 ADD MSTORE PUSH2 0x8E9 DUP2 DUP5 PUSH2 0x856 JUMP JUMPDEST SWAP1 POP SWAP7 SWAP6 POP POP POP POP POP POP JUMP JUMPDEST PUSH0 DUP2 MLOAD SWAP1 POP PUSH2 0x903 DUP2 PUSH2 0x163 JUMP JUMPDEST SWAP3 SWAP2 POP POP JUMP JUMPDEST PUSH0 PUSH2 0x913 DUP3 PUSH2 0x18D JUMP JUMPDEST SWAP1 POP SWAP2 SWAP1 POP JUMP JUMPDEST PUSH2 0x923 DUP2 PUSH2 0x909 JUMP JUMPDEST DUP2 EQ PUSH2 0x92D JUMPI PUSH0 DUP1 REVERT JUMPDEST POP JUMP JUMPDEST PUSH0 DUP2 MLOAD SWAP1 POP PUSH2 0x93E DUP2 PUSH2 0x91A JUMP JUMPDEST SWAP3 SWAP2 POP POP JUMP JUMPDEST PUSH0 PUSH8 0xFFFFFFFFFFFFFFFF DUP3 GT ISZERO PUSH2 0x95E JUMPI PUSH2 0x95D PUSH2 0x39E JUMP JUMPDEST JUMPDEST PUSH1 0x20 DUP3 MUL SWAP1 POP PUSH1 0x20 DUP2 ADD SWAP1 POP SWAP2 SWAP1 POP JUMP JUMPDEST PUSH0 PUSH2 0x981 PUSH2 0x97C DUP5 PUSH2 0x944 JUMP JUMPDEST PUSH2 0x3FC JUMP JUMPDEST SWAP1 POP DUP1 DUP4 DUP3 MSTORE PUSH1 0x20 DUP3 ADD SWAP1 POP PUSH1 0x20 DUP5 MUL DUP4 ADD DUP6 DUP2 GT ISZERO PUSH2 0x9A4 JUMPI PUSH2 0x9A3 PUSH2 0x1EF JUMP JUMPDEST JUMPDEST DUP4 JUMPDEST DUP2 DUP2 LT ISZERO PUSH2 0x9CD JUMPI DUP1 PUSH2 0x9B9 DUP9 DUP3 PUSH2 0x8F5 JUMP JUMPDEST DUP5 MSTORE PUSH1 0x20 DUP5 ADD SWAP4 POP POP PUSH1 0x20 DUP2 ADD SWAP1 POP PUSH2 0x9A6 JUMP JUMPDEST POP POP POP SWAP4 SWAP3 POP POP POP JUMP JUMPDEST PUSH0 DUP3 PUSH1 0x1F DUP4 ADD SLT PUSH2 0x9EB JUMPI PUSH2 0x9EA PUSH2 0x1E7 JUMP JUMPDEST JUMPDEST DUP2 MLOAD PUSH2 0x9FB DUP5 DUP3 PUSH1 0x20 DUP7 ADD PUSH2 0x96F JUMP JUMPDEST SWAP2 POP POP SWAP3 SWAP2 POP POP JUMP JUMPDEST PUSH0 DUP1 REVERT JUMPDEST PUSH0 DUP1 REVERT JUMPDEST PUSH0 PUSH8 0xFFFFFFFFFFFFFFFF DUP3 GT ISZERO PUSH2 0xA26 JUMPI PUSH2 0xA25 PUSH2 0x39E JUMP JUMPDEST JUMPDEST PUSH2 0xA2F DUP3 PUSH2 0x332 JUMP JUMPDEST SWAP1 POP PUSH1 0x20 DUP2 ADD SWAP1 POP SWAP2 SWAP1 POP JUMP JUMPDEST PUSH0 PUSH2 0xA4E PUSH2 0xA49 DUP5 PUSH2 0xA0C JUMP JUMPDEST PUSH2 0x3FC JUMP JUMPDEST SWAP1 POP DUP3 DUP2 MSTORE PUSH1 0x20 DUP2 ADD DUP5 DUP5 DUP5 ADD GT ISZERO PUSH2 0xA6A JUMPI PUSH2 0xA69 PUSH2 0x39A JUMP JUMPDEST JUMPDEST PUSH2 0xA75 DUP5 DUP3 DUP6 PUSH2 0x324 JUMP JUMPDEST POP SWAP4 SWAP3 POP POP POP JUMP JUMPDEST PUSH0 DUP3 PUSH1 0x1F DUP4 ADD SLT PUSH2 0xA91 JUMPI PUSH2 0xA90 PUSH2 0x1E7 JUMP JUMPDEST JUMPDEST DUP2 MLOAD PUSH2 0xAA1 DUP5 DUP3 PUSH1 0x20 DUP7 ADD PUSH2 0xA3C JUMP JUMPDEST SWAP2 POP POP SWAP3 SWAP2 POP POP JUMP JUMPDEST PUSH0 PUSH8 0xFFFFFFFFFFFFFFFF DUP3 GT ISZERO PUSH2 0xAC4 JUMPI PUSH2 0xAC3 PUSH2 0x39E JUMP JUMPDEST JUMPDEST PUSH1 0x20 DUP3 MUL SWAP1 POP SWAP2 SWAP1 POP JUMP JUMPDEST PUSH0 PUSH2 0xAE1 PUSH2 0xADC DUP5 PUSH2 0xAAA JUMP JUMPDEST PUSH2 0x3FC JUMP JUMPDEST SWAP1 POP DUP1 PUSH1 0x20 DUP5 MUL DUP4 ADD DUP6 DUP2 GT ISZERO PUSH2 0xAFB JUMPI PUSH2 0xAFA PUSH2 0x1EF JUMP JUMPDEST JUMPDEST DUP4 JUMPDEST DUP2 DUP2 LT ISZERO PUSH2 0xB24 JUMPI DUP1 PUSH2 0xB10 DUP9 DUP3 PUSH2 0x8F5 JUMP JUMPDEST DUP5 MSTORE PUSH1 0x20 DUP5 ADD SWAP4 POP POP PUSH1 0x20 DUP2 ADD SWAP1 POP PUSH2 0xAFD JUMP JUMPDEST POP POP POP SWAP4 SWAP3 POP POP POP JUMP JUMPDEST PUSH0 DUP3 PUSH1 0x1F DUP4 ADD SLT PUSH2 0xB42 JUMPI PUSH2 0xB41 PUSH2 0x1E7 JUMP JUMPDEST JUMPDEST PUSH1 0x2 PUSH2 0xB4F DUP5 DUP3 DUP6 PUSH2 0xACF JUMP JUMPDEST SWAP2 POP POP SWAP3 SWAP2 POP POP JUMP JUMPDEST PUSH0 PUSH1 0x60 DUP3 DUP5 SUB SLT ISZERO PUSH2 0xB6D JUMPI PUSH2 0xB6C PUSH2 0xA04 JUMP JUMPDEST JUMPDEST PUSH2 0xB77 PUSH1 0x40 PUSH2 0x3FC JUMP JUMPDEST SWAP1 POP PUSH0 DUP3 ADD MLOAD PUSH8 0xFFFFFFFFFFFFFFFF DUP2 GT ISZERO PUSH2 0xB96 JUMPI PUSH2 0xB95 PUSH2 0xA08 JUMP JUMPDEST JUMPDEST PUSH2 0xBA2 DUP5 DUP3 DUP6 ADD PUSH2 0xA7D JUMP JUMPDEST PUSH0 DUP4 ADD MSTORE POP PUSH1 0x20 PUSH2 0xBB5 DUP5 DUP3 DUP6 ADD PUSH2 0xB2E JUMP JUMPDEST PUSH1 0x20 DUP4 ADD MSTORE POP SWAP3 SWAP2 POP POP JUMP JUMPDEST PUSH0 DUP1 PUSH0 DUP1 PUSH1 0x80 DUP6 DUP8 SUB SLT ISZERO PUSH2 0xBD9 JUMPI PUSH2 0xBD8 PUSH2 0x152 JUMP JUMPDEST JUMPDEST PUSH0 PUSH2 0xBE6 DUP8 DUP3 DUP9 ADD PUSH2 0x8F5 JUMP JUMPDEST SWAP5 POP POP PUSH1 0x20 PUSH2 0xBF7 DUP8 DUP3 DUP9 ADD PUSH2 0x930 JUMP JUMPDEST SWAP4 POP POP PUSH1 0x40 DUP6 ADD MLOAD PUSH8 0xFFFFFFFFFFFFFFFF DUP2 GT ISZERO PUSH2 0xC18 JUMPI PUSH2 0xC17 PUSH2 0x156 JUMP JUMPDEST JUMPDEST PUSH2 0xC24 DUP8 DUP3 DUP9 ADD PUSH2 0x9D7 JUMP JUMPDEST SWAP3 POP POP PUSH1 0x60 DUP6 ADD MLOAD PUSH8 0xFFFFFFFFFFFFFFFF DUP2 GT ISZERO PUSH2 0xC45 JUMPI PUSH2 0xC44 PUSH2 0x156 JUMP JUMPDEST JUMPDEST PUSH2 0xC51 DUP8 DUP3 DUP9 ADD PUSH2 0xB58 JUMP JUMPDEST SWAP2 POP POP SWAP3 SWAP6 SWAP2 SWAP5 POP SWAP3 POP JUMP INVALID LOG2 PUSH5 0x6970667358 0x22 SLT KECCAK256 CALLCODE SWAP2 DUP8 CALLDATASIZE 0xC 0xD4 GASLIMIT 0x4D DIV SIGNEXTEND 0xD6 SWAP4 0xED 0xDA PUSH11 0xF663CF16A068782EEFF061 PUSH32 0xBE37D14D8264736F6C634300081A003300000000000000000000000000000000 "
		},
		"gasEstimates": {
			"creation": {
				"codeDepositCost": "643800",
				"executionCost": "674",
				"totalCost": "644474"
			},
			"external": {
				"decode(bytes)": "infinite",
				"encode(uint256,address,uint256[],(string,uint256[2]))": "infinite"
			}
		},
		"methodIdentifiers": {
			"decode(bytes)": "e5c5e9a3",
			"encode(uint256,address,uint256[],(string,uint256[2]))": "7049e087"
		}
	},
	"abi": [
		{
			"inputs": [
				{
					"internalType": "bytes",
					"name": "data",
					"type": "bytes"
				}
			],
			"name": "decode",
			"outputs": [
				{
					"internalType": "uint256",
					"name": "x",
					"type": "uint256"
				},
				{
					"internalType": "address",
					"name": "addr",
					"type": "address"
				},
				{
					"internalType": "uint256[]",
					"name": "arr",
					"type": "uint256[]"
				},
				{
					"components": [
						{
							"internalType": "string",
							"name": "name",
							"type": "string"
						},
						{
							"internalType": "uint256[2]",
							"name": "nums",
							"type": "uint256[2]"
						}
					],
					"internalType": "struct Abidecode.Mystruct",
					"name": "mystruct",
					"type": "tuple"
				}
			],
			"stateMutability": "pure",
			"type": "function"
		},
		{
			"inputs": [
				{
					"internalType": "uint256",
					"name": "x",
					"type": "uint256"
				},
				{
					"internalType": "address",
					"name": "addr",
					"type": "address"
				},
				{
					"internalType": "uint256[]",
					"name": "arr",
					"type": "uint256[]"
				},
				{
					"components": [
						{
							"internalType": "string",
							"name": "name",
							"type": "string"
						},
						{
							"internalType": "uint256[2]",
							"name": "nums",
							"type": "uint256[2]"
						}
					],
					"internalType": "struct Abidecode.Mystruct",
					"name": "mystruct",
					"type": "tuple"
				}
			],
			"name": "encode",
			"outputs": [
				{
					"internalType": "bytes",
					"name": "",
					"type": "bytes"
				}
			],
			"stateMutability": "pure",
			"type": "function"
		}
	]
}