{
	"data": {
		"bytecode": {
			"linkReferences": {},
			"object": "610160604052348015610010575f80fd5b50604051610c31380380610c31833981810160405281019061003291906101be565b3373ffffffffffffffffffffffffffffffffffffffff1660c08173ffffffffffffffffffffffffffffffffffffffff16815250508360e0818152505082610140818152505042610100818152505062093a804261008f919061024f565b610120818152505062093a80836100a69190610282565b8410156100e8576040517f08c379a00000000000000000000000000000000000000000000000000000000081526004016100df9061031d565b60405180910390fd5b8173ffffffffffffffffffffffffffffffffffffffff1660808173ffffffffffffffffffffffffffffffffffffffff16815250508060a081815250505050505061033b565b5f80fd5b5f819050919050565b61014381610131565b811461014d575f80fd5b50565b5f8151905061015e8161013a565b92915050565b5f73ffffffffffffffffffffffffffffffffffffffff82169050919050565b5f61018d82610164565b9050919050565b61019d81610183565b81146101a7575f80fd5b50565b5f815190506101b881610194565b92915050565b5f805f80608085870312156101d6576101d561012d565b5b5f6101e387828801610150565b94505060206101f487828801610150565b9350506040610205878288016101aa565b925050606061021687828801610150565b91505092959194509250565b7f4e487b71000000000000000000000000000000000000000000000000000000005f52601160045260245ffd5b5f61025982610131565b915061026483610131565b925082820190508082111561027c5761027b610222565b5b92915050565b5f61028c82610131565b915061029783610131565b92508282026102a581610131565b915082820484148315176102bc576102bb610222565b5b5092915050565b5f82825260208201905092915050565b7f5f73746172745072696365206973206661696c000000000000000000000000005f82015250565b5f6103076013836102c3565b9150610312826102d3565b602082019050919050565b5f6020820190508181035f830152610334816102fb565b9050919050565b60805160a05160c05160e05161010051610120516101405161086d6103c45f395f81816102a6015261034001525f81816101e5015261036401525f8181610251015261027701525f81816102d60152818161030d015261056201525f8181610209015261045001525f8181610472015261053e01525f818161022d0152610414015261086d5ff3fe608060405260043610610085575f3560e01c806398d5fdca1161005857806398d5fdca14610131578063a62e80fc1461015b578063a6f2ae3a14610185578063c6bc51821461018f578063f1a9af89146101b957610085565b80633197cbb6146100895780633d9b2ae6146100b357806347ccca02146100dd57806378e9792514610107575b5f80fd5b348015610094575f80fd5b5061009d6101e3565b6040516100aa919061059c565b60405180910390f35b3480156100be575f80fd5b506100c7610207565b6040516100d491906105f4565b60405180910390f35b3480156100e8575f80fd5b506100f161022b565b6040516100fe9190610668565b60405180910390f35b348015610112575f80fd5b5061011b61024f565b604051610128919061059c565b60405180910390f35b34801561013c575f80fd5b50610145610273565b604051610152919061059c565b60405180910390f35b348015610166575f80fd5b5061016f61033e565b60405161017c919061059c565b60405180910390f35b61018d610362565b005b34801561019a575f80fd5b506101a361053c565b6040516101b0919061059c565b60405180910390f35b3480156101c4575f80fd5b506101cd610560565b6040516101da919061059c565b60405180910390f35b7f000000000000000000000000000000000000000000000000000000000000000081565b7f000000000000000000000000000000000000000000000000000000000000000081565b7f000000000000000000000000000000000000000000000000000000000000000081565b7f000000000000000000000000000000000000000000000000000000000000000081565b5f807f0000000000000000000000000000000000000000000000000000000000000000426102a191906106ae565b90505f7f0000000000000000000000000000000000000000000000000000000000000000826102d091906106e1565b90505f817f00000000000000000000000000000000000000000000000000000000000000006102ff91906106ae565b1161030a575f610337565b807f000000000000000000000000000000000000000000000000000000000000000061033691906106ae565b5b9250505090565b7f000000000000000000000000000000000000000000000000000000000000000081565b7f000000000000000000000000000000000000000000000000000000000000000042106103c4576040517f08c379a00000000000000000000000000000000000000000000000000000000081526004016103bb9061077c565b60405180910390fd5b5f6103cd610273565b905080341015610412576040517f08c379a0000000000000000000000000000000000000000000000000000000008152600401610409906107e4565b60405180910390fd5b7f000000000000000000000000000000000000000000000000000000000000000073ffffffffffffffffffffffffffffffffffffffff166323b872dd7f0000000000000000000000000000000000000000000000000000000000000000337f00000000000000000000000000000000000000000000000000000000000000006040518463ffffffff1660e01b81526004016104af93929190610802565b5f604051808303815f87803b1580156104c6575f80fd5b505af11580156104d8573d5f803e3d5ffd5b505050505f81346104e991906106ae565b90505f811115610538573373ffffffffffffffffffffffffffffffffffffffff166108fc8290811502906040515f60405180830381858888f19350505050158015610536573d5f803e3d5ffd5b505b5050565b7f000000000000000000000000000000000000000000000000000000000000000081565b7f000000000000000000000000000000000000000000000000000000000000000081565b5f819050919050565b61059681610584565b82525050565b5f6020820190506105af5f83018461058d565b92915050565b5f73ffffffffffffffffffffffffffffffffffffffff82169050919050565b5f6105de826105b5565b9050919050565b6105ee816105d4565b82525050565b5f6020820190506106075f8301846105e5565b92915050565b5f819050919050565b5f61063061062b610626846105b5565b61060d565b6105b5565b9050919050565b5f61064182610616565b9050919050565b5f61065282610637565b9050919050565b61066281610648565b82525050565b5f60208201905061067b5f830184610659565b92915050565b7f4e487b71000000000000000000000000000000000000000000000000000000005f52601160045260245ffd5b5f6106b882610584565b91506106c383610584565b92508282039050818111156106db576106da610681565b5b92915050565b5f6106eb82610584565b91506106f683610584565b925082820261070481610584565b9150828204841483151761071b5761071a610681565b5b5092915050565b5f82825260208201905092915050565b7f74696d65206c61737400000000000000000000000000000000000000000000005f82015250565b5f610766600983610722565b915061077182610732565b602082019050919050565b5f6020820190508181035f8301526107938161075a565b9050919050565b7f4e6f7420656e6f7567682076616c7565000000000000000000000000000000005f82015250565b5f6107ce601083610722565b91506107d98261079a565b602082019050919050565b5f6020820190508181035f8301526107fb816107c2565b9050919050565b5f6060820190506108155f8301866105e5565b61082260208301856105e5565b61082f604083018461058d565b94935050505056fea26469706673582212208976c3fdc8fb4582bb6d27774843f89c2502fe182679065ea6806fdb45e9bcd664736f6c634300081a0033",
			"opcodes": "PUSH2 0x160 PUSH1 0x40 MSTORE CALLVALUE DUP1 ISZERO PUSH2 0x10 JUMPI PUSH0 DUP1 REVERT JUMPDEST POP PUSH1 0x40 MLOAD PUSH2 0xC31 CODESIZE SUB DUP1 PUSH2 0xC31 DUP4 CODECOPY DUP2 DUP2 ADD PUSH1 0x40 MSTORE DUP2 ADD SWAP1 PUSH2 0x32 SWAP2 SWAP1 PUSH2 0x1BE JUMP JUMPDEST CALLER PUSH20 0xFFFFFFFFFFFFFFFFFFFFFFFFFFFFFFFFFFFFFFFF AND PUSH1 0xC0 DUP2 PUSH20 0xFFFFFFFFFFFFFFFFFFFFFFFFFFFFFFFFFFFFFFFF AND DUP2 MSTORE POP POP DUP4 PUSH1 0xE0 DUP2 DUP2 MSTORE POP POP DUP3 PUSH2 0x140 DUP2 DUP2 MSTORE POP POP TIMESTAMP PUSH2 0x100 DUP2 DUP2 MSTORE POP POP PUSH3 0x93A80 TIMESTAMP PUSH2 0x8F SWAP2 SWAP1 PUSH2 0x24F JUMP JUMPDEST PUSH2 0x120 DUP2 DUP2 MSTORE POP POP PUSH3 0x93A80 DUP4 PUSH2 0xA6 SWAP2 SWAP1 PUSH2 0x282 JUMP JUMPDEST DUP5 LT ISZERO PUSH2 0xE8 JUMPI PUSH1 0x40 MLOAD PUSH32 0x8C379A000000000000000000000000000000000000000000000000000000000 DUP2 MSTORE PUSH1 0x4 ADD PUSH2 0xDF SWAP1 PUSH2 0x31D JUMP JUMPDEST PUSH1 0x40 MLOAD DUP1 SWAP2 SUB SWAP1 REVERT JUMPDEST DUP2 PUSH20 0xFFFFFFFFFFFFFFFFFFFFFFFFFFFFFFFFFFFFFFFF AND PUSH1 0x80 DUP2 PUSH20 0xFFFFFFFFFFFFFFFFFFFFFFFFFFFFFFFFFFFFFFFF AND DUP2 MSTORE POP POP DUP1 PUSH1 0xA0 DUP2 DUP2 MSTORE POP POP POP POP POP POP PUSH2 0x33B JUMP JUMPDEST PUSH0 DUP1 REVERT JUMPDEST PUSH0 DUP2 SWAP1 POP SWAP2 SWAP1 POP JUMP JUMPDEST PUSH2 0x143 DUP2 PUSH2 0x131 JUMP JUMPDEST DUP2 EQ PUSH2 0x14D JUMPI PUSH0 DUP1 REVERT JUMPDEST POP JUMP JUMPDEST PUSH0 DUP2 MLOAD SWAP1 POP PUSH2 0x15E DUP2 PUSH2 0x13A JUMP JUMPDEST SWAP3 SWAP2 POP POP JUMP JUMPDEST PUSH0 PUSH20 0xFFFFFFFFFFFFFFFFFFFFFFFFFFFFFFFFFFFFFFFF DUP3 AND SWAP1 POP SWAP2 SWAP1 POP JUMP JUMPDEST PUSH0 PUSH2 0x18D DUP3 PUSH2 0x164 JUMP JUMPDEST SWAP1 POP SWAP2 SWAP1 POP JUMP JUMPDEST PUSH2 0x19D DUP2 PUSH2 0x183 JUMP JUMPDEST DUP2 EQ PUSH2 0x1A7 JUMPI PUSH0 DUP1 REVERT JUMPDEST POP JUMP JUMPDEST PUSH0 DUP2 MLOAD SWAP1 POP PUSH2 0x1B8 DUP2 PUSH2 0x194 JUMP JUMPDEST SWAP3 SWAP2 POP POP JUMP JUMPDEST PUSH0 DUP1 PUSH0 DUP1 PUSH1 0x80 DUP6 DUP8 SUB SLT ISZERO PUSH2 0x1D6 JUMPI PUSH2 0x1D5 PUSH2 0x12D JUMP JUMPDEST JUMPDEST PUSH0 PUSH2 0x1E3 DUP8 DUP3 DUP9 ADD PUSH2 0x150 JUMP JUMPDEST SWAP5 POP POP PUSH1 0x20 PUSH2 0x1F4 DUP8 DUP3 DUP9 ADD PUSH2 0x150 JUMP JUMPDEST SWAP4 POP POP PUSH1 0x40 PUSH2 0x205 DUP8 DUP3 DUP9 ADD PUSH2 0x1AA JUMP JUMPDEST SWAP3 POP POP PUSH1 0x60 PUSH2 0x216 DUP8 DUP3 DUP9 ADD PUSH2 0x150 JUMP JUMPDEST SWAP2 POP POP SWAP3 SWAP6 SWAP2 SWAP5 POP SWAP3 POP JUMP JUMPDEST PUSH32 0x4E487B7100000000000000000000000000000000000000000000000000000000 PUSH0 MSTORE PUSH1 0x11 PUSH1 0x4 MSTORE PUSH1 0x24 PUSH0 REVERT JUMPDEST PUSH0 PUSH2 0x259 DUP3 PUSH2 0x131 JUMP JUMPDEST SWAP2 POP PUSH2 0x264 DUP4 PUSH2 0x131 JUMP JUMPDEST SWAP3 POP DUP3 DUP3 ADD SWAP1 POP DUP1 DUP3 GT ISZERO PUSH2 0x27C JUMPI PUSH2 0x27B PUSH2 0x222 JUMP JUMPDEST JUMPDEST SWAP3 SWAP2 POP POP JUMP JUMPDEST PUSH0 PUSH2 0x28C DUP3 PUSH2 0x131 JUMP JUMPDEST SWAP2 POP PUSH2 0x297 DUP4 PUSH2 0x131 JUMP JUMPDEST SWAP3 POP DUP3 DUP3 MUL PUSH2 0x2A5 DUP2 PUSH2 0x131 JUMP JUMPDEST SWAP2 POP DUP3 DUP3 DIV DUP5 EQ DUP4 ISZERO OR PUSH2 0x2BC JUMPI PUSH2 0x2BB PUSH2 0x222 JUMP JUMPDEST JUMPDEST POP SWAP3 SWAP2 POP POP JUMP JUMPDEST PUSH0 DUP3 DUP3 MSTORE PUSH1 0x20 DUP3 ADD SWAP1 POP SWAP3 SWAP2 POP POP JUMP JUMPDEST PUSH32 0x5F73746172745072696365206973206661696C00000000000000000000000000 PUSH0 DUP3 ADD MSTORE POP JUMP JUMPDEST PUSH0 PUSH2 0x307 PUSH1 0x13 DUP4 PUSH2 0x2C3 JUMP JUMPDEST SWAP2 POP PUSH2 0x312 DUP3 PUSH2 0x2D3 JUMP JUMPDEST PUSH1 0x20 DUP3 ADD SWAP1 POP SWAP2 SWAP1 POP JUMP JUMPDEST PUSH0 PUSH1 0x20 DUP3 ADD SWAP1 POP DUP2 DUP2 SUB PUSH0 DUP4 ADD MSTORE PUSH2 0x334 DUP2 PUSH2 0x2FB JUMP JUMPDEST SWAP1 POP SWAP2 SWAP1 POP JUMP JUMPDEST PUSH1 0x80 MLOAD PUSH1 0xA0 MLOAD PUSH1 0xC0 MLOAD PUSH1 0xE0 MLOAD PUSH2 0x100 MLOAD PUSH2 0x120 MLOAD PUSH2 0x140 MLOAD PUSH2 0x86D PUSH2 0x3C4 PUSH0 CODECOPY PUSH0 DUP2 DUP2 PUSH2 0x2A6 ADD MSTORE PUSH2 0x340 ADD MSTORE PUSH0 DUP2 DUP2 PUSH2 0x1E5 ADD MSTORE PUSH2 0x364 ADD MSTORE PUSH0 DUP2 DUP2 PUSH2 0x251 ADD MSTORE PUSH2 0x277 ADD MSTORE PUSH0 DUP2 DUP2 PUSH2 0x2D6 ADD MSTORE DUP2 DUP2 PUSH2 0x30D ADD MSTORE PUSH2 0x562 ADD MSTORE PUSH0 DUP2 DUP2 PUSH2 0x209 ADD MSTORE PUSH2 0x450 ADD MSTORE PUSH0 DUP2 DUP2 PUSH2 0x472 ADD MSTORE PUSH2 0x53E ADD MSTORE PUSH0 DUP2 DUP2 PUSH2 0x22D ADD MSTORE PUSH2 0x414 ADD MSTORE PUSH2 0x86D PUSH0 RETURN INVALID PUSH1 0x80 PUSH1 0x40 MSTORE PUSH1 0x4 CALLDATASIZE LT PUSH2 0x85 JUMPI PUSH0 CALLDATALOAD PUSH1 0xE0 SHR DUP1 PUSH4 0x98D5FDCA GT PUSH2 0x58 JUMPI DUP1 PUSH4 0x98D5FDCA EQ PUSH2 0x131 JUMPI DUP1 PUSH4 0xA62E80FC EQ PUSH2 0x15B JUMPI DUP1 PUSH4 0xA6F2AE3A EQ PUSH2 0x185 JUMPI DUP1 PUSH4 0xC6BC5182 EQ PUSH2 0x18F JUMPI DUP1 PUSH4 0xF1A9AF89 EQ PUSH2 0x1B9 JUMPI PUSH2 0x85 JUMP JUMPDEST DUP1 PUSH4 0x3197CBB6 EQ PUSH2 0x89 JUMPI DUP1 PUSH4 0x3D9B2AE6 EQ PUSH2 0xB3 JUMPI DUP1 PUSH4 0x47CCCA02 EQ PUSH2 0xDD JUMPI DUP1 PUSH4 0x78E97925 EQ PUSH2 0x107 JUMPI JUMPDEST PUSH0 DUP1 REVERT JUMPDEST CALLVALUE DUP1 ISZERO PUSH2 0x94 JUMPI PUSH0 DUP1 REVERT JUMPDEST POP PUSH2 0x9D PUSH2 0x1E3 JUMP JUMPDEST PUSH1 0x40 MLOAD PUSH2 0xAA SWAP2 SWAP1 PUSH2 0x59C JUMP JUMPDEST PUSH1 0x40 MLOAD DUP1 SWAP2 SUB SWAP1 RETURN JUMPDEST CALLVALUE DUP1 ISZERO PUSH2 0xBE JUMPI PUSH0 DUP1 REVERT JUMPDEST POP PUSH2 0xC7 PUSH2 0x207 JUMP JUMPDEST PUSH1 0x40 MLOAD PUSH2 0xD4 SWAP2 SWAP1 PUSH2 0x5F4 JUMP JUMPDEST PUSH1 0x40 MLOAD DUP1 SWAP2 SUB SWAP1 RETURN JUMPDEST CALLVALUE DUP1 ISZERO PUSH2 0xE8 JUMPI PUSH0 DUP1 REVERT JUMPDEST POP PUSH2 0xF1 PUSH2 0x22B JUMP JUMPDEST PUSH1 0x40 MLOAD PUSH2 0xFE SWAP2 SWAP1 PUSH2 0x668 JUMP JUMPDEST PUSH1 0x40 MLOAD DUP1 SWAP2 SUB SWAP1 RETURN JUMPDEST CALLVALUE DUP1 ISZERO PUSH2 0x112 JUMPI PUSH0 DUP1 REVERT JUMPDEST POP PUSH2 0x11B PUSH2 0x24F JUMP JUMPDEST PUSH1 0x40 MLOAD PUSH2 0x128 SWAP2 SWAP1 PUSH2 0x59C JUMP JUMPDEST PUSH1 0x40 MLOAD DUP1 SWAP2 SUB SWAP1 RETURN JUMPDEST CALLVALUE DUP1 ISZERO PUSH2 0x13C JUMPI PUSH0 DUP1 REVERT JUMPDEST POP PUSH2 0x145 PUSH2 0x273 JUMP JUMPDEST PUSH1 0x40 MLOAD PUSH2 0x152 SWAP2 SWAP1 PUSH2 0x59C JUMP JUMPDEST PUSH1 0x40 MLOAD DUP1 SWAP2 SUB SWAP1 RETURN JUMPDEST CALLVALUE DUP1 ISZERO PUSH2 0x166 JUMPI PUSH0 DUP1 REVERT JUMPDEST POP PUSH2 0x16F PUSH2 0x33E JUMP JUMPDEST PUSH1 0x40 MLOAD PUSH2 0x17C SWAP2 SWAP1 PUSH2 0x59C JUMP JUMPDEST PUSH1 0x40 MLOAD DUP1 SWAP2 SUB SWAP1 RETURN JUMPDEST PUSH2 0x18D PUSH2 0x362 JUMP JUMPDEST STOP JUMPDEST CALLVALUE DUP1 ISZERO PUSH2 0x19A JUMPI PUSH0 DUP1 REVERT JUMPDEST POP PUSH2 0x1A3 PUSH2 0x53C JUMP JUMPDEST PUSH1 0x40 MLOAD PUSH2 0x1B0 SWAP2 SWAP1 PUSH2 0x59C JUMP JUMPDEST PUSH1 0x40 MLOAD DUP1 SWAP2 SUB SWAP1 RETURN JUMPDEST CALLVALUE DUP1 ISZERO PUSH2 0x1C4 JUMPI PUSH0 DUP1 REVERT JUMPDEST POP PUSH2 0x1CD PUSH2 0x560 JUMP JUMPDEST PUSH1 0x40 MLOAD PUSH2 0x1DA SWAP2 SWAP1 PUSH2 0x59C JUMP JUMPDEST PUSH1 0x40 MLOAD DUP1 SWAP2 SUB SWAP1 RETURN JUMPDEST PUSH32 0x0 DUP2 JUMP JUMPDEST PUSH32 0x0 DUP2 JUMP JUMPDEST PUSH32 0x0 DUP2 JUMP JUMPDEST PUSH32 0x0 DUP2 JUMP JUMPDEST PUSH0 DUP1 PUSH32 0x0 TIMESTAMP PUSH2 0x2A1 SWAP2 SWAP1 PUSH2 0x6AE JUMP JUMPDEST SWAP1 POP PUSH0 PUSH32 0x0 DUP3 PUSH2 0x2D0 SWAP2 SWAP1 PUSH2 0x6E1 JUMP JUMPDEST SWAP1 POP PUSH0 DUP2 PUSH32 0x0 PUSH2 0x2FF SWAP2 SWAP1 PUSH2 0x6AE JUMP JUMPDEST GT PUSH2 0x30A JUMPI PUSH0 PUSH2 0x337 JUMP JUMPDEST DUP1 PUSH32 0x0 PUSH2 0x336 SWAP2 SWAP1 PUSH2 0x6AE JUMP JUMPDEST JUMPDEST SWAP3 POP POP POP SWAP1 JUMP JUMPDEST PUSH32 0x0 DUP2 JUMP JUMPDEST PUSH32 0x0 TIMESTAMP LT PUSH2 0x3C4 JUMPI PUSH1 0x40 MLOAD PUSH32 0x8C379A000000000000000000000000000000000000000000000000000000000 DUP2 MSTORE PUSH1 0x4 ADD PUSH2 0x3BB SWAP1 PUSH2 0x77C JUMP JUMPDEST PUSH1 0x40 MLOAD DUP1 SWAP2 SUB SWAP1 REVERT JUMPDEST PUSH0 PUSH2 0x3CD PUSH2 0x273 JUMP JUMPDEST SWAP1 POP DUP1 CALLVALUE LT ISZERO PUSH2 0x412 JUMPI PUSH1 0x40 MLOAD PUSH32 0x8C379A000000000000000000000000000000000000000000000000000000000 DUP2 MSTORE PUSH1 0x4 ADD PUSH2 0x409 SWAP1 PUSH2 0x7E4 JUMP JUMPDEST PUSH1 0x40 MLOAD DUP1 SWAP2 SUB SWAP1 REVERT JUMPDEST PUSH32 0x0 PUSH20 0xFFFFFFFFFFFFFFFFFFFFFFFFFFFFFFFFFFFFFFFF AND PUSH4 0x23B872DD PUSH32 0x0 CALLER PUSH32 0x0 PUSH1 0x40 MLOAD DUP5 PUSH4 0xFFFFFFFF AND PUSH1 0xE0 SHL DUP2 MSTORE PUSH1 0x4 ADD PUSH2 0x4AF SWAP4 SWAP3 SWAP2 SWAP1 PUSH2 0x802 JUMP JUMPDEST PUSH0 PUSH1 0x40 MLOAD DUP1 DUP4 SUB DUP2 PUSH0 DUP8 DUP1 EXTCODESIZE ISZERO DUP1 ISZERO PUSH2 0x4C6 JUMPI PUSH0 DUP1 REVERT JUMPDEST POP GAS CALL ISZERO DUP1 ISZERO PUSH2 0x4D8 JUMPI RETURNDATASIZE PUSH0 DUP1 RETURNDATACOPY RETURNDATASIZE PUSH0 REVERT JUMPDEST POP POP POP POP PUSH0 DUP2 CALLVALUE PUSH2 0x4E9 SWAP2 SWAP1 PUSH2 0x6AE JUMP JUMPDEST SWAP1 POP PUSH0 DUP2 GT ISZERO PUSH2 0x538 JUMPI CALLER PUSH20 0xFFFFFFFFFFFFFFFFFFFFFFFFFFFFFFFFFFFFFFFF AND PUSH2 0x8FC DUP3 SWAP1 DUP2 ISZERO MUL SWAP1 PUSH1 0x40 MLOAD PUSH0 PUSH1 0x40 MLOAD DUP1 DUP4 SUB DUP2 DUP6 DUP9 DUP9 CALL SWAP4 POP POP POP POP ISZERO DUP1 ISZERO PUSH2 0x536 JUMPI RETURNDATASIZE PUSH0 DUP1 RETURNDATACOPY RETURNDATASIZE PUSH0 REVERT JUMPDEST POP JUMPDEST POP POP JUMP JUMPDEST PUSH32 0x0 DUP2 JUMP JUMPDEST PUSH32 0x0 DUP2 JUMP JUMPDEST PUSH0 DUP2 SWAP1 POP SWAP2 SWAP1 POP JUMP JUMPDEST PUSH2 0x596 DUP2 PUSH2 0x584 JUMP JUMPDEST DUP3 MSTORE POP POP JUMP JUMPDEST PUSH0 PUSH1 0x20 DUP3 ADD SWAP1 POP PUSH2 0x5AF PUSH0 DUP4 ADD DUP5 PUSH2 0x58D JUMP JUMPDEST SWAP3 SWAP2 POP POP JUMP JUMPDEST PUSH0 PUSH20 0xFFFFFFFFFFFFFFFFFFFFFFFFFFFFFFFFFFFFFFFF DUP3 AND SWAP1 POP SWAP2 SWAP1 POP JUMP JUMPDEST PUSH0 PUSH2 0x5DE DUP3 PUSH2 0x5B5 JUMP JUMPDEST SWAP1 POP SWAP2 SWAP1 POP JUMP JUMPDEST PUSH2 0x5EE DUP2 PUSH2 0x5D4 JUMP JUMPDEST DUP3 MSTORE POP POP JUMP JUMPDEST PUSH0 PUSH1 0x20 DUP3 ADD SWAP1 POP PUSH2 0x607 PUSH0 DUP4 ADD DUP5 PUSH2 0x5E5 JUMP JUMPDEST SWAP3 SWAP2 POP POP JUMP JUMPDEST PUSH0 DUP2 SWAP1 POP SWAP2 SWAP1 POP JUMP JUMPDEST PUSH0 PUSH2 0x630 PUSH2 0x62B PUSH2 0x626 DUP5 PUSH2 0x5B5 JUMP JUMPDEST PUSH2 0x60D JUMP JUMPDEST PUSH2 0x5B5 JUMP JUMPDEST SWAP1 POP SWAP2 SWAP1 POP JUMP JUMPDEST PUSH0 PUSH2 0x641 DUP3 PUSH2 0x616 JUMP JUMPDEST SWAP1 POP SWAP2 SWAP1 POP JUMP JUMPDEST PUSH0 PUSH2 0x652 DUP3 PUSH2 0x637 JUMP JUMPDEST SWAP1 POP SWAP2 SWAP1 POP JUMP JUMPDEST PUSH2 0x662 DUP2 PUSH2 0x648 JUMP JUMPDEST DUP3 MSTORE POP POP JUMP JUMPDEST PUSH0 PUSH1 0x20 DUP3 ADD SWAP1 POP PUSH2 0x67B PUSH0 DUP4 ADD DUP5 PUSH2 0x659 JUMP JUMPDEST SWAP3 SWAP2 POP POP JUMP JUMPDEST PUSH32 0x4E487B7100000000000000000000000000000000000000000000000000000000 PUSH0 MSTORE PUSH1 0x11 PUSH1 0x4 MSTORE PUSH1 0x24 PUSH0 REVERT JUMPDEST PUSH0 PUSH2 0x6B8 DUP3 PUSH2 0x584 JUMP JUMPDEST SWAP2 POP PUSH2 0x6C3 DUP4 PUSH2 0x584 JUMP JUMPDEST SWAP3 POP DUP3 DUP3 SUB SWAP1 POP DUP2 DUP2 GT ISZERO PUSH2 0x6DB JUMPI PUSH2 0x6DA PUSH2 0x681 JUMP JUMPDEST JUMPDEST SWAP3 SWAP2 POP POP JUMP JUMPDEST PUSH0 PUSH2 0x6EB DUP3 PUSH2 0x584 JUMP JUMPDEST SWAP2 POP PUSH2 0x6F6 DUP4 PUSH2 0x584 JUMP JUMPDEST SWAP3 POP DUP3 DUP3 MUL PUSH2 0x704 DUP2 PUSH2 0x584 JUMP JUMPDEST SWAP2 POP DUP3 DUP3 DIV DUP5 EQ DUP4 ISZERO OR PUSH2 0x71B JUMPI PUSH2 0x71A PUSH2 0x681 JUMP JUMPDEST JUMPDEST POP SWAP3 SWAP2 POP POP JUMP JUMPDEST PUSH0 DUP3 DUP3 MSTORE PUSH1 0x20 DUP3 ADD SWAP1 POP SWAP3 SWAP2 POP POP JUMP JUMPDEST PUSH32 0x74696D65206C6173740000000000000000000000000000000000000000000000 PUSH0 DUP3 ADD MSTORE POP JUMP JUMPDEST PUSH0 PUSH2 0x766 PUSH1 0x9 DUP4 PUSH2 0x722 JUMP JUMPDEST SWAP2 POP PUSH2 0x771 DUP3 PUSH2 0x732 JUMP JUMPDEST PUSH1 0x20 DUP3 ADD SWAP1 POP SWAP2 SWAP1 POP JUMP JUMPDEST PUSH0 PUSH1 0x20 DUP3 ADD SWAP1 POP DUP2 DUP2 SUB PUSH0 DUP4 ADD MSTORE PUSH2 0x793 DUP2 PUSH2 0x75A JUMP JUMPDEST SWAP1 POP SWAP2 SWAP1 POP JUMP JUMPDEST PUSH32 0x4E6F7420656E6F7567682076616C756500000000000000000000000000000000 PUSH0 DUP3 ADD MSTORE POP JUMP JUMPDEST PUSH0 PUSH2 0x7CE PUSH1 0x10 DUP4 PUSH2 0x722 JUMP JUMPDEST SWAP2 POP PUSH2 0x7D9 DUP3 PUSH2 0x79A JUMP JUMPDEST PUSH1 0x20 DUP3 ADD SWAP1 POP SWAP2 SWAP1 POP JUMP JUMPDEST PUSH0 PUSH1 0x20 DUP3 ADD SWAP1 POP DUP2 DUP2 SUB PUSH0 DUP4 ADD MSTORE PUSH2 0x7FB DUP2 PUSH2 0x7C2 JUMP JUMPDEST SWAP1 POP SWAP2 SWAP1 POP JUMP JUMPDEST PUSH0 PUSH1 0x60 DUP3 ADD SWAP1 POP PUSH2 0x815 PUSH0 DUP4 ADD DUP7 PUSH2 0x5E5 JUMP JUMPDEST PUSH2 0x822 PUSH1 0x20 DUP4 ADD DUP6 PUSH2 0x5E5 JUMP JUMPDEST PUSH2 0x82F PUSH1 0x40 DUP4 ADD DUP5 PUSH2 0x58D JUMP JUMPDEST SWAP5 SWAP4 POP POP POP POP JUMP INVALID LOG2 PUSH5 0x6970667358 0x22 SLT KECCAK256 DUP10 PUSH23 0xC3FDC8FB4582BB6D27774843F89C2502FE182679065EA6 DUP1 PUSH16 0xDB45E9BCD664736F6C634300081A0033 "
		},
		"gasEstimates": {
			"creation": {
				"codeDepositCost": "431400",
				"executionCost": "infinite",
				"totalCost": "infinite"
			},
			"external": {
				"buy()": "infinite",
				"cutRate()": "infinite",
				"endTime()": "infinite",
				"getPrice()": "infinite",
				"nft()": "infinite",
				"nftId()": "infinite",
				"sellerAddress()": "infinite",
				"startPrice()": "infinite",
				"startTime()": "infinite"
			}
		},
		"methodIdentifiers": {
			"buy()": "a6f2ae3a",
			"cutRate()": "a62e80fc",
			"endTime()": "3197cbb6",
			"getPrice()": "98d5fdca",
			"nft()": "47ccca02",
			"nftId()": "c6bc5182",
			"sellerAddress()": "3d9b2ae6",
			"startPrice()": "f1a9af89",
			"startTime()": "78e97925"
		}
	},
	"abi": [
		{
			"inputs": [
				{
					"internalType": "uint256",
					"name": "_startPrice",
					"type": "uint256"
				},
				{
					"internalType": "uint256",
					"name": "_cutRate",
					"type": "uint256"
				},
				{
					"internalType": "address",
					"name": "_nft",
					"type": "address"
				},
				{
					"internalType": "uint256",
					"name": "_nftId",
					"type": "uint256"
				}
			],
			"stateMutability": "nonpayable",
			"type": "constructor"
		},
		{
			"inputs": [],
			"name": "buy",
			"outputs": [],
			"stateMutability": "payable",
			"type": "function"
		},
		{
			"inputs": [],
			"name": "cutRate",
			"outputs": [
				{
					"internalType": "uint256",
					"name": "",
					"type": "uint256"
				}
			],
			"stateMutability": "view",
			"type": "function"
		},
		{
			"inputs": [],
			"name": "endTime",
			"outputs": [
				{
					"internalType": "uint256",
					"name": "",
					"type": "uint256"
				}
			],
			"stateMutability": "view",
			"type": "function"
		},
		{
			"inputs": [],
			"name": "getPrice",
			"outputs": [
				{
					"internalType": "uint256",
					"name": "",
					"type": "uint256"
				}
			],
			"stateMutability": "view",
			"type": "function"
		},
		{
			"inputs": [],
			"name": "nft",
			"outputs": [
				{
					"internalType": "contract IERC721",
					"name": "",
					"type": "address"
				}
			],
			"stateMutability": "view",
			"type": "function"
		},
		{
			"inputs": [],
			"name": "nftId",
			"outputs": [
				{
					"internalType": "uint256",
					"name": "",
					"type": "uint256"
				}
			],
			"stateMutability": "view",
			"type": "function"
		},
		{
			"inputs": [],
			"name": "sellerAddress",
			"outputs": [
				{
					"internalType": "address",
					"name": "",
					"type": "address"
				}
			],
			"stateMutability": "view",
			"type": "function"
		},
		{
			"inputs": [],
			"name": "startPrice",
			"outputs": [
				{
					"internalType": "uint256",
					"name": "",
					"type": "uint256"
				}
			],
			"stateMutability": "view",
			"type": "function"
		},
		{
			"inputs": [],
			"name": "startTime",
			"outputs": [
				{
					"internalType": "uint256",
					"name": "",
					"type": "uint256"
				}
			],
			"stateMutability": "view",
			"type": "function"
		}
	]
}